{
  "_format": "hh-sol-artifact-1",
  "contractName": "Staking",
  "sourceName": "contracts/Staking.sol",
  "abi": [
    {
      "inputs": [
        {
          "internalType": "address",
          "name": "_stakingToken",
          "type": "address"
        },
        {
          "internalType": "uint256",
          "name": "_stakingDuration",
          "type": "uint256"
        }
      ],
      "stateMutability": "nonpayable",
      "type": "constructor"
    },
    {
      "inputs": [
        {
          "internalType": "address",
          "name": "owner",
          "type": "address"
        }
      ],
      "name": "OwnableInvalidOwner",
      "type": "error"
    },
    {
      "inputs": [
        {
          "internalType": "address",
          "name": "account",
          "type": "address"
        }
      ],
      "name": "OwnableUnauthorizedAccount",
      "type": "error"
    },
    {
      "inputs": [],
      "name": "ReentrancyGuardReentrantCall",
      "type": "error"
    },
    {
      "anonymous": false,
      "inputs": [
        {
          "indexed": true,
          "internalType": "address",
          "name": "previousOwner",
          "type": "address"
        },
        {
          "indexed": true,
          "internalType": "address",
          "name": "newOwner",
          "type": "address"
        }
      ],
      "name": "OwnershipTransferred",
      "type": "event"
    },
    {
      "anonymous": false,
      "inputs": [
        {
          "indexed": true,
          "internalType": "address",
          "name": "user",
          "type": "address"
        },
        {
          "indexed": false,
          "internalType": "uint256",
          "name": "reward",
          "type": "uint256"
        }
      ],
      "name": "RewardPaid",
      "type": "event"
    },
    {
      "anonymous": false,
      "inputs": [
        {
          "indexed": true,
          "internalType": "address",
          "name": "user",
          "type": "address"
        },
        {
          "indexed": false,
          "internalType": "uint256",
          "name": "amount",
          "type": "uint256"
        }
      ],
      "name": "Staked",
      "type": "event"
    },
    {
      "anonymous": false,
      "inputs": [
        {
          "indexed": true,
          "internalType": "address",
          "name": "user",
          "type": "address"
        },
        {
          "indexed": false,
          "internalType": "uint256",
          "name": "amount",
          "type": "uint256"
        }
      ],
      "name": "Withdrawn",
      "type": "event"
    },
    {
      "inputs": [],
      "name": "YIELD_CONSTANT",
      "outputs": [
        {
          "internalType": "uint256",
          "name": "",
          "type": "uint256"
        }
      ],
      "stateMutability": "view",
      "type": "function"
    },
    {
      "inputs": [
        {
          "internalType": "uint256",
          "name": "_amount",
          "type": "uint256"
        },
        {
          "internalType": "uint256",
          "name": "startTime",
          "type": "uint256"
        }
      ],
      "name": "calculateTotalWithdraw",
      "outputs": [
        {
          "internalType": "uint256",
          "name": "",
          "type": "uint256"
        }
      ],
      "stateMutability": "view",
      "type": "function"
    },
    {
      "inputs": [],
      "name": "owner",
      "outputs": [
        {
          "internalType": "address",
          "name": "",
          "type": "address"
        }
      ],
      "stateMutability": "view",
      "type": "function"
    },
    {
      "inputs": [],
      "name": "renounceOwnership",
      "outputs": [],
      "stateMutability": "nonpayable",
      "type": "function"
    },
    {
      "inputs": [
        {
          "internalType": "uint256",
          "name": "_amount",
          "type": "uint256"
        }
      ],
      "name": "stake",
      "outputs": [],
      "stateMutability": "nonpayable",
      "type": "function"
    },
    {
      "inputs": [],
      "name": "stakingDuration",
      "outputs": [
        {
          "internalType": "uint256",
          "name": "",
          "type": "uint256"
        }
      ],
      "stateMutability": "view",
      "type": "function"
    },
    {
      "inputs": [],
      "name": "stakingToken",
      "outputs": [
        {
          "internalType": "contract IERC20",
          "name": "",
          "type": "address"
        }
      ],
      "stateMutability": "view",
      "type": "function"
    },
    {
      "inputs": [],
      "name": "totalSupply",
      "outputs": [
        {
          "internalType": "uint256",
          "name": "",
          "type": "uint256"
        }
      ],
      "stateMutability": "view",
      "type": "function"
    },
    {
      "inputs": [
        {
          "internalType": "address",
          "name": "newOwner",
          "type": "address"
        }
      ],
      "name": "transferOwnership",
      "outputs": [],
      "stateMutability": "nonpayable",
      "type": "function"
    },
    {
      "inputs": [],
      "name": "unstake",
      "outputs": [],
      "stateMutability": "nonpayable",
      "type": "function"
    },
    {
      "inputs": [
        {
          "internalType": "address",
          "name": "",
          "type": "address"
        }
      ],
      "name": "userStakes",
      "outputs": [
        {
          "internalType": "uint256",
          "name": "amount",
          "type": "uint256"
        },
        {
          "internalType": "uint256",
          "name": "startTime",
          "type": "uint256"
        }
      ],
      "stateMutability": "view",
      "type": "function"
    }
  ],
  "bytecode": "0x608060405234801561001057600080fd5b506040516108d43803806108d483398101604081905261002f916100dc565b338061005557604051631e4fbdf760e01b81526000600482015260240160405180910390fd5b61005e8161008c565b5060018055600280546001600160a01b0319166001600160a01b039390931692909217909155600355610116565b600080546001600160a01b038381166001600160a01b0319831681178455604051919092169283917f8be0079c531659141344cd1fd0a4f28419497f9722a3daafe3b4186f6b6457e09190a35050565b600080604083850312156100ef57600080fd5b82516001600160a01b038116811461010657600080fd5b6020939093015192949293505050565b6107af806101256000396000f3fe608060405234801561001057600080fd5b50600436106100a95760003560e01c80638005a7de116100715780638005a7de146101105780638da5cb5b146101195780638da7ad231461012a578063a694fc3a14610166578063d2771e0114610179578063f2fde38b1461018c57600080fd5b806318160ddd146100ae5780632def6620146100c557806356f7b91c146100cf578063715018a6146100dd57806372f702f3146100e5575b600080fd5b6005545b6040519081526020015b60405180910390f35b6100cd61019f565b005b6100b26602d79883d2000081565b6100cd6102fa565b6002546100f8906001600160a01b031681565b6040516001600160a01b0390911681526020016100bc565b6100b260035481565b6000546001600160a01b03166100f8565b610151610138366004610677565b6004602052600090815260409020805460019091015482565b604080519283526020830191909152016100bc565b6100cd6101743660046106a7565b61030c565b6100b26101873660046106c0565b610457565b6100cd61019a366004610677565b610595565b6101a76105d0565b33600090815260046020526040902080546102095760405162461bcd60e51b815260206004820152601c60248201527f4e6f207374616b656420616d6f756e7420746f2077697468647261770000000060448201526064015b60405180910390fd5b8054600182015460009061021e908390610457565b905060008360000181905550816005600082825461023c91906106f8565b909155505060025460405163a9059cbb60e01b8152336004820152602481018390526001600160a01b039091169063a9059cbb906044016020604051808303816000875af1158015610292573d6000803e3d6000fd5b505050506040513d601f19601f820116820180604052508101906102b6919061070b565b5060405181815233907f7084f5476618d8e60b11ef0d7d3f06914655adb8793e28ff7f018d4c76d505d59060200160405180910390a25050506102f860018055565b565b6103026105fa565b6102f86000610627565b6103146105d0565b600081116103555760405162461bcd60e51b815260206004820152600e60248201526d043616e6e6f74207374616b6520360941b6044820152606401610200565b604080518082018252828152426020808301918252336000908152600490915292832091518255516001909101556005805483929061039590849061072d565b90915550506002546040516323b872dd60e01b8152336004820152306024820152604481018390526001600160a01b03909116906323b872dd906064016020604051808303816000875af11580156103f1573d6000803e3d6000fd5b505050506040513d601f19601f82011682018060405250810190610415919061070b565b5060405181815233907f9e71bc8eea02a63969f509818f2dafb9254532904319f9dbda79b67bd34a5f3d9060200160405180910390a261045460018055565b50565b60008061046483426106f8565b9050600060035482600c6104789190610740565b61048a90670de0b6b3a7640000610740565b6104949190610757565b905060008060035484106104bf576104b46602d79883d200006090610740565b91506000905061052c565b6ec097ce7bc90715b34b9f1000000000836104e1816602d79883d20000610740565b6104eb9190610740565b6104f59190610757565b60035490925061050d856706a94d74f4300000610740565b6105179190610757565b61052990670853a0d2313c00006106f8565b90505b6000670de0b6b3a7640000610541848a610740565b61054b9190610757565b90506000670de0b6b3a76400006105628484610740565b61056c9190610757565b905060008161057b848c61072d565b61058591906106f8565b9750505050505050505b92915050565b61059d6105fa565b6001600160a01b0381166105c757604051631e4fbdf760e01b815260006004820152602401610200565b61045481610627565b6002600154036105f357604051633ee5aeb560e01b815260040160405180910390fd5b6002600155565b6000546001600160a01b031633146102f85760405163118cdaa760e01b8152336004820152602401610200565b600080546001600160a01b038381166001600160a01b0319831681178455604051919092169283917f8be0079c531659141344cd1fd0a4f28419497f9722a3daafe3b4186f6b6457e09190a35050565b60006020828403121561068957600080fd5b81356001600160a01b03811681146106a057600080fd5b9392505050565b6000602082840312156106b957600080fd5b5035919050565b600080604083850312156106d357600080fd5b50508035926020909101359150565b634e487b7160e01b600052601160045260246000fd5b8181038181111561058f5761058f6106e2565b60006020828403121561071d57600080fd5b815180151581146106a057600080fd5b8082018082111561058f5761058f6106e2565b808202811582820484141761058f5761058f6106e2565b60008261077457634e487b7160e01b600052601260045260246000fd5b50049056fea2646970667358221220220dc23eacfc9b69199fd9d370bf97d21ae12e36380873a735cd1824066d52b864736f6c63430008140033",
  "linkReferences": {},
  "deployedLinkReferences": {}
}