{
  "_format": "hh-sol-artifact-1",
  "contractName": "Staking",
  "sourceName": "contracts/Staking.sol",
  "abi": [
    {
      "inputs": [],
      "name": "EnforcedPause",
      "type": "error"
    },
    {
      "inputs": [],
      "name": "ExpectedPause",
      "type": "error"
    },
    {
      "inputs": [],
      "name": "InvalidInitialization",
      "type": "error"
    },
    {
      "inputs": [],
      "name": "NotInitializing",
      "type": "error"
    },
    {
      "inputs": [
        {
          "internalType": "address",
          "name": "owner",
          "type": "address"
        }
      ],
      "name": "OwnableInvalidOwner",
      "type": "error"
    },
    {
      "inputs": [
        {
          "internalType": "address",
          "name": "account",
          "type": "address"
        }
      ],
      "name": "OwnableUnauthorizedAccount",
      "type": "error"
    },
    {
      "inputs": [],
      "name": "ReentrancyGuardReentrantCall",
      "type": "error"
    },
    {
      "anonymous": false,
      "inputs": [
        {
          "indexed": true,
          "internalType": "address",
          "name": "owner",
          "type": "address"
        },
        {
          "indexed": false,
          "internalType": "uint256",
          "name": "amount",
          "type": "uint256"
        }
      ],
      "name": "Deposit",
      "type": "event"
    },
    {
      "anonymous": false,
      "inputs": [
        {
          "indexed": false,
          "internalType": "uint64",
          "name": "version",
          "type": "uint64"
        }
      ],
      "name": "Initialized",
      "type": "event"
    },
    {
      "anonymous": false,
      "inputs": [
        {
          "indexed": true,
          "internalType": "address",
          "name": "previousOwner",
          "type": "address"
        },
        {
          "indexed": true,
          "internalType": "address",
          "name": "newOwner",
          "type": "address"
        }
      ],
      "name": "OwnershipTransferred",
      "type": "event"
    },
    {
      "anonymous": false,
      "inputs": [
        {
          "indexed": false,
          "internalType": "address",
          "name": "account",
          "type": "address"
        }
      ],
      "name": "Paused",
      "type": "event"
    },
    {
      "anonymous": false,
      "inputs": [
        {
          "indexed": true,
          "internalType": "address",
          "name": "user",
          "type": "address"
        },
        {
          "indexed": false,
          "internalType": "uint256",
          "name": "reward",
          "type": "uint256"
        }
      ],
      "name": "RewardPaid",
      "type": "event"
    },
    {
      "anonymous": false,
      "inputs": [
        {
          "indexed": true,
          "internalType": "address",
          "name": "user",
          "type": "address"
        },
        {
          "indexed": false,
          "internalType": "uint256",
          "name": "amount",
          "type": "uint256"
        }
      ],
      "name": "Staked",
      "type": "event"
    },
    {
      "anonymous": false,
      "inputs": [
        {
          "indexed": false,
          "internalType": "address",
          "name": "account",
          "type": "address"
        }
      ],
      "name": "Unpaused",
      "type": "event"
    },
    {
      "anonymous": false,
      "inputs": [
        {
          "indexed": true,
          "internalType": "address",
          "name": "user",
          "type": "address"
        },
        {
          "indexed": false,
          "internalType": "uint256",
          "name": "amount",
          "type": "uint256"
        }
      ],
      "name": "UnstakeRequested",
      "type": "event"
    },
    {
      "anonymous": false,
      "inputs": [
        {
          "indexed": true,
          "internalType": "address",
          "name": "user",
          "type": "address"
        },
        {
          "indexed": false,
          "internalType": "bool",
          "name": "status",
          "type": "bool"
        }
      ],
      "name": "WhitelistStatusChanged",
      "type": "event"
    },
    {
      "anonymous": false,
      "inputs": [
        {
          "indexed": true,
          "internalType": "address",
          "name": "owner",
          "type": "address"
        },
        {
          "indexed": false,
          "internalType": "uint256",
          "name": "amount",
          "type": "uint256"
        }
      ],
      "name": "Withdraw",
      "type": "event"
    },
    {
      "anonymous": false,
      "inputs": [
        {
          "indexed": true,
          "internalType": "address",
          "name": "user",
          "type": "address"
        },
        {
          "indexed": false,
          "internalType": "uint256",
          "name": "amount",
          "type": "uint256"
        }
      ],
      "name": "Withdrawn",
      "type": "event"
    },
    {
      "inputs": [],
      "name": "_rewardPool",
      "outputs": [
        {
          "internalType": "uint256",
          "name": "",
          "type": "uint256"
        }
      ],
      "stateMutability": "view",
      "type": "function"
    },
    {
      "inputs": [],
      "name": "_totalStaked",
      "outputs": [
        {
          "internalType": "uint256",
          "name": "",
          "type": "uint256"
        }
      ],
      "stateMutability": "view",
      "type": "function"
    },
    {
      "inputs": [
        {
          "internalType": "address",
          "name": "_address",
          "type": "address"
        }
      ],
      "name": "addToWhitelist",
      "outputs": [],
      "stateMutability": "nonpayable",
      "type": "function"
    },
    {
      "inputs": [
        {
          "internalType": "uint256",
          "name": "timeStaked",
          "type": "uint256"
        }
      ],
      "name": "calculateTax",
      "outputs": [
        {
          "internalType": "uint256",
          "name": "",
          "type": "uint256"
        }
      ],
      "stateMutability": "view",
      "type": "function"
    },
    {
      "inputs": [
        {
          "internalType": "uint256",
          "name": "_amount",
          "type": "uint256"
        },
        {
          "internalType": "uint256",
          "name": "startTime",
          "type": "uint256"
        }
      ],
      "name": "calculateTotalWithdraw",
      "outputs": [
        {
          "internalType": "uint256",
          "name": "",
          "type": "uint256"
        }
      ],
      "stateMutability": "view",
      "type": "function"
    },
    {
      "inputs": [
        {
          "internalType": "uint256",
          "name": "timeStaked",
          "type": "uint256"
        }
      ],
      "name": "calculateYield",
      "outputs": [
        {
          "internalType": "uint256",
          "name": "",
          "type": "uint256"
        }
      ],
      "stateMutability": "view",
      "type": "function"
    },
    {
      "inputs": [],
      "name": "claim",
      "outputs": [],
      "stateMutability": "nonpayable",
      "type": "function"
    },
    {
      "inputs": [],
      "name": "cooldownPeriod",
      "outputs": [
        {
          "internalType": "uint256",
          "name": "",
          "type": "uint256"
        }
      ],
      "stateMutability": "view",
      "type": "function"
    },
    {
      "inputs": [
        {
          "internalType": "uint256",
          "name": "_amount",
          "type": "uint256"
        }
      ],
      "name": "depositRewardTokens",
      "outputs": [],
      "stateMutability": "nonpayable",
      "type": "function"
    },
    {
      "inputs": [],
      "name": "disableWhitelist",
      "outputs": [],
      "stateMutability": "nonpayable",
      "type": "function"
    },
    {
      "inputs": [],
      "name": "enableWhitelist",
      "outputs": [],
      "stateMutability": "nonpayable",
      "type": "function"
    },
    {
      "inputs": [
        {
          "internalType": "address",
          "name": "_stakingToken",
          "type": "address"
        },
        {
          "internalType": "uint256",
          "name": "_stakingDuration",
          "type": "uint256"
        },
        {
          "internalType": "uint256",
          "name": "_yieldConstant",
          "type": "uint256"
        },
        {
          "internalType": "uint256",
          "name": "_cooldownPeriod",
          "type": "uint256"
        },
        {
          "internalType": "uint256",
          "name": "_startingSlashingPoint",
          "type": "uint256"
        },
        {
          "internalType": "uint256",
          "name": "_monthlyIncreasePercentage",
          "type": "uint256"
        }
      ],
      "name": "initialize",
      "outputs": [],
      "stateMutability": "nonpayable",
      "type": "function"
    },
    {
      "inputs": [],
      "name": "maxCap",
      "outputs": [
        {
          "internalType": "uint256",
          "name": "",
          "type": "uint256"
        }
      ],
      "stateMutability": "view",
      "type": "function"
    },
    {
      "inputs": [],
      "name": "minCap",
      "outputs": [
        {
          "internalType": "uint256",
          "name": "",
          "type": "uint256"
        }
      ],
      "stateMutability": "view",
      "type": "function"
    },
    {
      "inputs": [],
      "name": "monthlyIncreasePercentage",
      "outputs": [
        {
          "internalType": "uint256",
          "name": "",
          "type": "uint256"
        }
      ],
      "stateMutability": "view",
      "type": "function"
    },
    {
      "inputs": [],
      "name": "monthsInStakingPeriod",
      "outputs": [
        {
          "internalType": "uint256",
          "name": "",
          "type": "uint256"
        }
      ],
      "stateMutability": "view",
      "type": "function"
    },
    {
      "inputs": [],
      "name": "owner",
      "outputs": [
        {
          "internalType": "address",
          "name": "",
          "type": "address"
        }
      ],
      "stateMutability": "view",
      "type": "function"
    },
    {
      "inputs": [],
      "name": "pauseStaking",
      "outputs": [
        {
          "internalType": "bool",
          "name": "",
          "type": "bool"
        }
      ],
      "stateMutability": "view",
      "type": "function"
    },
    {
      "inputs": [],
      "name": "pauseStakingFunction",
      "outputs": [],
      "stateMutability": "nonpayable",
      "type": "function"
    },
    {
      "inputs": [],
      "name": "pauseUnstake",
      "outputs": [
        {
          "internalType": "bool",
          "name": "",
          "type": "bool"
        }
      ],
      "stateMutability": "view",
      "type": "function"
    },
    {
      "inputs": [],
      "name": "paused",
      "outputs": [
        {
          "internalType": "bool",
          "name": "",
          "type": "bool"
        }
      ],
      "stateMutability": "view",
      "type": "function"
    },
    {
      "inputs": [
        {
          "internalType": "address",
          "name": "_address",
          "type": "address"
        }
      ],
      "name": "removeFromWhitelist",
      "outputs": [],
      "stateMutability": "nonpayable",
      "type": "function"
    },
    {
      "inputs": [],
      "name": "renounceOwnership",
      "outputs": [],
      "stateMutability": "nonpayable",
      "type": "function"
    },
    {
      "inputs": [],
      "name": "rewardPool",
      "outputs": [
        {
          "internalType": "uint256",
          "name": "",
          "type": "uint256"
        }
      ],
      "stateMutability": "view",
      "type": "function"
    },
    {
      "inputs": [
        {
          "internalType": "uint256",
          "name": "_amount",
          "type": "uint256"
        }
      ],
      "name": "stake",
      "outputs": [],
      "stateMutability": "nonpayable",
      "type": "function"
    },
    {
      "inputs": [],
      "name": "stakingDuration",
      "outputs": [
        {
          "internalType": "uint256",
          "name": "",
          "type": "uint256"
        }
      ],
      "stateMutability": "view",
      "type": "function"
    },
    {
      "inputs": [],
      "name": "stakingToken",
      "outputs": [
        {
          "internalType": "contract IERC20",
          "name": "",
          "type": "address"
        }
      ],
      "stateMutability": "view",
      "type": "function"
    },
    {
      "inputs": [],
      "name": "startingSlashingPoint",
      "outputs": [
        {
          "internalType": "uint256",
          "name": "",
          "type": "uint256"
        }
      ],
      "stateMutability": "view",
      "type": "function"
    },
    {
      "inputs": [],
      "name": "totalStaked",
      "outputs": [
        {
          "internalType": "uint256",
          "name": "",
          "type": "uint256"
        }
      ],
      "stateMutability": "view",
      "type": "function"
    },
    {
      "inputs": [
        {
          "internalType": "address",
          "name": "newOwner",
          "type": "address"
        }
      ],
      "name": "transferOwnership",
      "outputs": [],
      "stateMutability": "nonpayable",
      "type": "function"
    },
    {
      "inputs": [],
      "name": "unpauseStaking",
      "outputs": [],
      "stateMutability": "nonpayable",
      "type": "function"
    },
    {
      "inputs": [],
      "name": "unstake",
      "outputs": [],
      "stateMutability": "nonpayable",
      "type": "function"
    },
    {
      "inputs": [
        {
          "internalType": "uint256",
          "name": "_cooldownPeriod",
          "type": "uint256"
        }
      ],
      "name": "updateCooldownPeriod",
      "outputs": [],
      "stateMutability": "nonpayable",
      "type": "function"
    },
    {
      "inputs": [
        {
          "internalType": "uint256",
          "name": "_maxCap",
          "type": "uint256"
        }
      ],
      "name": "updateMaxCap",
      "outputs": [],
      "stateMutability": "nonpayable",
      "type": "function"
    },
    {
      "inputs": [
        {
          "internalType": "uint256",
          "name": "_minCap",
          "type": "uint256"
        }
      ],
      "name": "updateMinCap",
      "outputs": [],
      "stateMutability": "nonpayable",
      "type": "function"
    },
    {
      "inputs": [
        {
          "internalType": "uint256",
          "name": "_monthlyIncreasePercentage",
          "type": "uint256"
        }
      ],
      "name": "updateMonthlyIncreasePercentage",
      "outputs": [],
      "stateMutability": "nonpayable",
      "type": "function"
    },
    {
      "inputs": [
        {
          "internalType": "uint256",
          "name": "_stakingDuration",
          "type": "uint256"
        }
      ],
      "name": "updateStakingDuration",
      "outputs": [],
      "stateMutability": "nonpayable",
      "type": "function"
    },
    {
      "inputs": [
        {
          "internalType": "uint256",
          "name": "_startingSlashingPoint",
          "type": "uint256"
        }
      ],
      "name": "updateStartingSlashingPoint",
      "outputs": [],
      "stateMutability": "nonpayable",
      "type": "function"
    },
    {
      "inputs": [
        {
          "internalType": "uint256",
          "name": "_yieldConstant",
          "type": "uint256"
        }
      ],
      "name": "updateYieldConstant",
      "outputs": [],
      "stateMutability": "nonpayable",
      "type": "function"
    },
    {
      "inputs": [
        {
          "internalType": "address",
          "name": "",
          "type": "address"
        }
      ],
      "name": "userStakes",
      "outputs": [
        {
          "internalType": "uint256",
          "name": "amount",
          "type": "uint256"
        },
        {
          "internalType": "uint256",
          "name": "startTime",
          "type": "uint256"
        },
        {
          "internalType": "uint256",
          "name": "requestUnstakeTime",
          "type": "uint256"
        },
        {
          "internalType": "bool",
          "name": "unstakeRequested",
          "type": "bool"
        }
      ],
      "stateMutability": "view",
      "type": "function"
    },
    {
      "inputs": [],
      "name": "whitelistEnabled",
      "outputs": [
        {
          "internalType": "bool",
          "name": "",
          "type": "bool"
        }
      ],
      "stateMutability": "view",
      "type": "function"
    },
    {
      "inputs": [
        {
          "internalType": "address",
          "name": "",
          "type": "address"
        }
      ],
      "name": "whitelistedAddresses",
      "outputs": [
        {
          "internalType": "bool",
          "name": "",
          "type": "bool"
        }
      ],
      "stateMutability": "view",
      "type": "function"
    },
    {
      "inputs": [
        {
          "internalType": "uint256",
          "name": "_amount",
          "type": "uint256"
        }
      ],
      "name": "withdrawRewardTokens",
      "outputs": [],
      "stateMutability": "nonpayable",
      "type": "function"
    },
    {
      "inputs": [],
      "name": "yieldConstant",
      "outputs": [
        {
          "internalType": "uint256",
          "name": "",
          "type": "uint256"
        }
      ],
      "stateMutability": "view",
      "type": "function"
    }
  ],
  "bytecode": "0x608060405234801561001057600080fd5b506117f3806100206000396000f3fe608060405234801561001057600080fd5b50600436106102745760003560e01c80637a65cd0b11610151578063bcaabf6c116100c3578063dc7ced3d11610087578063dc7ced3d14610555578063e43252d71461055e578063e6d2486614610571578063e81ba08014610584578063f2fde38b14610597578063f999c506146105aa57600080fd5b8063bcaabf6c1461050c578063cb43b2dd1461051f578063cdfb2b4e14610532578063d2771e011461053a578063d6b0f4841461054d57600080fd5b80638ab1d681116101155780638ab1d681146104415780638da5cb5b146104545780638da7ad231461048457806393f4bcde146104de578063a694fc3a146104e6578063b3c55721146104f957600080fd5b80637a65cd0b146104015780638005a7de1461040a57806380a3301b14610413578063817b1cd214610426578063861f6bfd1461042e57600080fd5b806345ff4c80116101ea5780635c975abb116101ae5780635c975abb1461038157806366666aa9146103ab5780636f629512146103b3578063715018a6146103bc57806372f702f3146103c457806375718366146103ef57600080fd5b806345ff4c801461032d578063483a9310146103405780634e71d92d1461035357806351fb012d1461035b5780635b1d70861461036e57600080fd5b806316c621e01161023c57806316c621e0146102e457806323548b8b146102f757806329161479146103005780632def66201461030957806336c1105a146103115780633fa615b01461032457600080fd5b806304646a491461027957806306c933d8146102955780630b7ead4a146102c85780630c0102d0146102d157806312d395b3146102da575b600080fd5b61028260055481565b6040519081526020015b60405180910390f35b6102b86102a3366004611666565b600b6020526000908152604090205460ff1681565b604051901515815260200161028c565b61028260075481565b610282600c5481565b6102e26105b7565b005b6102e26102f2366004611681565b6105d6565b61028260035481565b61028260085481565b6102e26106f2565b6102e261031f366004611681565b610a0a565b61028260025481565b6102e261033b36600461169a565b610a17565b61028261034e366004611681565b610ba9565b6102e2610bf2565b6009546102b89062010000900460ff1681565b6102e261037c366004611681565b610cfb565b7fcd5ed15c6e187e77e9aee88184c21f4f2182ab5827cb3b7e07fbedcd63f033005460ff166102b8565b600d54610282565b61028260065481565b6102e2610d3c565b6000546103d7906001600160a01b031681565b6040516001600160a01b03909116815260200161028c565b6009546102b890610100900460ff1681565b61028260045481565b61028260015481565b610282610421366004611681565b610d4e565b600c54610282565b6102e261043c366004611681565b610ddb565b6102e261044f366004611666565b610de8565b7f9016d09d72d40fdae2fd8ceac6b6234c7706214fd39c1cd1e609a0528c199300546001600160a01b03166103d7565b6104bc610492366004611666565b600a6020526000908152604090208054600182015460028301546003909301549192909160ff1684565b604080519485526020850193909352918301521515606082015260800161028c565b6102e2610e3f565b6102e26104f4366004611681565b610e53565b6102e2610507366004611681565b61114c565b6102e261051a366004611681565b611159565b6102e261052d366004611681565b611166565b6102e26112c3565b6102826105483660046116e4565b6112de565b6102e261136d565b610282600d5481565b6102e261056c366004611666565b611383565b6102e261057f366004611681565b6113e2565b6102e2610592366004611681565b6113ef565b6102e26105a5366004611666565b6113fc565b6009546102b89060ff1681565b6105bf611437565b6105c7611492565b6009805460ff19166001179055565b6105de611437565b600081116106265760405162461bcd60e51b815260206004820152601060248201526f043616e6e6f74206465706f73697420360841b60448201526064015b60405180910390fd5b80600d6000828254610638919061171c565b90915550506000546040516323b872dd60e01b8152336004820152306024820152604481018390526001600160a01b03909116906323b872dd906064016020604051808303816000875af1158015610694573d6000803e3d6000fd5b505050506040513d601f19601f820116820180604052508101906106b8919061172f565b5060405181815233907fe1fffcc4923d04b559f4d29a8bfc6cda04eb5b0d3c460751c2402c5c5cc9109c906020015b60405180910390a250565b6106fa6114d5565b336000908152600a6020526040902080546107635760405162461bcd60e51b815260206004820152602360248201527f4e6f207374616b656420616d6f756e7420746f207265717565737420756e7374604482015262616b6560e81b606482015260840161061d565b600381015460ff16156107b85760405162461bcd60e51b815260206004820152601960248201527f556e7374616b6520616c72656164792072657175657374656400000000000000604482015260640161061d565b6001546000036108a4578054600080835560018301546107d99083906112de565b905081600c60008282546107ed9190611751565b909155505060005460405163a9059cbb60e01b8152336004820152602481018390526001600160a01b039091169063a9059cbb906044016020604051808303816000875af1158015610843573d6000803e3d6000fd5b505050506040513d601f19601f82011682018060405250810190610867919061172f565b5060405181815233907f7084f5476618d8e60b11ef0d7d3f06914655adb8793e28ff7f018d4c76d505d59060200160405180910390a250506109f0565b60015481600101546108b6919061171c565b4210156109145742600282015560038101805460ff19166001179055805460405133917f828764c21e74c28710e19919735825aba966621c95cbd913f8ed65a2d298f48c9161090791815260200190565b60405180910390a26109f0565b805460018201546000906109299083906112de565b905081600c600082825461093d9190611751565b909155505060005460405163a9059cbb60e01b8152336004820152602481018390526001600160a01b039091169063a9059cbb906044016020604051808303816000875af1158015610993573d6000803e3d6000fd5b505050506040513d601f19601f820116820180604052508101906109b7919061172f565b5060405181815233907f7084f5476618d8e60b11ef0d7d3f06914655adb8793e28ff7f018d4c76d505d59060200160405180910390a250505b50610a08600160008051602061179e83398151915255565b565b610a12611437565b600455565b7ff0c57e16840df040f15088dc2f81fe391c3923bec73e23a9662efc9c229c6a008054600160401b810460ff16159067ffffffffffffffff16600081158015610a5d5750825b905060008267ffffffffffffffff166001148015610a7a5750303b155b905081158015610a88575080155b15610aa65760405163f92ee8a960e01b815260040160405180910390fd5b845467ffffffffffffffff191660011785558315610ad057845460ff60401b1916600160401b1785555b610ad933611521565b610ae1611532565b610ae9611542565b600080546001600160a01b0319166001600160a01b038d1617815560018b9055600281905560035560048990556005889055603c806018610b2b601e8e611764565b610b359190611764565b610b3f9190611764565b610b499190611764565b600655600787905560088690558315610b9c57845460ff60401b19168555604051600181527fc7f505b2f371ae2175ee4913f4499e1f2633a7b5936321eed1cdaeb6115181d29060200160405180910390a15b5050505050505050505050565b60006001548210610bbc57506000919050565b600060015483600854610bcf9190611786565b610bd99190611764565b600754610be69190611751565b9392505050565b919050565b610bfa6114d5565b610c02611492565b336000908152600a60205260409020600381015460ff16610c5d5760405162461bcd60e51b8152602060048201526015602482015274155b9cdd185ad9481b9bdd081c995c5d595cdd1959605a1b604482015260640161061d565b6005548160020154610c6f919061171c565b421015610cbe5760405162461bcd60e51b815260206004820152601860248201527f436f6f6c646f776e20706572696f64206e6f74206f7665720000000000000000604482015260640161061d565b80546001820154600090610cd39083906112de565b600080855560038501805460ff19169055600c8054929350849290919061093d908490611751565b610d03611437565b6001819055603c806018610d18601e85611764565b610d229190611764565b610d2c9190611764565b610d369190611764565b60065550565b610d44611437565b610a086000611552565b60006001548210610d6d57600454610d67906090611786565b92915050565b600060015483600654610d809190611786565b610d9290670de0b6b3a7640000611786565b610d9c9190611764565b905060006ec097ce7bc90715b34b9f10000000008283600454610dbf9190611786565b610dc99190611786565b610dd39190611764565b949350505050565b610de3611437565b600555565b610df0611437565b6001600160a01b0381166000818152600b60209081526040808320805460ff19169055519182527f8daaf060c3306c38e068a75c054bf96ecd85a3db1252712c4d93632744c42e0d91016106e7565b610e47611437565b6009805460ff19169055565b610e5b6114d5565b610e63611492565b60095462010000900460ff161580610e8a5750336000908152600b602052604090205460ff165b610ed65760405162461bcd60e51b815260206004820152601760248201527f41646472657373206e6f742077686974656c6973746564000000000000000000604482015260640161061d565b60095460ff1615610f1d5760405162461bcd60e51b815260206004820152601160248201527014dd185ada5b99c81a5cc81c185d5cd959607a1b604482015260640161061d565b60008111610f5e5760405162461bcd60e51b815260206004820152600e60248201526d043616e6e6f74207374616b6520360941b604482015260640161061d565b60025415610fb857600254811015610fb85760405162461bcd60e51b815260206004820152601860248201527f416d6f756e742062656c6f77206d696e696d756d206361700000000000000000604482015260640161061d565b60035415611012576003548111156110125760405162461bcd60e51b815260206004820152601a60248201527f416d6f756e742065786365656473206d6178696d756d20636170000000000000604482015260640161061d565b60408051608081018252828152426020808301918252600083850181815260608501828152338352600a90935294812093518455915160018401559251600283015591516003909101805460ff1916911515919091179055600c805483929061107c90849061171c565b90915550506000546040516323b872dd60e01b8152336004820152306024820152604481018390526001600160a01b03909116906323b872dd906064016020604051808303816000875af11580156110d8573d6000803e3d6000fd5b505050506040513d601f19601f820116820180604052508101906110fc919061172f565b5060405181815233907f9e71bc8eea02a63969f509818f2dafb9254532904319f9dbda79b67bd34a5f3d9060200160405180910390a2611149600160008051602061179e83398151915255565b50565b611154611437565b600855565b611161611437565b600255565b61116e611437565b600081116111b25760405162461bcd60e51b8152602060048201526011602482015270043616e6e6f74207769746864726177203607c1b604482015260640161061d565b80600d5410156112045760405162461bcd60e51b815260206004820181905260248201527f4e6f7420656e6f75676820746f6b656e7320696e2072657761726420706f6f6c604482015260640161061d565b80600d60008282546112169190611751565b909155505060005460405163a9059cbb60e01b8152336004820152602481018390526001600160a01b039091169063a9059cbb906044016020604051808303816000875af115801561126c573d6000803e3d6000fd5b505050506040513d601f19601f82011682018060405250810190611290919061172f565b5060405181815233907f884edad9ce6fa2440d8a54cc123490eb96d2768479d49ff9c7366125a9424364906020016106e7565b6112cb611437565b6009805462ff0000191662010000179055565b6000806112eb8342611751565b905060006112f882610d4e565b9050600061130583610ba9565b90506000670de0b6b3a764000061131c8489611786565b6113269190611764565b90506000670de0b6b3a764000061133d8484611786565b6113479190611764565b9050600081611356848b61171c565b6113609190611751565b9998505050505050505050565b611375611437565b6009805462ff000019169055565b61138b611437565b6001600160a01b0381166000818152600b6020908152604091829020805460ff1916600190811790915591519182527f8daaf060c3306c38e068a75c054bf96ecd85a3db1252712c4d93632744c42e0d91016106e7565b6113ea611437565b600755565b6113f7611437565b600355565b611404611437565b6001600160a01b03811661142e57604051631e4fbdf760e01b81526000600482015260240161061d565b61114981611552565b336114697f9016d09d72d40fdae2fd8ceac6b6234c7706214fd39c1cd1e609a0528c199300546001600160a01b031690565b6001600160a01b031614610a085760405163118cdaa760e01b815233600482015260240161061d565b7fcd5ed15c6e187e77e9aee88184c21f4f2182ab5827cb3b7e07fbedcd63f033005460ff1615610a085760405163d93c066560e01b815260040160405180910390fd5b60008051602061179e83398151915280546001190161150757604051633ee5aeb560e01b815260040160405180910390fd5b60029055565b600160008051602061179e83398151915255565b6115296115c3565b6111498161160c565b61153a6115c3565b610a08611614565b61154a6115c3565b610a08611647565b7f9016d09d72d40fdae2fd8ceac6b6234c7706214fd39c1cd1e609a0528c19930080546001600160a01b031981166001600160a01b03848116918217845560405192169182907f8be0079c531659141344cd1fd0a4f28419497f9722a3daafe3b4186f6b6457e090600090a3505050565b7ff0c57e16840df040f15088dc2f81fe391c3923bec73e23a9662efc9c229c6a0054600160401b900460ff16610a0857604051631afcd79f60e31b815260040160405180910390fd5b6114046115c3565b61161c6115c3565b7fcd5ed15c6e187e77e9aee88184c21f4f2182ab5827cb3b7e07fbedcd63f03300805460ff19169055565b61150d6115c3565b80356001600160a01b0381168114610bed57600080fd5b60006020828403121561167857600080fd5b610be68261164f565b60006020828403121561169357600080fd5b5035919050565b60008060008060008060c087890312156116b357600080fd5b6116bc8761164f565b9860208801359850604088013597606081013597506080810135965060a00135945092505050565b600080604083850312156116f757600080fd5b50508035926020909101359150565b634e487b7160e01b600052601160045260246000fd5b80820180821115610d6757610d67611706565b60006020828403121561174157600080fd5b81518015158114610be657600080fd5b81810381811115610d6757610d67611706565b60008261178157634e487b7160e01b600052601260045260246000fd5b500490565b8082028115828204841417610d6757610d6761170656fe9b779b17422d0df92223018b32b4d1fa46e071723d6817e2486d003becc55f00a264697066735822122099a69e6af1ac76b3dbac8b35fa205d39578a1fe305837aa6877384cb5196bb4564736f6c63430008140033",
  "linkReferences": {},
  "deployedLinkReferences": {}
}