{
  "_format": "hh-sol-artifact-1",
  "contractName": "Staking",
  "sourceName": "contracts/Staking.sol",
  "abi": [
    {
      "inputs": [
        {
          "internalType": "address",
          "name": "target",
          "type": "address"
        }
      ],
      "name": "AddressEmptyCode",
      "type": "error"
    },
    {
      "inputs": [
        {
          "internalType": "address",
          "name": "account",
          "type": "address"
        }
      ],
      "name": "AddressInsufficientBalance",
      "type": "error"
    },
    {
      "inputs": [],
      "name": "AmountBelowMinCap",
      "type": "error"
    },
    {
      "inputs": [],
      "name": "AmountExceedsMaxCap",
      "type": "error"
    },
    {
      "inputs": [],
      "name": "CannotDepositZero",
      "type": "error"
    },
    {
      "inputs": [],
      "name": "CooldownPeriodNotOver",
      "type": "error"
    },
    {
      "inputs": [],
      "name": "EnforcedPause",
      "type": "error"
    },
    {
      "inputs": [],
      "name": "ExpectedPause",
      "type": "error"
    },
    {
      "inputs": [],
      "name": "FailedInnerCall",
      "type": "error"
    },
    {
      "inputs": [],
      "name": "InsufficientRewardPool",
      "type": "error"
    },
    {
      "inputs": [],
      "name": "InvalidInitialization",
      "type": "error"
    },
    {
      "inputs": [],
      "name": "NoStakedAmount",
      "type": "error"
    },
    {
      "inputs": [],
      "name": "NotInitializing",
      "type": "error"
    },
    {
      "inputs": [],
      "name": "NotWhitelisted",
      "type": "error"
    },
    {
      "inputs": [
        {
          "internalType": "address",
          "name": "owner",
          "type": "address"
        }
      ],
      "name": "OwnableInvalidOwner",
      "type": "error"
    },
    {
      "inputs": [
        {
          "internalType": "address",
          "name": "account",
          "type": "address"
        }
      ],
      "name": "OwnableUnauthorizedAccount",
      "type": "error"
    },
    {
      "inputs": [],
      "name": "ReentrancyGuardReentrantCall",
      "type": "error"
    },
    {
      "inputs": [
        {
          "internalType": "address",
          "name": "token",
          "type": "address"
        }
      ],
      "name": "SafeERC20FailedOperation",
      "type": "error"
    },
    {
      "inputs": [],
      "name": "UnstakeAlreadyRequested",
      "type": "error"
    },
    {
      "inputs": [],
      "name": "UnstakeNotRequested",
      "type": "error"
    },
    {
      "inputs": [],
      "name": "ZeroAmount",
      "type": "error"
    },
    {
      "anonymous": false,
      "inputs": [
        {
          "indexed": true,
          "internalType": "address",
          "name": "owner",
          "type": "address"
        },
        {
          "indexed": false,
          "internalType": "uint256",
          "name": "amount",
          "type": "uint256"
        }
      ],
      "name": "Deposit",
      "type": "event"
    },
    {
      "anonymous": false,
      "inputs": [
        {
          "indexed": false,
          "internalType": "uint64",
          "name": "version",
          "type": "uint64"
        }
      ],
      "name": "Initialized",
      "type": "event"
    },
    {
      "anonymous": false,
      "inputs": [
        {
          "indexed": true,
          "internalType": "address",
          "name": "previousOwner",
          "type": "address"
        },
        {
          "indexed": true,
          "internalType": "address",
          "name": "newOwner",
          "type": "address"
        }
      ],
      "name": "OwnershipTransferred",
      "type": "event"
    },
    {
      "anonymous": false,
      "inputs": [
        {
          "indexed": false,
          "internalType": "address",
          "name": "account",
          "type": "address"
        }
      ],
      "name": "Paused",
      "type": "event"
    },
    {
      "anonymous": false,
      "inputs": [
        {
          "indexed": true,
          "internalType": "address",
          "name": "user",
          "type": "address"
        },
        {
          "indexed": false,
          "internalType": "uint256",
          "name": "reward",
          "type": "uint256"
        }
      ],
      "name": "RewardPaid",
      "type": "event"
    },
    {
      "anonymous": false,
      "inputs": [
        {
          "indexed": true,
          "internalType": "address",
          "name": "user",
          "type": "address"
        },
        {
          "indexed": false,
          "internalType": "uint256",
          "name": "amount",
          "type": "uint256"
        }
      ],
      "name": "Staked",
      "type": "event"
    },
    {
      "anonymous": false,
      "inputs": [
        {
          "indexed": false,
          "internalType": "address",
          "name": "account",
          "type": "address"
        }
      ],
      "name": "Unpaused",
      "type": "event"
    },
    {
      "anonymous": false,
      "inputs": [
        {
          "indexed": true,
          "internalType": "address",
          "name": "user",
          "type": "address"
        },
        {
          "indexed": false,
          "internalType": "uint256",
          "name": "amount",
          "type": "uint256"
        }
      ],
      "name": "UnstakeRequested",
      "type": "event"
    },
    {
      "anonymous": false,
      "inputs": [
        {
          "indexed": true,
          "internalType": "address",
          "name": "user",
          "type": "address"
        },
        {
          "indexed": false,
          "internalType": "bool",
          "name": "status",
          "type": "bool"
        }
      ],
      "name": "WhitelistStatusChanged",
      "type": "event"
    },
    {
      "anonymous": false,
      "inputs": [
        {
          "indexed": true,
          "internalType": "address",
          "name": "owner",
          "type": "address"
        },
        {
          "indexed": false,
          "internalType": "uint256",
          "name": "amount",
          "type": "uint256"
        }
      ],
      "name": "Withdraw",
      "type": "event"
    },
    {
      "anonymous": false,
      "inputs": [
        {
          "indexed": true,
          "internalType": "address",
          "name": "user",
          "type": "address"
        },
        {
          "indexed": false,
          "internalType": "uint256",
          "name": "amount",
          "type": "uint256"
        }
      ],
      "name": "Withdrawn",
      "type": "event"
    },
    {
      "inputs": [
        {
          "internalType": "address",
          "name": "_address",
          "type": "address"
        }
      ],
      "name": "addToWhitelist",
      "outputs": [],
      "stateMutability": "nonpayable",
      "type": "function"
    },
    {
      "inputs": [
        {
          "internalType": "uint256",
          "name": "timeStaked",
          "type": "uint256"
        },
        {
          "internalType": "uint256",
          "name": "_monthlyIncreasePercentage",
          "type": "uint256"
        },
        {
          "internalType": "uint256",
          "name": "_startingSlashingPoint",
          "type": "uint256"
        },
        {
          "internalType": "uint256",
          "name": "_stakingDuration",
          "type": "uint256"
        }
      ],
      "name": "calculateTax",
      "outputs": [
        {
          "internalType": "uint256",
          "name": "",
          "type": "uint256"
        }
      ],
      "stateMutability": "pure",
      "type": "function"
    },
    {
      "inputs": [
        {
          "internalType": "uint256",
          "name": "_amount",
          "type": "uint256"
        },
        {
          "internalType": "uint256",
          "name": "timeStaked",
          "type": "uint256"
        },
        {
          "internalType": "uint256",
          "name": "_yieldConstant",
          "type": "uint256"
        },
        {
          "internalType": "uint256",
          "name": "_monthlyIncreasePercentage",
          "type": "uint256"
        },
        {
          "internalType": "uint256",
          "name": "_startingSlashingPoint",
          "type": "uint256"
        },
        {
          "internalType": "uint256",
          "name": "_stakingDuration",
          "type": "uint256"
        }
      ],
      "name": "calculateTotalWithdraw",
      "outputs": [
        {
          "internalType": "uint256",
          "name": "",
          "type": "uint256"
        }
      ],
      "stateMutability": "view",
      "type": "function"
    },
    {
      "inputs": [
        {
          "internalType": "uint256",
          "name": "timeStaked",
          "type": "uint256"
        },
        {
          "internalType": "uint256",
          "name": "_yieldConstant",
          "type": "uint256"
        }
      ],
      "name": "calculateYield",
      "outputs": [
        {
          "internalType": "uint256",
          "name": "",
          "type": "uint256"
        }
      ],
      "stateMutability": "view",
      "type": "function"
    },
    {
      "inputs": [
        {
          "internalType": "uint256",
          "name": "stakeId",
          "type": "uint256"
        }
      ],
      "name": "claim",
      "outputs": [],
      "stateMutability": "nonpayable",
      "type": "function"
    },
    {
      "inputs": [],
      "name": "cooldownPeriod",
      "outputs": [
        {
          "internalType": "uint256",
          "name": "",
          "type": "uint256"
        }
      ],
      "stateMutability": "view",
      "type": "function"
    },
    {
      "inputs": [
        {
          "internalType": "uint256",
          "name": "_amount",
          "type": "uint256"
        }
      ],
      "name": "depositRewardTokens",
      "outputs": [],
      "stateMutability": "nonpayable",
      "type": "function"
    },
    {
      "inputs": [],
      "name": "disableWhitelist",
      "outputs": [],
      "stateMutability": "nonpayable",
      "type": "function"
    },
    {
      "inputs": [],
      "name": "enableWhitelist",
      "outputs": [],
      "stateMutability": "nonpayable",
      "type": "function"
    },
    {
      "inputs": [
        {
          "internalType": "address",
          "name": "user",
          "type": "address"
        }
      ],
      "name": "getTotalStakedForUser",
      "outputs": [
        {
          "internalType": "uint256",
          "name": "",
          "type": "uint256"
        }
      ],
      "stateMutability": "view",
      "type": "function"
    },
    {
      "inputs": [
        {
          "internalType": "address",
          "name": "_owner",
          "type": "address"
        },
        {
          "internalType": "address",
          "name": "_stakingToken",
          "type": "address"
        },
        {
          "internalType": "uint32",
          "name": "_stakingDuration",
          "type": "uint32"
        },
        {
          "internalType": "uint256",
          "name": "_yieldConstant",
          "type": "uint256"
        },
        {
          "internalType": "uint256",
          "name": "_cooldownPeriod",
          "type": "uint256"
        },
        {
          "internalType": "uint256",
          "name": "_startingSlashingPoint",
          "type": "uint256"
        },
        {
          "internalType": "uint256",
          "name": "_monthlyIncreasePercentage",
          "type": "uint256"
        },
        {
          "internalType": "uint256",
          "name": "_minCap",
          "type": "uint256"
        },
        {
          "internalType": "uint256",
          "name": "_maxCap",
          "type": "uint256"
        },
        {
          "internalType": "bool",
          "name": "_whitelistEnabled",
          "type": "bool"
        }
      ],
      "name": "initialize",
      "outputs": [],
      "stateMutability": "nonpayable",
      "type": "function"
    },
    {
      "inputs": [],
      "name": "maxCap",
      "outputs": [
        {
          "internalType": "uint256",
          "name": "",
          "type": "uint256"
        }
      ],
      "stateMutability": "view",
      "type": "function"
    },
    {
      "inputs": [],
      "name": "minCap",
      "outputs": [
        {
          "internalType": "uint256",
          "name": "",
          "type": "uint256"
        }
      ],
      "stateMutability": "view",
      "type": "function"
    },
    {
      "inputs": [],
      "name": "monthlyIncreasePercentage",
      "outputs": [
        {
          "internalType": "uint256",
          "name": "",
          "type": "uint256"
        }
      ],
      "stateMutability": "view",
      "type": "function"
    },
    {
      "inputs": [],
      "name": "monthsInStakingPeriod",
      "outputs": [
        {
          "internalType": "uint256",
          "name": "",
          "type": "uint256"
        }
      ],
      "stateMutability": "view",
      "type": "function"
    },
    {
      "inputs": [],
      "name": "owner",
      "outputs": [
        {
          "internalType": "address",
          "name": "",
          "type": "address"
        }
      ],
      "stateMutability": "view",
      "type": "function"
    },
    {
      "inputs": [],
      "name": "pause",
      "outputs": [],
      "stateMutability": "nonpayable",
      "type": "function"
    },
    {
      "inputs": [],
      "name": "paused",
      "outputs": [
        {
          "internalType": "bool",
          "name": "",
          "type": "bool"
        }
      ],
      "stateMutability": "view",
      "type": "function"
    },
    {
      "inputs": [],
      "name": "pendingRewards",
      "outputs": [
        {
          "internalType": "uint256",
          "name": "",
          "type": "uint256"
        }
      ],
      "stateMutability": "view",
      "type": "function"
    },
    {
      "inputs": [
        {
          "internalType": "address",
          "name": "_address",
          "type": "address"
        }
      ],
      "name": "removeFromWhitelist",
      "outputs": [],
      "stateMutability": "nonpayable",
      "type": "function"
    },
    {
      "inputs": [],
      "name": "renounceOwnership",
      "outputs": [],
      "stateMutability": "nonpayable",
      "type": "function"
    },
    {
      "inputs": [],
      "name": "rewardPool",
      "outputs": [
        {
          "internalType": "uint256",
          "name": "",
          "type": "uint256"
        }
      ],
      "stateMutability": "view",
      "type": "function"
    },
    {
      "inputs": [
        {
          "internalType": "uint256",
          "name": "_amount",
          "type": "uint256"
        }
      ],
      "name": "stake",
      "outputs": [],
      "stateMutability": "nonpayable",
      "type": "function"
    },
    {
      "inputs": [],
      "name": "stakingDuration",
      "outputs": [
        {
          "internalType": "uint256",
          "name": "",
          "type": "uint256"
        }
      ],
      "stateMutability": "view",
      "type": "function"
    },
    {
      "inputs": [],
      "name": "stakingToken",
      "outputs": [
        {
          "internalType": "contract IERC20",
          "name": "",
          "type": "address"
        }
      ],
      "stateMutability": "view",
      "type": "function"
    },
    {
      "inputs": [],
      "name": "startingSlashingPoint",
      "outputs": [
        {
          "internalType": "uint256",
          "name": "",
          "type": "uint256"
        }
      ],
      "stateMutability": "view",
      "type": "function"
    },
    {
      "inputs": [],
      "name": "totalStaked",
      "outputs": [
        {
          "internalType": "uint256",
          "name": "",
          "type": "uint256"
        }
      ],
      "stateMutability": "view",
      "type": "function"
    },
    {
      "inputs": [
        {
          "internalType": "address",
          "name": "newOwner",
          "type": "address"
        }
      ],
      "name": "transferOwnership",
      "outputs": [],
      "stateMutability": "nonpayable",
      "type": "function"
    },
    {
      "inputs": [],
      "name": "unpause",
      "outputs": [],
      "stateMutability": "nonpayable",
      "type": "function"
    },
    {
      "inputs": [
        {
          "internalType": "uint256",
          "name": "stakeId",
          "type": "uint256"
        }
      ],
      "name": "unstake",
      "outputs": [],
      "stateMutability": "nonpayable",
      "type": "function"
    },
    {
      "inputs": [
        {
          "internalType": "uint256",
          "name": "_cooldownPeriod",
          "type": "uint256"
        }
      ],
      "name": "updateCooldownPeriod",
      "outputs": [],
      "stateMutability": "nonpayable",
      "type": "function"
    },
    {
      "inputs": [
        {
          "internalType": "uint256",
          "name": "_maxCap",
          "type": "uint256"
        }
      ],
      "name": "updateMaxCap",
      "outputs": [],
      "stateMutability": "nonpayable",
      "type": "function"
    },
    {
      "inputs": [
        {
          "internalType": "uint256",
          "name": "_minCap",
          "type": "uint256"
        }
      ],
      "name": "updateMinCap",
      "outputs": [],
      "stateMutability": "nonpayable",
      "type": "function"
    },
    {
      "inputs": [
        {
          "internalType": "uint256",
          "name": "_monthlyIncreasePercentage",
          "type": "uint256"
        }
      ],
      "name": "updateMonthlyIncreasePercentage",
      "outputs": [],
      "stateMutability": "nonpayable",
      "type": "function"
    },
    {
      "inputs": [
        {
          "internalType": "uint256",
          "name": "_stakingDuration",
          "type": "uint256"
        }
      ],
      "name": "updateStakingDuration",
      "outputs": [],
      "stateMutability": "nonpayable",
      "type": "function"
    },
    {
      "inputs": [
        {
          "internalType": "uint256",
          "name": "_startingSlashingPoint",
          "type": "uint256"
        }
      ],
      "name": "updateStartingSlashingPoint",
      "outputs": [],
      "stateMutability": "nonpayable",
      "type": "function"
    },
    {
      "inputs": [
        {
          "internalType": "uint256",
          "name": "_yieldConstant",
          "type": "uint256"
        }
      ],
      "name": "updateYieldConstant",
      "outputs": [],
      "stateMutability": "nonpayable",
      "type": "function"
    },
    {
      "inputs": [
        {
          "internalType": "address",
          "name": "",
          "type": "address"
        }
      ],
      "name": "userStakeCounter",
      "outputs": [
        {
          "internalType": "uint256",
          "name": "",
          "type": "uint256"
        }
      ],
      "stateMutability": "view",
      "type": "function"
    },
    {
      "inputs": [
        {
          "internalType": "address",
          "name": "",
          "type": "address"
        },
        {
          "internalType": "uint256",
          "name": "",
          "type": "uint256"
        }
      ],
      "name": "userStakes",
      "outputs": [
        {
          "internalType": "uint256",
          "name": "amount",
          "type": "uint256"
        },
        {
          "internalType": "uint32",
          "name": "startTime",
          "type": "uint32"
        },
        {
          "internalType": "uint32",
          "name": "requestUnstakeTime",
          "type": "uint32"
        },
        {
          "internalType": "bool",
          "name": "unstakeRequested",
          "type": "bool"
        },
        {
          "internalType": "uint256",
          "name": "yieldConstant",
          "type": "uint256"
        },
        {
          "internalType": "uint256",
          "name": "monthlyIncreasePercentage",
          "type": "uint256"
        },
        {
          "internalType": "uint256",
          "name": "startingSlashingPoint",
          "type": "uint256"
        },
        {
          "internalType": "uint32",
          "name": "stakingDuration",
          "type": "uint32"
        }
      ],
      "stateMutability": "view",
      "type": "function"
    },
    {
      "inputs": [],
      "name": "whitelistEnabled",
      "outputs": [
        {
          "internalType": "bool",
          "name": "",
          "type": "bool"
        }
      ],
      "stateMutability": "view",
      "type": "function"
    },
    {
      "inputs": [
        {
          "internalType": "address",
          "name": "",
          "type": "address"
        }
      ],
      "name": "whitelistedAddresses",
      "outputs": [
        {
          "internalType": "bool",
          "name": "",
          "type": "bool"
        }
      ],
      "stateMutability": "view",
      "type": "function"
    },
    {
      "inputs": [
        {
          "internalType": "uint256",
          "name": "_amount",
          "type": "uint256"
        }
      ],
      "name": "withdrawRewardTokens",
      "outputs": [],
      "stateMutability": "nonpayable",
      "type": "function"
    },
    {
      "inputs": [],
      "name": "yieldConstant",
      "outputs": [
        {
          "internalType": "uint256",
          "name": "",
          "type": "uint256"
        }
      ],
      "stateMutability": "view",
      "type": "function"
    }
  ],
  "bytecode": "0x608060405234801561001057600080fd5b506144e9806100206000396000f3fe608060405234801561001057600080fd5b50600436106102695760003560e01c8063715018a611610151578063b3c55721116100c3578063d6b0f48411610087578063d6b0f484146106e1578063e43252d7146106eb578063e6d2486614610707578063e81ba08014610723578063eded3fda1461073f578063f2fde38b1461075d57610269565b8063b3c557211461064c578063b5d5b5fa14610668578063bcaabf6c1461069f578063cb43b2dd146106bb578063cdfb2b4e146106d757610269565b8063817b1cd211610115578063817b1cd2146105b25780638456cb59146105d0578063861f6bfd146105da5780638ab1d681146105f65780638da5cb5b14610612578063a694fc3a1461063057610269565b8063715018a61461051e57806372f702f31461052857806375713079146105465780637a65cd0b146105765780638005a7de1461059457610269565b8063379607f5116101ea5780635678b024116101ae5780635678b0241461045c5780635b1d70861461048c5780635c975abb146104a857806366666aa9146104c65780636c03d853146104e45780636f6295121461050057610269565b8063379607f5146103ca5780633b42ffcf146103e65780633f4ba83a146104165780633fa615b01461042057806351fb012d1461043e57610269565b806322e768371161023157806322e768371461032657806323548b8b1461035657806329161479146103745780632e17de781461039257806336c1105a146103ae57610269565b8063043cbe5b1461026e57806304646a491461029e57806306c933d8146102bc5780630b7ead4a146102ec57806316c621e01461030a575b600080fd5b61028860048036038101906102839190613c31565b610779565b6040516102959190613c80565b60405180910390f35b6102a661090f565b6040516102b39190613c80565b60405180910390f35b6102d660048036038101906102d19190613cf9565b610915565b6040516102e39190613d41565b60405180910390f35b6102f4610935565b6040516103019190613c80565b60405180910390f35b610324600480360381019061031f9190613d5c565b61093b565b005b610340600480360381019061033b9190613d89565b610b38565b60405161034d9190613c80565b60405180910390f35b61035e610ccf565b60405161036b9190613c80565b60405180910390f35b61037c610cd5565b6040516103899190613c80565b60405180910390f35b6103ac60048036038101906103a79190613d5c565b610cdb565b005b6103c860048036038101906103c39190613d5c565b6110ca565b005b6103e460048036038101906103df9190613d5c565b61112c565b005b61040060048036038101906103fb9190613cf9565b61139b565b60405161040d9190613c80565b60405180910390f35b61041e611583565b005b6104286115f9565b6040516104359190613c80565b60405180910390f35b6104466115ff565b6040516104539190613d41565b60405180910390f35b61047660048036038101906104719190613cf9565b611612565b6040516104839190613c80565b60405180910390f35b6104a660048036038101906104a19190613d5c565b61162a565b005b6104b06116b5565b6040516104bd9190613d41565b60405180910390f35b6104ce6116da565b6040516104db9190613c80565b60405180910390f35b6104fe60048036038101906104f99190613e7e565b611720565b005b610508611b21565b6040516105159190613c80565b60405180910390f35b610526611b27565b005b610530611b3b565b60405161053d9190613fbc565b60405180910390f35b610560600480360381019061055b9190613fd7565b611b5f565b60405161056d9190613c80565b60405180910390f35b61057e611c80565b60405161058b9190613c80565b60405180910390f35b61059c611c86565b6040516105a99190613c80565b60405180910390f35b6105ba611c8c565b6040516105c79190613c80565b60405180910390f35b6105d8611cd2565b005b6105f460048036038101906105ef9190613d5c565b611d48565b005b610610600480360381019061060b9190613cf9565b611daa565b005b61061a611ed4565b604051610627919061404d565b60405180910390f35b61064a60048036038101906106459190613d5c565b611f0c565b005b61066660048036038101906106619190613d5c565b6126ab565b005b610682600480360381019061067d9190614068565b61270d565b6040516106969897969594939291906140b7565b60405180910390f35b6106b960048036038101906106b49190613d5c565b61279f565b005b6106d560048036038101906106d09190613d5c565b612801565b005b6106df612aa9565b005b6106e9612b1e565b005b61070560048036038101906107009190613cf9565b612b93565b005b610721600480360381019061071c9190613d5c565b612cbd565b005b61073d60048036038101906107389190613d5c565b612d1f565b005b610747612d81565b6040516107549190613c80565b60405180910390f35b61077760048036038101906107729190613cf9565b612dc7565b005b600061078f67d3533c0d788f6f6a60c01b612e4d565b6107a367c6c49d372d30d9e060c01b612e4d565b6107b7673a7cb5c767023a9a60c01b612e4d565b6001548310610810576107d467cfb62a4e3282757460c01b612e4d565b6107e867f271e827db6e47b760c01b612e4d565b6107fc67a33c765d60246bf760c01b612e4d565b8160906108099190614164565b9050610909565b610824675dcec27c27302b3160c01b612e4d565b61083867996f014a15ae084b60c01b612e4d565b61084c6709e7bdd9574ac5a060c01b612e4d565b6000600154670de0b6b3a7640000856006546108689190614164565b6108729190614164565b61087c91906141d5565b90506108926741ae4d463ca3cf4960c01b612e4d565b6108a667581f33e234bdd4ae60c01b612e4d565b60006ec097ce7bc90715b34b9f10000000008283866108c59190614164565b6108cf9190614164565b6108d991906141d5565b90506108ef67d425252e50b3a3f360c01b612e4d565b6109036737dc5191926dd1c460c01b612e4d565b80925050505b92915050565b60055481565b600c6020528060005260406000206000915054906101000a900460ff1681565b60075481565b61094f67784d1203cac2db3660c01b612e4d565b610957612e50565b61096b67cc7f46c4c4f181c560c01b612e4d565b61097f67371e6d56b832698160c01b612e4d565b610993672e31e54c0ede5a3860c01b612e4d565b6109a767f9703c94a5a19bd460c01b612e4d565b60008103610a09576109c3679e220b7e5f7608a560c01b612e4d565b6109d767fe7caa985572d08f60c01b612e4d565b6040517f61ac6eba00000000000000000000000000000000000000000000000000000000815260040160405180910390fd5b610a1d67ccd960eba84e13dd60c01b612e4d565b610a31678605a2b21344c35760c01b612e4d565b80600e6000828254610a439190614206565b92505081905550610a5e672acfe9baee32783060c01b612e4d565b610a72672e0b79933dc999ef60c01b612e4d565b610abf33308360008054906101000a900473ffffffffffffffffffffffffffffffffffffffff1673ffffffffffffffffffffffffffffffffffffffff16612ed7909392919063ffffffff16565b610ad367bba26dbe923896e060c01b612e4d565b610ae7677f25a147d236dd8b60c01b612e4d565b3373ffffffffffffffffffffffffffffffffffffffff167fe1fffcc4923d04b559f4d29a8bfc6cda04eb5b0d3c460751c2402c5c5cc9109c82604051610b2d9190613c80565b60405180910390a250565b6000610b4e6771dc132d31e4a02460c01b612e4d565b610b6267a7d8e1cbbc843fb260c01b612e4d565b610b76675fb82d64c9d3c40a60c01b612e4d565b6000610b828787610779565b9050610b9867bf3e5f3fd52b5fb960c01b612e4d565b610bac67e12bd3823173100d60c01b612e4d565b6000610bba88878787611b5f565b9050610bd067acece777c90a6bb760c01b612e4d565b610be467ac5b4b7a00dd959d60c01b612e4d565b6000670de0b6b3a7640000838b610bfb9190614164565b610c0591906141d5565b9050610c1b671d7e0721221a2ef660c01b612e4d565b610c2f676cec70fe82fb1ddb60c01b612e4d565b6000670de0b6b3a76400008383610c469190614164565b610c5091906141d5565b9050610c6667ffbd9af4813c716760c01b612e4d565b610c7a676208b8f23c1ee9d560c01b612e4d565b600081838d610c899190614206565b610c93919061423a565b9050610ca9674bc5cceccd8f3b8f60c01b612e4d565b610cbd67cc0d02e223ac5f2060c01b612e4d565b80955050505050509695505050505050565b60035481565b60085481565b610cef679f9dd50f21c5fd0d60c01b612e4d565b610cf7612f59565b610d0b67fd57a7b99f8b2e3660c01b612e4d565b610d1f67b84e9aa335ce692f60c01b612e4d565b610d3367643e5d7d7447c52e60c01b612e4d565b610d4767adb190546928ee1660c01b612e4d565b6000600a60003373ffffffffffffffffffffffffffffffffffffffff1673ffffffffffffffffffffffffffffffffffffffff16815260200190815260200160002060008381526020019081526020016000209050610daf672922c653a4a340b360c01b612e4d565b610dc367d184a05ff8d412c260c01b612e4d565b6000816000015403610e2957610de3678c87d943f50f0ea060c01b612e4d565b610df7671b9f806e16ed2dfe60c01b612e4d565b6040517f1704edbb00000000000000000000000000000000000000000000000000000000815260040160405180910390fd5b610e3d670a6ce197fd362be560c01b612e4d565b610e5167a2d347acc59c444460c01b612e4d565b610e656753e847d7bd96fb0a60c01b612e4d565b8060010160089054906101000a900460ff1615610ed657610e9067620b6b7ab778e1c160c01b612e4d565b610ea4678fee3335ff2e0b9b60c01b612e4d565b6040517f97198fa600000000000000000000000000000000000000000000000000000000815260040160405180910390fd5b610eea6754aa019b0b7726c060c01b612e4d565b610efe67aa9caf93c30c72b560c01b612e4d565b610f12674f8a33545e20206760c01b612e4d565b8060050160009054906101000a900463ffffffff168160010160009054906101000a900463ffffffff16610f46919061426e565b63ffffffff1642101561107757610f6767590b3f7a3bc5921c60c01b612e4d565b610f7b67a3e6edf88816448660c01b612e4d565b428160010160046101000a81548163ffffffff021916908363ffffffff160217905550610fb2679e4524b9be704de560c01b612e4d565b60018160010160086101000a81548160ff021916908315150217905550610fe367c4f56e8613b194e060c01b612e4d565b610ff76754804a0568a2420260c01b612e4d565b3373ffffffffffffffffffffffffffffffffffffffff167f828764c21e74c28710e19919735825aba966621c95cbd913f8ed65a2d298f48c82600001546040516110419190613c80565b60405180910390a261105d676e16e72f0dbdd4b560c01b612e4d565b61107167dd933d62ff016ab160c01b612e4d565b506110bf565b61108b677498668cc086bac760c01b612e4d565b61109f670d3f42b09f60edb460c01b612e4d565b6110b3678e6e738bbc198ffd60c01b612e4d565b6110bd3383612fb0565b505b6110c76134b9565b50565b6110de677f67747fe9649bfc60c01b612e4d565b6110e6612e50565b6110fa673480222e95cd931460c01b612e4d565b61110e67083253e7eeb4871660c01b612e4d565b61112267e3a78cbb3367ccd360c01b612e4d565b8060048190555050565b61114067381a47963f4196e260c01b612e4d565b611148612f59565b61115c67e0fb84e301b0ae2360c01b612e4d565b61117067b041837b5a59603260c01b612e4d565b611184673e55ad110582c77f60c01b612e4d565b611198677ba4ae178d37156a60c01b612e4d565b6000600a60003373ffffffffffffffffffffffffffffffffffffffff1673ffffffffffffffffffffffffffffffffffffffff16815260200190815260200160002060008381526020019081526020016000209050611200678144859e4d3a8ac560c01b612e4d565b61121467349af0497e5cd30960c01b612e4d565b8060010160089054906101000a900460ff166112845761123e6772e2c3ab76c2791260c01b612e4d565b6112526759dc52ab502d38a660c01b612e4d565b6040517feef9087e00000000000000000000000000000000000000000000000000000000815260040160405180910390fd5b61129867ca6584c7888c164d60c01b612e4d565b6112ac67a1e736bc245d3cdd60c01b612e4d565b6112c067e3cb2e0aefc2586d60c01b612e4d565b6005548160010160049054906101000a900463ffffffff1663ffffffff166112e89190614206565b42101561134957611303676ea687de1f12a41960c01b612e4d565b61131767ddd5898ba213b35c60c01b612e4d565b6040517f52c459f900000000000000000000000000000000000000000000000000000000815260040160405180910390fd5b61135d675e39b76e14f5756d60c01b612e4d565b61137167f44116102ebc396160c01b612e4d565b61138567c9b71c608995ffbe60c01b612e4d565b61138f3383612fb0565b506113986134b9565b50565b60006113b167123994520a536f7460c01b612e4d565b6113c5670e87df8cf5a599db60c01b612e4d565b6113d967741443532edb1eb860c01b612e4d565b60006113ef672f1ce3e6bdd918f560c01b612e4d565b6114036784774c26c185f3ae60c01b612e4d565b6000600b60008573ffffffffffffffffffffffffffffffffffffffff1673ffffffffffffffffffffffffffffffffffffffff16815260200190815260200160002054905061145b67049dbdc851abae9c60c01b612e4d565b61146f6711882ea6e4480d8260c01b612e4d565b6000600a60008673ffffffffffffffffffffffffffffffffffffffff1673ffffffffffffffffffffffffffffffffffffffff16815260200190815260200160002090506114c667f8bd99134d01f18660c01b612e4d565b6114da6711a3ede05fa591c760c01b612e4d565b60005b8281101561154f576114f967c0c387b51ba34f2f60c01b612e4d565b816000828152602001908152602001600020600001548461151a9190614206565b9350611530674dfd9bc22d76ea0060c01b612e4d565b6115446735b59734924ad54560c01b612e4d565b8060010190506114dd565b5061156467be94acd0a59694e060c01b612e4d565b61157867ae17314496791d9160c01b612e4d565b829350505050919050565b61159767fea109b9d854cf2360c01b612e4d565b61159f612e50565b6115b367866d38108901faa260c01b612e4d565b6115c767c2c2d7a6965ac21e60c01b612e4d565b6115db67b192ace7b1c65e0260c01b612e4d565b6115ef67a96db3ee52d0ef3360c01b612e4d565b6115f76134d2565b565b60025481565b600960009054906101000a900460ff1681565b600b6020528060005260406000206000915090505481565b61163e67df9604badd6d347c60c01b612e4d565b611646612e50565b61165a67ab3da2390a7217ce60c01b612e4d565b61166e67a1a78941d50068b960c01b612e4d565b61168267eb639fa9a95dbcc260c01b612e4d565b8060018190555061169d67ae483f284c5c667060c01b612e4d565b62278d00816116ac91906141d5565b60068190555050565b6000806116c0613544565b90508060000160009054906101000a900460ff1691505090565b60006116f0671e353a7a296bc37960c01b612e4d565b61170467addcf20f80d53b7360c01b612e4d565b6117186786ddf020d902a5ff60c01b612e4d565b600e54905090565b61173467ad667a64f4978b7a60c01b612e4d565b600061173e61356c565b905060008160000160089054906101000a900460ff1615905060008260000160009054906101000a900467ffffffffffffffff1690506000808267ffffffffffffffff1614801561178c5750825b9050600060018367ffffffffffffffff161480156117c1575060003073ffffffffffffffffffffffffffffffffffffffff163b145b9050811580156117cf575080155b15611806576040517ff92ee8a900000000000000000000000000000000000000000000000000000000815260040160405180910390fd5b60018560000160006101000a81548167ffffffffffffffff021916908367ffffffffffffffff16021790555083156118565760018560000160086101000a81548160ff0219169083151502179055505b61186a678264858e49dedcf460c01b612e4d565b61187e67c833b0463101a7a260c01b612e4d565b611892679e5a3e616266eca560c01b612e4d565b6118a667e6f3224d43e489c960c01b612e4d565b6118af33613594565b6118c3670cc5e42825a5376e60c01b612e4d565b6118d767813e31c351dda0ac60c01b612e4d565b6118df6135a8565b6118f36733d00a837db4699760c01b612e4d565b611907675366fe606239c09f60c01b612e4d565b61190f6135ba565b6119236714a77fe737b621ea60c01b612e4d565b6119376737e59a0fc2dc23ea60c01b612e4d565b6119408f612dc7565b611954674e0ab26e31a5198d60c01b612e4d565b8d6000806101000a81548173ffffffffffffffffffffffffffffffffffffffff021916908373ffffffffffffffffffffffffffffffffffffffff1602179055506119a86702ccc81d7bff652560c01b612e4d565b8c63ffffffff166001819055506119c967ea6f48f69191886260c01b612e4d565b8b6004819055506119e46799fa93e541e7ce1b60c01b612e4d565b8a6005819055506119ff67576de98d70f008e360c01b612e4d565b62278d008d611a0e91906142a6565b63ffffffff16600681905550611a2e67a9f5ad2d15ce5a4960c01b612e4d565b89600781905550611a49679fd76f677e14524260c01b612e4d565b88600881905550611a64677968ab95f66a224060c01b612e4d565b87600281905550611a7f6798589fa553f91e8360c01b612e4d565b86600381905550611a9a67b5a66796d1e4baef60c01b612e4d565b85600960006101000a81548160ff0219169083151502179055508315611b105760008560000160086101000a81548160ff0219169083151502179055507fc7f505b2f371ae2175ee4913f4499e1f2633a7b5936321eed1cdaeb6115181d26001604051611b079190614326565b60405180910390a15b505050505050505050505050505050565b60065481565b611b2f612e50565b611b3960006135cc565b565b60008054906101000a900473ffffffffffffffffffffffffffffffffffffffff1681565b6000611b75676ca6a3138de4996c60c01b612e4d565b611b8967a4a0f357bf4e27dd60c01b612e4d565b611b9d678adc283527fa413560c01b612e4d565b818510611be957611bb867aba8fe301213e38760c01b612e4d565b611bcc67a107ce563f352c5560c01b612e4d565b611be067760a7ec7ed6f202e60c01b612e4d565b60009050611c78565b611bfd672e378834007e3bb660c01b612e4d565b611c1167ec2c72dd13a14aff60c01b612e4d565b611c25675caed65dcab4a6f560c01b612e4d565b6000828686611c349190614164565b611c3e91906141d5565b84611c49919061423a565b9050611c5f67d32913acb01ada6b60c01b612e4d565b611c7367868a76f7a37ae69960c01b612e4d565b809150505b949350505050565b60045481565b60015481565b6000611ca267341662c6e05446ed60c01b612e4d565b611cb667d5b420702b5d529060c01b612e4d565b611cca679aad6b8bc00ff9d860c01b612e4d565b600d54905090565b611ce6670814b302efd28d7060c01b612e4d565b611cee612e50565b611d02674c4afecd8c0ad56260c01b612e4d565b611d1667cd69b84d664b1d2f60c01b612e4d565b611d2a671217d974abc583f460c01b612e4d565b611d3e67a0d54084d7abea8b60c01b612e4d565b611d466136a3565b565b611d5c67399adde4da7d275260c01b612e4d565b611d64612e50565b611d786767f14619fb8982ac60c01b612e4d565b611d8c67599295e2237fdebb60c01b612e4d565b611da067ad296bbb28065dc560c01b612e4d565b8060058190555050565b611dbe6795144f34bebca2d060c01b612e4d565b611dc6612e50565b611dda67a235f9c96d897a1e60c01b612e4d565b611dee679cf94fa52350166d60c01b612e4d565b611e02677dd699c33259284060c01b612e4d565b6000600c60008373ffffffffffffffffffffffffffffffffffffffff1673ffffffffffffffffffffffffffffffffffffffff16815260200190815260200160002060006101000a81548160ff021916908315150217905550611e6e677eb5319803fef74e60c01b612e4d565b611e826730290148d17f8c0b60c01b612e4d565b8073ffffffffffffffffffffffffffffffffffffffff167f8daaf060c3306c38e068a75c054bf96ecd85a3db1252712c4d93632744c42e0d6000604051611ec99190613d41565b60405180910390a250565b600080611edf613715565b90508060000160009054906101000a900473ffffffffffffffffffffffffffffffffffffffff1691505090565b611f2067c5b454c6f8b9a95760c01b612e4d565b611f28612f59565b611f3c67b113f5404950cb7d60c01b612e4d565b611f50679158215a97d25a1760c01b612e4d565b611f5861373d565b611f6c6789de050e481c25b460c01b612e4d565b611f8067a9d26786d96e310260c01b612e4d565b611f94672e4f3f75e1697bf760c01b612e4d565b611fa867310049df13591a0560c01b612e4d565b611fbc67246959363178924260c01b612e4d565b600960009054906101000a900460ff1680156120225750600c60003373ffffffffffffffffffffffffffffffffffffffff1673ffffffffffffffffffffffffffffffffffffffff16815260200190815260200160002060009054906101000a900460ff16155b156120815761203b675f6d4464f76f6f6360c01b612e4d565b61204f679c895f1e81bd007360c01b612e4d565b6040517f584a793800000000000000000000000000000000000000000000000000000000815260040160405180910390fd5b61209567c7394731e6027b0a60c01b612e4d565b6120a967c72b16a4dc080f6060c01b612e4d565b6120bd67ab0fb858315d6c7460c01b612e4d565b6120d167d168a2b14ec1ddf760c01b612e4d565b6120e5670e044b1e6a3c7bba60c01b612e4d565b6120f9673eb104d3da1761d460c01b612e4d565b6000810361215b5761211567f24ac40d76dad0fe60c01b612e4d565b612129673d3b1bd09037572d60c01b612e4d565b6040517f1f2a200500000000000000000000000000000000000000000000000000000000815260040160405180910390fd5b61216f67ce63ca2bbe379b9f60c01b612e4d565b612183673d9b3a944656b87f60c01b612e4d565b6121976793053cf8716139f660c01b612e4d565b60006002541180156121aa575060025481105b15612209576121c36799ecab82b8a3eb8f60c01b612e4d565b6121d767bda9f1ef13dd06b260c01b612e4d565b6040517f697fb45900000000000000000000000000000000000000000000000000000000815260040160405180910390fd5b61221d67efe20b774a27402060c01b612e4d565b612231677f98f3b26c65429760c01b612e4d565b61224567308534222c05c0fa60c01b612e4d565b600060035411801561226b575060035461225e3361139b565b826122699190614206565b115b156122ca5761228467c2972967ca56b27760c01b612e4d565b612298677ff43a26c61a78ed60c01b612e4d565b6040517ffef49f1900000000000000000000000000000000000000000000000000000000815260040160405180910390fd5b6122de679b72755f6ed789eb60c01b612e4d565b6122f2677bb2a500532480f560c01b612e4d565b61230667ddc49015a0829a9860c01b612e4d565b6000600b60003373ffffffffffffffffffffffffffffffffffffffff1673ffffffffffffffffffffffffffffffffffffffff16815260200190815260200160002054905061235e6765bdada9c7fae79360c01b612e4d565b6040518061010001604052808381526020014263ffffffff168152602001600063ffffffff16815260200160001515815260200160045481526020016008548152602001600754815260200160015463ffffffff16815250600a60003373ffffffffffffffffffffffffffffffffffffffff1673ffffffffffffffffffffffffffffffffffffffff16815260200190815260200160002060008381526020019081526020016000206000820151816000015560208201518160010160006101000a81548163ffffffff021916908363ffffffff16021790555060408201518160010160046101000a81548163ffffffff021916908363ffffffff16021790555060608201518160010160086101000a81548160ff0219169083151502179055506080820151816002015560a0820151816003015560c0820151816004015560e08201518160050160006101000a81548163ffffffff021916908363ffffffff1602179055509050506124da67e8224f5cf94b972360c01b612e4d565b600b60003373ffffffffffffffffffffffffffffffffffffffff1673ffffffffffffffffffffffffffffffffffffffff168152602001908152602001600020600081548092919061252a90614341565b9190505550612543675c04e90f7a0a31f960c01b612e4d565b81600d60008282546125559190614206565b92505081905550612570671529646ecf448ee660c01b612e4d565b670de0b6b3a7640000612587600154600454610779565b836125929190614164565b61259c91906141d5565b600f60008282546125ad9190614206565b925050819055506125c8676a4f9d234fd0c0b160c01b612e4d565b6125dc6768b9e7ccc732b44560c01b612e4d565b61262933308460008054906101000a900473ffffffffffffffffffffffffffffffffffffffff1673ffffffffffffffffffffffffffffffffffffffff16612ed7909392919063ffffffff16565b61263d67047fdbb551b51aa960c01b612e4d565b612651675d3da345d08ec2bc60c01b612e4d565b3373ffffffffffffffffffffffffffffffffffffffff167f9e71bc8eea02a63969f509818f2dafb9254532904319f9dbda79b67bd34a5f3d836040516126979190613c80565b60405180910390a2506126a86134b9565b50565b6126bf6764224e5135551ac460c01b612e4d565b6126c7612e50565b6126db678b1ab29cd215ae4260c01b612e4d565b6126ef67be46f85f1661d4ab60c01b612e4d565b6127036747030bcac017551b60c01b612e4d565b8060088190555050565b600a602052816000526040600020602052806000526040600020600091509150508060000154908060010160009054906101000a900463ffffffff16908060010160049054906101000a900463ffffffff16908060010160089054906101000a900460ff16908060020154908060030154908060040154908060050160009054906101000a900463ffffffff16905088565b6127b3675ebf4be0a0ca629660c01b612e4d565b6127bb612e50565b6127cf679f561673969f8ea660c01b612e4d565b6127e36739985f0e2a42c79760c01b612e4d565b6127f7676d759ae3d9e2184060c01b612e4d565b8060028190555050565b61281567a3d29664afdbb61b60c01b612e4d565b61281d612e50565b61283167d2c273555041fe2560c01b612e4d565b61284567136a667735fe323560c01b612e4d565b6128596708003d19608d711460c01b612e4d565b61286d676deacbff592a8a8960c01b612e4d565b600081036128cf5761288967808b078107652cb460c01b612e4d565b61289d6753dfff9434a9f75d60c01b612e4d565b6040517f1f2a200500000000000000000000000000000000000000000000000000000000815260040160405180910390fd5b6128e3674209ec8ff5e1744a60c01b612e4d565b6128f7672891c9b5a9270c4160c01b612e4d565b61290b67852960116007b77f60c01b612e4d565b80600f54600e5461291c919061423a565b101561297c5761293667a78893d48aa2bae160c01b612e4d565b61294a67ddb75427835015a560c01b612e4d565b6040517f3270436b00000000000000000000000000000000000000000000000000000000815260040160405180910390fd5b61299067fb8a50ecf42ba1c260c01b612e4d565b6129a467b4063789c1b7d9cb60c01b612e4d565b80600e60008282546129b6919061423a565b925050819055506129d1674de7cc99eea178db60c01b612e4d565b6129e567815321fe4bc285b860c01b612e4d565b612a30338260008054906101000a900473ffffffffffffffffffffffffffffffffffffffff1673ffffffffffffffffffffffffffffffffffffffff1661377e9092919063ffffffff16565b612a44671153b7d5fe9edd4c60c01b612e4d565b612a5867bbba4d2bc7d3c86260c01b612e4d565b3373ffffffffffffffffffffffffffffffffffffffff167f884edad9ce6fa2440d8a54cc123490eb96d2768479d49ff9c7366125a942436482604051612a9e9190613c80565b60405180910390a250565b612abd678a60bbb918f1b25460c01b612e4d565b612ac5612e50565b612ad967dd56d355dce5de3760c01b612e4d565b612aed6789774e0bda482bad60c01b612e4d565b612b016716f7acf73ae701bc60c01b612e4d565b6001600960006101000a81548160ff021916908315150217905550565b612b32676bf69b1412debb9660c01b612e4d565b612b3a612e50565b612b4e67d45d768b7ed4bdf160c01b612e4d565b612b626791f2c9a14ec7c40d60c01b612e4d565b612b76672d5ef73c2979ad3d60c01b612e4d565b6000600960006101000a81548160ff021916908315150217905550565b612ba76757e715cb116aeee060c01b612e4d565b612baf612e50565b612bc367155b71f2e3ac1ce260c01b612e4d565b612bd767df70db9e8e7c5ab260c01b612e4d565b612beb671fe571415ff3824760c01b612e4d565b6001600c60008373ffffffffffffffffffffffffffffffffffffffff1673ffffffffffffffffffffffffffffffffffffffff16815260200190815260200160002060006101000a81548160ff021916908315150217905550612c5767783f768e9bbfc23760c01b612e4d565b612c6b674dbdccfa13a72db360c01b612e4d565b8073ffffffffffffffffffffffffffffffffffffffff167f8daaf060c3306c38e068a75c054bf96ecd85a3db1252712c4d93632744c42e0d6001604051612cb29190613d41565b60405180910390a250565b612cd167cdb16107bf334ffe60c01b612e4d565b612cd9612e50565b612ced675ec5364c188fb75560c01b612e4d565b612d01674e02617731e123e860c01b612e4d565b612d1567a9c53030b7a38e1460c01b612e4d565b8060078190555050565b612d3367d2af7686b151c60360c01b612e4d565b612d3b612e50565b612d4f67130e20711c6dd8d160c01b612e4d565b612d63677041ce65391f63ec60c01b612e4d565b612d776785f36fb776cf672560c01b612e4d565b8060038190555050565b6000612d97673d0a2d5def5284d260c01b612e4d565b612dab67954e657be076df6960c01b612e4d565b612dbf67a722dcee375db32b60c01b612e4d565b600f54905090565b612dcf612e50565b600073ffffffffffffffffffffffffffffffffffffffff168173ffffffffffffffffffffffffffffffffffffffff1603612e415760006040517f1e4fbdf7000000000000000000000000000000000000000000000000000000008152600401612e38919061404d565b60405180910390fd5b612e4a816135cc565b50565b50565b612e586137fd565b73ffffffffffffffffffffffffffffffffffffffff16612e76611ed4565b73ffffffffffffffffffffffffffffffffffffffff1614612ed557612e996137fd565b6040517f118cdaa7000000000000000000000000000000000000000000000000000000008152600401612ecc919061404d565b60405180910390fd5b565b612f53848573ffffffffffffffffffffffffffffffffffffffff166323b872dd868686604051602401612f0c93929190614389565b604051602081830303815290604052915060e01b6020820180517bffffffffffffffffffffffffffffffffffffffffffffffffffffffff8381831617835250505050613805565b50505050565b6000612f6361389c565b90506002816000015403612fa3576040517f3ee5aeb500000000000000000000000000000000000000000000000000000000815260040160405180910390fd5b6002816000018190555050565b612fc4670bdfde5e8d74962560c01b612e4d565b612fd8676749c6d6ba00546460c01b612e4d565b612fec67c182d4f1e36dcae160c01b612e4d565b6000600a60008473ffffffffffffffffffffffffffffffffffffffff1673ffffffffffffffffffffffffffffffffffffffff1681526020019081526020016000206000838152602001908152602001600020905061305467fe2bf72b56033c8960c01b612e4d565b613068677f21c96ae2e5669360c01b612e4d565b60008160000154905061308567c311a3e913c98c1260c01b612e4d565b61309967f70459dafb42da9760c01b612e4d565b60006130f4828460010160009054906101000a900463ffffffff1663ffffffff16426130c5919061423a565b8560020154866003015487600401548860050160009054906101000a900463ffffffff1663ffffffff16610b38565b905061310a67e27377fcfe60da4c60c01b612e4d565b61311e67ebb1a41560c4349d60c01b612e4d565b6000828261312c919061423a565b9050613142674e5827196005202a60c01b612e4d565b82600d6000828254613154919061423a565b9250508190555061316f6713e94f0456097ca960c01b612e4d565b80600e6000828254613181919061423a565b9250508190555061319c67bab595a3bb5fb83360c01b612e4d565b80600f60008282546131ae919061423a565b925050819055506131c96792f660ae3a40759060c01b612e4d565b600a60008773ffffffffffffffffffffffffffffffffffffffff1673ffffffffffffffffffffffffffffffffffffffff16815260200190815260200160002060008681526020019081526020016000206000808201600090556001820160006101000a81549063ffffffff02191690556001820160046101000a81549063ffffffff02191690556001820160086101000a81549060ff02191690556002820160009055600382016000905560048201600090556005820160006101000a81549063ffffffff021916905550506132a967bb1c9082132b1e5160c01b612e4d565b6132bd672e0f8b34a03771cc60c01b612e4d565b613308868360008054906101000a900473ffffffffffffffffffffffffffffffffffffffff1673ffffffffffffffffffffffffffffffffffffffff1661377e9092919063ffffffff16565b61331c6759e2ae14da7a54c460c01b612e4d565b613330675e8eafbaf92e829d60c01b612e4d565b8573ffffffffffffffffffffffffffffffffffffffff167f7084f5476618d8e60b11ef0d7d3f06914655adb8793e28ff7f018d4c76d505d5836040516133769190613c80565b60405180910390a2613392677605b4f3c000822560c01b612e4d565b6133a66785edcdf512e23d2860c01b612e4d565b8573ffffffffffffffffffffffffffffffffffffffff167fe2403640ba68fed3a2f88b7557551d1993f84b99bb10ff833f0cf8db0c5e0486826040516133ec9190613c80565b60405180910390a26134086723a6192e293fe0aa60c01b612e4d565b61341c6726d46e14dfe6ad7460c01b612e4d565b60006134278761139b565b0361349c57613440676f1eab6ec8db93ba60c01b612e4d565b61345467d03b71acc375f5d660c01b612e4d565b600b60008773ffffffffffffffffffffffffffffffffffffffff1673ffffffffffffffffffffffffffffffffffffffff168152602001908152602001600020600090556134b1565b6134b0670118e5adc839000660c01b612e4d565b5b505050505050565b60006134c361389c565b90506001816000018190555050565b6134da6138c4565b60006134e4613544565b905060008160000160006101000a81548160ff0219169083151502179055507f5db9ee0a495bf2e6ff9c91a7834c1ba4fdd244a5e8aa4e537bd38aeae4b073aa61352c6137fd565b604051613539919061404d565b60405180910390a150565b60007fcd5ed15c6e187e77e9aee88184c21f4f2182ab5827cb3b7e07fbedcd63f03300905090565b60007ff0c57e16840df040f15088dc2f81fe391c3923bec73e23a9662efc9c229c6a00905090565b61359c613904565b6135a581613944565b50565b6135b0613904565b6135b86139ca565b565b6135c2613904565b6135ca6139fe565b565b60006135d6613715565b905060008160000160009054906101000a900473ffffffffffffffffffffffffffffffffffffffff169050828260000160006101000a81548173ffffffffffffffffffffffffffffffffffffffff021916908373ffffffffffffffffffffffffffffffffffffffff1602179055508273ffffffffffffffffffffffffffffffffffffffff168173ffffffffffffffffffffffffffffffffffffffff167f8be0079c531659141344cd1fd0a4f28419497f9722a3daafe3b4186f6b6457e060405160405180910390a3505050565b6136ab61373d565b60006136b5613544565b905060018160000160006101000a81548160ff0219169083151502179055507f62e78cea01bee320cd4e420270b5ea74000d11b0c9f74754ebdbfc544b05a2586136fd6137fd565b60405161370a919061404d565b60405180910390a150565b60007f9016d09d72d40fdae2fd8ceac6b6234c7706214fd39c1cd1e609a0528c199300905090565b6137456116b5565b1561377c576040517fd93c066500000000000000000000000000000000000000000000000000000000815260040160405180910390fd5b565b6137f8838473ffffffffffffffffffffffffffffffffffffffff1663a9059cbb85856040516024016137b19291906143c0565b604051602081830303815290604052915060e01b6020820180517bffffffffffffffffffffffffffffffffffffffffffffffffffffffff8381831617835250505050613805565b505050565b600033905090565b6000613830828473ffffffffffffffffffffffffffffffffffffffff16613a1f90919063ffffffff16565b9050600081511415801561385557508080602001905181019061385391906143fe565b155b1561389757826040517f5274afe700000000000000000000000000000000000000000000000000000000815260040161388e919061404d565b60405180910390fd5b505050565b60007f9b779b17422d0df92223018b32b4d1fa46e071723d6817e2486d003becc55f00905090565b6138cc6116b5565b613902576040517f8dfc202b00000000000000000000000000000000000000000000000000000000815260040160405180910390fd5b565b61390c613a35565b613942576040517fd7e6bcf800000000000000000000000000000000000000000000000000000000815260040160405180910390fd5b565b61394c613904565b600073ffffffffffffffffffffffffffffffffffffffff168173ffffffffffffffffffffffffffffffffffffffff16036139be5760006040517f1e4fbdf70000000000000000000000000000000000000000000000000000000081526004016139b5919061404d565b60405180910390fd5b6139c7816135cc565b50565b6139d2613904565b60006139dc613544565b905060008160000160006101000a81548160ff02191690831515021790555050565b613a06613904565b6000613a1061389c565b90506001816000018190555050565b6060613a2d83836000613a55565b905092915050565b6000613a3f61356c565b60000160089054906101000a900460ff16905090565b606081471015613a9c57306040517fcd786059000000000000000000000000000000000000000000000000000000008152600401613a93919061404d565b60405180910390fd5b6000808573ffffffffffffffffffffffffffffffffffffffff168486604051613ac5919061449c565b60006040518083038185875af1925050503d8060008114613b02576040519150601f19603f3d011682016040523d82523d6000602084013e613b07565b606091505b5091509150613b17868383613b22565b925050509392505050565b606082613b3757613b3282613bb1565b613ba9565b60008251148015613b5f575060008473ffffffffffffffffffffffffffffffffffffffff163b145b15613ba157836040517f9996b315000000000000000000000000000000000000000000000000000000008152600401613b98919061404d565b60405180910390fd5b819050613baa565b5b9392505050565b600081511115613bc45780518082602001fd5b6040517f1425ea4200000000000000000000000000000000000000000000000000000000815260040160405180910390fd5b600080fd5b6000819050919050565b613c0e81613bfb565b8114613c1957600080fd5b50565b600081359050613c2b81613c05565b92915050565b60008060408385031215613c4857613c47613bf6565b5b6000613c5685828601613c1c565b9250506020613c6785828601613c1c565b9150509250929050565b613c7a81613bfb565b82525050565b6000602082019050613c956000830184613c71565b92915050565b600073ffffffffffffffffffffffffffffffffffffffff82169050919050565b6000613cc682613c9b565b9050919050565b613cd681613cbb565b8114613ce157600080fd5b50565b600081359050613cf381613ccd565b92915050565b600060208284031215613d0f57613d0e613bf6565b5b6000613d1d84828501613ce4565b91505092915050565b60008115159050919050565b613d3b81613d26565b82525050565b6000602082019050613d566000830184613d32565b92915050565b600060208284031215613d7257613d71613bf6565b5b6000613d8084828501613c1c565b91505092915050565b60008060008060008060c08789031215613da657613da5613bf6565b5b6000613db489828a01613c1c565b9650506020613dc589828a01613c1c565b9550506040613dd689828a01613c1c565b9450506060613de789828a01613c1c565b9350506080613df889828a01613c1c565b92505060a0613e0989828a01613c1c565b9150509295509295509295565b600063ffffffff82169050919050565b613e2f81613e16565b8114613e3a57600080fd5b50565b600081359050613e4c81613e26565b92915050565b613e5b81613d26565b8114613e6657600080fd5b50565b600081359050613e7881613e52565b92915050565b6000806000806000806000806000806101408b8d031215613ea257613ea1613bf6565b5b6000613eb08d828e01613ce4565b9a50506020613ec18d828e01613ce4565b9950506040613ed28d828e01613e3d565b9850506060613ee38d828e01613c1c565b9750506080613ef48d828e01613c1c565b96505060a0613f058d828e01613c1c565b95505060c0613f168d828e01613c1c565b94505060e0613f278d828e01613c1c565b935050610100613f398d828e01613c1c565b925050610120613f4b8d828e01613e69565b9150509295989b9194979a5092959850565b6000819050919050565b6000613f82613f7d613f7884613c9b565b613f5d565b613c9b565b9050919050565b6000613f9482613f67565b9050919050565b6000613fa682613f89565b9050919050565b613fb681613f9b565b82525050565b6000602082019050613fd16000830184613fad565b92915050565b60008060008060808587031215613ff157613ff0613bf6565b5b6000613fff87828801613c1c565b945050602061401087828801613c1c565b935050604061402187828801613c1c565b925050606061403287828801613c1c565b91505092959194509250565b61404781613cbb565b82525050565b6000602082019050614062600083018461403e565b92915050565b6000806040838503121561407f5761407e613bf6565b5b600061408d85828601613ce4565b925050602061409e85828601613c1c565b9150509250929050565b6140b181613e16565b82525050565b6000610100820190506140cd600083018b613c71565b6140da602083018a6140a8565b6140e760408301896140a8565b6140f46060830188613d32565b6141016080830187613c71565b61410e60a0830186613c71565b61411b60c0830185613c71565b61412860e08301846140a8565b9998505050505050505050565b7f4e487b7100000000000000000000000000000000000000000000000000000000600052601160045260246000fd5b600061416f82613bfb565b915061417a83613bfb565b925082820261418881613bfb565b9150828204841483151761419f5761419e614135565b5b5092915050565b7f4e487b7100000000000000000000000000000000000000000000000000000000600052601260045260246000fd5b60006141e082613bfb565b91506141eb83613bfb565b9250826141fb576141fa6141a6565b5b828204905092915050565b600061421182613bfb565b915061421c83613bfb565b925082820190508082111561423457614233614135565b5b92915050565b600061424582613bfb565b915061425083613bfb565b925082820390508181111561426857614267614135565b5b92915050565b600061427982613e16565b915061428483613e16565b9250828201905063ffffffff8111156142a05761429f614135565b5b92915050565b60006142b182613e16565b91506142bc83613e16565b9250826142cc576142cb6141a6565b5b828204905092915050565b6000819050919050565b600067ffffffffffffffff82169050919050565b600061431061430b614306846142d7565b613f5d565b6142e1565b9050919050565b614320816142f5565b82525050565b600060208201905061433b6000830184614317565b92915050565b600061434c82613bfb565b91507fffffffffffffffffffffffffffffffffffffffffffffffffffffffffffffffff820361437e5761437d614135565b5b600182019050919050565b600060608201905061439e600083018661403e565b6143ab602083018561403e565b6143b86040830184613c71565b949350505050565b60006040820190506143d5600083018561403e565b6143e26020830184613c71565b9392505050565b6000815190506143f881613e52565b92915050565b60006020828403121561441457614413613bf6565b5b6000614422848285016143e9565b91505092915050565b600081519050919050565b600081905092915050565b60005b8381101561445f578082015181840152602081019050614444565b60008484015250505050565b60006144768261442b565b6144808185614436565b9350614490818560208601614441565b80840191505092915050565b60006144a8828461446b565b91508190509291505056fea2646970667358221220a5a4b2357aa35c3e3d9233a4b0c77edbfc68cac05e31b34ed14ae3833a0677c464736f6c63430008140033",
  "linkReferences": {},
  "deployedLinkReferences": {}
}