{
  "_format": "hh-sol-artifact-1",
  "contractName": "Staking",
  "sourceName": "contracts/Staking.sol",
  "abi": [
    {
      "inputs": [
        {
          "internalType": "address",
          "name": "target",
          "type": "address"
        }
      ],
      "name": "AddressEmptyCode",
      "type": "error"
    },
    {
      "inputs": [
        {
          "internalType": "address",
          "name": "account",
          "type": "address"
        }
      ],
      "name": "AddressInsufficientBalance",
      "type": "error"
    },
    {
      "inputs": [],
      "name": "AmountBelowMinCap",
      "type": "error"
    },
    {
      "inputs": [],
      "name": "AmountExceedsMaxCap",
      "type": "error"
    },
    {
      "inputs": [],
      "name": "CannotDepositZero",
      "type": "error"
    },
    {
      "inputs": [],
      "name": "CooldownPeriodNotOver",
      "type": "error"
    },
    {
      "inputs": [],
      "name": "EnforcedPause",
      "type": "error"
    },
    {
      "inputs": [],
      "name": "ExpectedPause",
      "type": "error"
    },
    {
      "inputs": [],
      "name": "FailedInnerCall",
      "type": "error"
    },
    {
      "inputs": [],
      "name": "InsufficientRewardPool",
      "type": "error"
    },
    {
      "inputs": [],
      "name": "InvalidInitialization",
      "type": "error"
    },
    {
      "inputs": [],
      "name": "NoStakedAmount",
      "type": "error"
    },
    {
      "inputs": [],
      "name": "NotInitializing",
      "type": "error"
    },
    {
      "inputs": [],
      "name": "NotWhitelisted",
      "type": "error"
    },
    {
      "inputs": [
        {
          "internalType": "address",
          "name": "owner",
          "type": "address"
        }
      ],
      "name": "OwnableInvalidOwner",
      "type": "error"
    },
    {
      "inputs": [
        {
          "internalType": "address",
          "name": "account",
          "type": "address"
        }
      ],
      "name": "OwnableUnauthorizedAccount",
      "type": "error"
    },
    {
      "inputs": [],
      "name": "ReentrancyGuardReentrantCall",
      "type": "error"
    },
    {
      "inputs": [
        {
          "internalType": "address",
          "name": "token",
          "type": "address"
        }
      ],
      "name": "SafeERC20FailedOperation",
      "type": "error"
    },
    {
      "inputs": [],
      "name": "UnstakeAlreadyRequested",
      "type": "error"
    },
    {
      "inputs": [],
      "name": "UnstakeNotRequested",
      "type": "error"
    },
    {
      "inputs": [],
      "name": "ZeroAmount",
      "type": "error"
    },
    {
      "anonymous": false,
      "inputs": [
        {
          "indexed": true,
          "internalType": "address",
          "name": "owner",
          "type": "address"
        },
        {
          "indexed": false,
          "internalType": "uint256",
          "name": "amount",
          "type": "uint256"
        }
      ],
      "name": "Deposit",
      "type": "event"
    },
    {
      "anonymous": false,
      "inputs": [
        {
          "indexed": false,
          "internalType": "uint64",
          "name": "version",
          "type": "uint64"
        }
      ],
      "name": "Initialized",
      "type": "event"
    },
    {
      "anonymous": false,
      "inputs": [
        {
          "indexed": true,
          "internalType": "address",
          "name": "previousOwner",
          "type": "address"
        },
        {
          "indexed": true,
          "internalType": "address",
          "name": "newOwner",
          "type": "address"
        }
      ],
      "name": "OwnershipTransferred",
      "type": "event"
    },
    {
      "anonymous": false,
      "inputs": [
        {
          "indexed": false,
          "internalType": "address",
          "name": "account",
          "type": "address"
        }
      ],
      "name": "Paused",
      "type": "event"
    },
    {
      "anonymous": false,
      "inputs": [
        {
          "indexed": true,
          "internalType": "address",
          "name": "user",
          "type": "address"
        },
        {
          "indexed": false,
          "internalType": "uint256",
          "name": "reward",
          "type": "uint256"
        }
      ],
      "name": "RewardPaid",
      "type": "event"
    },
    {
      "anonymous": false,
      "inputs": [
        {
          "indexed": true,
          "internalType": "address",
          "name": "user",
          "type": "address"
        },
        {
          "indexed": false,
          "internalType": "uint256",
          "name": "amount",
          "type": "uint256"
        }
      ],
      "name": "Staked",
      "type": "event"
    },
    {
      "anonymous": false,
      "inputs": [
        {
          "indexed": false,
          "internalType": "address",
          "name": "account",
          "type": "address"
        }
      ],
      "name": "Unpaused",
      "type": "event"
    },
    {
      "anonymous": false,
      "inputs": [
        {
          "indexed": true,
          "internalType": "address",
          "name": "user",
          "type": "address"
        },
        {
          "indexed": false,
          "internalType": "uint256",
          "name": "amount",
          "type": "uint256"
        }
      ],
      "name": "UnstakeRequested",
      "type": "event"
    },
    {
      "anonymous": false,
      "inputs": [
        {
          "indexed": true,
          "internalType": "address",
          "name": "user",
          "type": "address"
        },
        {
          "indexed": false,
          "internalType": "bool",
          "name": "status",
          "type": "bool"
        }
      ],
      "name": "WhitelistStatusChanged",
      "type": "event"
    },
    {
      "anonymous": false,
      "inputs": [
        {
          "indexed": true,
          "internalType": "address",
          "name": "owner",
          "type": "address"
        },
        {
          "indexed": false,
          "internalType": "uint256",
          "name": "amount",
          "type": "uint256"
        }
      ],
      "name": "Withdraw",
      "type": "event"
    },
    {
      "anonymous": false,
      "inputs": [
        {
          "indexed": true,
          "internalType": "address",
          "name": "user",
          "type": "address"
        },
        {
          "indexed": false,
          "internalType": "uint256",
          "name": "amount",
          "type": "uint256"
        }
      ],
      "name": "Withdrawn",
      "type": "event"
    },
    {
      "inputs": [
        {
          "internalType": "address",
          "name": "_address",
          "type": "address"
        }
      ],
      "name": "addToWhitelist",
      "outputs": [],
      "stateMutability": "nonpayable",
      "type": "function"
    },
    {
      "inputs": [
        {
          "internalType": "uint256",
          "name": "timeStaked",
          "type": "uint256"
        },
        {
          "internalType": "uint256",
          "name": "_monthlyIncreasePercentage",
          "type": "uint256"
        },
        {
          "internalType": "uint256",
          "name": "_startingSlashingPoint",
          "type": "uint256"
        },
        {
          "internalType": "uint256",
          "name": "_stakingDuration",
          "type": "uint256"
        }
      ],
      "name": "calculateTax",
      "outputs": [
        {
          "internalType": "uint256",
          "name": "",
          "type": "uint256"
        }
      ],
      "stateMutability": "pure",
      "type": "function"
    },
    {
      "inputs": [
        {
          "internalType": "uint256",
          "name": "_amount",
          "type": "uint256"
        },
        {
          "internalType": "uint256",
          "name": "timeStaked",
          "type": "uint256"
        },
        {
          "internalType": "uint256",
          "name": "_yieldConstant",
          "type": "uint256"
        },
        {
          "internalType": "uint256",
          "name": "_monthlyIncreasePercentage",
          "type": "uint256"
        },
        {
          "internalType": "uint256",
          "name": "_startingSlashingPoint",
          "type": "uint256"
        },
        {
          "internalType": "uint256",
          "name": "_stakingDuration",
          "type": "uint256"
        }
      ],
      "name": "calculateTotalWithdraw",
      "outputs": [
        {
          "internalType": "uint256",
          "name": "",
          "type": "uint256"
        }
      ],
      "stateMutability": "view",
      "type": "function"
    },
    {
      "inputs": [
        {
          "internalType": "uint256",
          "name": "timeStaked",
          "type": "uint256"
        },
        {
          "internalType": "uint256",
          "name": "_yieldConstant",
          "type": "uint256"
        },
        {
          "internalType": "uint256",
          "name": "_stakingDuration",
          "type": "uint256"
        }
      ],
      "name": "calculateYield",
      "outputs": [
        {
          "internalType": "uint256",
          "name": "",
          "type": "uint256"
        }
      ],
      "stateMutability": "view",
      "type": "function"
    },
    {
      "inputs": [
        {
          "internalType": "uint256",
          "name": "stakeId",
          "type": "uint256"
        }
      ],
      "name": "claim",
      "outputs": [],
      "stateMutability": "nonpayable",
      "type": "function"
    },
    {
      "inputs": [],
      "name": "cooldownPeriod",
      "outputs": [
        {
          "internalType": "uint256",
          "name": "",
          "type": "uint256"
        }
      ],
      "stateMutability": "view",
      "type": "function"
    },
    {
      "inputs": [
        {
          "internalType": "uint256",
          "name": "_amount",
          "type": "uint256"
        }
      ],
      "name": "depositRewardTokens",
      "outputs": [],
      "stateMutability": "nonpayable",
      "type": "function"
    },
    {
      "inputs": [],
      "name": "disableWhitelist",
      "outputs": [],
      "stateMutability": "nonpayable",
      "type": "function"
    },
    {
      "inputs": [],
      "name": "enableWhitelist",
      "outputs": [],
      "stateMutability": "nonpayable",
      "type": "function"
    },
    {
      "inputs": [
        {
          "internalType": "address",
          "name": "user",
          "type": "address"
        }
      ],
      "name": "getTotalStakedForUser",
      "outputs": [
        {
          "internalType": "uint256",
          "name": "",
          "type": "uint256"
        }
      ],
      "stateMutability": "view",
      "type": "function"
    },
    {
      "inputs": [
        {
          "internalType": "address",
          "name": "user",
          "type": "address"
        }
      ],
      "name": "getUserStakes",
      "outputs": [
        {
          "components": [
            {
              "internalType": "uint256",
              "name": "amount",
              "type": "uint256"
            },
            {
              "internalType": "uint32",
              "name": "startTime",
              "type": "uint32"
            },
            {
              "internalType": "uint32",
              "name": "stakingDuration",
              "type": "uint32"
            },
            {
              "internalType": "uint32",
              "name": "requestUnstakeTime",
              "type": "uint32"
            },
            {
              "internalType": "bool",
              "name": "unstakeRequested",
              "type": "bool"
            },
            {
              "internalType": "uint256",
              "name": "yieldConstant",
              "type": "uint256"
            },
            {
              "internalType": "uint256",
              "name": "monthlyIncreasePercentage",
              "type": "uint256"
            },
            {
              "internalType": "uint256",
              "name": "startingSlashingPoint",
              "type": "uint256"
            }
          ],
          "internalType": "struct Staking.Stake[]",
          "name": "",
          "type": "tuple[]"
        }
      ],
      "stateMutability": "view",
      "type": "function"
    },
    {
      "inputs": [
        {
          "internalType": "address",
          "name": "_owner",
          "type": "address"
        },
        {
          "internalType": "address",
          "name": "_stakingToken",
          "type": "address"
        },
        {
          "internalType": "bool",
          "name": "_whitelistEnabled",
          "type": "bool"
        },
        {
          "internalType": "uint32",
          "name": "_stakingDuration",
          "type": "uint32"
        },
        {
          "internalType": "uint256",
          "name": "_yieldConstant",
          "type": "uint256"
        },
        {
          "internalType": "uint256",
          "name": "_cooldownPeriod",
          "type": "uint256"
        },
        {
          "internalType": "uint256",
          "name": "_startingSlashingPoint",
          "type": "uint256"
        },
        {
          "internalType": "uint256",
          "name": "_monthlyIncreasePercentage",
          "type": "uint256"
        },
        {
          "internalType": "uint256",
          "name": "_minCap",
          "type": "uint256"
        },
        {
          "internalType": "uint256",
          "name": "_maxCap",
          "type": "uint256"
        }
      ],
      "name": "initialize",
      "outputs": [],
      "stateMutability": "nonpayable",
      "type": "function"
    },
    {
      "inputs": [],
      "name": "maxCap",
      "outputs": [
        {
          "internalType": "uint256",
          "name": "",
          "type": "uint256"
        }
      ],
      "stateMutability": "view",
      "type": "function"
    },
    {
      "inputs": [],
      "name": "minCap",
      "outputs": [
        {
          "internalType": "uint256",
          "name": "",
          "type": "uint256"
        }
      ],
      "stateMutability": "view",
      "type": "function"
    },
    {
      "inputs": [],
      "name": "monthlyIncreasePercentage",
      "outputs": [
        {
          "internalType": "uint256",
          "name": "",
          "type": "uint256"
        }
      ],
      "stateMutability": "view",
      "type": "function"
    },
    {
      "inputs": [],
      "name": "monthsInStakingPeriod",
      "outputs": [
        {
          "internalType": "uint256",
          "name": "",
          "type": "uint256"
        }
      ],
      "stateMutability": "view",
      "type": "function"
    },
    {
      "inputs": [],
      "name": "owner",
      "outputs": [
        {
          "internalType": "address",
          "name": "",
          "type": "address"
        }
      ],
      "stateMutability": "view",
      "type": "function"
    },
    {
      "inputs": [],
      "name": "pause",
      "outputs": [],
      "stateMutability": "nonpayable",
      "type": "function"
    },
    {
      "inputs": [],
      "name": "paused",
      "outputs": [
        {
          "internalType": "bool",
          "name": "",
          "type": "bool"
        }
      ],
      "stateMutability": "view",
      "type": "function"
    },
    {
      "inputs": [],
      "name": "pendingRewards",
      "outputs": [
        {
          "internalType": "uint256",
          "name": "",
          "type": "uint256"
        }
      ],
      "stateMutability": "view",
      "type": "function"
    },
    {
      "inputs": [
        {
          "internalType": "address",
          "name": "_address",
          "type": "address"
        }
      ],
      "name": "removeFromWhitelist",
      "outputs": [],
      "stateMutability": "nonpayable",
      "type": "function"
    },
    {
      "inputs": [],
      "name": "renounceOwnership",
      "outputs": [],
      "stateMutability": "nonpayable",
      "type": "function"
    },
    {
      "inputs": [],
      "name": "rewardPool",
      "outputs": [
        {
          "internalType": "uint256",
          "name": "",
          "type": "uint256"
        }
      ],
      "stateMutability": "view",
      "type": "function"
    },
    {
      "inputs": [
        {
          "internalType": "uint256",
          "name": "_amount",
          "type": "uint256"
        }
      ],
      "name": "stake",
      "outputs": [],
      "stateMutability": "nonpayable",
      "type": "function"
    },
    {
      "inputs": [],
      "name": "stakingDuration",
      "outputs": [
        {
          "internalType": "uint256",
          "name": "",
          "type": "uint256"
        }
      ],
      "stateMutability": "view",
      "type": "function"
    },
    {
      "inputs": [],
      "name": "stakingToken",
      "outputs": [
        {
          "internalType": "contract IERC20",
          "name": "",
          "type": "address"
        }
      ],
      "stateMutability": "view",
      "type": "function"
    },
    {
      "inputs": [],
      "name": "startingSlashingPoint",
      "outputs": [
        {
          "internalType": "uint256",
          "name": "",
          "type": "uint256"
        }
      ],
      "stateMutability": "view",
      "type": "function"
    },
    {
      "inputs": [],
      "name": "totalPendingRewards",
      "outputs": [
        {
          "internalType": "uint256",
          "name": "",
          "type": "uint256"
        }
      ],
      "stateMutability": "view",
      "type": "function"
    },
    {
      "inputs": [],
      "name": "totalStaked",
      "outputs": [
        {
          "internalType": "uint256",
          "name": "",
          "type": "uint256"
        }
      ],
      "stateMutability": "view",
      "type": "function"
    },
    {
      "inputs": [
        {
          "internalType": "address",
          "name": "newOwner",
          "type": "address"
        }
      ],
      "name": "transferOwnership",
      "outputs": [],
      "stateMutability": "nonpayable",
      "type": "function"
    },
    {
      "inputs": [],
      "name": "unpause",
      "outputs": [],
      "stateMutability": "nonpayable",
      "type": "function"
    },
    {
      "inputs": [
        {
          "internalType": "uint256",
          "name": "stakeId",
          "type": "uint256"
        }
      ],
      "name": "unstake",
      "outputs": [],
      "stateMutability": "nonpayable",
      "type": "function"
    },
    {
      "inputs": [
        {
          "internalType": "uint256",
          "name": "_cooldownPeriod",
          "type": "uint256"
        }
      ],
      "name": "updateCooldownPeriod",
      "outputs": [],
      "stateMutability": "nonpayable",
      "type": "function"
    },
    {
      "inputs": [
        {
          "internalType": "uint256",
          "name": "_maxCap",
          "type": "uint256"
        }
      ],
      "name": "updateMaxCap",
      "outputs": [],
      "stateMutability": "nonpayable",
      "type": "function"
    },
    {
      "inputs": [
        {
          "internalType": "uint256",
          "name": "_minCap",
          "type": "uint256"
        }
      ],
      "name": "updateMinCap",
      "outputs": [],
      "stateMutability": "nonpayable",
      "type": "function"
    },
    {
      "inputs": [
        {
          "internalType": "uint256",
          "name": "_monthlyIncreasePercentage",
          "type": "uint256"
        }
      ],
      "name": "updateMonthlyIncreasePercentage",
      "outputs": [],
      "stateMutability": "nonpayable",
      "type": "function"
    },
    {
      "inputs": [
        {
          "internalType": "uint256",
          "name": "_stakingDuration",
          "type": "uint256"
        }
      ],
      "name": "updateStakingDuration",
      "outputs": [],
      "stateMutability": "nonpayable",
      "type": "function"
    },
    {
      "inputs": [
        {
          "internalType": "uint256",
          "name": "_startingSlashingPoint",
          "type": "uint256"
        }
      ],
      "name": "updateStartingSlashingPoint",
      "outputs": [],
      "stateMutability": "nonpayable",
      "type": "function"
    },
    {
      "inputs": [
        {
          "internalType": "uint256",
          "name": "_yieldConstant",
          "type": "uint256"
        }
      ],
      "name": "updateYieldConstant",
      "outputs": [],
      "stateMutability": "nonpayable",
      "type": "function"
    },
    {
      "inputs": [
        {
          "internalType": "address",
          "name": "",
          "type": "address"
        }
      ],
      "name": "userStakeCounter",
      "outputs": [
        {
          "internalType": "uint256",
          "name": "",
          "type": "uint256"
        }
      ],
      "stateMutability": "view",
      "type": "function"
    },
    {
      "inputs": [
        {
          "internalType": "address",
          "name": "",
          "type": "address"
        },
        {
          "internalType": "uint256",
          "name": "",
          "type": "uint256"
        }
      ],
      "name": "userStakes",
      "outputs": [
        {
          "internalType": "uint256",
          "name": "amount",
          "type": "uint256"
        },
        {
          "internalType": "uint32",
          "name": "startTime",
          "type": "uint32"
        },
        {
          "internalType": "uint32",
          "name": "stakingDuration",
          "type": "uint32"
        },
        {
          "internalType": "uint32",
          "name": "requestUnstakeTime",
          "type": "uint32"
        },
        {
          "internalType": "bool",
          "name": "unstakeRequested",
          "type": "bool"
        },
        {
          "internalType": "uint256",
          "name": "yieldConstant",
          "type": "uint256"
        },
        {
          "internalType": "uint256",
          "name": "monthlyIncreasePercentage",
          "type": "uint256"
        },
        {
          "internalType": "uint256",
          "name": "startingSlashingPoint",
          "type": "uint256"
        }
      ],
      "stateMutability": "view",
      "type": "function"
    },
    {
      "inputs": [],
      "name": "whitelistEnabled",
      "outputs": [
        {
          "internalType": "bool",
          "name": "",
          "type": "bool"
        }
      ],
      "stateMutability": "view",
      "type": "function"
    },
    {
      "inputs": [
        {
          "internalType": "address",
          "name": "",
          "type": "address"
        }
      ],
      "name": "whitelistedAddresses",
      "outputs": [
        {
          "internalType": "bool",
          "name": "",
          "type": "bool"
        }
      ],
      "stateMutability": "view",
      "type": "function"
    },
    {
      "inputs": [
        {
          "internalType": "uint256",
          "name": "_amount",
          "type": "uint256"
        }
      ],
      "name": "withdrawRewardTokens",
      "outputs": [],
      "stateMutability": "nonpayable",
      "type": "function"
    },
    {
      "inputs": [],
      "name": "yieldConstant",
      "outputs": [
        {
          "internalType": "uint256",
          "name": "",
          "type": "uint256"
        }
      ],
      "stateMutability": "view",
      "type": "function"
    }
  ],
  "bytecode": "0x608060405234801561001057600080fd5b50611e6a806100206000396000f3fe608060405234801561001057600080fd5b506004361061027f5760003560e01c8063757130791161015c578063b3c55721116100ce578063e43252d711610087578063e43252d7146105f6578063e6d2486614610609578063e81ba0801461061c578063ec1371f21461062f578063eded3fda14610638578063f2fde38b1461064057600080fd5b8063b3c55721146104f5578063b5d5b5fa14610508578063bcaabf6c146105c0578063cb43b2dd146105d3578063cdfb2b4e146105e6578063d6b0f484146105ee57600080fd5b80638456cb59116101205780638456cb5914610471578063861f6bfd146104795780638ab1d6811461048c5780638da5cb5b1461049f578063a2efa637146104cf578063a694fc3a146104e257600080fd5b806375713079146104235780637a65cd0b146104365780638005a7de1461043f578063817b1cd214610448578063842e29811461045157600080fd5b80633b42ffcf116101f55780635b1d7086116101b95780635b1d7086146103b35780635c975abb146103c657806366666aa9146103de5780636f629512146103e7578063715018a6146103f057806372f702f3146103f857600080fd5b80633b42ffcf146103625780633f4ba83a146103755780633fa615b01461037d57806351fb012d146103865780635678b0241461039357600080fd5b80632319b256116102475780632319b2561461030457806323548b8b1461031757806329161479146103205780632e17de781461032957806336c1105a1461033c578063379607f51461034f57600080fd5b806304646a491461028457806306c933d8146102a05780630b7ead4a146102d357806316c621e0146102dc57806322e76837146102f1575b600080fd5b61028d60055481565b6040519081526020015b60405180910390f35b6102c36102ae366004611a5e565b600f6020526000908152604090205460ff1681565b6040519015158152602001610297565b61028d60075481565b6102ef6102ea366004611a79565b610653565b005b61028d6102ff366004611a92565b6106e4565b61028d610312366004611ad5565b61076a565b61028d60035481565b61028d60085481565b6102ef610337366004611a79565b6107f6565b6102ef61034a366004611a79565b61092b565b6102ef61035d366004611a79565b610938565b61028d610370366004611a5e565b6109c5565b6102ef610a22565b61028d60025481565b6009546102c39060ff1681565b61028d6103a1366004611a5e565b600e6020526000908152604090205481565b6102ef6103c1366004611a79565b610a34565b600080516020611df58339815191525460ff166102c3565b61028d600b5481565b61028d60065481565b6102ef610a54565b60005461040b906001600160a01b031681565b6040516001600160a01b039091168152602001610297565b61028d610431366004611b01565b610a66565b61028d60045481565b61028d60015481565b61028d600a5481565b61046461045f366004611a5e565b610aa9565b6040516102979190611b33565b6102ef610c20565b6102ef610487366004611a79565b610c30565b6102ef61049a366004611a5e565b610c3d565b7f9016d09d72d40fdae2fd8ceac6b6234c7706214fd39c1cd1e609a0528c199300546001600160a01b031661040b565b6102ef6104dd366004611bdd565b610c94565b6102ef6104f0366004611a79565b610e4d565b6102ef610503366004611a79565b6111a3565b610577610516366004611c75565b600d60209081526000928352604080842090915290825290208054600182015460028301546003840154600490940154929363ffffffff808416946401000000008504821694600160401b810490921693600160601b90920460ff16929088565b6040805198895263ffffffff97881660208a0152958716958801959095529490921660608601521515608085015260a084015260c083019190915260e082015261010001610297565b6102ef6105ce366004611a79565b6111b0565b6102ef6105e1366004611a79565b6111bd565b6102ef611276565b6102ef61128d565b6102ef610604366004611a5e565b6112a1565b6102ef610617366004611a79565b611300565b6102ef61062a366004611a79565b61130d565b61028d600c5481565b600c5461028d565b6102ef61064e366004611a5e565b61131a565b61065b61135a565b8060000361067c576040516330d6375d60e11b815260040160405180910390fd5b80600b600082825461068e9190611cb5565b90915550506000546106ab906001600160a01b03163330846113b5565b60405181815233907fe1fffcc4923d04b559f4d29a8bfc6cda04eb5b0d3c460751c2402c5c5cc9109c906020015b60405180910390a250565b6000806106f287878561076a565b9050600061070288878787610a66565b90506000670de0b6b3a7640000610719848c611cc8565b6107239190611cf5565b90506000670de0b6b3a764000061073a8484611cc8565b6107449190611cf5565b905080610751838d611cb5565b61075b9190611d09565b9b9a5050505050505050505050565b60008184106107855761077e836090611cc8565b90506107ef565b600082856006546107969190611cc8565b6107a890670de0b6b3a7640000611cc8565b6107b29190611cf5565b905060006ec097ce7bc90715b34b9f1000000000826107d18188611cc8565b6107db9190611cc8565b6107e59190611cf5565b92506107ef915050565b9392505050565b6107fe611422565b336000908152600d602090815260408083208484529091528120805490910361083a57604051631704edbb60e01b815260040160405180910390fd5b6001810154600160601b900460ff161561086757604051634b8cc7d360e11b815260040160405180910390fd5b60018101546108869063ffffffff640100000000820481169116611d1c565b63ffffffff1642101561090557600181018054600160601b6cffffffffff000000000000000019909116600160401b4263ffffffff160260ff60601b191617179055805460405190815233907f828764c21e74c28710e19919735825aba966621c95cbd913f8ed65a2d298f48c9060200160405180910390a250610911565b61090f338361145a565b505b6109286001600080516020611e1583398151915255565b50565b61093361135a565b600455565b610940611422565b336000908152600d6020908152604080832084845290915290206001810154600160601b900460ff166109865760405163777c843f60e11b815260040160405180910390fd5b60055460018201546109a59190600160401b900463ffffffff16611cb5565b421015610905576040516352c459f960e01b815260040160405180910390fd5b6001600160a01b0381166000908152600e6020908152604080832054600d9092528220829190825b82811015610a1857600081815260208390526040902054610a0e9085611cb5565b93506001016109ed565b5091949350505050565b610a2a61135a565b610a3261164a565b565b610a3c61135a565b6001819055610a4e62278d0082611cf5565b60065550565b610a5c61135a565b610a3260006116aa565b6000818510610a7757506000610aa1565b600082610a848787611cc8565b610a8e9190611cf5565b610a989085611d09565b9150610aa19050565b949350505050565b6001600160a01b0381166000908152600e60205260408120546060918167ffffffffffffffff811115610ade57610ade611d40565b604051908082528060200260200182016040528015610b4d57816020015b604080516101008101825260008082526020808301829052928201819052606082018190526080820181905260a0820181905260c0820181905260e08201528252600019909201910181610afc5790505b50905060005b82811015610c18576001600160a01b0385166000908152600d6020908152604080832084845282529182902082516101008101845281548152600182015463ffffffff808216948301949094526401000000008104841694820194909452600160401b84049092166060830152600160601b90920460ff1615156080820152600282015460a0820152600382015460c082015260049091015460e08201528251839083908110610c0557610c05611d56565b6020908102919091010152600101610b53565b509392505050565b610c2861135a565b610a3261171b565b610c3861135a565b600555565b610c4561135a565b6001600160a01b0381166000818152600f60209081526040808320805460ff19169055519182527f8daaf060c3306c38e068a75c054bf96ecd85a3db1252712c4d93632744c42e0d91016106d9565b7ff0c57e16840df040f15088dc2f81fe391c3923bec73e23a9662efc9c229c6a008054600160401b810460ff16159067ffffffffffffffff16600081158015610cda5750825b905060008267ffffffffffffffff166001148015610cf75750303b155b905081158015610d05575080155b15610d235760405163f92ee8a960e01b815260040160405180910390fd5b845467ffffffffffffffff191660011785558315610d4d57845460ff60401b1916600160401b1785555b610d5633611764565b610d5e611775565b610d66611785565b610d6f8f61131a565b8d6000806101000a8154816001600160a01b0302191690836001600160a01b031602179055508c600960006101000a81548160ff0219169083151502179055508b63ffffffff166001819055508a6004819055508960058190555062278d008c610dd99190611d6c565b63ffffffff1660065560078990556008889055600287905560038690558315610e3c57845460ff60401b19168555604051600181527fc7f505b2f371ae2175ee4913f4499e1f2633a7b5936321eed1cdaeb6115181d29060200160405180910390a15b505050505050505050505050505050565b610e55611422565b610e5d611795565b60095460ff168015610e7f5750336000908152600f602052604090205460ff16155b15610e9d57604051630b094f2760e31b815260040160405180910390fd5b80600003610ebe57604051631f2a200560e01b815260040160405180910390fd5b6000600254118015610ed1575060025481105b15610eef5760405163697fb45960e01b815260040160405180910390fd5b6000600354118015610f145750600354610f08336109c5565b610f129083611cb5565b115b15610f325760405163fef49f1960e01b815260040160405180910390fd5b6000600e6000336001600160a01b03166001600160a01b031681526020019081526020016000205490506040518061010001604052808381526020014263ffffffff16815260200160015463ffffffff168152602001600063ffffffff16815260200160001515815260200160045481526020016008548152602001600754815250600d6000336001600160a01b03166001600160a01b0316815260200190815260200160002060008381526020019081526020016000206000820151816000015560208201518160010160006101000a81548163ffffffff021916908363ffffffff16021790555060408201518160010160046101000a81548163ffffffff021916908363ffffffff16021790555060608201518160010160086101000a81548163ffffffff021916908363ffffffff160217905550608082015181600101600c6101000a81548160ff02191690831515021790555060a0820151816002015560c0820151816003015560e08201518160040155905050600e6000336001600160a01b03166001600160a01b03168152602001908152602001600020600081546110dc90611d8f565b9190508190555081600a60008282546110f59190611cb5565b9091555050600154600454670de0b6b3a764000091611114918161076a565b61111e9084611cc8565b6111289190611cf5565b600c60008282546111399190611cb5565b9091555050600054611156906001600160a01b03163330856113b5565b60405182815233907f9e71bc8eea02a63969f509818f2dafb9254532904319f9dbda79b67bd34a5f3d9060200160405180910390a2506109286001600080516020611e1583398151915255565b6111ab61135a565b600855565b6111b861135a565b600255565b6111c561135a565b806000036111e657604051631f2a200560e01b815260040160405180910390fd5b80600c54600b546111f79190611d09565b101561121657604051633270436b60e01b815260040160405180910390fd5b80600b60008282546112289190611d09565b9091555050600054611244906001600160a01b031633836117c6565b60405181815233907f884edad9ce6fa2440d8a54cc123490eb96d2768479d49ff9c7366125a9424364906020016106d9565b61127e61135a565b6009805460ff19166001179055565b61129561135a565b6009805460ff19169055565b6112a961135a565b6001600160a01b0381166000818152600f6020908152604091829020805460ff1916600190811790915591519182527f8daaf060c3306c38e068a75c054bf96ecd85a3db1252712c4d93632744c42e0d91016106d9565b61130861135a565b600755565b61131561135a565b600355565b61132261135a565b6001600160a01b03811661135157604051631e4fbdf760e01b8152600060048201526024015b60405180910390fd5b610928816116aa565b3361138c7f9016d09d72d40fdae2fd8ceac6b6234c7706214fd39c1cd1e609a0528c199300546001600160a01b031690565b6001600160a01b031614610a325760405163118cdaa760e01b8152336004820152602401611348565b6040516001600160a01b03848116602483015283811660448301526064820183905261141c9186918216906323b872dd906084015b604051602081830303815290604052915060e01b6020820180516001600160e01b0383818316178352505050506117fc565b50505050565b600080516020611e1583398151915280546001190161145457604051633ee5aeb560e01b815260040160405180910390fd5b60029055565b6001600160a01b0382166000908152600d60209081526040808320848452909152812080546001820154919290916114c590839061149e9063ffffffff1642611d09565b6002860154600387015460048801546001890154640100000000900463ffffffff166106e4565b905060006114d38383611d09565b905082600a60008282546114e79190611d09565b9250508190555080600b60008282546115009190611d09565b9250508190555080600c60008282546115199190611d09565b90915550506001600160a01b038087166000908152600d6020908152604080832089845290915281208181556001810180546cffffffffffffffffffffffffff1916905560028101829055600381018290556004018190555461157e911687846117c6565b856001600160a01b03167f7084f5476618d8e60b11ef0d7d3f06914655adb8793e28ff7f018d4c76d505d5836040516115b991815260200190565b60405180910390a2856001600160a01b03167fe2403640ba68fed3a2f88b7557551d1993f84b99bb10ff833f0cf8db0c5e0486826040516115fc91815260200190565b60405180910390a261160d866109c5565b60000361162e576001600160a01b0386166000908152600e60205260408120555b505050505050565b6001600080516020611e1583398151915255565b61165261185f565b600080516020611df5833981519152805460ff191681557f5db9ee0a495bf2e6ff9c91a7834c1ba4fdd244a5e8aa4e537bd38aeae4b073aa335b6040516001600160a01b03909116815260200160405180910390a150565b7f9016d09d72d40fdae2fd8ceac6b6234c7706214fd39c1cd1e609a0528c19930080546001600160a01b031981166001600160a01b03848116918217845560405192169182907f8be0079c531659141344cd1fd0a4f28419497f9722a3daafe3b4186f6b6457e090600090a3505050565b611723611795565b600080516020611df5833981519152805460ff191660011781557f62e78cea01bee320cd4e420270b5ea74000d11b0c9f74754ebdbfc544b05a2583361168c565b61176c61188f565b610928816118d8565b61177d61188f565b610a326118e0565b61178d61188f565b610a32611901565b600080516020611df58339815191525460ff1615610a325760405163d93c066560e01b815260040160405180910390fd5b6040516001600160a01b038381166024830152604482018390526117f791859182169063a9059cbb906064016113ea565b505050565b60006118116001600160a01b03841683611909565b905080516000141580156118365750808060200190518101906118349190611da8565b155b156117f757604051635274afe760e01b81526001600160a01b0384166004820152602401611348565b600080516020611df58339815191525460ff16610a3257604051638dfc202b60e01b815260040160405180910390fd5b7ff0c57e16840df040f15088dc2f81fe391c3923bec73e23a9662efc9c229c6a0054600160401b900460ff16610a3257604051631afcd79f60e31b815260040160405180910390fd5b61132261188f565b6118e861188f565b600080516020611df5833981519152805460ff19169055565b61163661188f565b606061191783836000611920565b90505b92915050565b6060814710156119455760405163cd78605960e01b8152306004820152602401611348565b600080856001600160a01b031684866040516119619190611dc5565b60006040518083038185875af1925050503d806000811461199e576040519150601f19603f3d011682016040523d82523d6000602084013e6119a3565b606091505b50915091506119b38683836119bd565b9695505050505050565b6060826119d2576119cd82611a19565b6107ef565b81511580156119e957506001600160a01b0384163b155b15611a1257604051639996b31560e01b81526001600160a01b0385166004820152602401611348565b50806107ef565b805115611a295780518082602001fd5b604051630a12f52160e11b815260040160405180910390fd5b80356001600160a01b0381168114611a5957600080fd5b919050565b600060208284031215611a7057600080fd5b61191782611a42565b600060208284031215611a8b57600080fd5b5035919050565b60008060008060008060c08789031215611aab57600080fd5b505084359660208601359650604086013595606081013595506080810135945060a0013592509050565b600080600060608486031215611aea57600080fd5b505081359360208301359350604090920135919050565b60008060008060808587031215611b1757600080fd5b5050823594602084013594506040840135936060013592509050565b602080825282518282018190526000919060409081850190868401855b82811015611bc2578151805185528681015163ffffffff90811688870152868201518116878701526060808301519091169086015260808082015115159086015260a0808201519086015260c0808201519086015260e090810151908501526101009093019290850190600101611b50565b5091979650505050505050565b801515811461092857600080fd5b6000806000806000806000806000806101408b8d031215611bfd57600080fd5b611c068b611a42565b9950611c1460208c01611a42565b985060408b0135611c2481611bcf565b975060608b013563ffffffff81168114611c3d57600080fd5b999c989b50969960808101359860a0820135985060c0820135975060e082013596506101008201359550610120909101359350915050565b60008060408385031215611c8857600080fd5b611c9183611a42565b946020939093013593505050565b634e487b7160e01b600052601160045260246000fd5b8082018082111561191a5761191a611c9f565b808202811582820484141761191a5761191a611c9f565b634e487b7160e01b600052601260045260246000fd5b600082611d0457611d04611cdf565b500490565b8181038181111561191a5761191a611c9f565b63ffffffff818116838216019080821115611d3957611d39611c9f565b5092915050565b634e487b7160e01b600052604160045260246000fd5b634e487b7160e01b600052603260045260246000fd5b600063ffffffff80841680611d8357611d83611cdf565b92169190910492915050565b600060018201611da157611da1611c9f565b5060010190565b600060208284031215611dba57600080fd5b81516107ef81611bcf565b6000825160005b81811015611de65760208186018101518583015201611dcc565b50600092019182525091905056fecd5ed15c6e187e77e9aee88184c21f4f2182ab5827cb3b7e07fbedcd63f033009b779b17422d0df92223018b32b4d1fa46e071723d6817e2486d003becc55f00a26469706673582212207f200dbed228fff29e95e2d404cbcec0ef5d1378660143aa509d1ef9f9419bb864736f6c63430008140033",
  "linkReferences": {},
  "deployedLinkReferences": {}
}