{"contracts/Staking.sol":{"Staking":{"abi":[{"inputs":[{"internalType":"address","name":"target","type":"address"}],"name":"AddressEmptyCode","type":"error"},{"inputs":[{"internalType":"address","name":"account","type":"address"}],"name":"AddressInsufficientBalance","type":"error"},{"inputs":[],"name":"AmountBelowMinCap","type":"error"},{"inputs":[],"name":"AmountExceedsMaxCap","type":"error"},{"inputs":[],"name":"CannotDepositZero","type":"error"},{"inputs":[],"name":"CooldownPeriodNotOver","type":"error"},{"inputs":[],"name":"EnforcedPause","type":"error"},{"inputs":[],"name":"ExpectedPause","type":"error"},{"inputs":[],"name":"FailedInnerCall","type":"error"},{"inputs":[],"name":"InsufficientRewardPool","type":"error"},{"inputs":[],"name":"InvalidInitialization","type":"error"},{"inputs":[],"name":"NoStakedAmount","type":"error"},{"inputs":[],"name":"NotInitializing","type":"error"},{"inputs":[],"name":"NotWhitelisted","type":"error"},{"inputs":[{"internalType":"address","name":"owner","type":"address"}],"name":"OwnableInvalidOwner","type":"error"},{"inputs":[{"internalType":"address","name":"account","type":"address"}],"name":"OwnableUnauthorizedAccount","type":"error"},{"inputs":[],"name":"ReentrancyGuardReentrantCall","type":"error"},{"inputs":[{"internalType":"address","name":"token","type":"address"}],"name":"SafeERC20FailedOperation","type":"error"},{"inputs":[],"name":"UnstakeAlreadyRequested","type":"error"},{"inputs":[],"name":"UnstakeNotRequested","type":"error"},{"inputs":[],"name":"ZeroAmount","type":"error"},{"anonymous":false,"inputs":[{"indexed":true,"internalType":"address","name":"owner","type":"address"},{"indexed":false,"internalType":"uint256","name":"amount","type":"uint256"}],"name":"Deposit","type":"event"},{"anonymous":false,"inputs":[{"indexed":false,"internalType":"uint64","name":"version","type":"uint64"}],"name":"Initialized","type":"event"},{"anonymous":false,"inputs":[{"indexed":true,"internalType":"address","name":"previousOwner","type":"address"},{"indexed":true,"internalType":"address","name":"newOwner","type":"address"}],"name":"OwnershipTransferred","type":"event"},{"anonymous":false,"inputs":[{"indexed":false,"internalType":"address","name":"account","type":"address"}],"name":"Paused","type":"event"},{"anonymous":false,"inputs":[{"indexed":true,"internalType":"address","name":"user","type":"address"},{"indexed":false,"internalType":"uint256","name":"reward","type":"uint256"}],"name":"RewardPaid","type":"event"},{"anonymous":false,"inputs":[{"indexed":true,"internalType":"address","name":"user","type":"address"},{"indexed":false,"internalType":"uint256","name":"amount","type":"uint256"}],"name":"Staked","type":"event"},{"anonymous":false,"inputs":[{"indexed":false,"internalType":"address","name":"account","type":"address"}],"name":"Unpaused","type":"event"},{"anonymous":false,"inputs":[{"indexed":true,"internalType":"address","name":"user","type":"address"},{"indexed":false,"internalType":"uint256","name":"amount","type":"uint256"}],"name":"UnstakeRequested","type":"event"},{"anonymous":false,"inputs":[{"indexed":true,"internalType":"address","name":"user","type":"address"},{"indexed":false,"internalType":"bool","name":"status","type":"bool"}],"name":"WhitelistStatusChanged","type":"event"},{"anonymous":false,"inputs":[{"indexed":true,"internalType":"address","name":"owner","type":"address"},{"indexed":false,"internalType":"uint256","name":"amount","type":"uint256"}],"name":"Withdraw","type":"event"},{"anonymous":false,"inputs":[{"indexed":true,"internalType":"address","name":"user","type":"address"},{"indexed":false,"internalType":"uint256","name":"amount","type":"uint256"}],"name":"Withdrawn","type":"event"},{"inputs":[{"internalType":"address","name":"_address","type":"address"}],"name":"addToWhitelist","outputs":[],"stateMutability":"nonpayable","type":"function"},{"inputs":[{"internalType":"uint256","name":"timeStaked","type":"uint256"},{"internalType":"uint256","name":"_monthlyIncreasePercentage","type":"uint256"},{"internalType":"uint256","name":"_startingSlashingPoint","type":"uint256"},{"internalType":"uint256","name":"_stakingDuration","type":"uint256"}],"name":"calculateTax","outputs":[{"internalType":"uint256","name":"","type":"uint256"}],"stateMutability":"pure","type":"function"},{"inputs":[{"internalType":"uint256","name":"_amount","type":"uint256"},{"internalType":"uint256","name":"timeStaked","type":"uint256"},{"internalType":"uint256","name":"_yieldConstant","type":"uint256"},{"internalType":"uint256","name":"_monthlyIncreasePercentage","type":"uint256"},{"internalType":"uint256","name":"_startingSlashingPoint","type":"uint256"},{"internalType":"uint256","name":"_stakingDuration","type":"uint256"}],"name":"calculateTotalWithdraw","outputs":[{"internalType":"uint256","name":"","type":"uint256"}],"stateMutability":"view","type":"function"},{"inputs":[{"internalType":"uint256","name":"timeStaked","type":"uint256"},{"internalType":"uint256","name":"_yieldConstant","type":"uint256"},{"internalType":"uint256","name":"_stakingDuration","type":"uint256"}],"name":"calculateYield","outputs":[{"internalType":"uint256","name":"","type":"uint256"}],"stateMutability":"view","type":"function"},{"inputs":[{"internalType":"uint256","name":"stakeId","type":"uint256"}],"name":"claim","outputs":[],"stateMutability":"nonpayable","type":"function"},{"inputs":[],"name":"cooldownPeriod","outputs":[{"internalType":"uint256","name":"","type":"uint256"}],"stateMutability":"view","type":"function"},{"inputs":[{"internalType":"uint256","name":"_amount","type":"uint256"}],"name":"depositRewardTokens","outputs":[],"stateMutability":"nonpayable","type":"function"},{"inputs":[],"name":"disableWhitelist","outputs":[],"stateMutability":"nonpayable","type":"function"},{"inputs":[],"name":"enableWhitelist","outputs":[],"stateMutability":"nonpayable","type":"function"},{"inputs":[{"internalType":"address","name":"user","type":"address"}],"name":"getTotalStakedForUser","outputs":[{"internalType":"uint256","name":"","type":"uint256"}],"stateMutability":"view","type":"function"},{"inputs":[{"internalType":"address","name":"_owner","type":"address"},{"internalType":"address","name":"_stakingToken","type":"address"},{"internalType":"uint32","name":"_stakingDuration","type":"uint32"},{"internalType":"uint256","name":"_yieldConstant","type":"uint256"},{"internalType":"uint256","name":"_cooldownPeriod","type":"uint256"},{"internalType":"uint256","name":"_startingSlashingPoint","type":"uint256"},{"internalType":"uint256","name":"_monthlyIncreasePercentage","type":"uint256"},{"internalType":"uint256","name":"_minCap","type":"uint256"},{"internalType":"uint256","name":"_maxCap","type":"uint256"},{"internalType":"bool","name":"_whitelistEnabled","type":"bool"}],"name":"initialize","outputs":[],"stateMutability":"nonpayable","type":"function"},{"inputs":[],"name":"maxCap","outputs":[{"internalType":"uint256","name":"","type":"uint256"}],"stateMutability":"view","type":"function"},{"inputs":[],"name":"minCap","outputs":[{"internalType":"uint256","name":"","type":"uint256"}],"stateMutability":"view","type":"function"},{"inputs":[],"name":"monthlyIncreasePercentage","outputs":[{"internalType":"uint256","name":"","type":"uint256"}],"stateMutability":"view","type":"function"},{"inputs":[],"name":"monthsInStakingPeriod","outputs":[{"internalType":"uint256","name":"","type":"uint256"}],"stateMutability":"view","type":"function"},{"inputs":[],"name":"owner","outputs":[{"internalType":"address","name":"","type":"address"}],"stateMutability":"view","type":"function"},{"inputs":[],"name":"pause","outputs":[],"stateMutability":"nonpayable","type":"function"},{"inputs":[],"name":"paused","outputs":[{"internalType":"bool","name":"","type":"bool"}],"stateMutability":"view","type":"function"},{"inputs":[],"name":"pendingRewards","outputs":[{"internalType":"uint256","name":"","type":"uint256"}],"stateMutability":"view","type":"function"},{"inputs":[{"internalType":"address","name":"_address","type":"address"}],"name":"removeFromWhitelist","outputs":[],"stateMutability":"nonpayable","type":"function"},{"inputs":[],"name":"renounceOwnership","outputs":[],"stateMutability":"nonpayable","type":"function"},{"inputs":[],"name":"rewardPool","outputs":[{"internalType":"uint256","name":"","type":"uint256"}],"stateMutability":"view","type":"function"},{"inputs":[{"internalType":"uint256","name":"_amount","type":"uint256"}],"name":"stake","outputs":[],"stateMutability":"nonpayable","type":"function"},{"inputs":[],"name":"stakingDuration","outputs":[{"internalType":"uint256","name":"","type":"uint256"}],"stateMutability":"view","type":"function"},{"inputs":[],"name":"stakingToken","outputs":[{"internalType":"contract IERC20","name":"","type":"address"}],"stateMutability":"view","type":"function"},{"inputs":[],"name":"startingSlashingPoint","outputs":[{"internalType":"uint256","name":"","type":"uint256"}],"stateMutability":"view","type":"function"},{"inputs":[],"name":"totalStaked","outputs":[{"internalType":"uint256","name":"","type":"uint256"}],"stateMutability":"view","type":"function"},{"inputs":[{"internalType":"address","name":"newOwner","type":"address"}],"name":"transferOwnership","outputs":[],"stateMutability":"nonpayable","type":"function"},{"inputs":[],"name":"unpause","outputs":[],"stateMutability":"nonpayable","type":"function"},{"inputs":[{"internalType":"uint256","name":"stakeId","type":"uint256"}],"name":"unstake","outputs":[],"stateMutability":"nonpayable","type":"function"},{"inputs":[{"internalType":"uint256","name":"_cooldownPeriod","type":"uint256"}],"name":"updateCooldownPeriod","outputs":[],"stateMutability":"nonpayable","type":"function"},{"inputs":[{"internalType":"uint256","name":"_maxCap","type":"uint256"}],"name":"updateMaxCap","outputs":[],"stateMutability":"nonpayable","type":"function"},{"inputs":[{"internalType":"uint256","name":"_minCap","type":"uint256"}],"name":"updateMinCap","outputs":[],"stateMutability":"nonpayable","type":"function"},{"inputs":[{"internalType":"uint256","name":"_monthlyIncreasePercentage","type":"uint256"}],"name":"updateMonthlyIncreasePercentage","outputs":[],"stateMutability":"nonpayable","type":"function"},{"inputs":[{"internalType":"uint256","name":"_stakingDuration","type":"uint256"}],"name":"updateStakingDuration","outputs":[],"stateMutability":"nonpayable","type":"function"},{"inputs":[{"internalType":"uint256","name":"_startingSlashingPoint","type":"uint256"}],"name":"updateStartingSlashingPoint","outputs":[],"stateMutability":"nonpayable","type":"function"},{"inputs":[{"internalType":"uint256","name":"_yieldConstant","type":"uint256"}],"name":"updateYieldConstant","outputs":[],"stateMutability":"nonpayable","type":"function"},{"inputs":[{"internalType":"address","name":"","type":"address"}],"name":"userStakeCounter","outputs":[{"internalType":"uint256","name":"","type":"uint256"}],"stateMutability":"view","type":"function"},{"inputs":[{"internalType":"address","name":"","type":"address"},{"internalType":"uint256","name":"","type":"uint256"}],"name":"userStakes","outputs":[{"internalType":"uint256","name":"amount","type":"uint256"},{"internalType":"uint32","name":"startTime","type":"uint32"},{"internalType":"uint32","name":"requestUnstakeTime","type":"uint32"},{"internalType":"bool","name":"unstakeRequested","type":"bool"},{"internalType":"uint256","name":"yieldConstant","type":"uint256"},{"internalType":"uint256","name":"monthlyIncreasePercentage","type":"uint256"},{"internalType":"uint256","name":"startingSlashingPoint","type":"uint256"},{"internalType":"uint32","name":"stakingDuration","type":"uint32"}],"stateMutability":"view","type":"function"},{"inputs":[],"name":"whitelistEnabled","outputs":[{"internalType":"bool","name":"","type":"bool"}],"stateMutability":"view","type":"function"},{"inputs":[{"internalType":"address","name":"","type":"address"}],"name":"whitelistedAddresses","outputs":[{"internalType":"bool","name":"","type":"bool"}],"stateMutability":"view","type":"function"},{"inputs":[{"internalType":"uint256","name":"_amount","type":"uint256"}],"name":"withdrawRewardTokens","outputs":[],"stateMutability":"nonpayable","type":"function"},{"inputs":[],"name":"yieldConstant","outputs":[{"internalType":"uint256","name":"","type":"uint256"}],"stateMutability":"view","type":"function"}],"evm":{"bytecode":{"linkReferences":{},"object":"608060405234801561001057600080fd5b506144fd806100206000396000f3fe608060405234801561001057600080fd5b50600436106102695760003560e01c8063715018a611610151578063b3c55721116100c3578063d6b0f48411610087578063d6b0f484146106e1578063e43252d7146106eb578063e6d2486614610707578063e81ba08014610723578063eded3fda1461073f578063f2fde38b1461075d57610269565b8063b3c557211461064c578063b5d5b5fa14610668578063bcaabf6c1461069f578063cb43b2dd146106bb578063cdfb2b4e146106d757610269565b8063817b1cd211610115578063817b1cd2146105b25780638456cb59146105d0578063861f6bfd146105da5780638ab1d681146105f65780638da5cb5b14610612578063a694fc3a1461063057610269565b8063715018a61461051e57806372f702f31461052857806375713079146105465780637a65cd0b146105765780638005a7de1461059457610269565b8063379607f5116101ea5780635678b024116101ae5780635678b0241461045c5780635b1d70861461048c5780635c975abb146104a857806366666aa9146104c65780636c03d853146104e45780636f6295121461050057610269565b8063379607f5146103ca5780633b42ffcf146103e65780633f4ba83a146104165780633fa615b01461042057806351fb012d1461043e57610269565b80632319b256116102315780632319b2561461032657806323548b8b1461035657806329161479146103745780632e17de781461039257806336c1105a146103ae57610269565b806304646a491461026e57806306c933d81461028c5780630b7ead4a146102bc57806316c621e0146102da57806322e76837146102f6575b600080fd5b610276610779565b6040516102839190613c10565b60405180910390f35b6102a660048036038101906102a19190613c8e565b61077f565b6040516102b39190613cd6565b60405180910390f35b6102c461079f565b6040516102d19190613c10565b60405180910390f35b6102f460048036038101906102ef9190613d1d565b6107a5565b005b610310600480360381019061030b9190613d4a565b6109a2565b60405161031d9190613c10565b60405180910390f35b610340600480360381019061033b9190613dd7565b610b3a565b60405161034d9190613c10565b60405180910390f35b61035e610ccd565b60405161036b9190613c10565b60405180910390f35b61037c610cd3565b6040516103899190613c10565b60405180910390f35b6103ac60048036038101906103a79190613d1d565b610cd9565b005b6103c860048036038101906103c39190613d1d565b6110c8565b005b6103e460048036038101906103df9190613d1d565b61112a565b005b61040060048036038101906103fb9190613c8e565b611399565b60405161040d9190613c10565b60405180910390f35b61041e611581565b005b6104286115f7565b6040516104359190613c10565b60405180910390f35b6104466115fd565b6040516104539190613cd6565b60405180910390f35b61047660048036038101906104719190613c8e565b611610565b6040516104839190613c10565b60405180910390f35b6104a660048036038101906104a19190613d1d565b611628565b005b6104b06116b3565b6040516104bd9190613cd6565b60405180910390f35b6104ce6116d8565b6040516104db9190613c10565b60405180910390f35b6104fe60048036038101906104f99190613e92565b61171e565b005b610508611b1f565b6040516105159190613c10565b60405180910390f35b610526611b25565b005b610530611b39565b60405161053d9190613fd0565b60405180910390f35b610560600480360381019061055b9190613feb565b611b5d565b60405161056d9190613c10565b60405180910390f35b61057e611c7e565b60405161058b9190613c10565b60405180910390f35b61059c611c84565b6040516105a99190613c10565b60405180910390f35b6105ba611c8a565b6040516105c79190613c10565b60405180910390f35b6105d8611cd0565b005b6105f460048036038101906105ef9190613d1d565b611d46565b005b610610600480360381019061060b9190613c8e565b611da8565b005b61061a611ed2565b6040516106279190614061565b60405180910390f35b61064a60048036038101906106459190613d1d565b611f0a565b005b61066660048036038101906106619190613d1d565b6126ac565b005b610682600480360381019061067d919061407c565b61270e565b6040516106969897969594939291906140cb565b60405180910390f35b6106b960048036038101906106b49190613d1d565b6127a0565b005b6106d560048036038101906106d09190613d1d565b612802565b005b6106df612aaa565b005b6106e9612b1f565b005b61070560048036038101906107009190613c8e565b612b94565b005b610721600480360381019061071c9190613d1d565b612cbe565b005b61073d60048036038101906107389190613d1d565b612d20565b005b610747612d82565b6040516107549190613c10565b60405180910390f35b61077760048036038101906107729190613c8e565b612dc8565b005b60055481565b600c6020528060005260406000206000915054906101000a900460ff1681565b60075481565b6107b967784d1203cac2db3660c01b612e4e565b6107c1612e51565b6107d567cc7f46c4c4f181c560c01b612e4e565b6107e967371e6d56b832698160c01b612e4e565b6107fd672e31e54c0ede5a3860c01b612e4e565b61081167f9703c94a5a19bd460c01b612e4e565b600081036108735761082d679e220b7e5f7608a560c01b612e4e565b61084167fe7caa985572d08f60c01b612e4e565b6040517f61ac6eba00000000000000000000000000000000000000000000000000000000815260040160405180910390fd5b61088767ccd960eba84e13dd60c01b612e4e565b61089b678605a2b21344c35760c01b612e4e565b80600e60008282546108ad9190614178565b925050819055506108c8672acfe9baee32783060c01b612e4e565b6108dc672e0b79933dc999ef60c01b612e4e565b61092933308360008054906101000a900473ffffffffffffffffffffffffffffffffffffffff1673ffffffffffffffffffffffffffffffffffffffff16612ed8909392919063ffffffff16565b61093d67bba26dbe923896e060c01b612e4e565b610951677f25a147d236dd8b60c01b612e4e565b3373ffffffffffffffffffffffffffffffffffffffff167fe1fffcc4923d04b559f4d29a8bfc6cda04eb5b0d3c460751c2402c5c5cc9109c826040516109979190613c10565b60405180910390a250565b60006109b86771dc132d31e4a02460c01b612e4e565b6109cc67a7d8e1cbbc843fb260c01b612e4e565b6109e0675fb82d64c9d3c40a60c01b612e4e565b60006109ed878785610b3a565b9050610a0367bf3e5f3fd52b5fb960c01b612e4e565b610a1767e12bd3823173100d60c01b612e4e565b6000610a2588878787611b5d565b9050610a3b67acece777c90a6bb760c01b612e4e565b610a4f67ac5b4b7a00dd959d60c01b612e4e565b6000670de0b6b3a7640000838b610a6691906141ac565b610a70919061421d565b9050610a86671d7e0721221a2ef660c01b612e4e565b610a9a676cec70fe82fb1ddb60c01b612e4e565b6000670de0b6b3a76400008383610ab191906141ac565b610abb919061421d565b9050610ad167ffbd9af4813c716760c01b612e4e565b610ae5676208b8f23c1ee9d560c01b612e4e565b600081838d610af49190614178565b610afe919061424e565b9050610b14674bc5cceccd8f3b8f60c01b612e4e565b610b2867cc0d02e223ac5f2060c01b612e4e565b80955050505050509695505050505050565b6000610b5067d3533c0d788f6f6a60c01b612e4e565b610b6467c6c49d372d30d9e060c01b612e4e565b610b78673a7cb5c767023a9a60c01b612e4e565b818410610bcf57610b9367cfb62a4e3282757460c01b612e4e565b610ba767f271e827db6e47b760c01b612e4e565b610bbb67a33c765d60246bf760c01b612e4e565b826090610bc891906141ac565b9050610cc6565b610be3675dcec27c27302b3160c01b612e4e565b610bf767996f014a15ae084b60c01b612e4e565b610c0b6709e7bdd9574ac5a060c01b612e4e565b600082670de0b6b3a764000086600654610c2591906141ac565b610c2f91906141ac565b610c39919061421d565b9050610c4f6741ae4d463ca3cf4960c01b612e4e565b610c6367581f33e234bdd4ae60c01b612e4e565b60006ec097ce7bc90715b34b9f1000000000828387610c8291906141ac565b610c8c91906141ac565b610c96919061421d565b9050610cac67d425252e50b3a3f360c01b612e4e565b610cc06737dc5191926dd1c460c01b612e4e565b80925050505b9392505050565b60035481565b60085481565b610ced679f9dd50f21c5fd0d60c01b612e4e565b610cf5612f5a565b610d0967fd57a7b99f8b2e3660c01b612e4e565b610d1d67b84e9aa335ce692f60c01b612e4e565b610d3167643e5d7d7447c52e60c01b612e4e565b610d4567adb190546928ee1660c01b612e4e565b6000600a60003373ffffffffffffffffffffffffffffffffffffffff1673ffffffffffffffffffffffffffffffffffffffff16815260200190815260200160002060008381526020019081526020016000209050610dad672922c653a4a340b360c01b612e4e565b610dc167d184a05ff8d412c260c01b612e4e565b6000816000015403610e2757610de1678c87d943f50f0ea060c01b612e4e565b610df5671b9f806e16ed2dfe60c01b612e4e565b6040517f1704edbb00000000000000000000000000000000000000000000000000000000815260040160405180910390fd5b610e3b670a6ce197fd362be560c01b612e4e565b610e4f67a2d347acc59c444460c01b612e4e565b610e636753e847d7bd96fb0a60c01b612e4e565b8060010160089054906101000a900460ff1615610ed457610e8e67620b6b7ab778e1c160c01b612e4e565b610ea2678fee3335ff2e0b9b60c01b612e4e565b6040517f97198fa600000000000000000000000000000000000000000000000000000000815260040160405180910390fd5b610ee86754aa019b0b7726c060c01b612e4e565b610efc67aa9caf93c30c72b560c01b612e4e565b610f10674f8a33545e20206760c01b612e4e565b8060050160009054906101000a900463ffffffff168160010160009054906101000a900463ffffffff16610f449190614282565b63ffffffff1642101561107557610f6567590b3f7a3bc5921c60c01b612e4e565b610f7967a3e6edf88816448660c01b612e4e565b428160010160046101000a81548163ffffffff021916908363ffffffff160217905550610fb0679e4524b9be704de560c01b612e4e565b60018160010160086101000a81548160ff021916908315150217905550610fe167c4f56e8613b194e060c01b612e4e565b610ff56754804a0568a2420260c01b612e4e565b3373ffffffffffffffffffffffffffffffffffffffff167f828764c21e74c28710e19919735825aba966621c95cbd913f8ed65a2d298f48c826000015460405161103f9190613c10565b60405180910390a261105b676e16e72f0dbdd4b560c01b612e4e565b61106f67dd933d62ff016ab160c01b612e4e565b506110bd565b611089677498668cc086bac760c01b612e4e565b61109d670d3f42b09f60edb460c01b612e4e565b6110b1678e6e738bbc198ffd60c01b612e4e565b6110bb3383612fb1565b505b6110c56134ba565b50565b6110dc677f67747fe9649bfc60c01b612e4e565b6110e4612e51565b6110f8673480222e95cd931460c01b612e4e565b61110c67083253e7eeb4871660c01b612e4e565b61112067e3a78cbb3367ccd360c01b612e4e565b8060048190555050565b61113e67381a47963f4196e260c01b612e4e565b611146612f5a565b61115a67e0fb84e301b0ae2360c01b612e4e565b61116e67b041837b5a59603260c01b612e4e565b611182673e55ad110582c77f60c01b612e4e565b611196677ba4ae178d37156a60c01b612e4e565b6000600a60003373ffffffffffffffffffffffffffffffffffffffff1673ffffffffffffffffffffffffffffffffffffffff168152602001908152602001600020600083815260200190815260200160002090506111fe678144859e4d3a8ac560c01b612e4e565b61121267349af0497e5cd30960c01b612e4e565b8060010160089054906101000a900460ff166112825761123c6772e2c3ab76c2791260c01b612e4e565b6112506759dc52ab502d38a660c01b612e4e565b6040517feef9087e00000000000000000000000000000000000000000000000000000000815260040160405180910390fd5b61129667ca6584c7888c164d60c01b612e4e565b6112aa67a1e736bc245d3cdd60c01b612e4e565b6112be67e3cb2e0aefc2586d60c01b612e4e565b6005548160010160049054906101000a900463ffffffff1663ffffffff166112e69190614178565b42101561134757611301676ea687de1f12a41960c01b612e4e565b61131567ddd5898ba213b35c60c01b612e4e565b6040517f52c459f900000000000000000000000000000000000000000000000000000000815260040160405180910390fd5b61135b675e39b76e14f5756d60c01b612e4e565b61136f67f44116102ebc396160c01b612e4e565b61138367c9b71c608995ffbe60c01b612e4e565b61138d3383612fb1565b506113966134ba565b50565b60006113af67123994520a536f7460c01b612e4e565b6113c3670e87df8cf5a599db60c01b612e4e565b6113d767741443532edb1eb860c01b612e4e565b60006113ed672f1ce3e6bdd918f560c01b612e4e565b6114016784774c26c185f3ae60c01b612e4e565b6000600b60008573ffffffffffffffffffffffffffffffffffffffff1673ffffffffffffffffffffffffffffffffffffffff16815260200190815260200160002054905061145967049dbdc851abae9c60c01b612e4e565b61146d6711882ea6e4480d8260c01b612e4e565b6000600a60008673ffffffffffffffffffffffffffffffffffffffff1673ffffffffffffffffffffffffffffffffffffffff16815260200190815260200160002090506114c467f8bd99134d01f18660c01b612e4e565b6114d86711a3ede05fa591c760c01b612e4e565b60005b8281101561154d576114f767c0c387b51ba34f2f60c01b612e4e565b81600082815260200190815260200160002060000154846115189190614178565b935061152e674dfd9bc22d76ea0060c01b612e4e565b6115426735b59734924ad54560c01b612e4e565b8060010190506114db565b5061156267be94acd0a59694e060c01b612e4e565b61157667ae17314496791d9160c01b612e4e565b829350505050919050565b61159567fea109b9d854cf2360c01b612e4e565b61159d612e51565b6115b167866d38108901faa260c01b612e4e565b6115c567c2c2d7a6965ac21e60c01b612e4e565b6115d967b192ace7b1c65e0260c01b612e4e565b6115ed67a96db3ee52d0ef3360c01b612e4e565b6115f56134d3565b565b60025481565b600960009054906101000a900460ff1681565b600b6020528060005260406000206000915090505481565b61163c67df9604badd6d347c60c01b612e4e565b611644612e51565b61165867ab3da2390a7217ce60c01b612e4e565b61166c67a1a78941d50068b960c01b612e4e565b61168067eb639fa9a95dbcc260c01b612e4e565b8060018190555061169b67ae483f284c5c667060c01b612e4e565b62278d00816116aa919061421d565b60068190555050565b6000806116be613545565b90508060000160009054906101000a900460ff1691505090565b60006116ee671e353a7a296bc37960c01b612e4e565b61170267addcf20f80d53b7360c01b612e4e565b6117166786ddf020d902a5ff60c01b612e4e565b600e54905090565b61173267ad667a64f4978b7a60c01b612e4e565b600061173c61356d565b905060008160000160089054906101000a900460ff1615905060008260000160009054906101000a900467ffffffffffffffff1690506000808267ffffffffffffffff1614801561178a5750825b9050600060018367ffffffffffffffff161480156117bf575060003073ffffffffffffffffffffffffffffffffffffffff163b145b9050811580156117cd575080155b15611804576040517ff92ee8a900000000000000000000000000000000000000000000000000000000815260040160405180910390fd5b60018560000160006101000a81548167ffffffffffffffff021916908367ffffffffffffffff16021790555083156118545760018560000160086101000a81548160ff0219169083151502179055505b611868678264858e49dedcf460c01b612e4e565b61187c67c833b0463101a7a260c01b612e4e565b611890679e5a3e616266eca560c01b612e4e565b6118a467e6f3224d43e489c960c01b612e4e565b6118ad33613595565b6118c1670cc5e42825a5376e60c01b612e4e565b6118d567813e31c351dda0ac60c01b612e4e565b6118dd6135a9565b6118f16733d00a837db4699760c01b612e4e565b611905675366fe606239c09f60c01b612e4e565b61190d6135bb565b6119216714a77fe737b621ea60c01b612e4e565b6119356737e59a0fc2dc23ea60c01b612e4e565b61193e8f612dc8565b611952674e0ab26e31a5198d60c01b612e4e565b8d6000806101000a81548173ffffffffffffffffffffffffffffffffffffffff021916908373ffffffffffffffffffffffffffffffffffffffff1602179055506119a66702ccc81d7bff652560c01b612e4e565b8c63ffffffff166001819055506119c767ea6f48f69191886260c01b612e4e565b8b6004819055506119e26799fa93e541e7ce1b60c01b612e4e565b8a6005819055506119fd67576de98d70f008e360c01b612e4e565b62278d008d611a0c91906142ba565b63ffffffff16600681905550611a2c67a9f5ad2d15ce5a4960c01b612e4e565b89600781905550611a47679fd76f677e14524260c01b612e4e565b88600881905550611a62677968ab95f66a224060c01b612e4e565b87600281905550611a7d6798589fa553f91e8360c01b612e4e565b86600381905550611a9867b5a66796d1e4baef60c01b612e4e565b85600960006101000a81548160ff0219169083151502179055508315611b0e5760008560000160086101000a81548160ff0219169083151502179055507fc7f505b2f371ae2175ee4913f4499e1f2633a7b5936321eed1cdaeb6115181d26001604051611b05919061433a565b60405180910390a15b505050505050505050505050505050565b60065481565b611b2d612e51565b611b3760006135cd565b565b60008054906101000a900473ffffffffffffffffffffffffffffffffffffffff1681565b6000611b73676ca6a3138de4996c60c01b612e4e565b611b8767a4a0f357bf4e27dd60c01b612e4e565b611b9b678adc283527fa413560c01b612e4e565b818510611be757611bb667aba8fe301213e38760c01b612e4e565b611bca67a107ce563f352c5560c01b612e4e565b611bde67760a7ec7ed6f202e60c01b612e4e565b60009050611c76565b611bfb672e378834007e3bb660c01b612e4e565b611c0f67ec2c72dd13a14aff60c01b612e4e565b611c23675caed65dcab4a6f560c01b612e4e565b6000828686611c3291906141ac565b611c3c919061421d565b84611c47919061424e565b9050611c5d67d32913acb01ada6b60c01b612e4e565b611c7167868a76f7a37ae69960c01b612e4e565b809150505b949350505050565b60045481565b60015481565b6000611ca067341662c6e05446ed60c01b612e4e565b611cb467d5b420702b5d529060c01b612e4e565b611cc8679aad6b8bc00ff9d860c01b612e4e565b600d54905090565b611ce4670814b302efd28d7060c01b612e4e565b611cec612e51565b611d00674c4afecd8c0ad56260c01b612e4e565b611d1467cd69b84d664b1d2f60c01b612e4e565b611d28671217d974abc583f460c01b612e4e565b611d3c67a0d54084d7abea8b60c01b612e4e565b611d446136a4565b565b611d5a67399adde4da7d275260c01b612e4e565b611d62612e51565b611d766767f14619fb8982ac60c01b612e4e565b611d8a67599295e2237fdebb60c01b612e4e565b611d9e67ad296bbb28065dc560c01b612e4e565b8060058190555050565b611dbc6795144f34bebca2d060c01b612e4e565b611dc4612e51565b611dd867a235f9c96d897a1e60c01b612e4e565b611dec679cf94fa52350166d60c01b612e4e565b611e00677dd699c33259284060c01b612e4e565b6000600c60008373ffffffffffffffffffffffffffffffffffffffff1673ffffffffffffffffffffffffffffffffffffffff16815260200190815260200160002060006101000a81548160ff021916908315150217905550611e6c677eb5319803fef74e60c01b612e4e565b611e806730290148d17f8c0b60c01b612e4e565b8073ffffffffffffffffffffffffffffffffffffffff167f8daaf060c3306c38e068a75c054bf96ecd85a3db1252712c4d93632744c42e0d6000604051611ec79190613cd6565b60405180910390a250565b600080611edd613716565b90508060000160009054906101000a900473ffffffffffffffffffffffffffffffffffffffff1691505090565b611f1e67c5b454c6f8b9a95760c01b612e4e565b611f26612f5a565b611f3a67b113f5404950cb7d60c01b612e4e565b611f4e679158215a97d25a1760c01b612e4e565b611f5661373e565b611f6a6789de050e481c25b460c01b612e4e565b611f7e67a9d26786d96e310260c01b612e4e565b611f92672e4f3f75e1697bf760c01b612e4e565b611fa667310049df13591a0560c01b612e4e565b611fba67246959363178924260c01b612e4e565b600960009054906101000a900460ff1680156120205750600c60003373ffffffffffffffffffffffffffffffffffffffff1673ffffffffffffffffffffffffffffffffffffffff16815260200190815260200160002060009054906101000a900460ff16155b1561207f57612039675f6d4464f76f6f6360c01b612e4e565b61204d679c895f1e81bd007360c01b612e4e565b6040517f584a793800000000000000000000000000000000000000000000000000000000815260040160405180910390fd5b61209367c7394731e6027b0a60c01b612e4e565b6120a767c72b16a4dc080f6060c01b612e4e565b6120bb67ab0fb858315d6c7460c01b612e4e565b6120cf67d168a2b14ec1ddf760c01b612e4e565b6120e3670e044b1e6a3c7bba60c01b612e4e565b6120f7673eb104d3da1761d460c01b612e4e565b600081036121595761211367f24ac40d76dad0fe60c01b612e4e565b612127673d3b1bd09037572d60c01b612e4e565b6040517f1f2a200500000000000000000000000000000000000000000000000000000000815260040160405180910390fd5b61216d67ce63ca2bbe379b9f60c01b612e4e565b612181673d9b3a944656b87f60c01b612e4e565b6121956793053cf8716139f660c01b612e4e565b60006002541180156121a8575060025481105b15612207576121c16799ecab82b8a3eb8f60c01b612e4e565b6121d567bda9f1ef13dd06b260c01b612e4e565b6040517f697fb45900000000000000000000000000000000000000000000000000000000815260040160405180910390fd5b61221b67efe20b774a27402060c01b612e4e565b61222f677f98f3b26c65429760c01b612e4e565b61224367308534222c05c0fa60c01b612e4e565b6000600354118015612269575060035461225c33611399565b826122679190614178565b115b156122c85761228267c2972967ca56b27760c01b612e4e565b612296677ff43a26c61a78ed60c01b612e4e565b6040517ffef49f1900000000000000000000000000000000000000000000000000000000815260040160405180910390fd5b6122dc679b72755f6ed789eb60c01b612e4e565b6122f0677bb2a500532480f560c01b612e4e565b61230467ddc49015a0829a9860c01b612e4e565b6000600b60003373ffffffffffffffffffffffffffffffffffffffff1673ffffffffffffffffffffffffffffffffffffffff16815260200190815260200160002054905061235c6765bdada9c7fae79360c01b612e4e565b6040518061010001604052808381526020014263ffffffff168152602001600063ffffffff16815260200160001515815260200160045481526020016008548152602001600754815260200160015463ffffffff16815250600a60003373ffffffffffffffffffffffffffffffffffffffff1673ffffffffffffffffffffffffffffffffffffffff16815260200190815260200160002060008381526020019081526020016000206000820151816000015560208201518160010160006101000a81548163ffffffff021916908363ffffffff16021790555060408201518160010160046101000a81548163ffffffff021916908363ffffffff16021790555060608201518160010160086101000a81548160ff0219169083151502179055506080820151816002015560a0820151816003015560c0820151816004015560e08201518160050160006101000a81548163ffffffff021916908363ffffffff1602179055509050506124d867e8224f5cf94b972360c01b612e4e565b600b60003373ffffffffffffffffffffffffffffffffffffffff1673ffffffffffffffffffffffffffffffffffffffff168152602001908152602001600020600081548092919061252890614355565b9190505550612541675c04e90f7a0a31f960c01b612e4e565b81600d60008282546125539190614178565b9250508190555061256e671529646ecf448ee660c01b612e4e565b670de0b6b3a7640000612588600154600454600154610b3a565b8361259391906141ac565b61259d919061421d565b600f60008282546125ae9190614178565b925050819055506125c9676a4f9d234fd0c0b160c01b612e4e565b6125dd6768b9e7ccc732b44560c01b612e4e565b61262a33308460008054906101000a900473ffffffffffffffffffffffffffffffffffffffff1673ffffffffffffffffffffffffffffffffffffffff16612ed8909392919063ffffffff16565b61263e67047fdbb551b51aa960c01b612e4e565b612652675d3da345d08ec2bc60c01b612e4e565b3373ffffffffffffffffffffffffffffffffffffffff167f9e71bc8eea02a63969f509818f2dafb9254532904319f9dbda79b67bd34a5f3d836040516126989190613c10565b60405180910390a2506126a96134ba565b50565b6126c06764224e5135551ac460c01b612e4e565b6126c8612e51565b6126dc678b1ab29cd215ae4260c01b612e4e565b6126f067be46f85f1661d4ab60c01b612e4e565b6127046747030bcac017551b60c01b612e4e565b8060088190555050565b600a602052816000526040600020602052806000526040600020600091509150508060000154908060010160009054906101000a900463ffffffff16908060010160049054906101000a900463ffffffff16908060010160089054906101000a900460ff16908060020154908060030154908060040154908060050160009054906101000a900463ffffffff16905088565b6127b4675ebf4be0a0ca629660c01b612e4e565b6127bc612e51565b6127d0679f561673969f8ea660c01b612e4e565b6127e46739985f0e2a42c79760c01b612e4e565b6127f8676d759ae3d9e2184060c01b612e4e565b8060028190555050565b61281667a3d29664afdbb61b60c01b612e4e565b61281e612e51565b61283267d2c273555041fe2560c01b612e4e565b61284667136a667735fe323560c01b612e4e565b61285a6708003d19608d711460c01b612e4e565b61286e676deacbff592a8a8960c01b612e4e565b600081036128d05761288a67808b078107652cb460c01b612e4e565b61289e6753dfff9434a9f75d60c01b612e4e565b6040517f1f2a200500000000000000000000000000000000000000000000000000000000815260040160405180910390fd5b6128e4674209ec8ff5e1744a60c01b612e4e565b6128f8672891c9b5a9270c4160c01b612e4e565b61290c67852960116007b77f60c01b612e4e565b80600f54600e5461291d919061424e565b101561297d5761293767a78893d48aa2bae160c01b612e4e565b61294b67ddb75427835015a560c01b612e4e565b6040517f3270436b00000000000000000000000000000000000000000000000000000000815260040160405180910390fd5b61299167fb8a50ecf42ba1c260c01b612e4e565b6129a567b4063789c1b7d9cb60c01b612e4e565b80600e60008282546129b7919061424e565b925050819055506129d2674de7cc99eea178db60c01b612e4e565b6129e667815321fe4bc285b860c01b612e4e565b612a31338260008054906101000a900473ffffffffffffffffffffffffffffffffffffffff1673ffffffffffffffffffffffffffffffffffffffff1661377f9092919063ffffffff16565b612a45671153b7d5fe9edd4c60c01b612e4e565b612a5967bbba4d2bc7d3c86260c01b612e4e565b3373ffffffffffffffffffffffffffffffffffffffff167f884edad9ce6fa2440d8a54cc123490eb96d2768479d49ff9c7366125a942436482604051612a9f9190613c10565b60405180910390a250565b612abe678a60bbb918f1b25460c01b612e4e565b612ac6612e51565b612ada67dd56d355dce5de3760c01b612e4e565b612aee6789774e0bda482bad60c01b612e4e565b612b026716f7acf73ae701bc60c01b612e4e565b6001600960006101000a81548160ff021916908315150217905550565b612b33676bf69b1412debb9660c01b612e4e565b612b3b612e51565b612b4f67d45d768b7ed4bdf160c01b612e4e565b612b636791f2c9a14ec7c40d60c01b612e4e565b612b77672d5ef73c2979ad3d60c01b612e4e565b6000600960006101000a81548160ff021916908315150217905550565b612ba86757e715cb116aeee060c01b612e4e565b612bb0612e51565b612bc467155b71f2e3ac1ce260c01b612e4e565b612bd867df70db9e8e7c5ab260c01b612e4e565b612bec671fe571415ff3824760c01b612e4e565b6001600c60008373ffffffffffffffffffffffffffffffffffffffff1673ffffffffffffffffffffffffffffffffffffffff16815260200190815260200160002060006101000a81548160ff021916908315150217905550612c5867783f768e9bbfc23760c01b612e4e565b612c6c674dbdccfa13a72db360c01b612e4e565b8073ffffffffffffffffffffffffffffffffffffffff167f8daaf060c3306c38e068a75c054bf96ecd85a3db1252712c4d93632744c42e0d6001604051612cb39190613cd6565b60405180910390a250565b612cd267cdb16107bf334ffe60c01b612e4e565b612cda612e51565b612cee675ec5364c188fb75560c01b612e4e565b612d02674e02617731e123e860c01b612e4e565b612d1667a9c53030b7a38e1460c01b612e4e565b8060078190555050565b612d3467d2af7686b151c60360c01b612e4e565b612d3c612e51565b612d5067130e20711c6dd8d160c01b612e4e565b612d64677041ce65391f63ec60c01b612e4e565b612d786785f36fb776cf672560c01b612e4e565b8060038190555050565b6000612d98673d0a2d5def5284d260c01b612e4e565b612dac67954e657be076df6960c01b612e4e565b612dc067a722dcee375db32b60c01b612e4e565b600f54905090565b612dd0612e51565b600073ffffffffffffffffffffffffffffffffffffffff168173ffffffffffffffffffffffffffffffffffffffff1603612e425760006040517f1e4fbdf7000000000000000000000000000000000000000000000000000000008152600401612e399190614061565b60405180910390fd5b612e4b816135cd565b50565b50565b612e596137fe565b73ffffffffffffffffffffffffffffffffffffffff16612e77611ed2565b73ffffffffffffffffffffffffffffffffffffffff1614612ed657612e9a6137fe565b6040517f118cdaa7000000000000000000000000000000000000000000000000000000008152600401612ecd9190614061565b60405180910390fd5b565b612f54848573ffffffffffffffffffffffffffffffffffffffff166323b872dd868686604051602401612f0d9392919061439d565b604051602081830303815290604052915060e01b6020820180517bffffffffffffffffffffffffffffffffffffffffffffffffffffffff8381831617835250505050613806565b50505050565b6000612f6461389d565b90506002816000015403612fa4576040517f3ee5aeb500000000000000000000000000000000000000000000000000000000815260040160405180910390fd5b6002816000018190555050565b612fc5670bdfde5e8d74962560c01b612e4e565b612fd9676749c6d6ba00546460c01b612e4e565b612fed67c182d4f1e36dcae160c01b612e4e565b6000600a60008473ffffffffffffffffffffffffffffffffffffffff1673ffffffffffffffffffffffffffffffffffffffff1681526020019081526020016000206000838152602001908152602001600020905061305567fe2bf72b56033c8960c01b612e4e565b613069677f21c96ae2e5669360c01b612e4e565b60008160000154905061308667c311a3e913c98c1260c01b612e4e565b61309a67f70459dafb42da9760c01b612e4e565b60006130f5828460010160009054906101000a900463ffffffff1663ffffffff16426130c6919061424e565b8560020154866003015487600401548860050160009054906101000a900463ffffffff1663ffffffff166109a2565b905061310b67e27377fcfe60da4c60c01b612e4e565b61311f67ebb1a41560c4349d60c01b612e4e565b6000828261312d919061424e565b9050613143674e5827196005202a60c01b612e4e565b82600d6000828254613155919061424e565b925050819055506131706713e94f0456097ca960c01b612e4e565b80600e6000828254613182919061424e565b9250508190555061319d67bab595a3bb5fb83360c01b612e4e565b80600f60008282546131af919061424e565b925050819055506131ca6792f660ae3a40759060c01b612e4e565b600a60008773ffffffffffffffffffffffffffffffffffffffff1673ffffffffffffffffffffffffffffffffffffffff16815260200190815260200160002060008681526020019081526020016000206000808201600090556001820160006101000a81549063ffffffff02191690556001820160046101000a81549063ffffffff02191690556001820160086101000a81549060ff02191690556002820160009055600382016000905560048201600090556005820160006101000a81549063ffffffff021916905550506132aa67bb1c9082132b1e5160c01b612e4e565b6132be672e0f8b34a03771cc60c01b612e4e565b613309868360008054906101000a900473ffffffffffffffffffffffffffffffffffffffff1673ffffffffffffffffffffffffffffffffffffffff1661377f9092919063ffffffff16565b61331d6759e2ae14da7a54c460c01b612e4e565b613331675e8eafbaf92e829d60c01b612e4e565b8573ffffffffffffffffffffffffffffffffffffffff167f7084f5476618d8e60b11ef0d7d3f06914655adb8793e28ff7f018d4c76d505d5836040516133779190613c10565b60405180910390a2613393677605b4f3c000822560c01b612e4e565b6133a76785edcdf512e23d2860c01b612e4e565b8573ffffffffffffffffffffffffffffffffffffffff167fe2403640ba68fed3a2f88b7557551d1993f84b99bb10ff833f0cf8db0c5e0486826040516133ed9190613c10565b60405180910390a26134096723a6192e293fe0aa60c01b612e4e565b61341d6726d46e14dfe6ad7460c01b612e4e565b600061342887611399565b0361349d57613441676f1eab6ec8db93ba60c01b612e4e565b61345567d03b71acc375f5d660c01b612e4e565b600b60008773ffffffffffffffffffffffffffffffffffffffff1673ffffffffffffffffffffffffffffffffffffffff168152602001908152602001600020600090556134b2565b6134b1670118e5adc839000660c01b612e4e565b5b505050505050565b60006134c461389d565b90506001816000018190555050565b6134db6138c5565b60006134e5613545565b905060008160000160006101000a81548160ff0219169083151502179055507f5db9ee0a495bf2e6ff9c91a7834c1ba4fdd244a5e8aa4e537bd38aeae4b073aa61352d6137fe565b60405161353a9190614061565b60405180910390a150565b60007fcd5ed15c6e187e77e9aee88184c21f4f2182ab5827cb3b7e07fbedcd63f03300905090565b60007ff0c57e16840df040f15088dc2f81fe391c3923bec73e23a9662efc9c229c6a00905090565b61359d613905565b6135a681613945565b50565b6135b1613905565b6135b96139cb565b565b6135c3613905565b6135cb6139ff565b565b60006135d7613716565b905060008160000160009054906101000a900473ffffffffffffffffffffffffffffffffffffffff169050828260000160006101000a81548173ffffffffffffffffffffffffffffffffffffffff021916908373ffffffffffffffffffffffffffffffffffffffff1602179055508273ffffffffffffffffffffffffffffffffffffffff168173ffffffffffffffffffffffffffffffffffffffff167f8be0079c531659141344cd1fd0a4f28419497f9722a3daafe3b4186f6b6457e060405160405180910390a3505050565b6136ac61373e565b60006136b6613545565b905060018160000160006101000a81548160ff0219169083151502179055507f62e78cea01bee320cd4e420270b5ea74000d11b0c9f74754ebdbfc544b05a2586136fe6137fe565b60405161370b9190614061565b60405180910390a150565b60007f9016d09d72d40fdae2fd8ceac6b6234c7706214fd39c1cd1e609a0528c199300905090565b6137466116b3565b1561377d576040517fd93c066500000000000000000000000000000000000000000000000000000000815260040160405180910390fd5b565b6137f9838473ffffffffffffffffffffffffffffffffffffffff1663a9059cbb85856040516024016137b29291906143d4565b604051602081830303815290604052915060e01b6020820180517bffffffffffffffffffffffffffffffffffffffffffffffffffffffff8381831617835250505050613806565b505050565b600033905090565b6000613831828473ffffffffffffffffffffffffffffffffffffffff16613a2090919063ffffffff16565b905060008151141580156138565750808060200190518101906138549190614412565b155b1561389857826040517f5274afe700000000000000000000000000000000000000000000000000000000815260040161388f9190614061565b60405180910390fd5b505050565b60007f9b779b17422d0df92223018b32b4d1fa46e071723d6817e2486d003becc55f00905090565b6138cd6116b3565b613903576040517f8dfc202b00000000000000000000000000000000000000000000000000000000815260040160405180910390fd5b565b61390d613a36565b613943576040517fd7e6bcf800000000000000000000000000000000000000000000000000000000815260040160405180910390fd5b565b61394d613905565b600073ffffffffffffffffffffffffffffffffffffffff168173ffffffffffffffffffffffffffffffffffffffff16036139bf5760006040517f1e4fbdf70000000000000000000000000000000000000000000000000000000081526004016139b69190614061565b60405180910390fd5b6139c8816135cd565b50565b6139d3613905565b60006139dd613545565b905060008160000160006101000a81548160ff02191690831515021790555050565b613a07613905565b6000613a1161389d565b90506001816000018190555050565b6060613a2e83836000613a56565b905092915050565b6000613a4061356d565b60000160089054906101000a900460ff16905090565b606081471015613a9d57306040517fcd786059000000000000000000000000000000000000000000000000000000008152600401613a949190614061565b60405180910390fd5b6000808573ffffffffffffffffffffffffffffffffffffffff168486604051613ac691906144b0565b60006040518083038185875af1925050503d8060008114613b03576040519150601f19603f3d011682016040523d82523d6000602084013e613b08565b606091505b5091509150613b18868383613b23565b925050509392505050565b606082613b3857613b3382613bb2565b613baa565b60008251148015613b60575060008473ffffffffffffffffffffffffffffffffffffffff163b145b15613ba257836040517f9996b315000000000000000000000000000000000000000000000000000000008152600401613b999190614061565b60405180910390fd5b819050613bab565b5b9392505050565b600081511115613bc55780518082602001fd5b6040517f1425ea4200000000000000000000000000000000000000000000000000000000815260040160405180910390fd5b6000819050919050565b613c0a81613bf7565b82525050565b6000602082019050613c256000830184613c01565b92915050565b600080fd5b600073ffffffffffffffffffffffffffffffffffffffff82169050919050565b6000613c5b82613c30565b9050919050565b613c6b81613c50565b8114613c7657600080fd5b50565b600081359050613c8881613c62565b92915050565b600060208284031215613ca457613ca3613c2b565b5b6000613cb284828501613c79565b91505092915050565b60008115159050919050565b613cd081613cbb565b82525050565b6000602082019050613ceb6000830184613cc7565b92915050565b613cfa81613bf7565b8114613d0557600080fd5b50565b600081359050613d1781613cf1565b92915050565b600060208284031215613d3357613d32613c2b565b5b6000613d4184828501613d08565b91505092915050565b60008060008060008060c08789031215613d6757613d66613c2b565b5b6000613d7589828a01613d08565b9650506020613d8689828a01613d08565b9550506040613d9789828a01613d08565b9450506060613da889828a01613d08565b9350506080613db989828a01613d08565b92505060a0613dca89828a01613d08565b9150509295509295509295565b600080600060608486031215613df057613def613c2b565b5b6000613dfe86828701613d08565b9350506020613e0f86828701613d08565b9250506040613e2086828701613d08565b9150509250925092565b600063ffffffff82169050919050565b613e4381613e2a565b8114613e4e57600080fd5b50565b600081359050613e6081613e3a565b92915050565b613e6f81613cbb565b8114613e7a57600080fd5b50565b600081359050613e8c81613e66565b92915050565b6000806000806000806000806000806101408b8d031215613eb657613eb5613c2b565b5b6000613ec48d828e01613c79565b9a50506020613ed58d828e01613c79565b9950506040613ee68d828e01613e51565b9850506060613ef78d828e01613d08565b9750506080613f088d828e01613d08565b96505060a0613f198d828e01613d08565b95505060c0613f2a8d828e01613d08565b94505060e0613f3b8d828e01613d08565b935050610100613f4d8d828e01613d08565b925050610120613f5f8d828e01613e7d565b9150509295989b9194979a5092959850565b6000819050919050565b6000613f96613f91613f8c84613c30565b613f71565b613c30565b9050919050565b6000613fa882613f7b565b9050919050565b6000613fba82613f9d565b9050919050565b613fca81613faf565b82525050565b6000602082019050613fe56000830184613fc1565b92915050565b6000806000806080858703121561400557614004613c2b565b5b600061401387828801613d08565b945050602061402487828801613d08565b935050604061403587828801613d08565b925050606061404687828801613d08565b91505092959194509250565b61405b81613c50565b82525050565b60006020820190506140766000830184614052565b92915050565b6000806040838503121561409357614092613c2b565b5b60006140a185828601613c79565b92505060206140b285828601613d08565b9150509250929050565b6140c581613e2a565b82525050565b6000610100820190506140e1600083018b613c01565b6140ee602083018a6140bc565b6140fb60408301896140bc565b6141086060830188613cc7565b6141156080830187613c01565b61412260a0830186613c01565b61412f60c0830185613c01565b61413c60e08301846140bc565b9998505050505050505050565b7f4e487b7100000000000000000000000000000000000000000000000000000000600052601160045260246000fd5b600061418382613bf7565b915061418e83613bf7565b92508282019050808211156141a6576141a5614149565b5b92915050565b60006141b782613bf7565b91506141c283613bf7565b92508282026141d081613bf7565b915082820484148315176141e7576141e6614149565b5b5092915050565b7f4e487b7100000000000000000000000000000000000000000000000000000000600052601260045260246000fd5b600061422882613bf7565b915061423383613bf7565b925082614243576142426141ee565b5b828204905092915050565b600061425982613bf7565b915061426483613bf7565b925082820390508181111561427c5761427b614149565b5b92915050565b600061428d82613e2a565b915061429883613e2a565b9250828201905063ffffffff8111156142b4576142b3614149565b5b92915050565b60006142c582613e2a565b91506142d083613e2a565b9250826142e0576142df6141ee565b5b828204905092915050565b6000819050919050565b600067ffffffffffffffff82169050919050565b600061432461431f61431a846142eb565b613f71565b6142f5565b9050919050565b61433481614309565b82525050565b600060208201905061434f600083018461432b565b92915050565b600061436082613bf7565b91507fffffffffffffffffffffffffffffffffffffffffffffffffffffffffffffffff820361439257614391614149565b5b600182019050919050565b60006060820190506143b26000830186614052565b6143bf6020830185614052565b6143cc6040830184613c01565b949350505050565b60006040820190506143e96000830185614052565b6143f66020830184613c01565b9392505050565b60008151905061440c81613e66565b92915050565b60006020828403121561442857614427613c2b565b5b6000614436848285016143fd565b91505092915050565b600081519050919050565b600081905092915050565b60005b83811015614473578082015181840152602081019050614458565b60008484015250505050565b600061448a8261443f565b614494818561444a565b93506144a4818560208601614455565b80840191505092915050565b60006144bc828461447f565b91508190509291505056fea26469706673582212202a5789704b4c5b7ac4ace5c61b06d2a8c7da11f81788202af58d72970a62204e64736f6c63430008140033","opcodes":"PUSH1 0x80 PUSH1 0x40 MSTORE CALLVALUE DUP1 ISZERO PUSH2 0x10 JUMPI PUSH1 0x0 DUP1 REVERT JUMPDEST POP PUSH2 0x44FD DUP1 PUSH2 0x20 PUSH1 0x0 CODECOPY PUSH1 0x0 RETURN INVALID PUSH1 0x80 PUSH1 0x40 MSTORE CALLVALUE DUP1 ISZERO PUSH2 0x10 JUMPI PUSH1 0x0 DUP1 REVERT JUMPDEST POP PUSH1 0x4 CALLDATASIZE LT PUSH2 0x269 JUMPI PUSH1 0x0 CALLDATALOAD PUSH1 0xE0 SHR DUP1 PUSH4 0x715018A6 GT PUSH2 0x151 JUMPI DUP1 PUSH4 0xB3C55721 GT PUSH2 0xC3 JUMPI DUP1 PUSH4 0xD6B0F484 GT PUSH2 0x87 JUMPI DUP1 PUSH4 0xD6B0F484 EQ PUSH2 0x6E1 JUMPI DUP1 PUSH4 0xE43252D7 EQ PUSH2 0x6EB JUMPI DUP1 PUSH4 0xE6D24866 EQ PUSH2 0x707 JUMPI DUP1 PUSH4 0xE81BA080 EQ PUSH2 0x723 JUMPI DUP1 PUSH4 0xEDED3FDA EQ PUSH2 0x73F JUMPI DUP1 PUSH4 0xF2FDE38B EQ PUSH2 0x75D JUMPI PUSH2 0x269 JUMP JUMPDEST DUP1 PUSH4 0xB3C55721 EQ PUSH2 0x64C JUMPI DUP1 PUSH4 0xB5D5B5FA EQ PUSH2 0x668 JUMPI DUP1 PUSH4 0xBCAABF6C EQ PUSH2 0x69F JUMPI DUP1 PUSH4 0xCB43B2DD EQ PUSH2 0x6BB JUMPI DUP1 PUSH4 0xCDFB2B4E EQ PUSH2 0x6D7 JUMPI PUSH2 0x269 JUMP JUMPDEST DUP1 PUSH4 0x817B1CD2 GT PUSH2 0x115 JUMPI DUP1 PUSH4 0x817B1CD2 EQ PUSH2 0x5B2 JUMPI DUP1 PUSH4 0x8456CB59 EQ PUSH2 0x5D0 JUMPI DUP1 PUSH4 0x861F6BFD EQ PUSH2 0x5DA JUMPI DUP1 PUSH4 0x8AB1D681 EQ PUSH2 0x5F6 JUMPI DUP1 PUSH4 0x8DA5CB5B EQ PUSH2 0x612 JUMPI DUP1 PUSH4 0xA694FC3A EQ PUSH2 0x630 JUMPI PUSH2 0x269 JUMP JUMPDEST DUP1 PUSH4 0x715018A6 EQ PUSH2 0x51E JUMPI DUP1 PUSH4 0x72F702F3 EQ PUSH2 0x528 JUMPI DUP1 PUSH4 0x75713079 EQ PUSH2 0x546 JUMPI DUP1 PUSH4 0x7A65CD0B EQ PUSH2 0x576 JUMPI DUP1 PUSH4 0x8005A7DE EQ PUSH2 0x594 JUMPI PUSH2 0x269 JUMP JUMPDEST DUP1 PUSH4 0x379607F5 GT PUSH2 0x1EA JUMPI DUP1 PUSH4 0x5678B024 GT PUSH2 0x1AE JUMPI DUP1 PUSH4 0x5678B024 EQ PUSH2 0x45C JUMPI DUP1 PUSH4 0x5B1D7086 EQ PUSH2 0x48C JUMPI DUP1 PUSH4 0x5C975ABB EQ PUSH2 0x4A8 JUMPI DUP1 PUSH4 0x66666AA9 EQ PUSH2 0x4C6 JUMPI DUP1 PUSH4 0x6C03D853 EQ PUSH2 0x4E4 JUMPI DUP1 PUSH4 0x6F629512 EQ PUSH2 0x500 JUMPI PUSH2 0x269 JUMP JUMPDEST DUP1 PUSH4 0x379607F5 EQ PUSH2 0x3CA JUMPI DUP1 PUSH4 0x3B42FFCF EQ PUSH2 0x3E6 JUMPI DUP1 PUSH4 0x3F4BA83A EQ PUSH2 0x416 JUMPI DUP1 PUSH4 0x3FA615B0 EQ PUSH2 0x420 JUMPI DUP1 PUSH4 0x51FB012D EQ PUSH2 0x43E JUMPI PUSH2 0x269 JUMP JUMPDEST DUP1 PUSH4 0x2319B256 GT PUSH2 0x231 JUMPI DUP1 PUSH4 0x2319B256 EQ PUSH2 0x326 JUMPI DUP1 PUSH4 0x23548B8B EQ PUSH2 0x356 JUMPI DUP1 PUSH4 0x29161479 EQ PUSH2 0x374 JUMPI DUP1 PUSH4 0x2E17DE78 EQ PUSH2 0x392 JUMPI DUP1 PUSH4 0x36C1105A EQ PUSH2 0x3AE JUMPI PUSH2 0x269 JUMP JUMPDEST DUP1 PUSH4 0x4646A49 EQ PUSH2 0x26E JUMPI DUP1 PUSH4 0x6C933D8 EQ PUSH2 0x28C JUMPI DUP1 PUSH4 0xB7EAD4A EQ PUSH2 0x2BC JUMPI DUP1 PUSH4 0x16C621E0 EQ PUSH2 0x2DA JUMPI DUP1 PUSH4 0x22E76837 EQ PUSH2 0x2F6 JUMPI JUMPDEST PUSH1 0x0 DUP1 REVERT JUMPDEST PUSH2 0x276 PUSH2 0x779 JUMP JUMPDEST PUSH1 0x40 MLOAD PUSH2 0x283 SWAP2 SWAP1 PUSH2 0x3C10 JUMP JUMPDEST PUSH1 0x40 MLOAD DUP1 SWAP2 SUB SWAP1 RETURN JUMPDEST PUSH2 0x2A6 PUSH1 0x4 DUP1 CALLDATASIZE SUB DUP2 ADD SWAP1 PUSH2 0x2A1 SWAP2 SWAP1 PUSH2 0x3C8E JUMP JUMPDEST PUSH2 0x77F JUMP JUMPDEST PUSH1 0x40 MLOAD PUSH2 0x2B3 SWAP2 SWAP1 PUSH2 0x3CD6 JUMP JUMPDEST PUSH1 0x40 MLOAD DUP1 SWAP2 SUB SWAP1 RETURN JUMPDEST PUSH2 0x2C4 PUSH2 0x79F JUMP JUMPDEST PUSH1 0x40 MLOAD PUSH2 0x2D1 SWAP2 SWAP1 PUSH2 0x3C10 JUMP JUMPDEST PUSH1 0x40 MLOAD DUP1 SWAP2 SUB SWAP1 RETURN JUMPDEST PUSH2 0x2F4 PUSH1 0x4 DUP1 CALLDATASIZE SUB DUP2 ADD SWAP1 PUSH2 0x2EF SWAP2 SWAP1 PUSH2 0x3D1D JUMP JUMPDEST PUSH2 0x7A5 JUMP JUMPDEST STOP JUMPDEST PUSH2 0x310 PUSH1 0x4 DUP1 CALLDATASIZE SUB DUP2 ADD SWAP1 PUSH2 0x30B SWAP2 SWAP1 PUSH2 0x3D4A JUMP JUMPDEST PUSH2 0x9A2 JUMP JUMPDEST PUSH1 0x40 MLOAD PUSH2 0x31D SWAP2 SWAP1 PUSH2 0x3C10 JUMP JUMPDEST PUSH1 0x40 MLOAD DUP1 SWAP2 SUB SWAP1 RETURN JUMPDEST PUSH2 0x340 PUSH1 0x4 DUP1 CALLDATASIZE SUB DUP2 ADD SWAP1 PUSH2 0x33B SWAP2 SWAP1 PUSH2 0x3DD7 JUMP JUMPDEST PUSH2 0xB3A JUMP JUMPDEST PUSH1 0x40 MLOAD PUSH2 0x34D SWAP2 SWAP1 PUSH2 0x3C10 JUMP JUMPDEST PUSH1 0x40 MLOAD DUP1 SWAP2 SUB SWAP1 RETURN JUMPDEST PUSH2 0x35E PUSH2 0xCCD JUMP JUMPDEST PUSH1 0x40 MLOAD PUSH2 0x36B SWAP2 SWAP1 PUSH2 0x3C10 JUMP JUMPDEST PUSH1 0x40 MLOAD DUP1 SWAP2 SUB SWAP1 RETURN JUMPDEST PUSH2 0x37C PUSH2 0xCD3 JUMP JUMPDEST PUSH1 0x40 MLOAD PUSH2 0x389 SWAP2 SWAP1 PUSH2 0x3C10 JUMP JUMPDEST PUSH1 0x40 MLOAD DUP1 SWAP2 SUB SWAP1 RETURN JUMPDEST PUSH2 0x3AC PUSH1 0x4 DUP1 CALLDATASIZE SUB DUP2 ADD SWAP1 PUSH2 0x3A7 SWAP2 SWAP1 PUSH2 0x3D1D JUMP JUMPDEST PUSH2 0xCD9 JUMP JUMPDEST STOP JUMPDEST PUSH2 0x3C8 PUSH1 0x4 DUP1 CALLDATASIZE SUB DUP2 ADD SWAP1 PUSH2 0x3C3 SWAP2 SWAP1 PUSH2 0x3D1D JUMP JUMPDEST PUSH2 0x10C8 JUMP JUMPDEST STOP JUMPDEST PUSH2 0x3E4 PUSH1 0x4 DUP1 CALLDATASIZE SUB DUP2 ADD SWAP1 PUSH2 0x3DF SWAP2 SWAP1 PUSH2 0x3D1D JUMP JUMPDEST PUSH2 0x112A JUMP JUMPDEST STOP JUMPDEST PUSH2 0x400 PUSH1 0x4 DUP1 CALLDATASIZE SUB DUP2 ADD SWAP1 PUSH2 0x3FB SWAP2 SWAP1 PUSH2 0x3C8E JUMP JUMPDEST PUSH2 0x1399 JUMP JUMPDEST PUSH1 0x40 MLOAD PUSH2 0x40D SWAP2 SWAP1 PUSH2 0x3C10 JUMP JUMPDEST PUSH1 0x40 MLOAD DUP1 SWAP2 SUB SWAP1 RETURN JUMPDEST PUSH2 0x41E PUSH2 0x1581 JUMP JUMPDEST STOP JUMPDEST PUSH2 0x428 PUSH2 0x15F7 JUMP JUMPDEST PUSH1 0x40 MLOAD PUSH2 0x435 SWAP2 SWAP1 PUSH2 0x3C10 JUMP JUMPDEST PUSH1 0x40 MLOAD DUP1 SWAP2 SUB SWAP1 RETURN JUMPDEST PUSH2 0x446 PUSH2 0x15FD JUMP JUMPDEST PUSH1 0x40 MLOAD PUSH2 0x453 SWAP2 SWAP1 PUSH2 0x3CD6 JUMP JUMPDEST PUSH1 0x40 MLOAD DUP1 SWAP2 SUB SWAP1 RETURN JUMPDEST PUSH2 0x476 PUSH1 0x4 DUP1 CALLDATASIZE SUB DUP2 ADD SWAP1 PUSH2 0x471 SWAP2 SWAP1 PUSH2 0x3C8E JUMP JUMPDEST PUSH2 0x1610 JUMP JUMPDEST PUSH1 0x40 MLOAD PUSH2 0x483 SWAP2 SWAP1 PUSH2 0x3C10 JUMP JUMPDEST PUSH1 0x40 MLOAD DUP1 SWAP2 SUB SWAP1 RETURN JUMPDEST PUSH2 0x4A6 PUSH1 0x4 DUP1 CALLDATASIZE SUB DUP2 ADD SWAP1 PUSH2 0x4A1 SWAP2 SWAP1 PUSH2 0x3D1D JUMP JUMPDEST PUSH2 0x1628 JUMP JUMPDEST STOP JUMPDEST PUSH2 0x4B0 PUSH2 0x16B3 JUMP JUMPDEST PUSH1 0x40 MLOAD PUSH2 0x4BD SWAP2 SWAP1 PUSH2 0x3CD6 JUMP JUMPDEST PUSH1 0x40 MLOAD DUP1 SWAP2 SUB SWAP1 RETURN JUMPDEST PUSH2 0x4CE PUSH2 0x16D8 JUMP JUMPDEST PUSH1 0x40 MLOAD PUSH2 0x4DB SWAP2 SWAP1 PUSH2 0x3C10 JUMP JUMPDEST PUSH1 0x40 MLOAD DUP1 SWAP2 SUB SWAP1 RETURN JUMPDEST PUSH2 0x4FE PUSH1 0x4 DUP1 CALLDATASIZE SUB DUP2 ADD SWAP1 PUSH2 0x4F9 SWAP2 SWAP1 PUSH2 0x3E92 JUMP JUMPDEST PUSH2 0x171E JUMP JUMPDEST STOP JUMPDEST PUSH2 0x508 PUSH2 0x1B1F JUMP JUMPDEST PUSH1 0x40 MLOAD PUSH2 0x515 SWAP2 SWAP1 PUSH2 0x3C10 JUMP JUMPDEST PUSH1 0x40 MLOAD DUP1 SWAP2 SUB SWAP1 RETURN JUMPDEST PUSH2 0x526 PUSH2 0x1B25 JUMP JUMPDEST STOP JUMPDEST PUSH2 0x530 PUSH2 0x1B39 JUMP JUMPDEST PUSH1 0x40 MLOAD PUSH2 0x53D SWAP2 SWAP1 PUSH2 0x3FD0 JUMP JUMPDEST PUSH1 0x40 MLOAD DUP1 SWAP2 SUB SWAP1 RETURN JUMPDEST PUSH2 0x560 PUSH1 0x4 DUP1 CALLDATASIZE SUB DUP2 ADD SWAP1 PUSH2 0x55B SWAP2 SWAP1 PUSH2 0x3FEB JUMP JUMPDEST PUSH2 0x1B5D JUMP JUMPDEST PUSH1 0x40 MLOAD PUSH2 0x56D SWAP2 SWAP1 PUSH2 0x3C10 JUMP JUMPDEST PUSH1 0x40 MLOAD DUP1 SWAP2 SUB SWAP1 RETURN JUMPDEST PUSH2 0x57E PUSH2 0x1C7E JUMP JUMPDEST PUSH1 0x40 MLOAD PUSH2 0x58B SWAP2 SWAP1 PUSH2 0x3C10 JUMP JUMPDEST PUSH1 0x40 MLOAD DUP1 SWAP2 SUB SWAP1 RETURN JUMPDEST PUSH2 0x59C PUSH2 0x1C84 JUMP JUMPDEST PUSH1 0x40 MLOAD PUSH2 0x5A9 SWAP2 SWAP1 PUSH2 0x3C10 JUMP JUMPDEST PUSH1 0x40 MLOAD DUP1 SWAP2 SUB SWAP1 RETURN JUMPDEST PUSH2 0x5BA PUSH2 0x1C8A JUMP JUMPDEST PUSH1 0x40 MLOAD PUSH2 0x5C7 SWAP2 SWAP1 PUSH2 0x3C10 JUMP JUMPDEST PUSH1 0x40 MLOAD DUP1 SWAP2 SUB SWAP1 RETURN JUMPDEST PUSH2 0x5D8 PUSH2 0x1CD0 JUMP JUMPDEST STOP JUMPDEST PUSH2 0x5F4 PUSH1 0x4 DUP1 CALLDATASIZE SUB DUP2 ADD SWAP1 PUSH2 0x5EF SWAP2 SWAP1 PUSH2 0x3D1D JUMP JUMPDEST PUSH2 0x1D46 JUMP JUMPDEST STOP JUMPDEST PUSH2 0x610 PUSH1 0x4 DUP1 CALLDATASIZE SUB DUP2 ADD SWAP1 PUSH2 0x60B SWAP2 SWAP1 PUSH2 0x3C8E JUMP JUMPDEST PUSH2 0x1DA8 JUMP JUMPDEST STOP JUMPDEST PUSH2 0x61A PUSH2 0x1ED2 JUMP JUMPDEST PUSH1 0x40 MLOAD PUSH2 0x627 SWAP2 SWAP1 PUSH2 0x4061 JUMP JUMPDEST PUSH1 0x40 MLOAD DUP1 SWAP2 SUB SWAP1 RETURN JUMPDEST PUSH2 0x64A PUSH1 0x4 DUP1 CALLDATASIZE SUB DUP2 ADD SWAP1 PUSH2 0x645 SWAP2 SWAP1 PUSH2 0x3D1D JUMP JUMPDEST PUSH2 0x1F0A JUMP JUMPDEST STOP JUMPDEST PUSH2 0x666 PUSH1 0x4 DUP1 CALLDATASIZE SUB DUP2 ADD SWAP1 PUSH2 0x661 SWAP2 SWAP1 PUSH2 0x3D1D JUMP JUMPDEST PUSH2 0x26AC JUMP JUMPDEST STOP JUMPDEST PUSH2 0x682 PUSH1 0x4 DUP1 CALLDATASIZE SUB DUP2 ADD SWAP1 PUSH2 0x67D SWAP2 SWAP1 PUSH2 0x407C JUMP JUMPDEST PUSH2 0x270E JUMP JUMPDEST PUSH1 0x40 MLOAD PUSH2 0x696 SWAP9 SWAP8 SWAP7 SWAP6 SWAP5 SWAP4 SWAP3 SWAP2 SWAP1 PUSH2 0x40CB JUMP JUMPDEST PUSH1 0x40 MLOAD DUP1 SWAP2 SUB SWAP1 RETURN JUMPDEST PUSH2 0x6B9 PUSH1 0x4 DUP1 CALLDATASIZE SUB DUP2 ADD SWAP1 PUSH2 0x6B4 SWAP2 SWAP1 PUSH2 0x3D1D JUMP JUMPDEST PUSH2 0x27A0 JUMP JUMPDEST STOP JUMPDEST PUSH2 0x6D5 PUSH1 0x4 DUP1 CALLDATASIZE SUB DUP2 ADD SWAP1 PUSH2 0x6D0 SWAP2 SWAP1 PUSH2 0x3D1D JUMP JUMPDEST PUSH2 0x2802 JUMP JUMPDEST STOP JUMPDEST PUSH2 0x6DF PUSH2 0x2AAA JUMP JUMPDEST STOP JUMPDEST PUSH2 0x6E9 PUSH2 0x2B1F JUMP JUMPDEST STOP JUMPDEST PUSH2 0x705 PUSH1 0x4 DUP1 CALLDATASIZE SUB DUP2 ADD SWAP1 PUSH2 0x700 SWAP2 SWAP1 PUSH2 0x3C8E JUMP JUMPDEST PUSH2 0x2B94 JUMP JUMPDEST STOP JUMPDEST PUSH2 0x721 PUSH1 0x4 DUP1 CALLDATASIZE SUB DUP2 ADD SWAP1 PUSH2 0x71C SWAP2 SWAP1 PUSH2 0x3D1D JUMP JUMPDEST PUSH2 0x2CBE JUMP JUMPDEST STOP JUMPDEST PUSH2 0x73D PUSH1 0x4 DUP1 CALLDATASIZE SUB DUP2 ADD SWAP1 PUSH2 0x738 SWAP2 SWAP1 PUSH2 0x3D1D JUMP JUMPDEST PUSH2 0x2D20 JUMP JUMPDEST STOP JUMPDEST PUSH2 0x747 PUSH2 0x2D82 JUMP JUMPDEST PUSH1 0x40 MLOAD PUSH2 0x754 SWAP2 SWAP1 PUSH2 0x3C10 JUMP JUMPDEST PUSH1 0x40 MLOAD DUP1 SWAP2 SUB SWAP1 RETURN JUMPDEST PUSH2 0x777 PUSH1 0x4 DUP1 CALLDATASIZE SUB DUP2 ADD SWAP1 PUSH2 0x772 SWAP2 SWAP1 PUSH2 0x3C8E JUMP JUMPDEST PUSH2 0x2DC8 JUMP JUMPDEST STOP JUMPDEST PUSH1 0x5 SLOAD DUP2 JUMP JUMPDEST PUSH1 0xC PUSH1 0x20 MSTORE DUP1 PUSH1 0x0 MSTORE PUSH1 0x40 PUSH1 0x0 KECCAK256 PUSH1 0x0 SWAP2 POP SLOAD SWAP1 PUSH2 0x100 EXP SWAP1 DIV PUSH1 0xFF AND DUP2 JUMP JUMPDEST PUSH1 0x7 SLOAD DUP2 JUMP JUMPDEST PUSH2 0x7B9 PUSH8 0x784D1203CAC2DB36 PUSH1 0xC0 SHL PUSH2 0x2E4E JUMP JUMPDEST PUSH2 0x7C1 PUSH2 0x2E51 JUMP JUMPDEST PUSH2 0x7D5 PUSH8 0xCC7F46C4C4F181C5 PUSH1 0xC0 SHL PUSH2 0x2E4E JUMP JUMPDEST PUSH2 0x7E9 PUSH8 0x371E6D56B8326981 PUSH1 0xC0 SHL PUSH2 0x2E4E JUMP JUMPDEST PUSH2 0x7FD PUSH8 0x2E31E54C0EDE5A38 PUSH1 0xC0 SHL PUSH2 0x2E4E JUMP JUMPDEST PUSH2 0x811 PUSH8 0xF9703C94A5A19BD4 PUSH1 0xC0 SHL PUSH2 0x2E4E JUMP JUMPDEST PUSH1 0x0 DUP2 SUB PUSH2 0x873 JUMPI PUSH2 0x82D PUSH8 0x9E220B7E5F7608A5 PUSH1 0xC0 SHL PUSH2 0x2E4E JUMP JUMPDEST PUSH2 0x841 PUSH8 0xFE7CAA985572D08F PUSH1 0xC0 SHL PUSH2 0x2E4E JUMP JUMPDEST PUSH1 0x40 MLOAD PUSH32 0x61AC6EBA00000000000000000000000000000000000000000000000000000000 DUP2 MSTORE PUSH1 0x4 ADD PUSH1 0x40 MLOAD DUP1 SWAP2 SUB SWAP1 REVERT JUMPDEST PUSH2 0x887 PUSH8 0xCCD960EBA84E13DD PUSH1 0xC0 SHL PUSH2 0x2E4E JUMP JUMPDEST PUSH2 0x89B PUSH8 0x8605A2B21344C357 PUSH1 0xC0 SHL PUSH2 0x2E4E JUMP JUMPDEST DUP1 PUSH1 0xE PUSH1 0x0 DUP3 DUP3 SLOAD PUSH2 0x8AD SWAP2 SWAP1 PUSH2 0x4178 JUMP JUMPDEST SWAP3 POP POP DUP2 SWAP1 SSTORE POP PUSH2 0x8C8 PUSH8 0x2ACFE9BAEE327830 PUSH1 0xC0 SHL PUSH2 0x2E4E JUMP JUMPDEST PUSH2 0x8DC PUSH8 0x2E0B79933DC999EF PUSH1 0xC0 SHL PUSH2 0x2E4E JUMP JUMPDEST PUSH2 0x929 CALLER ADDRESS DUP4 PUSH1 0x0 DUP1 SLOAD SWAP1 PUSH2 0x100 EXP SWAP1 DIV PUSH20 0xFFFFFFFFFFFFFFFFFFFFFFFFFFFFFFFFFFFFFFFF AND PUSH20 0xFFFFFFFFFFFFFFFFFFFFFFFFFFFFFFFFFFFFFFFF AND PUSH2 0x2ED8 SWAP1 SWAP4 SWAP3 SWAP2 SWAP1 PUSH4 0xFFFFFFFF AND JUMP JUMPDEST PUSH2 0x93D PUSH8 0xBBA26DBE923896E0 PUSH1 0xC0 SHL PUSH2 0x2E4E JUMP JUMPDEST PUSH2 0x951 PUSH8 0x7F25A147D236DD8B PUSH1 0xC0 SHL PUSH2 0x2E4E JUMP JUMPDEST CALLER PUSH20 0xFFFFFFFFFFFFFFFFFFFFFFFFFFFFFFFFFFFFFFFF AND PUSH32 0xE1FFFCC4923D04B559F4D29A8BFC6CDA04EB5B0D3C460751C2402C5C5CC9109C DUP3 PUSH1 0x40 MLOAD PUSH2 0x997 SWAP2 SWAP1 PUSH2 0x3C10 JUMP JUMPDEST PUSH1 0x40 MLOAD DUP1 SWAP2 SUB SWAP1 LOG2 POP JUMP JUMPDEST PUSH1 0x0 PUSH2 0x9B8 PUSH8 0x71DC132D31E4A024 PUSH1 0xC0 SHL PUSH2 0x2E4E JUMP JUMPDEST PUSH2 0x9CC PUSH8 0xA7D8E1CBBC843FB2 PUSH1 0xC0 SHL PUSH2 0x2E4E JUMP JUMPDEST PUSH2 0x9E0 PUSH8 0x5FB82D64C9D3C40A PUSH1 0xC0 SHL PUSH2 0x2E4E JUMP JUMPDEST PUSH1 0x0 PUSH2 0x9ED DUP8 DUP8 DUP6 PUSH2 0xB3A JUMP JUMPDEST SWAP1 POP PUSH2 0xA03 PUSH8 0xBF3E5F3FD52B5FB9 PUSH1 0xC0 SHL PUSH2 0x2E4E JUMP JUMPDEST PUSH2 0xA17 PUSH8 0xE12BD3823173100D PUSH1 0xC0 SHL PUSH2 0x2E4E JUMP JUMPDEST PUSH1 0x0 PUSH2 0xA25 DUP9 DUP8 DUP8 DUP8 PUSH2 0x1B5D JUMP JUMPDEST SWAP1 POP PUSH2 0xA3B PUSH8 0xACECE777C90A6BB7 PUSH1 0xC0 SHL PUSH2 0x2E4E JUMP JUMPDEST PUSH2 0xA4F PUSH8 0xAC5B4B7A00DD959D PUSH1 0xC0 SHL PUSH2 0x2E4E JUMP JUMPDEST PUSH1 0x0 PUSH8 0xDE0B6B3A7640000 DUP4 DUP12 PUSH2 0xA66 SWAP2 SWAP1 PUSH2 0x41AC JUMP JUMPDEST PUSH2 0xA70 SWAP2 SWAP1 PUSH2 0x421D JUMP JUMPDEST SWAP1 POP PUSH2 0xA86 PUSH8 0x1D7E0721221A2EF6 PUSH1 0xC0 SHL PUSH2 0x2E4E JUMP JUMPDEST PUSH2 0xA9A PUSH8 0x6CEC70FE82FB1DDB PUSH1 0xC0 SHL PUSH2 0x2E4E JUMP JUMPDEST PUSH1 0x0 PUSH8 0xDE0B6B3A7640000 DUP4 DUP4 PUSH2 0xAB1 SWAP2 SWAP1 PUSH2 0x41AC JUMP JUMPDEST PUSH2 0xABB SWAP2 SWAP1 PUSH2 0x421D JUMP JUMPDEST SWAP1 POP PUSH2 0xAD1 PUSH8 0xFFBD9AF4813C7167 PUSH1 0xC0 SHL PUSH2 0x2E4E JUMP JUMPDEST PUSH2 0xAE5 PUSH8 0x6208B8F23C1EE9D5 PUSH1 0xC0 SHL PUSH2 0x2E4E JUMP JUMPDEST PUSH1 0x0 DUP2 DUP4 DUP14 PUSH2 0xAF4 SWAP2 SWAP1 PUSH2 0x4178 JUMP JUMPDEST PUSH2 0xAFE SWAP2 SWAP1 PUSH2 0x424E JUMP JUMPDEST SWAP1 POP PUSH2 0xB14 PUSH8 0x4BC5CCECCD8F3B8F PUSH1 0xC0 SHL PUSH2 0x2E4E JUMP JUMPDEST PUSH2 0xB28 PUSH8 0xCC0D02E223AC5F20 PUSH1 0xC0 SHL PUSH2 0x2E4E JUMP JUMPDEST DUP1 SWAP6 POP POP POP POP POP POP SWAP7 SWAP6 POP POP POP POP POP POP JUMP JUMPDEST PUSH1 0x0 PUSH2 0xB50 PUSH8 0xD3533C0D788F6F6A PUSH1 0xC0 SHL PUSH2 0x2E4E JUMP JUMPDEST PUSH2 0xB64 PUSH8 0xC6C49D372D30D9E0 PUSH1 0xC0 SHL PUSH2 0x2E4E JUMP JUMPDEST PUSH2 0xB78 PUSH8 0x3A7CB5C767023A9A PUSH1 0xC0 SHL PUSH2 0x2E4E JUMP JUMPDEST DUP2 DUP5 LT PUSH2 0xBCF JUMPI PUSH2 0xB93 PUSH8 0xCFB62A4E32827574 PUSH1 0xC0 SHL PUSH2 0x2E4E JUMP JUMPDEST PUSH2 0xBA7 PUSH8 0xF271E827DB6E47B7 PUSH1 0xC0 SHL PUSH2 0x2E4E JUMP JUMPDEST PUSH2 0xBBB PUSH8 0xA33C765D60246BF7 PUSH1 0xC0 SHL PUSH2 0x2E4E JUMP JUMPDEST DUP3 PUSH1 0x90 PUSH2 0xBC8 SWAP2 SWAP1 PUSH2 0x41AC JUMP JUMPDEST SWAP1 POP PUSH2 0xCC6 JUMP JUMPDEST PUSH2 0xBE3 PUSH8 0x5DCEC27C27302B31 PUSH1 0xC0 SHL PUSH2 0x2E4E JUMP JUMPDEST PUSH2 0xBF7 PUSH8 0x996F014A15AE084B PUSH1 0xC0 SHL PUSH2 0x2E4E JUMP JUMPDEST PUSH2 0xC0B PUSH8 0x9E7BDD9574AC5A0 PUSH1 0xC0 SHL PUSH2 0x2E4E JUMP JUMPDEST PUSH1 0x0 DUP3 PUSH8 0xDE0B6B3A7640000 DUP7 PUSH1 0x6 SLOAD PUSH2 0xC25 SWAP2 SWAP1 PUSH2 0x41AC JUMP JUMPDEST PUSH2 0xC2F SWAP2 SWAP1 PUSH2 0x41AC JUMP JUMPDEST PUSH2 0xC39 SWAP2 SWAP1 PUSH2 0x421D JUMP JUMPDEST SWAP1 POP PUSH2 0xC4F PUSH8 0x41AE4D463CA3CF49 PUSH1 0xC0 SHL PUSH2 0x2E4E JUMP JUMPDEST PUSH2 0xC63 PUSH8 0x581F33E234BDD4AE PUSH1 0xC0 SHL PUSH2 0x2E4E JUMP JUMPDEST PUSH1 0x0 PUSH15 0xC097CE7BC90715B34B9F1000000000 DUP3 DUP4 DUP8 PUSH2 0xC82 SWAP2 SWAP1 PUSH2 0x41AC JUMP JUMPDEST PUSH2 0xC8C SWAP2 SWAP1 PUSH2 0x41AC JUMP JUMPDEST PUSH2 0xC96 SWAP2 SWAP1 PUSH2 0x421D JUMP JUMPDEST SWAP1 POP PUSH2 0xCAC PUSH8 0xD425252E50B3A3F3 PUSH1 0xC0 SHL PUSH2 0x2E4E JUMP JUMPDEST PUSH2 0xCC0 PUSH8 0x37DC5191926DD1C4 PUSH1 0xC0 SHL PUSH2 0x2E4E JUMP JUMPDEST DUP1 SWAP3 POP POP POP JUMPDEST SWAP4 SWAP3 POP POP POP JUMP JUMPDEST PUSH1 0x3 SLOAD DUP2 JUMP JUMPDEST PUSH1 0x8 SLOAD DUP2 JUMP JUMPDEST PUSH2 0xCED PUSH8 0x9F9DD50F21C5FD0D PUSH1 0xC0 SHL PUSH2 0x2E4E JUMP JUMPDEST PUSH2 0xCF5 PUSH2 0x2F5A JUMP JUMPDEST PUSH2 0xD09 PUSH8 0xFD57A7B99F8B2E36 PUSH1 0xC0 SHL PUSH2 0x2E4E JUMP JUMPDEST PUSH2 0xD1D PUSH8 0xB84E9AA335CE692F PUSH1 0xC0 SHL PUSH2 0x2E4E JUMP JUMPDEST PUSH2 0xD31 PUSH8 0x643E5D7D7447C52E PUSH1 0xC0 SHL PUSH2 0x2E4E JUMP JUMPDEST PUSH2 0xD45 PUSH8 0xADB190546928EE16 PUSH1 0xC0 SHL PUSH2 0x2E4E JUMP JUMPDEST PUSH1 0x0 PUSH1 0xA PUSH1 0x0 CALLER PUSH20 0xFFFFFFFFFFFFFFFFFFFFFFFFFFFFFFFFFFFFFFFF AND PUSH20 0xFFFFFFFFFFFFFFFFFFFFFFFFFFFFFFFFFFFFFFFF AND DUP2 MSTORE PUSH1 0x20 ADD SWAP1 DUP2 MSTORE PUSH1 0x20 ADD PUSH1 0x0 KECCAK256 PUSH1 0x0 DUP4 DUP2 MSTORE PUSH1 0x20 ADD SWAP1 DUP2 MSTORE PUSH1 0x20 ADD PUSH1 0x0 KECCAK256 SWAP1 POP PUSH2 0xDAD PUSH8 0x2922C653A4A340B3 PUSH1 0xC0 SHL PUSH2 0x2E4E JUMP JUMPDEST PUSH2 0xDC1 PUSH8 0xD184A05FF8D412C2 PUSH1 0xC0 SHL PUSH2 0x2E4E JUMP JUMPDEST PUSH1 0x0 DUP2 PUSH1 0x0 ADD SLOAD SUB PUSH2 0xE27 JUMPI PUSH2 0xDE1 PUSH8 0x8C87D943F50F0EA0 PUSH1 0xC0 SHL PUSH2 0x2E4E JUMP JUMPDEST PUSH2 0xDF5 PUSH8 0x1B9F806E16ED2DFE PUSH1 0xC0 SHL PUSH2 0x2E4E JUMP JUMPDEST PUSH1 0x40 MLOAD PUSH32 0x1704EDBB00000000000000000000000000000000000000000000000000000000 DUP2 MSTORE PUSH1 0x4 ADD PUSH1 0x40 MLOAD DUP1 SWAP2 SUB SWAP1 REVERT JUMPDEST PUSH2 0xE3B PUSH8 0xA6CE197FD362BE5 PUSH1 0xC0 SHL PUSH2 0x2E4E JUMP JUMPDEST PUSH2 0xE4F PUSH8 0xA2D347ACC59C4444 PUSH1 0xC0 SHL PUSH2 0x2E4E JUMP JUMPDEST PUSH2 0xE63 PUSH8 0x53E847D7BD96FB0A PUSH1 0xC0 SHL PUSH2 0x2E4E JUMP JUMPDEST DUP1 PUSH1 0x1 ADD PUSH1 0x8 SWAP1 SLOAD SWAP1 PUSH2 0x100 EXP SWAP1 DIV PUSH1 0xFF AND ISZERO PUSH2 0xED4 JUMPI PUSH2 0xE8E PUSH8 0x620B6B7AB778E1C1 PUSH1 0xC0 SHL PUSH2 0x2E4E JUMP JUMPDEST PUSH2 0xEA2 PUSH8 0x8FEE3335FF2E0B9B PUSH1 0xC0 SHL PUSH2 0x2E4E JUMP JUMPDEST PUSH1 0x40 MLOAD PUSH32 0x97198FA600000000000000000000000000000000000000000000000000000000 DUP2 MSTORE PUSH1 0x4 ADD PUSH1 0x40 MLOAD DUP1 SWAP2 SUB SWAP1 REVERT JUMPDEST PUSH2 0xEE8 PUSH8 0x54AA019B0B7726C0 PUSH1 0xC0 SHL PUSH2 0x2E4E JUMP JUMPDEST PUSH2 0xEFC PUSH8 0xAA9CAF93C30C72B5 PUSH1 0xC0 SHL PUSH2 0x2E4E JUMP JUMPDEST PUSH2 0xF10 PUSH8 0x4F8A33545E202067 PUSH1 0xC0 SHL PUSH2 0x2E4E JUMP JUMPDEST DUP1 PUSH1 0x5 ADD PUSH1 0x0 SWAP1 SLOAD SWAP1 PUSH2 0x100 EXP SWAP1 DIV PUSH4 0xFFFFFFFF AND DUP2 PUSH1 0x1 ADD PUSH1 0x0 SWAP1 SLOAD SWAP1 PUSH2 0x100 EXP SWAP1 DIV PUSH4 0xFFFFFFFF AND PUSH2 0xF44 SWAP2 SWAP1 PUSH2 0x4282 JUMP JUMPDEST PUSH4 0xFFFFFFFF AND TIMESTAMP LT ISZERO PUSH2 0x1075 JUMPI PUSH2 0xF65 PUSH8 0x590B3F7A3BC5921C PUSH1 0xC0 SHL PUSH2 0x2E4E JUMP JUMPDEST PUSH2 0xF79 PUSH8 0xA3E6EDF888164486 PUSH1 0xC0 SHL PUSH2 0x2E4E JUMP JUMPDEST TIMESTAMP DUP2 PUSH1 0x1 ADD PUSH1 0x4 PUSH2 0x100 EXP DUP2 SLOAD DUP2 PUSH4 0xFFFFFFFF MUL NOT AND SWAP1 DUP4 PUSH4 0xFFFFFFFF AND MUL OR SWAP1 SSTORE POP PUSH2 0xFB0 PUSH8 0x9E4524B9BE704DE5 PUSH1 0xC0 SHL PUSH2 0x2E4E JUMP JUMPDEST PUSH1 0x1 DUP2 PUSH1 0x1 ADD PUSH1 0x8 PUSH2 0x100 EXP DUP2 SLOAD DUP2 PUSH1 0xFF MUL NOT AND SWAP1 DUP4 ISZERO ISZERO MUL OR SWAP1 SSTORE POP PUSH2 0xFE1 PUSH8 0xC4F56E8613B194E0 PUSH1 0xC0 SHL PUSH2 0x2E4E JUMP JUMPDEST PUSH2 0xFF5 PUSH8 0x54804A0568A24202 PUSH1 0xC0 SHL PUSH2 0x2E4E JUMP JUMPDEST CALLER PUSH20 0xFFFFFFFFFFFFFFFFFFFFFFFFFFFFFFFFFFFFFFFF AND PUSH32 0x828764C21E74C28710E19919735825ABA966621C95CBD913F8ED65A2D298F48C DUP3 PUSH1 0x0 ADD SLOAD PUSH1 0x40 MLOAD PUSH2 0x103F SWAP2 SWAP1 PUSH2 0x3C10 JUMP JUMPDEST PUSH1 0x40 MLOAD DUP1 SWAP2 SUB SWAP1 LOG2 PUSH2 0x105B PUSH8 0x6E16E72F0DBDD4B5 PUSH1 0xC0 SHL PUSH2 0x2E4E JUMP JUMPDEST PUSH2 0x106F PUSH8 0xDD933D62FF016AB1 PUSH1 0xC0 SHL PUSH2 0x2E4E JUMP JUMPDEST POP PUSH2 0x10BD JUMP JUMPDEST PUSH2 0x1089 PUSH8 0x7498668CC086BAC7 PUSH1 0xC0 SHL PUSH2 0x2E4E JUMP JUMPDEST PUSH2 0x109D PUSH8 0xD3F42B09F60EDB4 PUSH1 0xC0 SHL PUSH2 0x2E4E JUMP JUMPDEST PUSH2 0x10B1 PUSH8 0x8E6E738BBC198FFD PUSH1 0xC0 SHL PUSH2 0x2E4E JUMP JUMPDEST PUSH2 0x10BB CALLER DUP4 PUSH2 0x2FB1 JUMP JUMPDEST POP JUMPDEST PUSH2 0x10C5 PUSH2 0x34BA JUMP JUMPDEST POP JUMP JUMPDEST PUSH2 0x10DC PUSH8 0x7F67747FE9649BFC PUSH1 0xC0 SHL PUSH2 0x2E4E JUMP JUMPDEST PUSH2 0x10E4 PUSH2 0x2E51 JUMP JUMPDEST PUSH2 0x10F8 PUSH8 0x3480222E95CD9314 PUSH1 0xC0 SHL PUSH2 0x2E4E JUMP JUMPDEST PUSH2 0x110C PUSH8 0x83253E7EEB48716 PUSH1 0xC0 SHL PUSH2 0x2E4E JUMP JUMPDEST PUSH2 0x1120 PUSH8 0xE3A78CBB3367CCD3 PUSH1 0xC0 SHL PUSH2 0x2E4E JUMP JUMPDEST DUP1 PUSH1 0x4 DUP2 SWAP1 SSTORE POP POP JUMP JUMPDEST PUSH2 0x113E PUSH8 0x381A47963F4196E2 PUSH1 0xC0 SHL PUSH2 0x2E4E JUMP JUMPDEST PUSH2 0x1146 PUSH2 0x2F5A JUMP JUMPDEST PUSH2 0x115A PUSH8 0xE0FB84E301B0AE23 PUSH1 0xC0 SHL PUSH2 0x2E4E JUMP JUMPDEST PUSH2 0x116E PUSH8 0xB041837B5A596032 PUSH1 0xC0 SHL PUSH2 0x2E4E JUMP JUMPDEST PUSH2 0x1182 PUSH8 0x3E55AD110582C77F PUSH1 0xC0 SHL PUSH2 0x2E4E JUMP JUMPDEST PUSH2 0x1196 PUSH8 0x7BA4AE178D37156A PUSH1 0xC0 SHL PUSH2 0x2E4E JUMP JUMPDEST PUSH1 0x0 PUSH1 0xA PUSH1 0x0 CALLER PUSH20 0xFFFFFFFFFFFFFFFFFFFFFFFFFFFFFFFFFFFFFFFF AND PUSH20 0xFFFFFFFFFFFFFFFFFFFFFFFFFFFFFFFFFFFFFFFF AND DUP2 MSTORE PUSH1 0x20 ADD SWAP1 DUP2 MSTORE PUSH1 0x20 ADD PUSH1 0x0 KECCAK256 PUSH1 0x0 DUP4 DUP2 MSTORE PUSH1 0x20 ADD SWAP1 DUP2 MSTORE PUSH1 0x20 ADD PUSH1 0x0 KECCAK256 SWAP1 POP PUSH2 0x11FE PUSH8 0x8144859E4D3A8AC5 PUSH1 0xC0 SHL PUSH2 0x2E4E JUMP JUMPDEST PUSH2 0x1212 PUSH8 0x349AF0497E5CD309 PUSH1 0xC0 SHL PUSH2 0x2E4E JUMP JUMPDEST DUP1 PUSH1 0x1 ADD PUSH1 0x8 SWAP1 SLOAD SWAP1 PUSH2 0x100 EXP SWAP1 DIV PUSH1 0xFF AND PUSH2 0x1282 JUMPI PUSH2 0x123C PUSH8 0x72E2C3AB76C27912 PUSH1 0xC0 SHL PUSH2 0x2E4E JUMP JUMPDEST PUSH2 0x1250 PUSH8 0x59DC52AB502D38A6 PUSH1 0xC0 SHL PUSH2 0x2E4E JUMP JUMPDEST PUSH1 0x40 MLOAD PUSH32 0xEEF9087E00000000000000000000000000000000000000000000000000000000 DUP2 MSTORE PUSH1 0x4 ADD PUSH1 0x40 MLOAD DUP1 SWAP2 SUB SWAP1 REVERT JUMPDEST PUSH2 0x1296 PUSH8 0xCA6584C7888C164D PUSH1 0xC0 SHL PUSH2 0x2E4E JUMP JUMPDEST PUSH2 0x12AA PUSH8 0xA1E736BC245D3CDD PUSH1 0xC0 SHL PUSH2 0x2E4E JUMP JUMPDEST PUSH2 0x12BE PUSH8 0xE3CB2E0AEFC2586D PUSH1 0xC0 SHL PUSH2 0x2E4E JUMP JUMPDEST PUSH1 0x5 SLOAD DUP2 PUSH1 0x1 ADD PUSH1 0x4 SWAP1 SLOAD SWAP1 PUSH2 0x100 EXP SWAP1 DIV PUSH4 0xFFFFFFFF AND PUSH4 0xFFFFFFFF AND PUSH2 0x12E6 SWAP2 SWAP1 PUSH2 0x4178 JUMP JUMPDEST TIMESTAMP LT ISZERO PUSH2 0x1347 JUMPI PUSH2 0x1301 PUSH8 0x6EA687DE1F12A419 PUSH1 0xC0 SHL PUSH2 0x2E4E JUMP JUMPDEST PUSH2 0x1315 PUSH8 0xDDD5898BA213B35C PUSH1 0xC0 SHL PUSH2 0x2E4E JUMP JUMPDEST PUSH1 0x40 MLOAD PUSH32 0x52C459F900000000000000000000000000000000000000000000000000000000 DUP2 MSTORE PUSH1 0x4 ADD PUSH1 0x40 MLOAD DUP1 SWAP2 SUB SWAP1 REVERT JUMPDEST PUSH2 0x135B PUSH8 0x5E39B76E14F5756D PUSH1 0xC0 SHL PUSH2 0x2E4E JUMP JUMPDEST PUSH2 0x136F PUSH8 0xF44116102EBC3961 PUSH1 0xC0 SHL PUSH2 0x2E4E JUMP JUMPDEST PUSH2 0x1383 PUSH8 0xC9B71C608995FFBE PUSH1 0xC0 SHL PUSH2 0x2E4E JUMP JUMPDEST PUSH2 0x138D CALLER DUP4 PUSH2 0x2FB1 JUMP JUMPDEST POP PUSH2 0x1396 PUSH2 0x34BA JUMP JUMPDEST POP JUMP JUMPDEST PUSH1 0x0 PUSH2 0x13AF PUSH8 0x123994520A536F74 PUSH1 0xC0 SHL PUSH2 0x2E4E JUMP JUMPDEST PUSH2 0x13C3 PUSH8 0xE87DF8CF5A599DB PUSH1 0xC0 SHL PUSH2 0x2E4E JUMP JUMPDEST PUSH2 0x13D7 PUSH8 0x741443532EDB1EB8 PUSH1 0xC0 SHL PUSH2 0x2E4E JUMP JUMPDEST PUSH1 0x0 PUSH2 0x13ED PUSH8 0x2F1CE3E6BDD918F5 PUSH1 0xC0 SHL PUSH2 0x2E4E JUMP JUMPDEST PUSH2 0x1401 PUSH8 0x84774C26C185F3AE PUSH1 0xC0 SHL PUSH2 0x2E4E JUMP JUMPDEST PUSH1 0x0 PUSH1 0xB PUSH1 0x0 DUP6 PUSH20 0xFFFFFFFFFFFFFFFFFFFFFFFFFFFFFFFFFFFFFFFF AND PUSH20 0xFFFFFFFFFFFFFFFFFFFFFFFFFFFFFFFFFFFFFFFF AND DUP2 MSTORE PUSH1 0x20 ADD SWAP1 DUP2 MSTORE PUSH1 0x20 ADD PUSH1 0x0 KECCAK256 SLOAD SWAP1 POP PUSH2 0x1459 PUSH8 0x49DBDC851ABAE9C PUSH1 0xC0 SHL PUSH2 0x2E4E JUMP JUMPDEST PUSH2 0x146D PUSH8 0x11882EA6E4480D82 PUSH1 0xC0 SHL PUSH2 0x2E4E JUMP JUMPDEST PUSH1 0x0 PUSH1 0xA PUSH1 0x0 DUP7 PUSH20 0xFFFFFFFFFFFFFFFFFFFFFFFFFFFFFFFFFFFFFFFF AND PUSH20 0xFFFFFFFFFFFFFFFFFFFFFFFFFFFFFFFFFFFFFFFF AND DUP2 MSTORE PUSH1 0x20 ADD SWAP1 DUP2 MSTORE PUSH1 0x20 ADD PUSH1 0x0 KECCAK256 SWAP1 POP PUSH2 0x14C4 PUSH8 0xF8BD99134D01F186 PUSH1 0xC0 SHL PUSH2 0x2E4E JUMP JUMPDEST PUSH2 0x14D8 PUSH8 0x11A3EDE05FA591C7 PUSH1 0xC0 SHL PUSH2 0x2E4E JUMP JUMPDEST PUSH1 0x0 JUMPDEST DUP3 DUP2 LT ISZERO PUSH2 0x154D JUMPI PUSH2 0x14F7 PUSH8 0xC0C387B51BA34F2F PUSH1 0xC0 SHL PUSH2 0x2E4E JUMP JUMPDEST DUP2 PUSH1 0x0 DUP3 DUP2 MSTORE PUSH1 0x20 ADD SWAP1 DUP2 MSTORE PUSH1 0x20 ADD PUSH1 0x0 KECCAK256 PUSH1 0x0 ADD SLOAD DUP5 PUSH2 0x1518 SWAP2 SWAP1 PUSH2 0x4178 JUMP JUMPDEST SWAP4 POP PUSH2 0x152E PUSH8 0x4DFD9BC22D76EA00 PUSH1 0xC0 SHL PUSH2 0x2E4E JUMP JUMPDEST PUSH2 0x1542 PUSH8 0x35B59734924AD545 PUSH1 0xC0 SHL PUSH2 0x2E4E JUMP JUMPDEST DUP1 PUSH1 0x1 ADD SWAP1 POP PUSH2 0x14DB JUMP JUMPDEST POP PUSH2 0x1562 PUSH8 0xBE94ACD0A59694E0 PUSH1 0xC0 SHL PUSH2 0x2E4E JUMP JUMPDEST PUSH2 0x1576 PUSH8 0xAE17314496791D91 PUSH1 0xC0 SHL PUSH2 0x2E4E JUMP JUMPDEST DUP3 SWAP4 POP POP POP POP SWAP2 SWAP1 POP JUMP JUMPDEST PUSH2 0x1595 PUSH8 0xFEA109B9D854CF23 PUSH1 0xC0 SHL PUSH2 0x2E4E JUMP JUMPDEST PUSH2 0x159D PUSH2 0x2E51 JUMP JUMPDEST PUSH2 0x15B1 PUSH8 0x866D38108901FAA2 PUSH1 0xC0 SHL PUSH2 0x2E4E JUMP JUMPDEST PUSH2 0x15C5 PUSH8 0xC2C2D7A6965AC21E PUSH1 0xC0 SHL PUSH2 0x2E4E JUMP JUMPDEST PUSH2 0x15D9 PUSH8 0xB192ACE7B1C65E02 PUSH1 0xC0 SHL PUSH2 0x2E4E JUMP JUMPDEST PUSH2 0x15ED PUSH8 0xA96DB3EE52D0EF33 PUSH1 0xC0 SHL PUSH2 0x2E4E JUMP JUMPDEST PUSH2 0x15F5 PUSH2 0x34D3 JUMP JUMPDEST JUMP JUMPDEST PUSH1 0x2 SLOAD DUP2 JUMP JUMPDEST PUSH1 0x9 PUSH1 0x0 SWAP1 SLOAD SWAP1 PUSH2 0x100 EXP SWAP1 DIV PUSH1 0xFF AND DUP2 JUMP JUMPDEST PUSH1 0xB PUSH1 0x20 MSTORE DUP1 PUSH1 0x0 MSTORE PUSH1 0x40 PUSH1 0x0 KECCAK256 PUSH1 0x0 SWAP2 POP SWAP1 POP SLOAD DUP2 JUMP JUMPDEST PUSH2 0x163C PUSH8 0xDF9604BADD6D347C PUSH1 0xC0 SHL PUSH2 0x2E4E JUMP JUMPDEST PUSH2 0x1644 PUSH2 0x2E51 JUMP JUMPDEST PUSH2 0x1658 PUSH8 0xAB3DA2390A7217CE PUSH1 0xC0 SHL PUSH2 0x2E4E JUMP JUMPDEST PUSH2 0x166C PUSH8 0xA1A78941D50068B9 PUSH1 0xC0 SHL PUSH2 0x2E4E JUMP JUMPDEST PUSH2 0x1680 PUSH8 0xEB639FA9A95DBCC2 PUSH1 0xC0 SHL PUSH2 0x2E4E JUMP JUMPDEST DUP1 PUSH1 0x1 DUP2 SWAP1 SSTORE POP PUSH2 0x169B PUSH8 0xAE483F284C5C6670 PUSH1 0xC0 SHL PUSH2 0x2E4E JUMP JUMPDEST PUSH3 0x278D00 DUP2 PUSH2 0x16AA SWAP2 SWAP1 PUSH2 0x421D JUMP JUMPDEST PUSH1 0x6 DUP2 SWAP1 SSTORE POP POP JUMP JUMPDEST PUSH1 0x0 DUP1 PUSH2 0x16BE PUSH2 0x3545 JUMP JUMPDEST SWAP1 POP DUP1 PUSH1 0x0 ADD PUSH1 0x0 SWAP1 SLOAD SWAP1 PUSH2 0x100 EXP SWAP1 DIV PUSH1 0xFF AND SWAP2 POP POP SWAP1 JUMP JUMPDEST PUSH1 0x0 PUSH2 0x16EE PUSH8 0x1E353A7A296BC379 PUSH1 0xC0 SHL PUSH2 0x2E4E JUMP JUMPDEST PUSH2 0x1702 PUSH8 0xADDCF20F80D53B73 PUSH1 0xC0 SHL PUSH2 0x2E4E JUMP JUMPDEST PUSH2 0x1716 PUSH8 0x86DDF020D902A5FF PUSH1 0xC0 SHL PUSH2 0x2E4E JUMP JUMPDEST PUSH1 0xE SLOAD SWAP1 POP SWAP1 JUMP JUMPDEST PUSH2 0x1732 PUSH8 0xAD667A64F4978B7A PUSH1 0xC0 SHL PUSH2 0x2E4E JUMP JUMPDEST PUSH1 0x0 PUSH2 0x173C PUSH2 0x356D JUMP JUMPDEST SWAP1 POP PUSH1 0x0 DUP2 PUSH1 0x0 ADD PUSH1 0x8 SWAP1 SLOAD SWAP1 PUSH2 0x100 EXP SWAP1 DIV PUSH1 0xFF AND ISZERO SWAP1 POP PUSH1 0x0 DUP3 PUSH1 0x0 ADD PUSH1 0x0 SWAP1 SLOAD SWAP1 PUSH2 0x100 EXP SWAP1 DIV PUSH8 0xFFFFFFFFFFFFFFFF AND SWAP1 POP PUSH1 0x0 DUP1 DUP3 PUSH8 0xFFFFFFFFFFFFFFFF AND EQ DUP1 ISZERO PUSH2 0x178A JUMPI POP DUP3 JUMPDEST SWAP1 POP PUSH1 0x0 PUSH1 0x1 DUP4 PUSH8 0xFFFFFFFFFFFFFFFF AND EQ DUP1 ISZERO PUSH2 0x17BF JUMPI POP PUSH1 0x0 ADDRESS PUSH20 0xFFFFFFFFFFFFFFFFFFFFFFFFFFFFFFFFFFFFFFFF AND EXTCODESIZE EQ JUMPDEST SWAP1 POP DUP2 ISZERO DUP1 ISZERO PUSH2 0x17CD JUMPI POP DUP1 ISZERO JUMPDEST ISZERO PUSH2 0x1804 JUMPI PUSH1 0x40 MLOAD PUSH32 0xF92EE8A900000000000000000000000000000000000000000000000000000000 DUP2 MSTORE PUSH1 0x4 ADD PUSH1 0x40 MLOAD DUP1 SWAP2 SUB SWAP1 REVERT JUMPDEST PUSH1 0x1 DUP6 PUSH1 0x0 ADD PUSH1 0x0 PUSH2 0x100 EXP DUP2 SLOAD DUP2 PUSH8 0xFFFFFFFFFFFFFFFF MUL NOT AND SWAP1 DUP4 PUSH8 0xFFFFFFFFFFFFFFFF AND MUL OR SWAP1 SSTORE POP DUP4 ISZERO PUSH2 0x1854 JUMPI PUSH1 0x1 DUP6 PUSH1 0x0 ADD PUSH1 0x8 PUSH2 0x100 EXP DUP2 SLOAD DUP2 PUSH1 0xFF MUL NOT AND SWAP1 DUP4 ISZERO ISZERO MUL OR SWAP1 SSTORE POP JUMPDEST PUSH2 0x1868 PUSH8 0x8264858E49DEDCF4 PUSH1 0xC0 SHL PUSH2 0x2E4E JUMP JUMPDEST PUSH2 0x187C PUSH8 0xC833B0463101A7A2 PUSH1 0xC0 SHL PUSH2 0x2E4E JUMP JUMPDEST PUSH2 0x1890 PUSH8 0x9E5A3E616266ECA5 PUSH1 0xC0 SHL PUSH2 0x2E4E JUMP JUMPDEST PUSH2 0x18A4 PUSH8 0xE6F3224D43E489C9 PUSH1 0xC0 SHL PUSH2 0x2E4E JUMP JUMPDEST PUSH2 0x18AD CALLER PUSH2 0x3595 JUMP JUMPDEST PUSH2 0x18C1 PUSH8 0xCC5E42825A5376E PUSH1 0xC0 SHL PUSH2 0x2E4E JUMP JUMPDEST PUSH2 0x18D5 PUSH8 0x813E31C351DDA0AC PUSH1 0xC0 SHL PUSH2 0x2E4E JUMP JUMPDEST PUSH2 0x18DD PUSH2 0x35A9 JUMP JUMPDEST PUSH2 0x18F1 PUSH8 0x33D00A837DB46997 PUSH1 0xC0 SHL PUSH2 0x2E4E JUMP JUMPDEST PUSH2 0x1905 PUSH8 0x5366FE606239C09F PUSH1 0xC0 SHL PUSH2 0x2E4E JUMP JUMPDEST PUSH2 0x190D PUSH2 0x35BB JUMP JUMPDEST PUSH2 0x1921 PUSH8 0x14A77FE737B621EA PUSH1 0xC0 SHL PUSH2 0x2E4E JUMP JUMPDEST PUSH2 0x1935 PUSH8 0x37E59A0FC2DC23EA PUSH1 0xC0 SHL PUSH2 0x2E4E JUMP JUMPDEST PUSH2 0x193E DUP16 PUSH2 0x2DC8 JUMP JUMPDEST PUSH2 0x1952 PUSH8 0x4E0AB26E31A5198D PUSH1 0xC0 SHL PUSH2 0x2E4E JUMP JUMPDEST DUP14 PUSH1 0x0 DUP1 PUSH2 0x100 EXP DUP2 SLOAD DUP2 PUSH20 0xFFFFFFFFFFFFFFFFFFFFFFFFFFFFFFFFFFFFFFFF MUL NOT AND SWAP1 DUP4 PUSH20 0xFFFFFFFFFFFFFFFFFFFFFFFFFFFFFFFFFFFFFFFF AND MUL OR SWAP1 SSTORE POP PUSH2 0x19A6 PUSH8 0x2CCC81D7BFF6525 PUSH1 0xC0 SHL PUSH2 0x2E4E JUMP JUMPDEST DUP13 PUSH4 0xFFFFFFFF AND PUSH1 0x1 DUP2 SWAP1 SSTORE POP PUSH2 0x19C7 PUSH8 0xEA6F48F691918862 PUSH1 0xC0 SHL PUSH2 0x2E4E JUMP JUMPDEST DUP12 PUSH1 0x4 DUP2 SWAP1 SSTORE POP PUSH2 0x19E2 PUSH8 0x99FA93E541E7CE1B PUSH1 0xC0 SHL PUSH2 0x2E4E JUMP JUMPDEST DUP11 PUSH1 0x5 DUP2 SWAP1 SSTORE POP PUSH2 0x19FD PUSH8 0x576DE98D70F008E3 PUSH1 0xC0 SHL PUSH2 0x2E4E JUMP JUMPDEST PUSH3 0x278D00 DUP14 PUSH2 0x1A0C SWAP2 SWAP1 PUSH2 0x42BA JUMP JUMPDEST PUSH4 0xFFFFFFFF AND PUSH1 0x6 DUP2 SWAP1 SSTORE POP PUSH2 0x1A2C PUSH8 0xA9F5AD2D15CE5A49 PUSH1 0xC0 SHL PUSH2 0x2E4E JUMP JUMPDEST DUP10 PUSH1 0x7 DUP2 SWAP1 SSTORE POP PUSH2 0x1A47 PUSH8 0x9FD76F677E145242 PUSH1 0xC0 SHL PUSH2 0x2E4E JUMP JUMPDEST DUP9 PUSH1 0x8 DUP2 SWAP1 SSTORE POP PUSH2 0x1A62 PUSH8 0x7968AB95F66A2240 PUSH1 0xC0 SHL PUSH2 0x2E4E JUMP JUMPDEST DUP8 PUSH1 0x2 DUP2 SWAP1 SSTORE POP PUSH2 0x1A7D PUSH8 0x98589FA553F91E83 PUSH1 0xC0 SHL PUSH2 0x2E4E JUMP JUMPDEST DUP7 PUSH1 0x3 DUP2 SWAP1 SSTORE POP PUSH2 0x1A98 PUSH8 0xB5A66796D1E4BAEF PUSH1 0xC0 SHL PUSH2 0x2E4E JUMP JUMPDEST DUP6 PUSH1 0x9 PUSH1 0x0 PUSH2 0x100 EXP DUP2 SLOAD DUP2 PUSH1 0xFF MUL NOT AND SWAP1 DUP4 ISZERO ISZERO MUL OR SWAP1 SSTORE POP DUP4 ISZERO PUSH2 0x1B0E JUMPI PUSH1 0x0 DUP6 PUSH1 0x0 ADD PUSH1 0x8 PUSH2 0x100 EXP DUP2 SLOAD DUP2 PUSH1 0xFF MUL NOT AND SWAP1 DUP4 ISZERO ISZERO MUL OR SWAP1 SSTORE POP PUSH32 0xC7F505B2F371AE2175EE4913F4499E1F2633A7B5936321EED1CDAEB6115181D2 PUSH1 0x1 PUSH1 0x40 MLOAD PUSH2 0x1B05 SWAP2 SWAP1 PUSH2 0x433A JUMP JUMPDEST PUSH1 0x40 MLOAD DUP1 SWAP2 SUB SWAP1 LOG1 JUMPDEST POP POP POP POP POP POP POP POP POP POP POP POP POP POP POP JUMP JUMPDEST PUSH1 0x6 SLOAD DUP2 JUMP JUMPDEST PUSH2 0x1B2D PUSH2 0x2E51 JUMP JUMPDEST PUSH2 0x1B37 PUSH1 0x0 PUSH2 0x35CD JUMP JUMPDEST JUMP JUMPDEST PUSH1 0x0 DUP1 SLOAD SWAP1 PUSH2 0x100 EXP SWAP1 DIV PUSH20 0xFFFFFFFFFFFFFFFFFFFFFFFFFFFFFFFFFFFFFFFF AND DUP2 JUMP JUMPDEST PUSH1 0x0 PUSH2 0x1B73 PUSH8 0x6CA6A3138DE4996C PUSH1 0xC0 SHL PUSH2 0x2E4E JUMP JUMPDEST PUSH2 0x1B87 PUSH8 0xA4A0F357BF4E27DD PUSH1 0xC0 SHL PUSH2 0x2E4E JUMP JUMPDEST PUSH2 0x1B9B PUSH8 0x8ADC283527FA4135 PUSH1 0xC0 SHL PUSH2 0x2E4E JUMP JUMPDEST DUP2 DUP6 LT PUSH2 0x1BE7 JUMPI PUSH2 0x1BB6 PUSH8 0xABA8FE301213E387 PUSH1 0xC0 SHL PUSH2 0x2E4E JUMP JUMPDEST PUSH2 0x1BCA PUSH8 0xA107CE563F352C55 PUSH1 0xC0 SHL PUSH2 0x2E4E JUMP JUMPDEST PUSH2 0x1BDE PUSH8 0x760A7EC7ED6F202E PUSH1 0xC0 SHL PUSH2 0x2E4E JUMP JUMPDEST PUSH1 0x0 SWAP1 POP PUSH2 0x1C76 JUMP JUMPDEST PUSH2 0x1BFB PUSH8 0x2E378834007E3BB6 PUSH1 0xC0 SHL PUSH2 0x2E4E JUMP JUMPDEST PUSH2 0x1C0F PUSH8 0xEC2C72DD13A14AFF PUSH1 0xC0 SHL PUSH2 0x2E4E JUMP JUMPDEST PUSH2 0x1C23 PUSH8 0x5CAED65DCAB4A6F5 PUSH1 0xC0 SHL PUSH2 0x2E4E JUMP JUMPDEST PUSH1 0x0 DUP3 DUP7 DUP7 PUSH2 0x1C32 SWAP2 SWAP1 PUSH2 0x41AC JUMP JUMPDEST PUSH2 0x1C3C SWAP2 SWAP1 PUSH2 0x421D JUMP JUMPDEST DUP5 PUSH2 0x1C47 SWAP2 SWAP1 PUSH2 0x424E JUMP JUMPDEST SWAP1 POP PUSH2 0x1C5D PUSH8 0xD32913ACB01ADA6B PUSH1 0xC0 SHL PUSH2 0x2E4E JUMP JUMPDEST PUSH2 0x1C71 PUSH8 0x868A76F7A37AE699 PUSH1 0xC0 SHL PUSH2 0x2E4E JUMP JUMPDEST DUP1 SWAP2 POP POP JUMPDEST SWAP5 SWAP4 POP POP POP POP JUMP JUMPDEST PUSH1 0x4 SLOAD DUP2 JUMP JUMPDEST PUSH1 0x1 SLOAD DUP2 JUMP JUMPDEST PUSH1 0x0 PUSH2 0x1CA0 PUSH8 0x341662C6E05446ED PUSH1 0xC0 SHL PUSH2 0x2E4E JUMP JUMPDEST PUSH2 0x1CB4 PUSH8 0xD5B420702B5D5290 PUSH1 0xC0 SHL PUSH2 0x2E4E JUMP JUMPDEST PUSH2 0x1CC8 PUSH8 0x9AAD6B8BC00FF9D8 PUSH1 0xC0 SHL PUSH2 0x2E4E JUMP JUMPDEST PUSH1 0xD SLOAD SWAP1 POP SWAP1 JUMP JUMPDEST PUSH2 0x1CE4 PUSH8 0x814B302EFD28D70 PUSH1 0xC0 SHL PUSH2 0x2E4E JUMP JUMPDEST PUSH2 0x1CEC PUSH2 0x2E51 JUMP JUMPDEST PUSH2 0x1D00 PUSH8 0x4C4AFECD8C0AD562 PUSH1 0xC0 SHL PUSH2 0x2E4E JUMP JUMPDEST PUSH2 0x1D14 PUSH8 0xCD69B84D664B1D2F PUSH1 0xC0 SHL PUSH2 0x2E4E JUMP JUMPDEST PUSH2 0x1D28 PUSH8 0x1217D974ABC583F4 PUSH1 0xC0 SHL PUSH2 0x2E4E JUMP JUMPDEST PUSH2 0x1D3C PUSH8 0xA0D54084D7ABEA8B PUSH1 0xC0 SHL PUSH2 0x2E4E JUMP JUMPDEST PUSH2 0x1D44 PUSH2 0x36A4 JUMP JUMPDEST JUMP JUMPDEST PUSH2 0x1D5A PUSH8 0x399ADDE4DA7D2752 PUSH1 0xC0 SHL PUSH2 0x2E4E JUMP JUMPDEST PUSH2 0x1D62 PUSH2 0x2E51 JUMP JUMPDEST PUSH2 0x1D76 PUSH8 0x67F14619FB8982AC PUSH1 0xC0 SHL PUSH2 0x2E4E JUMP JUMPDEST PUSH2 0x1D8A PUSH8 0x599295E2237FDEBB PUSH1 0xC0 SHL PUSH2 0x2E4E JUMP JUMPDEST PUSH2 0x1D9E PUSH8 0xAD296BBB28065DC5 PUSH1 0xC0 SHL PUSH2 0x2E4E JUMP JUMPDEST DUP1 PUSH1 0x5 DUP2 SWAP1 SSTORE POP POP JUMP JUMPDEST PUSH2 0x1DBC PUSH8 0x95144F34BEBCA2D0 PUSH1 0xC0 SHL PUSH2 0x2E4E JUMP JUMPDEST PUSH2 0x1DC4 PUSH2 0x2E51 JUMP JUMPDEST PUSH2 0x1DD8 PUSH8 0xA235F9C96D897A1E PUSH1 0xC0 SHL PUSH2 0x2E4E JUMP JUMPDEST PUSH2 0x1DEC PUSH8 0x9CF94FA52350166D PUSH1 0xC0 SHL PUSH2 0x2E4E JUMP JUMPDEST PUSH2 0x1E00 PUSH8 0x7DD699C332592840 PUSH1 0xC0 SHL PUSH2 0x2E4E JUMP JUMPDEST PUSH1 0x0 PUSH1 0xC PUSH1 0x0 DUP4 PUSH20 0xFFFFFFFFFFFFFFFFFFFFFFFFFFFFFFFFFFFFFFFF AND PUSH20 0xFFFFFFFFFFFFFFFFFFFFFFFFFFFFFFFFFFFFFFFF AND DUP2 MSTORE PUSH1 0x20 ADD SWAP1 DUP2 MSTORE PUSH1 0x20 ADD PUSH1 0x0 KECCAK256 PUSH1 0x0 PUSH2 0x100 EXP DUP2 SLOAD DUP2 PUSH1 0xFF MUL NOT AND SWAP1 DUP4 ISZERO ISZERO MUL OR SWAP1 SSTORE POP PUSH2 0x1E6C PUSH8 0x7EB5319803FEF74E PUSH1 0xC0 SHL PUSH2 0x2E4E JUMP JUMPDEST PUSH2 0x1E80 PUSH8 0x30290148D17F8C0B PUSH1 0xC0 SHL PUSH2 0x2E4E JUMP JUMPDEST DUP1 PUSH20 0xFFFFFFFFFFFFFFFFFFFFFFFFFFFFFFFFFFFFFFFF AND PUSH32 0x8DAAF060C3306C38E068A75C054BF96ECD85A3DB1252712C4D93632744C42E0D PUSH1 0x0 PUSH1 0x40 MLOAD PUSH2 0x1EC7 SWAP2 SWAP1 PUSH2 0x3CD6 JUMP JUMPDEST PUSH1 0x40 MLOAD DUP1 SWAP2 SUB SWAP1 LOG2 POP JUMP JUMPDEST PUSH1 0x0 DUP1 PUSH2 0x1EDD PUSH2 0x3716 JUMP JUMPDEST SWAP1 POP DUP1 PUSH1 0x0 ADD PUSH1 0x0 SWAP1 SLOAD SWAP1 PUSH2 0x100 EXP SWAP1 DIV PUSH20 0xFFFFFFFFFFFFFFFFFFFFFFFFFFFFFFFFFFFFFFFF AND SWAP2 POP POP SWAP1 JUMP JUMPDEST PUSH2 0x1F1E PUSH8 0xC5B454C6F8B9A957 PUSH1 0xC0 SHL PUSH2 0x2E4E JUMP JUMPDEST PUSH2 0x1F26 PUSH2 0x2F5A JUMP JUMPDEST PUSH2 0x1F3A PUSH8 0xB113F5404950CB7D PUSH1 0xC0 SHL PUSH2 0x2E4E JUMP JUMPDEST PUSH2 0x1F4E PUSH8 0x9158215A97D25A17 PUSH1 0xC0 SHL PUSH2 0x2E4E JUMP JUMPDEST PUSH2 0x1F56 PUSH2 0x373E JUMP JUMPDEST PUSH2 0x1F6A PUSH8 0x89DE050E481C25B4 PUSH1 0xC0 SHL PUSH2 0x2E4E JUMP JUMPDEST PUSH2 0x1F7E PUSH8 0xA9D26786D96E3102 PUSH1 0xC0 SHL PUSH2 0x2E4E JUMP JUMPDEST PUSH2 0x1F92 PUSH8 0x2E4F3F75E1697BF7 PUSH1 0xC0 SHL PUSH2 0x2E4E JUMP JUMPDEST PUSH2 0x1FA6 PUSH8 0x310049DF13591A05 PUSH1 0xC0 SHL PUSH2 0x2E4E JUMP JUMPDEST PUSH2 0x1FBA PUSH8 0x2469593631789242 PUSH1 0xC0 SHL PUSH2 0x2E4E JUMP JUMPDEST PUSH1 0x9 PUSH1 0x0 SWAP1 SLOAD SWAP1 PUSH2 0x100 EXP SWAP1 DIV PUSH1 0xFF AND DUP1 ISZERO PUSH2 0x2020 JUMPI POP PUSH1 0xC PUSH1 0x0 CALLER PUSH20 0xFFFFFFFFFFFFFFFFFFFFFFFFFFFFFFFFFFFFFFFF AND PUSH20 0xFFFFFFFFFFFFFFFFFFFFFFFFFFFFFFFFFFFFFFFF AND DUP2 MSTORE PUSH1 0x20 ADD SWAP1 DUP2 MSTORE PUSH1 0x20 ADD PUSH1 0x0 KECCAK256 PUSH1 0x0 SWAP1 SLOAD SWAP1 PUSH2 0x100 EXP SWAP1 DIV PUSH1 0xFF AND ISZERO JUMPDEST ISZERO PUSH2 0x207F JUMPI PUSH2 0x2039 PUSH8 0x5F6D4464F76F6F63 PUSH1 0xC0 SHL PUSH2 0x2E4E JUMP JUMPDEST PUSH2 0x204D PUSH8 0x9C895F1E81BD0073 PUSH1 0xC0 SHL PUSH2 0x2E4E JUMP JUMPDEST PUSH1 0x40 MLOAD PUSH32 0x584A793800000000000000000000000000000000000000000000000000000000 DUP2 MSTORE PUSH1 0x4 ADD PUSH1 0x40 MLOAD DUP1 SWAP2 SUB SWAP1 REVERT JUMPDEST PUSH2 0x2093 PUSH8 0xC7394731E6027B0A PUSH1 0xC0 SHL PUSH2 0x2E4E JUMP JUMPDEST PUSH2 0x20A7 PUSH8 0xC72B16A4DC080F60 PUSH1 0xC0 SHL PUSH2 0x2E4E JUMP JUMPDEST PUSH2 0x20BB PUSH8 0xAB0FB858315D6C74 PUSH1 0xC0 SHL PUSH2 0x2E4E JUMP JUMPDEST PUSH2 0x20CF PUSH8 0xD168A2B14EC1DDF7 PUSH1 0xC0 SHL PUSH2 0x2E4E JUMP JUMPDEST PUSH2 0x20E3 PUSH8 0xE044B1E6A3C7BBA PUSH1 0xC0 SHL PUSH2 0x2E4E JUMP JUMPDEST PUSH2 0x20F7 PUSH8 0x3EB104D3DA1761D4 PUSH1 0xC0 SHL PUSH2 0x2E4E JUMP JUMPDEST PUSH1 0x0 DUP2 SUB PUSH2 0x2159 JUMPI PUSH2 0x2113 PUSH8 0xF24AC40D76DAD0FE PUSH1 0xC0 SHL PUSH2 0x2E4E JUMP JUMPDEST PUSH2 0x2127 PUSH8 0x3D3B1BD09037572D PUSH1 0xC0 SHL PUSH2 0x2E4E JUMP JUMPDEST PUSH1 0x40 MLOAD PUSH32 0x1F2A200500000000000000000000000000000000000000000000000000000000 DUP2 MSTORE PUSH1 0x4 ADD PUSH1 0x40 MLOAD DUP1 SWAP2 SUB SWAP1 REVERT JUMPDEST PUSH2 0x216D PUSH8 0xCE63CA2BBE379B9F PUSH1 0xC0 SHL PUSH2 0x2E4E JUMP JUMPDEST PUSH2 0x2181 PUSH8 0x3D9B3A944656B87F PUSH1 0xC0 SHL PUSH2 0x2E4E JUMP JUMPDEST PUSH2 0x2195 PUSH8 0x93053CF8716139F6 PUSH1 0xC0 SHL PUSH2 0x2E4E JUMP JUMPDEST PUSH1 0x0 PUSH1 0x2 SLOAD GT DUP1 ISZERO PUSH2 0x21A8 JUMPI POP PUSH1 0x2 SLOAD DUP2 LT JUMPDEST ISZERO PUSH2 0x2207 JUMPI PUSH2 0x21C1 PUSH8 0x99ECAB82B8A3EB8F PUSH1 0xC0 SHL PUSH2 0x2E4E JUMP JUMPDEST PUSH2 0x21D5 PUSH8 0xBDA9F1EF13DD06B2 PUSH1 0xC0 SHL PUSH2 0x2E4E JUMP JUMPDEST PUSH1 0x40 MLOAD PUSH32 0x697FB45900000000000000000000000000000000000000000000000000000000 DUP2 MSTORE PUSH1 0x4 ADD PUSH1 0x40 MLOAD DUP1 SWAP2 SUB SWAP1 REVERT JUMPDEST PUSH2 0x221B PUSH8 0xEFE20B774A274020 PUSH1 0xC0 SHL PUSH2 0x2E4E JUMP JUMPDEST PUSH2 0x222F PUSH8 0x7F98F3B26C654297 PUSH1 0xC0 SHL PUSH2 0x2E4E JUMP JUMPDEST PUSH2 0x2243 PUSH8 0x308534222C05C0FA PUSH1 0xC0 SHL PUSH2 0x2E4E JUMP JUMPDEST PUSH1 0x0 PUSH1 0x3 SLOAD GT DUP1 ISZERO PUSH2 0x2269 JUMPI POP PUSH1 0x3 SLOAD PUSH2 0x225C CALLER PUSH2 0x1399 JUMP JUMPDEST DUP3 PUSH2 0x2267 SWAP2 SWAP1 PUSH2 0x4178 JUMP JUMPDEST GT JUMPDEST ISZERO PUSH2 0x22C8 JUMPI PUSH2 0x2282 PUSH8 0xC2972967CA56B277 PUSH1 0xC0 SHL PUSH2 0x2E4E JUMP JUMPDEST PUSH2 0x2296 PUSH8 0x7FF43A26C61A78ED PUSH1 0xC0 SHL PUSH2 0x2E4E JUMP JUMPDEST PUSH1 0x40 MLOAD PUSH32 0xFEF49F1900000000000000000000000000000000000000000000000000000000 DUP2 MSTORE PUSH1 0x4 ADD PUSH1 0x40 MLOAD DUP1 SWAP2 SUB SWAP1 REVERT JUMPDEST PUSH2 0x22DC PUSH8 0x9B72755F6ED789EB PUSH1 0xC0 SHL PUSH2 0x2E4E JUMP JUMPDEST PUSH2 0x22F0 PUSH8 0x7BB2A500532480F5 PUSH1 0xC0 SHL PUSH2 0x2E4E JUMP JUMPDEST PUSH2 0x2304 PUSH8 0xDDC49015A0829A98 PUSH1 0xC0 SHL PUSH2 0x2E4E JUMP JUMPDEST PUSH1 0x0 PUSH1 0xB PUSH1 0x0 CALLER PUSH20 0xFFFFFFFFFFFFFFFFFFFFFFFFFFFFFFFFFFFFFFFF AND PUSH20 0xFFFFFFFFFFFFFFFFFFFFFFFFFFFFFFFFFFFFFFFF AND DUP2 MSTORE PUSH1 0x20 ADD SWAP1 DUP2 MSTORE PUSH1 0x20 ADD PUSH1 0x0 KECCAK256 SLOAD SWAP1 POP PUSH2 0x235C PUSH8 0x65BDADA9C7FAE793 PUSH1 0xC0 SHL PUSH2 0x2E4E JUMP JUMPDEST PUSH1 0x40 MLOAD DUP1 PUSH2 0x100 ADD PUSH1 0x40 MSTORE DUP1 DUP4 DUP2 MSTORE PUSH1 0x20 ADD TIMESTAMP PUSH4 0xFFFFFFFF AND DUP2 MSTORE PUSH1 0x20 ADD PUSH1 0x0 PUSH4 0xFFFFFFFF AND DUP2 MSTORE PUSH1 0x20 ADD PUSH1 0x0 ISZERO ISZERO DUP2 MSTORE PUSH1 0x20 ADD PUSH1 0x4 SLOAD DUP2 MSTORE PUSH1 0x20 ADD PUSH1 0x8 SLOAD DUP2 MSTORE PUSH1 0x20 ADD PUSH1 0x7 SLOAD DUP2 MSTORE PUSH1 0x20 ADD PUSH1 0x1 SLOAD PUSH4 0xFFFFFFFF AND DUP2 MSTORE POP PUSH1 0xA PUSH1 0x0 CALLER PUSH20 0xFFFFFFFFFFFFFFFFFFFFFFFFFFFFFFFFFFFFFFFF AND PUSH20 0xFFFFFFFFFFFFFFFFFFFFFFFFFFFFFFFFFFFFFFFF AND DUP2 MSTORE PUSH1 0x20 ADD SWAP1 DUP2 MSTORE PUSH1 0x20 ADD PUSH1 0x0 KECCAK256 PUSH1 0x0 DUP4 DUP2 MSTORE PUSH1 0x20 ADD SWAP1 DUP2 MSTORE PUSH1 0x20 ADD PUSH1 0x0 KECCAK256 PUSH1 0x0 DUP3 ADD MLOAD DUP2 PUSH1 0x0 ADD SSTORE PUSH1 0x20 DUP3 ADD MLOAD DUP2 PUSH1 0x1 ADD PUSH1 0x0 PUSH2 0x100 EXP DUP2 SLOAD DUP2 PUSH4 0xFFFFFFFF MUL NOT AND SWAP1 DUP4 PUSH4 0xFFFFFFFF AND MUL OR SWAP1 SSTORE POP PUSH1 0x40 DUP3 ADD MLOAD DUP2 PUSH1 0x1 ADD PUSH1 0x4 PUSH2 0x100 EXP DUP2 SLOAD DUP2 PUSH4 0xFFFFFFFF MUL NOT AND SWAP1 DUP4 PUSH4 0xFFFFFFFF AND MUL OR SWAP1 SSTORE POP PUSH1 0x60 DUP3 ADD MLOAD DUP2 PUSH1 0x1 ADD PUSH1 0x8 PUSH2 0x100 EXP DUP2 SLOAD DUP2 PUSH1 0xFF MUL NOT AND SWAP1 DUP4 ISZERO ISZERO MUL OR SWAP1 SSTORE POP PUSH1 0x80 DUP3 ADD MLOAD DUP2 PUSH1 0x2 ADD SSTORE PUSH1 0xA0 DUP3 ADD MLOAD DUP2 PUSH1 0x3 ADD SSTORE PUSH1 0xC0 DUP3 ADD MLOAD DUP2 PUSH1 0x4 ADD SSTORE PUSH1 0xE0 DUP3 ADD MLOAD DUP2 PUSH1 0x5 ADD PUSH1 0x0 PUSH2 0x100 EXP DUP2 SLOAD DUP2 PUSH4 0xFFFFFFFF MUL NOT AND SWAP1 DUP4 PUSH4 0xFFFFFFFF AND MUL OR SWAP1 SSTORE POP SWAP1 POP POP PUSH2 0x24D8 PUSH8 0xE8224F5CF94B9723 PUSH1 0xC0 SHL PUSH2 0x2E4E JUMP JUMPDEST PUSH1 0xB PUSH1 0x0 CALLER PUSH20 0xFFFFFFFFFFFFFFFFFFFFFFFFFFFFFFFFFFFFFFFF AND PUSH20 0xFFFFFFFFFFFFFFFFFFFFFFFFFFFFFFFFFFFFFFFF AND DUP2 MSTORE PUSH1 0x20 ADD SWAP1 DUP2 MSTORE PUSH1 0x20 ADD PUSH1 0x0 KECCAK256 PUSH1 0x0 DUP2 SLOAD DUP1 SWAP3 SWAP2 SWAP1 PUSH2 0x2528 SWAP1 PUSH2 0x4355 JUMP JUMPDEST SWAP2 SWAP1 POP SSTORE POP PUSH2 0x2541 PUSH8 0x5C04E90F7A0A31F9 PUSH1 0xC0 SHL PUSH2 0x2E4E JUMP JUMPDEST DUP2 PUSH1 0xD PUSH1 0x0 DUP3 DUP3 SLOAD PUSH2 0x2553 SWAP2 SWAP1 PUSH2 0x4178 JUMP JUMPDEST SWAP3 POP POP DUP2 SWAP1 SSTORE POP PUSH2 0x256E PUSH8 0x1529646ECF448EE6 PUSH1 0xC0 SHL PUSH2 0x2E4E JUMP JUMPDEST PUSH8 0xDE0B6B3A7640000 PUSH2 0x2588 PUSH1 0x1 SLOAD PUSH1 0x4 SLOAD PUSH1 0x1 SLOAD PUSH2 0xB3A JUMP JUMPDEST DUP4 PUSH2 0x2593 SWAP2 SWAP1 PUSH2 0x41AC JUMP JUMPDEST PUSH2 0x259D SWAP2 SWAP1 PUSH2 0x421D JUMP JUMPDEST PUSH1 0xF PUSH1 0x0 DUP3 DUP3 SLOAD PUSH2 0x25AE SWAP2 SWAP1 PUSH2 0x4178 JUMP JUMPDEST SWAP3 POP POP DUP2 SWAP1 SSTORE POP PUSH2 0x25C9 PUSH8 0x6A4F9D234FD0C0B1 PUSH1 0xC0 SHL PUSH2 0x2E4E JUMP JUMPDEST PUSH2 0x25DD PUSH8 0x68B9E7CCC732B445 PUSH1 0xC0 SHL PUSH2 0x2E4E JUMP JUMPDEST PUSH2 0x262A CALLER ADDRESS DUP5 PUSH1 0x0 DUP1 SLOAD SWAP1 PUSH2 0x100 EXP SWAP1 DIV PUSH20 0xFFFFFFFFFFFFFFFFFFFFFFFFFFFFFFFFFFFFFFFF AND PUSH20 0xFFFFFFFFFFFFFFFFFFFFFFFFFFFFFFFFFFFFFFFF AND PUSH2 0x2ED8 SWAP1 SWAP4 SWAP3 SWAP2 SWAP1 PUSH4 0xFFFFFFFF AND JUMP JUMPDEST PUSH2 0x263E PUSH8 0x47FDBB551B51AA9 PUSH1 0xC0 SHL PUSH2 0x2E4E JUMP JUMPDEST PUSH2 0x2652 PUSH8 0x5D3DA345D08EC2BC PUSH1 0xC0 SHL PUSH2 0x2E4E JUMP JUMPDEST CALLER PUSH20 0xFFFFFFFFFFFFFFFFFFFFFFFFFFFFFFFFFFFFFFFF AND PUSH32 0x9E71BC8EEA02A63969F509818F2DAFB9254532904319F9DBDA79B67BD34A5F3D DUP4 PUSH1 0x40 MLOAD PUSH2 0x2698 SWAP2 SWAP1 PUSH2 0x3C10 JUMP JUMPDEST PUSH1 0x40 MLOAD DUP1 SWAP2 SUB SWAP1 LOG2 POP PUSH2 0x26A9 PUSH2 0x34BA JUMP JUMPDEST POP JUMP JUMPDEST PUSH2 0x26C0 PUSH8 0x64224E5135551AC4 PUSH1 0xC0 SHL PUSH2 0x2E4E JUMP JUMPDEST PUSH2 0x26C8 PUSH2 0x2E51 JUMP JUMPDEST PUSH2 0x26DC PUSH8 0x8B1AB29CD215AE42 PUSH1 0xC0 SHL PUSH2 0x2E4E JUMP JUMPDEST PUSH2 0x26F0 PUSH8 0xBE46F85F1661D4AB PUSH1 0xC0 SHL PUSH2 0x2E4E JUMP JUMPDEST PUSH2 0x2704 PUSH8 0x47030BCAC017551B PUSH1 0xC0 SHL PUSH2 0x2E4E JUMP JUMPDEST DUP1 PUSH1 0x8 DUP2 SWAP1 SSTORE POP POP JUMP JUMPDEST PUSH1 0xA PUSH1 0x20 MSTORE DUP2 PUSH1 0x0 MSTORE PUSH1 0x40 PUSH1 0x0 KECCAK256 PUSH1 0x20 MSTORE DUP1 PUSH1 0x0 MSTORE PUSH1 0x40 PUSH1 0x0 KECCAK256 PUSH1 0x0 SWAP2 POP SWAP2 POP POP DUP1 PUSH1 0x0 ADD SLOAD SWAP1 DUP1 PUSH1 0x1 ADD PUSH1 0x0 SWAP1 SLOAD SWAP1 PUSH2 0x100 EXP SWAP1 DIV PUSH4 0xFFFFFFFF AND SWAP1 DUP1 PUSH1 0x1 ADD PUSH1 0x4 SWAP1 SLOAD SWAP1 PUSH2 0x100 EXP SWAP1 DIV PUSH4 0xFFFFFFFF AND SWAP1 DUP1 PUSH1 0x1 ADD PUSH1 0x8 SWAP1 SLOAD SWAP1 PUSH2 0x100 EXP SWAP1 DIV PUSH1 0xFF AND SWAP1 DUP1 PUSH1 0x2 ADD SLOAD SWAP1 DUP1 PUSH1 0x3 ADD SLOAD SWAP1 DUP1 PUSH1 0x4 ADD SLOAD SWAP1 DUP1 PUSH1 0x5 ADD PUSH1 0x0 SWAP1 SLOAD SWAP1 PUSH2 0x100 EXP SWAP1 DIV PUSH4 0xFFFFFFFF AND SWAP1 POP DUP9 JUMP JUMPDEST PUSH2 0x27B4 PUSH8 0x5EBF4BE0A0CA6296 PUSH1 0xC0 SHL PUSH2 0x2E4E JUMP JUMPDEST PUSH2 0x27BC PUSH2 0x2E51 JUMP JUMPDEST PUSH2 0x27D0 PUSH8 0x9F561673969F8EA6 PUSH1 0xC0 SHL PUSH2 0x2E4E JUMP JUMPDEST PUSH2 0x27E4 PUSH8 0x39985F0E2A42C797 PUSH1 0xC0 SHL PUSH2 0x2E4E JUMP JUMPDEST PUSH2 0x27F8 PUSH8 0x6D759AE3D9E21840 PUSH1 0xC0 SHL PUSH2 0x2E4E JUMP JUMPDEST DUP1 PUSH1 0x2 DUP2 SWAP1 SSTORE POP POP JUMP JUMPDEST PUSH2 0x2816 PUSH8 0xA3D29664AFDBB61B PUSH1 0xC0 SHL PUSH2 0x2E4E JUMP JUMPDEST PUSH2 0x281E PUSH2 0x2E51 JUMP JUMPDEST PUSH2 0x2832 PUSH8 0xD2C273555041FE25 PUSH1 0xC0 SHL PUSH2 0x2E4E JUMP JUMPDEST PUSH2 0x2846 PUSH8 0x136A667735FE3235 PUSH1 0xC0 SHL PUSH2 0x2E4E JUMP JUMPDEST PUSH2 0x285A PUSH8 0x8003D19608D7114 PUSH1 0xC0 SHL PUSH2 0x2E4E JUMP JUMPDEST PUSH2 0x286E PUSH8 0x6DEACBFF592A8A89 PUSH1 0xC0 SHL PUSH2 0x2E4E JUMP JUMPDEST PUSH1 0x0 DUP2 SUB PUSH2 0x28D0 JUMPI PUSH2 0x288A PUSH8 0x808B078107652CB4 PUSH1 0xC0 SHL PUSH2 0x2E4E JUMP JUMPDEST PUSH2 0x289E PUSH8 0x53DFFF9434A9F75D PUSH1 0xC0 SHL PUSH2 0x2E4E JUMP JUMPDEST PUSH1 0x40 MLOAD PUSH32 0x1F2A200500000000000000000000000000000000000000000000000000000000 DUP2 MSTORE PUSH1 0x4 ADD PUSH1 0x40 MLOAD DUP1 SWAP2 SUB SWAP1 REVERT JUMPDEST PUSH2 0x28E4 PUSH8 0x4209EC8FF5E1744A PUSH1 0xC0 SHL PUSH2 0x2E4E JUMP JUMPDEST PUSH2 0x28F8 PUSH8 0x2891C9B5A9270C41 PUSH1 0xC0 SHL PUSH2 0x2E4E JUMP JUMPDEST PUSH2 0x290C PUSH8 0x852960116007B77F PUSH1 0xC0 SHL PUSH2 0x2E4E JUMP JUMPDEST DUP1 PUSH1 0xF SLOAD PUSH1 0xE SLOAD PUSH2 0x291D SWAP2 SWAP1 PUSH2 0x424E JUMP JUMPDEST LT ISZERO PUSH2 0x297D JUMPI PUSH2 0x2937 PUSH8 0xA78893D48AA2BAE1 PUSH1 0xC0 SHL PUSH2 0x2E4E JUMP JUMPDEST PUSH2 0x294B PUSH8 0xDDB75427835015A5 PUSH1 0xC0 SHL PUSH2 0x2E4E JUMP JUMPDEST PUSH1 0x40 MLOAD PUSH32 0x3270436B00000000000000000000000000000000000000000000000000000000 DUP2 MSTORE PUSH1 0x4 ADD PUSH1 0x40 MLOAD DUP1 SWAP2 SUB SWAP1 REVERT JUMPDEST PUSH2 0x2991 PUSH8 0xFB8A50ECF42BA1C2 PUSH1 0xC0 SHL PUSH2 0x2E4E JUMP JUMPDEST PUSH2 0x29A5 PUSH8 0xB4063789C1B7D9CB PUSH1 0xC0 SHL PUSH2 0x2E4E JUMP JUMPDEST DUP1 PUSH1 0xE PUSH1 0x0 DUP3 DUP3 SLOAD PUSH2 0x29B7 SWAP2 SWAP1 PUSH2 0x424E JUMP JUMPDEST SWAP3 POP POP DUP2 SWAP1 SSTORE POP PUSH2 0x29D2 PUSH8 0x4DE7CC99EEA178DB PUSH1 0xC0 SHL PUSH2 0x2E4E JUMP JUMPDEST PUSH2 0x29E6 PUSH8 0x815321FE4BC285B8 PUSH1 0xC0 SHL PUSH2 0x2E4E JUMP JUMPDEST PUSH2 0x2A31 CALLER DUP3 PUSH1 0x0 DUP1 SLOAD SWAP1 PUSH2 0x100 EXP SWAP1 DIV PUSH20 0xFFFFFFFFFFFFFFFFFFFFFFFFFFFFFFFFFFFFFFFF AND PUSH20 0xFFFFFFFFFFFFFFFFFFFFFFFFFFFFFFFFFFFFFFFF AND PUSH2 0x377F SWAP1 SWAP3 SWAP2 SWAP1 PUSH4 0xFFFFFFFF AND JUMP JUMPDEST PUSH2 0x2A45 PUSH8 0x1153B7D5FE9EDD4C PUSH1 0xC0 SHL PUSH2 0x2E4E JUMP JUMPDEST PUSH2 0x2A59 PUSH8 0xBBBA4D2BC7D3C862 PUSH1 0xC0 SHL PUSH2 0x2E4E JUMP JUMPDEST CALLER PUSH20 0xFFFFFFFFFFFFFFFFFFFFFFFFFFFFFFFFFFFFFFFF AND PUSH32 0x884EDAD9CE6FA2440D8A54CC123490EB96D2768479D49FF9C7366125A9424364 DUP3 PUSH1 0x40 MLOAD PUSH2 0x2A9F SWAP2 SWAP1 PUSH2 0x3C10 JUMP JUMPDEST PUSH1 0x40 MLOAD DUP1 SWAP2 SUB SWAP1 LOG2 POP JUMP JUMPDEST PUSH2 0x2ABE PUSH8 0x8A60BBB918F1B254 PUSH1 0xC0 SHL PUSH2 0x2E4E JUMP JUMPDEST PUSH2 0x2AC6 PUSH2 0x2E51 JUMP JUMPDEST PUSH2 0x2ADA PUSH8 0xDD56D355DCE5DE37 PUSH1 0xC0 SHL PUSH2 0x2E4E JUMP JUMPDEST PUSH2 0x2AEE PUSH8 0x89774E0BDA482BAD PUSH1 0xC0 SHL PUSH2 0x2E4E JUMP JUMPDEST PUSH2 0x2B02 PUSH8 0x16F7ACF73AE701BC PUSH1 0xC0 SHL PUSH2 0x2E4E JUMP JUMPDEST PUSH1 0x1 PUSH1 0x9 PUSH1 0x0 PUSH2 0x100 EXP DUP2 SLOAD DUP2 PUSH1 0xFF MUL NOT AND SWAP1 DUP4 ISZERO ISZERO MUL OR SWAP1 SSTORE POP JUMP JUMPDEST PUSH2 0x2B33 PUSH8 0x6BF69B1412DEBB96 PUSH1 0xC0 SHL PUSH2 0x2E4E JUMP JUMPDEST PUSH2 0x2B3B PUSH2 0x2E51 JUMP JUMPDEST PUSH2 0x2B4F PUSH8 0xD45D768B7ED4BDF1 PUSH1 0xC0 SHL PUSH2 0x2E4E JUMP JUMPDEST PUSH2 0x2B63 PUSH8 0x91F2C9A14EC7C40D PUSH1 0xC0 SHL PUSH2 0x2E4E JUMP JUMPDEST PUSH2 0x2B77 PUSH8 0x2D5EF73C2979AD3D PUSH1 0xC0 SHL PUSH2 0x2E4E JUMP JUMPDEST PUSH1 0x0 PUSH1 0x9 PUSH1 0x0 PUSH2 0x100 EXP DUP2 SLOAD DUP2 PUSH1 0xFF MUL NOT AND SWAP1 DUP4 ISZERO ISZERO MUL OR SWAP1 SSTORE POP JUMP JUMPDEST PUSH2 0x2BA8 PUSH8 0x57E715CB116AEEE0 PUSH1 0xC0 SHL PUSH2 0x2E4E JUMP JUMPDEST PUSH2 0x2BB0 PUSH2 0x2E51 JUMP JUMPDEST PUSH2 0x2BC4 PUSH8 0x155B71F2E3AC1CE2 PUSH1 0xC0 SHL PUSH2 0x2E4E JUMP JUMPDEST PUSH2 0x2BD8 PUSH8 0xDF70DB9E8E7C5AB2 PUSH1 0xC0 SHL PUSH2 0x2E4E JUMP JUMPDEST PUSH2 0x2BEC PUSH8 0x1FE571415FF38247 PUSH1 0xC0 SHL PUSH2 0x2E4E JUMP JUMPDEST PUSH1 0x1 PUSH1 0xC PUSH1 0x0 DUP4 PUSH20 0xFFFFFFFFFFFFFFFFFFFFFFFFFFFFFFFFFFFFFFFF AND PUSH20 0xFFFFFFFFFFFFFFFFFFFFFFFFFFFFFFFFFFFFFFFF AND DUP2 MSTORE PUSH1 0x20 ADD SWAP1 DUP2 MSTORE PUSH1 0x20 ADD PUSH1 0x0 KECCAK256 PUSH1 0x0 PUSH2 0x100 EXP DUP2 SLOAD DUP2 PUSH1 0xFF MUL NOT AND SWAP1 DUP4 ISZERO ISZERO MUL OR SWAP1 SSTORE POP PUSH2 0x2C58 PUSH8 0x783F768E9BBFC237 PUSH1 0xC0 SHL PUSH2 0x2E4E JUMP JUMPDEST PUSH2 0x2C6C PUSH8 0x4DBDCCFA13A72DB3 PUSH1 0xC0 SHL PUSH2 0x2E4E JUMP JUMPDEST DUP1 PUSH20 0xFFFFFFFFFFFFFFFFFFFFFFFFFFFFFFFFFFFFFFFF AND PUSH32 0x8DAAF060C3306C38E068A75C054BF96ECD85A3DB1252712C4D93632744C42E0D PUSH1 0x1 PUSH1 0x40 MLOAD PUSH2 0x2CB3 SWAP2 SWAP1 PUSH2 0x3CD6 JUMP JUMPDEST PUSH1 0x40 MLOAD DUP1 SWAP2 SUB SWAP1 LOG2 POP JUMP JUMPDEST PUSH2 0x2CD2 PUSH8 0xCDB16107BF334FFE PUSH1 0xC0 SHL PUSH2 0x2E4E JUMP JUMPDEST PUSH2 0x2CDA PUSH2 0x2E51 JUMP JUMPDEST PUSH2 0x2CEE PUSH8 0x5EC5364C188FB755 PUSH1 0xC0 SHL PUSH2 0x2E4E JUMP JUMPDEST PUSH2 0x2D02 PUSH8 0x4E02617731E123E8 PUSH1 0xC0 SHL PUSH2 0x2E4E JUMP JUMPDEST PUSH2 0x2D16 PUSH8 0xA9C53030B7A38E14 PUSH1 0xC0 SHL PUSH2 0x2E4E JUMP JUMPDEST DUP1 PUSH1 0x7 DUP2 SWAP1 SSTORE POP POP JUMP JUMPDEST PUSH2 0x2D34 PUSH8 0xD2AF7686B151C603 PUSH1 0xC0 SHL PUSH2 0x2E4E JUMP JUMPDEST PUSH2 0x2D3C PUSH2 0x2E51 JUMP JUMPDEST PUSH2 0x2D50 PUSH8 0x130E20711C6DD8D1 PUSH1 0xC0 SHL PUSH2 0x2E4E JUMP JUMPDEST PUSH2 0x2D64 PUSH8 0x7041CE65391F63EC PUSH1 0xC0 SHL PUSH2 0x2E4E JUMP JUMPDEST PUSH2 0x2D78 PUSH8 0x85F36FB776CF6725 PUSH1 0xC0 SHL PUSH2 0x2E4E JUMP JUMPDEST DUP1 PUSH1 0x3 DUP2 SWAP1 SSTORE POP POP JUMP JUMPDEST PUSH1 0x0 PUSH2 0x2D98 PUSH8 0x3D0A2D5DEF5284D2 PUSH1 0xC0 SHL PUSH2 0x2E4E JUMP JUMPDEST PUSH2 0x2DAC PUSH8 0x954E657BE076DF69 PUSH1 0xC0 SHL PUSH2 0x2E4E JUMP JUMPDEST PUSH2 0x2DC0 PUSH8 0xA722DCEE375DB32B PUSH1 0xC0 SHL PUSH2 0x2E4E JUMP JUMPDEST PUSH1 0xF SLOAD SWAP1 POP SWAP1 JUMP JUMPDEST PUSH2 0x2DD0 PUSH2 0x2E51 JUMP JUMPDEST PUSH1 0x0 PUSH20 0xFFFFFFFFFFFFFFFFFFFFFFFFFFFFFFFFFFFFFFFF AND DUP2 PUSH20 0xFFFFFFFFFFFFFFFFFFFFFFFFFFFFFFFFFFFFFFFF AND SUB PUSH2 0x2E42 JUMPI PUSH1 0x0 PUSH1 0x40 MLOAD PUSH32 0x1E4FBDF700000000000000000000000000000000000000000000000000000000 DUP2 MSTORE PUSH1 0x4 ADD PUSH2 0x2E39 SWAP2 SWAP1 PUSH2 0x4061 JUMP JUMPDEST PUSH1 0x40 MLOAD DUP1 SWAP2 SUB SWAP1 REVERT JUMPDEST PUSH2 0x2E4B DUP2 PUSH2 0x35CD JUMP JUMPDEST POP JUMP JUMPDEST POP JUMP JUMPDEST PUSH2 0x2E59 PUSH2 0x37FE JUMP JUMPDEST PUSH20 0xFFFFFFFFFFFFFFFFFFFFFFFFFFFFFFFFFFFFFFFF AND PUSH2 0x2E77 PUSH2 0x1ED2 JUMP JUMPDEST PUSH20 0xFFFFFFFFFFFFFFFFFFFFFFFFFFFFFFFFFFFFFFFF AND EQ PUSH2 0x2ED6 JUMPI PUSH2 0x2E9A PUSH2 0x37FE JUMP JUMPDEST PUSH1 0x40 MLOAD PUSH32 0x118CDAA700000000000000000000000000000000000000000000000000000000 DUP2 MSTORE PUSH1 0x4 ADD PUSH2 0x2ECD SWAP2 SWAP1 PUSH2 0x4061 JUMP JUMPDEST PUSH1 0x40 MLOAD DUP1 SWAP2 SUB SWAP1 REVERT JUMPDEST JUMP JUMPDEST PUSH2 0x2F54 DUP5 DUP6 PUSH20 0xFFFFFFFFFFFFFFFFFFFFFFFFFFFFFFFFFFFFFFFF AND PUSH4 0x23B872DD DUP7 DUP7 DUP7 PUSH1 0x40 MLOAD PUSH1 0x24 ADD PUSH2 0x2F0D SWAP4 SWAP3 SWAP2 SWAP1 PUSH2 0x439D JUMP JUMPDEST PUSH1 0x40 MLOAD PUSH1 0x20 DUP2 DUP4 SUB SUB DUP2 MSTORE SWAP1 PUSH1 0x40 MSTORE SWAP2 POP PUSH1 0xE0 SHL PUSH1 0x20 DUP3 ADD DUP1 MLOAD PUSH28 0xFFFFFFFFFFFFFFFFFFFFFFFFFFFFFFFFFFFFFFFFFFFFFFFFFFFFFFFF DUP4 DUP2 DUP4 AND OR DUP4 MSTORE POP POP POP POP PUSH2 0x3806 JUMP JUMPDEST POP POP POP POP JUMP JUMPDEST PUSH1 0x0 PUSH2 0x2F64 PUSH2 0x389D JUMP JUMPDEST SWAP1 POP PUSH1 0x2 DUP2 PUSH1 0x0 ADD SLOAD SUB PUSH2 0x2FA4 JUMPI PUSH1 0x40 MLOAD PUSH32 0x3EE5AEB500000000000000000000000000000000000000000000000000000000 DUP2 MSTORE PUSH1 0x4 ADD PUSH1 0x40 MLOAD DUP1 SWAP2 SUB SWAP1 REVERT JUMPDEST PUSH1 0x2 DUP2 PUSH1 0x0 ADD DUP2 SWAP1 SSTORE POP POP JUMP JUMPDEST PUSH2 0x2FC5 PUSH8 0xBDFDE5E8D749625 PUSH1 0xC0 SHL PUSH2 0x2E4E JUMP JUMPDEST PUSH2 0x2FD9 PUSH8 0x6749C6D6BA005464 PUSH1 0xC0 SHL PUSH2 0x2E4E JUMP JUMPDEST PUSH2 0x2FED PUSH8 0xC182D4F1E36DCAE1 PUSH1 0xC0 SHL PUSH2 0x2E4E JUMP JUMPDEST PUSH1 0x0 PUSH1 0xA PUSH1 0x0 DUP5 PUSH20 0xFFFFFFFFFFFFFFFFFFFFFFFFFFFFFFFFFFFFFFFF AND PUSH20 0xFFFFFFFFFFFFFFFFFFFFFFFFFFFFFFFFFFFFFFFF AND DUP2 MSTORE PUSH1 0x20 ADD SWAP1 DUP2 MSTORE PUSH1 0x20 ADD PUSH1 0x0 KECCAK256 PUSH1 0x0 DUP4 DUP2 MSTORE PUSH1 0x20 ADD SWAP1 DUP2 MSTORE PUSH1 0x20 ADD PUSH1 0x0 KECCAK256 SWAP1 POP PUSH2 0x3055 PUSH8 0xFE2BF72B56033C89 PUSH1 0xC0 SHL PUSH2 0x2E4E JUMP JUMPDEST PUSH2 0x3069 PUSH8 0x7F21C96AE2E56693 PUSH1 0xC0 SHL PUSH2 0x2E4E JUMP JUMPDEST PUSH1 0x0 DUP2 PUSH1 0x0 ADD SLOAD SWAP1 POP PUSH2 0x3086 PUSH8 0xC311A3E913C98C12 PUSH1 0xC0 SHL PUSH2 0x2E4E JUMP JUMPDEST PUSH2 0x309A PUSH8 0xF70459DAFB42DA97 PUSH1 0xC0 SHL PUSH2 0x2E4E JUMP JUMPDEST PUSH1 0x0 PUSH2 0x30F5 DUP3 DUP5 PUSH1 0x1 ADD PUSH1 0x0 SWAP1 SLOAD SWAP1 PUSH2 0x100 EXP SWAP1 DIV PUSH4 0xFFFFFFFF AND PUSH4 0xFFFFFFFF AND TIMESTAMP PUSH2 0x30C6 SWAP2 SWAP1 PUSH2 0x424E JUMP JUMPDEST DUP6 PUSH1 0x2 ADD SLOAD DUP7 PUSH1 0x3 ADD SLOAD DUP8 PUSH1 0x4 ADD SLOAD DUP9 PUSH1 0x5 ADD PUSH1 0x0 SWAP1 SLOAD SWAP1 PUSH2 0x100 EXP SWAP1 DIV PUSH4 0xFFFFFFFF AND PUSH4 0xFFFFFFFF AND PUSH2 0x9A2 JUMP JUMPDEST SWAP1 POP PUSH2 0x310B PUSH8 0xE27377FCFE60DA4C PUSH1 0xC0 SHL PUSH2 0x2E4E JUMP JUMPDEST PUSH2 0x311F PUSH8 0xEBB1A41560C4349D PUSH1 0xC0 SHL PUSH2 0x2E4E JUMP JUMPDEST PUSH1 0x0 DUP3 DUP3 PUSH2 0x312D SWAP2 SWAP1 PUSH2 0x424E JUMP JUMPDEST SWAP1 POP PUSH2 0x3143 PUSH8 0x4E5827196005202A PUSH1 0xC0 SHL PUSH2 0x2E4E JUMP JUMPDEST DUP3 PUSH1 0xD PUSH1 0x0 DUP3 DUP3 SLOAD PUSH2 0x3155 SWAP2 SWAP1 PUSH2 0x424E JUMP JUMPDEST SWAP3 POP POP DUP2 SWAP1 SSTORE POP PUSH2 0x3170 PUSH8 0x13E94F0456097CA9 PUSH1 0xC0 SHL PUSH2 0x2E4E JUMP JUMPDEST DUP1 PUSH1 0xE PUSH1 0x0 DUP3 DUP3 SLOAD PUSH2 0x3182 SWAP2 SWAP1 PUSH2 0x424E JUMP JUMPDEST SWAP3 POP POP DUP2 SWAP1 SSTORE POP PUSH2 0x319D PUSH8 0xBAB595A3BB5FB833 PUSH1 0xC0 SHL PUSH2 0x2E4E JUMP JUMPDEST DUP1 PUSH1 0xF PUSH1 0x0 DUP3 DUP3 SLOAD PUSH2 0x31AF SWAP2 SWAP1 PUSH2 0x424E JUMP JUMPDEST SWAP3 POP POP DUP2 SWAP1 SSTORE POP PUSH2 0x31CA PUSH8 0x92F660AE3A407590 PUSH1 0xC0 SHL PUSH2 0x2E4E JUMP JUMPDEST PUSH1 0xA PUSH1 0x0 DUP8 PUSH20 0xFFFFFFFFFFFFFFFFFFFFFFFFFFFFFFFFFFFFFFFF AND PUSH20 0xFFFFFFFFFFFFFFFFFFFFFFFFFFFFFFFFFFFFFFFF AND DUP2 MSTORE PUSH1 0x20 ADD SWAP1 DUP2 MSTORE PUSH1 0x20 ADD PUSH1 0x0 KECCAK256 PUSH1 0x0 DUP7 DUP2 MSTORE PUSH1 0x20 ADD SWAP1 DUP2 MSTORE PUSH1 0x20 ADD PUSH1 0x0 KECCAK256 PUSH1 0x0 DUP1 DUP3 ADD PUSH1 0x0 SWAP1 SSTORE PUSH1 0x1 DUP3 ADD PUSH1 0x0 PUSH2 0x100 EXP DUP2 SLOAD SWAP1 PUSH4 0xFFFFFFFF MUL NOT AND SWAP1 SSTORE PUSH1 0x1 DUP3 ADD PUSH1 0x4 PUSH2 0x100 EXP DUP2 SLOAD SWAP1 PUSH4 0xFFFFFFFF MUL NOT AND SWAP1 SSTORE PUSH1 0x1 DUP3 ADD PUSH1 0x8 PUSH2 0x100 EXP DUP2 SLOAD SWAP1 PUSH1 0xFF MUL NOT AND SWAP1 SSTORE PUSH1 0x2 DUP3 ADD PUSH1 0x0 SWAP1 SSTORE PUSH1 0x3 DUP3 ADD PUSH1 0x0 SWAP1 SSTORE PUSH1 0x4 DUP3 ADD PUSH1 0x0 SWAP1 SSTORE PUSH1 0x5 DUP3 ADD PUSH1 0x0 PUSH2 0x100 EXP DUP2 SLOAD SWAP1 PUSH4 0xFFFFFFFF MUL NOT AND SWAP1 SSTORE POP POP PUSH2 0x32AA PUSH8 0xBB1C9082132B1E51 PUSH1 0xC0 SHL PUSH2 0x2E4E JUMP JUMPDEST PUSH2 0x32BE PUSH8 0x2E0F8B34A03771CC PUSH1 0xC0 SHL PUSH2 0x2E4E JUMP JUMPDEST PUSH2 0x3309 DUP7 DUP4 PUSH1 0x0 DUP1 SLOAD SWAP1 PUSH2 0x100 EXP SWAP1 DIV PUSH20 0xFFFFFFFFFFFFFFFFFFFFFFFFFFFFFFFFFFFFFFFF AND PUSH20 0xFFFFFFFFFFFFFFFFFFFFFFFFFFFFFFFFFFFFFFFF AND PUSH2 0x377F SWAP1 SWAP3 SWAP2 SWAP1 PUSH4 0xFFFFFFFF AND JUMP JUMPDEST PUSH2 0x331D PUSH8 0x59E2AE14DA7A54C4 PUSH1 0xC0 SHL PUSH2 0x2E4E JUMP JUMPDEST PUSH2 0x3331 PUSH8 0x5E8EAFBAF92E829D PUSH1 0xC0 SHL PUSH2 0x2E4E JUMP JUMPDEST DUP6 PUSH20 0xFFFFFFFFFFFFFFFFFFFFFFFFFFFFFFFFFFFFFFFF AND PUSH32 0x7084F5476618D8E60B11EF0D7D3F06914655ADB8793E28FF7F018D4C76D505D5 DUP4 PUSH1 0x40 MLOAD PUSH2 0x3377 SWAP2 SWAP1 PUSH2 0x3C10 JUMP JUMPDEST PUSH1 0x40 MLOAD DUP1 SWAP2 SUB SWAP1 LOG2 PUSH2 0x3393 PUSH8 0x7605B4F3C0008225 PUSH1 0xC0 SHL PUSH2 0x2E4E JUMP JUMPDEST PUSH2 0x33A7 PUSH8 0x85EDCDF512E23D28 PUSH1 0xC0 SHL PUSH2 0x2E4E JUMP JUMPDEST DUP6 PUSH20 0xFFFFFFFFFFFFFFFFFFFFFFFFFFFFFFFFFFFFFFFF AND PUSH32 0xE2403640BA68FED3A2F88B7557551D1993F84B99BB10FF833F0CF8DB0C5E0486 DUP3 PUSH1 0x40 MLOAD PUSH2 0x33ED SWAP2 SWAP1 PUSH2 0x3C10 JUMP JUMPDEST PUSH1 0x40 MLOAD DUP1 SWAP2 SUB SWAP1 LOG2 PUSH2 0x3409 PUSH8 0x23A6192E293FE0AA PUSH1 0xC0 SHL PUSH2 0x2E4E JUMP JUMPDEST PUSH2 0x341D PUSH8 0x26D46E14DFE6AD74 PUSH1 0xC0 SHL PUSH2 0x2E4E JUMP JUMPDEST PUSH1 0x0 PUSH2 0x3428 DUP8 PUSH2 0x1399 JUMP JUMPDEST SUB PUSH2 0x349D JUMPI PUSH2 0x3441 PUSH8 0x6F1EAB6EC8DB93BA PUSH1 0xC0 SHL PUSH2 0x2E4E JUMP JUMPDEST PUSH2 0x3455 PUSH8 0xD03B71ACC375F5D6 PUSH1 0xC0 SHL PUSH2 0x2E4E JUMP JUMPDEST PUSH1 0xB PUSH1 0x0 DUP8 PUSH20 0xFFFFFFFFFFFFFFFFFFFFFFFFFFFFFFFFFFFFFFFF AND PUSH20 0xFFFFFFFFFFFFFFFFFFFFFFFFFFFFFFFFFFFFFFFF AND DUP2 MSTORE PUSH1 0x20 ADD SWAP1 DUP2 MSTORE PUSH1 0x20 ADD PUSH1 0x0 KECCAK256 PUSH1 0x0 SWAP1 SSTORE PUSH2 0x34B2 JUMP JUMPDEST PUSH2 0x34B1 PUSH8 0x118E5ADC8390006 PUSH1 0xC0 SHL PUSH2 0x2E4E JUMP JUMPDEST JUMPDEST POP POP POP POP POP POP JUMP JUMPDEST PUSH1 0x0 PUSH2 0x34C4 PUSH2 0x389D JUMP JUMPDEST SWAP1 POP PUSH1 0x1 DUP2 PUSH1 0x0 ADD DUP2 SWAP1 SSTORE POP POP JUMP JUMPDEST PUSH2 0x34DB PUSH2 0x38C5 JUMP JUMPDEST PUSH1 0x0 PUSH2 0x34E5 PUSH2 0x3545 JUMP JUMPDEST SWAP1 POP PUSH1 0x0 DUP2 PUSH1 0x0 ADD PUSH1 0x0 PUSH2 0x100 EXP DUP2 SLOAD DUP2 PUSH1 0xFF MUL NOT AND SWAP1 DUP4 ISZERO ISZERO MUL OR SWAP1 SSTORE POP PUSH32 0x5DB9EE0A495BF2E6FF9C91A7834C1BA4FDD244A5E8AA4E537BD38AEAE4B073AA PUSH2 0x352D PUSH2 0x37FE JUMP JUMPDEST PUSH1 0x40 MLOAD PUSH2 0x353A SWAP2 SWAP1 PUSH2 0x4061 JUMP JUMPDEST PUSH1 0x40 MLOAD DUP1 SWAP2 SUB SWAP1 LOG1 POP JUMP JUMPDEST PUSH1 0x0 PUSH32 0xCD5ED15C6E187E77E9AEE88184C21F4F2182AB5827CB3B7E07FBEDCD63F03300 SWAP1 POP SWAP1 JUMP JUMPDEST PUSH1 0x0 PUSH32 0xF0C57E16840DF040F15088DC2F81FE391C3923BEC73E23A9662EFC9C229C6A00 SWAP1 POP SWAP1 JUMP JUMPDEST PUSH2 0x359D PUSH2 0x3905 JUMP JUMPDEST PUSH2 0x35A6 DUP2 PUSH2 0x3945 JUMP JUMPDEST POP JUMP JUMPDEST PUSH2 0x35B1 PUSH2 0x3905 JUMP JUMPDEST PUSH2 0x35B9 PUSH2 0x39CB JUMP JUMPDEST JUMP JUMPDEST PUSH2 0x35C3 PUSH2 0x3905 JUMP JUMPDEST PUSH2 0x35CB PUSH2 0x39FF JUMP JUMPDEST JUMP JUMPDEST PUSH1 0x0 PUSH2 0x35D7 PUSH2 0x3716 JUMP JUMPDEST SWAP1 POP PUSH1 0x0 DUP2 PUSH1 0x0 ADD PUSH1 0x0 SWAP1 SLOAD SWAP1 PUSH2 0x100 EXP SWAP1 DIV PUSH20 0xFFFFFFFFFFFFFFFFFFFFFFFFFFFFFFFFFFFFFFFF AND SWAP1 POP DUP3 DUP3 PUSH1 0x0 ADD PUSH1 0x0 PUSH2 0x100 EXP DUP2 SLOAD DUP2 PUSH20 0xFFFFFFFFFFFFFFFFFFFFFFFFFFFFFFFFFFFFFFFF MUL NOT AND SWAP1 DUP4 PUSH20 0xFFFFFFFFFFFFFFFFFFFFFFFFFFFFFFFFFFFFFFFF AND MUL OR SWAP1 SSTORE POP DUP3 PUSH20 0xFFFFFFFFFFFFFFFFFFFFFFFFFFFFFFFFFFFFFFFF AND DUP2 PUSH20 0xFFFFFFFFFFFFFFFFFFFFFFFFFFFFFFFFFFFFFFFF AND PUSH32 0x8BE0079C531659141344CD1FD0A4F28419497F9722A3DAAFE3B4186F6B6457E0 PUSH1 0x40 MLOAD PUSH1 0x40 MLOAD DUP1 SWAP2 SUB SWAP1 LOG3 POP POP POP JUMP JUMPDEST PUSH2 0x36AC PUSH2 0x373E JUMP JUMPDEST PUSH1 0x0 PUSH2 0x36B6 PUSH2 0x3545 JUMP JUMPDEST SWAP1 POP PUSH1 0x1 DUP2 PUSH1 0x0 ADD PUSH1 0x0 PUSH2 0x100 EXP DUP2 SLOAD DUP2 PUSH1 0xFF MUL NOT AND SWAP1 DUP4 ISZERO ISZERO MUL OR SWAP1 SSTORE POP PUSH32 0x62E78CEA01BEE320CD4E420270B5EA74000D11B0C9F74754EBDBFC544B05A258 PUSH2 0x36FE PUSH2 0x37FE JUMP JUMPDEST PUSH1 0x40 MLOAD PUSH2 0x370B SWAP2 SWAP1 PUSH2 0x4061 JUMP JUMPDEST PUSH1 0x40 MLOAD DUP1 SWAP2 SUB SWAP1 LOG1 POP JUMP JUMPDEST PUSH1 0x0 PUSH32 0x9016D09D72D40FDAE2FD8CEAC6B6234C7706214FD39C1CD1E609A0528C199300 SWAP1 POP SWAP1 JUMP JUMPDEST PUSH2 0x3746 PUSH2 0x16B3 JUMP JUMPDEST ISZERO PUSH2 0x377D JUMPI PUSH1 0x40 MLOAD PUSH32 0xD93C066500000000000000000000000000000000000000000000000000000000 DUP2 MSTORE PUSH1 0x4 ADD PUSH1 0x40 MLOAD DUP1 SWAP2 SUB SWAP1 REVERT JUMPDEST JUMP JUMPDEST PUSH2 0x37F9 DUP4 DUP5 PUSH20 0xFFFFFFFFFFFFFFFFFFFFFFFFFFFFFFFFFFFFFFFF AND PUSH4 0xA9059CBB DUP6 DUP6 PUSH1 0x40 MLOAD PUSH1 0x24 ADD PUSH2 0x37B2 SWAP3 SWAP2 SWAP1 PUSH2 0x43D4 JUMP JUMPDEST PUSH1 0x40 MLOAD PUSH1 0x20 DUP2 DUP4 SUB SUB DUP2 MSTORE SWAP1 PUSH1 0x40 MSTORE SWAP2 POP PUSH1 0xE0 SHL PUSH1 0x20 DUP3 ADD DUP1 MLOAD PUSH28 0xFFFFFFFFFFFFFFFFFFFFFFFFFFFFFFFFFFFFFFFFFFFFFFFFFFFFFFFF DUP4 DUP2 DUP4 AND OR DUP4 MSTORE POP POP POP POP PUSH2 0x3806 JUMP JUMPDEST POP POP POP JUMP JUMPDEST PUSH1 0x0 CALLER SWAP1 POP SWAP1 JUMP JUMPDEST PUSH1 0x0 PUSH2 0x3831 DUP3 DUP5 PUSH20 0xFFFFFFFFFFFFFFFFFFFFFFFFFFFFFFFFFFFFFFFF AND PUSH2 0x3A20 SWAP1 SWAP2 SWAP1 PUSH4 0xFFFFFFFF AND JUMP JUMPDEST SWAP1 POP PUSH1 0x0 DUP2 MLOAD EQ ISZERO DUP1 ISZERO PUSH2 0x3856 JUMPI POP DUP1 DUP1 PUSH1 0x20 ADD SWAP1 MLOAD DUP2 ADD SWAP1 PUSH2 0x3854 SWAP2 SWAP1 PUSH2 0x4412 JUMP JUMPDEST ISZERO JUMPDEST ISZERO PUSH2 0x3898 JUMPI DUP3 PUSH1 0x40 MLOAD PUSH32 0x5274AFE700000000000000000000000000000000000000000000000000000000 DUP2 MSTORE PUSH1 0x4 ADD PUSH2 0x388F SWAP2 SWAP1 PUSH2 0x4061 JUMP JUMPDEST PUSH1 0x40 MLOAD DUP1 SWAP2 SUB SWAP1 REVERT JUMPDEST POP POP POP JUMP JUMPDEST PUSH1 0x0 PUSH32 0x9B779B17422D0DF92223018B32B4D1FA46E071723D6817E2486D003BECC55F00 SWAP1 POP SWAP1 JUMP JUMPDEST PUSH2 0x38CD PUSH2 0x16B3 JUMP JUMPDEST PUSH2 0x3903 JUMPI PUSH1 0x40 MLOAD PUSH32 0x8DFC202B00000000000000000000000000000000000000000000000000000000 DUP2 MSTORE PUSH1 0x4 ADD PUSH1 0x40 MLOAD DUP1 SWAP2 SUB SWAP1 REVERT JUMPDEST JUMP JUMPDEST PUSH2 0x390D PUSH2 0x3A36 JUMP JUMPDEST PUSH2 0x3943 JUMPI PUSH1 0x40 MLOAD PUSH32 0xD7E6BCF800000000000000000000000000000000000000000000000000000000 DUP2 MSTORE PUSH1 0x4 ADD PUSH1 0x40 MLOAD DUP1 SWAP2 SUB SWAP1 REVERT JUMPDEST JUMP JUMPDEST PUSH2 0x394D PUSH2 0x3905 JUMP JUMPDEST PUSH1 0x0 PUSH20 0xFFFFFFFFFFFFFFFFFFFFFFFFFFFFFFFFFFFFFFFF AND DUP2 PUSH20 0xFFFFFFFFFFFFFFFFFFFFFFFFFFFFFFFFFFFFFFFF AND SUB PUSH2 0x39BF JUMPI PUSH1 0x0 PUSH1 0x40 MLOAD PUSH32 0x1E4FBDF700000000000000000000000000000000000000000000000000000000 DUP2 MSTORE PUSH1 0x4 ADD PUSH2 0x39B6 SWAP2 SWAP1 PUSH2 0x4061 JUMP JUMPDEST PUSH1 0x40 MLOAD DUP1 SWAP2 SUB SWAP1 REVERT JUMPDEST PUSH2 0x39C8 DUP2 PUSH2 0x35CD JUMP JUMPDEST POP JUMP JUMPDEST PUSH2 0x39D3 PUSH2 0x3905 JUMP JUMPDEST PUSH1 0x0 PUSH2 0x39DD PUSH2 0x3545 JUMP JUMPDEST SWAP1 POP PUSH1 0x0 DUP2 PUSH1 0x0 ADD PUSH1 0x0 PUSH2 0x100 EXP DUP2 SLOAD DUP2 PUSH1 0xFF MUL NOT AND SWAP1 DUP4 ISZERO ISZERO MUL OR SWAP1 SSTORE POP POP JUMP JUMPDEST PUSH2 0x3A07 PUSH2 0x3905 JUMP JUMPDEST PUSH1 0x0 PUSH2 0x3A11 PUSH2 0x389D JUMP JUMPDEST SWAP1 POP PUSH1 0x1 DUP2 PUSH1 0x0 ADD DUP2 SWAP1 SSTORE POP POP JUMP JUMPDEST PUSH1 0x60 PUSH2 0x3A2E DUP4 DUP4 PUSH1 0x0 PUSH2 0x3A56 JUMP JUMPDEST SWAP1 POP SWAP3 SWAP2 POP POP JUMP JUMPDEST PUSH1 0x0 PUSH2 0x3A40 PUSH2 0x356D JUMP JUMPDEST PUSH1 0x0 ADD PUSH1 0x8 SWAP1 SLOAD SWAP1 PUSH2 0x100 EXP SWAP1 DIV PUSH1 0xFF AND SWAP1 POP SWAP1 JUMP JUMPDEST PUSH1 0x60 DUP2 SELFBALANCE LT ISZERO PUSH2 0x3A9D JUMPI ADDRESS PUSH1 0x40 MLOAD PUSH32 0xCD78605900000000000000000000000000000000000000000000000000000000 DUP2 MSTORE PUSH1 0x4 ADD PUSH2 0x3A94 SWAP2 SWAP1 PUSH2 0x4061 JUMP JUMPDEST PUSH1 0x40 MLOAD DUP1 SWAP2 SUB SWAP1 REVERT JUMPDEST PUSH1 0x0 DUP1 DUP6 PUSH20 0xFFFFFFFFFFFFFFFFFFFFFFFFFFFFFFFFFFFFFFFF AND DUP5 DUP7 PUSH1 0x40 MLOAD PUSH2 0x3AC6 SWAP2 SWAP1 PUSH2 0x44B0 JUMP JUMPDEST PUSH1 0x0 PUSH1 0x40 MLOAD DUP1 DUP4 SUB DUP2 DUP6 DUP8 GAS CALL SWAP3 POP POP POP RETURNDATASIZE DUP1 PUSH1 0x0 DUP2 EQ PUSH2 0x3B03 JUMPI PUSH1 0x40 MLOAD SWAP2 POP PUSH1 0x1F NOT PUSH1 0x3F RETURNDATASIZE ADD AND DUP3 ADD PUSH1 0x40 MSTORE RETURNDATASIZE DUP3 MSTORE RETURNDATASIZE PUSH1 0x0 PUSH1 0x20 DUP5 ADD RETURNDATACOPY PUSH2 0x3B08 JUMP JUMPDEST PUSH1 0x60 SWAP2 POP JUMPDEST POP SWAP2 POP SWAP2 POP PUSH2 0x3B18 DUP7 DUP4 DUP4 PUSH2 0x3B23 JUMP JUMPDEST SWAP3 POP POP POP SWAP4 SWAP3 POP POP POP JUMP JUMPDEST PUSH1 0x60 DUP3 PUSH2 0x3B38 JUMPI PUSH2 0x3B33 DUP3 PUSH2 0x3BB2 JUMP JUMPDEST PUSH2 0x3BAA JUMP JUMPDEST PUSH1 0x0 DUP3 MLOAD EQ DUP1 ISZERO PUSH2 0x3B60 JUMPI POP PUSH1 0x0 DUP5 PUSH20 0xFFFFFFFFFFFFFFFFFFFFFFFFFFFFFFFFFFFFFFFF AND EXTCODESIZE EQ JUMPDEST ISZERO PUSH2 0x3BA2 JUMPI DUP4 PUSH1 0x40 MLOAD PUSH32 0x9996B31500000000000000000000000000000000000000000000000000000000 DUP2 MSTORE PUSH1 0x4 ADD PUSH2 0x3B99 SWAP2 SWAP1 PUSH2 0x4061 JUMP JUMPDEST PUSH1 0x40 MLOAD DUP1 SWAP2 SUB SWAP1 REVERT JUMPDEST DUP2 SWAP1 POP PUSH2 0x3BAB JUMP JUMPDEST JUMPDEST SWAP4 SWAP3 POP POP POP JUMP JUMPDEST PUSH1 0x0 DUP2 MLOAD GT ISZERO PUSH2 0x3BC5 JUMPI DUP1 MLOAD DUP1 DUP3 PUSH1 0x20 ADD REVERT JUMPDEST PUSH1 0x40 MLOAD PUSH32 0x1425EA4200000000000000000000000000000000000000000000000000000000 DUP2 MSTORE PUSH1 0x4 ADD PUSH1 0x40 MLOAD DUP1 SWAP2 SUB SWAP1 REVERT JUMPDEST PUSH1 0x0 DUP2 SWAP1 POP SWAP2 SWAP1 POP JUMP JUMPDEST PUSH2 0x3C0A DUP2 PUSH2 0x3BF7 JUMP JUMPDEST DUP3 MSTORE POP POP JUMP JUMPDEST PUSH1 0x0 PUSH1 0x20 DUP3 ADD SWAP1 POP PUSH2 0x3C25 PUSH1 0x0 DUP4 ADD DUP5 PUSH2 0x3C01 JUMP JUMPDEST SWAP3 SWAP2 POP POP JUMP JUMPDEST PUSH1 0x0 DUP1 REVERT JUMPDEST PUSH1 0x0 PUSH20 0xFFFFFFFFFFFFFFFFFFFFFFFFFFFFFFFFFFFFFFFF DUP3 AND SWAP1 POP SWAP2 SWAP1 POP JUMP JUMPDEST PUSH1 0x0 PUSH2 0x3C5B DUP3 PUSH2 0x3C30 JUMP JUMPDEST SWAP1 POP SWAP2 SWAP1 POP JUMP JUMPDEST PUSH2 0x3C6B DUP2 PUSH2 0x3C50 JUMP JUMPDEST DUP2 EQ PUSH2 0x3C76 JUMPI PUSH1 0x0 DUP1 REVERT JUMPDEST POP JUMP JUMPDEST PUSH1 0x0 DUP2 CALLDATALOAD SWAP1 POP PUSH2 0x3C88 DUP2 PUSH2 0x3C62 JUMP JUMPDEST SWAP3 SWAP2 POP POP JUMP JUMPDEST PUSH1 0x0 PUSH1 0x20 DUP3 DUP5 SUB SLT ISZERO PUSH2 0x3CA4 JUMPI PUSH2 0x3CA3 PUSH2 0x3C2B JUMP JUMPDEST JUMPDEST PUSH1 0x0 PUSH2 0x3CB2 DUP5 DUP3 DUP6 ADD PUSH2 0x3C79 JUMP JUMPDEST SWAP2 POP POP SWAP3 SWAP2 POP POP JUMP JUMPDEST PUSH1 0x0 DUP2 ISZERO ISZERO SWAP1 POP SWAP2 SWAP1 POP JUMP JUMPDEST PUSH2 0x3CD0 DUP2 PUSH2 0x3CBB JUMP JUMPDEST DUP3 MSTORE POP POP JUMP JUMPDEST PUSH1 0x0 PUSH1 0x20 DUP3 ADD SWAP1 POP PUSH2 0x3CEB PUSH1 0x0 DUP4 ADD DUP5 PUSH2 0x3CC7 JUMP JUMPDEST SWAP3 SWAP2 POP POP JUMP JUMPDEST PUSH2 0x3CFA DUP2 PUSH2 0x3BF7 JUMP JUMPDEST DUP2 EQ PUSH2 0x3D05 JUMPI PUSH1 0x0 DUP1 REVERT JUMPDEST POP JUMP JUMPDEST PUSH1 0x0 DUP2 CALLDATALOAD SWAP1 POP PUSH2 0x3D17 DUP2 PUSH2 0x3CF1 JUMP JUMPDEST SWAP3 SWAP2 POP POP JUMP JUMPDEST PUSH1 0x0 PUSH1 0x20 DUP3 DUP5 SUB SLT ISZERO PUSH2 0x3D33 JUMPI PUSH2 0x3D32 PUSH2 0x3C2B JUMP JUMPDEST JUMPDEST PUSH1 0x0 PUSH2 0x3D41 DUP5 DUP3 DUP6 ADD PUSH2 0x3D08 JUMP JUMPDEST SWAP2 POP POP SWAP3 SWAP2 POP POP JUMP JUMPDEST PUSH1 0x0 DUP1 PUSH1 0x0 DUP1 PUSH1 0x0 DUP1 PUSH1 0xC0 DUP8 DUP10 SUB SLT ISZERO PUSH2 0x3D67 JUMPI PUSH2 0x3D66 PUSH2 0x3C2B JUMP JUMPDEST JUMPDEST PUSH1 0x0 PUSH2 0x3D75 DUP10 DUP3 DUP11 ADD PUSH2 0x3D08 JUMP JUMPDEST SWAP7 POP POP PUSH1 0x20 PUSH2 0x3D86 DUP10 DUP3 DUP11 ADD PUSH2 0x3D08 JUMP JUMPDEST SWAP6 POP POP PUSH1 0x40 PUSH2 0x3D97 DUP10 DUP3 DUP11 ADD PUSH2 0x3D08 JUMP JUMPDEST SWAP5 POP POP PUSH1 0x60 PUSH2 0x3DA8 DUP10 DUP3 DUP11 ADD PUSH2 0x3D08 JUMP JUMPDEST SWAP4 POP POP PUSH1 0x80 PUSH2 0x3DB9 DUP10 DUP3 DUP11 ADD PUSH2 0x3D08 JUMP JUMPDEST SWAP3 POP POP PUSH1 0xA0 PUSH2 0x3DCA DUP10 DUP3 DUP11 ADD PUSH2 0x3D08 JUMP JUMPDEST SWAP2 POP POP SWAP3 SWAP6 POP SWAP3 SWAP6 POP SWAP3 SWAP6 JUMP JUMPDEST PUSH1 0x0 DUP1 PUSH1 0x0 PUSH1 0x60 DUP5 DUP7 SUB SLT ISZERO PUSH2 0x3DF0 JUMPI PUSH2 0x3DEF PUSH2 0x3C2B JUMP JUMPDEST JUMPDEST PUSH1 0x0 PUSH2 0x3DFE DUP7 DUP3 DUP8 ADD PUSH2 0x3D08 JUMP JUMPDEST SWAP4 POP POP PUSH1 0x20 PUSH2 0x3E0F DUP7 DUP3 DUP8 ADD PUSH2 0x3D08 JUMP JUMPDEST SWAP3 POP POP PUSH1 0x40 PUSH2 0x3E20 DUP7 DUP3 DUP8 ADD PUSH2 0x3D08 JUMP JUMPDEST SWAP2 POP POP SWAP3 POP SWAP3 POP SWAP3 JUMP JUMPDEST PUSH1 0x0 PUSH4 0xFFFFFFFF DUP3 AND SWAP1 POP SWAP2 SWAP1 POP JUMP JUMPDEST PUSH2 0x3E43 DUP2 PUSH2 0x3E2A JUMP JUMPDEST DUP2 EQ PUSH2 0x3E4E JUMPI PUSH1 0x0 DUP1 REVERT JUMPDEST POP JUMP JUMPDEST PUSH1 0x0 DUP2 CALLDATALOAD SWAP1 POP PUSH2 0x3E60 DUP2 PUSH2 0x3E3A JUMP JUMPDEST SWAP3 SWAP2 POP POP JUMP JUMPDEST PUSH2 0x3E6F DUP2 PUSH2 0x3CBB JUMP JUMPDEST DUP2 EQ PUSH2 0x3E7A JUMPI PUSH1 0x0 DUP1 REVERT JUMPDEST POP JUMP JUMPDEST PUSH1 0x0 DUP2 CALLDATALOAD SWAP1 POP PUSH2 0x3E8C DUP2 PUSH2 0x3E66 JUMP JUMPDEST SWAP3 SWAP2 POP POP JUMP JUMPDEST PUSH1 0x0 DUP1 PUSH1 0x0 DUP1 PUSH1 0x0 DUP1 PUSH1 0x0 DUP1 PUSH1 0x0 DUP1 PUSH2 0x140 DUP12 DUP14 SUB SLT ISZERO PUSH2 0x3EB6 JUMPI PUSH2 0x3EB5 PUSH2 0x3C2B JUMP JUMPDEST JUMPDEST PUSH1 0x0 PUSH2 0x3EC4 DUP14 DUP3 DUP15 ADD PUSH2 0x3C79 JUMP JUMPDEST SWAP11 POP POP PUSH1 0x20 PUSH2 0x3ED5 DUP14 DUP3 DUP15 ADD PUSH2 0x3C79 JUMP JUMPDEST SWAP10 POP POP PUSH1 0x40 PUSH2 0x3EE6 DUP14 DUP3 DUP15 ADD PUSH2 0x3E51 JUMP JUMPDEST SWAP9 POP POP PUSH1 0x60 PUSH2 0x3EF7 DUP14 DUP3 DUP15 ADD PUSH2 0x3D08 JUMP JUMPDEST SWAP8 POP POP PUSH1 0x80 PUSH2 0x3F08 DUP14 DUP3 DUP15 ADD PUSH2 0x3D08 JUMP JUMPDEST SWAP7 POP POP PUSH1 0xA0 PUSH2 0x3F19 DUP14 DUP3 DUP15 ADD PUSH2 0x3D08 JUMP JUMPDEST SWAP6 POP POP PUSH1 0xC0 PUSH2 0x3F2A DUP14 DUP3 DUP15 ADD PUSH2 0x3D08 JUMP JUMPDEST SWAP5 POP POP PUSH1 0xE0 PUSH2 0x3F3B DUP14 DUP3 DUP15 ADD PUSH2 0x3D08 JUMP JUMPDEST SWAP4 POP POP PUSH2 0x100 PUSH2 0x3F4D DUP14 DUP3 DUP15 ADD PUSH2 0x3D08 JUMP JUMPDEST SWAP3 POP POP PUSH2 0x120 PUSH2 0x3F5F DUP14 DUP3 DUP15 ADD PUSH2 0x3E7D JUMP JUMPDEST SWAP2 POP POP SWAP3 SWAP6 SWAP9 SWAP12 SWAP2 SWAP5 SWAP8 SWAP11 POP SWAP3 SWAP6 SWAP9 POP JUMP JUMPDEST PUSH1 0x0 DUP2 SWAP1 POP SWAP2 SWAP1 POP JUMP JUMPDEST PUSH1 0x0 PUSH2 0x3F96 PUSH2 0x3F91 PUSH2 0x3F8C DUP5 PUSH2 0x3C30 JUMP JUMPDEST PUSH2 0x3F71 JUMP JUMPDEST PUSH2 0x3C30 JUMP JUMPDEST SWAP1 POP SWAP2 SWAP1 POP JUMP JUMPDEST PUSH1 0x0 PUSH2 0x3FA8 DUP3 PUSH2 0x3F7B JUMP JUMPDEST SWAP1 POP SWAP2 SWAP1 POP JUMP JUMPDEST PUSH1 0x0 PUSH2 0x3FBA DUP3 PUSH2 0x3F9D JUMP JUMPDEST SWAP1 POP SWAP2 SWAP1 POP JUMP JUMPDEST PUSH2 0x3FCA DUP2 PUSH2 0x3FAF JUMP JUMPDEST DUP3 MSTORE POP POP JUMP JUMPDEST PUSH1 0x0 PUSH1 0x20 DUP3 ADD SWAP1 POP PUSH2 0x3FE5 PUSH1 0x0 DUP4 ADD DUP5 PUSH2 0x3FC1 JUMP JUMPDEST SWAP3 SWAP2 POP POP JUMP JUMPDEST PUSH1 0x0 DUP1 PUSH1 0x0 DUP1 PUSH1 0x80 DUP6 DUP8 SUB SLT ISZERO PUSH2 0x4005 JUMPI PUSH2 0x4004 PUSH2 0x3C2B JUMP JUMPDEST JUMPDEST PUSH1 0x0 PUSH2 0x4013 DUP8 DUP3 DUP9 ADD PUSH2 0x3D08 JUMP JUMPDEST SWAP5 POP POP PUSH1 0x20 PUSH2 0x4024 DUP8 DUP3 DUP9 ADD PUSH2 0x3D08 JUMP JUMPDEST SWAP4 POP POP PUSH1 0x40 PUSH2 0x4035 DUP8 DUP3 DUP9 ADD PUSH2 0x3D08 JUMP JUMPDEST SWAP3 POP POP PUSH1 0x60 PUSH2 0x4046 DUP8 DUP3 DUP9 ADD PUSH2 0x3D08 JUMP JUMPDEST SWAP2 POP POP SWAP3 SWAP6 SWAP2 SWAP5 POP SWAP3 POP JUMP JUMPDEST PUSH2 0x405B DUP2 PUSH2 0x3C50 JUMP JUMPDEST DUP3 MSTORE POP POP JUMP JUMPDEST PUSH1 0x0 PUSH1 0x20 DUP3 ADD SWAP1 POP PUSH2 0x4076 PUSH1 0x0 DUP4 ADD DUP5 PUSH2 0x4052 JUMP JUMPDEST SWAP3 SWAP2 POP POP JUMP JUMPDEST PUSH1 0x0 DUP1 PUSH1 0x40 DUP4 DUP6 SUB SLT ISZERO PUSH2 0x4093 JUMPI PUSH2 0x4092 PUSH2 0x3C2B JUMP JUMPDEST JUMPDEST PUSH1 0x0 PUSH2 0x40A1 DUP6 DUP3 DUP7 ADD PUSH2 0x3C79 JUMP JUMPDEST SWAP3 POP POP PUSH1 0x20 PUSH2 0x40B2 DUP6 DUP3 DUP7 ADD PUSH2 0x3D08 JUMP JUMPDEST SWAP2 POP POP SWAP3 POP SWAP3 SWAP1 POP JUMP JUMPDEST PUSH2 0x40C5 DUP2 PUSH2 0x3E2A JUMP JUMPDEST DUP3 MSTORE POP POP JUMP JUMPDEST PUSH1 0x0 PUSH2 0x100 DUP3 ADD SWAP1 POP PUSH2 0x40E1 PUSH1 0x0 DUP4 ADD DUP12 PUSH2 0x3C01 JUMP JUMPDEST PUSH2 0x40EE PUSH1 0x20 DUP4 ADD DUP11 PUSH2 0x40BC JUMP JUMPDEST PUSH2 0x40FB PUSH1 0x40 DUP4 ADD DUP10 PUSH2 0x40BC JUMP JUMPDEST PUSH2 0x4108 PUSH1 0x60 DUP4 ADD DUP9 PUSH2 0x3CC7 JUMP JUMPDEST PUSH2 0x4115 PUSH1 0x80 DUP4 ADD DUP8 PUSH2 0x3C01 JUMP JUMPDEST PUSH2 0x4122 PUSH1 0xA0 DUP4 ADD DUP7 PUSH2 0x3C01 JUMP JUMPDEST PUSH2 0x412F PUSH1 0xC0 DUP4 ADD DUP6 PUSH2 0x3C01 JUMP JUMPDEST PUSH2 0x413C PUSH1 0xE0 DUP4 ADD DUP5 PUSH2 0x40BC JUMP JUMPDEST SWAP10 SWAP9 POP POP POP POP POP POP POP POP POP JUMP JUMPDEST PUSH32 0x4E487B7100000000000000000000000000000000000000000000000000000000 PUSH1 0x0 MSTORE PUSH1 0x11 PUSH1 0x4 MSTORE PUSH1 0x24 PUSH1 0x0 REVERT JUMPDEST PUSH1 0x0 PUSH2 0x4183 DUP3 PUSH2 0x3BF7 JUMP JUMPDEST SWAP2 POP PUSH2 0x418E DUP4 PUSH2 0x3BF7 JUMP JUMPDEST SWAP3 POP DUP3 DUP3 ADD SWAP1 POP DUP1 DUP3 GT ISZERO PUSH2 0x41A6 JUMPI PUSH2 0x41A5 PUSH2 0x4149 JUMP JUMPDEST JUMPDEST SWAP3 SWAP2 POP POP JUMP JUMPDEST PUSH1 0x0 PUSH2 0x41B7 DUP3 PUSH2 0x3BF7 JUMP JUMPDEST SWAP2 POP PUSH2 0x41C2 DUP4 PUSH2 0x3BF7 JUMP JUMPDEST SWAP3 POP DUP3 DUP3 MUL PUSH2 0x41D0 DUP2 PUSH2 0x3BF7 JUMP JUMPDEST SWAP2 POP DUP3 DUP3 DIV DUP5 EQ DUP4 ISZERO OR PUSH2 0x41E7 JUMPI PUSH2 0x41E6 PUSH2 0x4149 JUMP JUMPDEST JUMPDEST POP SWAP3 SWAP2 POP POP JUMP JUMPDEST PUSH32 0x4E487B7100000000000000000000000000000000000000000000000000000000 PUSH1 0x0 MSTORE PUSH1 0x12 PUSH1 0x4 MSTORE PUSH1 0x24 PUSH1 0x0 REVERT JUMPDEST PUSH1 0x0 PUSH2 0x4228 DUP3 PUSH2 0x3BF7 JUMP JUMPDEST SWAP2 POP PUSH2 0x4233 DUP4 PUSH2 0x3BF7 JUMP JUMPDEST SWAP3 POP DUP3 PUSH2 0x4243 JUMPI PUSH2 0x4242 PUSH2 0x41EE JUMP JUMPDEST JUMPDEST DUP3 DUP3 DIV SWAP1 POP SWAP3 SWAP2 POP POP JUMP JUMPDEST PUSH1 0x0 PUSH2 0x4259 DUP3 PUSH2 0x3BF7 JUMP JUMPDEST SWAP2 POP PUSH2 0x4264 DUP4 PUSH2 0x3BF7 JUMP JUMPDEST SWAP3 POP DUP3 DUP3 SUB SWAP1 POP DUP2 DUP2 GT ISZERO PUSH2 0x427C JUMPI PUSH2 0x427B PUSH2 0x4149 JUMP JUMPDEST JUMPDEST SWAP3 SWAP2 POP POP JUMP JUMPDEST PUSH1 0x0 PUSH2 0x428D DUP3 PUSH2 0x3E2A JUMP JUMPDEST SWAP2 POP PUSH2 0x4298 DUP4 PUSH2 0x3E2A JUMP JUMPDEST SWAP3 POP DUP3 DUP3 ADD SWAP1 POP PUSH4 0xFFFFFFFF DUP2 GT ISZERO PUSH2 0x42B4 JUMPI PUSH2 0x42B3 PUSH2 0x4149 JUMP JUMPDEST JUMPDEST SWAP3 SWAP2 POP POP JUMP JUMPDEST PUSH1 0x0 PUSH2 0x42C5 DUP3 PUSH2 0x3E2A JUMP JUMPDEST SWAP2 POP PUSH2 0x42D0 DUP4 PUSH2 0x3E2A JUMP JUMPDEST SWAP3 POP DUP3 PUSH2 0x42E0 JUMPI PUSH2 0x42DF PUSH2 0x41EE JUMP JUMPDEST JUMPDEST DUP3 DUP3 DIV SWAP1 POP SWAP3 SWAP2 POP POP JUMP JUMPDEST PUSH1 0x0 DUP2 SWAP1 POP SWAP2 SWAP1 POP JUMP JUMPDEST PUSH1 0x0 PUSH8 0xFFFFFFFFFFFFFFFF DUP3 AND SWAP1 POP SWAP2 SWAP1 POP JUMP JUMPDEST PUSH1 0x0 PUSH2 0x4324 PUSH2 0x431F PUSH2 0x431A DUP5 PUSH2 0x42EB JUMP JUMPDEST PUSH2 0x3F71 JUMP JUMPDEST PUSH2 0x42F5 JUMP JUMPDEST SWAP1 POP SWAP2 SWAP1 POP JUMP JUMPDEST PUSH2 0x4334 DUP2 PUSH2 0x4309 JUMP JUMPDEST DUP3 MSTORE POP POP JUMP JUMPDEST PUSH1 0x0 PUSH1 0x20 DUP3 ADD SWAP1 POP PUSH2 0x434F PUSH1 0x0 DUP4 ADD DUP5 PUSH2 0x432B JUMP JUMPDEST SWAP3 SWAP2 POP POP JUMP JUMPDEST PUSH1 0x0 PUSH2 0x4360 DUP3 PUSH2 0x3BF7 JUMP JUMPDEST SWAP2 POP PUSH32 0xFFFFFFFFFFFFFFFFFFFFFFFFFFFFFFFFFFFFFFFFFFFFFFFFFFFFFFFFFFFFFFFF DUP3 SUB PUSH2 0x4392 JUMPI PUSH2 0x4391 PUSH2 0x4149 JUMP JUMPDEST JUMPDEST PUSH1 0x1 DUP3 ADD SWAP1 POP SWAP2 SWAP1 POP JUMP JUMPDEST PUSH1 0x0 PUSH1 0x60 DUP3 ADD SWAP1 POP PUSH2 0x43B2 PUSH1 0x0 DUP4 ADD DUP7 PUSH2 0x4052 JUMP JUMPDEST PUSH2 0x43BF PUSH1 0x20 DUP4 ADD DUP6 PUSH2 0x4052 JUMP JUMPDEST PUSH2 0x43CC PUSH1 0x40 DUP4 ADD DUP5 PUSH2 0x3C01 JUMP JUMPDEST SWAP5 SWAP4 POP POP POP POP JUMP JUMPDEST PUSH1 0x0 PUSH1 0x40 DUP3 ADD SWAP1 POP PUSH2 0x43E9 PUSH1 0x0 DUP4 ADD DUP6 PUSH2 0x4052 JUMP JUMPDEST PUSH2 0x43F6 PUSH1 0x20 DUP4 ADD DUP5 PUSH2 0x3C01 JUMP JUMPDEST SWAP4 SWAP3 POP POP POP JUMP JUMPDEST PUSH1 0x0 DUP2 MLOAD SWAP1 POP PUSH2 0x440C DUP2 PUSH2 0x3E66 JUMP JUMPDEST SWAP3 SWAP2 POP POP JUMP JUMPDEST PUSH1 0x0 PUSH1 0x20 DUP3 DUP5 SUB SLT ISZERO PUSH2 0x4428 JUMPI PUSH2 0x4427 PUSH2 0x3C2B JUMP JUMPDEST JUMPDEST PUSH1 0x0 PUSH2 0x4436 DUP5 DUP3 DUP6 ADD PUSH2 0x43FD JUMP JUMPDEST SWAP2 POP POP SWAP3 SWAP2 POP POP JUMP JUMPDEST PUSH1 0x0 DUP2 MLOAD SWAP1 POP SWAP2 SWAP1 POP JUMP JUMPDEST PUSH1 0x0 DUP2 SWAP1 POP SWAP3 SWAP2 POP POP JUMP JUMPDEST PUSH1 0x0 JUMPDEST DUP4 DUP2 LT ISZERO PUSH2 0x4473 JUMPI DUP1 DUP3 ADD MLOAD DUP2 DUP5 ADD MSTORE PUSH1 0x20 DUP2 ADD SWAP1 POP PUSH2 0x4458 JUMP JUMPDEST PUSH1 0x0 DUP5 DUP5 ADD MSTORE POP POP POP POP JUMP JUMPDEST PUSH1 0x0 PUSH2 0x448A DUP3 PUSH2 0x443F JUMP JUMPDEST PUSH2 0x4494 DUP2 DUP6 PUSH2 0x444A JUMP JUMPDEST SWAP4 POP PUSH2 0x44A4 DUP2 DUP6 PUSH1 0x20 DUP7 ADD PUSH2 0x4455 JUMP JUMPDEST DUP1 DUP5 ADD SWAP2 POP POP SWAP3 SWAP2 POP POP JUMP JUMPDEST PUSH1 0x0 PUSH2 0x44BC DUP3 DUP5 PUSH2 0x447F JUMP JUMPDEST SWAP2 POP DUP2 SWAP1 POP SWAP3 SWAP2 POP POP JUMP INVALID LOG2 PUSH5 0x6970667358 0x22 SLT KECCAK256 0x2A JUMPI DUP10 PUSH17 0x4B4C5B7AC4ACE5C61B06D2A8C7DA11F817 DUP9 KECCAK256 0x2A CREATE2 DUP14 PUSH19 0x970A62204E64736F6C63430008140033000000 "},"methodIdentifiers":{"addToWhitelist(address)":"e43252d7","calculateTax(uint256,uint256,uint256,uint256)":"75713079","calculateTotalWithdraw(uint256,uint256,uint256,uint256,uint256,uint256)":"22e76837","calculateYield(uint256,uint256,uint256)":"2319b256","claim(uint256)":"379607f5","cooldownPeriod()":"04646a49","depositRewardTokens(uint256)":"16c621e0","disableWhitelist()":"d6b0f484","enableWhitelist()":"cdfb2b4e","getTotalStakedForUser(address)":"3b42ffcf","initialize(address,address,uint32,uint256,uint256,uint256,uint256,uint256,uint256,bool)":"6c03d853","maxCap()":"23548b8b","minCap()":"3fa615b0","monthlyIncreasePercentage()":"29161479","monthsInStakingPeriod()":"6f629512","owner()":"8da5cb5b","pause()":"8456cb59","paused()":"5c975abb","pendingRewards()":"eded3fda","removeFromWhitelist(address)":"8ab1d681","renounceOwnership()":"715018a6","rewardPool()":"66666aa9","stake(uint256)":"a694fc3a","stakingDuration()":"8005a7de","stakingToken()":"72f702f3","startingSlashingPoint()":"0b7ead4a","totalStaked()":"817b1cd2","transferOwnership(address)":"f2fde38b","unpause()":"3f4ba83a","unstake(uint256)":"2e17de78","updateCooldownPeriod(uint256)":"861f6bfd","updateMaxCap(uint256)":"e81ba080","updateMinCap(uint256)":"bcaabf6c","updateMonthlyIncreasePercentage(uint256)":"b3c55721","updateStakingDuration(uint256)":"5b1d7086","updateStartingSlashingPoint(uint256)":"e6d24866","updateYieldConstant(uint256)":"36c1105a","userStakeCounter(address)":"5678b024","userStakes(address,uint256)":"b5d5b5fa","whitelistEnabled()":"51fb012d","whitelistedAddresses(address)":"06c933d8","withdrawRewardTokens(uint256)":"cb43b2dd","yieldConstant()":"7a65cd0b"}},"storageLayout":{"storage":[{"astId":1869,"contract":"contracts/Staking.sol:Staking","label":"stakingToken","offset":0,"slot":"0","type":"t_contract(IERC20)877"},{"astId":1872,"contract":"contracts/Staking.sol:Staking","label":"stakingDuration","offset":0,"slot":"1","type":"t_uint256"},{"astId":1875,"contract":"contracts/Staking.sol:Staking","label":"minCap","offset":0,"slot":"2","type":"t_uint256"},{"astId":1878,"contract":"contracts/Staking.sol:Staking","label":"maxCap","offset":0,"slot":"3","type":"t_uint256"},{"astId":1881,"contract":"contracts/Staking.sol:Staking","label":"yieldConstant","offset":0,"slot":"4","type":"t_uint256"},{"astId":1884,"contract":"contracts/Staking.sol:Staking","label":"cooldownPeriod","offset":0,"slot":"5","type":"t_uint256"},{"astId":1887,"contract":"contracts/Staking.sol:Staking","label":"monthsInStakingPeriod","offset":0,"slot":"6","type":"t_uint256"},{"astId":1890,"contract":"contracts/Staking.sol:Staking","label":"startingSlashingPoint","offset":0,"slot":"7","type":"t_uint256"},{"astId":1893,"contract":"contracts/Staking.sol:Staking","label":"monthlyIncreasePercentage","offset":0,"slot":"8","type":"t_uint256"},{"astId":1896,"contract":"contracts/Staking.sol:Staking","label":"whitelistEnabled","offset":0,"slot":"9","type":"t_bool"},{"astId":1922,"contract":"contracts/Staking.sol:Staking","label":"userStakes","offset":0,"slot":"10","type":"t_mapping(t_address,t_mapping(t_uint256,t_struct(Stake)1914_storage))"},{"astId":1927,"contract":"contracts/Staking.sol:Staking","label":"userStakeCounter","offset":0,"slot":"11","type":"t_mapping(t_address,t_uint256)"},{"astId":1932,"contract":"contracts/Staking.sol:Staking","label":"whitelistedAddresses","offset":0,"slot":"12","type":"t_mapping(t_address,t_bool)"},{"astId":1935,"contract":"contracts/Staking.sol:Staking","label":"_totalStaked","offset":0,"slot":"13","type":"t_uint256"},{"astId":1938,"contract":"contracts/Staking.sol:Staking","label":"_rewardPool","offset":0,"slot":"14","type":"t_uint256"},{"astId":1941,"contract":"contracts/Staking.sol:Staking","label":"_totalPendingRewards","offset":0,"slot":"15","type":"t_uint256"}],"types":{"t_address":{"encoding":"inplace","label":"address","numberOfBytes":"20"},"t_bool":{"encoding":"inplace","label":"bool","numberOfBytes":"1"},"t_contract(IERC20)877":{"encoding":"inplace","label":"contract IERC20","numberOfBytes":"20"},"t_mapping(t_address,t_bool)":{"encoding":"mapping","key":"t_address","label":"mapping(address => bool)","numberOfBytes":"32","value":"t_bool"},"t_mapping(t_address,t_mapping(t_uint256,t_struct(Stake)1914_storage))":{"encoding":"mapping","key":"t_address","label":"mapping(address => mapping(uint256 => struct Staking.Stake))","numberOfBytes":"32","value":"t_mapping(t_uint256,t_struct(Stake)1914_storage)"},"t_mapping(t_address,t_uint256)":{"encoding":"mapping","key":"t_address","label":"mapping(address => uint256)","numberOfBytes":"32","value":"t_uint256"},"t_mapping(t_uint256,t_struct(Stake)1914_storage)":{"encoding":"mapping","key":"t_uint256","label":"mapping(uint256 => struct Staking.Stake)","numberOfBytes":"32","value":"t_struct(Stake)1914_storage"},"t_struct(Stake)1914_storage":{"encoding":"inplace","label":"struct Staking.Stake","members":[{"astId":1899,"contract":"contracts/Staking.sol:Staking","label":"amount","offset":0,"slot":"0","type":"t_uint256"},{"astId":1901,"contract":"contracts/Staking.sol:Staking","label":"startTime","offset":0,"slot":"1","type":"t_uint32"},{"astId":1903,"contract":"contracts/Staking.sol:Staking","label":"requestUnstakeTime","offset":4,"slot":"1","type":"t_uint32"},{"astId":1905,"contract":"contracts/Staking.sol:Staking","label":"unstakeRequested","offset":8,"slot":"1","type":"t_bool"},{"astId":1907,"contract":"contracts/Staking.sol:Staking","label":"yieldConstant","offset":0,"slot":"2","type":"t_uint256"},{"astId":1909,"contract":"contracts/Staking.sol:Staking","label":"monthlyIncreasePercentage","offset":0,"slot":"3","type":"t_uint256"},{"astId":1911,"contract":"contracts/Staking.sol:Staking","label":"startingSlashingPoint","offset":0,"slot":"4","type":"t_uint256"},{"astId":1913,"contract":"contracts/Staking.sol:Staking","label":"stakingDuration","offset":0,"slot":"5","type":"t_uint32"}],"numberOfBytes":"192"},"t_uint256":{"encoding":"inplace","label":"uint256","numberOfBytes":"32"},"t_uint32":{"encoding":"inplace","label":"uint32","numberOfBytes":"4"}}}}}}