{"contracts/Staking.sol":{"Staking":{"abi":[{"inputs":[],"name":"EnforcedPause","type":"error"},{"inputs":[],"name":"ExpectedPause","type":"error"},{"inputs":[],"name":"InvalidInitialization","type":"error"},{"inputs":[],"name":"NotInitializing","type":"error"},{"inputs":[{"internalType":"address","name":"owner","type":"address"}],"name":"OwnableInvalidOwner","type":"error"},{"inputs":[{"internalType":"address","name":"account","type":"address"}],"name":"OwnableUnauthorizedAccount","type":"error"},{"inputs":[],"name":"ReentrancyGuardReentrantCall","type":"error"},{"anonymous":false,"inputs":[{"indexed":true,"internalType":"address","name":"owner","type":"address"},{"indexed":false,"internalType":"uint256","name":"amount","type":"uint256"}],"name":"Deposit","type":"event"},{"anonymous":false,"inputs":[{"indexed":false,"internalType":"uint64","name":"version","type":"uint64"}],"name":"Initialized","type":"event"},{"anonymous":false,"inputs":[{"indexed":true,"internalType":"address","name":"previousOwner","type":"address"},{"indexed":true,"internalType":"address","name":"newOwner","type":"address"}],"name":"OwnershipTransferred","type":"event"},{"anonymous":false,"inputs":[{"indexed":false,"internalType":"address","name":"account","type":"address"}],"name":"Paused","type":"event"},{"anonymous":false,"inputs":[{"indexed":true,"internalType":"address","name":"user","type":"address"},{"indexed":false,"internalType":"uint256","name":"reward","type":"uint256"}],"name":"RewardPaid","type":"event"},{"anonymous":false,"inputs":[{"indexed":true,"internalType":"address","name":"user","type":"address"},{"indexed":false,"internalType":"uint256","name":"amount","type":"uint256"}],"name":"Staked","type":"event"},{"anonymous":false,"inputs":[{"indexed":false,"internalType":"address","name":"account","type":"address"}],"name":"Unpaused","type":"event"},{"anonymous":false,"inputs":[{"indexed":true,"internalType":"address","name":"user","type":"address"},{"indexed":false,"internalType":"uint256","name":"amount","type":"uint256"}],"name":"UnstakeRequested","type":"event"},{"anonymous":false,"inputs":[{"indexed":true,"internalType":"address","name":"user","type":"address"},{"indexed":false,"internalType":"bool","name":"status","type":"bool"}],"name":"WhitelistStatusChanged","type":"event"},{"anonymous":false,"inputs":[{"indexed":true,"internalType":"address","name":"owner","type":"address"},{"indexed":false,"internalType":"uint256","name":"amount","type":"uint256"}],"name":"Withdraw","type":"event"},{"anonymous":false,"inputs":[{"indexed":true,"internalType":"address","name":"user","type":"address"},{"indexed":false,"internalType":"uint256","name":"amount","type":"uint256"}],"name":"Withdrawn","type":"event"},{"inputs":[{"internalType":"address","name":"_address","type":"address"}],"name":"addToWhitelist","outputs":[],"stateMutability":"nonpayable","type":"function"},{"inputs":[{"internalType":"uint256","name":"timeStaked","type":"uint256"}],"name":"calculateTax","outputs":[{"internalType":"uint256","name":"","type":"uint256"}],"stateMutability":"view","type":"function"},{"inputs":[{"internalType":"uint256","name":"_amount","type":"uint256"},{"internalType":"uint256","name":"timeStaked","type":"uint256"}],"name":"calculateTotalWithdraw","outputs":[{"internalType":"uint256","name":"","type":"uint256"}],"stateMutability":"view","type":"function"},{"inputs":[{"internalType":"uint256","name":"timeStaked","type":"uint256"}],"name":"calculateYield","outputs":[{"internalType":"uint256","name":"","type":"uint256"}],"stateMutability":"view","type":"function"},{"inputs":[{"internalType":"uint256","name":"stakeId","type":"uint256"}],"name":"claim","outputs":[],"stateMutability":"nonpayable","type":"function"},{"inputs":[],"name":"cooldownPeriod","outputs":[{"internalType":"uint256","name":"","type":"uint256"}],"stateMutability":"view","type":"function"},{"inputs":[{"internalType":"uint256","name":"_amount","type":"uint256"}],"name":"depositRewardTokens","outputs":[],"stateMutability":"nonpayable","type":"function"},{"inputs":[],"name":"disableWhitelist","outputs":[],"stateMutability":"nonpayable","type":"function"},{"inputs":[],"name":"enableWhitelist","outputs":[],"stateMutability":"nonpayable","type":"function"},{"inputs":[{"internalType":"address","name":"user","type":"address"}],"name":"getTotalStakedForUser","outputs":[{"internalType":"uint256","name":"","type":"uint256"}],"stateMutability":"view","type":"function"},{"inputs":[{"internalType":"address","name":"user","type":"address"}],"name":"getUserStakes","outputs":[{"components":[{"internalType":"uint256","name":"amount","type":"uint256"},{"internalType":"uint256","name":"startTime","type":"uint256"},{"internalType":"uint256","name":"requestUnstakeTime","type":"uint256"},{"internalType":"bool","name":"unstakeRequested","type":"bool"}],"internalType":"struct Staking.Stake[]","name":"","type":"tuple[]"}],"stateMutability":"view","type":"function"},{"inputs":[{"internalType":"address","name":"_stakingToken","type":"address"},{"internalType":"uint256","name":"_stakingDuration","type":"uint256"},{"internalType":"uint256","name":"_yieldConstant","type":"uint256"},{"internalType":"uint256","name":"_cooldownPeriod","type":"uint256"},{"internalType":"uint256","name":"_startingSlashingPoint","type":"uint256"},{"internalType":"uint256","name":"_monthlyIncreasePercentage","type":"uint256"}],"name":"initialize","outputs":[],"stateMutability":"nonpayable","type":"function"},{"inputs":[],"name":"maxCap","outputs":[{"internalType":"uint256","name":"","type":"uint256"}],"stateMutability":"view","type":"function"},{"inputs":[],"name":"minCap","outputs":[{"internalType":"uint256","name":"","type":"uint256"}],"stateMutability":"view","type":"function"},{"inputs":[],"name":"monthlyIncreasePercentage","outputs":[{"internalType":"uint256","name":"","type":"uint256"}],"stateMutability":"view","type":"function"},{"inputs":[],"name":"monthsInStakingPeriod","outputs":[{"internalType":"uint256","name":"","type":"uint256"}],"stateMutability":"view","type":"function"},{"inputs":[],"name":"owner","outputs":[{"internalType":"address","name":"","type":"address"}],"stateMutability":"view","type":"function"},{"inputs":[],"name":"pause","outputs":[],"stateMutability":"nonpayable","type":"function"},{"inputs":[],"name":"paused","outputs":[{"internalType":"bool","name":"","type":"bool"}],"stateMutability":"view","type":"function"},{"inputs":[],"name":"pendingRewards","outputs":[{"internalType":"uint256","name":"","type":"uint256"}],"stateMutability":"view","type":"function"},{"inputs":[{"internalType":"address","name":"_address","type":"address"}],"name":"removeFromWhitelist","outputs":[],"stateMutability":"nonpayable","type":"function"},{"inputs":[],"name":"renounceOwnership","outputs":[],"stateMutability":"nonpayable","type":"function"},{"inputs":[],"name":"rewardPool","outputs":[{"internalType":"uint256","name":"","type":"uint256"}],"stateMutability":"view","type":"function"},{"inputs":[{"internalType":"uint256","name":"_amount","type":"uint256"}],"name":"stake","outputs":[],"stateMutability":"nonpayable","type":"function"},{"inputs":[],"name":"stakingDuration","outputs":[{"internalType":"uint256","name":"","type":"uint256"}],"stateMutability":"view","type":"function"},{"inputs":[],"name":"stakingToken","outputs":[{"internalType":"contract IERC20","name":"","type":"address"}],"stateMutability":"view","type":"function"},{"inputs":[],"name":"startingSlashingPoint","outputs":[{"internalType":"uint256","name":"","type":"uint256"}],"stateMutability":"view","type":"function"},{"inputs":[],"name":"totalStaked","outputs":[{"internalType":"uint256","name":"","type":"uint256"}],"stateMutability":"view","type":"function"},{"inputs":[{"internalType":"address","name":"newOwner","type":"address"}],"name":"transferOwnership","outputs":[],"stateMutability":"nonpayable","type":"function"},{"inputs":[],"name":"unpause","outputs":[],"stateMutability":"nonpayable","type":"function"},{"inputs":[{"internalType":"uint256","name":"stakeId","type":"uint256"}],"name":"unstake","outputs":[],"stateMutability":"nonpayable","type":"function"},{"inputs":[{"internalType":"uint256","name":"_cooldownPeriod","type":"uint256"}],"name":"updateCooldownPeriod","outputs":[],"stateMutability":"nonpayable","type":"function"},{"inputs":[{"internalType":"uint256","name":"_maxCap","type":"uint256"}],"name":"updateMaxCap","outputs":[],"stateMutability":"nonpayable","type":"function"},{"inputs":[{"internalType":"uint256","name":"_minCap","type":"uint256"}],"name":"updateMinCap","outputs":[],"stateMutability":"nonpayable","type":"function"},{"inputs":[{"internalType":"uint256","name":"_monthlyIncreasePercentage","type":"uint256"}],"name":"updateMonthlyIncreasePercentage","outputs":[],"stateMutability":"nonpayable","type":"function"},{"inputs":[{"internalType":"uint256","name":"_stakingDuration","type":"uint256"}],"name":"updateStakingDuration","outputs":[],"stateMutability":"nonpayable","type":"function"},{"inputs":[{"internalType":"uint256","name":"_startingSlashingPoint","type":"uint256"}],"name":"updateStartingSlashingPoint","outputs":[],"stateMutability":"nonpayable","type":"function"},{"inputs":[{"internalType":"uint256","name":"_yieldConstant","type":"uint256"}],"name":"updateYieldConstant","outputs":[],"stateMutability":"nonpayable","type":"function"},{"inputs":[{"internalType":"address","name":"","type":"address"}],"name":"userStakeCounter","outputs":[{"internalType":"uint256","name":"","type":"uint256"}],"stateMutability":"view","type":"function"},{"inputs":[{"internalType":"address","name":"","type":"address"},{"internalType":"uint256","name":"","type":"uint256"}],"name":"userStakes","outputs":[{"internalType":"uint256","name":"amount","type":"uint256"},{"internalType":"uint256","name":"startTime","type":"uint256"},{"internalType":"uint256","name":"requestUnstakeTime","type":"uint256"},{"internalType":"bool","name":"unstakeRequested","type":"bool"}],"stateMutability":"view","type":"function"},{"inputs":[],"name":"whitelistEnabled","outputs":[{"internalType":"bool","name":"","type":"bool"}],"stateMutability":"view","type":"function"},{"inputs":[{"internalType":"address","name":"","type":"address"}],"name":"whitelistedAddresses","outputs":[{"internalType":"bool","name":"","type":"bool"}],"stateMutability":"view","type":"function"},{"inputs":[{"internalType":"uint256","name":"_amount","type":"uint256"}],"name":"withdrawRewardTokens","outputs":[],"stateMutability":"nonpayable","type":"function"},{"inputs":[],"name":"yieldConstant","outputs":[{"internalType":"uint256","name":"","type":"uint256"}],"stateMutability":"view","type":"function"}],"evm":{"bytecode":{"linkReferences":{},"object":"608060405234801561001057600080fd5b50611d2f806100206000396000f3fe608060405234801561001057600080fd5b50600436106102745760003560e01c80637a65cd0b11610151578063b5d5b5fa116100c3578063d6b0f48411610087578063d6b0f4841461058e578063e43252d714610596578063e6d24866146105a9578063e81ba080146105bc578063eded3fda146105cf578063f2fde38b146105d757600080fd5b8063b5d5b5fa146104e8578063bcaabf6c1461054d578063cb43b2dd14610560578063cdfb2b4e14610573578063d2771e011461057b57600080fd5b80638456cb59116101155780638456cb5914610464578063861f6bfd1461046c5780638ab1d6811461047f5780638da5cb5b14610492578063a694fc3a146104c2578063b3c55721146104d557600080fd5b80637a65cd0b146104175780638005a7de1461042057806380a3301b14610429578063817b1cd21461043c578063842e29811461044457600080fd5b80633fa615b0116101ea5780635b1d7086116101ae5780635b1d7086146103a85780635c975abb146103bb57806366666aa9146103d35780636f629512146103db578063715018a6146103e457806372f702f3146103ec57600080fd5b80633fa615b01461034c57806345ff4c8014610355578063483a93101461036857806351fb012d1461037b5780635678b0241461038857600080fd5b8063291614791161023c57806329161479146102ef5780632e17de78146102f857806336c1105a1461030b578063379607f51461031e5780633b42ffcf146103315780633f4ba83a1461034457600080fd5b806304646a491461027957806306c933d8146102955780630b7ead4a146102c857806316c621e0146102d157806323548b8b146102e6575b600080fd5b61028260055481565b6040519081526020015b60405180910390f35b6102b86102a3366004611aa6565b600c6020526000908152604090205460ff1681565b604051901515815260200161028c565b61028260075481565b6102e46102df366004611ac8565b6105ea565b005b61028260035481565b61028260085481565b6102e4610306366004611ac8565b610706565b6102e4610319366004611ac8565b610aa4565b6102e461032c366004611ac8565b610ab1565b61028261033f366004611aa6565b610bdd565b6102e4610c3a565b61028260025481565b6102e4610363366004611ae1565b610c4c565b610282610376366004611ac8565b610dbd565b6009546102b89060ff1681565b610282610396366004611aa6565b600b6020526000908152604090205481565b6102e46103b6366004611ac8565b610e57565b600080516020611cba8339815191525460ff166102b8565b600e54610282565b61028260065481565b6102e4610e77565b6000546103ff906001600160a01b031681565b6040516001600160a01b03909116815260200161028c565b61028260045481565b61028260015481565b610282610437366004611ac8565b610e89565b600d54610282565b610457610452366004611aa6565b610f10565b60405161028c9190611b2b565b6102e4611038565b6102e461047a366004611ac8565b611048565b6102e461048d366004611aa6565b611055565b7f9016d09d72d40fdae2fd8ceac6b6234c7706214fd39c1cd1e609a0528c199300546001600160a01b03166103ff565b6102e46104d0366004611ac8565b6110ac565b6102e46104e3366004611ac8565b6113e0565b61052b6104f6366004611b91565b600a60209081526000928352604080842090915290825290208054600182015460028301546003909301549192909160ff1684565b604080519485526020850193909352918301521515606082015260800161028c565b6102e461055b366004611ac8565b6113ed565b6102e461056e366004611ac8565b6113fa565b6102e4611598565b610282610589366004611bbb565b6115af565b6102e46116fa565b6102e46105a4366004611aa6565b61170e565b6102e46105b7366004611ac8565b61176d565b6102e46105ca366004611ac8565b61177a565b600f54610282565b6102e46105e5366004611aa6565b611787565b6105f26117c2565b6000811161063a5760405162461bcd60e51b815260206004820152601060248201526f043616e6e6f74206465706f73697420360841b60448201526064015b60405180910390fd5b80600e600082825461064c9190611bf3565b90915550506000546040516323b872dd60e01b8152336004820152306024820152604481018390526001600160a01b03909116906323b872dd906064016020604051808303816000875af11580156106a8573d6000803e3d6000fd5b505050506040513d601f19601f820116820180604052508101906106cc9190611c06565b5060405181815233907fe1fffcc4923d04b559f4d29a8bfc6cda04eb5b0d3c460751c2402c5c5cc9109c906020015b60405180910390a250565b61070e61181d565b336000908152600a60209081526040808320848452909152902080546107825760405162461bcd60e51b815260206004820152602360248201527f4e6f207374616b656420616d6f756e7420746f207265717565737420756e7374604482015262616b6560e81b6064820152608401610631565b600381015460ff16156107d75760405162461bcd60e51b815260206004820152601960248201527f556e7374616b6520616c726561647920726571756573746564000000000000006044820152606401610631565b80546001546000908103610800576107f9828460010154426105899190611c28565b905061088a565b60015483600101546108129190611bf3565b4210156108735742600284015560038301805460ff19166001179055825460405133917f828764c21e74c28710e19919735825aba966621c95cbd913f8ed65a2d298f48c9161086391815260200190565b60405180910390a2505050610a8a565b610887828460010154426105899190611c28565b90505b81600d5410156108dc5760405162461bcd60e51b815260206004820152601d60248201527f4f766572666c6f773a20746f74616c207374616b656420616d6f756e740000006044820152606401610631565b81600d60008282546108ee9190611c28565b90915550600090506109008383611c28565b905080600e5410156109545760405162461bcd60e51b815260206004820152601c60248201527f4f766572666c6f773a2072657761726420706f6f6c20616d6f756e74000000006044820152606401610631565b80600e60008282546109669190611c28565b9250508190555080600f600082825461097f9190611c28565b9091555050336000818152600a602090815260408083208984529091528082208281556001810183905560028101839055600301805460ff191690559054905163a9059cbb60e01b81526004810192909252602482018490526001600160a01b03169063a9059cbb906044016020604051808303816000875af1158015610a0a573d6000803e3d6000fd5b505050506040513d601f19601f82011682018060405250810190610a2e9190611c06565b5060405182815233907f7084f5476618d8e60b11ef0d7d3f06914655adb8793e28ff7f018d4c76d505d59060200160405180910390a2610a6d33610bdd565b600003610a8557336000908152600b60205260408120555b505050505b610aa16001600080516020611cda83398151915255565b50565b610aac6117c2565b600455565b610ab961181d565b610ac1611869565b336000908152600a602090815260408083208484529091529020600381015460ff16610b275760405162461bcd60e51b8152602060048201526015602482015274155b9cdd185ad9481b9bdd081c995c5d595cdd1959605a1b6044820152606401610631565b6005548160020154610b399190611bf3565b421015610b885760405162461bcd60e51b815260206004820152601860248201527f436f6f6c646f776e20706572696f64206e6f74206f76657200000000000000006044820152606401610631565b80546001820154600090610ba29083906105899042611c28565b90506000610bb08383611c28565b905082600d6000828254610bc49190611c28565b9250508190555080600e60008282546109669190611c28565b6001600160a01b0381166000908152600b6020908152604080832054600a9092528220829190825b82811015610c3057600081815260208390526040902054610c269085611bf3565b9350600101610c05565b5091949350505050565b610c426117c2565b610c4a61189a565b565b7ff0c57e16840df040f15088dc2f81fe391c3923bec73e23a9662efc9c229c6a008054600160401b810460ff16159067ffffffffffffffff16600081158015610c925750825b905060008267ffffffffffffffff166001148015610caf5750303b155b905081158015610cbd575080155b15610cdb5760405163f92ee8a960e01b815260040160405180910390fd5b845467ffffffffffffffff191660011785558315610d0557845460ff60401b1916600160401b1785555b610d0e336118fa565b610d1661190b565b610d1e61191b565b600080546001600160a01b0319166001600160a01b038d1617815560018b9055600281905560035560048990556005889055610d5d62278d008b611c3b565b600655600787905560088690558315610db057845460ff60401b19168555604051600181527fc7f505b2f371ae2175ee4913f4499e1f2633a7b5936321eed1cdaeb6115181d29060200160405180910390a15b5050505050505050505050565b60006001548210610dd057506000919050565b600060015483600854610de39190611c5d565b610ded9190611c3b565b600754610dfa9190611c28565b905060008111610e4c5760405162461bcd60e51b815260206004820152601d60248201527f43616e6e6f7420736c6173682061206e656761746976652076616c75650000006044820152606401610631565b92915050565b919050565b610e5f6117c2565b6001819055610e7162278d0082611c3b565b60065550565b610e7f6117c2565b610c4a600061192b565b60006001548210610ea257600454610e4c906090611c5d565b600060015483600654610eb59190611c5d565b610ec790670de0b6b3a7640000611c5d565b610ed19190611c3b565b905060006ec097ce7bc90715b34b9f10000000008283600454610ef49190611c5d565b610efe9190611c5d565b610f089190611c3b565b949350505050565b6001600160a01b0381166000908152600b60205260408120546060918167ffffffffffffffff811115610f4557610f45611c74565b604051908082528060200260200182016040528015610fa357816020015b610f9060405180608001604052806000815260200160008152602001600081526020016000151581525090565b815260200190600190039081610f635790505b50905060005b82811015611030576001600160a01b0385166000908152600a6020908152604080832084845282529182902082516080810184528154815260018201549281019290925260028101549282019290925260039091015460ff1615156060820152825183908390811061101d5761101d611c8a565b6020908102919091010152600101610fa9565b509392505050565b6110406117c2565b610c4a61199c565b6110506117c2565b600555565b61105d6117c2565b6001600160a01b0381166000818152600c60209081526040808320805460ff19169055519182527f8daaf060c3306c38e068a75c054bf96ecd85a3db1252712c4d93632744c42e0d91016106fb565b6110b461181d565b6110bc611869565b60095460ff1615806110dd5750336000908152600c602052604090205460ff165b6111295760405162461bcd60e51b815260206004820152601760248201527f41646472657373206e6f742077686974656c69737465640000000000000000006044820152606401610631565b6000811161116a5760405162461bcd60e51b815260206004820152600e60248201526d043616e6e6f74207374616b6520360941b6044820152606401610631565b600254156111c4576002548110156111c45760405162461bcd60e51b815260206004820152601860248201527f416d6f756e742062656c6f77206d696e696d756d2063617000000000000000006044820152606401610631565b60035415611230576003546111d833610bdd565b6111e29083611bf3565b11156112305760405162461bcd60e51b815260206004820152601a60248201527f416d6f756e742065786365656473206d6178696d756d206361700000000000006044820152606401610631565b336000818152600b602081815260408084208054825160808101845288815242818601908152818501888152606083018981528a8a52600a8852868a20858b528852958920835181559151600183015551600282015593516003909401805460ff19169415159490941790935595855292909152815490929091906112b483611ca0565b919050555082600d60008282546112cb9190611bf3565b925050819055506000670de0b6b3a76400006112e8600154610e89565b6112f29086611c5d565b6112fc9190611c3b565b905080600f60008282546113109190611bf3565b90915550506000546040516323b872dd60e01b8152336004820152306024820152604481018690526001600160a01b03909116906323b872dd906064016020604051808303816000875af115801561136c573d6000803e3d6000fd5b505050506040513d601f19601f820116820180604052508101906113909190611c06565b5060405184815233907f9e71bc8eea02a63969f509818f2dafb9254532904319f9dbda79b67bd34a5f3d9060200160405180910390a2505050610aa16001600080516020611cda83398151915255565b6113e86117c2565b600855565b6113f56117c2565b600255565b6114026117c2565b600081116114465760405162461bcd60e51b8152602060048201526011602482015270043616e6e6f74207769746864726177203607c1b6044820152606401610631565b80600f54600e546114579190611c28565b10156114d95760405162461bcd60e51b815260206004820152604560248201527f4e6f7420656e6f75676820746f6b656e7320696e2072657761726420706f6f6c60448201527f206166746572206163636f756e74696e6720666f722070656e64696e67207265606482015264776172647360d81b608482015260a401610631565b80600e60008282546114eb9190611c28565b909155505060005460405163a9059cbb60e01b8152336004820152602481018390526001600160a01b039091169063a9059cbb906044016020604051808303816000875af1158015611541573d6000803e3d6000fd5b505050506040513d601f19601f820116820180604052508101906115659190611c06565b5060405181815233907f884edad9ce6fa2440d8a54cc123490eb96d2768479d49ff9c7366125a9424364906020016106fb565b6115a06117c2565b6009805460ff19166001179055565b6000806115bb83610e89565b905060006115c884610dbd565b90506000670de0b6b3a76400006115df8488611c5d565b6115e99190611c3b565b90506000670de0b6b3a76400006116008484611c5d565b61160a9190611c3b565b9050866116178382611bf3565b101561167b5760405162461bcd60e51b815260206004820152602d60248201527f4f766572666c6f7720696e20746f74616c20776974686472617720616d6f756e60448201526c3a1031b0b631bab630ba34b7b760991b6064820152608401610631565b600081611688848a611bf3565b6116929190611c28565b905061169e8284611c28565b600e5410156116ef5760405162461bcd60e51b815260206004820152601860248201527f496e73756666696369656e742072657761726420706f6f6c00000000000000006044820152606401610631565b979650505050505050565b6117026117c2565b6009805460ff19169055565b6117166117c2565b6001600160a01b0381166000818152600c6020908152604091829020805460ff1916600190811790915591519182527f8daaf060c3306c38e068a75c054bf96ecd85a3db1252712c4d93632744c42e0d91016106fb565b6117756117c2565b600755565b6117826117c2565b600355565b61178f6117c2565b6001600160a01b0381166117b957604051631e4fbdf760e01b815260006004820152602401610631565b610aa18161192b565b336117f47f9016d09d72d40fdae2fd8ceac6b6234c7706214fd39c1cd1e609a0528c199300546001600160a01b031690565b6001600160a01b031614610c4a5760405163118cdaa760e01b8152336004820152602401610631565b600080516020611cda83398151915280546001190161184f57604051633ee5aeb560e01b815260040160405180910390fd5b60029055565b6001600080516020611cda83398151915255565b600080516020611cba8339815191525460ff1615610c4a5760405163d93c066560e01b815260040160405180910390fd5b6118a26119e5565b600080516020611cba833981519152805460ff191681557f5db9ee0a495bf2e6ff9c91a7834c1ba4fdd244a5e8aa4e537bd38aeae4b073aa335b6040516001600160a01b03909116815260200160405180910390a150565b611902611a15565b610aa181611a5e565b611913611a15565b610c4a611a66565b611923611a15565b610c4a611a87565b7f9016d09d72d40fdae2fd8ceac6b6234c7706214fd39c1cd1e609a0528c19930080546001600160a01b031981166001600160a01b03848116918217845560405192169182907f8be0079c531659141344cd1fd0a4f28419497f9722a3daafe3b4186f6b6457e090600090a3505050565b6119a4611869565b600080516020611cba833981519152805460ff191660011781557f62e78cea01bee320cd4e420270b5ea74000d11b0c9f74754ebdbfc544b05a258336118dc565b600080516020611cba8339815191525460ff16610c4a57604051638dfc202b60e01b815260040160405180910390fd5b7ff0c57e16840df040f15088dc2f81fe391c3923bec73e23a9662efc9c229c6a0054600160401b900460ff16610c4a57604051631afcd79f60e31b815260040160405180910390fd5b61178f611a15565b611a6e611a15565b600080516020611cba833981519152805460ff19169055565b611855611a15565b80356001600160a01b0381168114610e5257600080fd5b600060208284031215611ab857600080fd5b611ac182611a8f565b9392505050565b600060208284031215611ada57600080fd5b5035919050565b60008060008060008060c08789031215611afa57600080fd5b611b0387611a8f565b9860208801359850604088013597606081013597506080810135965060a00135945092505050565b602080825282518282018190526000919060409081850190868401855b82811015611b84578151805185528681015187860152858101518686015260609081015115159085015260809093019290850190600101611b48565b5091979650505050505050565b60008060408385031215611ba457600080fd5b611bad83611a8f565b946020939093013593505050565b60008060408385031215611bce57600080fd5b50508035926020909101359150565b634e487b7160e01b600052601160045260246000fd5b80820180821115610e4c57610e4c611bdd565b600060208284031215611c1857600080fd5b81518015158114611ac157600080fd5b81810381811115610e4c57610e4c611bdd565b600082611c5857634e487b7160e01b600052601260045260246000fd5b500490565b8082028115828204841417610e4c57610e4c611bdd565b634e487b7160e01b600052604160045260246000fd5b634e487b7160e01b600052603260045260246000fd5b600060018201611cb257611cb2611bdd565b506001019056fecd5ed15c6e187e77e9aee88184c21f4f2182ab5827cb3b7e07fbedcd63f033009b779b17422d0df92223018b32b4d1fa46e071723d6817e2486d003becc55f00a26469706673582212204ed5b6837b14c19a66ecdbcc20a5411277c7a6cefd42ce25ecbaeb54931582d864736f6c63430008140033","opcodes":"PUSH1 0x80 PUSH1 0x40 MSTORE CALLVALUE DUP1 ISZERO PUSH2 0x10 JUMPI PUSH1 0x0 DUP1 REVERT JUMPDEST POP PUSH2 0x1D2F DUP1 PUSH2 0x20 PUSH1 0x0 CODECOPY PUSH1 0x0 RETURN INVALID PUSH1 0x80 PUSH1 0x40 MSTORE CALLVALUE DUP1 ISZERO PUSH2 0x10 JUMPI PUSH1 0x0 DUP1 REVERT JUMPDEST POP PUSH1 0x4 CALLDATASIZE LT PUSH2 0x274 JUMPI PUSH1 0x0 CALLDATALOAD PUSH1 0xE0 SHR DUP1 PUSH4 0x7A65CD0B GT PUSH2 0x151 JUMPI DUP1 PUSH4 0xB5D5B5FA GT PUSH2 0xC3 JUMPI DUP1 PUSH4 0xD6B0F484 GT PUSH2 0x87 JUMPI DUP1 PUSH4 0xD6B0F484 EQ PUSH2 0x58E JUMPI DUP1 PUSH4 0xE43252D7 EQ PUSH2 0x596 JUMPI DUP1 PUSH4 0xE6D24866 EQ PUSH2 0x5A9 JUMPI DUP1 PUSH4 0xE81BA080 EQ PUSH2 0x5BC JUMPI DUP1 PUSH4 0xEDED3FDA EQ PUSH2 0x5CF JUMPI DUP1 PUSH4 0xF2FDE38B EQ PUSH2 0x5D7 JUMPI PUSH1 0x0 DUP1 REVERT JUMPDEST DUP1 PUSH4 0xB5D5B5FA EQ PUSH2 0x4E8 JUMPI DUP1 PUSH4 0xBCAABF6C EQ PUSH2 0x54D JUMPI DUP1 PUSH4 0xCB43B2DD EQ PUSH2 0x560 JUMPI DUP1 PUSH4 0xCDFB2B4E EQ PUSH2 0x573 JUMPI DUP1 PUSH4 0xD2771E01 EQ PUSH2 0x57B JUMPI PUSH1 0x0 DUP1 REVERT JUMPDEST DUP1 PUSH4 0x8456CB59 GT PUSH2 0x115 JUMPI DUP1 PUSH4 0x8456CB59 EQ PUSH2 0x464 JUMPI DUP1 PUSH4 0x861F6BFD EQ PUSH2 0x46C JUMPI DUP1 PUSH4 0x8AB1D681 EQ PUSH2 0x47F JUMPI DUP1 PUSH4 0x8DA5CB5B EQ PUSH2 0x492 JUMPI DUP1 PUSH4 0xA694FC3A EQ PUSH2 0x4C2 JUMPI DUP1 PUSH4 0xB3C55721 EQ PUSH2 0x4D5 JUMPI PUSH1 0x0 DUP1 REVERT JUMPDEST DUP1 PUSH4 0x7A65CD0B EQ PUSH2 0x417 JUMPI DUP1 PUSH4 0x8005A7DE EQ PUSH2 0x420 JUMPI DUP1 PUSH4 0x80A3301B EQ PUSH2 0x429 JUMPI DUP1 PUSH4 0x817B1CD2 EQ PUSH2 0x43C JUMPI DUP1 PUSH4 0x842E2981 EQ PUSH2 0x444 JUMPI PUSH1 0x0 DUP1 REVERT JUMPDEST DUP1 PUSH4 0x3FA615B0 GT PUSH2 0x1EA JUMPI DUP1 PUSH4 0x5B1D7086 GT PUSH2 0x1AE JUMPI DUP1 PUSH4 0x5B1D7086 EQ PUSH2 0x3A8 JUMPI DUP1 PUSH4 0x5C975ABB EQ PUSH2 0x3BB JUMPI DUP1 PUSH4 0x66666AA9 EQ PUSH2 0x3D3 JUMPI DUP1 PUSH4 0x6F629512 EQ PUSH2 0x3DB JUMPI DUP1 PUSH4 0x715018A6 EQ PUSH2 0x3E4 JUMPI DUP1 PUSH4 0x72F702F3 EQ PUSH2 0x3EC JUMPI PUSH1 0x0 DUP1 REVERT JUMPDEST DUP1 PUSH4 0x3FA615B0 EQ PUSH2 0x34C JUMPI DUP1 PUSH4 0x45FF4C80 EQ PUSH2 0x355 JUMPI DUP1 PUSH4 0x483A9310 EQ PUSH2 0x368 JUMPI DUP1 PUSH4 0x51FB012D EQ PUSH2 0x37B JUMPI DUP1 PUSH4 0x5678B024 EQ PUSH2 0x388 JUMPI PUSH1 0x0 DUP1 REVERT JUMPDEST DUP1 PUSH4 0x29161479 GT PUSH2 0x23C JUMPI DUP1 PUSH4 0x29161479 EQ PUSH2 0x2EF JUMPI DUP1 PUSH4 0x2E17DE78 EQ PUSH2 0x2F8 JUMPI DUP1 PUSH4 0x36C1105A EQ PUSH2 0x30B JUMPI DUP1 PUSH4 0x379607F5 EQ PUSH2 0x31E JUMPI DUP1 PUSH4 0x3B42FFCF EQ PUSH2 0x331 JUMPI DUP1 PUSH4 0x3F4BA83A EQ PUSH2 0x344 JUMPI PUSH1 0x0 DUP1 REVERT JUMPDEST DUP1 PUSH4 0x4646A49 EQ PUSH2 0x279 JUMPI DUP1 PUSH4 0x6C933D8 EQ PUSH2 0x295 JUMPI DUP1 PUSH4 0xB7EAD4A EQ PUSH2 0x2C8 JUMPI DUP1 PUSH4 0x16C621E0 EQ PUSH2 0x2D1 JUMPI DUP1 PUSH4 0x23548B8B EQ PUSH2 0x2E6 JUMPI JUMPDEST PUSH1 0x0 DUP1 REVERT JUMPDEST PUSH2 0x282 PUSH1 0x5 SLOAD DUP2 JUMP JUMPDEST PUSH1 0x40 MLOAD SWAP1 DUP2 MSTORE PUSH1 0x20 ADD JUMPDEST PUSH1 0x40 MLOAD DUP1 SWAP2 SUB SWAP1 RETURN JUMPDEST PUSH2 0x2B8 PUSH2 0x2A3 CALLDATASIZE PUSH1 0x4 PUSH2 0x1AA6 JUMP JUMPDEST PUSH1 0xC PUSH1 0x20 MSTORE PUSH1 0x0 SWAP1 DUP2 MSTORE PUSH1 0x40 SWAP1 KECCAK256 SLOAD PUSH1 0xFF AND DUP2 JUMP JUMPDEST PUSH1 0x40 MLOAD SWAP1 ISZERO ISZERO DUP2 MSTORE PUSH1 0x20 ADD PUSH2 0x28C JUMP JUMPDEST PUSH2 0x282 PUSH1 0x7 SLOAD DUP2 JUMP JUMPDEST PUSH2 0x2E4 PUSH2 0x2DF CALLDATASIZE PUSH1 0x4 PUSH2 0x1AC8 JUMP JUMPDEST PUSH2 0x5EA JUMP JUMPDEST STOP JUMPDEST PUSH2 0x282 PUSH1 0x3 SLOAD DUP2 JUMP JUMPDEST PUSH2 0x282 PUSH1 0x8 SLOAD DUP2 JUMP JUMPDEST PUSH2 0x2E4 PUSH2 0x306 CALLDATASIZE PUSH1 0x4 PUSH2 0x1AC8 JUMP JUMPDEST PUSH2 0x706 JUMP JUMPDEST PUSH2 0x2E4 PUSH2 0x319 CALLDATASIZE PUSH1 0x4 PUSH2 0x1AC8 JUMP JUMPDEST PUSH2 0xAA4 JUMP JUMPDEST PUSH2 0x2E4 PUSH2 0x32C CALLDATASIZE PUSH1 0x4 PUSH2 0x1AC8 JUMP JUMPDEST PUSH2 0xAB1 JUMP JUMPDEST PUSH2 0x282 PUSH2 0x33F CALLDATASIZE PUSH1 0x4 PUSH2 0x1AA6 JUMP JUMPDEST PUSH2 0xBDD JUMP JUMPDEST PUSH2 0x2E4 PUSH2 0xC3A JUMP JUMPDEST PUSH2 0x282 PUSH1 0x2 SLOAD DUP2 JUMP JUMPDEST PUSH2 0x2E4 PUSH2 0x363 CALLDATASIZE PUSH1 0x4 PUSH2 0x1AE1 JUMP JUMPDEST PUSH2 0xC4C JUMP JUMPDEST PUSH2 0x282 PUSH2 0x376 CALLDATASIZE PUSH1 0x4 PUSH2 0x1AC8 JUMP JUMPDEST PUSH2 0xDBD JUMP JUMPDEST PUSH1 0x9 SLOAD PUSH2 0x2B8 SWAP1 PUSH1 0xFF AND DUP2 JUMP JUMPDEST PUSH2 0x282 PUSH2 0x396 CALLDATASIZE PUSH1 0x4 PUSH2 0x1AA6 JUMP JUMPDEST PUSH1 0xB PUSH1 0x20 MSTORE PUSH1 0x0 SWAP1 DUP2 MSTORE PUSH1 0x40 SWAP1 KECCAK256 SLOAD DUP2 JUMP JUMPDEST PUSH2 0x2E4 PUSH2 0x3B6 CALLDATASIZE PUSH1 0x4 PUSH2 0x1AC8 JUMP JUMPDEST PUSH2 0xE57 JUMP JUMPDEST PUSH1 0x0 DUP1 MLOAD PUSH1 0x20 PUSH2 0x1CBA DUP4 CODECOPY DUP2 MLOAD SWAP2 MSTORE SLOAD PUSH1 0xFF AND PUSH2 0x2B8 JUMP JUMPDEST PUSH1 0xE SLOAD PUSH2 0x282 JUMP JUMPDEST PUSH2 0x282 PUSH1 0x6 SLOAD DUP2 JUMP JUMPDEST PUSH2 0x2E4 PUSH2 0xE77 JUMP JUMPDEST PUSH1 0x0 SLOAD PUSH2 0x3FF SWAP1 PUSH1 0x1 PUSH1 0x1 PUSH1 0xA0 SHL SUB AND DUP2 JUMP JUMPDEST PUSH1 0x40 MLOAD PUSH1 0x1 PUSH1 0x1 PUSH1 0xA0 SHL SUB SWAP1 SWAP2 AND DUP2 MSTORE PUSH1 0x20 ADD PUSH2 0x28C JUMP JUMPDEST PUSH2 0x282 PUSH1 0x4 SLOAD DUP2 JUMP JUMPDEST PUSH2 0x282 PUSH1 0x1 SLOAD DUP2 JUMP JUMPDEST PUSH2 0x282 PUSH2 0x437 CALLDATASIZE PUSH1 0x4 PUSH2 0x1AC8 JUMP JUMPDEST PUSH2 0xE89 JUMP JUMPDEST PUSH1 0xD SLOAD PUSH2 0x282 JUMP JUMPDEST PUSH2 0x457 PUSH2 0x452 CALLDATASIZE PUSH1 0x4 PUSH2 0x1AA6 JUMP JUMPDEST PUSH2 0xF10 JUMP JUMPDEST PUSH1 0x40 MLOAD PUSH2 0x28C SWAP2 SWAP1 PUSH2 0x1B2B JUMP JUMPDEST PUSH2 0x2E4 PUSH2 0x1038 JUMP JUMPDEST PUSH2 0x2E4 PUSH2 0x47A CALLDATASIZE PUSH1 0x4 PUSH2 0x1AC8 JUMP JUMPDEST PUSH2 0x1048 JUMP JUMPDEST PUSH2 0x2E4 PUSH2 0x48D CALLDATASIZE PUSH1 0x4 PUSH2 0x1AA6 JUMP JUMPDEST PUSH2 0x1055 JUMP JUMPDEST PUSH32 0x9016D09D72D40FDAE2FD8CEAC6B6234C7706214FD39C1CD1E609A0528C199300 SLOAD PUSH1 0x1 PUSH1 0x1 PUSH1 0xA0 SHL SUB AND PUSH2 0x3FF JUMP JUMPDEST PUSH2 0x2E4 PUSH2 0x4D0 CALLDATASIZE PUSH1 0x4 PUSH2 0x1AC8 JUMP JUMPDEST PUSH2 0x10AC JUMP JUMPDEST PUSH2 0x2E4 PUSH2 0x4E3 CALLDATASIZE PUSH1 0x4 PUSH2 0x1AC8 JUMP JUMPDEST PUSH2 0x13E0 JUMP JUMPDEST PUSH2 0x52B PUSH2 0x4F6 CALLDATASIZE PUSH1 0x4 PUSH2 0x1B91 JUMP JUMPDEST PUSH1 0xA PUSH1 0x20 SWAP1 DUP2 MSTORE PUSH1 0x0 SWAP3 DUP4 MSTORE PUSH1 0x40 DUP1 DUP5 KECCAK256 SWAP1 SWAP2 MSTORE SWAP1 DUP3 MSTORE SWAP1 KECCAK256 DUP1 SLOAD PUSH1 0x1 DUP3 ADD SLOAD PUSH1 0x2 DUP4 ADD SLOAD PUSH1 0x3 SWAP1 SWAP4 ADD SLOAD SWAP2 SWAP3 SWAP1 SWAP2 PUSH1 0xFF AND DUP5 JUMP JUMPDEST PUSH1 0x40 DUP1 MLOAD SWAP5 DUP6 MSTORE PUSH1 0x20 DUP6 ADD SWAP4 SWAP1 SWAP4 MSTORE SWAP2 DUP4 ADD MSTORE ISZERO ISZERO PUSH1 0x60 DUP3 ADD MSTORE PUSH1 0x80 ADD PUSH2 0x28C JUMP JUMPDEST PUSH2 0x2E4 PUSH2 0x55B CALLDATASIZE PUSH1 0x4 PUSH2 0x1AC8 JUMP JUMPDEST PUSH2 0x13ED JUMP JUMPDEST PUSH2 0x2E4 PUSH2 0x56E CALLDATASIZE PUSH1 0x4 PUSH2 0x1AC8 JUMP JUMPDEST PUSH2 0x13FA JUMP JUMPDEST PUSH2 0x2E4 PUSH2 0x1598 JUMP JUMPDEST PUSH2 0x282 PUSH2 0x589 CALLDATASIZE PUSH1 0x4 PUSH2 0x1BBB JUMP JUMPDEST PUSH2 0x15AF JUMP JUMPDEST PUSH2 0x2E4 PUSH2 0x16FA JUMP JUMPDEST PUSH2 0x2E4 PUSH2 0x5A4 CALLDATASIZE PUSH1 0x4 PUSH2 0x1AA6 JUMP JUMPDEST PUSH2 0x170E JUMP JUMPDEST PUSH2 0x2E4 PUSH2 0x5B7 CALLDATASIZE PUSH1 0x4 PUSH2 0x1AC8 JUMP JUMPDEST PUSH2 0x176D JUMP JUMPDEST PUSH2 0x2E4 PUSH2 0x5CA CALLDATASIZE PUSH1 0x4 PUSH2 0x1AC8 JUMP JUMPDEST PUSH2 0x177A JUMP JUMPDEST PUSH1 0xF SLOAD PUSH2 0x282 JUMP JUMPDEST PUSH2 0x2E4 PUSH2 0x5E5 CALLDATASIZE PUSH1 0x4 PUSH2 0x1AA6 JUMP JUMPDEST PUSH2 0x1787 JUMP JUMPDEST PUSH2 0x5F2 PUSH2 0x17C2 JUMP JUMPDEST PUSH1 0x0 DUP2 GT PUSH2 0x63A JUMPI PUSH1 0x40 MLOAD PUSH3 0x461BCD PUSH1 0xE5 SHL DUP2 MSTORE PUSH1 0x20 PUSH1 0x4 DUP3 ADD MSTORE PUSH1 0x10 PUSH1 0x24 DUP3 ADD MSTORE PUSH16 0x43616E6E6F74206465706F736974203 PUSH1 0x84 SHL PUSH1 0x44 DUP3 ADD MSTORE PUSH1 0x64 ADD JUMPDEST PUSH1 0x40 MLOAD DUP1 SWAP2 SUB SWAP1 REVERT JUMPDEST DUP1 PUSH1 0xE PUSH1 0x0 DUP3 DUP3 SLOAD PUSH2 0x64C SWAP2 SWAP1 PUSH2 0x1BF3 JUMP JUMPDEST SWAP1 SWAP2 SSTORE POP POP PUSH1 0x0 SLOAD PUSH1 0x40 MLOAD PUSH4 0x23B872DD PUSH1 0xE0 SHL DUP2 MSTORE CALLER PUSH1 0x4 DUP3 ADD MSTORE ADDRESS PUSH1 0x24 DUP3 ADD MSTORE PUSH1 0x44 DUP2 ADD DUP4 SWAP1 MSTORE PUSH1 0x1 PUSH1 0x1 PUSH1 0xA0 SHL SUB SWAP1 SWAP2 AND SWAP1 PUSH4 0x23B872DD SWAP1 PUSH1 0x64 ADD PUSH1 0x20 PUSH1 0x40 MLOAD DUP1 DUP4 SUB DUP2 PUSH1 0x0 DUP8 GAS CALL ISZERO DUP1 ISZERO PUSH2 0x6A8 JUMPI RETURNDATASIZE PUSH1 0x0 DUP1 RETURNDATACOPY RETURNDATASIZE PUSH1 0x0 REVERT JUMPDEST POP POP POP POP PUSH1 0x40 MLOAD RETURNDATASIZE PUSH1 0x1F NOT PUSH1 0x1F DUP3 ADD AND DUP3 ADD DUP1 PUSH1 0x40 MSTORE POP DUP2 ADD SWAP1 PUSH2 0x6CC SWAP2 SWAP1 PUSH2 0x1C06 JUMP JUMPDEST POP PUSH1 0x40 MLOAD DUP2 DUP2 MSTORE CALLER SWAP1 PUSH32 0xE1FFFCC4923D04B559F4D29A8BFC6CDA04EB5B0D3C460751C2402C5C5CC9109C SWAP1 PUSH1 0x20 ADD JUMPDEST PUSH1 0x40 MLOAD DUP1 SWAP2 SUB SWAP1 LOG2 POP JUMP JUMPDEST PUSH2 0x70E PUSH2 0x181D JUMP JUMPDEST CALLER PUSH1 0x0 SWAP1 DUP2 MSTORE PUSH1 0xA PUSH1 0x20 SWAP1 DUP2 MSTORE PUSH1 0x40 DUP1 DUP4 KECCAK256 DUP5 DUP5 MSTORE SWAP1 SWAP2 MSTORE SWAP1 KECCAK256 DUP1 SLOAD PUSH2 0x782 JUMPI PUSH1 0x40 MLOAD PUSH3 0x461BCD PUSH1 0xE5 SHL DUP2 MSTORE PUSH1 0x20 PUSH1 0x4 DUP3 ADD MSTORE PUSH1 0x23 PUSH1 0x24 DUP3 ADD MSTORE PUSH32 0x4E6F207374616B656420616D6F756E7420746F207265717565737420756E7374 PUSH1 0x44 DUP3 ADD MSTORE PUSH3 0x616B65 PUSH1 0xE8 SHL PUSH1 0x64 DUP3 ADD MSTORE PUSH1 0x84 ADD PUSH2 0x631 JUMP JUMPDEST PUSH1 0x3 DUP2 ADD SLOAD PUSH1 0xFF AND ISZERO PUSH2 0x7D7 JUMPI PUSH1 0x40 MLOAD PUSH3 0x461BCD PUSH1 0xE5 SHL DUP2 MSTORE PUSH1 0x20 PUSH1 0x4 DUP3 ADD MSTORE PUSH1 0x19 PUSH1 0x24 DUP3 ADD MSTORE PUSH32 0x556E7374616B6520616C72656164792072657175657374656400000000000000 PUSH1 0x44 DUP3 ADD MSTORE PUSH1 0x64 ADD PUSH2 0x631 JUMP JUMPDEST DUP1 SLOAD PUSH1 0x1 SLOAD PUSH1 0x0 SWAP1 DUP2 SUB PUSH2 0x800 JUMPI PUSH2 0x7F9 DUP3 DUP5 PUSH1 0x1 ADD SLOAD TIMESTAMP PUSH2 0x589 SWAP2 SWAP1 PUSH2 0x1C28 JUMP JUMPDEST SWAP1 POP PUSH2 0x88A JUMP JUMPDEST PUSH1 0x1 SLOAD DUP4 PUSH1 0x1 ADD SLOAD PUSH2 0x812 SWAP2 SWAP1 PUSH2 0x1BF3 JUMP JUMPDEST TIMESTAMP LT ISZERO PUSH2 0x873 JUMPI TIMESTAMP PUSH1 0x2 DUP5 ADD SSTORE PUSH1 0x3 DUP4 ADD DUP1 SLOAD PUSH1 0xFF NOT AND PUSH1 0x1 OR SWAP1 SSTORE DUP3 SLOAD PUSH1 0x40 MLOAD CALLER SWAP2 PUSH32 0x828764C21E74C28710E19919735825ABA966621C95CBD913F8ED65A2D298F48C SWAP2 PUSH2 0x863 SWAP2 DUP2 MSTORE PUSH1 0x20 ADD SWAP1 JUMP JUMPDEST PUSH1 0x40 MLOAD DUP1 SWAP2 SUB SWAP1 LOG2 POP POP POP PUSH2 0xA8A JUMP JUMPDEST PUSH2 0x887 DUP3 DUP5 PUSH1 0x1 ADD SLOAD TIMESTAMP PUSH2 0x589 SWAP2 SWAP1 PUSH2 0x1C28 JUMP JUMPDEST SWAP1 POP JUMPDEST DUP2 PUSH1 0xD SLOAD LT ISZERO PUSH2 0x8DC JUMPI PUSH1 0x40 MLOAD PUSH3 0x461BCD PUSH1 0xE5 SHL DUP2 MSTORE PUSH1 0x20 PUSH1 0x4 DUP3 ADD MSTORE PUSH1 0x1D PUSH1 0x24 DUP3 ADD MSTORE PUSH32 0x4F766572666C6F773A20746F74616C207374616B656420616D6F756E74000000 PUSH1 0x44 DUP3 ADD MSTORE PUSH1 0x64 ADD PUSH2 0x631 JUMP JUMPDEST DUP2 PUSH1 0xD PUSH1 0x0 DUP3 DUP3 SLOAD PUSH2 0x8EE SWAP2 SWAP1 PUSH2 0x1C28 JUMP JUMPDEST SWAP1 SWAP2 SSTORE POP PUSH1 0x0 SWAP1 POP PUSH2 0x900 DUP4 DUP4 PUSH2 0x1C28 JUMP JUMPDEST SWAP1 POP DUP1 PUSH1 0xE SLOAD LT ISZERO PUSH2 0x954 JUMPI PUSH1 0x40 MLOAD PUSH3 0x461BCD PUSH1 0xE5 SHL DUP2 MSTORE PUSH1 0x20 PUSH1 0x4 DUP3 ADD MSTORE PUSH1 0x1C PUSH1 0x24 DUP3 ADD MSTORE PUSH32 0x4F766572666C6F773A2072657761726420706F6F6C20616D6F756E7400000000 PUSH1 0x44 DUP3 ADD MSTORE PUSH1 0x64 ADD PUSH2 0x631 JUMP JUMPDEST DUP1 PUSH1 0xE PUSH1 0x0 DUP3 DUP3 SLOAD PUSH2 0x966 SWAP2 SWAP1 PUSH2 0x1C28 JUMP JUMPDEST SWAP3 POP POP DUP2 SWAP1 SSTORE POP DUP1 PUSH1 0xF PUSH1 0x0 DUP3 DUP3 SLOAD PUSH2 0x97F SWAP2 SWAP1 PUSH2 0x1C28 JUMP JUMPDEST SWAP1 SWAP2 SSTORE POP POP CALLER PUSH1 0x0 DUP2 DUP2 MSTORE PUSH1 0xA PUSH1 0x20 SWAP1 DUP2 MSTORE PUSH1 0x40 DUP1 DUP4 KECCAK256 DUP10 DUP5 MSTORE SWAP1 SWAP2 MSTORE DUP1 DUP3 KECCAK256 DUP3 DUP2 SSTORE PUSH1 0x1 DUP2 ADD DUP4 SWAP1 SSTORE PUSH1 0x2 DUP2 ADD DUP4 SWAP1 SSTORE PUSH1 0x3 ADD DUP1 SLOAD PUSH1 0xFF NOT AND SWAP1 SSTORE SWAP1 SLOAD SWAP1 MLOAD PUSH4 0xA9059CBB PUSH1 0xE0 SHL DUP2 MSTORE PUSH1 0x4 DUP2 ADD SWAP3 SWAP1 SWAP3 MSTORE PUSH1 0x24 DUP3 ADD DUP5 SWAP1 MSTORE PUSH1 0x1 PUSH1 0x1 PUSH1 0xA0 SHL SUB AND SWAP1 PUSH4 0xA9059CBB SWAP1 PUSH1 0x44 ADD PUSH1 0x20 PUSH1 0x40 MLOAD DUP1 DUP4 SUB DUP2 PUSH1 0x0 DUP8 GAS CALL ISZERO DUP1 ISZERO PUSH2 0xA0A JUMPI RETURNDATASIZE PUSH1 0x0 DUP1 RETURNDATACOPY RETURNDATASIZE PUSH1 0x0 REVERT JUMPDEST POP POP POP POP PUSH1 0x40 MLOAD RETURNDATASIZE PUSH1 0x1F NOT PUSH1 0x1F DUP3 ADD AND DUP3 ADD DUP1 PUSH1 0x40 MSTORE POP DUP2 ADD SWAP1 PUSH2 0xA2E SWAP2 SWAP1 PUSH2 0x1C06 JUMP JUMPDEST POP PUSH1 0x40 MLOAD DUP3 DUP2 MSTORE CALLER SWAP1 PUSH32 0x7084F5476618D8E60B11EF0D7D3F06914655ADB8793E28FF7F018D4C76D505D5 SWAP1 PUSH1 0x20 ADD PUSH1 0x40 MLOAD DUP1 SWAP2 SUB SWAP1 LOG2 PUSH2 0xA6D CALLER PUSH2 0xBDD JUMP JUMPDEST PUSH1 0x0 SUB PUSH2 0xA85 JUMPI CALLER PUSH1 0x0 SWAP1 DUP2 MSTORE PUSH1 0xB PUSH1 0x20 MSTORE PUSH1 0x40 DUP2 KECCAK256 SSTORE JUMPDEST POP POP POP POP JUMPDEST PUSH2 0xAA1 PUSH1 0x1 PUSH1 0x0 DUP1 MLOAD PUSH1 0x20 PUSH2 0x1CDA DUP4 CODECOPY DUP2 MLOAD SWAP2 MSTORE SSTORE JUMP JUMPDEST POP JUMP JUMPDEST PUSH2 0xAAC PUSH2 0x17C2 JUMP JUMPDEST PUSH1 0x4 SSTORE JUMP JUMPDEST PUSH2 0xAB9 PUSH2 0x181D JUMP JUMPDEST PUSH2 0xAC1 PUSH2 0x1869 JUMP JUMPDEST CALLER PUSH1 0x0 SWAP1 DUP2 MSTORE PUSH1 0xA PUSH1 0x20 SWAP1 DUP2 MSTORE PUSH1 0x40 DUP1 DUP4 KECCAK256 DUP5 DUP5 MSTORE SWAP1 SWAP2 MSTORE SWAP1 KECCAK256 PUSH1 0x3 DUP2 ADD SLOAD PUSH1 0xFF AND PUSH2 0xB27 JUMPI PUSH1 0x40 MLOAD PUSH3 0x461BCD PUSH1 0xE5 SHL DUP2 MSTORE PUSH1 0x20 PUSH1 0x4 DUP3 ADD MSTORE PUSH1 0x15 PUSH1 0x24 DUP3 ADD MSTORE PUSH21 0x155B9CDD185AD9481B9BDD081C995C5D595CDD1959 PUSH1 0x5A SHL PUSH1 0x44 DUP3 ADD MSTORE PUSH1 0x64 ADD PUSH2 0x631 JUMP JUMPDEST PUSH1 0x5 SLOAD DUP2 PUSH1 0x2 ADD SLOAD PUSH2 0xB39 SWAP2 SWAP1 PUSH2 0x1BF3 JUMP JUMPDEST TIMESTAMP LT ISZERO PUSH2 0xB88 JUMPI PUSH1 0x40 MLOAD PUSH3 0x461BCD PUSH1 0xE5 SHL DUP2 MSTORE PUSH1 0x20 PUSH1 0x4 DUP3 ADD MSTORE PUSH1 0x18 PUSH1 0x24 DUP3 ADD MSTORE PUSH32 0x436F6F6C646F776E20706572696F64206E6F74206F7665720000000000000000 PUSH1 0x44 DUP3 ADD MSTORE PUSH1 0x64 ADD PUSH2 0x631 JUMP JUMPDEST DUP1 SLOAD PUSH1 0x1 DUP3 ADD SLOAD PUSH1 0x0 SWAP1 PUSH2 0xBA2 SWAP1 DUP4 SWAP1 PUSH2 0x589 SWAP1 TIMESTAMP PUSH2 0x1C28 JUMP JUMPDEST SWAP1 POP PUSH1 0x0 PUSH2 0xBB0 DUP4 DUP4 PUSH2 0x1C28 JUMP JUMPDEST SWAP1 POP DUP3 PUSH1 0xD PUSH1 0x0 DUP3 DUP3 SLOAD PUSH2 0xBC4 SWAP2 SWAP1 PUSH2 0x1C28 JUMP JUMPDEST SWAP3 POP POP DUP2 SWAP1 SSTORE POP DUP1 PUSH1 0xE PUSH1 0x0 DUP3 DUP3 SLOAD PUSH2 0x966 SWAP2 SWAP1 PUSH2 0x1C28 JUMP JUMPDEST PUSH1 0x1 PUSH1 0x1 PUSH1 0xA0 SHL SUB DUP2 AND PUSH1 0x0 SWAP1 DUP2 MSTORE PUSH1 0xB PUSH1 0x20 SWAP1 DUP2 MSTORE PUSH1 0x40 DUP1 DUP4 KECCAK256 SLOAD PUSH1 0xA SWAP1 SWAP3 MSTORE DUP3 KECCAK256 DUP3 SWAP2 SWAP1 DUP3 JUMPDEST DUP3 DUP2 LT ISZERO PUSH2 0xC30 JUMPI PUSH1 0x0 DUP2 DUP2 MSTORE PUSH1 0x20 DUP4 SWAP1 MSTORE PUSH1 0x40 SWAP1 KECCAK256 SLOAD PUSH2 0xC26 SWAP1 DUP6 PUSH2 0x1BF3 JUMP JUMPDEST SWAP4 POP PUSH1 0x1 ADD PUSH2 0xC05 JUMP JUMPDEST POP SWAP2 SWAP5 SWAP4 POP POP POP POP JUMP JUMPDEST PUSH2 0xC42 PUSH2 0x17C2 JUMP JUMPDEST PUSH2 0xC4A PUSH2 0x189A JUMP JUMPDEST JUMP JUMPDEST PUSH32 0xF0C57E16840DF040F15088DC2F81FE391C3923BEC73E23A9662EFC9C229C6A00 DUP1 SLOAD PUSH1 0x1 PUSH1 0x40 SHL DUP2 DIV PUSH1 0xFF AND ISZERO SWAP1 PUSH8 0xFFFFFFFFFFFFFFFF AND PUSH1 0x0 DUP2 ISZERO DUP1 ISZERO PUSH2 0xC92 JUMPI POP DUP3 JUMPDEST SWAP1 POP PUSH1 0x0 DUP3 PUSH8 0xFFFFFFFFFFFFFFFF AND PUSH1 0x1 EQ DUP1 ISZERO PUSH2 0xCAF JUMPI POP ADDRESS EXTCODESIZE ISZERO JUMPDEST SWAP1 POP DUP2 ISZERO DUP1 ISZERO PUSH2 0xCBD JUMPI POP DUP1 ISZERO JUMPDEST ISZERO PUSH2 0xCDB JUMPI PUSH1 0x40 MLOAD PUSH4 0xF92EE8A9 PUSH1 0xE0 SHL DUP2 MSTORE PUSH1 0x4 ADD PUSH1 0x40 MLOAD DUP1 SWAP2 SUB SWAP1 REVERT JUMPDEST DUP5 SLOAD PUSH8 0xFFFFFFFFFFFFFFFF NOT AND PUSH1 0x1 OR DUP6 SSTORE DUP4 ISZERO PUSH2 0xD05 JUMPI DUP5 SLOAD PUSH1 0xFF PUSH1 0x40 SHL NOT AND PUSH1 0x1 PUSH1 0x40 SHL OR DUP6 SSTORE JUMPDEST PUSH2 0xD0E CALLER PUSH2 0x18FA JUMP JUMPDEST PUSH2 0xD16 PUSH2 0x190B JUMP JUMPDEST PUSH2 0xD1E PUSH2 0x191B JUMP JUMPDEST PUSH1 0x0 DUP1 SLOAD PUSH1 0x1 PUSH1 0x1 PUSH1 0xA0 SHL SUB NOT AND PUSH1 0x1 PUSH1 0x1 PUSH1 0xA0 SHL SUB DUP14 AND OR DUP2 SSTORE PUSH1 0x1 DUP12 SWAP1 SSTORE PUSH1 0x2 DUP2 SWAP1 SSTORE PUSH1 0x3 SSTORE PUSH1 0x4 DUP10 SWAP1 SSTORE PUSH1 0x5 DUP9 SWAP1 SSTORE PUSH2 0xD5D PUSH3 0x278D00 DUP12 PUSH2 0x1C3B JUMP JUMPDEST PUSH1 0x6 SSTORE PUSH1 0x7 DUP8 SWAP1 SSTORE PUSH1 0x8 DUP7 SWAP1 SSTORE DUP4 ISZERO PUSH2 0xDB0 JUMPI DUP5 SLOAD PUSH1 0xFF PUSH1 0x40 SHL NOT AND DUP6 SSTORE PUSH1 0x40 MLOAD PUSH1 0x1 DUP2 MSTORE PUSH32 0xC7F505B2F371AE2175EE4913F4499E1F2633A7B5936321EED1CDAEB6115181D2 SWAP1 PUSH1 0x20 ADD PUSH1 0x40 MLOAD DUP1 SWAP2 SUB SWAP1 LOG1 JUMPDEST POP POP POP POP POP POP POP POP POP POP POP JUMP JUMPDEST PUSH1 0x0 PUSH1 0x1 SLOAD DUP3 LT PUSH2 0xDD0 JUMPI POP PUSH1 0x0 SWAP2 SWAP1 POP JUMP JUMPDEST PUSH1 0x0 PUSH1 0x1 SLOAD DUP4 PUSH1 0x8 SLOAD PUSH2 0xDE3 SWAP2 SWAP1 PUSH2 0x1C5D JUMP JUMPDEST PUSH2 0xDED SWAP2 SWAP1 PUSH2 0x1C3B JUMP JUMPDEST PUSH1 0x7 SLOAD PUSH2 0xDFA SWAP2 SWAP1 PUSH2 0x1C28 JUMP JUMPDEST SWAP1 POP PUSH1 0x0 DUP2 GT PUSH2 0xE4C JUMPI PUSH1 0x40 MLOAD PUSH3 0x461BCD PUSH1 0xE5 SHL DUP2 MSTORE PUSH1 0x20 PUSH1 0x4 DUP3 ADD MSTORE PUSH1 0x1D PUSH1 0x24 DUP3 ADD MSTORE PUSH32 0x43616E6E6F7420736C6173682061206E656761746976652076616C7565000000 PUSH1 0x44 DUP3 ADD MSTORE PUSH1 0x64 ADD PUSH2 0x631 JUMP JUMPDEST SWAP3 SWAP2 POP POP JUMP JUMPDEST SWAP2 SWAP1 POP JUMP JUMPDEST PUSH2 0xE5F PUSH2 0x17C2 JUMP JUMPDEST PUSH1 0x1 DUP2 SWAP1 SSTORE PUSH2 0xE71 PUSH3 0x278D00 DUP3 PUSH2 0x1C3B JUMP JUMPDEST PUSH1 0x6 SSTORE POP JUMP JUMPDEST PUSH2 0xE7F PUSH2 0x17C2 JUMP JUMPDEST PUSH2 0xC4A PUSH1 0x0 PUSH2 0x192B JUMP JUMPDEST PUSH1 0x0 PUSH1 0x1 SLOAD DUP3 LT PUSH2 0xEA2 JUMPI PUSH1 0x4 SLOAD PUSH2 0xE4C SWAP1 PUSH1 0x90 PUSH2 0x1C5D JUMP JUMPDEST PUSH1 0x0 PUSH1 0x1 SLOAD DUP4 PUSH1 0x6 SLOAD PUSH2 0xEB5 SWAP2 SWAP1 PUSH2 0x1C5D JUMP JUMPDEST PUSH2 0xEC7 SWAP1 PUSH8 0xDE0B6B3A7640000 PUSH2 0x1C5D JUMP JUMPDEST PUSH2 0xED1 SWAP2 SWAP1 PUSH2 0x1C3B JUMP JUMPDEST SWAP1 POP PUSH1 0x0 PUSH15 0xC097CE7BC90715B34B9F1000000000 DUP3 DUP4 PUSH1 0x4 SLOAD PUSH2 0xEF4 SWAP2 SWAP1 PUSH2 0x1C5D JUMP JUMPDEST PUSH2 0xEFE SWAP2 SWAP1 PUSH2 0x1C5D JUMP JUMPDEST PUSH2 0xF08 SWAP2 SWAP1 PUSH2 0x1C3B JUMP JUMPDEST SWAP5 SWAP4 POP POP POP POP JUMP JUMPDEST PUSH1 0x1 PUSH1 0x1 PUSH1 0xA0 SHL SUB DUP2 AND PUSH1 0x0 SWAP1 DUP2 MSTORE PUSH1 0xB PUSH1 0x20 MSTORE PUSH1 0x40 DUP2 KECCAK256 SLOAD PUSH1 0x60 SWAP2 DUP2 PUSH8 0xFFFFFFFFFFFFFFFF DUP2 GT ISZERO PUSH2 0xF45 JUMPI PUSH2 0xF45 PUSH2 0x1C74 JUMP JUMPDEST PUSH1 0x40 MLOAD SWAP1 DUP1 DUP3 MSTORE DUP1 PUSH1 0x20 MUL PUSH1 0x20 ADD DUP3 ADD PUSH1 0x40 MSTORE DUP1 ISZERO PUSH2 0xFA3 JUMPI DUP2 PUSH1 0x20 ADD JUMPDEST PUSH2 0xF90 PUSH1 0x40 MLOAD DUP1 PUSH1 0x80 ADD PUSH1 0x40 MSTORE DUP1 PUSH1 0x0 DUP2 MSTORE PUSH1 0x20 ADD PUSH1 0x0 DUP2 MSTORE PUSH1 0x20 ADD PUSH1 0x0 DUP2 MSTORE PUSH1 0x20 ADD PUSH1 0x0 ISZERO ISZERO DUP2 MSTORE POP SWAP1 JUMP JUMPDEST DUP2 MSTORE PUSH1 0x20 ADD SWAP1 PUSH1 0x1 SWAP1 SUB SWAP1 DUP2 PUSH2 0xF63 JUMPI SWAP1 POP JUMPDEST POP SWAP1 POP PUSH1 0x0 JUMPDEST DUP3 DUP2 LT ISZERO PUSH2 0x1030 JUMPI PUSH1 0x1 PUSH1 0x1 PUSH1 0xA0 SHL SUB DUP6 AND PUSH1 0x0 SWAP1 DUP2 MSTORE PUSH1 0xA PUSH1 0x20 SWAP1 DUP2 MSTORE PUSH1 0x40 DUP1 DUP4 KECCAK256 DUP5 DUP5 MSTORE DUP3 MSTORE SWAP2 DUP3 SWAP1 KECCAK256 DUP3 MLOAD PUSH1 0x80 DUP2 ADD DUP5 MSTORE DUP2 SLOAD DUP2 MSTORE PUSH1 0x1 DUP3 ADD SLOAD SWAP3 DUP2 ADD SWAP3 SWAP1 SWAP3 MSTORE PUSH1 0x2 DUP2 ADD SLOAD SWAP3 DUP3 ADD SWAP3 SWAP1 SWAP3 MSTORE PUSH1 0x3 SWAP1 SWAP2 ADD SLOAD PUSH1 0xFF AND ISZERO ISZERO PUSH1 0x60 DUP3 ADD MSTORE DUP3 MLOAD DUP4 SWAP1 DUP4 SWAP1 DUP2 LT PUSH2 0x101D JUMPI PUSH2 0x101D PUSH2 0x1C8A JUMP JUMPDEST PUSH1 0x20 SWAP1 DUP2 MUL SWAP2 SWAP1 SWAP2 ADD ADD MSTORE PUSH1 0x1 ADD PUSH2 0xFA9 JUMP JUMPDEST POP SWAP4 SWAP3 POP POP POP JUMP JUMPDEST PUSH2 0x1040 PUSH2 0x17C2 JUMP JUMPDEST PUSH2 0xC4A PUSH2 0x199C JUMP JUMPDEST PUSH2 0x1050 PUSH2 0x17C2 JUMP JUMPDEST PUSH1 0x5 SSTORE JUMP JUMPDEST PUSH2 0x105D PUSH2 0x17C2 JUMP JUMPDEST PUSH1 0x1 PUSH1 0x1 PUSH1 0xA0 SHL SUB DUP2 AND PUSH1 0x0 DUP2 DUP2 MSTORE PUSH1 0xC PUSH1 0x20 SWAP1 DUP2 MSTORE PUSH1 0x40 DUP1 DUP4 KECCAK256 DUP1 SLOAD PUSH1 0xFF NOT AND SWAP1 SSTORE MLOAD SWAP2 DUP3 MSTORE PUSH32 0x8DAAF060C3306C38E068A75C054BF96ECD85A3DB1252712C4D93632744C42E0D SWAP2 ADD PUSH2 0x6FB JUMP JUMPDEST PUSH2 0x10B4 PUSH2 0x181D JUMP JUMPDEST PUSH2 0x10BC PUSH2 0x1869 JUMP JUMPDEST PUSH1 0x9 SLOAD PUSH1 0xFF AND ISZERO DUP1 PUSH2 0x10DD JUMPI POP CALLER PUSH1 0x0 SWAP1 DUP2 MSTORE PUSH1 0xC PUSH1 0x20 MSTORE PUSH1 0x40 SWAP1 KECCAK256 SLOAD PUSH1 0xFF AND JUMPDEST PUSH2 0x1129 JUMPI PUSH1 0x40 MLOAD PUSH3 0x461BCD PUSH1 0xE5 SHL DUP2 MSTORE PUSH1 0x20 PUSH1 0x4 DUP3 ADD MSTORE PUSH1 0x17 PUSH1 0x24 DUP3 ADD MSTORE PUSH32 0x41646472657373206E6F742077686974656C6973746564000000000000000000 PUSH1 0x44 DUP3 ADD MSTORE PUSH1 0x64 ADD PUSH2 0x631 JUMP JUMPDEST PUSH1 0x0 DUP2 GT PUSH2 0x116A JUMPI PUSH1 0x40 MLOAD PUSH3 0x461BCD PUSH1 0xE5 SHL DUP2 MSTORE PUSH1 0x20 PUSH1 0x4 DUP3 ADD MSTORE PUSH1 0xE PUSH1 0x24 DUP3 ADD MSTORE PUSH14 0x43616E6E6F74207374616B65203 PUSH1 0x94 SHL PUSH1 0x44 DUP3 ADD MSTORE PUSH1 0x64 ADD PUSH2 0x631 JUMP JUMPDEST PUSH1 0x2 SLOAD ISZERO PUSH2 0x11C4 JUMPI PUSH1 0x2 SLOAD DUP2 LT ISZERO PUSH2 0x11C4 JUMPI PUSH1 0x40 MLOAD PUSH3 0x461BCD PUSH1 0xE5 SHL DUP2 MSTORE PUSH1 0x20 PUSH1 0x4 DUP3 ADD MSTORE PUSH1 0x18 PUSH1 0x24 DUP3 ADD MSTORE PUSH32 0x416D6F756E742062656C6F77206D696E696D756D206361700000000000000000 PUSH1 0x44 DUP3 ADD MSTORE PUSH1 0x64 ADD PUSH2 0x631 JUMP JUMPDEST PUSH1 0x3 SLOAD ISZERO PUSH2 0x1230 JUMPI PUSH1 0x3 SLOAD PUSH2 0x11D8 CALLER PUSH2 0xBDD JUMP JUMPDEST PUSH2 0x11E2 SWAP1 DUP4 PUSH2 0x1BF3 JUMP JUMPDEST GT ISZERO PUSH2 0x1230 JUMPI PUSH1 0x40 MLOAD PUSH3 0x461BCD PUSH1 0xE5 SHL DUP2 MSTORE PUSH1 0x20 PUSH1 0x4 DUP3 ADD MSTORE PUSH1 0x1A PUSH1 0x24 DUP3 ADD MSTORE PUSH32 0x416D6F756E742065786365656473206D6178696D756D20636170000000000000 PUSH1 0x44 DUP3 ADD MSTORE PUSH1 0x64 ADD PUSH2 0x631 JUMP JUMPDEST CALLER PUSH1 0x0 DUP2 DUP2 MSTORE PUSH1 0xB PUSH1 0x20 DUP2 DUP2 MSTORE PUSH1 0x40 DUP1 DUP5 KECCAK256 DUP1 SLOAD DUP3 MLOAD PUSH1 0x80 DUP2 ADD DUP5 MSTORE DUP9 DUP2 MSTORE TIMESTAMP DUP2 DUP7 ADD SWAP1 DUP2 MSTORE DUP2 DUP6 ADD DUP9 DUP2 MSTORE PUSH1 0x60 DUP4 ADD DUP10 DUP2 MSTORE DUP11 DUP11 MSTORE PUSH1 0xA DUP9 MSTORE DUP7 DUP11 KECCAK256 DUP6 DUP12 MSTORE DUP9 MSTORE SWAP6 DUP10 KECCAK256 DUP4 MLOAD DUP2 SSTORE SWAP2 MLOAD PUSH1 0x1 DUP4 ADD SSTORE MLOAD PUSH1 0x2 DUP3 ADD SSTORE SWAP4 MLOAD PUSH1 0x3 SWAP1 SWAP5 ADD DUP1 SLOAD PUSH1 0xFF NOT AND SWAP5 ISZERO ISZERO SWAP5 SWAP1 SWAP5 OR SWAP1 SWAP4 SSTORE SWAP6 DUP6 MSTORE SWAP3 SWAP1 SWAP2 MSTORE DUP2 SLOAD SWAP1 SWAP3 SWAP1 SWAP2 SWAP1 PUSH2 0x12B4 DUP4 PUSH2 0x1CA0 JUMP JUMPDEST SWAP2 SWAP1 POP SSTORE POP DUP3 PUSH1 0xD PUSH1 0x0 DUP3 DUP3 SLOAD PUSH2 0x12CB SWAP2 SWAP1 PUSH2 0x1BF3 JUMP JUMPDEST SWAP3 POP POP DUP2 SWAP1 SSTORE POP PUSH1 0x0 PUSH8 0xDE0B6B3A7640000 PUSH2 0x12E8 PUSH1 0x1 SLOAD PUSH2 0xE89 JUMP JUMPDEST PUSH2 0x12F2 SWAP1 DUP7 PUSH2 0x1C5D JUMP JUMPDEST PUSH2 0x12FC SWAP2 SWAP1 PUSH2 0x1C3B JUMP JUMPDEST SWAP1 POP DUP1 PUSH1 0xF PUSH1 0x0 DUP3 DUP3 SLOAD PUSH2 0x1310 SWAP2 SWAP1 PUSH2 0x1BF3 JUMP JUMPDEST SWAP1 SWAP2 SSTORE POP POP PUSH1 0x0 SLOAD PUSH1 0x40 MLOAD PUSH4 0x23B872DD PUSH1 0xE0 SHL DUP2 MSTORE CALLER PUSH1 0x4 DUP3 ADD MSTORE ADDRESS PUSH1 0x24 DUP3 ADD MSTORE PUSH1 0x44 DUP2 ADD DUP7 SWAP1 MSTORE PUSH1 0x1 PUSH1 0x1 PUSH1 0xA0 SHL SUB SWAP1 SWAP2 AND SWAP1 PUSH4 0x23B872DD SWAP1 PUSH1 0x64 ADD PUSH1 0x20 PUSH1 0x40 MLOAD DUP1 DUP4 SUB DUP2 PUSH1 0x0 DUP8 GAS CALL ISZERO DUP1 ISZERO PUSH2 0x136C JUMPI RETURNDATASIZE PUSH1 0x0 DUP1 RETURNDATACOPY RETURNDATASIZE PUSH1 0x0 REVERT JUMPDEST POP POP POP POP PUSH1 0x40 MLOAD RETURNDATASIZE PUSH1 0x1F NOT PUSH1 0x1F DUP3 ADD AND DUP3 ADD DUP1 PUSH1 0x40 MSTORE POP DUP2 ADD SWAP1 PUSH2 0x1390 SWAP2 SWAP1 PUSH2 0x1C06 JUMP JUMPDEST POP PUSH1 0x40 MLOAD DUP5 DUP2 MSTORE CALLER SWAP1 PUSH32 0x9E71BC8EEA02A63969F509818F2DAFB9254532904319F9DBDA79B67BD34A5F3D SWAP1 PUSH1 0x20 ADD PUSH1 0x40 MLOAD DUP1 SWAP2 SUB SWAP1 LOG2 POP POP POP PUSH2 0xAA1 PUSH1 0x1 PUSH1 0x0 DUP1 MLOAD PUSH1 0x20 PUSH2 0x1CDA DUP4 CODECOPY DUP2 MLOAD SWAP2 MSTORE SSTORE JUMP JUMPDEST PUSH2 0x13E8 PUSH2 0x17C2 JUMP JUMPDEST PUSH1 0x8 SSTORE JUMP JUMPDEST PUSH2 0x13F5 PUSH2 0x17C2 JUMP JUMPDEST PUSH1 0x2 SSTORE JUMP JUMPDEST PUSH2 0x1402 PUSH2 0x17C2 JUMP JUMPDEST PUSH1 0x0 DUP2 GT PUSH2 0x1446 JUMPI PUSH1 0x40 MLOAD PUSH3 0x461BCD PUSH1 0xE5 SHL DUP2 MSTORE PUSH1 0x20 PUSH1 0x4 DUP3 ADD MSTORE PUSH1 0x11 PUSH1 0x24 DUP3 ADD MSTORE PUSH17 0x43616E6E6F74207769746864726177203 PUSH1 0x7C SHL PUSH1 0x44 DUP3 ADD MSTORE PUSH1 0x64 ADD PUSH2 0x631 JUMP JUMPDEST DUP1 PUSH1 0xF SLOAD PUSH1 0xE SLOAD PUSH2 0x1457 SWAP2 SWAP1 PUSH2 0x1C28 JUMP JUMPDEST LT ISZERO PUSH2 0x14D9 JUMPI PUSH1 0x40 MLOAD PUSH3 0x461BCD PUSH1 0xE5 SHL DUP2 MSTORE PUSH1 0x20 PUSH1 0x4 DUP3 ADD MSTORE PUSH1 0x45 PUSH1 0x24 DUP3 ADD MSTORE PUSH32 0x4E6F7420656E6F75676820746F6B656E7320696E2072657761726420706F6F6C PUSH1 0x44 DUP3 ADD MSTORE PUSH32 0x206166746572206163636F756E74696E6720666F722070656E64696E67207265 PUSH1 0x64 DUP3 ADD MSTORE PUSH5 0x7761726473 PUSH1 0xD8 SHL PUSH1 0x84 DUP3 ADD MSTORE PUSH1 0xA4 ADD PUSH2 0x631 JUMP JUMPDEST DUP1 PUSH1 0xE PUSH1 0x0 DUP3 DUP3 SLOAD PUSH2 0x14EB SWAP2 SWAP1 PUSH2 0x1C28 JUMP JUMPDEST SWAP1 SWAP2 SSTORE POP POP PUSH1 0x0 SLOAD PUSH1 0x40 MLOAD PUSH4 0xA9059CBB PUSH1 0xE0 SHL DUP2 MSTORE CALLER PUSH1 0x4 DUP3 ADD MSTORE PUSH1 0x24 DUP2 ADD DUP4 SWAP1 MSTORE PUSH1 0x1 PUSH1 0x1 PUSH1 0xA0 SHL SUB SWAP1 SWAP2 AND SWAP1 PUSH4 0xA9059CBB SWAP1 PUSH1 0x44 ADD PUSH1 0x20 PUSH1 0x40 MLOAD DUP1 DUP4 SUB DUP2 PUSH1 0x0 DUP8 GAS CALL ISZERO DUP1 ISZERO PUSH2 0x1541 JUMPI RETURNDATASIZE PUSH1 0x0 DUP1 RETURNDATACOPY RETURNDATASIZE PUSH1 0x0 REVERT JUMPDEST POP POP POP POP PUSH1 0x40 MLOAD RETURNDATASIZE PUSH1 0x1F NOT PUSH1 0x1F DUP3 ADD AND DUP3 ADD DUP1 PUSH1 0x40 MSTORE POP DUP2 ADD SWAP1 PUSH2 0x1565 SWAP2 SWAP1 PUSH2 0x1C06 JUMP JUMPDEST POP PUSH1 0x40 MLOAD DUP2 DUP2 MSTORE CALLER SWAP1 PUSH32 0x884EDAD9CE6FA2440D8A54CC123490EB96D2768479D49FF9C7366125A9424364 SWAP1 PUSH1 0x20 ADD PUSH2 0x6FB JUMP JUMPDEST PUSH2 0x15A0 PUSH2 0x17C2 JUMP JUMPDEST PUSH1 0x9 DUP1 SLOAD PUSH1 0xFF NOT AND PUSH1 0x1 OR SWAP1 SSTORE JUMP JUMPDEST PUSH1 0x0 DUP1 PUSH2 0x15BB DUP4 PUSH2 0xE89 JUMP JUMPDEST SWAP1 POP PUSH1 0x0 PUSH2 0x15C8 DUP5 PUSH2 0xDBD JUMP JUMPDEST SWAP1 POP PUSH1 0x0 PUSH8 0xDE0B6B3A7640000 PUSH2 0x15DF DUP5 DUP9 PUSH2 0x1C5D JUMP JUMPDEST PUSH2 0x15E9 SWAP2 SWAP1 PUSH2 0x1C3B JUMP JUMPDEST SWAP1 POP PUSH1 0x0 PUSH8 0xDE0B6B3A7640000 PUSH2 0x1600 DUP5 DUP5 PUSH2 0x1C5D JUMP JUMPDEST PUSH2 0x160A SWAP2 SWAP1 PUSH2 0x1C3B JUMP JUMPDEST SWAP1 POP DUP7 PUSH2 0x1617 DUP4 DUP3 PUSH2 0x1BF3 JUMP JUMPDEST LT ISZERO PUSH2 0x167B JUMPI PUSH1 0x40 MLOAD PUSH3 0x461BCD PUSH1 0xE5 SHL DUP2 MSTORE PUSH1 0x20 PUSH1 0x4 DUP3 ADD MSTORE PUSH1 0x2D PUSH1 0x24 DUP3 ADD MSTORE PUSH32 0x4F766572666C6F7720696E20746F74616C20776974686472617720616D6F756E PUSH1 0x44 DUP3 ADD MSTORE PUSH13 0x3A1031B0B631BAB630BA34B7B7 PUSH1 0x99 SHL PUSH1 0x64 DUP3 ADD MSTORE PUSH1 0x84 ADD PUSH2 0x631 JUMP JUMPDEST PUSH1 0x0 DUP2 PUSH2 0x1688 DUP5 DUP11 PUSH2 0x1BF3 JUMP JUMPDEST PUSH2 0x1692 SWAP2 SWAP1 PUSH2 0x1C28 JUMP JUMPDEST SWAP1 POP PUSH2 0x169E DUP3 DUP5 PUSH2 0x1C28 JUMP JUMPDEST PUSH1 0xE SLOAD LT ISZERO PUSH2 0x16EF JUMPI PUSH1 0x40 MLOAD PUSH3 0x461BCD PUSH1 0xE5 SHL DUP2 MSTORE PUSH1 0x20 PUSH1 0x4 DUP3 ADD MSTORE PUSH1 0x18 PUSH1 0x24 DUP3 ADD MSTORE PUSH32 0x496E73756666696369656E742072657761726420706F6F6C0000000000000000 PUSH1 0x44 DUP3 ADD MSTORE PUSH1 0x64 ADD PUSH2 0x631 JUMP JUMPDEST SWAP8 SWAP7 POP POP POP POP POP POP POP JUMP JUMPDEST PUSH2 0x1702 PUSH2 0x17C2 JUMP JUMPDEST PUSH1 0x9 DUP1 SLOAD PUSH1 0xFF NOT AND SWAP1 SSTORE JUMP JUMPDEST PUSH2 0x1716 PUSH2 0x17C2 JUMP JUMPDEST PUSH1 0x1 PUSH1 0x1 PUSH1 0xA0 SHL SUB DUP2 AND PUSH1 0x0 DUP2 DUP2 MSTORE PUSH1 0xC PUSH1 0x20 SWAP1 DUP2 MSTORE PUSH1 0x40 SWAP2 DUP3 SWAP1 KECCAK256 DUP1 SLOAD PUSH1 0xFF NOT AND PUSH1 0x1 SWAP1 DUP2 OR SWAP1 SWAP2 SSTORE SWAP2 MLOAD SWAP2 DUP3 MSTORE PUSH32 0x8DAAF060C3306C38E068A75C054BF96ECD85A3DB1252712C4D93632744C42E0D SWAP2 ADD PUSH2 0x6FB JUMP JUMPDEST PUSH2 0x1775 PUSH2 0x17C2 JUMP JUMPDEST PUSH1 0x7 SSTORE JUMP JUMPDEST PUSH2 0x1782 PUSH2 0x17C2 JUMP JUMPDEST PUSH1 0x3 SSTORE JUMP JUMPDEST PUSH2 0x178F PUSH2 0x17C2 JUMP JUMPDEST PUSH1 0x1 PUSH1 0x1 PUSH1 0xA0 SHL SUB DUP2 AND PUSH2 0x17B9 JUMPI PUSH1 0x40 MLOAD PUSH4 0x1E4FBDF7 PUSH1 0xE0 SHL DUP2 MSTORE PUSH1 0x0 PUSH1 0x4 DUP3 ADD MSTORE PUSH1 0x24 ADD PUSH2 0x631 JUMP JUMPDEST PUSH2 0xAA1 DUP2 PUSH2 0x192B JUMP JUMPDEST CALLER PUSH2 0x17F4 PUSH32 0x9016D09D72D40FDAE2FD8CEAC6B6234C7706214FD39C1CD1E609A0528C199300 SLOAD PUSH1 0x1 PUSH1 0x1 PUSH1 0xA0 SHL SUB AND SWAP1 JUMP JUMPDEST PUSH1 0x1 PUSH1 0x1 PUSH1 0xA0 SHL SUB AND EQ PUSH2 0xC4A JUMPI PUSH1 0x40 MLOAD PUSH4 0x118CDAA7 PUSH1 0xE0 SHL DUP2 MSTORE CALLER PUSH1 0x4 DUP3 ADD MSTORE PUSH1 0x24 ADD PUSH2 0x631 JUMP JUMPDEST PUSH1 0x0 DUP1 MLOAD PUSH1 0x20 PUSH2 0x1CDA DUP4 CODECOPY DUP2 MLOAD SWAP2 MSTORE DUP1 SLOAD PUSH1 0x1 NOT ADD PUSH2 0x184F JUMPI PUSH1 0x40 MLOAD PUSH4 0x3EE5AEB5 PUSH1 0xE0 SHL DUP2 MSTORE PUSH1 0x4 ADD PUSH1 0x40 MLOAD DUP1 SWAP2 SUB SWAP1 REVERT JUMPDEST PUSH1 0x2 SWAP1 SSTORE JUMP JUMPDEST PUSH1 0x1 PUSH1 0x0 DUP1 MLOAD PUSH1 0x20 PUSH2 0x1CDA DUP4 CODECOPY DUP2 MLOAD SWAP2 MSTORE SSTORE JUMP JUMPDEST PUSH1 0x0 DUP1 MLOAD PUSH1 0x20 PUSH2 0x1CBA DUP4 CODECOPY DUP2 MLOAD SWAP2 MSTORE SLOAD PUSH1 0xFF AND ISZERO PUSH2 0xC4A JUMPI PUSH1 0x40 MLOAD PUSH4 0xD93C0665 PUSH1 0xE0 SHL DUP2 MSTORE PUSH1 0x4 ADD PUSH1 0x40 MLOAD DUP1 SWAP2 SUB SWAP1 REVERT JUMPDEST PUSH2 0x18A2 PUSH2 0x19E5 JUMP JUMPDEST PUSH1 0x0 DUP1 MLOAD PUSH1 0x20 PUSH2 0x1CBA DUP4 CODECOPY DUP2 MLOAD SWAP2 MSTORE DUP1 SLOAD PUSH1 0xFF NOT AND DUP2 SSTORE PUSH32 0x5DB9EE0A495BF2E6FF9C91A7834C1BA4FDD244A5E8AA4E537BD38AEAE4B073AA CALLER JUMPDEST PUSH1 0x40 MLOAD PUSH1 0x1 PUSH1 0x1 PUSH1 0xA0 SHL SUB SWAP1 SWAP2 AND DUP2 MSTORE PUSH1 0x20 ADD PUSH1 0x40 MLOAD DUP1 SWAP2 SUB SWAP1 LOG1 POP JUMP JUMPDEST PUSH2 0x1902 PUSH2 0x1A15 JUMP JUMPDEST PUSH2 0xAA1 DUP2 PUSH2 0x1A5E JUMP JUMPDEST PUSH2 0x1913 PUSH2 0x1A15 JUMP JUMPDEST PUSH2 0xC4A PUSH2 0x1A66 JUMP JUMPDEST PUSH2 0x1923 PUSH2 0x1A15 JUMP JUMPDEST PUSH2 0xC4A PUSH2 0x1A87 JUMP JUMPDEST PUSH32 0x9016D09D72D40FDAE2FD8CEAC6B6234C7706214FD39C1CD1E609A0528C199300 DUP1 SLOAD PUSH1 0x1 PUSH1 0x1 PUSH1 0xA0 SHL SUB NOT DUP2 AND PUSH1 0x1 PUSH1 0x1 PUSH1 0xA0 SHL SUB DUP5 DUP2 AND SWAP2 DUP3 OR DUP5 SSTORE PUSH1 0x40 MLOAD SWAP3 AND SWAP2 DUP3 SWAP1 PUSH32 0x8BE0079C531659141344CD1FD0A4F28419497F9722A3DAAFE3B4186F6B6457E0 SWAP1 PUSH1 0x0 SWAP1 LOG3 POP POP POP JUMP JUMPDEST PUSH2 0x19A4 PUSH2 0x1869 JUMP JUMPDEST PUSH1 0x0 DUP1 MLOAD PUSH1 0x20 PUSH2 0x1CBA DUP4 CODECOPY DUP2 MLOAD SWAP2 MSTORE DUP1 SLOAD PUSH1 0xFF NOT AND PUSH1 0x1 OR DUP2 SSTORE PUSH32 0x62E78CEA01BEE320CD4E420270B5EA74000D11B0C9F74754EBDBFC544B05A258 CALLER PUSH2 0x18DC JUMP JUMPDEST PUSH1 0x0 DUP1 MLOAD PUSH1 0x20 PUSH2 0x1CBA DUP4 CODECOPY DUP2 MLOAD SWAP2 MSTORE SLOAD PUSH1 0xFF AND PUSH2 0xC4A JUMPI PUSH1 0x40 MLOAD PUSH4 0x8DFC202B PUSH1 0xE0 SHL DUP2 MSTORE PUSH1 0x4 ADD PUSH1 0x40 MLOAD DUP1 SWAP2 SUB SWAP1 REVERT JUMPDEST PUSH32 0xF0C57E16840DF040F15088DC2F81FE391C3923BEC73E23A9662EFC9C229C6A00 SLOAD PUSH1 0x1 PUSH1 0x40 SHL SWAP1 DIV PUSH1 0xFF AND PUSH2 0xC4A JUMPI PUSH1 0x40 MLOAD PUSH4 0x1AFCD79F PUSH1 0xE3 SHL DUP2 MSTORE PUSH1 0x4 ADD PUSH1 0x40 MLOAD DUP1 SWAP2 SUB SWAP1 REVERT JUMPDEST PUSH2 0x178F PUSH2 0x1A15 JUMP JUMPDEST PUSH2 0x1A6E PUSH2 0x1A15 JUMP JUMPDEST PUSH1 0x0 DUP1 MLOAD PUSH1 0x20 PUSH2 0x1CBA DUP4 CODECOPY DUP2 MLOAD SWAP2 MSTORE DUP1 SLOAD PUSH1 0xFF NOT AND SWAP1 SSTORE JUMP JUMPDEST PUSH2 0x1855 PUSH2 0x1A15 JUMP JUMPDEST DUP1 CALLDATALOAD PUSH1 0x1 PUSH1 0x1 PUSH1 0xA0 SHL SUB DUP2 AND DUP2 EQ PUSH2 0xE52 JUMPI PUSH1 0x0 DUP1 REVERT JUMPDEST PUSH1 0x0 PUSH1 0x20 DUP3 DUP5 SUB SLT ISZERO PUSH2 0x1AB8 JUMPI PUSH1 0x0 DUP1 REVERT JUMPDEST PUSH2 0x1AC1 DUP3 PUSH2 0x1A8F JUMP JUMPDEST SWAP4 SWAP3 POP POP POP JUMP JUMPDEST PUSH1 0x0 PUSH1 0x20 DUP3 DUP5 SUB SLT ISZERO PUSH2 0x1ADA JUMPI PUSH1 0x0 DUP1 REVERT JUMPDEST POP CALLDATALOAD SWAP2 SWAP1 POP JUMP JUMPDEST PUSH1 0x0 DUP1 PUSH1 0x0 DUP1 PUSH1 0x0 DUP1 PUSH1 0xC0 DUP8 DUP10 SUB SLT ISZERO PUSH2 0x1AFA JUMPI PUSH1 0x0 DUP1 REVERT JUMPDEST PUSH2 0x1B03 DUP8 PUSH2 0x1A8F JUMP JUMPDEST SWAP9 PUSH1 0x20 DUP9 ADD CALLDATALOAD SWAP9 POP PUSH1 0x40 DUP9 ADD CALLDATALOAD SWAP8 PUSH1 0x60 DUP2 ADD CALLDATALOAD SWAP8 POP PUSH1 0x80 DUP2 ADD CALLDATALOAD SWAP7 POP PUSH1 0xA0 ADD CALLDATALOAD SWAP5 POP SWAP3 POP POP POP JUMP JUMPDEST PUSH1 0x20 DUP1 DUP3 MSTORE DUP3 MLOAD DUP3 DUP3 ADD DUP2 SWAP1 MSTORE PUSH1 0x0 SWAP2 SWAP1 PUSH1 0x40 SWAP1 DUP2 DUP6 ADD SWAP1 DUP7 DUP5 ADD DUP6 JUMPDEST DUP3 DUP2 LT ISZERO PUSH2 0x1B84 JUMPI DUP2 MLOAD DUP1 MLOAD DUP6 MSTORE DUP7 DUP2 ADD MLOAD DUP8 DUP7 ADD MSTORE DUP6 DUP2 ADD MLOAD DUP7 DUP7 ADD MSTORE PUSH1 0x60 SWAP1 DUP2 ADD MLOAD ISZERO ISZERO SWAP1 DUP6 ADD MSTORE PUSH1 0x80 SWAP1 SWAP4 ADD SWAP3 SWAP1 DUP6 ADD SWAP1 PUSH1 0x1 ADD PUSH2 0x1B48 JUMP JUMPDEST POP SWAP2 SWAP8 SWAP7 POP POP POP POP POP POP POP JUMP JUMPDEST PUSH1 0x0 DUP1 PUSH1 0x40 DUP4 DUP6 SUB SLT ISZERO PUSH2 0x1BA4 JUMPI PUSH1 0x0 DUP1 REVERT JUMPDEST PUSH2 0x1BAD DUP4 PUSH2 0x1A8F JUMP JUMPDEST SWAP5 PUSH1 0x20 SWAP4 SWAP1 SWAP4 ADD CALLDATALOAD SWAP4 POP POP POP JUMP JUMPDEST PUSH1 0x0 DUP1 PUSH1 0x40 DUP4 DUP6 SUB SLT ISZERO PUSH2 0x1BCE JUMPI PUSH1 0x0 DUP1 REVERT JUMPDEST POP POP DUP1 CALLDATALOAD SWAP3 PUSH1 0x20 SWAP1 SWAP2 ADD CALLDATALOAD SWAP2 POP JUMP JUMPDEST PUSH4 0x4E487B71 PUSH1 0xE0 SHL PUSH1 0x0 MSTORE PUSH1 0x11 PUSH1 0x4 MSTORE PUSH1 0x24 PUSH1 0x0 REVERT JUMPDEST DUP1 DUP3 ADD DUP1 DUP3 GT ISZERO PUSH2 0xE4C JUMPI PUSH2 0xE4C PUSH2 0x1BDD JUMP JUMPDEST PUSH1 0x0 PUSH1 0x20 DUP3 DUP5 SUB SLT ISZERO PUSH2 0x1C18 JUMPI PUSH1 0x0 DUP1 REVERT JUMPDEST DUP2 MLOAD DUP1 ISZERO ISZERO DUP2 EQ PUSH2 0x1AC1 JUMPI PUSH1 0x0 DUP1 REVERT JUMPDEST DUP2 DUP2 SUB DUP2 DUP2 GT ISZERO PUSH2 0xE4C JUMPI PUSH2 0xE4C PUSH2 0x1BDD JUMP JUMPDEST PUSH1 0x0 DUP3 PUSH2 0x1C58 JUMPI PUSH4 0x4E487B71 PUSH1 0xE0 SHL PUSH1 0x0 MSTORE PUSH1 0x12 PUSH1 0x4 MSTORE PUSH1 0x24 PUSH1 0x0 REVERT JUMPDEST POP DIV SWAP1 JUMP JUMPDEST DUP1 DUP3 MUL DUP2 ISZERO DUP3 DUP3 DIV DUP5 EQ OR PUSH2 0xE4C JUMPI PUSH2 0xE4C PUSH2 0x1BDD JUMP JUMPDEST PUSH4 0x4E487B71 PUSH1 0xE0 SHL PUSH1 0x0 MSTORE PUSH1 0x41 PUSH1 0x4 MSTORE PUSH1 0x24 PUSH1 0x0 REVERT JUMPDEST PUSH4 0x4E487B71 PUSH1 0xE0 SHL PUSH1 0x0 MSTORE PUSH1 0x32 PUSH1 0x4 MSTORE PUSH1 0x24 PUSH1 0x0 REVERT JUMPDEST PUSH1 0x0 PUSH1 0x1 DUP3 ADD PUSH2 0x1CB2 JUMPI PUSH2 0x1CB2 PUSH2 0x1BDD JUMP JUMPDEST POP PUSH1 0x1 ADD SWAP1 JUMP INVALID 0xCD 0x5E 0xD1 0x5C PUSH15 0x187E77E9AEE88184C21F4F2182AB58 0x27 0xCB EXTCODESIZE PUSH31 0x7FBEDCD63F033009B779B17422D0DF92223018B32B4D1FA46E071723D6817 0xE2 BASEFEE PUSH14 0x3BECC55F00A264697066735822 SLT KECCAK256 0x4E 0xD5 0xB6 DUP4 PUSH28 0x14C19A66ECDBCC20A5411277C7A6CEFD42CE25ECBAEB54931582D864 PUSH20 0x6F6C634300081400330000000000000000000000 "},"methodIdentifiers":{"addToWhitelist(address)":"e43252d7","calculateTax(uint256)":"483a9310","calculateTotalWithdraw(uint256,uint256)":"d2771e01","calculateYield(uint256)":"80a3301b","claim(uint256)":"379607f5","cooldownPeriod()":"04646a49","depositRewardTokens(uint256)":"16c621e0","disableWhitelist()":"d6b0f484","enableWhitelist()":"cdfb2b4e","getTotalStakedForUser(address)":"3b42ffcf","getUserStakes(address)":"842e2981","initialize(address,uint256,uint256,uint256,uint256,uint256)":"45ff4c80","maxCap()":"23548b8b","minCap()":"3fa615b0","monthlyIncreasePercentage()":"29161479","monthsInStakingPeriod()":"6f629512","owner()":"8da5cb5b","pause()":"8456cb59","paused()":"5c975abb","pendingRewards()":"eded3fda","removeFromWhitelist(address)":"8ab1d681","renounceOwnership()":"715018a6","rewardPool()":"66666aa9","stake(uint256)":"a694fc3a","stakingDuration()":"8005a7de","stakingToken()":"72f702f3","startingSlashingPoint()":"0b7ead4a","totalStaked()":"817b1cd2","transferOwnership(address)":"f2fde38b","unpause()":"3f4ba83a","unstake(uint256)":"2e17de78","updateCooldownPeriod(uint256)":"861f6bfd","updateMaxCap(uint256)":"e81ba080","updateMinCap(uint256)":"bcaabf6c","updateMonthlyIncreasePercentage(uint256)":"b3c55721","updateStakingDuration(uint256)":"5b1d7086","updateStartingSlashingPoint(uint256)":"e6d24866","updateYieldConstant(uint256)":"36c1105a","userStakeCounter(address)":"5678b024","userStakes(address,uint256)":"b5d5b5fa","whitelistEnabled()":"51fb012d","whitelistedAddresses(address)":"06c933d8","withdrawRewardTokens(uint256)":"cb43b2dd","yieldConstant()":"7a65cd0b"}},"storageLayout":{"storage":[{"astId":897,"contract":"contracts/Staking.sol:Staking","label":"stakingToken","offset":0,"slot":"0","type":"t_contract(IERC20)877"},{"astId":900,"contract":"contracts/Staking.sol:Staking","label":"stakingDuration","offset":0,"slot":"1","type":"t_uint256"},{"astId":903,"contract":"contracts/Staking.sol:Staking","label":"minCap","offset":0,"slot":"2","type":"t_uint256"},{"astId":906,"contract":"contracts/Staking.sol:Staking","label":"maxCap","offset":0,"slot":"3","type":"t_uint256"},{"astId":909,"contract":"contracts/Staking.sol:Staking","label":"yieldConstant","offset":0,"slot":"4","type":"t_uint256"},{"astId":912,"contract":"contracts/Staking.sol:Staking","label":"cooldownPeriod","offset":0,"slot":"5","type":"t_uint256"},{"astId":915,"contract":"contracts/Staking.sol:Staking","label":"monthsInStakingPeriod","offset":0,"slot":"6","type":"t_uint256"},{"astId":918,"contract":"contracts/Staking.sol:Staking","label":"startingSlashingPoint","offset":0,"slot":"7","type":"t_uint256"},{"astId":921,"contract":"contracts/Staking.sol:Staking","label":"monthlyIncreasePercentage","offset":0,"slot":"8","type":"t_uint256"},{"astId":924,"contract":"contracts/Staking.sol:Staking","label":"whitelistEnabled","offset":0,"slot":"9","type":"t_bool"},{"astId":940,"contract":"contracts/Staking.sol:Staking","label":"userStakes","offset":0,"slot":"10","type":"t_mapping(t_address,t_mapping(t_uint256,t_struct(Stake)933_storage))"},{"astId":944,"contract":"contracts/Staking.sol:Staking","label":"userStakeCounter","offset":0,"slot":"11","type":"t_mapping(t_address,t_uint256)"},{"astId":948,"contract":"contracts/Staking.sol:Staking","label":"whitelistedAddresses","offset":0,"slot":"12","type":"t_mapping(t_address,t_bool)"},{"astId":950,"contract":"contracts/Staking.sol:Staking","label":"_totalStaked","offset":0,"slot":"13","type":"t_uint256"},{"astId":952,"contract":"contracts/Staking.sol:Staking","label":"_rewardPool","offset":0,"slot":"14","type":"t_uint256"},{"astId":954,"contract":"contracts/Staking.sol:Staking","label":"_totalPendingRewards","offset":0,"slot":"15","type":"t_uint256"}],"types":{"t_address":{"encoding":"inplace","label":"address","numberOfBytes":"20"},"t_bool":{"encoding":"inplace","label":"bool","numberOfBytes":"1"},"t_contract(IERC20)877":{"encoding":"inplace","label":"contract IERC20","numberOfBytes":"20"},"t_mapping(t_address,t_bool)":{"encoding":"mapping","key":"t_address","label":"mapping(address => bool)","numberOfBytes":"32","value":"t_bool"},"t_mapping(t_address,t_mapping(t_uint256,t_struct(Stake)933_storage))":{"encoding":"mapping","key":"t_address","label":"mapping(address => mapping(uint256 => struct Staking.Stake))","numberOfBytes":"32","value":"t_mapping(t_uint256,t_struct(Stake)933_storage)"},"t_mapping(t_address,t_uint256)":{"encoding":"mapping","key":"t_address","label":"mapping(address => uint256)","numberOfBytes":"32","value":"t_uint256"},"t_mapping(t_uint256,t_struct(Stake)933_storage)":{"encoding":"mapping","key":"t_uint256","label":"mapping(uint256 => struct Staking.Stake)","numberOfBytes":"32","value":"t_struct(Stake)933_storage"},"t_struct(Stake)933_storage":{"encoding":"inplace","label":"struct Staking.Stake","members":[{"astId":926,"contract":"contracts/Staking.sol:Staking","label":"amount","offset":0,"slot":"0","type":"t_uint256"},{"astId":928,"contract":"contracts/Staking.sol:Staking","label":"startTime","offset":0,"slot":"1","type":"t_uint256"},{"astId":930,"contract":"contracts/Staking.sol:Staking","label":"requestUnstakeTime","offset":0,"slot":"2","type":"t_uint256"},{"astId":932,"contract":"contracts/Staking.sol:Staking","label":"unstakeRequested","offset":0,"slot":"3","type":"t_bool"}],"numberOfBytes":"128"},"t_uint256":{"encoding":"inplace","label":"uint256","numberOfBytes":"32"}}}}}}