{"contracts/Staking.sol":{"Staking":{"abi":[{"inputs":[],"name":"EnforcedPause","type":"error"},{"inputs":[],"name":"ExpectedPause","type":"error"},{"inputs":[],"name":"InvalidInitialization","type":"error"},{"inputs":[],"name":"NotInitializing","type":"error"},{"inputs":[{"internalType":"address","name":"owner","type":"address"}],"name":"OwnableInvalidOwner","type":"error"},{"inputs":[{"internalType":"address","name":"account","type":"address"}],"name":"OwnableUnauthorizedAccount","type":"error"},{"inputs":[],"name":"ReentrancyGuardReentrantCall","type":"error"},{"anonymous":false,"inputs":[{"indexed":true,"internalType":"address","name":"owner","type":"address"},{"indexed":false,"internalType":"uint256","name":"amount","type":"uint256"}],"name":"Deposit","type":"event"},{"anonymous":false,"inputs":[{"indexed":false,"internalType":"uint64","name":"version","type":"uint64"}],"name":"Initialized","type":"event"},{"anonymous":false,"inputs":[{"indexed":true,"internalType":"address","name":"previousOwner","type":"address"},{"indexed":true,"internalType":"address","name":"newOwner","type":"address"}],"name":"OwnershipTransferred","type":"event"},{"anonymous":false,"inputs":[{"indexed":false,"internalType":"address","name":"account","type":"address"}],"name":"Paused","type":"event"},{"anonymous":false,"inputs":[{"indexed":true,"internalType":"address","name":"user","type":"address"},{"indexed":false,"internalType":"uint256","name":"reward","type":"uint256"}],"name":"RewardPaid","type":"event"},{"anonymous":false,"inputs":[{"indexed":true,"internalType":"address","name":"user","type":"address"},{"indexed":false,"internalType":"uint256","name":"amount","type":"uint256"}],"name":"Staked","type":"event"},{"anonymous":false,"inputs":[{"indexed":false,"internalType":"address","name":"account","type":"address"}],"name":"Unpaused","type":"event"},{"anonymous":false,"inputs":[{"indexed":true,"internalType":"address","name":"user","type":"address"},{"indexed":false,"internalType":"uint256","name":"amount","type":"uint256"}],"name":"UnstakeRequested","type":"event"},{"anonymous":false,"inputs":[{"indexed":true,"internalType":"address","name":"user","type":"address"},{"indexed":false,"internalType":"bool","name":"status","type":"bool"}],"name":"WhitelistStatusChanged","type":"event"},{"anonymous":false,"inputs":[{"indexed":true,"internalType":"address","name":"owner","type":"address"},{"indexed":false,"internalType":"uint256","name":"amount","type":"uint256"}],"name":"Withdraw","type":"event"},{"anonymous":false,"inputs":[{"indexed":true,"internalType":"address","name":"user","type":"address"},{"indexed":false,"internalType":"uint256","name":"amount","type":"uint256"}],"name":"Withdrawn","type":"event"},{"inputs":[{"internalType":"address","name":"_address","type":"address"}],"name":"addToWhitelist","outputs":[],"stateMutability":"nonpayable","type":"function"},{"inputs":[{"internalType":"uint256","name":"timeStaked","type":"uint256"}],"name":"calculateTax","outputs":[{"internalType":"uint256","name":"","type":"uint256"}],"stateMutability":"view","type":"function"},{"inputs":[{"internalType":"uint256","name":"_amount","type":"uint256"},{"internalType":"uint256","name":"timeStaked","type":"uint256"}],"name":"calculateTotalWithdraw","outputs":[{"internalType":"uint256","name":"","type":"uint256"}],"stateMutability":"view","type":"function"},{"inputs":[{"internalType":"uint256","name":"timeStaked","type":"uint256"}],"name":"calculateYield","outputs":[{"internalType":"uint256","name":"","type":"uint256"}],"stateMutability":"view","type":"function"},{"inputs":[{"internalType":"uint256","name":"stakeId","type":"uint256"}],"name":"claim","outputs":[],"stateMutability":"nonpayable","type":"function"},{"inputs":[],"name":"cooldownPeriod","outputs":[{"internalType":"uint256","name":"","type":"uint256"}],"stateMutability":"view","type":"function"},{"inputs":[{"internalType":"uint256","name":"_amount","type":"uint256"}],"name":"depositRewardTokens","outputs":[],"stateMutability":"nonpayable","type":"function"},{"inputs":[],"name":"disableWhitelist","outputs":[],"stateMutability":"nonpayable","type":"function"},{"inputs":[],"name":"enableWhitelist","outputs":[],"stateMutability":"nonpayable","type":"function"},{"inputs":[{"internalType":"address","name":"user","type":"address"}],"name":"getTotalStakedForUser","outputs":[{"internalType":"uint256","name":"","type":"uint256"}],"stateMutability":"view","type":"function"},{"inputs":[{"internalType":"address","name":"_stakingToken","type":"address"},{"internalType":"uint256","name":"_stakingDuration","type":"uint256"},{"internalType":"uint256","name":"_yieldConstant","type":"uint256"},{"internalType":"uint256","name":"_cooldownPeriod","type":"uint256"},{"internalType":"uint256","name":"_startingSlashingPoint","type":"uint256"},{"internalType":"uint256","name":"_monthlyIncreasePercentage","type":"uint256"}],"name":"initialize","outputs":[],"stateMutability":"nonpayable","type":"function"},{"inputs":[],"name":"maxCap","outputs":[{"internalType":"uint256","name":"","type":"uint256"}],"stateMutability":"view","type":"function"},{"inputs":[],"name":"minCap","outputs":[{"internalType":"uint256","name":"","type":"uint256"}],"stateMutability":"view","type":"function"},{"inputs":[],"name":"monthlyIncreasePercentage","outputs":[{"internalType":"uint256","name":"","type":"uint256"}],"stateMutability":"view","type":"function"},{"inputs":[],"name":"monthsInStakingPeriod","outputs":[{"internalType":"uint256","name":"","type":"uint256"}],"stateMutability":"view","type":"function"},{"inputs":[],"name":"owner","outputs":[{"internalType":"address","name":"","type":"address"}],"stateMutability":"view","type":"function"},{"inputs":[],"name":"pause","outputs":[],"stateMutability":"nonpayable","type":"function"},{"inputs":[],"name":"paused","outputs":[{"internalType":"bool","name":"","type":"bool"}],"stateMutability":"view","type":"function"},{"inputs":[{"internalType":"address","name":"_address","type":"address"}],"name":"removeFromWhitelist","outputs":[],"stateMutability":"nonpayable","type":"function"},{"inputs":[],"name":"renounceOwnership","outputs":[],"stateMutability":"nonpayable","type":"function"},{"inputs":[],"name":"rewardPool","outputs":[{"internalType":"uint256","name":"","type":"uint256"}],"stateMutability":"view","type":"function"},{"inputs":[{"internalType":"uint256","name":"_amount","type":"uint256"}],"name":"stake","outputs":[],"stateMutability":"nonpayable","type":"function"},{"inputs":[],"name":"stakingDuration","outputs":[{"internalType":"uint256","name":"","type":"uint256"}],"stateMutability":"view","type":"function"},{"inputs":[],"name":"stakingToken","outputs":[{"internalType":"contract IERC20","name":"","type":"address"}],"stateMutability":"view","type":"function"},{"inputs":[],"name":"startingSlashingPoint","outputs":[{"internalType":"uint256","name":"","type":"uint256"}],"stateMutability":"view","type":"function"},{"inputs":[],"name":"totalStaked","outputs":[{"internalType":"uint256","name":"","type":"uint256"}],"stateMutability":"view","type":"function"},{"inputs":[{"internalType":"address","name":"newOwner","type":"address"}],"name":"transferOwnership","outputs":[],"stateMutability":"nonpayable","type":"function"},{"inputs":[],"name":"unpause","outputs":[],"stateMutability":"nonpayable","type":"function"},{"inputs":[{"internalType":"uint256","name":"stakeId","type":"uint256"}],"name":"unstake","outputs":[],"stateMutability":"nonpayable","type":"function"},{"inputs":[{"internalType":"uint256","name":"_cooldownPeriod","type":"uint256"}],"name":"updateCooldownPeriod","outputs":[],"stateMutability":"nonpayable","type":"function"},{"inputs":[{"internalType":"uint256","name":"_maxCap","type":"uint256"}],"name":"updateMaxCap","outputs":[],"stateMutability":"nonpayable","type":"function"},{"inputs":[{"internalType":"uint256","name":"_minCap","type":"uint256"}],"name":"updateMinCap","outputs":[],"stateMutability":"nonpayable","type":"function"},{"inputs":[{"internalType":"uint256","name":"_monthlyIncreasePercentage","type":"uint256"}],"name":"updateMonthlyIncreasePercentage","outputs":[],"stateMutability":"nonpayable","type":"function"},{"inputs":[{"internalType":"uint256","name":"_stakingDuration","type":"uint256"}],"name":"updateStakingDuration","outputs":[],"stateMutability":"nonpayable","type":"function"},{"inputs":[{"internalType":"uint256","name":"_startingSlashingPoint","type":"uint256"}],"name":"updateStartingSlashingPoint","outputs":[],"stateMutability":"nonpayable","type":"function"},{"inputs":[{"internalType":"uint256","name":"_yieldConstant","type":"uint256"}],"name":"updateYieldConstant","outputs":[],"stateMutability":"nonpayable","type":"function"},{"inputs":[{"internalType":"address","name":"","type":"address"}],"name":"userStakeCounter","outputs":[{"internalType":"uint256","name":"","type":"uint256"}],"stateMutability":"view","type":"function"},{"inputs":[{"internalType":"address","name":"","type":"address"},{"internalType":"uint256","name":"","type":"uint256"}],"name":"userStakes","outputs":[{"internalType":"uint256","name":"amount","type":"uint256"},{"internalType":"uint256","name":"startTime","type":"uint256"},{"internalType":"uint256","name":"requestUnstakeTime","type":"uint256"},{"internalType":"bool","name":"unstakeRequested","type":"bool"}],"stateMutability":"view","type":"function"},{"inputs":[],"name":"whitelistEnabled","outputs":[{"internalType":"bool","name":"","type":"bool"}],"stateMutability":"view","type":"function"},{"inputs":[{"internalType":"address","name":"","type":"address"}],"name":"whitelistedAddresses","outputs":[{"internalType":"bool","name":"","type":"bool"}],"stateMutability":"view","type":"function"},{"inputs":[{"internalType":"uint256","name":"_amount","type":"uint256"}],"name":"withdrawRewardTokens","outputs":[],"stateMutability":"nonpayable","type":"function"},{"inputs":[],"name":"yieldConstant","outputs":[{"internalType":"uint256","name":"","type":"uint256"}],"stateMutability":"view","type":"function"}],"evm":{"bytecode":{"linkReferences":{},"object":"608060405234801561001057600080fd5b50611944806100206000396000f3fe608060405234801561001057600080fd5b506004361061025e5760003560e01c806372f702f311610146578063b3c55721116100c3578063d2771e0111610087578063d2771e0114610545578063d6b0f48414610558578063e43252d714610560578063e6d2486614610573578063e81ba08014610586578063f2fde38b1461059957600080fd5b8063b3c557211461049f578063b5d5b5fa146104b2578063bcaabf6c14610517578063cb43b2dd1461052a578063cdfb2b4e1461053d57600080fd5b80638456cb591161010a5780638456cb591461042e578063861f6bfd146104365780638ab1d681146104495780638da5cb5b1461045c578063a694fc3a1461048c57600080fd5b806372f702f3146103d65780637a65cd0b146104015780638005a7de1461040a57806380a3301b14610413578063817b1cd21461042657600080fd5b80633f4ba83a116101df5780635678b024116101a35780635678b024146103725780635b1d7086146103925780635c975abb146103a557806366666aa9146103bd5780636f629512146103c5578063715018a6146103ce57600080fd5b80633f4ba83a1461032e5780633fa615b01461033657806345ff4c801461033f578063483a93101461035257806351fb012d1461036557600080fd5b8063291614791161022657806329161479146102d95780632e17de78146102e257806336c1105a146102f5578063379607f5146103085780633b42ffcf1461031b57600080fd5b806304646a491461026357806306c933d81461027f5780630b7ead4a146102b257806316c621e0146102bb57806323548b8b146102d0575b600080fd5b61026c60055481565b6040519081526020015b60405180910390f35b6102a261028d366004611754565b600c6020526000908152604090205460ff1681565b6040519015158152602001610276565b61026c60075481565b6102ce6102c936600461176f565b6105ac565b005b61026c60035481565b61026c60085481565b6102ce6102f036600461176f565b6106c8565b6102ce61030336600461176f565b6109a3565b6102ce61031636600461176f565b6109b0565b61026c610329366004611754565b610aa1565b6102ce610b0f565b61026c60025481565b6102ce61034d366004611788565b610b21565b61026c61036036600461176f565b610cb3565b6009546102a29060ff1681565b61026c610380366004611754565b600b6020526000908152604090205481565b6102ce6103a036600461176f565b610cfc565b6000805160206118cf8339815191525460ff166102a2565b600e5461026c565b61026c60065481565b6102ce610d3d565b6000546103e9906001600160a01b031681565b6040516001600160a01b039091168152602001610276565b61026c60045481565b61026c60015481565b61026c61042136600461176f565b610d4f565b600d5461026c565b6102ce610ddc565b6102ce61044436600461176f565b610dec565b6102ce610457366004611754565b610df9565b7f9016d09d72d40fdae2fd8ceac6b6234c7706214fd39c1cd1e609a0528c199300546001600160a01b03166103e9565b6102ce61049a36600461176f565b610e50565b6102ce6104ad36600461176f565b61113e565b6104f56104c03660046117d2565b600a60209081526000928352604080842090915290825290208054600182015460028301546003909301549192909160ff1684565b6040805194855260208501939093529183015215156060820152608001610276565b6102ce61052536600461176f565b61114b565b6102ce61053836600461176f565b611158565b6102ce6112b5565b61026c6105533660046117fc565b6112cc565b6102ce6113a8565b6102ce61056e366004611754565b6113bc565b6102ce61058136600461176f565b61141b565b6102ce61059436600461176f565b611428565b6102ce6105a7366004611754565b611435565b6105b4611470565b600081116105fc5760405162461bcd60e51b815260206004820152601060248201526f043616e6e6f74206465706f73697420360841b60448201526064015b60405180910390fd5b80600e600082825461060e9190611834565b90915550506000546040516323b872dd60e01b8152336004820152306024820152604481018390526001600160a01b03909116906323b872dd906064016020604051808303816000875af115801561066a573d6000803e3d6000fd5b505050506040513d601f19601f8201168201806040525081019061068e9190611847565b5060405181815233907fe1fffcc4923d04b559f4d29a8bfc6cda04eb5b0d3c460751c2402c5c5cc9109c906020015b60405180910390a250565b6106d06114cb565b336000908152600a60209081526040808320848452909152902080546107445760405162461bcd60e51b815260206004820152602360248201527f4e6f207374616b656420616d6f756e7420746f207265717565737420756e7374604482015262616b6560e81b60648201526084016105f3565b600381015460ff16156107995760405162461bcd60e51b815260206004820152601960248201527f556e7374616b6520616c7265616479207265717565737465640000000000000060448201526064016105f3565b805460015460009081036107c2576107bb828460010154426105539190611869565b905061084c565b60015483600101546107d49190611834565b4210156108355742600284015560038301805460ff19166001179055825460405133917f828764c21e74c28710e19919735825aba966621c95cbd913f8ed65a2d298f48c9161082591815260200190565b60405180910390a2505050610989565b610849828460010154426105539190611869565b90505b81600d600082825461085e9190611869565b9091555061086e90508282611869565b600e600082825461087f9190611869565b9091555050336000818152600a602090815260408083208884529091528082208281556001810183905560028101839055600301805460ff191690559054905163a9059cbb60e01b81526004810192909252602482018390526001600160a01b03169063a9059cbb906044016020604051808303816000875af115801561090a573d6000803e3d6000fd5b505050506040513d601f19601f8201168201806040525081019061092e9190611847565b5060405181815233907f7084f5476618d8e60b11ef0d7d3f06914655adb8793e28ff7f018d4c76d505d59060200160405180910390a261096d33610aa1565b60000361098557336000908152600b60205260408120555b5050505b6109a060016000805160206118ef83398151915255565b50565b6109ab611470565b600455565b6109b86114cb565b6109c0611517565b336000908152600a602090815260408083208484529091529020600381015460ff16610a265760405162461bcd60e51b8152602060048201526015602482015274155b9cdd185ad9481b9bdd081c995c5d595cdd1959605a1b60448201526064016105f3565b6005548160020154610a389190611834565b421015610a875760405162461bcd60e51b815260206004820152601860248201527f436f6f6c646f776e20706572696f64206e6f74206f766572000000000000000060448201526064016105f3565b805460018201546000906108499083906105539042611869565b600080805b6001600160a01b0384166000908152600b6020526040902054811015610b08576001600160a01b0384166000908152600a60209081526040808320848452909152902054610af49083611834565b915080610b008161187c565b915050610aa6565b5092915050565b610b17611470565b610b1f611548565b565b7ff0c57e16840df040f15088dc2f81fe391c3923bec73e23a9662efc9c229c6a008054600160401b810460ff16159067ffffffffffffffff16600081158015610b675750825b905060008267ffffffffffffffff166001148015610b845750303b155b905081158015610b92575080155b15610bb05760405163f92ee8a960e01b815260040160405180910390fd5b845467ffffffffffffffff191660011785558315610bda57845460ff60401b1916600160401b1785555b610be3336115a8565b610beb6115b9565b610bf36115c9565b600080546001600160a01b0319166001600160a01b038d1617815560018b9055600281905560035560048990556005889055603c806018610c35601e8e611895565b610c3f9190611895565b610c499190611895565b610c539190611895565b600655600787905560088690558315610ca657845460ff60401b19168555604051600181527fc7f505b2f371ae2175ee4913f4499e1f2633a7b5936321eed1cdaeb6115181d29060200160405180910390a15b5050505050505050505050565b60006001548210610cc657506000919050565b600060015483600854610cd991906118b7565b610ce39190611895565b600754610cf09190611869565b9392505050565b919050565b610d04611470565b6001819055603c806018610d19601e85611895565b610d239190611895565b610d2d9190611895565b610d379190611895565b60065550565b610d45611470565b610b1f60006115d9565b60006001548210610d6e57600454610d689060906118b7565b92915050565b600060015483600654610d8191906118b7565b610d9390670de0b6b3a76400006118b7565b610d9d9190611895565b905060006ec097ce7bc90715b34b9f10000000008283600454610dc091906118b7565b610dca91906118b7565b610dd49190611895565b949350505050565b610de4611470565b610b1f61164a565b610df4611470565b600555565b610e01611470565b6001600160a01b0381166000818152600c60209081526040808320805460ff19169055519182527f8daaf060c3306c38e068a75c054bf96ecd85a3db1252712c4d93632744c42e0d91016106bd565b610e586114cb565b610e60611517565b60095460ff161580610e815750336000908152600c602052604090205460ff165b610ecd5760405162461bcd60e51b815260206004820152601760248201527f41646472657373206e6f742077686974656c697374656400000000000000000060448201526064016105f3565b60008111610f0e5760405162461bcd60e51b815260206004820152600e60248201526d043616e6e6f74207374616b6520360941b60448201526064016105f3565b60025415610f6857600254811015610f685760405162461bcd60e51b815260206004820152601860248201527f416d6f756e742062656c6f77206d696e696d756d20636170000000000000000060448201526064016105f3565b60035415610fd457600354610f7c33610aa1565b610f869083611834565b1115610fd45760405162461bcd60e51b815260206004820152601a60248201527f416d6f756e742065786365656473206d6178696d756d2063617000000000000060448201526064016105f3565b336000818152600b602081815260408084208054825160808101845288815242818601908152818501888152606083018981528a8a52600a8852868a20858b528852958920835181559151600183015551600282015593516003909401805460ff19169415159490941790935595855292909152815490929091906110588361187c565b919050555082600d600082825461106f9190611834565b90915550506000546040516323b872dd60e01b8152336004820152306024820152604481018590526001600160a01b03909116906323b872dd906064016020604051808303816000875af11580156110cb573d6000803e3d6000fd5b505050506040513d601f19601f820116820180604052508101906110ef9190611847565b5060405183815233907f9e71bc8eea02a63969f509818f2dafb9254532904319f9dbda79b67bd34a5f3d9060200160405180910390a250506109a060016000805160206118ef83398151915255565b611146611470565b600855565b611153611470565b600255565b611160611470565b600081116111a45760405162461bcd60e51b8152602060048201526011602482015270043616e6e6f74207769746864726177203607c1b60448201526064016105f3565b80600e5410156111f65760405162461bcd60e51b815260206004820181905260248201527f4e6f7420656e6f75676820746f6b656e7320696e2072657761726420706f6f6c60448201526064016105f3565b80600e60008282546112089190611869565b909155505060005460405163a9059cbb60e01b8152336004820152602481018390526001600160a01b039091169063a9059cbb906044016020604051808303816000875af115801561125e573d6000803e3d6000fd5b505050506040513d601f19601f820116820180604052508101906112829190611847565b5060405181815233907f884edad9ce6fa2440d8a54cc123490eb96d2768479d49ff9c7366125a9424364906020016106bd565b6112bd611470565b6009805460ff19166001179055565b6000806112d883610d4f565b905060006112e584610cb3565b90506000670de0b6b3a76400006112fc84886118b7565b6113069190611895565b90506000670de0b6b3a764000061131d84846118b7565b6113279190611895565b9050600081611336848a611834565b6113409190611869565b905061134c8284611869565b600e54101561139d5760405162461bcd60e51b815260206004820152601860248201527f496e73756666696369656e742072657761726420706f6f6c000000000000000060448201526064016105f3565b979650505050505050565b6113b0611470565b6009805460ff19169055565b6113c4611470565b6001600160a01b0381166000818152600c6020908152604091829020805460ff1916600190811790915591519182527f8daaf060c3306c38e068a75c054bf96ecd85a3db1252712c4d93632744c42e0d91016106bd565b611423611470565b600755565b611430611470565b600355565b61143d611470565b6001600160a01b03811661146757604051631e4fbdf760e01b8152600060048201526024016105f3565b6109a0816115d9565b336114a27f9016d09d72d40fdae2fd8ceac6b6234c7706214fd39c1cd1e609a0528c199300546001600160a01b031690565b6001600160a01b031614610b1f5760405163118cdaa760e01b81523360048201526024016105f3565b6000805160206118ef8339815191528054600119016114fd57604051633ee5aeb560e01b815260040160405180910390fd5b60029055565b60016000805160206118ef83398151915255565b6000805160206118cf8339815191525460ff1615610b1f5760405163d93c066560e01b815260040160405180910390fd5b611550611693565b6000805160206118cf833981519152805460ff191681557f5db9ee0a495bf2e6ff9c91a7834c1ba4fdd244a5e8aa4e537bd38aeae4b073aa335b6040516001600160a01b03909116815260200160405180910390a150565b6115b06116c3565b6109a08161170c565b6115c16116c3565b610b1f611714565b6115d16116c3565b610b1f611735565b7f9016d09d72d40fdae2fd8ceac6b6234c7706214fd39c1cd1e609a0528c19930080546001600160a01b031981166001600160a01b03848116918217845560405192169182907f8be0079c531659141344cd1fd0a4f28419497f9722a3daafe3b4186f6b6457e090600090a3505050565b611652611517565b6000805160206118cf833981519152805460ff191660011781557f62e78cea01bee320cd4e420270b5ea74000d11b0c9f74754ebdbfc544b05a2583361158a565b6000805160206118cf8339815191525460ff16610b1f57604051638dfc202b60e01b815260040160405180910390fd5b7ff0c57e16840df040f15088dc2f81fe391c3923bec73e23a9662efc9c229c6a0054600160401b900460ff16610b1f57604051631afcd79f60e31b815260040160405180910390fd5b61143d6116c3565b61171c6116c3565b6000805160206118cf833981519152805460ff19169055565b6115036116c3565b80356001600160a01b0381168114610cf757600080fd5b60006020828403121561176657600080fd5b610cf08261173d565b60006020828403121561178157600080fd5b5035919050565b60008060008060008060c087890312156117a157600080fd5b6117aa8761173d565b9860208801359850604088013597606081013597506080810135965060a00135945092505050565b600080604083850312156117e557600080fd5b6117ee8361173d565b946020939093013593505050565b6000806040838503121561180f57600080fd5b50508035926020909101359150565b634e487b7160e01b600052601160045260246000fd5b80820180821115610d6857610d6861181e565b60006020828403121561185957600080fd5b81518015158114610cf057600080fd5b81810381811115610d6857610d6861181e565b60006001820161188e5761188e61181e565b5060010190565b6000826118b257634e487b7160e01b600052601260045260246000fd5b500490565b8082028115828204841417610d6857610d6861181e56fecd5ed15c6e187e77e9aee88184c21f4f2182ab5827cb3b7e07fbedcd63f033009b779b17422d0df92223018b32b4d1fa46e071723d6817e2486d003becc55f00a26469706673582212204ceedd225a8eaffac9d5f9111f01bb333694490f0978b0df6cdde6d01956615364736f6c63430008140033","opcodes":"PUSH1 0x80 PUSH1 0x40 MSTORE CALLVALUE DUP1 ISZERO PUSH2 0x10 JUMPI PUSH1 0x0 DUP1 REVERT JUMPDEST POP PUSH2 0x1944 DUP1 PUSH2 0x20 PUSH1 0x0 CODECOPY PUSH1 0x0 RETURN INVALID PUSH1 0x80 PUSH1 0x40 MSTORE CALLVALUE DUP1 ISZERO PUSH2 0x10 JUMPI PUSH1 0x0 DUP1 REVERT JUMPDEST POP PUSH1 0x4 CALLDATASIZE LT PUSH2 0x25E JUMPI PUSH1 0x0 CALLDATALOAD PUSH1 0xE0 SHR DUP1 PUSH4 0x72F702F3 GT PUSH2 0x146 JUMPI DUP1 PUSH4 0xB3C55721 GT PUSH2 0xC3 JUMPI DUP1 PUSH4 0xD2771E01 GT PUSH2 0x87 JUMPI DUP1 PUSH4 0xD2771E01 EQ PUSH2 0x545 JUMPI DUP1 PUSH4 0xD6B0F484 EQ PUSH2 0x558 JUMPI DUP1 PUSH4 0xE43252D7 EQ PUSH2 0x560 JUMPI DUP1 PUSH4 0xE6D24866 EQ PUSH2 0x573 JUMPI DUP1 PUSH4 0xE81BA080 EQ PUSH2 0x586 JUMPI DUP1 PUSH4 0xF2FDE38B EQ PUSH2 0x599 JUMPI PUSH1 0x0 DUP1 REVERT JUMPDEST DUP1 PUSH4 0xB3C55721 EQ PUSH2 0x49F JUMPI DUP1 PUSH4 0xB5D5B5FA EQ PUSH2 0x4B2 JUMPI DUP1 PUSH4 0xBCAABF6C EQ PUSH2 0x517 JUMPI DUP1 PUSH4 0xCB43B2DD EQ PUSH2 0x52A JUMPI DUP1 PUSH4 0xCDFB2B4E EQ PUSH2 0x53D JUMPI PUSH1 0x0 DUP1 REVERT JUMPDEST DUP1 PUSH4 0x8456CB59 GT PUSH2 0x10A JUMPI DUP1 PUSH4 0x8456CB59 EQ PUSH2 0x42E JUMPI DUP1 PUSH4 0x861F6BFD EQ PUSH2 0x436 JUMPI DUP1 PUSH4 0x8AB1D681 EQ PUSH2 0x449 JUMPI DUP1 PUSH4 0x8DA5CB5B EQ PUSH2 0x45C JUMPI DUP1 PUSH4 0xA694FC3A EQ PUSH2 0x48C JUMPI PUSH1 0x0 DUP1 REVERT JUMPDEST DUP1 PUSH4 0x72F702F3 EQ PUSH2 0x3D6 JUMPI DUP1 PUSH4 0x7A65CD0B EQ PUSH2 0x401 JUMPI DUP1 PUSH4 0x8005A7DE EQ PUSH2 0x40A JUMPI DUP1 PUSH4 0x80A3301B EQ PUSH2 0x413 JUMPI DUP1 PUSH4 0x817B1CD2 EQ PUSH2 0x426 JUMPI PUSH1 0x0 DUP1 REVERT JUMPDEST DUP1 PUSH4 0x3F4BA83A GT PUSH2 0x1DF JUMPI DUP1 PUSH4 0x5678B024 GT PUSH2 0x1A3 JUMPI DUP1 PUSH4 0x5678B024 EQ PUSH2 0x372 JUMPI DUP1 PUSH4 0x5B1D7086 EQ PUSH2 0x392 JUMPI DUP1 PUSH4 0x5C975ABB EQ PUSH2 0x3A5 JUMPI DUP1 PUSH4 0x66666AA9 EQ PUSH2 0x3BD JUMPI DUP1 PUSH4 0x6F629512 EQ PUSH2 0x3C5 JUMPI DUP1 PUSH4 0x715018A6 EQ PUSH2 0x3CE JUMPI PUSH1 0x0 DUP1 REVERT JUMPDEST DUP1 PUSH4 0x3F4BA83A EQ PUSH2 0x32E JUMPI DUP1 PUSH4 0x3FA615B0 EQ PUSH2 0x336 JUMPI DUP1 PUSH4 0x45FF4C80 EQ PUSH2 0x33F JUMPI DUP1 PUSH4 0x483A9310 EQ PUSH2 0x352 JUMPI DUP1 PUSH4 0x51FB012D EQ PUSH2 0x365 JUMPI PUSH1 0x0 DUP1 REVERT JUMPDEST DUP1 PUSH4 0x29161479 GT PUSH2 0x226 JUMPI DUP1 PUSH4 0x29161479 EQ PUSH2 0x2D9 JUMPI DUP1 PUSH4 0x2E17DE78 EQ PUSH2 0x2E2 JUMPI DUP1 PUSH4 0x36C1105A EQ PUSH2 0x2F5 JUMPI DUP1 PUSH4 0x379607F5 EQ PUSH2 0x308 JUMPI DUP1 PUSH4 0x3B42FFCF EQ PUSH2 0x31B JUMPI PUSH1 0x0 DUP1 REVERT JUMPDEST DUP1 PUSH4 0x4646A49 EQ PUSH2 0x263 JUMPI DUP1 PUSH4 0x6C933D8 EQ PUSH2 0x27F JUMPI DUP1 PUSH4 0xB7EAD4A EQ PUSH2 0x2B2 JUMPI DUP1 PUSH4 0x16C621E0 EQ PUSH2 0x2BB JUMPI DUP1 PUSH4 0x23548B8B EQ PUSH2 0x2D0 JUMPI JUMPDEST PUSH1 0x0 DUP1 REVERT JUMPDEST PUSH2 0x26C PUSH1 0x5 SLOAD DUP2 JUMP JUMPDEST PUSH1 0x40 MLOAD SWAP1 DUP2 MSTORE PUSH1 0x20 ADD JUMPDEST PUSH1 0x40 MLOAD DUP1 SWAP2 SUB SWAP1 RETURN JUMPDEST PUSH2 0x2A2 PUSH2 0x28D CALLDATASIZE PUSH1 0x4 PUSH2 0x1754 JUMP JUMPDEST PUSH1 0xC PUSH1 0x20 MSTORE PUSH1 0x0 SWAP1 DUP2 MSTORE PUSH1 0x40 SWAP1 KECCAK256 SLOAD PUSH1 0xFF AND DUP2 JUMP JUMPDEST PUSH1 0x40 MLOAD SWAP1 ISZERO ISZERO DUP2 MSTORE PUSH1 0x20 ADD PUSH2 0x276 JUMP JUMPDEST PUSH2 0x26C PUSH1 0x7 SLOAD DUP2 JUMP JUMPDEST PUSH2 0x2CE PUSH2 0x2C9 CALLDATASIZE PUSH1 0x4 PUSH2 0x176F JUMP JUMPDEST PUSH2 0x5AC JUMP JUMPDEST STOP JUMPDEST PUSH2 0x26C PUSH1 0x3 SLOAD DUP2 JUMP JUMPDEST PUSH2 0x26C PUSH1 0x8 SLOAD DUP2 JUMP JUMPDEST PUSH2 0x2CE PUSH2 0x2F0 CALLDATASIZE PUSH1 0x4 PUSH2 0x176F JUMP JUMPDEST PUSH2 0x6C8 JUMP JUMPDEST PUSH2 0x2CE PUSH2 0x303 CALLDATASIZE PUSH1 0x4 PUSH2 0x176F JUMP JUMPDEST PUSH2 0x9A3 JUMP JUMPDEST PUSH2 0x2CE PUSH2 0x316 CALLDATASIZE PUSH1 0x4 PUSH2 0x176F JUMP JUMPDEST PUSH2 0x9B0 JUMP JUMPDEST PUSH2 0x26C PUSH2 0x329 CALLDATASIZE PUSH1 0x4 PUSH2 0x1754 JUMP JUMPDEST PUSH2 0xAA1 JUMP JUMPDEST PUSH2 0x2CE PUSH2 0xB0F JUMP JUMPDEST PUSH2 0x26C PUSH1 0x2 SLOAD DUP2 JUMP JUMPDEST PUSH2 0x2CE PUSH2 0x34D CALLDATASIZE PUSH1 0x4 PUSH2 0x1788 JUMP JUMPDEST PUSH2 0xB21 JUMP JUMPDEST PUSH2 0x26C PUSH2 0x360 CALLDATASIZE PUSH1 0x4 PUSH2 0x176F JUMP JUMPDEST PUSH2 0xCB3 JUMP JUMPDEST PUSH1 0x9 SLOAD PUSH2 0x2A2 SWAP1 PUSH1 0xFF AND DUP2 JUMP JUMPDEST PUSH2 0x26C PUSH2 0x380 CALLDATASIZE PUSH1 0x4 PUSH2 0x1754 JUMP JUMPDEST PUSH1 0xB PUSH1 0x20 MSTORE PUSH1 0x0 SWAP1 DUP2 MSTORE PUSH1 0x40 SWAP1 KECCAK256 SLOAD DUP2 JUMP JUMPDEST PUSH2 0x2CE PUSH2 0x3A0 CALLDATASIZE PUSH1 0x4 PUSH2 0x176F JUMP JUMPDEST PUSH2 0xCFC JUMP JUMPDEST PUSH1 0x0 DUP1 MLOAD PUSH1 0x20 PUSH2 0x18CF DUP4 CODECOPY DUP2 MLOAD SWAP2 MSTORE SLOAD PUSH1 0xFF AND PUSH2 0x2A2 JUMP JUMPDEST PUSH1 0xE SLOAD PUSH2 0x26C JUMP JUMPDEST PUSH2 0x26C PUSH1 0x6 SLOAD DUP2 JUMP JUMPDEST PUSH2 0x2CE PUSH2 0xD3D JUMP JUMPDEST PUSH1 0x0 SLOAD PUSH2 0x3E9 SWAP1 PUSH1 0x1 PUSH1 0x1 PUSH1 0xA0 SHL SUB AND DUP2 JUMP JUMPDEST PUSH1 0x40 MLOAD PUSH1 0x1 PUSH1 0x1 PUSH1 0xA0 SHL SUB SWAP1 SWAP2 AND DUP2 MSTORE PUSH1 0x20 ADD PUSH2 0x276 JUMP JUMPDEST PUSH2 0x26C PUSH1 0x4 SLOAD DUP2 JUMP JUMPDEST PUSH2 0x26C PUSH1 0x1 SLOAD DUP2 JUMP JUMPDEST PUSH2 0x26C PUSH2 0x421 CALLDATASIZE PUSH1 0x4 PUSH2 0x176F JUMP JUMPDEST PUSH2 0xD4F JUMP JUMPDEST PUSH1 0xD SLOAD PUSH2 0x26C JUMP JUMPDEST PUSH2 0x2CE PUSH2 0xDDC JUMP JUMPDEST PUSH2 0x2CE PUSH2 0x444 CALLDATASIZE PUSH1 0x4 PUSH2 0x176F JUMP JUMPDEST PUSH2 0xDEC JUMP JUMPDEST PUSH2 0x2CE PUSH2 0x457 CALLDATASIZE PUSH1 0x4 PUSH2 0x1754 JUMP JUMPDEST PUSH2 0xDF9 JUMP JUMPDEST PUSH32 0x9016D09D72D40FDAE2FD8CEAC6B6234C7706214FD39C1CD1E609A0528C199300 SLOAD PUSH1 0x1 PUSH1 0x1 PUSH1 0xA0 SHL SUB AND PUSH2 0x3E9 JUMP JUMPDEST PUSH2 0x2CE PUSH2 0x49A CALLDATASIZE PUSH1 0x4 PUSH2 0x176F JUMP JUMPDEST PUSH2 0xE50 JUMP JUMPDEST PUSH2 0x2CE PUSH2 0x4AD CALLDATASIZE PUSH1 0x4 PUSH2 0x176F JUMP JUMPDEST PUSH2 0x113E JUMP JUMPDEST PUSH2 0x4F5 PUSH2 0x4C0 CALLDATASIZE PUSH1 0x4 PUSH2 0x17D2 JUMP JUMPDEST PUSH1 0xA PUSH1 0x20 SWAP1 DUP2 MSTORE PUSH1 0x0 SWAP3 DUP4 MSTORE PUSH1 0x40 DUP1 DUP5 KECCAK256 SWAP1 SWAP2 MSTORE SWAP1 DUP3 MSTORE SWAP1 KECCAK256 DUP1 SLOAD PUSH1 0x1 DUP3 ADD SLOAD PUSH1 0x2 DUP4 ADD SLOAD PUSH1 0x3 SWAP1 SWAP4 ADD SLOAD SWAP2 SWAP3 SWAP1 SWAP2 PUSH1 0xFF AND DUP5 JUMP JUMPDEST PUSH1 0x40 DUP1 MLOAD SWAP5 DUP6 MSTORE PUSH1 0x20 DUP6 ADD SWAP4 SWAP1 SWAP4 MSTORE SWAP2 DUP4 ADD MSTORE ISZERO ISZERO PUSH1 0x60 DUP3 ADD MSTORE PUSH1 0x80 ADD PUSH2 0x276 JUMP JUMPDEST PUSH2 0x2CE PUSH2 0x525 CALLDATASIZE PUSH1 0x4 PUSH2 0x176F JUMP JUMPDEST PUSH2 0x114B JUMP JUMPDEST PUSH2 0x2CE PUSH2 0x538 CALLDATASIZE PUSH1 0x4 PUSH2 0x176F JUMP JUMPDEST PUSH2 0x1158 JUMP JUMPDEST PUSH2 0x2CE PUSH2 0x12B5 JUMP JUMPDEST PUSH2 0x26C PUSH2 0x553 CALLDATASIZE PUSH1 0x4 PUSH2 0x17FC JUMP JUMPDEST PUSH2 0x12CC JUMP JUMPDEST PUSH2 0x2CE PUSH2 0x13A8 JUMP JUMPDEST PUSH2 0x2CE PUSH2 0x56E CALLDATASIZE PUSH1 0x4 PUSH2 0x1754 JUMP JUMPDEST PUSH2 0x13BC JUMP JUMPDEST PUSH2 0x2CE PUSH2 0x581 CALLDATASIZE PUSH1 0x4 PUSH2 0x176F JUMP JUMPDEST PUSH2 0x141B JUMP JUMPDEST PUSH2 0x2CE PUSH2 0x594 CALLDATASIZE PUSH1 0x4 PUSH2 0x176F JUMP JUMPDEST PUSH2 0x1428 JUMP JUMPDEST PUSH2 0x2CE PUSH2 0x5A7 CALLDATASIZE PUSH1 0x4 PUSH2 0x1754 JUMP JUMPDEST PUSH2 0x1435 JUMP JUMPDEST PUSH2 0x5B4 PUSH2 0x1470 JUMP JUMPDEST PUSH1 0x0 DUP2 GT PUSH2 0x5FC JUMPI PUSH1 0x40 MLOAD PUSH3 0x461BCD PUSH1 0xE5 SHL DUP2 MSTORE PUSH1 0x20 PUSH1 0x4 DUP3 ADD MSTORE PUSH1 0x10 PUSH1 0x24 DUP3 ADD MSTORE PUSH16 0x43616E6E6F74206465706F736974203 PUSH1 0x84 SHL PUSH1 0x44 DUP3 ADD MSTORE PUSH1 0x64 ADD JUMPDEST PUSH1 0x40 MLOAD DUP1 SWAP2 SUB SWAP1 REVERT JUMPDEST DUP1 PUSH1 0xE PUSH1 0x0 DUP3 DUP3 SLOAD PUSH2 0x60E SWAP2 SWAP1 PUSH2 0x1834 JUMP JUMPDEST SWAP1 SWAP2 SSTORE POP POP PUSH1 0x0 SLOAD PUSH1 0x40 MLOAD PUSH4 0x23B872DD PUSH1 0xE0 SHL DUP2 MSTORE CALLER PUSH1 0x4 DUP3 ADD MSTORE ADDRESS PUSH1 0x24 DUP3 ADD MSTORE PUSH1 0x44 DUP2 ADD DUP4 SWAP1 MSTORE PUSH1 0x1 PUSH1 0x1 PUSH1 0xA0 SHL SUB SWAP1 SWAP2 AND SWAP1 PUSH4 0x23B872DD SWAP1 PUSH1 0x64 ADD PUSH1 0x20 PUSH1 0x40 MLOAD DUP1 DUP4 SUB DUP2 PUSH1 0x0 DUP8 GAS CALL ISZERO DUP1 ISZERO PUSH2 0x66A JUMPI RETURNDATASIZE PUSH1 0x0 DUP1 RETURNDATACOPY RETURNDATASIZE PUSH1 0x0 REVERT JUMPDEST POP POP POP POP PUSH1 0x40 MLOAD RETURNDATASIZE PUSH1 0x1F NOT PUSH1 0x1F DUP3 ADD AND DUP3 ADD DUP1 PUSH1 0x40 MSTORE POP DUP2 ADD SWAP1 PUSH2 0x68E SWAP2 SWAP1 PUSH2 0x1847 JUMP JUMPDEST POP PUSH1 0x40 MLOAD DUP2 DUP2 MSTORE CALLER SWAP1 PUSH32 0xE1FFFCC4923D04B559F4D29A8BFC6CDA04EB5B0D3C460751C2402C5C5CC9109C SWAP1 PUSH1 0x20 ADD JUMPDEST PUSH1 0x40 MLOAD DUP1 SWAP2 SUB SWAP1 LOG2 POP JUMP JUMPDEST PUSH2 0x6D0 PUSH2 0x14CB JUMP JUMPDEST CALLER PUSH1 0x0 SWAP1 DUP2 MSTORE PUSH1 0xA PUSH1 0x20 SWAP1 DUP2 MSTORE PUSH1 0x40 DUP1 DUP4 KECCAK256 DUP5 DUP5 MSTORE SWAP1 SWAP2 MSTORE SWAP1 KECCAK256 DUP1 SLOAD PUSH2 0x744 JUMPI PUSH1 0x40 MLOAD PUSH3 0x461BCD PUSH1 0xE5 SHL DUP2 MSTORE PUSH1 0x20 PUSH1 0x4 DUP3 ADD MSTORE PUSH1 0x23 PUSH1 0x24 DUP3 ADD MSTORE PUSH32 0x4E6F207374616B656420616D6F756E7420746F207265717565737420756E7374 PUSH1 0x44 DUP3 ADD MSTORE PUSH3 0x616B65 PUSH1 0xE8 SHL PUSH1 0x64 DUP3 ADD MSTORE PUSH1 0x84 ADD PUSH2 0x5F3 JUMP JUMPDEST PUSH1 0x3 DUP2 ADD SLOAD PUSH1 0xFF AND ISZERO PUSH2 0x799 JUMPI PUSH1 0x40 MLOAD PUSH3 0x461BCD PUSH1 0xE5 SHL DUP2 MSTORE PUSH1 0x20 PUSH1 0x4 DUP3 ADD MSTORE PUSH1 0x19 PUSH1 0x24 DUP3 ADD MSTORE PUSH32 0x556E7374616B6520616C72656164792072657175657374656400000000000000 PUSH1 0x44 DUP3 ADD MSTORE PUSH1 0x64 ADD PUSH2 0x5F3 JUMP JUMPDEST DUP1 SLOAD PUSH1 0x1 SLOAD PUSH1 0x0 SWAP1 DUP2 SUB PUSH2 0x7C2 JUMPI PUSH2 0x7BB DUP3 DUP5 PUSH1 0x1 ADD SLOAD TIMESTAMP PUSH2 0x553 SWAP2 SWAP1 PUSH2 0x1869 JUMP JUMPDEST SWAP1 POP PUSH2 0x84C JUMP JUMPDEST PUSH1 0x1 SLOAD DUP4 PUSH1 0x1 ADD SLOAD PUSH2 0x7D4 SWAP2 SWAP1 PUSH2 0x1834 JUMP JUMPDEST TIMESTAMP LT ISZERO PUSH2 0x835 JUMPI TIMESTAMP PUSH1 0x2 DUP5 ADD SSTORE PUSH1 0x3 DUP4 ADD DUP1 SLOAD PUSH1 0xFF NOT AND PUSH1 0x1 OR SWAP1 SSTORE DUP3 SLOAD PUSH1 0x40 MLOAD CALLER SWAP2 PUSH32 0x828764C21E74C28710E19919735825ABA966621C95CBD913F8ED65A2D298F48C SWAP2 PUSH2 0x825 SWAP2 DUP2 MSTORE PUSH1 0x20 ADD SWAP1 JUMP JUMPDEST PUSH1 0x40 MLOAD DUP1 SWAP2 SUB SWAP1 LOG2 POP POP POP PUSH2 0x989 JUMP JUMPDEST PUSH2 0x849 DUP3 DUP5 PUSH1 0x1 ADD SLOAD TIMESTAMP PUSH2 0x553 SWAP2 SWAP1 PUSH2 0x1869 JUMP JUMPDEST SWAP1 POP JUMPDEST DUP2 PUSH1 0xD PUSH1 0x0 DUP3 DUP3 SLOAD PUSH2 0x85E SWAP2 SWAP1 PUSH2 0x1869 JUMP JUMPDEST SWAP1 SWAP2 SSTORE POP PUSH2 0x86E SWAP1 POP DUP3 DUP3 PUSH2 0x1869 JUMP JUMPDEST PUSH1 0xE PUSH1 0x0 DUP3 DUP3 SLOAD PUSH2 0x87F SWAP2 SWAP1 PUSH2 0x1869 JUMP JUMPDEST SWAP1 SWAP2 SSTORE POP POP CALLER PUSH1 0x0 DUP2 DUP2 MSTORE PUSH1 0xA PUSH1 0x20 SWAP1 DUP2 MSTORE PUSH1 0x40 DUP1 DUP4 KECCAK256 DUP9 DUP5 MSTORE SWAP1 SWAP2 MSTORE DUP1 DUP3 KECCAK256 DUP3 DUP2 SSTORE PUSH1 0x1 DUP2 ADD DUP4 SWAP1 SSTORE PUSH1 0x2 DUP2 ADD DUP4 SWAP1 SSTORE PUSH1 0x3 ADD DUP1 SLOAD PUSH1 0xFF NOT AND SWAP1 SSTORE SWAP1 SLOAD SWAP1 MLOAD PUSH4 0xA9059CBB PUSH1 0xE0 SHL DUP2 MSTORE PUSH1 0x4 DUP2 ADD SWAP3 SWAP1 SWAP3 MSTORE PUSH1 0x24 DUP3 ADD DUP4 SWAP1 MSTORE PUSH1 0x1 PUSH1 0x1 PUSH1 0xA0 SHL SUB AND SWAP1 PUSH4 0xA9059CBB SWAP1 PUSH1 0x44 ADD PUSH1 0x20 PUSH1 0x40 MLOAD DUP1 DUP4 SUB DUP2 PUSH1 0x0 DUP8 GAS CALL ISZERO DUP1 ISZERO PUSH2 0x90A JUMPI RETURNDATASIZE PUSH1 0x0 DUP1 RETURNDATACOPY RETURNDATASIZE PUSH1 0x0 REVERT JUMPDEST POP POP POP POP PUSH1 0x40 MLOAD RETURNDATASIZE PUSH1 0x1F NOT PUSH1 0x1F DUP3 ADD AND DUP3 ADD DUP1 PUSH1 0x40 MSTORE POP DUP2 ADD SWAP1 PUSH2 0x92E SWAP2 SWAP1 PUSH2 0x1847 JUMP JUMPDEST POP PUSH1 0x40 MLOAD DUP2 DUP2 MSTORE CALLER SWAP1 PUSH32 0x7084F5476618D8E60B11EF0D7D3F06914655ADB8793E28FF7F018D4C76D505D5 SWAP1 PUSH1 0x20 ADD PUSH1 0x40 MLOAD DUP1 SWAP2 SUB SWAP1 LOG2 PUSH2 0x96D CALLER PUSH2 0xAA1 JUMP JUMPDEST PUSH1 0x0 SUB PUSH2 0x985 JUMPI CALLER PUSH1 0x0 SWAP1 DUP2 MSTORE PUSH1 0xB PUSH1 0x20 MSTORE PUSH1 0x40 DUP2 KECCAK256 SSTORE JUMPDEST POP POP POP JUMPDEST PUSH2 0x9A0 PUSH1 0x1 PUSH1 0x0 DUP1 MLOAD PUSH1 0x20 PUSH2 0x18EF DUP4 CODECOPY DUP2 MLOAD SWAP2 MSTORE SSTORE JUMP JUMPDEST POP JUMP JUMPDEST PUSH2 0x9AB PUSH2 0x1470 JUMP JUMPDEST PUSH1 0x4 SSTORE JUMP JUMPDEST PUSH2 0x9B8 PUSH2 0x14CB JUMP JUMPDEST PUSH2 0x9C0 PUSH2 0x1517 JUMP JUMPDEST CALLER PUSH1 0x0 SWAP1 DUP2 MSTORE PUSH1 0xA PUSH1 0x20 SWAP1 DUP2 MSTORE PUSH1 0x40 DUP1 DUP4 KECCAK256 DUP5 DUP5 MSTORE SWAP1 SWAP2 MSTORE SWAP1 KECCAK256 PUSH1 0x3 DUP2 ADD SLOAD PUSH1 0xFF AND PUSH2 0xA26 JUMPI PUSH1 0x40 MLOAD PUSH3 0x461BCD PUSH1 0xE5 SHL DUP2 MSTORE PUSH1 0x20 PUSH1 0x4 DUP3 ADD MSTORE PUSH1 0x15 PUSH1 0x24 DUP3 ADD MSTORE PUSH21 0x155B9CDD185AD9481B9BDD081C995C5D595CDD1959 PUSH1 0x5A SHL PUSH1 0x44 DUP3 ADD MSTORE PUSH1 0x64 ADD PUSH2 0x5F3 JUMP JUMPDEST PUSH1 0x5 SLOAD DUP2 PUSH1 0x2 ADD SLOAD PUSH2 0xA38 SWAP2 SWAP1 PUSH2 0x1834 JUMP JUMPDEST TIMESTAMP LT ISZERO PUSH2 0xA87 JUMPI PUSH1 0x40 MLOAD PUSH3 0x461BCD PUSH1 0xE5 SHL DUP2 MSTORE PUSH1 0x20 PUSH1 0x4 DUP3 ADD MSTORE PUSH1 0x18 PUSH1 0x24 DUP3 ADD MSTORE PUSH32 0x436F6F6C646F776E20706572696F64206E6F74206F7665720000000000000000 PUSH1 0x44 DUP3 ADD MSTORE PUSH1 0x64 ADD PUSH2 0x5F3 JUMP JUMPDEST DUP1 SLOAD PUSH1 0x1 DUP3 ADD SLOAD PUSH1 0x0 SWAP1 PUSH2 0x849 SWAP1 DUP4 SWAP1 PUSH2 0x553 SWAP1 TIMESTAMP PUSH2 0x1869 JUMP JUMPDEST PUSH1 0x0 DUP1 DUP1 JUMPDEST PUSH1 0x1 PUSH1 0x1 PUSH1 0xA0 SHL SUB DUP5 AND PUSH1 0x0 SWAP1 DUP2 MSTORE PUSH1 0xB PUSH1 0x20 MSTORE PUSH1 0x40 SWAP1 KECCAK256 SLOAD DUP2 LT ISZERO PUSH2 0xB08 JUMPI PUSH1 0x1 PUSH1 0x1 PUSH1 0xA0 SHL SUB DUP5 AND PUSH1 0x0 SWAP1 DUP2 MSTORE PUSH1 0xA PUSH1 0x20 SWAP1 DUP2 MSTORE PUSH1 0x40 DUP1 DUP4 KECCAK256 DUP5 DUP5 MSTORE SWAP1 SWAP2 MSTORE SWAP1 KECCAK256 SLOAD PUSH2 0xAF4 SWAP1 DUP4 PUSH2 0x1834 JUMP JUMPDEST SWAP2 POP DUP1 PUSH2 0xB00 DUP2 PUSH2 0x187C JUMP JUMPDEST SWAP2 POP POP PUSH2 0xAA6 JUMP JUMPDEST POP SWAP3 SWAP2 POP POP JUMP JUMPDEST PUSH2 0xB17 PUSH2 0x1470 JUMP JUMPDEST PUSH2 0xB1F PUSH2 0x1548 JUMP JUMPDEST JUMP JUMPDEST PUSH32 0xF0C57E16840DF040F15088DC2F81FE391C3923BEC73E23A9662EFC9C229C6A00 DUP1 SLOAD PUSH1 0x1 PUSH1 0x40 SHL DUP2 DIV PUSH1 0xFF AND ISZERO SWAP1 PUSH8 0xFFFFFFFFFFFFFFFF AND PUSH1 0x0 DUP2 ISZERO DUP1 ISZERO PUSH2 0xB67 JUMPI POP DUP3 JUMPDEST SWAP1 POP PUSH1 0x0 DUP3 PUSH8 0xFFFFFFFFFFFFFFFF AND PUSH1 0x1 EQ DUP1 ISZERO PUSH2 0xB84 JUMPI POP ADDRESS EXTCODESIZE ISZERO JUMPDEST SWAP1 POP DUP2 ISZERO DUP1 ISZERO PUSH2 0xB92 JUMPI POP DUP1 ISZERO JUMPDEST ISZERO PUSH2 0xBB0 JUMPI PUSH1 0x40 MLOAD PUSH4 0xF92EE8A9 PUSH1 0xE0 SHL DUP2 MSTORE PUSH1 0x4 ADD PUSH1 0x40 MLOAD DUP1 SWAP2 SUB SWAP1 REVERT JUMPDEST DUP5 SLOAD PUSH8 0xFFFFFFFFFFFFFFFF NOT AND PUSH1 0x1 OR DUP6 SSTORE DUP4 ISZERO PUSH2 0xBDA JUMPI DUP5 SLOAD PUSH1 0xFF PUSH1 0x40 SHL NOT AND PUSH1 0x1 PUSH1 0x40 SHL OR DUP6 SSTORE JUMPDEST PUSH2 0xBE3 CALLER PUSH2 0x15A8 JUMP JUMPDEST PUSH2 0xBEB PUSH2 0x15B9 JUMP JUMPDEST PUSH2 0xBF3 PUSH2 0x15C9 JUMP JUMPDEST PUSH1 0x0 DUP1 SLOAD PUSH1 0x1 PUSH1 0x1 PUSH1 0xA0 SHL SUB NOT AND PUSH1 0x1 PUSH1 0x1 PUSH1 0xA0 SHL SUB DUP14 AND OR DUP2 SSTORE PUSH1 0x1 DUP12 SWAP1 SSTORE PUSH1 0x2 DUP2 SWAP1 SSTORE PUSH1 0x3 SSTORE PUSH1 0x4 DUP10 SWAP1 SSTORE PUSH1 0x5 DUP9 SWAP1 SSTORE PUSH1 0x3C DUP1 PUSH1 0x18 PUSH2 0xC35 PUSH1 0x1E DUP15 PUSH2 0x1895 JUMP JUMPDEST PUSH2 0xC3F SWAP2 SWAP1 PUSH2 0x1895 JUMP JUMPDEST PUSH2 0xC49 SWAP2 SWAP1 PUSH2 0x1895 JUMP JUMPDEST PUSH2 0xC53 SWAP2 SWAP1 PUSH2 0x1895 JUMP JUMPDEST PUSH1 0x6 SSTORE PUSH1 0x7 DUP8 SWAP1 SSTORE PUSH1 0x8 DUP7 SWAP1 SSTORE DUP4 ISZERO PUSH2 0xCA6 JUMPI DUP5 SLOAD PUSH1 0xFF PUSH1 0x40 SHL NOT AND DUP6 SSTORE PUSH1 0x40 MLOAD PUSH1 0x1 DUP2 MSTORE PUSH32 0xC7F505B2F371AE2175EE4913F4499E1F2633A7B5936321EED1CDAEB6115181D2 SWAP1 PUSH1 0x20 ADD PUSH1 0x40 MLOAD DUP1 SWAP2 SUB SWAP1 LOG1 JUMPDEST POP POP POP POP POP POP POP POP POP POP POP JUMP JUMPDEST PUSH1 0x0 PUSH1 0x1 SLOAD DUP3 LT PUSH2 0xCC6 JUMPI POP PUSH1 0x0 SWAP2 SWAP1 POP JUMP JUMPDEST PUSH1 0x0 PUSH1 0x1 SLOAD DUP4 PUSH1 0x8 SLOAD PUSH2 0xCD9 SWAP2 SWAP1 PUSH2 0x18B7 JUMP JUMPDEST PUSH2 0xCE3 SWAP2 SWAP1 PUSH2 0x1895 JUMP JUMPDEST PUSH1 0x7 SLOAD PUSH2 0xCF0 SWAP2 SWAP1 PUSH2 0x1869 JUMP JUMPDEST SWAP4 SWAP3 POP POP POP JUMP JUMPDEST SWAP2 SWAP1 POP JUMP JUMPDEST PUSH2 0xD04 PUSH2 0x1470 JUMP JUMPDEST PUSH1 0x1 DUP2 SWAP1 SSTORE PUSH1 0x3C DUP1 PUSH1 0x18 PUSH2 0xD19 PUSH1 0x1E DUP6 PUSH2 0x1895 JUMP JUMPDEST PUSH2 0xD23 SWAP2 SWAP1 PUSH2 0x1895 JUMP JUMPDEST PUSH2 0xD2D SWAP2 SWAP1 PUSH2 0x1895 JUMP JUMPDEST PUSH2 0xD37 SWAP2 SWAP1 PUSH2 0x1895 JUMP JUMPDEST PUSH1 0x6 SSTORE POP JUMP JUMPDEST PUSH2 0xD45 PUSH2 0x1470 JUMP JUMPDEST PUSH2 0xB1F PUSH1 0x0 PUSH2 0x15D9 JUMP JUMPDEST PUSH1 0x0 PUSH1 0x1 SLOAD DUP3 LT PUSH2 0xD6E JUMPI PUSH1 0x4 SLOAD PUSH2 0xD68 SWAP1 PUSH1 0x90 PUSH2 0x18B7 JUMP JUMPDEST SWAP3 SWAP2 POP POP JUMP JUMPDEST PUSH1 0x0 PUSH1 0x1 SLOAD DUP4 PUSH1 0x6 SLOAD PUSH2 0xD81 SWAP2 SWAP1 PUSH2 0x18B7 JUMP JUMPDEST PUSH2 0xD93 SWAP1 PUSH8 0xDE0B6B3A7640000 PUSH2 0x18B7 JUMP JUMPDEST PUSH2 0xD9D SWAP2 SWAP1 PUSH2 0x1895 JUMP JUMPDEST SWAP1 POP PUSH1 0x0 PUSH15 0xC097CE7BC90715B34B9F1000000000 DUP3 DUP4 PUSH1 0x4 SLOAD PUSH2 0xDC0 SWAP2 SWAP1 PUSH2 0x18B7 JUMP JUMPDEST PUSH2 0xDCA SWAP2 SWAP1 PUSH2 0x18B7 JUMP JUMPDEST PUSH2 0xDD4 SWAP2 SWAP1 PUSH2 0x1895 JUMP JUMPDEST SWAP5 SWAP4 POP POP POP POP JUMP JUMPDEST PUSH2 0xDE4 PUSH2 0x1470 JUMP JUMPDEST PUSH2 0xB1F PUSH2 0x164A JUMP JUMPDEST PUSH2 0xDF4 PUSH2 0x1470 JUMP JUMPDEST PUSH1 0x5 SSTORE JUMP JUMPDEST PUSH2 0xE01 PUSH2 0x1470 JUMP JUMPDEST PUSH1 0x1 PUSH1 0x1 PUSH1 0xA0 SHL SUB DUP2 AND PUSH1 0x0 DUP2 DUP2 MSTORE PUSH1 0xC PUSH1 0x20 SWAP1 DUP2 MSTORE PUSH1 0x40 DUP1 DUP4 KECCAK256 DUP1 SLOAD PUSH1 0xFF NOT AND SWAP1 SSTORE MLOAD SWAP2 DUP3 MSTORE PUSH32 0x8DAAF060C3306C38E068A75C054BF96ECD85A3DB1252712C4D93632744C42E0D SWAP2 ADD PUSH2 0x6BD JUMP JUMPDEST PUSH2 0xE58 PUSH2 0x14CB JUMP JUMPDEST PUSH2 0xE60 PUSH2 0x1517 JUMP JUMPDEST PUSH1 0x9 SLOAD PUSH1 0xFF AND ISZERO DUP1 PUSH2 0xE81 JUMPI POP CALLER PUSH1 0x0 SWAP1 DUP2 MSTORE PUSH1 0xC PUSH1 0x20 MSTORE PUSH1 0x40 SWAP1 KECCAK256 SLOAD PUSH1 0xFF AND JUMPDEST PUSH2 0xECD JUMPI PUSH1 0x40 MLOAD PUSH3 0x461BCD PUSH1 0xE5 SHL DUP2 MSTORE PUSH1 0x20 PUSH1 0x4 DUP3 ADD MSTORE PUSH1 0x17 PUSH1 0x24 DUP3 ADD MSTORE PUSH32 0x41646472657373206E6F742077686974656C6973746564000000000000000000 PUSH1 0x44 DUP3 ADD MSTORE PUSH1 0x64 ADD PUSH2 0x5F3 JUMP JUMPDEST PUSH1 0x0 DUP2 GT PUSH2 0xF0E JUMPI PUSH1 0x40 MLOAD PUSH3 0x461BCD PUSH1 0xE5 SHL DUP2 MSTORE PUSH1 0x20 PUSH1 0x4 DUP3 ADD MSTORE PUSH1 0xE PUSH1 0x24 DUP3 ADD MSTORE PUSH14 0x43616E6E6F74207374616B65203 PUSH1 0x94 SHL PUSH1 0x44 DUP3 ADD MSTORE PUSH1 0x64 ADD PUSH2 0x5F3 JUMP JUMPDEST PUSH1 0x2 SLOAD ISZERO PUSH2 0xF68 JUMPI PUSH1 0x2 SLOAD DUP2 LT ISZERO PUSH2 0xF68 JUMPI PUSH1 0x40 MLOAD PUSH3 0x461BCD PUSH1 0xE5 SHL DUP2 MSTORE PUSH1 0x20 PUSH1 0x4 DUP3 ADD MSTORE PUSH1 0x18 PUSH1 0x24 DUP3 ADD MSTORE PUSH32 0x416D6F756E742062656C6F77206D696E696D756D206361700000000000000000 PUSH1 0x44 DUP3 ADD MSTORE PUSH1 0x64 ADD PUSH2 0x5F3 JUMP JUMPDEST PUSH1 0x3 SLOAD ISZERO PUSH2 0xFD4 JUMPI PUSH1 0x3 SLOAD PUSH2 0xF7C CALLER PUSH2 0xAA1 JUMP JUMPDEST PUSH2 0xF86 SWAP1 DUP4 PUSH2 0x1834 JUMP JUMPDEST GT ISZERO PUSH2 0xFD4 JUMPI PUSH1 0x40 MLOAD PUSH3 0x461BCD PUSH1 0xE5 SHL DUP2 MSTORE PUSH1 0x20 PUSH1 0x4 DUP3 ADD MSTORE PUSH1 0x1A PUSH1 0x24 DUP3 ADD MSTORE PUSH32 0x416D6F756E742065786365656473206D6178696D756D20636170000000000000 PUSH1 0x44 DUP3 ADD MSTORE PUSH1 0x64 ADD PUSH2 0x5F3 JUMP JUMPDEST CALLER PUSH1 0x0 DUP2 DUP2 MSTORE PUSH1 0xB PUSH1 0x20 DUP2 DUP2 MSTORE PUSH1 0x40 DUP1 DUP5 KECCAK256 DUP1 SLOAD DUP3 MLOAD PUSH1 0x80 DUP2 ADD DUP5 MSTORE DUP9 DUP2 MSTORE TIMESTAMP DUP2 DUP7 ADD SWAP1 DUP2 MSTORE DUP2 DUP6 ADD DUP9 DUP2 MSTORE PUSH1 0x60 DUP4 ADD DUP10 DUP2 MSTORE DUP11 DUP11 MSTORE PUSH1 0xA DUP9 MSTORE DUP7 DUP11 KECCAK256 DUP6 DUP12 MSTORE DUP9 MSTORE SWAP6 DUP10 KECCAK256 DUP4 MLOAD DUP2 SSTORE SWAP2 MLOAD PUSH1 0x1 DUP4 ADD SSTORE MLOAD PUSH1 0x2 DUP3 ADD SSTORE SWAP4 MLOAD PUSH1 0x3 SWAP1 SWAP5 ADD DUP1 SLOAD PUSH1 0xFF NOT AND SWAP5 ISZERO ISZERO SWAP5 SWAP1 SWAP5 OR SWAP1 SWAP4 SSTORE SWAP6 DUP6 MSTORE SWAP3 SWAP1 SWAP2 MSTORE DUP2 SLOAD SWAP1 SWAP3 SWAP1 SWAP2 SWAP1 PUSH2 0x1058 DUP4 PUSH2 0x187C JUMP JUMPDEST SWAP2 SWAP1 POP SSTORE POP DUP3 PUSH1 0xD PUSH1 0x0 DUP3 DUP3 SLOAD PUSH2 0x106F SWAP2 SWAP1 PUSH2 0x1834 JUMP JUMPDEST SWAP1 SWAP2 SSTORE POP POP PUSH1 0x0 SLOAD PUSH1 0x40 MLOAD PUSH4 0x23B872DD PUSH1 0xE0 SHL DUP2 MSTORE CALLER PUSH1 0x4 DUP3 ADD MSTORE ADDRESS PUSH1 0x24 DUP3 ADD MSTORE PUSH1 0x44 DUP2 ADD DUP6 SWAP1 MSTORE PUSH1 0x1 PUSH1 0x1 PUSH1 0xA0 SHL SUB SWAP1 SWAP2 AND SWAP1 PUSH4 0x23B872DD SWAP1 PUSH1 0x64 ADD PUSH1 0x20 PUSH1 0x40 MLOAD DUP1 DUP4 SUB DUP2 PUSH1 0x0 DUP8 GAS CALL ISZERO DUP1 ISZERO PUSH2 0x10CB JUMPI RETURNDATASIZE PUSH1 0x0 DUP1 RETURNDATACOPY RETURNDATASIZE PUSH1 0x0 REVERT JUMPDEST POP POP POP POP PUSH1 0x40 MLOAD RETURNDATASIZE PUSH1 0x1F NOT PUSH1 0x1F DUP3 ADD AND DUP3 ADD DUP1 PUSH1 0x40 MSTORE POP DUP2 ADD SWAP1 PUSH2 0x10EF SWAP2 SWAP1 PUSH2 0x1847 JUMP JUMPDEST POP PUSH1 0x40 MLOAD DUP4 DUP2 MSTORE CALLER SWAP1 PUSH32 0x9E71BC8EEA02A63969F509818F2DAFB9254532904319F9DBDA79B67BD34A5F3D SWAP1 PUSH1 0x20 ADD PUSH1 0x40 MLOAD DUP1 SWAP2 SUB SWAP1 LOG2 POP POP PUSH2 0x9A0 PUSH1 0x1 PUSH1 0x0 DUP1 MLOAD PUSH1 0x20 PUSH2 0x18EF DUP4 CODECOPY DUP2 MLOAD SWAP2 MSTORE SSTORE JUMP JUMPDEST PUSH2 0x1146 PUSH2 0x1470 JUMP JUMPDEST PUSH1 0x8 SSTORE JUMP JUMPDEST PUSH2 0x1153 PUSH2 0x1470 JUMP JUMPDEST PUSH1 0x2 SSTORE JUMP JUMPDEST PUSH2 0x1160 PUSH2 0x1470 JUMP JUMPDEST PUSH1 0x0 DUP2 GT PUSH2 0x11A4 JUMPI PUSH1 0x40 MLOAD PUSH3 0x461BCD PUSH1 0xE5 SHL DUP2 MSTORE PUSH1 0x20 PUSH1 0x4 DUP3 ADD MSTORE PUSH1 0x11 PUSH1 0x24 DUP3 ADD MSTORE PUSH17 0x43616E6E6F74207769746864726177203 PUSH1 0x7C SHL PUSH1 0x44 DUP3 ADD MSTORE PUSH1 0x64 ADD PUSH2 0x5F3 JUMP JUMPDEST DUP1 PUSH1 0xE SLOAD LT ISZERO PUSH2 0x11F6 JUMPI PUSH1 0x40 MLOAD PUSH3 0x461BCD PUSH1 0xE5 SHL DUP2 MSTORE PUSH1 0x20 PUSH1 0x4 DUP3 ADD DUP2 SWAP1 MSTORE PUSH1 0x24 DUP3 ADD MSTORE PUSH32 0x4E6F7420656E6F75676820746F6B656E7320696E2072657761726420706F6F6C PUSH1 0x44 DUP3 ADD MSTORE PUSH1 0x64 ADD PUSH2 0x5F3 JUMP JUMPDEST DUP1 PUSH1 0xE PUSH1 0x0 DUP3 DUP3 SLOAD PUSH2 0x1208 SWAP2 SWAP1 PUSH2 0x1869 JUMP JUMPDEST SWAP1 SWAP2 SSTORE POP POP PUSH1 0x0 SLOAD PUSH1 0x40 MLOAD PUSH4 0xA9059CBB PUSH1 0xE0 SHL DUP2 MSTORE CALLER PUSH1 0x4 DUP3 ADD MSTORE PUSH1 0x24 DUP2 ADD DUP4 SWAP1 MSTORE PUSH1 0x1 PUSH1 0x1 PUSH1 0xA0 SHL SUB SWAP1 SWAP2 AND SWAP1 PUSH4 0xA9059CBB SWAP1 PUSH1 0x44 ADD PUSH1 0x20 PUSH1 0x40 MLOAD DUP1 DUP4 SUB DUP2 PUSH1 0x0 DUP8 GAS CALL ISZERO DUP1 ISZERO PUSH2 0x125E JUMPI RETURNDATASIZE PUSH1 0x0 DUP1 RETURNDATACOPY RETURNDATASIZE PUSH1 0x0 REVERT JUMPDEST POP POP POP POP PUSH1 0x40 MLOAD RETURNDATASIZE PUSH1 0x1F NOT PUSH1 0x1F DUP3 ADD AND DUP3 ADD DUP1 PUSH1 0x40 MSTORE POP DUP2 ADD SWAP1 PUSH2 0x1282 SWAP2 SWAP1 PUSH2 0x1847 JUMP JUMPDEST POP PUSH1 0x40 MLOAD DUP2 DUP2 MSTORE CALLER SWAP1 PUSH32 0x884EDAD9CE6FA2440D8A54CC123490EB96D2768479D49FF9C7366125A9424364 SWAP1 PUSH1 0x20 ADD PUSH2 0x6BD JUMP JUMPDEST PUSH2 0x12BD PUSH2 0x1470 JUMP JUMPDEST PUSH1 0x9 DUP1 SLOAD PUSH1 0xFF NOT AND PUSH1 0x1 OR SWAP1 SSTORE JUMP JUMPDEST PUSH1 0x0 DUP1 PUSH2 0x12D8 DUP4 PUSH2 0xD4F JUMP JUMPDEST SWAP1 POP PUSH1 0x0 PUSH2 0x12E5 DUP5 PUSH2 0xCB3 JUMP JUMPDEST SWAP1 POP PUSH1 0x0 PUSH8 0xDE0B6B3A7640000 PUSH2 0x12FC DUP5 DUP9 PUSH2 0x18B7 JUMP JUMPDEST PUSH2 0x1306 SWAP2 SWAP1 PUSH2 0x1895 JUMP JUMPDEST SWAP1 POP PUSH1 0x0 PUSH8 0xDE0B6B3A7640000 PUSH2 0x131D DUP5 DUP5 PUSH2 0x18B7 JUMP JUMPDEST PUSH2 0x1327 SWAP2 SWAP1 PUSH2 0x1895 JUMP JUMPDEST SWAP1 POP PUSH1 0x0 DUP2 PUSH2 0x1336 DUP5 DUP11 PUSH2 0x1834 JUMP JUMPDEST PUSH2 0x1340 SWAP2 SWAP1 PUSH2 0x1869 JUMP JUMPDEST SWAP1 POP PUSH2 0x134C DUP3 DUP5 PUSH2 0x1869 JUMP JUMPDEST PUSH1 0xE SLOAD LT ISZERO PUSH2 0x139D JUMPI PUSH1 0x40 MLOAD PUSH3 0x461BCD PUSH1 0xE5 SHL DUP2 MSTORE PUSH1 0x20 PUSH1 0x4 DUP3 ADD MSTORE PUSH1 0x18 PUSH1 0x24 DUP3 ADD MSTORE PUSH32 0x496E73756666696369656E742072657761726420706F6F6C0000000000000000 PUSH1 0x44 DUP3 ADD MSTORE PUSH1 0x64 ADD PUSH2 0x5F3 JUMP JUMPDEST SWAP8 SWAP7 POP POP POP POP POP POP POP JUMP JUMPDEST PUSH2 0x13B0 PUSH2 0x1470 JUMP JUMPDEST PUSH1 0x9 DUP1 SLOAD PUSH1 0xFF NOT AND SWAP1 SSTORE JUMP JUMPDEST PUSH2 0x13C4 PUSH2 0x1470 JUMP JUMPDEST PUSH1 0x1 PUSH1 0x1 PUSH1 0xA0 SHL SUB DUP2 AND PUSH1 0x0 DUP2 DUP2 MSTORE PUSH1 0xC PUSH1 0x20 SWAP1 DUP2 MSTORE PUSH1 0x40 SWAP2 DUP3 SWAP1 KECCAK256 DUP1 SLOAD PUSH1 0xFF NOT AND PUSH1 0x1 SWAP1 DUP2 OR SWAP1 SWAP2 SSTORE SWAP2 MLOAD SWAP2 DUP3 MSTORE PUSH32 0x8DAAF060C3306C38E068A75C054BF96ECD85A3DB1252712C4D93632744C42E0D SWAP2 ADD PUSH2 0x6BD JUMP JUMPDEST PUSH2 0x1423 PUSH2 0x1470 JUMP JUMPDEST PUSH1 0x7 SSTORE JUMP JUMPDEST PUSH2 0x1430 PUSH2 0x1470 JUMP JUMPDEST PUSH1 0x3 SSTORE JUMP JUMPDEST PUSH2 0x143D PUSH2 0x1470 JUMP JUMPDEST PUSH1 0x1 PUSH1 0x1 PUSH1 0xA0 SHL SUB DUP2 AND PUSH2 0x1467 JUMPI PUSH1 0x40 MLOAD PUSH4 0x1E4FBDF7 PUSH1 0xE0 SHL DUP2 MSTORE PUSH1 0x0 PUSH1 0x4 DUP3 ADD MSTORE PUSH1 0x24 ADD PUSH2 0x5F3 JUMP JUMPDEST PUSH2 0x9A0 DUP2 PUSH2 0x15D9 JUMP JUMPDEST CALLER PUSH2 0x14A2 PUSH32 0x9016D09D72D40FDAE2FD8CEAC6B6234C7706214FD39C1CD1E609A0528C199300 SLOAD PUSH1 0x1 PUSH1 0x1 PUSH1 0xA0 SHL SUB AND SWAP1 JUMP JUMPDEST PUSH1 0x1 PUSH1 0x1 PUSH1 0xA0 SHL SUB AND EQ PUSH2 0xB1F JUMPI PUSH1 0x40 MLOAD PUSH4 0x118CDAA7 PUSH1 0xE0 SHL DUP2 MSTORE CALLER PUSH1 0x4 DUP3 ADD MSTORE PUSH1 0x24 ADD PUSH2 0x5F3 JUMP JUMPDEST PUSH1 0x0 DUP1 MLOAD PUSH1 0x20 PUSH2 0x18EF DUP4 CODECOPY DUP2 MLOAD SWAP2 MSTORE DUP1 SLOAD PUSH1 0x1 NOT ADD PUSH2 0x14FD JUMPI PUSH1 0x40 MLOAD PUSH4 0x3EE5AEB5 PUSH1 0xE0 SHL DUP2 MSTORE PUSH1 0x4 ADD PUSH1 0x40 MLOAD DUP1 SWAP2 SUB SWAP1 REVERT JUMPDEST PUSH1 0x2 SWAP1 SSTORE JUMP JUMPDEST PUSH1 0x1 PUSH1 0x0 DUP1 MLOAD PUSH1 0x20 PUSH2 0x18EF DUP4 CODECOPY DUP2 MLOAD SWAP2 MSTORE SSTORE JUMP JUMPDEST PUSH1 0x0 DUP1 MLOAD PUSH1 0x20 PUSH2 0x18CF DUP4 CODECOPY DUP2 MLOAD SWAP2 MSTORE SLOAD PUSH1 0xFF AND ISZERO PUSH2 0xB1F JUMPI PUSH1 0x40 MLOAD PUSH4 0xD93C0665 PUSH1 0xE0 SHL DUP2 MSTORE PUSH1 0x4 ADD PUSH1 0x40 MLOAD DUP1 SWAP2 SUB SWAP1 REVERT JUMPDEST PUSH2 0x1550 PUSH2 0x1693 JUMP JUMPDEST PUSH1 0x0 DUP1 MLOAD PUSH1 0x20 PUSH2 0x18CF DUP4 CODECOPY DUP2 MLOAD SWAP2 MSTORE DUP1 SLOAD PUSH1 0xFF NOT AND DUP2 SSTORE PUSH32 0x5DB9EE0A495BF2E6FF9C91A7834C1BA4FDD244A5E8AA4E537BD38AEAE4B073AA CALLER JUMPDEST PUSH1 0x40 MLOAD PUSH1 0x1 PUSH1 0x1 PUSH1 0xA0 SHL SUB SWAP1 SWAP2 AND DUP2 MSTORE PUSH1 0x20 ADD PUSH1 0x40 MLOAD DUP1 SWAP2 SUB SWAP1 LOG1 POP JUMP JUMPDEST PUSH2 0x15B0 PUSH2 0x16C3 JUMP JUMPDEST PUSH2 0x9A0 DUP2 PUSH2 0x170C JUMP JUMPDEST PUSH2 0x15C1 PUSH2 0x16C3 JUMP JUMPDEST PUSH2 0xB1F PUSH2 0x1714 JUMP JUMPDEST PUSH2 0x15D1 PUSH2 0x16C3 JUMP JUMPDEST PUSH2 0xB1F PUSH2 0x1735 JUMP JUMPDEST PUSH32 0x9016D09D72D40FDAE2FD8CEAC6B6234C7706214FD39C1CD1E609A0528C199300 DUP1 SLOAD PUSH1 0x1 PUSH1 0x1 PUSH1 0xA0 SHL SUB NOT DUP2 AND PUSH1 0x1 PUSH1 0x1 PUSH1 0xA0 SHL SUB DUP5 DUP2 AND SWAP2 DUP3 OR DUP5 SSTORE PUSH1 0x40 MLOAD SWAP3 AND SWAP2 DUP3 SWAP1 PUSH32 0x8BE0079C531659141344CD1FD0A4F28419497F9722A3DAAFE3B4186F6B6457E0 SWAP1 PUSH1 0x0 SWAP1 LOG3 POP POP POP JUMP JUMPDEST PUSH2 0x1652 PUSH2 0x1517 JUMP JUMPDEST PUSH1 0x0 DUP1 MLOAD PUSH1 0x20 PUSH2 0x18CF DUP4 CODECOPY DUP2 MLOAD SWAP2 MSTORE DUP1 SLOAD PUSH1 0xFF NOT AND PUSH1 0x1 OR DUP2 SSTORE PUSH32 0x62E78CEA01BEE320CD4E420270B5EA74000D11B0C9F74754EBDBFC544B05A258 CALLER PUSH2 0x158A JUMP JUMPDEST PUSH1 0x0 DUP1 MLOAD PUSH1 0x20 PUSH2 0x18CF DUP4 CODECOPY DUP2 MLOAD SWAP2 MSTORE SLOAD PUSH1 0xFF AND PUSH2 0xB1F JUMPI PUSH1 0x40 MLOAD PUSH4 0x8DFC202B PUSH1 0xE0 SHL DUP2 MSTORE PUSH1 0x4 ADD PUSH1 0x40 MLOAD DUP1 SWAP2 SUB SWAP1 REVERT JUMPDEST PUSH32 0xF0C57E16840DF040F15088DC2F81FE391C3923BEC73E23A9662EFC9C229C6A00 SLOAD PUSH1 0x1 PUSH1 0x40 SHL SWAP1 DIV PUSH1 0xFF AND PUSH2 0xB1F JUMPI PUSH1 0x40 MLOAD PUSH4 0x1AFCD79F PUSH1 0xE3 SHL DUP2 MSTORE PUSH1 0x4 ADD PUSH1 0x40 MLOAD DUP1 SWAP2 SUB SWAP1 REVERT JUMPDEST PUSH2 0x143D PUSH2 0x16C3 JUMP JUMPDEST PUSH2 0x171C PUSH2 0x16C3 JUMP JUMPDEST PUSH1 0x0 DUP1 MLOAD PUSH1 0x20 PUSH2 0x18CF DUP4 CODECOPY DUP2 MLOAD SWAP2 MSTORE DUP1 SLOAD PUSH1 0xFF NOT AND SWAP1 SSTORE JUMP JUMPDEST PUSH2 0x1503 PUSH2 0x16C3 JUMP JUMPDEST DUP1 CALLDATALOAD PUSH1 0x1 PUSH1 0x1 PUSH1 0xA0 SHL SUB DUP2 AND DUP2 EQ PUSH2 0xCF7 JUMPI PUSH1 0x0 DUP1 REVERT JUMPDEST PUSH1 0x0 PUSH1 0x20 DUP3 DUP5 SUB SLT ISZERO PUSH2 0x1766 JUMPI PUSH1 0x0 DUP1 REVERT JUMPDEST PUSH2 0xCF0 DUP3 PUSH2 0x173D JUMP JUMPDEST PUSH1 0x0 PUSH1 0x20 DUP3 DUP5 SUB SLT ISZERO PUSH2 0x1781 JUMPI PUSH1 0x0 DUP1 REVERT JUMPDEST POP CALLDATALOAD SWAP2 SWAP1 POP JUMP JUMPDEST PUSH1 0x0 DUP1 PUSH1 0x0 DUP1 PUSH1 0x0 DUP1 PUSH1 0xC0 DUP8 DUP10 SUB SLT ISZERO PUSH2 0x17A1 JUMPI PUSH1 0x0 DUP1 REVERT JUMPDEST PUSH2 0x17AA DUP8 PUSH2 0x173D JUMP JUMPDEST SWAP9 PUSH1 0x20 DUP9 ADD CALLDATALOAD SWAP9 POP PUSH1 0x40 DUP9 ADD CALLDATALOAD SWAP8 PUSH1 0x60 DUP2 ADD CALLDATALOAD SWAP8 POP PUSH1 0x80 DUP2 ADD CALLDATALOAD SWAP7 POP PUSH1 0xA0 ADD CALLDATALOAD SWAP5 POP SWAP3 POP POP POP JUMP JUMPDEST PUSH1 0x0 DUP1 PUSH1 0x40 DUP4 DUP6 SUB SLT ISZERO PUSH2 0x17E5 JUMPI PUSH1 0x0 DUP1 REVERT JUMPDEST PUSH2 0x17EE DUP4 PUSH2 0x173D JUMP JUMPDEST SWAP5 PUSH1 0x20 SWAP4 SWAP1 SWAP4 ADD CALLDATALOAD SWAP4 POP POP POP JUMP JUMPDEST PUSH1 0x0 DUP1 PUSH1 0x40 DUP4 DUP6 SUB SLT ISZERO PUSH2 0x180F JUMPI PUSH1 0x0 DUP1 REVERT JUMPDEST POP POP DUP1 CALLDATALOAD SWAP3 PUSH1 0x20 SWAP1 SWAP2 ADD CALLDATALOAD SWAP2 POP JUMP JUMPDEST PUSH4 0x4E487B71 PUSH1 0xE0 SHL PUSH1 0x0 MSTORE PUSH1 0x11 PUSH1 0x4 MSTORE PUSH1 0x24 PUSH1 0x0 REVERT JUMPDEST DUP1 DUP3 ADD DUP1 DUP3 GT ISZERO PUSH2 0xD68 JUMPI PUSH2 0xD68 PUSH2 0x181E JUMP JUMPDEST PUSH1 0x0 PUSH1 0x20 DUP3 DUP5 SUB SLT ISZERO PUSH2 0x1859 JUMPI PUSH1 0x0 DUP1 REVERT JUMPDEST DUP2 MLOAD DUP1 ISZERO ISZERO DUP2 EQ PUSH2 0xCF0 JUMPI PUSH1 0x0 DUP1 REVERT JUMPDEST DUP2 DUP2 SUB DUP2 DUP2 GT ISZERO PUSH2 0xD68 JUMPI PUSH2 0xD68 PUSH2 0x181E JUMP JUMPDEST PUSH1 0x0 PUSH1 0x1 DUP3 ADD PUSH2 0x188E JUMPI PUSH2 0x188E PUSH2 0x181E JUMP JUMPDEST POP PUSH1 0x1 ADD SWAP1 JUMP JUMPDEST PUSH1 0x0 DUP3 PUSH2 0x18B2 JUMPI PUSH4 0x4E487B71 PUSH1 0xE0 SHL PUSH1 0x0 MSTORE PUSH1 0x12 PUSH1 0x4 MSTORE PUSH1 0x24 PUSH1 0x0 REVERT JUMPDEST POP DIV SWAP1 JUMP JUMPDEST DUP1 DUP3 MUL DUP2 ISZERO DUP3 DUP3 DIV DUP5 EQ OR PUSH2 0xD68 JUMPI PUSH2 0xD68 PUSH2 0x181E JUMP INVALID 0xCD 0x5E 0xD1 0x5C PUSH15 0x187E77E9AEE88184C21F4F2182AB58 0x27 0xCB EXTCODESIZE PUSH31 0x7FBEDCD63F033009B779B17422D0DF92223018B32B4D1FA46E071723D6817 0xE2 BASEFEE PUSH14 0x3BECC55F00A264697066735822 SLT KECCAK256 0x4C 0xEE 0xDD 0x22 GAS DUP15 0xAF STATICCALL 0xC9 0xD5 0xF9 GT 0x1F ADD 0xBB CALLER CALLDATASIZE SWAP5 0x49 0xF MULMOD PUSH25 0xB0DF6CDDE6D01956615364736F6C6343000814003300000000 "},"methodIdentifiers":{"addToWhitelist(address)":"e43252d7","calculateTax(uint256)":"483a9310","calculateTotalWithdraw(uint256,uint256)":"d2771e01","calculateYield(uint256)":"80a3301b","claim(uint256)":"379607f5","cooldownPeriod()":"04646a49","depositRewardTokens(uint256)":"16c621e0","disableWhitelist()":"d6b0f484","enableWhitelist()":"cdfb2b4e","getTotalStakedForUser(address)":"3b42ffcf","initialize(address,uint256,uint256,uint256,uint256,uint256)":"45ff4c80","maxCap()":"23548b8b","minCap()":"3fa615b0","monthlyIncreasePercentage()":"29161479","monthsInStakingPeriod()":"6f629512","owner()":"8da5cb5b","pause()":"8456cb59","paused()":"5c975abb","removeFromWhitelist(address)":"8ab1d681","renounceOwnership()":"715018a6","rewardPool()":"66666aa9","stake(uint256)":"a694fc3a","stakingDuration()":"8005a7de","stakingToken()":"72f702f3","startingSlashingPoint()":"0b7ead4a","totalStaked()":"817b1cd2","transferOwnership(address)":"f2fde38b","unpause()":"3f4ba83a","unstake(uint256)":"2e17de78","updateCooldownPeriod(uint256)":"861f6bfd","updateMaxCap(uint256)":"e81ba080","updateMinCap(uint256)":"bcaabf6c","updateMonthlyIncreasePercentage(uint256)":"b3c55721","updateStakingDuration(uint256)":"5b1d7086","updateStartingSlashingPoint(uint256)":"e6d24866","updateYieldConstant(uint256)":"36c1105a","userStakeCounter(address)":"5678b024","userStakes(address,uint256)":"b5d5b5fa","whitelistEnabled()":"51fb012d","whitelistedAddresses(address)":"06c933d8","withdrawRewardTokens(uint256)":"cb43b2dd","yieldConstant()":"7a65cd0b"}},"storageLayout":{"storage":[{"astId":897,"contract":"contracts/Staking.sol:Staking","label":"stakingToken","offset":0,"slot":"0","type":"t_contract(IERC20)877"},{"astId":900,"contract":"contracts/Staking.sol:Staking","label":"stakingDuration","offset":0,"slot":"1","type":"t_uint256"},{"astId":903,"contract":"contracts/Staking.sol:Staking","label":"minCap","offset":0,"slot":"2","type":"t_uint256"},{"astId":906,"contract":"contracts/Staking.sol:Staking","label":"maxCap","offset":0,"slot":"3","type":"t_uint256"},{"astId":909,"contract":"contracts/Staking.sol:Staking","label":"yieldConstant","offset":0,"slot":"4","type":"t_uint256"},{"astId":912,"contract":"contracts/Staking.sol:Staking","label":"cooldownPeriod","offset":0,"slot":"5","type":"t_uint256"},{"astId":915,"contract":"contracts/Staking.sol:Staking","label":"monthsInStakingPeriod","offset":0,"slot":"6","type":"t_uint256"},{"astId":918,"contract":"contracts/Staking.sol:Staking","label":"startingSlashingPoint","offset":0,"slot":"7","type":"t_uint256"},{"astId":921,"contract":"contracts/Staking.sol:Staking","label":"monthlyIncreasePercentage","offset":0,"slot":"8","type":"t_uint256"},{"astId":924,"contract":"contracts/Staking.sol:Staking","label":"whitelistEnabled","offset":0,"slot":"9","type":"t_bool"},{"astId":940,"contract":"contracts/Staking.sol:Staking","label":"userStakes","offset":0,"slot":"10","type":"t_mapping(t_address,t_mapping(t_uint256,t_struct(Stake)933_storage))"},{"astId":944,"contract":"contracts/Staking.sol:Staking","label":"userStakeCounter","offset":0,"slot":"11","type":"t_mapping(t_address,t_uint256)"},{"astId":948,"contract":"contracts/Staking.sol:Staking","label":"whitelistedAddresses","offset":0,"slot":"12","type":"t_mapping(t_address,t_bool)"},{"astId":950,"contract":"contracts/Staking.sol:Staking","label":"_totalStaked","offset":0,"slot":"13","type":"t_uint256"},{"astId":952,"contract":"contracts/Staking.sol:Staking","label":"_rewardPool","offset":0,"slot":"14","type":"t_uint256"}],"types":{"t_address":{"encoding":"inplace","label":"address","numberOfBytes":"20"},"t_bool":{"encoding":"inplace","label":"bool","numberOfBytes":"1"},"t_contract(IERC20)877":{"encoding":"inplace","label":"contract IERC20","numberOfBytes":"20"},"t_mapping(t_address,t_bool)":{"encoding":"mapping","key":"t_address","label":"mapping(address => bool)","numberOfBytes":"32","value":"t_bool"},"t_mapping(t_address,t_mapping(t_uint256,t_struct(Stake)933_storage))":{"encoding":"mapping","key":"t_address","label":"mapping(address => mapping(uint256 => struct Staking.Stake))","numberOfBytes":"32","value":"t_mapping(t_uint256,t_struct(Stake)933_storage)"},"t_mapping(t_address,t_uint256)":{"encoding":"mapping","key":"t_address","label":"mapping(address => uint256)","numberOfBytes":"32","value":"t_uint256"},"t_mapping(t_uint256,t_struct(Stake)933_storage)":{"encoding":"mapping","key":"t_uint256","label":"mapping(uint256 => struct Staking.Stake)","numberOfBytes":"32","value":"t_struct(Stake)933_storage"},"t_struct(Stake)933_storage":{"encoding":"inplace","label":"struct Staking.Stake","members":[{"astId":926,"contract":"contracts/Staking.sol:Staking","label":"amount","offset":0,"slot":"0","type":"t_uint256"},{"astId":928,"contract":"contracts/Staking.sol:Staking","label":"startTime","offset":0,"slot":"1","type":"t_uint256"},{"astId":930,"contract":"contracts/Staking.sol:Staking","label":"requestUnstakeTime","offset":0,"slot":"2","type":"t_uint256"},{"astId":932,"contract":"contracts/Staking.sol:Staking","label":"unstakeRequested","offset":0,"slot":"3","type":"t_bool"}],"numberOfBytes":"128"},"t_uint256":{"encoding":"inplace","label":"uint256","numberOfBytes":"32"}}}}}}