{"contracts/Staking.sol":{"Staking":{"abi":[{"inputs":[{"internalType":"address","name":"target","type":"address"}],"name":"AddressEmptyCode","type":"error"},{"inputs":[{"internalType":"address","name":"account","type":"address"}],"name":"AddressInsufficientBalance","type":"error"},{"inputs":[],"name":"AmountBelowMinCap","type":"error"},{"inputs":[],"name":"AmountExceedsMaxCap","type":"error"},{"inputs":[],"name":"CannotDepositZero","type":"error"},{"inputs":[],"name":"CooldownPeriodNotOver","type":"error"},{"inputs":[],"name":"EnforcedPause","type":"error"},{"inputs":[],"name":"ExpectedPause","type":"error"},{"inputs":[],"name":"FailedInnerCall","type":"error"},{"inputs":[],"name":"InsufficientRewardPool","type":"error"},{"inputs":[],"name":"InvalidInitialization","type":"error"},{"inputs":[],"name":"NoStakedAmount","type":"error"},{"inputs":[],"name":"NotInitializing","type":"error"},{"inputs":[],"name":"NotWhitelisted","type":"error"},{"inputs":[{"internalType":"address","name":"owner","type":"address"}],"name":"OwnableInvalidOwner","type":"error"},{"inputs":[{"internalType":"address","name":"account","type":"address"}],"name":"OwnableUnauthorizedAccount","type":"error"},{"inputs":[],"name":"ReentrancyGuardReentrantCall","type":"error"},{"inputs":[{"internalType":"address","name":"token","type":"address"}],"name":"SafeERC20FailedOperation","type":"error"},{"inputs":[],"name":"UnstakeAlreadyRequested","type":"error"},{"inputs":[],"name":"UnstakeNotRequested","type":"error"},{"inputs":[],"name":"ZeroAmount","type":"error"},{"anonymous":false,"inputs":[{"indexed":true,"internalType":"address","name":"owner","type":"address"},{"indexed":false,"internalType":"uint256","name":"amount","type":"uint256"}],"name":"Deposit","type":"event"},{"anonymous":false,"inputs":[{"indexed":false,"internalType":"uint64","name":"version","type":"uint64"}],"name":"Initialized","type":"event"},{"anonymous":false,"inputs":[{"indexed":true,"internalType":"address","name":"previousOwner","type":"address"},{"indexed":true,"internalType":"address","name":"newOwner","type":"address"}],"name":"OwnershipTransferred","type":"event"},{"anonymous":false,"inputs":[{"indexed":false,"internalType":"address","name":"account","type":"address"}],"name":"Paused","type":"event"},{"anonymous":false,"inputs":[{"indexed":true,"internalType":"address","name":"user","type":"address"},{"indexed":false,"internalType":"uint256","name":"reward","type":"uint256"}],"name":"RewardPaid","type":"event"},{"anonymous":false,"inputs":[{"indexed":true,"internalType":"address","name":"user","type":"address"},{"indexed":false,"internalType":"uint256","name":"amount","type":"uint256"}],"name":"Staked","type":"event"},{"anonymous":false,"inputs":[{"indexed":false,"internalType":"address","name":"account","type":"address"}],"name":"Unpaused","type":"event"},{"anonymous":false,"inputs":[{"indexed":true,"internalType":"address","name":"user","type":"address"},{"indexed":false,"internalType":"uint256","name":"amount","type":"uint256"}],"name":"UnstakeRequested","type":"event"},{"anonymous":false,"inputs":[{"indexed":true,"internalType":"address","name":"user","type":"address"},{"indexed":false,"internalType":"bool","name":"status","type":"bool"}],"name":"WhitelistStatusChanged","type":"event"},{"anonymous":false,"inputs":[{"indexed":true,"internalType":"address","name":"owner","type":"address"},{"indexed":false,"internalType":"uint256","name":"amount","type":"uint256"}],"name":"Withdraw","type":"event"},{"anonymous":false,"inputs":[{"indexed":true,"internalType":"address","name":"user","type":"address"},{"indexed":false,"internalType":"uint256","name":"amount","type":"uint256"}],"name":"Withdrawn","type":"event"},{"inputs":[{"internalType":"address","name":"_address","type":"address"}],"name":"addToWhitelist","outputs":[],"stateMutability":"nonpayable","type":"function"},{"inputs":[{"internalType":"uint256","name":"timeStaked","type":"uint256"},{"internalType":"uint256","name":"_monthlyIncreasePercentage","type":"uint256"},{"internalType":"uint256","name":"_startingSlashingPoint","type":"uint256"},{"internalType":"uint256","name":"_stakingDuration","type":"uint256"}],"name":"calculateTax","outputs":[{"internalType":"uint256","name":"","type":"uint256"}],"stateMutability":"pure","type":"function"},{"inputs":[{"internalType":"uint256","name":"_amount","type":"uint256"},{"internalType":"uint256","name":"timeStaked","type":"uint256"},{"internalType":"uint256","name":"_yieldConstant","type":"uint256"},{"internalType":"uint256","name":"_monthlyIncreasePercentage","type":"uint256"},{"internalType":"uint256","name":"_startingSlashingPoint","type":"uint256"},{"internalType":"uint256","name":"_stakingDuration","type":"uint256"}],"name":"calculateTotalWithdraw","outputs":[{"internalType":"uint256","name":"","type":"uint256"}],"stateMutability":"view","type":"function"},{"inputs":[{"internalType":"uint256","name":"timeStaked","type":"uint256"},{"internalType":"uint256","name":"_yieldConstant","type":"uint256"}],"name":"calculateYield","outputs":[{"internalType":"uint256","name":"","type":"uint256"}],"stateMutability":"view","type":"function"},{"inputs":[{"internalType":"uint256","name":"stakeId","type":"uint256"}],"name":"claim","outputs":[],"stateMutability":"nonpayable","type":"function"},{"inputs":[],"name":"cooldownPeriod","outputs":[{"internalType":"uint256","name":"","type":"uint256"}],"stateMutability":"view","type":"function"},{"inputs":[{"internalType":"uint256","name":"_amount","type":"uint256"}],"name":"depositRewardTokens","outputs":[],"stateMutability":"nonpayable","type":"function"},{"inputs":[],"name":"disableWhitelist","outputs":[],"stateMutability":"nonpayable","type":"function"},{"inputs":[],"name":"enableWhitelist","outputs":[],"stateMutability":"nonpayable","type":"function"},{"inputs":[{"internalType":"address","name":"user","type":"address"}],"name":"getTotalStakedForUser","outputs":[{"internalType":"uint256","name":"","type":"uint256"}],"stateMutability":"view","type":"function"},{"inputs":[{"internalType":"address","name":"_owner","type":"address"},{"internalType":"address","name":"_stakingToken","type":"address"},{"internalType":"uint32","name":"_stakingDuration","type":"uint32"},{"internalType":"uint256","name":"_yieldConstant","type":"uint256"},{"internalType":"uint256","name":"_cooldownPeriod","type":"uint256"},{"internalType":"uint256","name":"_startingSlashingPoint","type":"uint256"},{"internalType":"uint256","name":"_monthlyIncreasePercentage","type":"uint256"},{"internalType":"uint256","name":"_minCap","type":"uint256"},{"internalType":"uint256","name":"_maxCap","type":"uint256"},{"internalType":"bool","name":"_whitelistEnabled","type":"bool"}],"name":"initialize","outputs":[],"stateMutability":"nonpayable","type":"function"},{"inputs":[],"name":"maxCap","outputs":[{"internalType":"uint256","name":"","type":"uint256"}],"stateMutability":"view","type":"function"},{"inputs":[],"name":"minCap","outputs":[{"internalType":"uint256","name":"","type":"uint256"}],"stateMutability":"view","type":"function"},{"inputs":[],"name":"monthlyIncreasePercentage","outputs":[{"internalType":"uint256","name":"","type":"uint256"}],"stateMutability":"view","type":"function"},{"inputs":[],"name":"monthsInStakingPeriod","outputs":[{"internalType":"uint256","name":"","type":"uint256"}],"stateMutability":"view","type":"function"},{"inputs":[],"name":"owner","outputs":[{"internalType":"address","name":"","type":"address"}],"stateMutability":"view","type":"function"},{"inputs":[],"name":"pause","outputs":[],"stateMutability":"nonpayable","type":"function"},{"inputs":[],"name":"paused","outputs":[{"internalType":"bool","name":"","type":"bool"}],"stateMutability":"view","type":"function"},{"inputs":[],"name":"pendingRewards","outputs":[{"internalType":"uint256","name":"","type":"uint256"}],"stateMutability":"view","type":"function"},{"inputs":[{"internalType":"address","name":"_address","type":"address"}],"name":"removeFromWhitelist","outputs":[],"stateMutability":"nonpayable","type":"function"},{"inputs":[],"name":"renounceOwnership","outputs":[],"stateMutability":"nonpayable","type":"function"},{"inputs":[],"name":"rewardPool","outputs":[{"internalType":"uint256","name":"","type":"uint256"}],"stateMutability":"view","type":"function"},{"inputs":[{"internalType":"uint256","name":"_amount","type":"uint256"}],"name":"stake","outputs":[],"stateMutability":"nonpayable","type":"function"},{"inputs":[],"name":"stakingDuration","outputs":[{"internalType":"uint256","name":"","type":"uint256"}],"stateMutability":"view","type":"function"},{"inputs":[],"name":"stakingToken","outputs":[{"internalType":"contract IERC20","name":"","type":"address"}],"stateMutability":"view","type":"function"},{"inputs":[],"name":"startingSlashingPoint","outputs":[{"internalType":"uint256","name":"","type":"uint256"}],"stateMutability":"view","type":"function"},{"inputs":[],"name":"totalStaked","outputs":[{"internalType":"uint256","name":"","type":"uint256"}],"stateMutability":"view","type":"function"},{"inputs":[{"internalType":"address","name":"newOwner","type":"address"}],"name":"transferOwnership","outputs":[],"stateMutability":"nonpayable","type":"function"},{"inputs":[],"name":"unpause","outputs":[],"stateMutability":"nonpayable","type":"function"},{"inputs":[{"internalType":"uint256","name":"stakeId","type":"uint256"}],"name":"unstake","outputs":[],"stateMutability":"nonpayable","type":"function"},{"inputs":[{"internalType":"uint256","name":"_cooldownPeriod","type":"uint256"}],"name":"updateCooldownPeriod","outputs":[],"stateMutability":"nonpayable","type":"function"},{"inputs":[{"internalType":"uint256","name":"_maxCap","type":"uint256"}],"name":"updateMaxCap","outputs":[],"stateMutability":"nonpayable","type":"function"},{"inputs":[{"internalType":"uint256","name":"_minCap","type":"uint256"}],"name":"updateMinCap","outputs":[],"stateMutability":"nonpayable","type":"function"},{"inputs":[{"internalType":"uint256","name":"_monthlyIncreasePercentage","type":"uint256"}],"name":"updateMonthlyIncreasePercentage","outputs":[],"stateMutability":"nonpayable","type":"function"},{"inputs":[{"internalType":"uint256","name":"_stakingDuration","type":"uint256"}],"name":"updateStakingDuration","outputs":[],"stateMutability":"nonpayable","type":"function"},{"inputs":[{"internalType":"uint256","name":"_startingSlashingPoint","type":"uint256"}],"name":"updateStartingSlashingPoint","outputs":[],"stateMutability":"nonpayable","type":"function"},{"inputs":[{"internalType":"uint256","name":"_yieldConstant","type":"uint256"}],"name":"updateYieldConstant","outputs":[],"stateMutability":"nonpayable","type":"function"},{"inputs":[{"internalType":"address","name":"","type":"address"}],"name":"userStakeCounter","outputs":[{"internalType":"uint256","name":"","type":"uint256"}],"stateMutability":"view","type":"function"},{"inputs":[{"internalType":"address","name":"","type":"address"},{"internalType":"uint256","name":"","type":"uint256"}],"name":"userStakes","outputs":[{"internalType":"uint256","name":"amount","type":"uint256"},{"internalType":"uint32","name":"startTime","type":"uint32"},{"internalType":"uint32","name":"requestUnstakeTime","type":"uint32"},{"internalType":"bool","name":"unstakeRequested","type":"bool"},{"internalType":"uint256","name":"yieldConstant","type":"uint256"},{"internalType":"uint256","name":"monthlyIncreasePercentage","type":"uint256"},{"internalType":"uint256","name":"startingSlashingPoint","type":"uint256"},{"internalType":"uint32","name":"stakingDuration","type":"uint32"}],"stateMutability":"view","type":"function"},{"inputs":[],"name":"whitelistEnabled","outputs":[{"internalType":"bool","name":"","type":"bool"}],"stateMutability":"view","type":"function"},{"inputs":[{"internalType":"address","name":"","type":"address"}],"name":"whitelistedAddresses","outputs":[{"internalType":"bool","name":"","type":"bool"}],"stateMutability":"view","type":"function"},{"inputs":[{"internalType":"uint256","name":"_amount","type":"uint256"}],"name":"withdrawRewardTokens","outputs":[],"stateMutability":"nonpayable","type":"function"},{"inputs":[],"name":"yieldConstant","outputs":[{"internalType":"uint256","name":"","type":"uint256"}],"stateMutability":"view","type":"function"}],"evm":{"bytecode":{"linkReferences":{},"object":"608060405234801561001057600080fd5b506144e9806100206000396000f3fe608060405234801561001057600080fd5b50600436106102695760003560e01c8063715018a611610151578063b3c55721116100c3578063d6b0f48411610087578063d6b0f484146106e1578063e43252d7146106eb578063e6d2486614610707578063e81ba08014610723578063eded3fda1461073f578063f2fde38b1461075d57610269565b8063b3c557211461064c578063b5d5b5fa14610668578063bcaabf6c1461069f578063cb43b2dd146106bb578063cdfb2b4e146106d757610269565b8063817b1cd211610115578063817b1cd2146105b25780638456cb59146105d0578063861f6bfd146105da5780638ab1d681146105f65780638da5cb5b14610612578063a694fc3a1461063057610269565b8063715018a61461051e57806372f702f31461052857806375713079146105465780637a65cd0b146105765780638005a7de1461059457610269565b8063379607f5116101ea5780635678b024116101ae5780635678b0241461045c5780635b1d70861461048c5780635c975abb146104a857806366666aa9146104c65780636c03d853146104e45780636f6295121461050057610269565b8063379607f5146103ca5780633b42ffcf146103e65780633f4ba83a146104165780633fa615b01461042057806351fb012d1461043e57610269565b806322e768371161023157806322e768371461032657806323548b8b1461035657806329161479146103745780632e17de781461039257806336c1105a146103ae57610269565b8063043cbe5b1461026e57806304646a491461029e57806306c933d8146102bc5780630b7ead4a146102ec57806316c621e01461030a575b600080fd5b61028860048036038101906102839190613c31565b610779565b6040516102959190613c80565b60405180910390f35b6102a661090f565b6040516102b39190613c80565b60405180910390f35b6102d660048036038101906102d19190613cf9565b610915565b6040516102e39190613d41565b60405180910390f35b6102f4610935565b6040516103019190613c80565b60405180910390f35b610324600480360381019061031f9190613d5c565b61093b565b005b610340600480360381019061033b9190613d89565b610b38565b60405161034d9190613c80565b60405180910390f35b61035e610ccf565b60405161036b9190613c80565b60405180910390f35b61037c610cd5565b6040516103899190613c80565b60405180910390f35b6103ac60048036038101906103a79190613d5c565b610cdb565b005b6103c860048036038101906103c39190613d5c565b6110ca565b005b6103e460048036038101906103df9190613d5c565b61112c565b005b61040060048036038101906103fb9190613cf9565b61139b565b60405161040d9190613c80565b60405180910390f35b61041e611583565b005b6104286115f9565b6040516104359190613c80565b60405180910390f35b6104466115ff565b6040516104539190613d41565b60405180910390f35b61047660048036038101906104719190613cf9565b611612565b6040516104839190613c80565b60405180910390f35b6104a660048036038101906104a19190613d5c565b61162a565b005b6104b06116b5565b6040516104bd9190613d41565b60405180910390f35b6104ce6116da565b6040516104db9190613c80565b60405180910390f35b6104fe60048036038101906104f99190613e7e565b611720565b005b610508611b21565b6040516105159190613c80565b60405180910390f35b610526611b27565b005b610530611b3b565b60405161053d9190613fbc565b60405180910390f35b610560600480360381019061055b9190613fd7565b611b5f565b60405161056d9190613c80565b60405180910390f35b61057e611c80565b60405161058b9190613c80565b60405180910390f35b61059c611c86565b6040516105a99190613c80565b60405180910390f35b6105ba611c8c565b6040516105c79190613c80565b60405180910390f35b6105d8611cd2565b005b6105f460048036038101906105ef9190613d5c565b611d48565b005b610610600480360381019061060b9190613cf9565b611daa565b005b61061a611ed4565b604051610627919061404d565b60405180910390f35b61064a60048036038101906106459190613d5c565b611f0c565b005b61066660048036038101906106619190613d5c565b6126ab565b005b610682600480360381019061067d9190614068565b61270d565b6040516106969897969594939291906140b7565b60405180910390f35b6106b960048036038101906106b49190613d5c565b61279f565b005b6106d560048036038101906106d09190613d5c565b612801565b005b6106df612aa9565b005b6106e9612b1e565b005b61070560048036038101906107009190613cf9565b612b93565b005b610721600480360381019061071c9190613d5c565b612cbd565b005b61073d60048036038101906107389190613d5c565b612d1f565b005b610747612d81565b6040516107549190613c80565b60405180910390f35b61077760048036038101906107729190613cf9565b612dc7565b005b600061078f67d3533c0d788f6f6a60c01b612e4d565b6107a367c6c49d372d30d9e060c01b612e4d565b6107b7673a7cb5c767023a9a60c01b612e4d565b6001548310610810576107d467cfb62a4e3282757460c01b612e4d565b6107e867f271e827db6e47b760c01b612e4d565b6107fc67a33c765d60246bf760c01b612e4d565b8160906108099190614164565b9050610909565b610824675dcec27c27302b3160c01b612e4d565b61083867996f014a15ae084b60c01b612e4d565b61084c6709e7bdd9574ac5a060c01b612e4d565b6000600154670de0b6b3a7640000856006546108689190614164565b6108729190614164565b61087c91906141d5565b90506108926741ae4d463ca3cf4960c01b612e4d565b6108a667581f33e234bdd4ae60c01b612e4d565b60006ec097ce7bc90715b34b9f10000000008283866108c59190614164565b6108cf9190614164565b6108d991906141d5565b90506108ef67d425252e50b3a3f360c01b612e4d565b6109036737dc5191926dd1c460c01b612e4d565b80925050505b92915050565b60055481565b600c6020528060005260406000206000915054906101000a900460ff1681565b60075481565b61094f67784d1203cac2db3660c01b612e4d565b610957612e50565b61096b67cc7f46c4c4f181c560c01b612e4d565b61097f67371e6d56b832698160c01b612e4d565b610993672e31e54c0ede5a3860c01b612e4d565b6109a767f9703c94a5a19bd460c01b612e4d565b60008103610a09576109c3679e220b7e5f7608a560c01b612e4d565b6109d767fe7caa985572d08f60c01b612e4d565b6040517f61ac6eba00000000000000000000000000000000000000000000000000000000815260040160405180910390fd5b610a1d67ccd960eba84e13dd60c01b612e4d565b610a31678605a2b21344c35760c01b612e4d565b80600e6000828254610a439190614206565b92505081905550610a5e672acfe9baee32783060c01b612e4d565b610a72672e0b79933dc999ef60c01b612e4d565b610abf33308360008054906101000a900473ffffffffffffffffffffffffffffffffffffffff1673ffffffffffffffffffffffffffffffffffffffff16612ed7909392919063ffffffff16565b610ad367bba26dbe923896e060c01b612e4d565b610ae7677f25a147d236dd8b60c01b612e4d565b3373ffffffffffffffffffffffffffffffffffffffff167fe1fffcc4923d04b559f4d29a8bfc6cda04eb5b0d3c460751c2402c5c5cc9109c82604051610b2d9190613c80565b60405180910390a250565b6000610b4e6771dc132d31e4a02460c01b612e4d565b610b6267a7d8e1cbbc843fb260c01b612e4d565b610b76675fb82d64c9d3c40a60c01b612e4d565b6000610b828787610779565b9050610b9867bf3e5f3fd52b5fb960c01b612e4d565b610bac67e12bd3823173100d60c01b612e4d565b6000610bba88878787611b5f565b9050610bd067acece777c90a6bb760c01b612e4d565b610be467ac5b4b7a00dd959d60c01b612e4d565b6000670de0b6b3a7640000838b610bfb9190614164565b610c0591906141d5565b9050610c1b671d7e0721221a2ef660c01b612e4d565b610c2f676cec70fe82fb1ddb60c01b612e4d565b6000670de0b6b3a76400008383610c469190614164565b610c5091906141d5565b9050610c6667ffbd9af4813c716760c01b612e4d565b610c7a676208b8f23c1ee9d560c01b612e4d565b600081838d610c899190614206565b610c93919061423a565b9050610ca9674bc5cceccd8f3b8f60c01b612e4d565b610cbd67cc0d02e223ac5f2060c01b612e4d565b80955050505050509695505050505050565b60035481565b60085481565b610cef679f9dd50f21c5fd0d60c01b612e4d565b610cf7612f59565b610d0b67fd57a7b99f8b2e3660c01b612e4d565b610d1f67b84e9aa335ce692f60c01b612e4d565b610d3367643e5d7d7447c52e60c01b612e4d565b610d4767adb190546928ee1660c01b612e4d565b6000600a60003373ffffffffffffffffffffffffffffffffffffffff1673ffffffffffffffffffffffffffffffffffffffff16815260200190815260200160002060008381526020019081526020016000209050610daf672922c653a4a340b360c01b612e4d565b610dc367d184a05ff8d412c260c01b612e4d565b6000816000015403610e2957610de3678c87d943f50f0ea060c01b612e4d565b610df7671b9f806e16ed2dfe60c01b612e4d565b6040517f1704edbb00000000000000000000000000000000000000000000000000000000815260040160405180910390fd5b610e3d670a6ce197fd362be560c01b612e4d565b610e5167a2d347acc59c444460c01b612e4d565b610e656753e847d7bd96fb0a60c01b612e4d565b8060010160089054906101000a900460ff1615610ed657610e9067620b6b7ab778e1c160c01b612e4d565b610ea4678fee3335ff2e0b9b60c01b612e4d565b6040517f97198fa600000000000000000000000000000000000000000000000000000000815260040160405180910390fd5b610eea6754aa019b0b7726c060c01b612e4d565b610efe67aa9caf93c30c72b560c01b612e4d565b610f12674f8a33545e20206760c01b612e4d565b8060050160009054906101000a900463ffffffff168160010160009054906101000a900463ffffffff16610f46919061426e565b63ffffffff1642101561107757610f6767590b3f7a3bc5921c60c01b612e4d565b610f7b67a3e6edf88816448660c01b612e4d565b428160010160046101000a81548163ffffffff021916908363ffffffff160217905550610fb2679e4524b9be704de560c01b612e4d565b60018160010160086101000a81548160ff021916908315150217905550610fe367c4f56e8613b194e060c01b612e4d565b610ff76754804a0568a2420260c01b612e4d565b3373ffffffffffffffffffffffffffffffffffffffff167f828764c21e74c28710e19919735825aba966621c95cbd913f8ed65a2d298f48c82600001546040516110419190613c80565b60405180910390a261105d676e16e72f0dbdd4b560c01b612e4d565b61107167dd933d62ff016ab160c01b612e4d565b506110bf565b61108b677498668cc086bac760c01b612e4d565b61109f670d3f42b09f60edb460c01b612e4d565b6110b3678e6e738bbc198ffd60c01b612e4d565b6110bd3383612fb0565b505b6110c76134b9565b50565b6110de677f67747fe9649bfc60c01b612e4d565b6110e6612e50565b6110fa673480222e95cd931460c01b612e4d565b61110e67083253e7eeb4871660c01b612e4d565b61112267e3a78cbb3367ccd360c01b612e4d565b8060048190555050565b61114067381a47963f4196e260c01b612e4d565b611148612f59565b61115c67e0fb84e301b0ae2360c01b612e4d565b61117067b041837b5a59603260c01b612e4d565b611184673e55ad110582c77f60c01b612e4d565b611198677ba4ae178d37156a60c01b612e4d565b6000600a60003373ffffffffffffffffffffffffffffffffffffffff1673ffffffffffffffffffffffffffffffffffffffff16815260200190815260200160002060008381526020019081526020016000209050611200678144859e4d3a8ac560c01b612e4d565b61121467349af0497e5cd30960c01b612e4d565b8060010160089054906101000a900460ff166112845761123e6772e2c3ab76c2791260c01b612e4d565b6112526759dc52ab502d38a660c01b612e4d565b6040517feef9087e00000000000000000000000000000000000000000000000000000000815260040160405180910390fd5b61129867ca6584c7888c164d60c01b612e4d565b6112ac67a1e736bc245d3cdd60c01b612e4d565b6112c067e3cb2e0aefc2586d60c01b612e4d565b6005548160010160049054906101000a900463ffffffff1663ffffffff166112e89190614206565b42101561134957611303676ea687de1f12a41960c01b612e4d565b61131767ddd5898ba213b35c60c01b612e4d565b6040517f52c459f900000000000000000000000000000000000000000000000000000000815260040160405180910390fd5b61135d675e39b76e14f5756d60c01b612e4d565b61137167f44116102ebc396160c01b612e4d565b61138567c9b71c608995ffbe60c01b612e4d565b61138f3383612fb0565b506113986134b9565b50565b60006113b167123994520a536f7460c01b612e4d565b6113c5670e87df8cf5a599db60c01b612e4d565b6113d967741443532edb1eb860c01b612e4d565b60006113ef672f1ce3e6bdd918f560c01b612e4d565b6114036784774c26c185f3ae60c01b612e4d565b6000600b60008573ffffffffffffffffffffffffffffffffffffffff1673ffffffffffffffffffffffffffffffffffffffff16815260200190815260200160002054905061145b67049dbdc851abae9c60c01b612e4d565b61146f6711882ea6e4480d8260c01b612e4d565b6000600a60008673ffffffffffffffffffffffffffffffffffffffff1673ffffffffffffffffffffffffffffffffffffffff16815260200190815260200160002090506114c667f8bd99134d01f18660c01b612e4d565b6114da6711a3ede05fa591c760c01b612e4d565b60005b8281101561154f576114f967c0c387b51ba34f2f60c01b612e4d565b816000828152602001908152602001600020600001548461151a9190614206565b9350611530674dfd9bc22d76ea0060c01b612e4d565b6115446735b59734924ad54560c01b612e4d565b8060010190506114dd565b5061156467be94acd0a59694e060c01b612e4d565b61157867ae17314496791d9160c01b612e4d565b829350505050919050565b61159767fea109b9d854cf2360c01b612e4d565b61159f612e50565b6115b367866d38108901faa260c01b612e4d565b6115c767c2c2d7a6965ac21e60c01b612e4d565b6115db67b192ace7b1c65e0260c01b612e4d565b6115ef67a96db3ee52d0ef3360c01b612e4d565b6115f76134d2565b565b60025481565b600960009054906101000a900460ff1681565b600b6020528060005260406000206000915090505481565b61163e67df9604badd6d347c60c01b612e4d565b611646612e50565b61165a67ab3da2390a7217ce60c01b612e4d565b61166e67a1a78941d50068b960c01b612e4d565b61168267eb639fa9a95dbcc260c01b612e4d565b8060018190555061169d67ae483f284c5c667060c01b612e4d565b62278d00816116ac91906141d5565b60068190555050565b6000806116c0613544565b90508060000160009054906101000a900460ff1691505090565b60006116f0671e353a7a296bc37960c01b612e4d565b61170467addcf20f80d53b7360c01b612e4d565b6117186786ddf020d902a5ff60c01b612e4d565b600e54905090565b61173467ad667a64f4978b7a60c01b612e4d565b600061173e61356c565b905060008160000160089054906101000a900460ff1615905060008260000160009054906101000a900467ffffffffffffffff1690506000808267ffffffffffffffff1614801561178c5750825b9050600060018367ffffffffffffffff161480156117c1575060003073ffffffffffffffffffffffffffffffffffffffff163b145b9050811580156117cf575080155b15611806576040517ff92ee8a900000000000000000000000000000000000000000000000000000000815260040160405180910390fd5b60018560000160006101000a81548167ffffffffffffffff021916908367ffffffffffffffff16021790555083156118565760018560000160086101000a81548160ff0219169083151502179055505b61186a678264858e49dedcf460c01b612e4d565b61187e67c833b0463101a7a260c01b612e4d565b611892679e5a3e616266eca560c01b612e4d565b6118a667e6f3224d43e489c960c01b612e4d565b6118af33613594565b6118c3670cc5e42825a5376e60c01b612e4d565b6118d767813e31c351dda0ac60c01b612e4d565b6118df6135a8565b6118f36733d00a837db4699760c01b612e4d565b611907675366fe606239c09f60c01b612e4d565b61190f6135ba565b6119236714a77fe737b621ea60c01b612e4d565b6119376737e59a0fc2dc23ea60c01b612e4d565b6119408f612dc7565b611954674e0ab26e31a5198d60c01b612e4d565b8d6000806101000a81548173ffffffffffffffffffffffffffffffffffffffff021916908373ffffffffffffffffffffffffffffffffffffffff1602179055506119a86702ccc81d7bff652560c01b612e4d565b8c63ffffffff166001819055506119c967ea6f48f69191886260c01b612e4d565b8b6004819055506119e46799fa93e541e7ce1b60c01b612e4d565b8a6005819055506119ff67576de98d70f008e360c01b612e4d565b62278d008d611a0e91906142a6565b63ffffffff16600681905550611a2e67a9f5ad2d15ce5a4960c01b612e4d565b89600781905550611a49679fd76f677e14524260c01b612e4d565b88600881905550611a64677968ab95f66a224060c01b612e4d565b87600281905550611a7f6798589fa553f91e8360c01b612e4d565b86600381905550611a9a67b5a66796d1e4baef60c01b612e4d565b85600960006101000a81548160ff0219169083151502179055508315611b105760008560000160086101000a81548160ff0219169083151502179055507fc7f505b2f371ae2175ee4913f4499e1f2633a7b5936321eed1cdaeb6115181d26001604051611b079190614326565b60405180910390a15b505050505050505050505050505050565b60065481565b611b2f612e50565b611b3960006135cc565b565b60008054906101000a900473ffffffffffffffffffffffffffffffffffffffff1681565b6000611b75676ca6a3138de4996c60c01b612e4d565b611b8967a4a0f357bf4e27dd60c01b612e4d565b611b9d678adc283527fa413560c01b612e4d565b818510611be957611bb867aba8fe301213e38760c01b612e4d565b611bcc67a107ce563f352c5560c01b612e4d565b611be067760a7ec7ed6f202e60c01b612e4d565b60009050611c78565b611bfd672e378834007e3bb660c01b612e4d565b611c1167ec2c72dd13a14aff60c01b612e4d565b611c25675caed65dcab4a6f560c01b612e4d565b6000828686611c349190614164565b611c3e91906141d5565b84611c49919061423a565b9050611c5f67d32913acb01ada6b60c01b612e4d565b611c7367868a76f7a37ae69960c01b612e4d565b809150505b949350505050565b60045481565b60015481565b6000611ca267341662c6e05446ed60c01b612e4d565b611cb667d5b420702b5d529060c01b612e4d565b611cca679aad6b8bc00ff9d860c01b612e4d565b600d54905090565b611ce6670814b302efd28d7060c01b612e4d565b611cee612e50565b611d02674c4afecd8c0ad56260c01b612e4d565b611d1667cd69b84d664b1d2f60c01b612e4d565b611d2a671217d974abc583f460c01b612e4d565b611d3e67a0d54084d7abea8b60c01b612e4d565b611d466136a3565b565b611d5c67399adde4da7d275260c01b612e4d565b611d64612e50565b611d786767f14619fb8982ac60c01b612e4d565b611d8c67599295e2237fdebb60c01b612e4d565b611da067ad296bbb28065dc560c01b612e4d565b8060058190555050565b611dbe6795144f34bebca2d060c01b612e4d565b611dc6612e50565b611dda67a235f9c96d897a1e60c01b612e4d565b611dee679cf94fa52350166d60c01b612e4d565b611e02677dd699c33259284060c01b612e4d565b6000600c60008373ffffffffffffffffffffffffffffffffffffffff1673ffffffffffffffffffffffffffffffffffffffff16815260200190815260200160002060006101000a81548160ff021916908315150217905550611e6e677eb5319803fef74e60c01b612e4d565b611e826730290148d17f8c0b60c01b612e4d565b8073ffffffffffffffffffffffffffffffffffffffff167f8daaf060c3306c38e068a75c054bf96ecd85a3db1252712c4d93632744c42e0d6000604051611ec99190613d41565b60405180910390a250565b600080611edf613715565b90508060000160009054906101000a900473ffffffffffffffffffffffffffffffffffffffff1691505090565b611f2067c5b454c6f8b9a95760c01b612e4d565b611f28612f59565b611f3c67b113f5404950cb7d60c01b612e4d565b611f50679158215a97d25a1760c01b612e4d565b611f5861373d565b611f6c6789de050e481c25b460c01b612e4d565b611f8067a9d26786d96e310260c01b612e4d565b611f94672e4f3f75e1697bf760c01b612e4d565b611fa867310049df13591a0560c01b612e4d565b611fbc67246959363178924260c01b612e4d565b600960009054906101000a900460ff1680156120225750600c60003373ffffffffffffffffffffffffffffffffffffffff1673ffffffffffffffffffffffffffffffffffffffff16815260200190815260200160002060009054906101000a900460ff16155b156120815761203b675f6d4464f76f6f6360c01b612e4d565b61204f679c895f1e81bd007360c01b612e4d565b6040517f584a793800000000000000000000000000000000000000000000000000000000815260040160405180910390fd5b61209567c7394731e6027b0a60c01b612e4d565b6120a967c72b16a4dc080f6060c01b612e4d565b6120bd67ab0fb858315d6c7460c01b612e4d565b6120d167d168a2b14ec1ddf760c01b612e4d565b6120e5670e044b1e6a3c7bba60c01b612e4d565b6120f9673eb104d3da1761d460c01b612e4d565b6000810361215b5761211567f24ac40d76dad0fe60c01b612e4d565b612129673d3b1bd09037572d60c01b612e4d565b6040517f1f2a200500000000000000000000000000000000000000000000000000000000815260040160405180910390fd5b61216f67ce63ca2bbe379b9f60c01b612e4d565b612183673d9b3a944656b87f60c01b612e4d565b6121976793053cf8716139f660c01b612e4d565b60006002541180156121aa575060025481105b15612209576121c36799ecab82b8a3eb8f60c01b612e4d565b6121d767bda9f1ef13dd06b260c01b612e4d565b6040517f697fb45900000000000000000000000000000000000000000000000000000000815260040160405180910390fd5b61221d67efe20b774a27402060c01b612e4d565b612231677f98f3b26c65429760c01b612e4d565b61224567308534222c05c0fa60c01b612e4d565b600060035411801561226b575060035461225e3361139b565b826122699190614206565b115b156122ca5761228467c2972967ca56b27760c01b612e4d565b612298677ff43a26c61a78ed60c01b612e4d565b6040517ffef49f1900000000000000000000000000000000000000000000000000000000815260040160405180910390fd5b6122de679b72755f6ed789eb60c01b612e4d565b6122f2677bb2a500532480f560c01b612e4d565b61230667ddc49015a0829a9860c01b612e4d565b6000600b60003373ffffffffffffffffffffffffffffffffffffffff1673ffffffffffffffffffffffffffffffffffffffff16815260200190815260200160002054905061235e6765bdada9c7fae79360c01b612e4d565b6040518061010001604052808381526020014263ffffffff168152602001600063ffffffff16815260200160001515815260200160045481526020016008548152602001600754815260200160015463ffffffff16815250600a60003373ffffffffffffffffffffffffffffffffffffffff1673ffffffffffffffffffffffffffffffffffffffff16815260200190815260200160002060008381526020019081526020016000206000820151816000015560208201518160010160006101000a81548163ffffffff021916908363ffffffff16021790555060408201518160010160046101000a81548163ffffffff021916908363ffffffff16021790555060608201518160010160086101000a81548160ff0219169083151502179055506080820151816002015560a0820151816003015560c0820151816004015560e08201518160050160006101000a81548163ffffffff021916908363ffffffff1602179055509050506124da67e8224f5cf94b972360c01b612e4d565b600b60003373ffffffffffffffffffffffffffffffffffffffff1673ffffffffffffffffffffffffffffffffffffffff168152602001908152602001600020600081548092919061252a90614341565b9190505550612543675c04e90f7a0a31f960c01b612e4d565b81600d60008282546125559190614206565b92505081905550612570671529646ecf448ee660c01b612e4d565b670de0b6b3a7640000612587600154600454610779565b836125929190614164565b61259c91906141d5565b600f60008282546125ad9190614206565b925050819055506125c8676a4f9d234fd0c0b160c01b612e4d565b6125dc6768b9e7ccc732b44560c01b612e4d565b61262933308460008054906101000a900473ffffffffffffffffffffffffffffffffffffffff1673ffffffffffffffffffffffffffffffffffffffff16612ed7909392919063ffffffff16565b61263d67047fdbb551b51aa960c01b612e4d565b612651675d3da345d08ec2bc60c01b612e4d565b3373ffffffffffffffffffffffffffffffffffffffff167f9e71bc8eea02a63969f509818f2dafb9254532904319f9dbda79b67bd34a5f3d836040516126979190613c80565b60405180910390a2506126a86134b9565b50565b6126bf6764224e5135551ac460c01b612e4d565b6126c7612e50565b6126db678b1ab29cd215ae4260c01b612e4d565b6126ef67be46f85f1661d4ab60c01b612e4d565b6127036747030bcac017551b60c01b612e4d565b8060088190555050565b600a602052816000526040600020602052806000526040600020600091509150508060000154908060010160009054906101000a900463ffffffff16908060010160049054906101000a900463ffffffff16908060010160089054906101000a900460ff16908060020154908060030154908060040154908060050160009054906101000a900463ffffffff16905088565b6127b3675ebf4be0a0ca629660c01b612e4d565b6127bb612e50565b6127cf679f561673969f8ea660c01b612e4d565b6127e36739985f0e2a42c79760c01b612e4d565b6127f7676d759ae3d9e2184060c01b612e4d565b8060028190555050565b61281567a3d29664afdbb61b60c01b612e4d565b61281d612e50565b61283167d2c273555041fe2560c01b612e4d565b61284567136a667735fe323560c01b612e4d565b6128596708003d19608d711460c01b612e4d565b61286d676deacbff592a8a8960c01b612e4d565b600081036128cf5761288967808b078107652cb460c01b612e4d565b61289d6753dfff9434a9f75d60c01b612e4d565b6040517f1f2a200500000000000000000000000000000000000000000000000000000000815260040160405180910390fd5b6128e3674209ec8ff5e1744a60c01b612e4d565b6128f7672891c9b5a9270c4160c01b612e4d565b61290b67852960116007b77f60c01b612e4d565b80600f54600e5461291c919061423a565b101561297c5761293667a78893d48aa2bae160c01b612e4d565b61294a67ddb75427835015a560c01b612e4d565b6040517f3270436b00000000000000000000000000000000000000000000000000000000815260040160405180910390fd5b61299067fb8a50ecf42ba1c260c01b612e4d565b6129a467b4063789c1b7d9cb60c01b612e4d565b80600e60008282546129b6919061423a565b925050819055506129d1674de7cc99eea178db60c01b612e4d565b6129e567815321fe4bc285b860c01b612e4d565b612a30338260008054906101000a900473ffffffffffffffffffffffffffffffffffffffff1673ffffffffffffffffffffffffffffffffffffffff1661377e9092919063ffffffff16565b612a44671153b7d5fe9edd4c60c01b612e4d565b612a5867bbba4d2bc7d3c86260c01b612e4d565b3373ffffffffffffffffffffffffffffffffffffffff167f884edad9ce6fa2440d8a54cc123490eb96d2768479d49ff9c7366125a942436482604051612a9e9190613c80565b60405180910390a250565b612abd678a60bbb918f1b25460c01b612e4d565b612ac5612e50565b612ad967dd56d355dce5de3760c01b612e4d565b612aed6789774e0bda482bad60c01b612e4d565b612b016716f7acf73ae701bc60c01b612e4d565b6001600960006101000a81548160ff021916908315150217905550565b612b32676bf69b1412debb9660c01b612e4d565b612b3a612e50565b612b4e67d45d768b7ed4bdf160c01b612e4d565b612b626791f2c9a14ec7c40d60c01b612e4d565b612b76672d5ef73c2979ad3d60c01b612e4d565b6000600960006101000a81548160ff021916908315150217905550565b612ba76757e715cb116aeee060c01b612e4d565b612baf612e50565b612bc367155b71f2e3ac1ce260c01b612e4d565b612bd767df70db9e8e7c5ab260c01b612e4d565b612beb671fe571415ff3824760c01b612e4d565b6001600c60008373ffffffffffffffffffffffffffffffffffffffff1673ffffffffffffffffffffffffffffffffffffffff16815260200190815260200160002060006101000a81548160ff021916908315150217905550612c5767783f768e9bbfc23760c01b612e4d565b612c6b674dbdccfa13a72db360c01b612e4d565b8073ffffffffffffffffffffffffffffffffffffffff167f8daaf060c3306c38e068a75c054bf96ecd85a3db1252712c4d93632744c42e0d6001604051612cb29190613d41565b60405180910390a250565b612cd167cdb16107bf334ffe60c01b612e4d565b612cd9612e50565b612ced675ec5364c188fb75560c01b612e4d565b612d01674e02617731e123e860c01b612e4d565b612d1567a9c53030b7a38e1460c01b612e4d565b8060078190555050565b612d3367d2af7686b151c60360c01b612e4d565b612d3b612e50565b612d4f67130e20711c6dd8d160c01b612e4d565b612d63677041ce65391f63ec60c01b612e4d565b612d776785f36fb776cf672560c01b612e4d565b8060038190555050565b6000612d97673d0a2d5def5284d260c01b612e4d565b612dab67954e657be076df6960c01b612e4d565b612dbf67a722dcee375db32b60c01b612e4d565b600f54905090565b612dcf612e50565b600073ffffffffffffffffffffffffffffffffffffffff168173ffffffffffffffffffffffffffffffffffffffff1603612e415760006040517f1e4fbdf7000000000000000000000000000000000000000000000000000000008152600401612e38919061404d565b60405180910390fd5b612e4a816135cc565b50565b50565b612e586137fd565b73ffffffffffffffffffffffffffffffffffffffff16612e76611ed4565b73ffffffffffffffffffffffffffffffffffffffff1614612ed557612e996137fd565b6040517f118cdaa7000000000000000000000000000000000000000000000000000000008152600401612ecc919061404d565b60405180910390fd5b565b612f53848573ffffffffffffffffffffffffffffffffffffffff166323b872dd868686604051602401612f0c93929190614389565b604051602081830303815290604052915060e01b6020820180517bffffffffffffffffffffffffffffffffffffffffffffffffffffffff8381831617835250505050613805565b50505050565b6000612f6361389c565b90506002816000015403612fa3576040517f3ee5aeb500000000000000000000000000000000000000000000000000000000815260040160405180910390fd5b6002816000018190555050565b612fc4670bdfde5e8d74962560c01b612e4d565b612fd8676749c6d6ba00546460c01b612e4d565b612fec67c182d4f1e36dcae160c01b612e4d565b6000600a60008473ffffffffffffffffffffffffffffffffffffffff1673ffffffffffffffffffffffffffffffffffffffff1681526020019081526020016000206000838152602001908152602001600020905061305467fe2bf72b56033c8960c01b612e4d565b613068677f21c96ae2e5669360c01b612e4d565b60008160000154905061308567c311a3e913c98c1260c01b612e4d565b61309967f70459dafb42da9760c01b612e4d565b60006130f4828460010160009054906101000a900463ffffffff1663ffffffff16426130c5919061423a565b8560020154866003015487600401548860050160009054906101000a900463ffffffff1663ffffffff16610b38565b905061310a67e27377fcfe60da4c60c01b612e4d565b61311e67ebb1a41560c4349d60c01b612e4d565b6000828261312c919061423a565b9050613142674e5827196005202a60c01b612e4d565b82600d6000828254613154919061423a565b9250508190555061316f6713e94f0456097ca960c01b612e4d565b80600e6000828254613181919061423a565b9250508190555061319c67bab595a3bb5fb83360c01b612e4d565b80600f60008282546131ae919061423a565b925050819055506131c96792f660ae3a40759060c01b612e4d565b600a60008773ffffffffffffffffffffffffffffffffffffffff1673ffffffffffffffffffffffffffffffffffffffff16815260200190815260200160002060008681526020019081526020016000206000808201600090556001820160006101000a81549063ffffffff02191690556001820160046101000a81549063ffffffff02191690556001820160086101000a81549060ff02191690556002820160009055600382016000905560048201600090556005820160006101000a81549063ffffffff021916905550506132a967bb1c9082132b1e5160c01b612e4d565b6132bd672e0f8b34a03771cc60c01b612e4d565b613308868360008054906101000a900473ffffffffffffffffffffffffffffffffffffffff1673ffffffffffffffffffffffffffffffffffffffff1661377e9092919063ffffffff16565b61331c6759e2ae14da7a54c460c01b612e4d565b613330675e8eafbaf92e829d60c01b612e4d565b8573ffffffffffffffffffffffffffffffffffffffff167f7084f5476618d8e60b11ef0d7d3f06914655adb8793e28ff7f018d4c76d505d5836040516133769190613c80565b60405180910390a2613392677605b4f3c000822560c01b612e4d565b6133a66785edcdf512e23d2860c01b612e4d565b8573ffffffffffffffffffffffffffffffffffffffff167fe2403640ba68fed3a2f88b7557551d1993f84b99bb10ff833f0cf8db0c5e0486826040516133ec9190613c80565b60405180910390a26134086723a6192e293fe0aa60c01b612e4d565b61341c6726d46e14dfe6ad7460c01b612e4d565b60006134278761139b565b0361349c57613440676f1eab6ec8db93ba60c01b612e4d565b61345467d03b71acc375f5d660c01b612e4d565b600b60008773ffffffffffffffffffffffffffffffffffffffff1673ffffffffffffffffffffffffffffffffffffffff168152602001908152602001600020600090556134b1565b6134b0670118e5adc839000660c01b612e4d565b5b505050505050565b60006134c361389c565b90506001816000018190555050565b6134da6138c4565b60006134e4613544565b905060008160000160006101000a81548160ff0219169083151502179055507f5db9ee0a495bf2e6ff9c91a7834c1ba4fdd244a5e8aa4e537bd38aeae4b073aa61352c6137fd565b604051613539919061404d565b60405180910390a150565b60007fcd5ed15c6e187e77e9aee88184c21f4f2182ab5827cb3b7e07fbedcd63f03300905090565b60007ff0c57e16840df040f15088dc2f81fe391c3923bec73e23a9662efc9c229c6a00905090565b61359c613904565b6135a581613944565b50565b6135b0613904565b6135b86139ca565b565b6135c2613904565b6135ca6139fe565b565b60006135d6613715565b905060008160000160009054906101000a900473ffffffffffffffffffffffffffffffffffffffff169050828260000160006101000a81548173ffffffffffffffffffffffffffffffffffffffff021916908373ffffffffffffffffffffffffffffffffffffffff1602179055508273ffffffffffffffffffffffffffffffffffffffff168173ffffffffffffffffffffffffffffffffffffffff167f8be0079c531659141344cd1fd0a4f28419497f9722a3daafe3b4186f6b6457e060405160405180910390a3505050565b6136ab61373d565b60006136b5613544565b905060018160000160006101000a81548160ff0219169083151502179055507f62e78cea01bee320cd4e420270b5ea74000d11b0c9f74754ebdbfc544b05a2586136fd6137fd565b60405161370a919061404d565b60405180910390a150565b60007f9016d09d72d40fdae2fd8ceac6b6234c7706214fd39c1cd1e609a0528c199300905090565b6137456116b5565b1561377c576040517fd93c066500000000000000000000000000000000000000000000000000000000815260040160405180910390fd5b565b6137f8838473ffffffffffffffffffffffffffffffffffffffff1663a9059cbb85856040516024016137b19291906143c0565b604051602081830303815290604052915060e01b6020820180517bffffffffffffffffffffffffffffffffffffffffffffffffffffffff8381831617835250505050613805565b505050565b600033905090565b6000613830828473ffffffffffffffffffffffffffffffffffffffff16613a1f90919063ffffffff16565b9050600081511415801561385557508080602001905181019061385391906143fe565b155b1561389757826040517f5274afe700000000000000000000000000000000000000000000000000000000815260040161388e919061404d565b60405180910390fd5b505050565b60007f9b779b17422d0df92223018b32b4d1fa46e071723d6817e2486d003becc55f00905090565b6138cc6116b5565b613902576040517f8dfc202b00000000000000000000000000000000000000000000000000000000815260040160405180910390fd5b565b61390c613a35565b613942576040517fd7e6bcf800000000000000000000000000000000000000000000000000000000815260040160405180910390fd5b565b61394c613904565b600073ffffffffffffffffffffffffffffffffffffffff168173ffffffffffffffffffffffffffffffffffffffff16036139be5760006040517f1e4fbdf70000000000000000000000000000000000000000000000000000000081526004016139b5919061404d565b60405180910390fd5b6139c7816135cc565b50565b6139d2613904565b60006139dc613544565b905060008160000160006101000a81548160ff02191690831515021790555050565b613a06613904565b6000613a1061389c565b90506001816000018190555050565b6060613a2d83836000613a55565b905092915050565b6000613a3f61356c565b60000160089054906101000a900460ff16905090565b606081471015613a9c57306040517fcd786059000000000000000000000000000000000000000000000000000000008152600401613a93919061404d565b60405180910390fd5b6000808573ffffffffffffffffffffffffffffffffffffffff168486604051613ac5919061449c565b60006040518083038185875af1925050503d8060008114613b02576040519150601f19603f3d011682016040523d82523d6000602084013e613b07565b606091505b5091509150613b17868383613b22565b925050509392505050565b606082613b3757613b3282613bb1565b613ba9565b60008251148015613b5f575060008473ffffffffffffffffffffffffffffffffffffffff163b145b15613ba157836040517f9996b315000000000000000000000000000000000000000000000000000000008152600401613b98919061404d565b60405180910390fd5b819050613baa565b5b9392505050565b600081511115613bc45780518082602001fd5b6040517f1425ea4200000000000000000000000000000000000000000000000000000000815260040160405180910390fd5b600080fd5b6000819050919050565b613c0e81613bfb565b8114613c1957600080fd5b50565b600081359050613c2b81613c05565b92915050565b60008060408385031215613c4857613c47613bf6565b5b6000613c5685828601613c1c565b9250506020613c6785828601613c1c565b9150509250929050565b613c7a81613bfb565b82525050565b6000602082019050613c956000830184613c71565b92915050565b600073ffffffffffffffffffffffffffffffffffffffff82169050919050565b6000613cc682613c9b565b9050919050565b613cd681613cbb565b8114613ce157600080fd5b50565b600081359050613cf381613ccd565b92915050565b600060208284031215613d0f57613d0e613bf6565b5b6000613d1d84828501613ce4565b91505092915050565b60008115159050919050565b613d3b81613d26565b82525050565b6000602082019050613d566000830184613d32565b92915050565b600060208284031215613d7257613d71613bf6565b5b6000613d8084828501613c1c565b91505092915050565b60008060008060008060c08789031215613da657613da5613bf6565b5b6000613db489828a01613c1c565b9650506020613dc589828a01613c1c565b9550506040613dd689828a01613c1c565b9450506060613de789828a01613c1c565b9350506080613df889828a01613c1c565b92505060a0613e0989828a01613c1c565b9150509295509295509295565b600063ffffffff82169050919050565b613e2f81613e16565b8114613e3a57600080fd5b50565b600081359050613e4c81613e26565b92915050565b613e5b81613d26565b8114613e6657600080fd5b50565b600081359050613e7881613e52565b92915050565b6000806000806000806000806000806101408b8d031215613ea257613ea1613bf6565b5b6000613eb08d828e01613ce4565b9a50506020613ec18d828e01613ce4565b9950506040613ed28d828e01613e3d565b9850506060613ee38d828e01613c1c565b9750506080613ef48d828e01613c1c565b96505060a0613f058d828e01613c1c565b95505060c0613f168d828e01613c1c565b94505060e0613f278d828e01613c1c565b935050610100613f398d828e01613c1c565b925050610120613f4b8d828e01613e69565b9150509295989b9194979a5092959850565b6000819050919050565b6000613f82613f7d613f7884613c9b565b613f5d565b613c9b565b9050919050565b6000613f9482613f67565b9050919050565b6000613fa682613f89565b9050919050565b613fb681613f9b565b82525050565b6000602082019050613fd16000830184613fad565b92915050565b60008060008060808587031215613ff157613ff0613bf6565b5b6000613fff87828801613c1c565b945050602061401087828801613c1c565b935050604061402187828801613c1c565b925050606061403287828801613c1c565b91505092959194509250565b61404781613cbb565b82525050565b6000602082019050614062600083018461403e565b92915050565b6000806040838503121561407f5761407e613bf6565b5b600061408d85828601613ce4565b925050602061409e85828601613c1c565b9150509250929050565b6140b181613e16565b82525050565b6000610100820190506140cd600083018b613c71565b6140da602083018a6140a8565b6140e760408301896140a8565b6140f46060830188613d32565b6141016080830187613c71565b61410e60a0830186613c71565b61411b60c0830185613c71565b61412860e08301846140a8565b9998505050505050505050565b7f4e487b7100000000000000000000000000000000000000000000000000000000600052601160045260246000fd5b600061416f82613bfb565b915061417a83613bfb565b925082820261418881613bfb565b9150828204841483151761419f5761419e614135565b5b5092915050565b7f4e487b7100000000000000000000000000000000000000000000000000000000600052601260045260246000fd5b60006141e082613bfb565b91506141eb83613bfb565b9250826141fb576141fa6141a6565b5b828204905092915050565b600061421182613bfb565b915061421c83613bfb565b925082820190508082111561423457614233614135565b5b92915050565b600061424582613bfb565b915061425083613bfb565b925082820390508181111561426857614267614135565b5b92915050565b600061427982613e16565b915061428483613e16565b9250828201905063ffffffff8111156142a05761429f614135565b5b92915050565b60006142b182613e16565b91506142bc83613e16565b9250826142cc576142cb6141a6565b5b828204905092915050565b6000819050919050565b600067ffffffffffffffff82169050919050565b600061431061430b614306846142d7565b613f5d565b6142e1565b9050919050565b614320816142f5565b82525050565b600060208201905061433b6000830184614317565b92915050565b600061434c82613bfb565b91507fffffffffffffffffffffffffffffffffffffffffffffffffffffffffffffffff820361437e5761437d614135565b5b600182019050919050565b600060608201905061439e600083018661403e565b6143ab602083018561403e565b6143b86040830184613c71565b949350505050565b60006040820190506143d5600083018561403e565b6143e26020830184613c71565b9392505050565b6000815190506143f881613e52565b92915050565b60006020828403121561441457614413613bf6565b5b6000614422848285016143e9565b91505092915050565b600081519050919050565b600081905092915050565b60005b8381101561445f578082015181840152602081019050614444565b60008484015250505050565b60006144768261442b565b6144808185614436565b9350614490818560208601614441565b80840191505092915050565b60006144a8828461446b565b91508190509291505056fea2646970667358221220a5a4b2357aa35c3e3d9233a4b0c77edbfc68cac05e31b34ed14ae3833a0677c464736f6c63430008140033","opcodes":"PUSH1 0x80 PUSH1 0x40 MSTORE CALLVALUE DUP1 ISZERO PUSH2 0x10 JUMPI PUSH1 0x0 DUP1 REVERT JUMPDEST POP PUSH2 0x44E9 DUP1 PUSH2 0x20 PUSH1 0x0 CODECOPY PUSH1 0x0 RETURN INVALID PUSH1 0x80 PUSH1 0x40 MSTORE CALLVALUE DUP1 ISZERO PUSH2 0x10 JUMPI PUSH1 0x0 DUP1 REVERT JUMPDEST POP PUSH1 0x4 CALLDATASIZE LT PUSH2 0x269 JUMPI PUSH1 0x0 CALLDATALOAD PUSH1 0xE0 SHR DUP1 PUSH4 0x715018A6 GT PUSH2 0x151 JUMPI DUP1 PUSH4 0xB3C55721 GT PUSH2 0xC3 JUMPI DUP1 PUSH4 0xD6B0F484 GT PUSH2 0x87 JUMPI DUP1 PUSH4 0xD6B0F484 EQ PUSH2 0x6E1 JUMPI DUP1 PUSH4 0xE43252D7 EQ PUSH2 0x6EB JUMPI DUP1 PUSH4 0xE6D24866 EQ PUSH2 0x707 JUMPI DUP1 PUSH4 0xE81BA080 EQ PUSH2 0x723 JUMPI DUP1 PUSH4 0xEDED3FDA EQ PUSH2 0x73F JUMPI DUP1 PUSH4 0xF2FDE38B EQ PUSH2 0x75D JUMPI PUSH2 0x269 JUMP JUMPDEST DUP1 PUSH4 0xB3C55721 EQ PUSH2 0x64C JUMPI DUP1 PUSH4 0xB5D5B5FA EQ PUSH2 0x668 JUMPI DUP1 PUSH4 0xBCAABF6C EQ PUSH2 0x69F JUMPI DUP1 PUSH4 0xCB43B2DD EQ PUSH2 0x6BB JUMPI DUP1 PUSH4 0xCDFB2B4E EQ PUSH2 0x6D7 JUMPI PUSH2 0x269 JUMP JUMPDEST DUP1 PUSH4 0x817B1CD2 GT PUSH2 0x115 JUMPI DUP1 PUSH4 0x817B1CD2 EQ PUSH2 0x5B2 JUMPI DUP1 PUSH4 0x8456CB59 EQ PUSH2 0x5D0 JUMPI DUP1 PUSH4 0x861F6BFD EQ PUSH2 0x5DA JUMPI DUP1 PUSH4 0x8AB1D681 EQ PUSH2 0x5F6 JUMPI DUP1 PUSH4 0x8DA5CB5B EQ PUSH2 0x612 JUMPI DUP1 PUSH4 0xA694FC3A EQ PUSH2 0x630 JUMPI PUSH2 0x269 JUMP JUMPDEST DUP1 PUSH4 0x715018A6 EQ PUSH2 0x51E JUMPI DUP1 PUSH4 0x72F702F3 EQ PUSH2 0x528 JUMPI DUP1 PUSH4 0x75713079 EQ PUSH2 0x546 JUMPI DUP1 PUSH4 0x7A65CD0B EQ PUSH2 0x576 JUMPI DUP1 PUSH4 0x8005A7DE EQ PUSH2 0x594 JUMPI PUSH2 0x269 JUMP JUMPDEST DUP1 PUSH4 0x379607F5 GT PUSH2 0x1EA JUMPI DUP1 PUSH4 0x5678B024 GT PUSH2 0x1AE JUMPI DUP1 PUSH4 0x5678B024 EQ PUSH2 0x45C JUMPI DUP1 PUSH4 0x5B1D7086 EQ PUSH2 0x48C JUMPI DUP1 PUSH4 0x5C975ABB EQ PUSH2 0x4A8 JUMPI DUP1 PUSH4 0x66666AA9 EQ PUSH2 0x4C6 JUMPI DUP1 PUSH4 0x6C03D853 EQ PUSH2 0x4E4 JUMPI DUP1 PUSH4 0x6F629512 EQ PUSH2 0x500 JUMPI PUSH2 0x269 JUMP JUMPDEST DUP1 PUSH4 0x379607F5 EQ PUSH2 0x3CA JUMPI DUP1 PUSH4 0x3B42FFCF EQ PUSH2 0x3E6 JUMPI DUP1 PUSH4 0x3F4BA83A EQ PUSH2 0x416 JUMPI DUP1 PUSH4 0x3FA615B0 EQ PUSH2 0x420 JUMPI DUP1 PUSH4 0x51FB012D EQ PUSH2 0x43E JUMPI PUSH2 0x269 JUMP JUMPDEST DUP1 PUSH4 0x22E76837 GT PUSH2 0x231 JUMPI DUP1 PUSH4 0x22E76837 EQ PUSH2 0x326 JUMPI DUP1 PUSH4 0x23548B8B EQ PUSH2 0x356 JUMPI DUP1 PUSH4 0x29161479 EQ PUSH2 0x374 JUMPI DUP1 PUSH4 0x2E17DE78 EQ PUSH2 0x392 JUMPI DUP1 PUSH4 0x36C1105A EQ PUSH2 0x3AE JUMPI PUSH2 0x269 JUMP JUMPDEST DUP1 PUSH4 0x43CBE5B EQ PUSH2 0x26E JUMPI DUP1 PUSH4 0x4646A49 EQ PUSH2 0x29E JUMPI DUP1 PUSH4 0x6C933D8 EQ PUSH2 0x2BC JUMPI DUP1 PUSH4 0xB7EAD4A EQ PUSH2 0x2EC JUMPI DUP1 PUSH4 0x16C621E0 EQ PUSH2 0x30A JUMPI JUMPDEST PUSH1 0x0 DUP1 REVERT JUMPDEST PUSH2 0x288 PUSH1 0x4 DUP1 CALLDATASIZE SUB DUP2 ADD SWAP1 PUSH2 0x283 SWAP2 SWAP1 PUSH2 0x3C31 JUMP JUMPDEST PUSH2 0x779 JUMP JUMPDEST PUSH1 0x40 MLOAD PUSH2 0x295 SWAP2 SWAP1 PUSH2 0x3C80 JUMP JUMPDEST PUSH1 0x40 MLOAD DUP1 SWAP2 SUB SWAP1 RETURN JUMPDEST PUSH2 0x2A6 PUSH2 0x90F JUMP JUMPDEST PUSH1 0x40 MLOAD PUSH2 0x2B3 SWAP2 SWAP1 PUSH2 0x3C80 JUMP JUMPDEST PUSH1 0x40 MLOAD DUP1 SWAP2 SUB SWAP1 RETURN JUMPDEST PUSH2 0x2D6 PUSH1 0x4 DUP1 CALLDATASIZE SUB DUP2 ADD SWAP1 PUSH2 0x2D1 SWAP2 SWAP1 PUSH2 0x3CF9 JUMP JUMPDEST PUSH2 0x915 JUMP JUMPDEST PUSH1 0x40 MLOAD PUSH2 0x2E3 SWAP2 SWAP1 PUSH2 0x3D41 JUMP JUMPDEST PUSH1 0x40 MLOAD DUP1 SWAP2 SUB SWAP1 RETURN JUMPDEST PUSH2 0x2F4 PUSH2 0x935 JUMP JUMPDEST PUSH1 0x40 MLOAD PUSH2 0x301 SWAP2 SWAP1 PUSH2 0x3C80 JUMP JUMPDEST PUSH1 0x40 MLOAD DUP1 SWAP2 SUB SWAP1 RETURN JUMPDEST PUSH2 0x324 PUSH1 0x4 DUP1 CALLDATASIZE SUB DUP2 ADD SWAP1 PUSH2 0x31F SWAP2 SWAP1 PUSH2 0x3D5C JUMP JUMPDEST PUSH2 0x93B JUMP JUMPDEST STOP JUMPDEST PUSH2 0x340 PUSH1 0x4 DUP1 CALLDATASIZE SUB DUP2 ADD SWAP1 PUSH2 0x33B SWAP2 SWAP1 PUSH2 0x3D89 JUMP JUMPDEST PUSH2 0xB38 JUMP JUMPDEST PUSH1 0x40 MLOAD PUSH2 0x34D SWAP2 SWAP1 PUSH2 0x3C80 JUMP JUMPDEST PUSH1 0x40 MLOAD DUP1 SWAP2 SUB SWAP1 RETURN JUMPDEST PUSH2 0x35E PUSH2 0xCCF JUMP JUMPDEST PUSH1 0x40 MLOAD PUSH2 0x36B SWAP2 SWAP1 PUSH2 0x3C80 JUMP JUMPDEST PUSH1 0x40 MLOAD DUP1 SWAP2 SUB SWAP1 RETURN JUMPDEST PUSH2 0x37C PUSH2 0xCD5 JUMP JUMPDEST PUSH1 0x40 MLOAD PUSH2 0x389 SWAP2 SWAP1 PUSH2 0x3C80 JUMP JUMPDEST PUSH1 0x40 MLOAD DUP1 SWAP2 SUB SWAP1 RETURN JUMPDEST PUSH2 0x3AC PUSH1 0x4 DUP1 CALLDATASIZE SUB DUP2 ADD SWAP1 PUSH2 0x3A7 SWAP2 SWAP1 PUSH2 0x3D5C JUMP JUMPDEST PUSH2 0xCDB JUMP JUMPDEST STOP JUMPDEST PUSH2 0x3C8 PUSH1 0x4 DUP1 CALLDATASIZE SUB DUP2 ADD SWAP1 PUSH2 0x3C3 SWAP2 SWAP1 PUSH2 0x3D5C JUMP JUMPDEST PUSH2 0x10CA JUMP JUMPDEST STOP JUMPDEST PUSH2 0x3E4 PUSH1 0x4 DUP1 CALLDATASIZE SUB DUP2 ADD SWAP1 PUSH2 0x3DF SWAP2 SWAP1 PUSH2 0x3D5C JUMP JUMPDEST PUSH2 0x112C JUMP JUMPDEST STOP JUMPDEST PUSH2 0x400 PUSH1 0x4 DUP1 CALLDATASIZE SUB DUP2 ADD SWAP1 PUSH2 0x3FB SWAP2 SWAP1 PUSH2 0x3CF9 JUMP JUMPDEST PUSH2 0x139B JUMP JUMPDEST PUSH1 0x40 MLOAD PUSH2 0x40D SWAP2 SWAP1 PUSH2 0x3C80 JUMP JUMPDEST PUSH1 0x40 MLOAD DUP1 SWAP2 SUB SWAP1 RETURN JUMPDEST PUSH2 0x41E PUSH2 0x1583 JUMP JUMPDEST STOP JUMPDEST PUSH2 0x428 PUSH2 0x15F9 JUMP JUMPDEST PUSH1 0x40 MLOAD PUSH2 0x435 SWAP2 SWAP1 PUSH2 0x3C80 JUMP JUMPDEST PUSH1 0x40 MLOAD DUP1 SWAP2 SUB SWAP1 RETURN JUMPDEST PUSH2 0x446 PUSH2 0x15FF JUMP JUMPDEST PUSH1 0x40 MLOAD PUSH2 0x453 SWAP2 SWAP1 PUSH2 0x3D41 JUMP JUMPDEST PUSH1 0x40 MLOAD DUP1 SWAP2 SUB SWAP1 RETURN JUMPDEST PUSH2 0x476 PUSH1 0x4 DUP1 CALLDATASIZE SUB DUP2 ADD SWAP1 PUSH2 0x471 SWAP2 SWAP1 PUSH2 0x3CF9 JUMP JUMPDEST PUSH2 0x1612 JUMP JUMPDEST PUSH1 0x40 MLOAD PUSH2 0x483 SWAP2 SWAP1 PUSH2 0x3C80 JUMP JUMPDEST PUSH1 0x40 MLOAD DUP1 SWAP2 SUB SWAP1 RETURN JUMPDEST PUSH2 0x4A6 PUSH1 0x4 DUP1 CALLDATASIZE SUB DUP2 ADD SWAP1 PUSH2 0x4A1 SWAP2 SWAP1 PUSH2 0x3D5C JUMP JUMPDEST PUSH2 0x162A JUMP JUMPDEST STOP JUMPDEST PUSH2 0x4B0 PUSH2 0x16B5 JUMP JUMPDEST PUSH1 0x40 MLOAD PUSH2 0x4BD SWAP2 SWAP1 PUSH2 0x3D41 JUMP JUMPDEST PUSH1 0x40 MLOAD DUP1 SWAP2 SUB SWAP1 RETURN JUMPDEST PUSH2 0x4CE PUSH2 0x16DA JUMP JUMPDEST PUSH1 0x40 MLOAD PUSH2 0x4DB SWAP2 SWAP1 PUSH2 0x3C80 JUMP JUMPDEST PUSH1 0x40 MLOAD DUP1 SWAP2 SUB SWAP1 RETURN JUMPDEST PUSH2 0x4FE PUSH1 0x4 DUP1 CALLDATASIZE SUB DUP2 ADD SWAP1 PUSH2 0x4F9 SWAP2 SWAP1 PUSH2 0x3E7E JUMP JUMPDEST PUSH2 0x1720 JUMP JUMPDEST STOP JUMPDEST PUSH2 0x508 PUSH2 0x1B21 JUMP JUMPDEST PUSH1 0x40 MLOAD PUSH2 0x515 SWAP2 SWAP1 PUSH2 0x3C80 JUMP JUMPDEST PUSH1 0x40 MLOAD DUP1 SWAP2 SUB SWAP1 RETURN JUMPDEST PUSH2 0x526 PUSH2 0x1B27 JUMP JUMPDEST STOP JUMPDEST PUSH2 0x530 PUSH2 0x1B3B JUMP JUMPDEST PUSH1 0x40 MLOAD PUSH2 0x53D SWAP2 SWAP1 PUSH2 0x3FBC JUMP JUMPDEST PUSH1 0x40 MLOAD DUP1 SWAP2 SUB SWAP1 RETURN JUMPDEST PUSH2 0x560 PUSH1 0x4 DUP1 CALLDATASIZE SUB DUP2 ADD SWAP1 PUSH2 0x55B SWAP2 SWAP1 PUSH2 0x3FD7 JUMP JUMPDEST PUSH2 0x1B5F JUMP JUMPDEST PUSH1 0x40 MLOAD PUSH2 0x56D SWAP2 SWAP1 PUSH2 0x3C80 JUMP JUMPDEST PUSH1 0x40 MLOAD DUP1 SWAP2 SUB SWAP1 RETURN JUMPDEST PUSH2 0x57E PUSH2 0x1C80 JUMP JUMPDEST PUSH1 0x40 MLOAD PUSH2 0x58B SWAP2 SWAP1 PUSH2 0x3C80 JUMP JUMPDEST PUSH1 0x40 MLOAD DUP1 SWAP2 SUB SWAP1 RETURN JUMPDEST PUSH2 0x59C PUSH2 0x1C86 JUMP JUMPDEST PUSH1 0x40 MLOAD PUSH2 0x5A9 SWAP2 SWAP1 PUSH2 0x3C80 JUMP JUMPDEST PUSH1 0x40 MLOAD DUP1 SWAP2 SUB SWAP1 RETURN JUMPDEST PUSH2 0x5BA PUSH2 0x1C8C JUMP JUMPDEST PUSH1 0x40 MLOAD PUSH2 0x5C7 SWAP2 SWAP1 PUSH2 0x3C80 JUMP JUMPDEST PUSH1 0x40 MLOAD DUP1 SWAP2 SUB SWAP1 RETURN JUMPDEST PUSH2 0x5D8 PUSH2 0x1CD2 JUMP JUMPDEST STOP JUMPDEST PUSH2 0x5F4 PUSH1 0x4 DUP1 CALLDATASIZE SUB DUP2 ADD SWAP1 PUSH2 0x5EF SWAP2 SWAP1 PUSH2 0x3D5C JUMP JUMPDEST PUSH2 0x1D48 JUMP JUMPDEST STOP JUMPDEST PUSH2 0x610 PUSH1 0x4 DUP1 CALLDATASIZE SUB DUP2 ADD SWAP1 PUSH2 0x60B SWAP2 SWAP1 PUSH2 0x3CF9 JUMP JUMPDEST PUSH2 0x1DAA JUMP JUMPDEST STOP JUMPDEST PUSH2 0x61A PUSH2 0x1ED4 JUMP JUMPDEST PUSH1 0x40 MLOAD PUSH2 0x627 SWAP2 SWAP1 PUSH2 0x404D JUMP JUMPDEST PUSH1 0x40 MLOAD DUP1 SWAP2 SUB SWAP1 RETURN JUMPDEST PUSH2 0x64A PUSH1 0x4 DUP1 CALLDATASIZE SUB DUP2 ADD SWAP1 PUSH2 0x645 SWAP2 SWAP1 PUSH2 0x3D5C JUMP JUMPDEST PUSH2 0x1F0C JUMP JUMPDEST STOP JUMPDEST PUSH2 0x666 PUSH1 0x4 DUP1 CALLDATASIZE SUB DUP2 ADD SWAP1 PUSH2 0x661 SWAP2 SWAP1 PUSH2 0x3D5C JUMP JUMPDEST PUSH2 0x26AB JUMP JUMPDEST STOP JUMPDEST PUSH2 0x682 PUSH1 0x4 DUP1 CALLDATASIZE SUB DUP2 ADD SWAP1 PUSH2 0x67D SWAP2 SWAP1 PUSH2 0x4068 JUMP JUMPDEST PUSH2 0x270D JUMP JUMPDEST PUSH1 0x40 MLOAD PUSH2 0x696 SWAP9 SWAP8 SWAP7 SWAP6 SWAP5 SWAP4 SWAP3 SWAP2 SWAP1 PUSH2 0x40B7 JUMP JUMPDEST PUSH1 0x40 MLOAD DUP1 SWAP2 SUB SWAP1 RETURN JUMPDEST PUSH2 0x6B9 PUSH1 0x4 DUP1 CALLDATASIZE SUB DUP2 ADD SWAP1 PUSH2 0x6B4 SWAP2 SWAP1 PUSH2 0x3D5C JUMP JUMPDEST PUSH2 0x279F JUMP JUMPDEST STOP JUMPDEST PUSH2 0x6D5 PUSH1 0x4 DUP1 CALLDATASIZE SUB DUP2 ADD SWAP1 PUSH2 0x6D0 SWAP2 SWAP1 PUSH2 0x3D5C JUMP JUMPDEST PUSH2 0x2801 JUMP JUMPDEST STOP JUMPDEST PUSH2 0x6DF PUSH2 0x2AA9 JUMP JUMPDEST STOP JUMPDEST PUSH2 0x6E9 PUSH2 0x2B1E JUMP JUMPDEST STOP JUMPDEST PUSH2 0x705 PUSH1 0x4 DUP1 CALLDATASIZE SUB DUP2 ADD SWAP1 PUSH2 0x700 SWAP2 SWAP1 PUSH2 0x3CF9 JUMP JUMPDEST PUSH2 0x2B93 JUMP JUMPDEST STOP JUMPDEST PUSH2 0x721 PUSH1 0x4 DUP1 CALLDATASIZE SUB DUP2 ADD SWAP1 PUSH2 0x71C SWAP2 SWAP1 PUSH2 0x3D5C JUMP JUMPDEST PUSH2 0x2CBD JUMP JUMPDEST STOP JUMPDEST PUSH2 0x73D PUSH1 0x4 DUP1 CALLDATASIZE SUB DUP2 ADD SWAP1 PUSH2 0x738 SWAP2 SWAP1 PUSH2 0x3D5C JUMP JUMPDEST PUSH2 0x2D1F JUMP JUMPDEST STOP JUMPDEST PUSH2 0x747 PUSH2 0x2D81 JUMP JUMPDEST PUSH1 0x40 MLOAD PUSH2 0x754 SWAP2 SWAP1 PUSH2 0x3C80 JUMP JUMPDEST PUSH1 0x40 MLOAD DUP1 SWAP2 SUB SWAP1 RETURN JUMPDEST PUSH2 0x777 PUSH1 0x4 DUP1 CALLDATASIZE SUB DUP2 ADD SWAP1 PUSH2 0x772 SWAP2 SWAP1 PUSH2 0x3CF9 JUMP JUMPDEST PUSH2 0x2DC7 JUMP JUMPDEST STOP JUMPDEST PUSH1 0x0 PUSH2 0x78F PUSH8 0xD3533C0D788F6F6A PUSH1 0xC0 SHL PUSH2 0x2E4D JUMP JUMPDEST PUSH2 0x7A3 PUSH8 0xC6C49D372D30D9E0 PUSH1 0xC0 SHL PUSH2 0x2E4D JUMP JUMPDEST PUSH2 0x7B7 PUSH8 0x3A7CB5C767023A9A PUSH1 0xC0 SHL PUSH2 0x2E4D JUMP JUMPDEST PUSH1 0x1 SLOAD DUP4 LT PUSH2 0x810 JUMPI PUSH2 0x7D4 PUSH8 0xCFB62A4E32827574 PUSH1 0xC0 SHL PUSH2 0x2E4D JUMP JUMPDEST PUSH2 0x7E8 PUSH8 0xF271E827DB6E47B7 PUSH1 0xC0 SHL PUSH2 0x2E4D JUMP JUMPDEST PUSH2 0x7FC PUSH8 0xA33C765D60246BF7 PUSH1 0xC0 SHL PUSH2 0x2E4D JUMP JUMPDEST DUP2 PUSH1 0x90 PUSH2 0x809 SWAP2 SWAP1 PUSH2 0x4164 JUMP JUMPDEST SWAP1 POP PUSH2 0x909 JUMP JUMPDEST PUSH2 0x824 PUSH8 0x5DCEC27C27302B31 PUSH1 0xC0 SHL PUSH2 0x2E4D JUMP JUMPDEST PUSH2 0x838 PUSH8 0x996F014A15AE084B PUSH1 0xC0 SHL PUSH2 0x2E4D JUMP JUMPDEST PUSH2 0x84C PUSH8 0x9E7BDD9574AC5A0 PUSH1 0xC0 SHL PUSH2 0x2E4D JUMP JUMPDEST PUSH1 0x0 PUSH1 0x1 SLOAD PUSH8 0xDE0B6B3A7640000 DUP6 PUSH1 0x6 SLOAD PUSH2 0x868 SWAP2 SWAP1 PUSH2 0x4164 JUMP JUMPDEST PUSH2 0x872 SWAP2 SWAP1 PUSH2 0x4164 JUMP JUMPDEST PUSH2 0x87C SWAP2 SWAP1 PUSH2 0x41D5 JUMP JUMPDEST SWAP1 POP PUSH2 0x892 PUSH8 0x41AE4D463CA3CF49 PUSH1 0xC0 SHL PUSH2 0x2E4D JUMP JUMPDEST PUSH2 0x8A6 PUSH8 0x581F33E234BDD4AE PUSH1 0xC0 SHL PUSH2 0x2E4D JUMP JUMPDEST PUSH1 0x0 PUSH15 0xC097CE7BC90715B34B9F1000000000 DUP3 DUP4 DUP7 PUSH2 0x8C5 SWAP2 SWAP1 PUSH2 0x4164 JUMP JUMPDEST PUSH2 0x8CF SWAP2 SWAP1 PUSH2 0x4164 JUMP JUMPDEST PUSH2 0x8D9 SWAP2 SWAP1 PUSH2 0x41D5 JUMP JUMPDEST SWAP1 POP PUSH2 0x8EF PUSH8 0xD425252E50B3A3F3 PUSH1 0xC0 SHL PUSH2 0x2E4D JUMP JUMPDEST PUSH2 0x903 PUSH8 0x37DC5191926DD1C4 PUSH1 0xC0 SHL PUSH2 0x2E4D JUMP JUMPDEST DUP1 SWAP3 POP POP POP JUMPDEST SWAP3 SWAP2 POP POP JUMP JUMPDEST PUSH1 0x5 SLOAD DUP2 JUMP JUMPDEST PUSH1 0xC PUSH1 0x20 MSTORE DUP1 PUSH1 0x0 MSTORE PUSH1 0x40 PUSH1 0x0 KECCAK256 PUSH1 0x0 SWAP2 POP SLOAD SWAP1 PUSH2 0x100 EXP SWAP1 DIV PUSH1 0xFF AND DUP2 JUMP JUMPDEST PUSH1 0x7 SLOAD DUP2 JUMP JUMPDEST PUSH2 0x94F PUSH8 0x784D1203CAC2DB36 PUSH1 0xC0 SHL PUSH2 0x2E4D JUMP JUMPDEST PUSH2 0x957 PUSH2 0x2E50 JUMP JUMPDEST PUSH2 0x96B PUSH8 0xCC7F46C4C4F181C5 PUSH1 0xC0 SHL PUSH2 0x2E4D JUMP JUMPDEST PUSH2 0x97F PUSH8 0x371E6D56B8326981 PUSH1 0xC0 SHL PUSH2 0x2E4D JUMP JUMPDEST PUSH2 0x993 PUSH8 0x2E31E54C0EDE5A38 PUSH1 0xC0 SHL PUSH2 0x2E4D JUMP JUMPDEST PUSH2 0x9A7 PUSH8 0xF9703C94A5A19BD4 PUSH1 0xC0 SHL PUSH2 0x2E4D JUMP JUMPDEST PUSH1 0x0 DUP2 SUB PUSH2 0xA09 JUMPI PUSH2 0x9C3 PUSH8 0x9E220B7E5F7608A5 PUSH1 0xC0 SHL PUSH2 0x2E4D JUMP JUMPDEST PUSH2 0x9D7 PUSH8 0xFE7CAA985572D08F PUSH1 0xC0 SHL PUSH2 0x2E4D JUMP JUMPDEST PUSH1 0x40 MLOAD PUSH32 0x61AC6EBA00000000000000000000000000000000000000000000000000000000 DUP2 MSTORE PUSH1 0x4 ADD PUSH1 0x40 MLOAD DUP1 SWAP2 SUB SWAP1 REVERT JUMPDEST PUSH2 0xA1D PUSH8 0xCCD960EBA84E13DD PUSH1 0xC0 SHL PUSH2 0x2E4D JUMP JUMPDEST PUSH2 0xA31 PUSH8 0x8605A2B21344C357 PUSH1 0xC0 SHL PUSH2 0x2E4D JUMP JUMPDEST DUP1 PUSH1 0xE PUSH1 0x0 DUP3 DUP3 SLOAD PUSH2 0xA43 SWAP2 SWAP1 PUSH2 0x4206 JUMP JUMPDEST SWAP3 POP POP DUP2 SWAP1 SSTORE POP PUSH2 0xA5E PUSH8 0x2ACFE9BAEE327830 PUSH1 0xC0 SHL PUSH2 0x2E4D JUMP JUMPDEST PUSH2 0xA72 PUSH8 0x2E0B79933DC999EF PUSH1 0xC0 SHL PUSH2 0x2E4D JUMP JUMPDEST PUSH2 0xABF CALLER ADDRESS DUP4 PUSH1 0x0 DUP1 SLOAD SWAP1 PUSH2 0x100 EXP SWAP1 DIV PUSH20 0xFFFFFFFFFFFFFFFFFFFFFFFFFFFFFFFFFFFFFFFF AND PUSH20 0xFFFFFFFFFFFFFFFFFFFFFFFFFFFFFFFFFFFFFFFF AND PUSH2 0x2ED7 SWAP1 SWAP4 SWAP3 SWAP2 SWAP1 PUSH4 0xFFFFFFFF AND JUMP JUMPDEST PUSH2 0xAD3 PUSH8 0xBBA26DBE923896E0 PUSH1 0xC0 SHL PUSH2 0x2E4D JUMP JUMPDEST PUSH2 0xAE7 PUSH8 0x7F25A147D236DD8B PUSH1 0xC0 SHL PUSH2 0x2E4D JUMP JUMPDEST CALLER PUSH20 0xFFFFFFFFFFFFFFFFFFFFFFFFFFFFFFFFFFFFFFFF AND PUSH32 0xE1FFFCC4923D04B559F4D29A8BFC6CDA04EB5B0D3C460751C2402C5C5CC9109C DUP3 PUSH1 0x40 MLOAD PUSH2 0xB2D SWAP2 SWAP1 PUSH2 0x3C80 JUMP JUMPDEST PUSH1 0x40 MLOAD DUP1 SWAP2 SUB SWAP1 LOG2 POP JUMP JUMPDEST PUSH1 0x0 PUSH2 0xB4E PUSH8 0x71DC132D31E4A024 PUSH1 0xC0 SHL PUSH2 0x2E4D JUMP JUMPDEST PUSH2 0xB62 PUSH8 0xA7D8E1CBBC843FB2 PUSH1 0xC0 SHL PUSH2 0x2E4D JUMP JUMPDEST PUSH2 0xB76 PUSH8 0x5FB82D64C9D3C40A PUSH1 0xC0 SHL PUSH2 0x2E4D JUMP JUMPDEST PUSH1 0x0 PUSH2 0xB82 DUP8 DUP8 PUSH2 0x779 JUMP JUMPDEST SWAP1 POP PUSH2 0xB98 PUSH8 0xBF3E5F3FD52B5FB9 PUSH1 0xC0 SHL PUSH2 0x2E4D JUMP JUMPDEST PUSH2 0xBAC PUSH8 0xE12BD3823173100D PUSH1 0xC0 SHL PUSH2 0x2E4D JUMP JUMPDEST PUSH1 0x0 PUSH2 0xBBA DUP9 DUP8 DUP8 DUP8 PUSH2 0x1B5F JUMP JUMPDEST SWAP1 POP PUSH2 0xBD0 PUSH8 0xACECE777C90A6BB7 PUSH1 0xC0 SHL PUSH2 0x2E4D JUMP JUMPDEST PUSH2 0xBE4 PUSH8 0xAC5B4B7A00DD959D PUSH1 0xC0 SHL PUSH2 0x2E4D JUMP JUMPDEST PUSH1 0x0 PUSH8 0xDE0B6B3A7640000 DUP4 DUP12 PUSH2 0xBFB SWAP2 SWAP1 PUSH2 0x4164 JUMP JUMPDEST PUSH2 0xC05 SWAP2 SWAP1 PUSH2 0x41D5 JUMP JUMPDEST SWAP1 POP PUSH2 0xC1B PUSH8 0x1D7E0721221A2EF6 PUSH1 0xC0 SHL PUSH2 0x2E4D JUMP JUMPDEST PUSH2 0xC2F PUSH8 0x6CEC70FE82FB1DDB PUSH1 0xC0 SHL PUSH2 0x2E4D JUMP JUMPDEST PUSH1 0x0 PUSH8 0xDE0B6B3A7640000 DUP4 DUP4 PUSH2 0xC46 SWAP2 SWAP1 PUSH2 0x4164 JUMP JUMPDEST PUSH2 0xC50 SWAP2 SWAP1 PUSH2 0x41D5 JUMP JUMPDEST SWAP1 POP PUSH2 0xC66 PUSH8 0xFFBD9AF4813C7167 PUSH1 0xC0 SHL PUSH2 0x2E4D JUMP JUMPDEST PUSH2 0xC7A PUSH8 0x6208B8F23C1EE9D5 PUSH1 0xC0 SHL PUSH2 0x2E4D JUMP JUMPDEST PUSH1 0x0 DUP2 DUP4 DUP14 PUSH2 0xC89 SWAP2 SWAP1 PUSH2 0x4206 JUMP JUMPDEST PUSH2 0xC93 SWAP2 SWAP1 PUSH2 0x423A JUMP JUMPDEST SWAP1 POP PUSH2 0xCA9 PUSH8 0x4BC5CCECCD8F3B8F PUSH1 0xC0 SHL PUSH2 0x2E4D JUMP JUMPDEST PUSH2 0xCBD PUSH8 0xCC0D02E223AC5F20 PUSH1 0xC0 SHL PUSH2 0x2E4D JUMP JUMPDEST DUP1 SWAP6 POP POP POP POP POP POP SWAP7 SWAP6 POP POP POP POP POP POP JUMP JUMPDEST PUSH1 0x3 SLOAD DUP2 JUMP JUMPDEST PUSH1 0x8 SLOAD DUP2 JUMP JUMPDEST PUSH2 0xCEF PUSH8 0x9F9DD50F21C5FD0D PUSH1 0xC0 SHL PUSH2 0x2E4D JUMP JUMPDEST PUSH2 0xCF7 PUSH2 0x2F59 JUMP JUMPDEST PUSH2 0xD0B PUSH8 0xFD57A7B99F8B2E36 PUSH1 0xC0 SHL PUSH2 0x2E4D JUMP JUMPDEST PUSH2 0xD1F PUSH8 0xB84E9AA335CE692F PUSH1 0xC0 SHL PUSH2 0x2E4D JUMP JUMPDEST PUSH2 0xD33 PUSH8 0x643E5D7D7447C52E PUSH1 0xC0 SHL PUSH2 0x2E4D JUMP JUMPDEST PUSH2 0xD47 PUSH8 0xADB190546928EE16 PUSH1 0xC0 SHL PUSH2 0x2E4D JUMP JUMPDEST PUSH1 0x0 PUSH1 0xA PUSH1 0x0 CALLER PUSH20 0xFFFFFFFFFFFFFFFFFFFFFFFFFFFFFFFFFFFFFFFF AND PUSH20 0xFFFFFFFFFFFFFFFFFFFFFFFFFFFFFFFFFFFFFFFF AND DUP2 MSTORE PUSH1 0x20 ADD SWAP1 DUP2 MSTORE PUSH1 0x20 ADD PUSH1 0x0 KECCAK256 PUSH1 0x0 DUP4 DUP2 MSTORE PUSH1 0x20 ADD SWAP1 DUP2 MSTORE PUSH1 0x20 ADD PUSH1 0x0 KECCAK256 SWAP1 POP PUSH2 0xDAF PUSH8 0x2922C653A4A340B3 PUSH1 0xC0 SHL PUSH2 0x2E4D JUMP JUMPDEST PUSH2 0xDC3 PUSH8 0xD184A05FF8D412C2 PUSH1 0xC0 SHL PUSH2 0x2E4D JUMP JUMPDEST PUSH1 0x0 DUP2 PUSH1 0x0 ADD SLOAD SUB PUSH2 0xE29 JUMPI PUSH2 0xDE3 PUSH8 0x8C87D943F50F0EA0 PUSH1 0xC0 SHL PUSH2 0x2E4D JUMP JUMPDEST PUSH2 0xDF7 PUSH8 0x1B9F806E16ED2DFE PUSH1 0xC0 SHL PUSH2 0x2E4D JUMP JUMPDEST PUSH1 0x40 MLOAD PUSH32 0x1704EDBB00000000000000000000000000000000000000000000000000000000 DUP2 MSTORE PUSH1 0x4 ADD PUSH1 0x40 MLOAD DUP1 SWAP2 SUB SWAP1 REVERT JUMPDEST PUSH2 0xE3D PUSH8 0xA6CE197FD362BE5 PUSH1 0xC0 SHL PUSH2 0x2E4D JUMP JUMPDEST PUSH2 0xE51 PUSH8 0xA2D347ACC59C4444 PUSH1 0xC0 SHL PUSH2 0x2E4D JUMP JUMPDEST PUSH2 0xE65 PUSH8 0x53E847D7BD96FB0A PUSH1 0xC0 SHL PUSH2 0x2E4D JUMP JUMPDEST DUP1 PUSH1 0x1 ADD PUSH1 0x8 SWAP1 SLOAD SWAP1 PUSH2 0x100 EXP SWAP1 DIV PUSH1 0xFF AND ISZERO PUSH2 0xED6 JUMPI PUSH2 0xE90 PUSH8 0x620B6B7AB778E1C1 PUSH1 0xC0 SHL PUSH2 0x2E4D JUMP JUMPDEST PUSH2 0xEA4 PUSH8 0x8FEE3335FF2E0B9B PUSH1 0xC0 SHL PUSH2 0x2E4D JUMP JUMPDEST PUSH1 0x40 MLOAD PUSH32 0x97198FA600000000000000000000000000000000000000000000000000000000 DUP2 MSTORE PUSH1 0x4 ADD PUSH1 0x40 MLOAD DUP1 SWAP2 SUB SWAP1 REVERT JUMPDEST PUSH2 0xEEA PUSH8 0x54AA019B0B7726C0 PUSH1 0xC0 SHL PUSH2 0x2E4D JUMP JUMPDEST PUSH2 0xEFE PUSH8 0xAA9CAF93C30C72B5 PUSH1 0xC0 SHL PUSH2 0x2E4D JUMP JUMPDEST PUSH2 0xF12 PUSH8 0x4F8A33545E202067 PUSH1 0xC0 SHL PUSH2 0x2E4D JUMP JUMPDEST DUP1 PUSH1 0x5 ADD PUSH1 0x0 SWAP1 SLOAD SWAP1 PUSH2 0x100 EXP SWAP1 DIV PUSH4 0xFFFFFFFF AND DUP2 PUSH1 0x1 ADD PUSH1 0x0 SWAP1 SLOAD SWAP1 PUSH2 0x100 EXP SWAP1 DIV PUSH4 0xFFFFFFFF AND PUSH2 0xF46 SWAP2 SWAP1 PUSH2 0x426E JUMP JUMPDEST PUSH4 0xFFFFFFFF AND TIMESTAMP LT ISZERO PUSH2 0x1077 JUMPI PUSH2 0xF67 PUSH8 0x590B3F7A3BC5921C PUSH1 0xC0 SHL PUSH2 0x2E4D JUMP JUMPDEST PUSH2 0xF7B PUSH8 0xA3E6EDF888164486 PUSH1 0xC0 SHL PUSH2 0x2E4D JUMP JUMPDEST TIMESTAMP DUP2 PUSH1 0x1 ADD PUSH1 0x4 PUSH2 0x100 EXP DUP2 SLOAD DUP2 PUSH4 0xFFFFFFFF MUL NOT AND SWAP1 DUP4 PUSH4 0xFFFFFFFF AND MUL OR SWAP1 SSTORE POP PUSH2 0xFB2 PUSH8 0x9E4524B9BE704DE5 PUSH1 0xC0 SHL PUSH2 0x2E4D JUMP JUMPDEST PUSH1 0x1 DUP2 PUSH1 0x1 ADD PUSH1 0x8 PUSH2 0x100 EXP DUP2 SLOAD DUP2 PUSH1 0xFF MUL NOT AND SWAP1 DUP4 ISZERO ISZERO MUL OR SWAP1 SSTORE POP PUSH2 0xFE3 PUSH8 0xC4F56E8613B194E0 PUSH1 0xC0 SHL PUSH2 0x2E4D JUMP JUMPDEST PUSH2 0xFF7 PUSH8 0x54804A0568A24202 PUSH1 0xC0 SHL PUSH2 0x2E4D JUMP JUMPDEST CALLER PUSH20 0xFFFFFFFFFFFFFFFFFFFFFFFFFFFFFFFFFFFFFFFF AND PUSH32 0x828764C21E74C28710E19919735825ABA966621C95CBD913F8ED65A2D298F48C DUP3 PUSH1 0x0 ADD SLOAD PUSH1 0x40 MLOAD PUSH2 0x1041 SWAP2 SWAP1 PUSH2 0x3C80 JUMP JUMPDEST PUSH1 0x40 MLOAD DUP1 SWAP2 SUB SWAP1 LOG2 PUSH2 0x105D PUSH8 0x6E16E72F0DBDD4B5 PUSH1 0xC0 SHL PUSH2 0x2E4D JUMP JUMPDEST PUSH2 0x1071 PUSH8 0xDD933D62FF016AB1 PUSH1 0xC0 SHL PUSH2 0x2E4D JUMP JUMPDEST POP PUSH2 0x10BF JUMP JUMPDEST PUSH2 0x108B PUSH8 0x7498668CC086BAC7 PUSH1 0xC0 SHL PUSH2 0x2E4D JUMP JUMPDEST PUSH2 0x109F PUSH8 0xD3F42B09F60EDB4 PUSH1 0xC0 SHL PUSH2 0x2E4D JUMP JUMPDEST PUSH2 0x10B3 PUSH8 0x8E6E738BBC198FFD PUSH1 0xC0 SHL PUSH2 0x2E4D JUMP JUMPDEST PUSH2 0x10BD CALLER DUP4 PUSH2 0x2FB0 JUMP JUMPDEST POP JUMPDEST PUSH2 0x10C7 PUSH2 0x34B9 JUMP JUMPDEST POP JUMP JUMPDEST PUSH2 0x10DE PUSH8 0x7F67747FE9649BFC PUSH1 0xC0 SHL PUSH2 0x2E4D JUMP JUMPDEST PUSH2 0x10E6 PUSH2 0x2E50 JUMP JUMPDEST PUSH2 0x10FA PUSH8 0x3480222E95CD9314 PUSH1 0xC0 SHL PUSH2 0x2E4D JUMP JUMPDEST PUSH2 0x110E PUSH8 0x83253E7EEB48716 PUSH1 0xC0 SHL PUSH2 0x2E4D JUMP JUMPDEST PUSH2 0x1122 PUSH8 0xE3A78CBB3367CCD3 PUSH1 0xC0 SHL PUSH2 0x2E4D JUMP JUMPDEST DUP1 PUSH1 0x4 DUP2 SWAP1 SSTORE POP POP JUMP JUMPDEST PUSH2 0x1140 PUSH8 0x381A47963F4196E2 PUSH1 0xC0 SHL PUSH2 0x2E4D JUMP JUMPDEST PUSH2 0x1148 PUSH2 0x2F59 JUMP JUMPDEST PUSH2 0x115C PUSH8 0xE0FB84E301B0AE23 PUSH1 0xC0 SHL PUSH2 0x2E4D JUMP JUMPDEST PUSH2 0x1170 PUSH8 0xB041837B5A596032 PUSH1 0xC0 SHL PUSH2 0x2E4D JUMP JUMPDEST PUSH2 0x1184 PUSH8 0x3E55AD110582C77F PUSH1 0xC0 SHL PUSH2 0x2E4D JUMP JUMPDEST PUSH2 0x1198 PUSH8 0x7BA4AE178D37156A PUSH1 0xC0 SHL PUSH2 0x2E4D JUMP JUMPDEST PUSH1 0x0 PUSH1 0xA PUSH1 0x0 CALLER PUSH20 0xFFFFFFFFFFFFFFFFFFFFFFFFFFFFFFFFFFFFFFFF AND PUSH20 0xFFFFFFFFFFFFFFFFFFFFFFFFFFFFFFFFFFFFFFFF AND DUP2 MSTORE PUSH1 0x20 ADD SWAP1 DUP2 MSTORE PUSH1 0x20 ADD PUSH1 0x0 KECCAK256 PUSH1 0x0 DUP4 DUP2 MSTORE PUSH1 0x20 ADD SWAP1 DUP2 MSTORE PUSH1 0x20 ADD PUSH1 0x0 KECCAK256 SWAP1 POP PUSH2 0x1200 PUSH8 0x8144859E4D3A8AC5 PUSH1 0xC0 SHL PUSH2 0x2E4D JUMP JUMPDEST PUSH2 0x1214 PUSH8 0x349AF0497E5CD309 PUSH1 0xC0 SHL PUSH2 0x2E4D JUMP JUMPDEST DUP1 PUSH1 0x1 ADD PUSH1 0x8 SWAP1 SLOAD SWAP1 PUSH2 0x100 EXP SWAP1 DIV PUSH1 0xFF AND PUSH2 0x1284 JUMPI PUSH2 0x123E PUSH8 0x72E2C3AB76C27912 PUSH1 0xC0 SHL PUSH2 0x2E4D JUMP JUMPDEST PUSH2 0x1252 PUSH8 0x59DC52AB502D38A6 PUSH1 0xC0 SHL PUSH2 0x2E4D JUMP JUMPDEST PUSH1 0x40 MLOAD PUSH32 0xEEF9087E00000000000000000000000000000000000000000000000000000000 DUP2 MSTORE PUSH1 0x4 ADD PUSH1 0x40 MLOAD DUP1 SWAP2 SUB SWAP1 REVERT JUMPDEST PUSH2 0x1298 PUSH8 0xCA6584C7888C164D PUSH1 0xC0 SHL PUSH2 0x2E4D JUMP JUMPDEST PUSH2 0x12AC PUSH8 0xA1E736BC245D3CDD PUSH1 0xC0 SHL PUSH2 0x2E4D JUMP JUMPDEST PUSH2 0x12C0 PUSH8 0xE3CB2E0AEFC2586D PUSH1 0xC0 SHL PUSH2 0x2E4D JUMP JUMPDEST PUSH1 0x5 SLOAD DUP2 PUSH1 0x1 ADD PUSH1 0x4 SWAP1 SLOAD SWAP1 PUSH2 0x100 EXP SWAP1 DIV PUSH4 0xFFFFFFFF AND PUSH4 0xFFFFFFFF AND PUSH2 0x12E8 SWAP2 SWAP1 PUSH2 0x4206 JUMP JUMPDEST TIMESTAMP LT ISZERO PUSH2 0x1349 JUMPI PUSH2 0x1303 PUSH8 0x6EA687DE1F12A419 PUSH1 0xC0 SHL PUSH2 0x2E4D JUMP JUMPDEST PUSH2 0x1317 PUSH8 0xDDD5898BA213B35C PUSH1 0xC0 SHL PUSH2 0x2E4D JUMP JUMPDEST PUSH1 0x40 MLOAD PUSH32 0x52C459F900000000000000000000000000000000000000000000000000000000 DUP2 MSTORE PUSH1 0x4 ADD PUSH1 0x40 MLOAD DUP1 SWAP2 SUB SWAP1 REVERT JUMPDEST PUSH2 0x135D PUSH8 0x5E39B76E14F5756D PUSH1 0xC0 SHL PUSH2 0x2E4D JUMP JUMPDEST PUSH2 0x1371 PUSH8 0xF44116102EBC3961 PUSH1 0xC0 SHL PUSH2 0x2E4D JUMP JUMPDEST PUSH2 0x1385 PUSH8 0xC9B71C608995FFBE PUSH1 0xC0 SHL PUSH2 0x2E4D JUMP JUMPDEST PUSH2 0x138F CALLER DUP4 PUSH2 0x2FB0 JUMP JUMPDEST POP PUSH2 0x1398 PUSH2 0x34B9 JUMP JUMPDEST POP JUMP JUMPDEST PUSH1 0x0 PUSH2 0x13B1 PUSH8 0x123994520A536F74 PUSH1 0xC0 SHL PUSH2 0x2E4D JUMP JUMPDEST PUSH2 0x13C5 PUSH8 0xE87DF8CF5A599DB PUSH1 0xC0 SHL PUSH2 0x2E4D JUMP JUMPDEST PUSH2 0x13D9 PUSH8 0x741443532EDB1EB8 PUSH1 0xC0 SHL PUSH2 0x2E4D JUMP JUMPDEST PUSH1 0x0 PUSH2 0x13EF PUSH8 0x2F1CE3E6BDD918F5 PUSH1 0xC0 SHL PUSH2 0x2E4D JUMP JUMPDEST PUSH2 0x1403 PUSH8 0x84774C26C185F3AE PUSH1 0xC0 SHL PUSH2 0x2E4D JUMP JUMPDEST PUSH1 0x0 PUSH1 0xB PUSH1 0x0 DUP6 PUSH20 0xFFFFFFFFFFFFFFFFFFFFFFFFFFFFFFFFFFFFFFFF AND PUSH20 0xFFFFFFFFFFFFFFFFFFFFFFFFFFFFFFFFFFFFFFFF AND DUP2 MSTORE PUSH1 0x20 ADD SWAP1 DUP2 MSTORE PUSH1 0x20 ADD PUSH1 0x0 KECCAK256 SLOAD SWAP1 POP PUSH2 0x145B PUSH8 0x49DBDC851ABAE9C PUSH1 0xC0 SHL PUSH2 0x2E4D JUMP JUMPDEST PUSH2 0x146F PUSH8 0x11882EA6E4480D82 PUSH1 0xC0 SHL PUSH2 0x2E4D JUMP JUMPDEST PUSH1 0x0 PUSH1 0xA PUSH1 0x0 DUP7 PUSH20 0xFFFFFFFFFFFFFFFFFFFFFFFFFFFFFFFFFFFFFFFF AND PUSH20 0xFFFFFFFFFFFFFFFFFFFFFFFFFFFFFFFFFFFFFFFF AND DUP2 MSTORE PUSH1 0x20 ADD SWAP1 DUP2 MSTORE PUSH1 0x20 ADD PUSH1 0x0 KECCAK256 SWAP1 POP PUSH2 0x14C6 PUSH8 0xF8BD99134D01F186 PUSH1 0xC0 SHL PUSH2 0x2E4D JUMP JUMPDEST PUSH2 0x14DA PUSH8 0x11A3EDE05FA591C7 PUSH1 0xC0 SHL PUSH2 0x2E4D JUMP JUMPDEST PUSH1 0x0 JUMPDEST DUP3 DUP2 LT ISZERO PUSH2 0x154F JUMPI PUSH2 0x14F9 PUSH8 0xC0C387B51BA34F2F PUSH1 0xC0 SHL PUSH2 0x2E4D JUMP JUMPDEST DUP2 PUSH1 0x0 DUP3 DUP2 MSTORE PUSH1 0x20 ADD SWAP1 DUP2 MSTORE PUSH1 0x20 ADD PUSH1 0x0 KECCAK256 PUSH1 0x0 ADD SLOAD DUP5 PUSH2 0x151A SWAP2 SWAP1 PUSH2 0x4206 JUMP JUMPDEST SWAP4 POP PUSH2 0x1530 PUSH8 0x4DFD9BC22D76EA00 PUSH1 0xC0 SHL PUSH2 0x2E4D JUMP JUMPDEST PUSH2 0x1544 PUSH8 0x35B59734924AD545 PUSH1 0xC0 SHL PUSH2 0x2E4D JUMP JUMPDEST DUP1 PUSH1 0x1 ADD SWAP1 POP PUSH2 0x14DD JUMP JUMPDEST POP PUSH2 0x1564 PUSH8 0xBE94ACD0A59694E0 PUSH1 0xC0 SHL PUSH2 0x2E4D JUMP JUMPDEST PUSH2 0x1578 PUSH8 0xAE17314496791D91 PUSH1 0xC0 SHL PUSH2 0x2E4D JUMP JUMPDEST DUP3 SWAP4 POP POP POP POP SWAP2 SWAP1 POP JUMP JUMPDEST PUSH2 0x1597 PUSH8 0xFEA109B9D854CF23 PUSH1 0xC0 SHL PUSH2 0x2E4D JUMP JUMPDEST PUSH2 0x159F PUSH2 0x2E50 JUMP JUMPDEST PUSH2 0x15B3 PUSH8 0x866D38108901FAA2 PUSH1 0xC0 SHL PUSH2 0x2E4D JUMP JUMPDEST PUSH2 0x15C7 PUSH8 0xC2C2D7A6965AC21E PUSH1 0xC0 SHL PUSH2 0x2E4D JUMP JUMPDEST PUSH2 0x15DB PUSH8 0xB192ACE7B1C65E02 PUSH1 0xC0 SHL PUSH2 0x2E4D JUMP JUMPDEST PUSH2 0x15EF PUSH8 0xA96DB3EE52D0EF33 PUSH1 0xC0 SHL PUSH2 0x2E4D JUMP JUMPDEST PUSH2 0x15F7 PUSH2 0x34D2 JUMP JUMPDEST JUMP JUMPDEST PUSH1 0x2 SLOAD DUP2 JUMP JUMPDEST PUSH1 0x9 PUSH1 0x0 SWAP1 SLOAD SWAP1 PUSH2 0x100 EXP SWAP1 DIV PUSH1 0xFF AND DUP2 JUMP JUMPDEST PUSH1 0xB PUSH1 0x20 MSTORE DUP1 PUSH1 0x0 MSTORE PUSH1 0x40 PUSH1 0x0 KECCAK256 PUSH1 0x0 SWAP2 POP SWAP1 POP SLOAD DUP2 JUMP JUMPDEST PUSH2 0x163E PUSH8 0xDF9604BADD6D347C PUSH1 0xC0 SHL PUSH2 0x2E4D JUMP JUMPDEST PUSH2 0x1646 PUSH2 0x2E50 JUMP JUMPDEST PUSH2 0x165A PUSH8 0xAB3DA2390A7217CE PUSH1 0xC0 SHL PUSH2 0x2E4D JUMP JUMPDEST PUSH2 0x166E PUSH8 0xA1A78941D50068B9 PUSH1 0xC0 SHL PUSH2 0x2E4D JUMP JUMPDEST PUSH2 0x1682 PUSH8 0xEB639FA9A95DBCC2 PUSH1 0xC0 SHL PUSH2 0x2E4D JUMP JUMPDEST DUP1 PUSH1 0x1 DUP2 SWAP1 SSTORE POP PUSH2 0x169D PUSH8 0xAE483F284C5C6670 PUSH1 0xC0 SHL PUSH2 0x2E4D JUMP JUMPDEST PUSH3 0x278D00 DUP2 PUSH2 0x16AC SWAP2 SWAP1 PUSH2 0x41D5 JUMP JUMPDEST PUSH1 0x6 DUP2 SWAP1 SSTORE POP POP JUMP JUMPDEST PUSH1 0x0 DUP1 PUSH2 0x16C0 PUSH2 0x3544 JUMP JUMPDEST SWAP1 POP DUP1 PUSH1 0x0 ADD PUSH1 0x0 SWAP1 SLOAD SWAP1 PUSH2 0x100 EXP SWAP1 DIV PUSH1 0xFF AND SWAP2 POP POP SWAP1 JUMP JUMPDEST PUSH1 0x0 PUSH2 0x16F0 PUSH8 0x1E353A7A296BC379 PUSH1 0xC0 SHL PUSH2 0x2E4D JUMP JUMPDEST PUSH2 0x1704 PUSH8 0xADDCF20F80D53B73 PUSH1 0xC0 SHL PUSH2 0x2E4D JUMP JUMPDEST PUSH2 0x1718 PUSH8 0x86DDF020D902A5FF PUSH1 0xC0 SHL PUSH2 0x2E4D JUMP JUMPDEST PUSH1 0xE SLOAD SWAP1 POP SWAP1 JUMP JUMPDEST PUSH2 0x1734 PUSH8 0xAD667A64F4978B7A PUSH1 0xC0 SHL PUSH2 0x2E4D JUMP JUMPDEST PUSH1 0x0 PUSH2 0x173E PUSH2 0x356C JUMP JUMPDEST SWAP1 POP PUSH1 0x0 DUP2 PUSH1 0x0 ADD PUSH1 0x8 SWAP1 SLOAD SWAP1 PUSH2 0x100 EXP SWAP1 DIV PUSH1 0xFF AND ISZERO SWAP1 POP PUSH1 0x0 DUP3 PUSH1 0x0 ADD PUSH1 0x0 SWAP1 SLOAD SWAP1 PUSH2 0x100 EXP SWAP1 DIV PUSH8 0xFFFFFFFFFFFFFFFF AND SWAP1 POP PUSH1 0x0 DUP1 DUP3 PUSH8 0xFFFFFFFFFFFFFFFF AND EQ DUP1 ISZERO PUSH2 0x178C JUMPI POP DUP3 JUMPDEST SWAP1 POP PUSH1 0x0 PUSH1 0x1 DUP4 PUSH8 0xFFFFFFFFFFFFFFFF AND EQ DUP1 ISZERO PUSH2 0x17C1 JUMPI POP PUSH1 0x0 ADDRESS PUSH20 0xFFFFFFFFFFFFFFFFFFFFFFFFFFFFFFFFFFFFFFFF AND EXTCODESIZE EQ JUMPDEST SWAP1 POP DUP2 ISZERO DUP1 ISZERO PUSH2 0x17CF JUMPI POP DUP1 ISZERO JUMPDEST ISZERO PUSH2 0x1806 JUMPI PUSH1 0x40 MLOAD PUSH32 0xF92EE8A900000000000000000000000000000000000000000000000000000000 DUP2 MSTORE PUSH1 0x4 ADD PUSH1 0x40 MLOAD DUP1 SWAP2 SUB SWAP1 REVERT JUMPDEST PUSH1 0x1 DUP6 PUSH1 0x0 ADD PUSH1 0x0 PUSH2 0x100 EXP DUP2 SLOAD DUP2 PUSH8 0xFFFFFFFFFFFFFFFF MUL NOT AND SWAP1 DUP4 PUSH8 0xFFFFFFFFFFFFFFFF AND MUL OR SWAP1 SSTORE POP DUP4 ISZERO PUSH2 0x1856 JUMPI PUSH1 0x1 DUP6 PUSH1 0x0 ADD PUSH1 0x8 PUSH2 0x100 EXP DUP2 SLOAD DUP2 PUSH1 0xFF MUL NOT AND SWAP1 DUP4 ISZERO ISZERO MUL OR SWAP1 SSTORE POP JUMPDEST PUSH2 0x186A PUSH8 0x8264858E49DEDCF4 PUSH1 0xC0 SHL PUSH2 0x2E4D JUMP JUMPDEST PUSH2 0x187E PUSH8 0xC833B0463101A7A2 PUSH1 0xC0 SHL PUSH2 0x2E4D JUMP JUMPDEST PUSH2 0x1892 PUSH8 0x9E5A3E616266ECA5 PUSH1 0xC0 SHL PUSH2 0x2E4D JUMP JUMPDEST PUSH2 0x18A6 PUSH8 0xE6F3224D43E489C9 PUSH1 0xC0 SHL PUSH2 0x2E4D JUMP JUMPDEST PUSH2 0x18AF CALLER PUSH2 0x3594 JUMP JUMPDEST PUSH2 0x18C3 PUSH8 0xCC5E42825A5376E PUSH1 0xC0 SHL PUSH2 0x2E4D JUMP JUMPDEST PUSH2 0x18D7 PUSH8 0x813E31C351DDA0AC PUSH1 0xC0 SHL PUSH2 0x2E4D JUMP JUMPDEST PUSH2 0x18DF PUSH2 0x35A8 JUMP JUMPDEST PUSH2 0x18F3 PUSH8 0x33D00A837DB46997 PUSH1 0xC0 SHL PUSH2 0x2E4D JUMP JUMPDEST PUSH2 0x1907 PUSH8 0x5366FE606239C09F PUSH1 0xC0 SHL PUSH2 0x2E4D JUMP JUMPDEST PUSH2 0x190F PUSH2 0x35BA JUMP JUMPDEST PUSH2 0x1923 PUSH8 0x14A77FE737B621EA PUSH1 0xC0 SHL PUSH2 0x2E4D JUMP JUMPDEST PUSH2 0x1937 PUSH8 0x37E59A0FC2DC23EA PUSH1 0xC0 SHL PUSH2 0x2E4D JUMP JUMPDEST PUSH2 0x1940 DUP16 PUSH2 0x2DC7 JUMP JUMPDEST PUSH2 0x1954 PUSH8 0x4E0AB26E31A5198D PUSH1 0xC0 SHL PUSH2 0x2E4D JUMP JUMPDEST DUP14 PUSH1 0x0 DUP1 PUSH2 0x100 EXP DUP2 SLOAD DUP2 PUSH20 0xFFFFFFFFFFFFFFFFFFFFFFFFFFFFFFFFFFFFFFFF MUL NOT AND SWAP1 DUP4 PUSH20 0xFFFFFFFFFFFFFFFFFFFFFFFFFFFFFFFFFFFFFFFF AND MUL OR SWAP1 SSTORE POP PUSH2 0x19A8 PUSH8 0x2CCC81D7BFF6525 PUSH1 0xC0 SHL PUSH2 0x2E4D JUMP JUMPDEST DUP13 PUSH4 0xFFFFFFFF AND PUSH1 0x1 DUP2 SWAP1 SSTORE POP PUSH2 0x19C9 PUSH8 0xEA6F48F691918862 PUSH1 0xC0 SHL PUSH2 0x2E4D JUMP JUMPDEST DUP12 PUSH1 0x4 DUP2 SWAP1 SSTORE POP PUSH2 0x19E4 PUSH8 0x99FA93E541E7CE1B PUSH1 0xC0 SHL PUSH2 0x2E4D JUMP JUMPDEST DUP11 PUSH1 0x5 DUP2 SWAP1 SSTORE POP PUSH2 0x19FF PUSH8 0x576DE98D70F008E3 PUSH1 0xC0 SHL PUSH2 0x2E4D JUMP JUMPDEST PUSH3 0x278D00 DUP14 PUSH2 0x1A0E SWAP2 SWAP1 PUSH2 0x42A6 JUMP JUMPDEST PUSH4 0xFFFFFFFF AND PUSH1 0x6 DUP2 SWAP1 SSTORE POP PUSH2 0x1A2E PUSH8 0xA9F5AD2D15CE5A49 PUSH1 0xC0 SHL PUSH2 0x2E4D JUMP JUMPDEST DUP10 PUSH1 0x7 DUP2 SWAP1 SSTORE POP PUSH2 0x1A49 PUSH8 0x9FD76F677E145242 PUSH1 0xC0 SHL PUSH2 0x2E4D JUMP JUMPDEST DUP9 PUSH1 0x8 DUP2 SWAP1 SSTORE POP PUSH2 0x1A64 PUSH8 0x7968AB95F66A2240 PUSH1 0xC0 SHL PUSH2 0x2E4D JUMP JUMPDEST DUP8 PUSH1 0x2 DUP2 SWAP1 SSTORE POP PUSH2 0x1A7F PUSH8 0x98589FA553F91E83 PUSH1 0xC0 SHL PUSH2 0x2E4D JUMP JUMPDEST DUP7 PUSH1 0x3 DUP2 SWAP1 SSTORE POP PUSH2 0x1A9A PUSH8 0xB5A66796D1E4BAEF PUSH1 0xC0 SHL PUSH2 0x2E4D JUMP JUMPDEST DUP6 PUSH1 0x9 PUSH1 0x0 PUSH2 0x100 EXP DUP2 SLOAD DUP2 PUSH1 0xFF MUL NOT AND SWAP1 DUP4 ISZERO ISZERO MUL OR SWAP1 SSTORE POP DUP4 ISZERO PUSH2 0x1B10 JUMPI PUSH1 0x0 DUP6 PUSH1 0x0 ADD PUSH1 0x8 PUSH2 0x100 EXP DUP2 SLOAD DUP2 PUSH1 0xFF MUL NOT AND SWAP1 DUP4 ISZERO ISZERO MUL OR SWAP1 SSTORE POP PUSH32 0xC7F505B2F371AE2175EE4913F4499E1F2633A7B5936321EED1CDAEB6115181D2 PUSH1 0x1 PUSH1 0x40 MLOAD PUSH2 0x1B07 SWAP2 SWAP1 PUSH2 0x4326 JUMP JUMPDEST PUSH1 0x40 MLOAD DUP1 SWAP2 SUB SWAP1 LOG1 JUMPDEST POP POP POP POP POP POP POP POP POP POP POP POP POP POP POP JUMP JUMPDEST PUSH1 0x6 SLOAD DUP2 JUMP JUMPDEST PUSH2 0x1B2F PUSH2 0x2E50 JUMP JUMPDEST PUSH2 0x1B39 PUSH1 0x0 PUSH2 0x35CC JUMP JUMPDEST JUMP JUMPDEST PUSH1 0x0 DUP1 SLOAD SWAP1 PUSH2 0x100 EXP SWAP1 DIV PUSH20 0xFFFFFFFFFFFFFFFFFFFFFFFFFFFFFFFFFFFFFFFF AND DUP2 JUMP JUMPDEST PUSH1 0x0 PUSH2 0x1B75 PUSH8 0x6CA6A3138DE4996C PUSH1 0xC0 SHL PUSH2 0x2E4D JUMP JUMPDEST PUSH2 0x1B89 PUSH8 0xA4A0F357BF4E27DD PUSH1 0xC0 SHL PUSH2 0x2E4D JUMP JUMPDEST PUSH2 0x1B9D PUSH8 0x8ADC283527FA4135 PUSH1 0xC0 SHL PUSH2 0x2E4D JUMP JUMPDEST DUP2 DUP6 LT PUSH2 0x1BE9 JUMPI PUSH2 0x1BB8 PUSH8 0xABA8FE301213E387 PUSH1 0xC0 SHL PUSH2 0x2E4D JUMP JUMPDEST PUSH2 0x1BCC PUSH8 0xA107CE563F352C55 PUSH1 0xC0 SHL PUSH2 0x2E4D JUMP JUMPDEST PUSH2 0x1BE0 PUSH8 0x760A7EC7ED6F202E PUSH1 0xC0 SHL PUSH2 0x2E4D JUMP JUMPDEST PUSH1 0x0 SWAP1 POP PUSH2 0x1C78 JUMP JUMPDEST PUSH2 0x1BFD PUSH8 0x2E378834007E3BB6 PUSH1 0xC0 SHL PUSH2 0x2E4D JUMP JUMPDEST PUSH2 0x1C11 PUSH8 0xEC2C72DD13A14AFF PUSH1 0xC0 SHL PUSH2 0x2E4D JUMP JUMPDEST PUSH2 0x1C25 PUSH8 0x5CAED65DCAB4A6F5 PUSH1 0xC0 SHL PUSH2 0x2E4D JUMP JUMPDEST PUSH1 0x0 DUP3 DUP7 DUP7 PUSH2 0x1C34 SWAP2 SWAP1 PUSH2 0x4164 JUMP JUMPDEST PUSH2 0x1C3E SWAP2 SWAP1 PUSH2 0x41D5 JUMP JUMPDEST DUP5 PUSH2 0x1C49 SWAP2 SWAP1 PUSH2 0x423A JUMP JUMPDEST SWAP1 POP PUSH2 0x1C5F PUSH8 0xD32913ACB01ADA6B PUSH1 0xC0 SHL PUSH2 0x2E4D JUMP JUMPDEST PUSH2 0x1C73 PUSH8 0x868A76F7A37AE699 PUSH1 0xC0 SHL PUSH2 0x2E4D JUMP JUMPDEST DUP1 SWAP2 POP POP JUMPDEST SWAP5 SWAP4 POP POP POP POP JUMP JUMPDEST PUSH1 0x4 SLOAD DUP2 JUMP JUMPDEST PUSH1 0x1 SLOAD DUP2 JUMP JUMPDEST PUSH1 0x0 PUSH2 0x1CA2 PUSH8 0x341662C6E05446ED PUSH1 0xC0 SHL PUSH2 0x2E4D JUMP JUMPDEST PUSH2 0x1CB6 PUSH8 0xD5B420702B5D5290 PUSH1 0xC0 SHL PUSH2 0x2E4D JUMP JUMPDEST PUSH2 0x1CCA PUSH8 0x9AAD6B8BC00FF9D8 PUSH1 0xC0 SHL PUSH2 0x2E4D JUMP JUMPDEST PUSH1 0xD SLOAD SWAP1 POP SWAP1 JUMP JUMPDEST PUSH2 0x1CE6 PUSH8 0x814B302EFD28D70 PUSH1 0xC0 SHL PUSH2 0x2E4D JUMP JUMPDEST PUSH2 0x1CEE PUSH2 0x2E50 JUMP JUMPDEST PUSH2 0x1D02 PUSH8 0x4C4AFECD8C0AD562 PUSH1 0xC0 SHL PUSH2 0x2E4D JUMP JUMPDEST PUSH2 0x1D16 PUSH8 0xCD69B84D664B1D2F PUSH1 0xC0 SHL PUSH2 0x2E4D JUMP JUMPDEST PUSH2 0x1D2A PUSH8 0x1217D974ABC583F4 PUSH1 0xC0 SHL PUSH2 0x2E4D JUMP JUMPDEST PUSH2 0x1D3E PUSH8 0xA0D54084D7ABEA8B PUSH1 0xC0 SHL PUSH2 0x2E4D JUMP JUMPDEST PUSH2 0x1D46 PUSH2 0x36A3 JUMP JUMPDEST JUMP JUMPDEST PUSH2 0x1D5C PUSH8 0x399ADDE4DA7D2752 PUSH1 0xC0 SHL PUSH2 0x2E4D JUMP JUMPDEST PUSH2 0x1D64 PUSH2 0x2E50 JUMP JUMPDEST PUSH2 0x1D78 PUSH8 0x67F14619FB8982AC PUSH1 0xC0 SHL PUSH2 0x2E4D JUMP JUMPDEST PUSH2 0x1D8C PUSH8 0x599295E2237FDEBB PUSH1 0xC0 SHL PUSH2 0x2E4D JUMP JUMPDEST PUSH2 0x1DA0 PUSH8 0xAD296BBB28065DC5 PUSH1 0xC0 SHL PUSH2 0x2E4D JUMP JUMPDEST DUP1 PUSH1 0x5 DUP2 SWAP1 SSTORE POP POP JUMP JUMPDEST PUSH2 0x1DBE PUSH8 0x95144F34BEBCA2D0 PUSH1 0xC0 SHL PUSH2 0x2E4D JUMP JUMPDEST PUSH2 0x1DC6 PUSH2 0x2E50 JUMP JUMPDEST PUSH2 0x1DDA PUSH8 0xA235F9C96D897A1E PUSH1 0xC0 SHL PUSH2 0x2E4D JUMP JUMPDEST PUSH2 0x1DEE PUSH8 0x9CF94FA52350166D PUSH1 0xC0 SHL PUSH2 0x2E4D JUMP JUMPDEST PUSH2 0x1E02 PUSH8 0x7DD699C332592840 PUSH1 0xC0 SHL PUSH2 0x2E4D JUMP JUMPDEST PUSH1 0x0 PUSH1 0xC PUSH1 0x0 DUP4 PUSH20 0xFFFFFFFFFFFFFFFFFFFFFFFFFFFFFFFFFFFFFFFF AND PUSH20 0xFFFFFFFFFFFFFFFFFFFFFFFFFFFFFFFFFFFFFFFF AND DUP2 MSTORE PUSH1 0x20 ADD SWAP1 DUP2 MSTORE PUSH1 0x20 ADD PUSH1 0x0 KECCAK256 PUSH1 0x0 PUSH2 0x100 EXP DUP2 SLOAD DUP2 PUSH1 0xFF MUL NOT AND SWAP1 DUP4 ISZERO ISZERO MUL OR SWAP1 SSTORE POP PUSH2 0x1E6E PUSH8 0x7EB5319803FEF74E PUSH1 0xC0 SHL PUSH2 0x2E4D JUMP JUMPDEST PUSH2 0x1E82 PUSH8 0x30290148D17F8C0B PUSH1 0xC0 SHL PUSH2 0x2E4D JUMP JUMPDEST DUP1 PUSH20 0xFFFFFFFFFFFFFFFFFFFFFFFFFFFFFFFFFFFFFFFF AND PUSH32 0x8DAAF060C3306C38E068A75C054BF96ECD85A3DB1252712C4D93632744C42E0D PUSH1 0x0 PUSH1 0x40 MLOAD PUSH2 0x1EC9 SWAP2 SWAP1 PUSH2 0x3D41 JUMP JUMPDEST PUSH1 0x40 MLOAD DUP1 SWAP2 SUB SWAP1 LOG2 POP JUMP JUMPDEST PUSH1 0x0 DUP1 PUSH2 0x1EDF PUSH2 0x3715 JUMP JUMPDEST SWAP1 POP DUP1 PUSH1 0x0 ADD PUSH1 0x0 SWAP1 SLOAD SWAP1 PUSH2 0x100 EXP SWAP1 DIV PUSH20 0xFFFFFFFFFFFFFFFFFFFFFFFFFFFFFFFFFFFFFFFF AND SWAP2 POP POP SWAP1 JUMP JUMPDEST PUSH2 0x1F20 PUSH8 0xC5B454C6F8B9A957 PUSH1 0xC0 SHL PUSH2 0x2E4D JUMP JUMPDEST PUSH2 0x1F28 PUSH2 0x2F59 JUMP JUMPDEST PUSH2 0x1F3C PUSH8 0xB113F5404950CB7D PUSH1 0xC0 SHL PUSH2 0x2E4D JUMP JUMPDEST PUSH2 0x1F50 PUSH8 0x9158215A97D25A17 PUSH1 0xC0 SHL PUSH2 0x2E4D JUMP JUMPDEST PUSH2 0x1F58 PUSH2 0x373D JUMP JUMPDEST PUSH2 0x1F6C PUSH8 0x89DE050E481C25B4 PUSH1 0xC0 SHL PUSH2 0x2E4D JUMP JUMPDEST PUSH2 0x1F80 PUSH8 0xA9D26786D96E3102 PUSH1 0xC0 SHL PUSH2 0x2E4D JUMP JUMPDEST PUSH2 0x1F94 PUSH8 0x2E4F3F75E1697BF7 PUSH1 0xC0 SHL PUSH2 0x2E4D JUMP JUMPDEST PUSH2 0x1FA8 PUSH8 0x310049DF13591A05 PUSH1 0xC0 SHL PUSH2 0x2E4D JUMP JUMPDEST PUSH2 0x1FBC PUSH8 0x2469593631789242 PUSH1 0xC0 SHL PUSH2 0x2E4D JUMP JUMPDEST PUSH1 0x9 PUSH1 0x0 SWAP1 SLOAD SWAP1 PUSH2 0x100 EXP SWAP1 DIV PUSH1 0xFF AND DUP1 ISZERO PUSH2 0x2022 JUMPI POP PUSH1 0xC PUSH1 0x0 CALLER PUSH20 0xFFFFFFFFFFFFFFFFFFFFFFFFFFFFFFFFFFFFFFFF AND PUSH20 0xFFFFFFFFFFFFFFFFFFFFFFFFFFFFFFFFFFFFFFFF AND DUP2 MSTORE PUSH1 0x20 ADD SWAP1 DUP2 MSTORE PUSH1 0x20 ADD PUSH1 0x0 KECCAK256 PUSH1 0x0 SWAP1 SLOAD SWAP1 PUSH2 0x100 EXP SWAP1 DIV PUSH1 0xFF AND ISZERO JUMPDEST ISZERO PUSH2 0x2081 JUMPI PUSH2 0x203B PUSH8 0x5F6D4464F76F6F63 PUSH1 0xC0 SHL PUSH2 0x2E4D JUMP JUMPDEST PUSH2 0x204F PUSH8 0x9C895F1E81BD0073 PUSH1 0xC0 SHL PUSH2 0x2E4D JUMP JUMPDEST PUSH1 0x40 MLOAD PUSH32 0x584A793800000000000000000000000000000000000000000000000000000000 DUP2 MSTORE PUSH1 0x4 ADD PUSH1 0x40 MLOAD DUP1 SWAP2 SUB SWAP1 REVERT JUMPDEST PUSH2 0x2095 PUSH8 0xC7394731E6027B0A PUSH1 0xC0 SHL PUSH2 0x2E4D JUMP JUMPDEST PUSH2 0x20A9 PUSH8 0xC72B16A4DC080F60 PUSH1 0xC0 SHL PUSH2 0x2E4D JUMP JUMPDEST PUSH2 0x20BD PUSH8 0xAB0FB858315D6C74 PUSH1 0xC0 SHL PUSH2 0x2E4D JUMP JUMPDEST PUSH2 0x20D1 PUSH8 0xD168A2B14EC1DDF7 PUSH1 0xC0 SHL PUSH2 0x2E4D JUMP JUMPDEST PUSH2 0x20E5 PUSH8 0xE044B1E6A3C7BBA PUSH1 0xC0 SHL PUSH2 0x2E4D JUMP JUMPDEST PUSH2 0x20F9 PUSH8 0x3EB104D3DA1761D4 PUSH1 0xC0 SHL PUSH2 0x2E4D JUMP JUMPDEST PUSH1 0x0 DUP2 SUB PUSH2 0x215B JUMPI PUSH2 0x2115 PUSH8 0xF24AC40D76DAD0FE PUSH1 0xC0 SHL PUSH2 0x2E4D JUMP JUMPDEST PUSH2 0x2129 PUSH8 0x3D3B1BD09037572D PUSH1 0xC0 SHL PUSH2 0x2E4D JUMP JUMPDEST PUSH1 0x40 MLOAD PUSH32 0x1F2A200500000000000000000000000000000000000000000000000000000000 DUP2 MSTORE PUSH1 0x4 ADD PUSH1 0x40 MLOAD DUP1 SWAP2 SUB SWAP1 REVERT JUMPDEST PUSH2 0x216F PUSH8 0xCE63CA2BBE379B9F PUSH1 0xC0 SHL PUSH2 0x2E4D JUMP JUMPDEST PUSH2 0x2183 PUSH8 0x3D9B3A944656B87F PUSH1 0xC0 SHL PUSH2 0x2E4D JUMP JUMPDEST PUSH2 0x2197 PUSH8 0x93053CF8716139F6 PUSH1 0xC0 SHL PUSH2 0x2E4D JUMP JUMPDEST PUSH1 0x0 PUSH1 0x2 SLOAD GT DUP1 ISZERO PUSH2 0x21AA JUMPI POP PUSH1 0x2 SLOAD DUP2 LT JUMPDEST ISZERO PUSH2 0x2209 JUMPI PUSH2 0x21C3 PUSH8 0x99ECAB82B8A3EB8F PUSH1 0xC0 SHL PUSH2 0x2E4D JUMP JUMPDEST PUSH2 0x21D7 PUSH8 0xBDA9F1EF13DD06B2 PUSH1 0xC0 SHL PUSH2 0x2E4D JUMP JUMPDEST PUSH1 0x40 MLOAD PUSH32 0x697FB45900000000000000000000000000000000000000000000000000000000 DUP2 MSTORE PUSH1 0x4 ADD PUSH1 0x40 MLOAD DUP1 SWAP2 SUB SWAP1 REVERT JUMPDEST PUSH2 0x221D PUSH8 0xEFE20B774A274020 PUSH1 0xC0 SHL PUSH2 0x2E4D JUMP JUMPDEST PUSH2 0x2231 PUSH8 0x7F98F3B26C654297 PUSH1 0xC0 SHL PUSH2 0x2E4D JUMP JUMPDEST PUSH2 0x2245 PUSH8 0x308534222C05C0FA PUSH1 0xC0 SHL PUSH2 0x2E4D JUMP JUMPDEST PUSH1 0x0 PUSH1 0x3 SLOAD GT DUP1 ISZERO PUSH2 0x226B JUMPI POP PUSH1 0x3 SLOAD PUSH2 0x225E CALLER PUSH2 0x139B JUMP JUMPDEST DUP3 PUSH2 0x2269 SWAP2 SWAP1 PUSH2 0x4206 JUMP JUMPDEST GT JUMPDEST ISZERO PUSH2 0x22CA JUMPI PUSH2 0x2284 PUSH8 0xC2972967CA56B277 PUSH1 0xC0 SHL PUSH2 0x2E4D JUMP JUMPDEST PUSH2 0x2298 PUSH8 0x7FF43A26C61A78ED PUSH1 0xC0 SHL PUSH2 0x2E4D JUMP JUMPDEST PUSH1 0x40 MLOAD PUSH32 0xFEF49F1900000000000000000000000000000000000000000000000000000000 DUP2 MSTORE PUSH1 0x4 ADD PUSH1 0x40 MLOAD DUP1 SWAP2 SUB SWAP1 REVERT JUMPDEST PUSH2 0x22DE PUSH8 0x9B72755F6ED789EB PUSH1 0xC0 SHL PUSH2 0x2E4D JUMP JUMPDEST PUSH2 0x22F2 PUSH8 0x7BB2A500532480F5 PUSH1 0xC0 SHL PUSH2 0x2E4D JUMP JUMPDEST PUSH2 0x2306 PUSH8 0xDDC49015A0829A98 PUSH1 0xC0 SHL PUSH2 0x2E4D JUMP JUMPDEST PUSH1 0x0 PUSH1 0xB PUSH1 0x0 CALLER PUSH20 0xFFFFFFFFFFFFFFFFFFFFFFFFFFFFFFFFFFFFFFFF AND PUSH20 0xFFFFFFFFFFFFFFFFFFFFFFFFFFFFFFFFFFFFFFFF AND DUP2 MSTORE PUSH1 0x20 ADD SWAP1 DUP2 MSTORE PUSH1 0x20 ADD PUSH1 0x0 KECCAK256 SLOAD SWAP1 POP PUSH2 0x235E PUSH8 0x65BDADA9C7FAE793 PUSH1 0xC0 SHL PUSH2 0x2E4D JUMP JUMPDEST PUSH1 0x40 MLOAD DUP1 PUSH2 0x100 ADD PUSH1 0x40 MSTORE DUP1 DUP4 DUP2 MSTORE PUSH1 0x20 ADD TIMESTAMP PUSH4 0xFFFFFFFF AND DUP2 MSTORE PUSH1 0x20 ADD PUSH1 0x0 PUSH4 0xFFFFFFFF AND DUP2 MSTORE PUSH1 0x20 ADD PUSH1 0x0 ISZERO ISZERO DUP2 MSTORE PUSH1 0x20 ADD PUSH1 0x4 SLOAD DUP2 MSTORE PUSH1 0x20 ADD PUSH1 0x8 SLOAD DUP2 MSTORE PUSH1 0x20 ADD PUSH1 0x7 SLOAD DUP2 MSTORE PUSH1 0x20 ADD PUSH1 0x1 SLOAD PUSH4 0xFFFFFFFF AND DUP2 MSTORE POP PUSH1 0xA PUSH1 0x0 CALLER PUSH20 0xFFFFFFFFFFFFFFFFFFFFFFFFFFFFFFFFFFFFFFFF AND PUSH20 0xFFFFFFFFFFFFFFFFFFFFFFFFFFFFFFFFFFFFFFFF AND DUP2 MSTORE PUSH1 0x20 ADD SWAP1 DUP2 MSTORE PUSH1 0x20 ADD PUSH1 0x0 KECCAK256 PUSH1 0x0 DUP4 DUP2 MSTORE PUSH1 0x20 ADD SWAP1 DUP2 MSTORE PUSH1 0x20 ADD PUSH1 0x0 KECCAK256 PUSH1 0x0 DUP3 ADD MLOAD DUP2 PUSH1 0x0 ADD SSTORE PUSH1 0x20 DUP3 ADD MLOAD DUP2 PUSH1 0x1 ADD PUSH1 0x0 PUSH2 0x100 EXP DUP2 SLOAD DUP2 PUSH4 0xFFFFFFFF MUL NOT AND SWAP1 DUP4 PUSH4 0xFFFFFFFF AND MUL OR SWAP1 SSTORE POP PUSH1 0x40 DUP3 ADD MLOAD DUP2 PUSH1 0x1 ADD PUSH1 0x4 PUSH2 0x100 EXP DUP2 SLOAD DUP2 PUSH4 0xFFFFFFFF MUL NOT AND SWAP1 DUP4 PUSH4 0xFFFFFFFF AND MUL OR SWAP1 SSTORE POP PUSH1 0x60 DUP3 ADD MLOAD DUP2 PUSH1 0x1 ADD PUSH1 0x8 PUSH2 0x100 EXP DUP2 SLOAD DUP2 PUSH1 0xFF MUL NOT AND SWAP1 DUP4 ISZERO ISZERO MUL OR SWAP1 SSTORE POP PUSH1 0x80 DUP3 ADD MLOAD DUP2 PUSH1 0x2 ADD SSTORE PUSH1 0xA0 DUP3 ADD MLOAD DUP2 PUSH1 0x3 ADD SSTORE PUSH1 0xC0 DUP3 ADD MLOAD DUP2 PUSH1 0x4 ADD SSTORE PUSH1 0xE0 DUP3 ADD MLOAD DUP2 PUSH1 0x5 ADD PUSH1 0x0 PUSH2 0x100 EXP DUP2 SLOAD DUP2 PUSH4 0xFFFFFFFF MUL NOT AND SWAP1 DUP4 PUSH4 0xFFFFFFFF AND MUL OR SWAP1 SSTORE POP SWAP1 POP POP PUSH2 0x24DA PUSH8 0xE8224F5CF94B9723 PUSH1 0xC0 SHL PUSH2 0x2E4D JUMP JUMPDEST PUSH1 0xB PUSH1 0x0 CALLER PUSH20 0xFFFFFFFFFFFFFFFFFFFFFFFFFFFFFFFFFFFFFFFF AND PUSH20 0xFFFFFFFFFFFFFFFFFFFFFFFFFFFFFFFFFFFFFFFF AND DUP2 MSTORE PUSH1 0x20 ADD SWAP1 DUP2 MSTORE PUSH1 0x20 ADD PUSH1 0x0 KECCAK256 PUSH1 0x0 DUP2 SLOAD DUP1 SWAP3 SWAP2 SWAP1 PUSH2 0x252A SWAP1 PUSH2 0x4341 JUMP JUMPDEST SWAP2 SWAP1 POP SSTORE POP PUSH2 0x2543 PUSH8 0x5C04E90F7A0A31F9 PUSH1 0xC0 SHL PUSH2 0x2E4D JUMP JUMPDEST DUP2 PUSH1 0xD PUSH1 0x0 DUP3 DUP3 SLOAD PUSH2 0x2555 SWAP2 SWAP1 PUSH2 0x4206 JUMP JUMPDEST SWAP3 POP POP DUP2 SWAP1 SSTORE POP PUSH2 0x2570 PUSH8 0x1529646ECF448EE6 PUSH1 0xC0 SHL PUSH2 0x2E4D JUMP JUMPDEST PUSH8 0xDE0B6B3A7640000 PUSH2 0x2587 PUSH1 0x1 SLOAD PUSH1 0x4 SLOAD PUSH2 0x779 JUMP JUMPDEST DUP4 PUSH2 0x2592 SWAP2 SWAP1 PUSH2 0x4164 JUMP JUMPDEST PUSH2 0x259C SWAP2 SWAP1 PUSH2 0x41D5 JUMP JUMPDEST PUSH1 0xF PUSH1 0x0 DUP3 DUP3 SLOAD PUSH2 0x25AD SWAP2 SWAP1 PUSH2 0x4206 JUMP JUMPDEST SWAP3 POP POP DUP2 SWAP1 SSTORE POP PUSH2 0x25C8 PUSH8 0x6A4F9D234FD0C0B1 PUSH1 0xC0 SHL PUSH2 0x2E4D JUMP JUMPDEST PUSH2 0x25DC PUSH8 0x68B9E7CCC732B445 PUSH1 0xC0 SHL PUSH2 0x2E4D JUMP JUMPDEST PUSH2 0x2629 CALLER ADDRESS DUP5 PUSH1 0x0 DUP1 SLOAD SWAP1 PUSH2 0x100 EXP SWAP1 DIV PUSH20 0xFFFFFFFFFFFFFFFFFFFFFFFFFFFFFFFFFFFFFFFF AND PUSH20 0xFFFFFFFFFFFFFFFFFFFFFFFFFFFFFFFFFFFFFFFF AND PUSH2 0x2ED7 SWAP1 SWAP4 SWAP3 SWAP2 SWAP1 PUSH4 0xFFFFFFFF AND JUMP JUMPDEST PUSH2 0x263D PUSH8 0x47FDBB551B51AA9 PUSH1 0xC0 SHL PUSH2 0x2E4D JUMP JUMPDEST PUSH2 0x2651 PUSH8 0x5D3DA345D08EC2BC PUSH1 0xC0 SHL PUSH2 0x2E4D JUMP JUMPDEST CALLER PUSH20 0xFFFFFFFFFFFFFFFFFFFFFFFFFFFFFFFFFFFFFFFF AND PUSH32 0x9E71BC8EEA02A63969F509818F2DAFB9254532904319F9DBDA79B67BD34A5F3D DUP4 PUSH1 0x40 MLOAD PUSH2 0x2697 SWAP2 SWAP1 PUSH2 0x3C80 JUMP JUMPDEST PUSH1 0x40 MLOAD DUP1 SWAP2 SUB SWAP1 LOG2 POP PUSH2 0x26A8 PUSH2 0x34B9 JUMP JUMPDEST POP JUMP JUMPDEST PUSH2 0x26BF PUSH8 0x64224E5135551AC4 PUSH1 0xC0 SHL PUSH2 0x2E4D JUMP JUMPDEST PUSH2 0x26C7 PUSH2 0x2E50 JUMP JUMPDEST PUSH2 0x26DB PUSH8 0x8B1AB29CD215AE42 PUSH1 0xC0 SHL PUSH2 0x2E4D JUMP JUMPDEST PUSH2 0x26EF PUSH8 0xBE46F85F1661D4AB PUSH1 0xC0 SHL PUSH2 0x2E4D JUMP JUMPDEST PUSH2 0x2703 PUSH8 0x47030BCAC017551B PUSH1 0xC0 SHL PUSH2 0x2E4D JUMP JUMPDEST DUP1 PUSH1 0x8 DUP2 SWAP1 SSTORE POP POP JUMP JUMPDEST PUSH1 0xA PUSH1 0x20 MSTORE DUP2 PUSH1 0x0 MSTORE PUSH1 0x40 PUSH1 0x0 KECCAK256 PUSH1 0x20 MSTORE DUP1 PUSH1 0x0 MSTORE PUSH1 0x40 PUSH1 0x0 KECCAK256 PUSH1 0x0 SWAP2 POP SWAP2 POP POP DUP1 PUSH1 0x0 ADD SLOAD SWAP1 DUP1 PUSH1 0x1 ADD PUSH1 0x0 SWAP1 SLOAD SWAP1 PUSH2 0x100 EXP SWAP1 DIV PUSH4 0xFFFFFFFF AND SWAP1 DUP1 PUSH1 0x1 ADD PUSH1 0x4 SWAP1 SLOAD SWAP1 PUSH2 0x100 EXP SWAP1 DIV PUSH4 0xFFFFFFFF AND SWAP1 DUP1 PUSH1 0x1 ADD PUSH1 0x8 SWAP1 SLOAD SWAP1 PUSH2 0x100 EXP SWAP1 DIV PUSH1 0xFF AND SWAP1 DUP1 PUSH1 0x2 ADD SLOAD SWAP1 DUP1 PUSH1 0x3 ADD SLOAD SWAP1 DUP1 PUSH1 0x4 ADD SLOAD SWAP1 DUP1 PUSH1 0x5 ADD PUSH1 0x0 SWAP1 SLOAD SWAP1 PUSH2 0x100 EXP SWAP1 DIV PUSH4 0xFFFFFFFF AND SWAP1 POP DUP9 JUMP JUMPDEST PUSH2 0x27B3 PUSH8 0x5EBF4BE0A0CA6296 PUSH1 0xC0 SHL PUSH2 0x2E4D JUMP JUMPDEST PUSH2 0x27BB PUSH2 0x2E50 JUMP JUMPDEST PUSH2 0x27CF PUSH8 0x9F561673969F8EA6 PUSH1 0xC0 SHL PUSH2 0x2E4D JUMP JUMPDEST PUSH2 0x27E3 PUSH8 0x39985F0E2A42C797 PUSH1 0xC0 SHL PUSH2 0x2E4D JUMP JUMPDEST PUSH2 0x27F7 PUSH8 0x6D759AE3D9E21840 PUSH1 0xC0 SHL PUSH2 0x2E4D JUMP JUMPDEST DUP1 PUSH1 0x2 DUP2 SWAP1 SSTORE POP POP JUMP JUMPDEST PUSH2 0x2815 PUSH8 0xA3D29664AFDBB61B PUSH1 0xC0 SHL PUSH2 0x2E4D JUMP JUMPDEST PUSH2 0x281D PUSH2 0x2E50 JUMP JUMPDEST PUSH2 0x2831 PUSH8 0xD2C273555041FE25 PUSH1 0xC0 SHL PUSH2 0x2E4D JUMP JUMPDEST PUSH2 0x2845 PUSH8 0x136A667735FE3235 PUSH1 0xC0 SHL PUSH2 0x2E4D JUMP JUMPDEST PUSH2 0x2859 PUSH8 0x8003D19608D7114 PUSH1 0xC0 SHL PUSH2 0x2E4D JUMP JUMPDEST PUSH2 0x286D PUSH8 0x6DEACBFF592A8A89 PUSH1 0xC0 SHL PUSH2 0x2E4D JUMP JUMPDEST PUSH1 0x0 DUP2 SUB PUSH2 0x28CF JUMPI PUSH2 0x2889 PUSH8 0x808B078107652CB4 PUSH1 0xC0 SHL PUSH2 0x2E4D JUMP JUMPDEST PUSH2 0x289D PUSH8 0x53DFFF9434A9F75D PUSH1 0xC0 SHL PUSH2 0x2E4D JUMP JUMPDEST PUSH1 0x40 MLOAD PUSH32 0x1F2A200500000000000000000000000000000000000000000000000000000000 DUP2 MSTORE PUSH1 0x4 ADD PUSH1 0x40 MLOAD DUP1 SWAP2 SUB SWAP1 REVERT JUMPDEST PUSH2 0x28E3 PUSH8 0x4209EC8FF5E1744A PUSH1 0xC0 SHL PUSH2 0x2E4D JUMP JUMPDEST PUSH2 0x28F7 PUSH8 0x2891C9B5A9270C41 PUSH1 0xC0 SHL PUSH2 0x2E4D JUMP JUMPDEST PUSH2 0x290B PUSH8 0x852960116007B77F PUSH1 0xC0 SHL PUSH2 0x2E4D JUMP JUMPDEST DUP1 PUSH1 0xF SLOAD PUSH1 0xE SLOAD PUSH2 0x291C SWAP2 SWAP1 PUSH2 0x423A JUMP JUMPDEST LT ISZERO PUSH2 0x297C JUMPI PUSH2 0x2936 PUSH8 0xA78893D48AA2BAE1 PUSH1 0xC0 SHL PUSH2 0x2E4D JUMP JUMPDEST PUSH2 0x294A PUSH8 0xDDB75427835015A5 PUSH1 0xC0 SHL PUSH2 0x2E4D JUMP JUMPDEST PUSH1 0x40 MLOAD PUSH32 0x3270436B00000000000000000000000000000000000000000000000000000000 DUP2 MSTORE PUSH1 0x4 ADD PUSH1 0x40 MLOAD DUP1 SWAP2 SUB SWAP1 REVERT JUMPDEST PUSH2 0x2990 PUSH8 0xFB8A50ECF42BA1C2 PUSH1 0xC0 SHL PUSH2 0x2E4D JUMP JUMPDEST PUSH2 0x29A4 PUSH8 0xB4063789C1B7D9CB PUSH1 0xC0 SHL PUSH2 0x2E4D JUMP JUMPDEST DUP1 PUSH1 0xE PUSH1 0x0 DUP3 DUP3 SLOAD PUSH2 0x29B6 SWAP2 SWAP1 PUSH2 0x423A JUMP JUMPDEST SWAP3 POP POP DUP2 SWAP1 SSTORE POP PUSH2 0x29D1 PUSH8 0x4DE7CC99EEA178DB PUSH1 0xC0 SHL PUSH2 0x2E4D JUMP JUMPDEST PUSH2 0x29E5 PUSH8 0x815321FE4BC285B8 PUSH1 0xC0 SHL PUSH2 0x2E4D JUMP JUMPDEST PUSH2 0x2A30 CALLER DUP3 PUSH1 0x0 DUP1 SLOAD SWAP1 PUSH2 0x100 EXP SWAP1 DIV PUSH20 0xFFFFFFFFFFFFFFFFFFFFFFFFFFFFFFFFFFFFFFFF AND PUSH20 0xFFFFFFFFFFFFFFFFFFFFFFFFFFFFFFFFFFFFFFFF AND PUSH2 0x377E SWAP1 SWAP3 SWAP2 SWAP1 PUSH4 0xFFFFFFFF AND JUMP JUMPDEST PUSH2 0x2A44 PUSH8 0x1153B7D5FE9EDD4C PUSH1 0xC0 SHL PUSH2 0x2E4D JUMP JUMPDEST PUSH2 0x2A58 PUSH8 0xBBBA4D2BC7D3C862 PUSH1 0xC0 SHL PUSH2 0x2E4D JUMP JUMPDEST CALLER PUSH20 0xFFFFFFFFFFFFFFFFFFFFFFFFFFFFFFFFFFFFFFFF AND PUSH32 0x884EDAD9CE6FA2440D8A54CC123490EB96D2768479D49FF9C7366125A9424364 DUP3 PUSH1 0x40 MLOAD PUSH2 0x2A9E SWAP2 SWAP1 PUSH2 0x3C80 JUMP JUMPDEST PUSH1 0x40 MLOAD DUP1 SWAP2 SUB SWAP1 LOG2 POP JUMP JUMPDEST PUSH2 0x2ABD PUSH8 0x8A60BBB918F1B254 PUSH1 0xC0 SHL PUSH2 0x2E4D JUMP JUMPDEST PUSH2 0x2AC5 PUSH2 0x2E50 JUMP JUMPDEST PUSH2 0x2AD9 PUSH8 0xDD56D355DCE5DE37 PUSH1 0xC0 SHL PUSH2 0x2E4D JUMP JUMPDEST PUSH2 0x2AED PUSH8 0x89774E0BDA482BAD PUSH1 0xC0 SHL PUSH2 0x2E4D JUMP JUMPDEST PUSH2 0x2B01 PUSH8 0x16F7ACF73AE701BC PUSH1 0xC0 SHL PUSH2 0x2E4D JUMP JUMPDEST PUSH1 0x1 PUSH1 0x9 PUSH1 0x0 PUSH2 0x100 EXP DUP2 SLOAD DUP2 PUSH1 0xFF MUL NOT AND SWAP1 DUP4 ISZERO ISZERO MUL OR SWAP1 SSTORE POP JUMP JUMPDEST PUSH2 0x2B32 PUSH8 0x6BF69B1412DEBB96 PUSH1 0xC0 SHL PUSH2 0x2E4D JUMP JUMPDEST PUSH2 0x2B3A PUSH2 0x2E50 JUMP JUMPDEST PUSH2 0x2B4E PUSH8 0xD45D768B7ED4BDF1 PUSH1 0xC0 SHL PUSH2 0x2E4D JUMP JUMPDEST PUSH2 0x2B62 PUSH8 0x91F2C9A14EC7C40D PUSH1 0xC0 SHL PUSH2 0x2E4D JUMP JUMPDEST PUSH2 0x2B76 PUSH8 0x2D5EF73C2979AD3D PUSH1 0xC0 SHL PUSH2 0x2E4D JUMP JUMPDEST PUSH1 0x0 PUSH1 0x9 PUSH1 0x0 PUSH2 0x100 EXP DUP2 SLOAD DUP2 PUSH1 0xFF MUL NOT AND SWAP1 DUP4 ISZERO ISZERO MUL OR SWAP1 SSTORE POP JUMP JUMPDEST PUSH2 0x2BA7 PUSH8 0x57E715CB116AEEE0 PUSH1 0xC0 SHL PUSH2 0x2E4D JUMP JUMPDEST PUSH2 0x2BAF PUSH2 0x2E50 JUMP JUMPDEST PUSH2 0x2BC3 PUSH8 0x155B71F2E3AC1CE2 PUSH1 0xC0 SHL PUSH2 0x2E4D JUMP JUMPDEST PUSH2 0x2BD7 PUSH8 0xDF70DB9E8E7C5AB2 PUSH1 0xC0 SHL PUSH2 0x2E4D JUMP JUMPDEST PUSH2 0x2BEB PUSH8 0x1FE571415FF38247 PUSH1 0xC0 SHL PUSH2 0x2E4D JUMP JUMPDEST PUSH1 0x1 PUSH1 0xC PUSH1 0x0 DUP4 PUSH20 0xFFFFFFFFFFFFFFFFFFFFFFFFFFFFFFFFFFFFFFFF AND PUSH20 0xFFFFFFFFFFFFFFFFFFFFFFFFFFFFFFFFFFFFFFFF AND DUP2 MSTORE PUSH1 0x20 ADD SWAP1 DUP2 MSTORE PUSH1 0x20 ADD PUSH1 0x0 KECCAK256 PUSH1 0x0 PUSH2 0x100 EXP DUP2 SLOAD DUP2 PUSH1 0xFF MUL NOT AND SWAP1 DUP4 ISZERO ISZERO MUL OR SWAP1 SSTORE POP PUSH2 0x2C57 PUSH8 0x783F768E9BBFC237 PUSH1 0xC0 SHL PUSH2 0x2E4D JUMP JUMPDEST PUSH2 0x2C6B PUSH8 0x4DBDCCFA13A72DB3 PUSH1 0xC0 SHL PUSH2 0x2E4D JUMP JUMPDEST DUP1 PUSH20 0xFFFFFFFFFFFFFFFFFFFFFFFFFFFFFFFFFFFFFFFF AND PUSH32 0x8DAAF060C3306C38E068A75C054BF96ECD85A3DB1252712C4D93632744C42E0D PUSH1 0x1 PUSH1 0x40 MLOAD PUSH2 0x2CB2 SWAP2 SWAP1 PUSH2 0x3D41 JUMP JUMPDEST PUSH1 0x40 MLOAD DUP1 SWAP2 SUB SWAP1 LOG2 POP JUMP JUMPDEST PUSH2 0x2CD1 PUSH8 0xCDB16107BF334FFE PUSH1 0xC0 SHL PUSH2 0x2E4D JUMP JUMPDEST PUSH2 0x2CD9 PUSH2 0x2E50 JUMP JUMPDEST PUSH2 0x2CED PUSH8 0x5EC5364C188FB755 PUSH1 0xC0 SHL PUSH2 0x2E4D JUMP JUMPDEST PUSH2 0x2D01 PUSH8 0x4E02617731E123E8 PUSH1 0xC0 SHL PUSH2 0x2E4D JUMP JUMPDEST PUSH2 0x2D15 PUSH8 0xA9C53030B7A38E14 PUSH1 0xC0 SHL PUSH2 0x2E4D JUMP JUMPDEST DUP1 PUSH1 0x7 DUP2 SWAP1 SSTORE POP POP JUMP JUMPDEST PUSH2 0x2D33 PUSH8 0xD2AF7686B151C603 PUSH1 0xC0 SHL PUSH2 0x2E4D JUMP JUMPDEST PUSH2 0x2D3B PUSH2 0x2E50 JUMP JUMPDEST PUSH2 0x2D4F PUSH8 0x130E20711C6DD8D1 PUSH1 0xC0 SHL PUSH2 0x2E4D JUMP JUMPDEST PUSH2 0x2D63 PUSH8 0x7041CE65391F63EC PUSH1 0xC0 SHL PUSH2 0x2E4D JUMP JUMPDEST PUSH2 0x2D77 PUSH8 0x85F36FB776CF6725 PUSH1 0xC0 SHL PUSH2 0x2E4D JUMP JUMPDEST DUP1 PUSH1 0x3 DUP2 SWAP1 SSTORE POP POP JUMP JUMPDEST PUSH1 0x0 PUSH2 0x2D97 PUSH8 0x3D0A2D5DEF5284D2 PUSH1 0xC0 SHL PUSH2 0x2E4D JUMP JUMPDEST PUSH2 0x2DAB PUSH8 0x954E657BE076DF69 PUSH1 0xC0 SHL PUSH2 0x2E4D JUMP JUMPDEST PUSH2 0x2DBF PUSH8 0xA722DCEE375DB32B PUSH1 0xC0 SHL PUSH2 0x2E4D JUMP JUMPDEST PUSH1 0xF SLOAD SWAP1 POP SWAP1 JUMP JUMPDEST PUSH2 0x2DCF PUSH2 0x2E50 JUMP JUMPDEST PUSH1 0x0 PUSH20 0xFFFFFFFFFFFFFFFFFFFFFFFFFFFFFFFFFFFFFFFF AND DUP2 PUSH20 0xFFFFFFFFFFFFFFFFFFFFFFFFFFFFFFFFFFFFFFFF AND SUB PUSH2 0x2E41 JUMPI PUSH1 0x0 PUSH1 0x40 MLOAD PUSH32 0x1E4FBDF700000000000000000000000000000000000000000000000000000000 DUP2 MSTORE PUSH1 0x4 ADD PUSH2 0x2E38 SWAP2 SWAP1 PUSH2 0x404D JUMP JUMPDEST PUSH1 0x40 MLOAD DUP1 SWAP2 SUB SWAP1 REVERT JUMPDEST PUSH2 0x2E4A DUP2 PUSH2 0x35CC JUMP JUMPDEST POP JUMP JUMPDEST POP JUMP JUMPDEST PUSH2 0x2E58 PUSH2 0x37FD JUMP JUMPDEST PUSH20 0xFFFFFFFFFFFFFFFFFFFFFFFFFFFFFFFFFFFFFFFF AND PUSH2 0x2E76 PUSH2 0x1ED4 JUMP JUMPDEST PUSH20 0xFFFFFFFFFFFFFFFFFFFFFFFFFFFFFFFFFFFFFFFF AND EQ PUSH2 0x2ED5 JUMPI PUSH2 0x2E99 PUSH2 0x37FD JUMP JUMPDEST PUSH1 0x40 MLOAD PUSH32 0x118CDAA700000000000000000000000000000000000000000000000000000000 DUP2 MSTORE PUSH1 0x4 ADD PUSH2 0x2ECC SWAP2 SWAP1 PUSH2 0x404D JUMP JUMPDEST PUSH1 0x40 MLOAD DUP1 SWAP2 SUB SWAP1 REVERT JUMPDEST JUMP JUMPDEST PUSH2 0x2F53 DUP5 DUP6 PUSH20 0xFFFFFFFFFFFFFFFFFFFFFFFFFFFFFFFFFFFFFFFF AND PUSH4 0x23B872DD DUP7 DUP7 DUP7 PUSH1 0x40 MLOAD PUSH1 0x24 ADD PUSH2 0x2F0C SWAP4 SWAP3 SWAP2 SWAP1 PUSH2 0x4389 JUMP JUMPDEST PUSH1 0x40 MLOAD PUSH1 0x20 DUP2 DUP4 SUB SUB DUP2 MSTORE SWAP1 PUSH1 0x40 MSTORE SWAP2 POP PUSH1 0xE0 SHL PUSH1 0x20 DUP3 ADD DUP1 MLOAD PUSH28 0xFFFFFFFFFFFFFFFFFFFFFFFFFFFFFFFFFFFFFFFFFFFFFFFFFFFFFFFF DUP4 DUP2 DUP4 AND OR DUP4 MSTORE POP POP POP POP PUSH2 0x3805 JUMP JUMPDEST POP POP POP POP JUMP JUMPDEST PUSH1 0x0 PUSH2 0x2F63 PUSH2 0x389C JUMP JUMPDEST SWAP1 POP PUSH1 0x2 DUP2 PUSH1 0x0 ADD SLOAD SUB PUSH2 0x2FA3 JUMPI PUSH1 0x40 MLOAD PUSH32 0x3EE5AEB500000000000000000000000000000000000000000000000000000000 DUP2 MSTORE PUSH1 0x4 ADD PUSH1 0x40 MLOAD DUP1 SWAP2 SUB SWAP1 REVERT JUMPDEST PUSH1 0x2 DUP2 PUSH1 0x0 ADD DUP2 SWAP1 SSTORE POP POP JUMP JUMPDEST PUSH2 0x2FC4 PUSH8 0xBDFDE5E8D749625 PUSH1 0xC0 SHL PUSH2 0x2E4D JUMP JUMPDEST PUSH2 0x2FD8 PUSH8 0x6749C6D6BA005464 PUSH1 0xC0 SHL PUSH2 0x2E4D JUMP JUMPDEST PUSH2 0x2FEC PUSH8 0xC182D4F1E36DCAE1 PUSH1 0xC0 SHL PUSH2 0x2E4D JUMP JUMPDEST PUSH1 0x0 PUSH1 0xA PUSH1 0x0 DUP5 PUSH20 0xFFFFFFFFFFFFFFFFFFFFFFFFFFFFFFFFFFFFFFFF AND PUSH20 0xFFFFFFFFFFFFFFFFFFFFFFFFFFFFFFFFFFFFFFFF AND DUP2 MSTORE PUSH1 0x20 ADD SWAP1 DUP2 MSTORE PUSH1 0x20 ADD PUSH1 0x0 KECCAK256 PUSH1 0x0 DUP4 DUP2 MSTORE PUSH1 0x20 ADD SWAP1 DUP2 MSTORE PUSH1 0x20 ADD PUSH1 0x0 KECCAK256 SWAP1 POP PUSH2 0x3054 PUSH8 0xFE2BF72B56033C89 PUSH1 0xC0 SHL PUSH2 0x2E4D JUMP JUMPDEST PUSH2 0x3068 PUSH8 0x7F21C96AE2E56693 PUSH1 0xC0 SHL PUSH2 0x2E4D JUMP JUMPDEST PUSH1 0x0 DUP2 PUSH1 0x0 ADD SLOAD SWAP1 POP PUSH2 0x3085 PUSH8 0xC311A3E913C98C12 PUSH1 0xC0 SHL PUSH2 0x2E4D JUMP JUMPDEST PUSH2 0x3099 PUSH8 0xF70459DAFB42DA97 PUSH1 0xC0 SHL PUSH2 0x2E4D JUMP JUMPDEST PUSH1 0x0 PUSH2 0x30F4 DUP3 DUP5 PUSH1 0x1 ADD PUSH1 0x0 SWAP1 SLOAD SWAP1 PUSH2 0x100 EXP SWAP1 DIV PUSH4 0xFFFFFFFF AND PUSH4 0xFFFFFFFF AND TIMESTAMP PUSH2 0x30C5 SWAP2 SWAP1 PUSH2 0x423A JUMP JUMPDEST DUP6 PUSH1 0x2 ADD SLOAD DUP7 PUSH1 0x3 ADD SLOAD DUP8 PUSH1 0x4 ADD SLOAD DUP9 PUSH1 0x5 ADD PUSH1 0x0 SWAP1 SLOAD SWAP1 PUSH2 0x100 EXP SWAP1 DIV PUSH4 0xFFFFFFFF AND PUSH4 0xFFFFFFFF AND PUSH2 0xB38 JUMP JUMPDEST SWAP1 POP PUSH2 0x310A PUSH8 0xE27377FCFE60DA4C PUSH1 0xC0 SHL PUSH2 0x2E4D JUMP JUMPDEST PUSH2 0x311E PUSH8 0xEBB1A41560C4349D PUSH1 0xC0 SHL PUSH2 0x2E4D JUMP JUMPDEST PUSH1 0x0 DUP3 DUP3 PUSH2 0x312C SWAP2 SWAP1 PUSH2 0x423A JUMP JUMPDEST SWAP1 POP PUSH2 0x3142 PUSH8 0x4E5827196005202A PUSH1 0xC0 SHL PUSH2 0x2E4D JUMP JUMPDEST DUP3 PUSH1 0xD PUSH1 0x0 DUP3 DUP3 SLOAD PUSH2 0x3154 SWAP2 SWAP1 PUSH2 0x423A JUMP JUMPDEST SWAP3 POP POP DUP2 SWAP1 SSTORE POP PUSH2 0x316F PUSH8 0x13E94F0456097CA9 PUSH1 0xC0 SHL PUSH2 0x2E4D JUMP JUMPDEST DUP1 PUSH1 0xE PUSH1 0x0 DUP3 DUP3 SLOAD PUSH2 0x3181 SWAP2 SWAP1 PUSH2 0x423A JUMP JUMPDEST SWAP3 POP POP DUP2 SWAP1 SSTORE POP PUSH2 0x319C PUSH8 0xBAB595A3BB5FB833 PUSH1 0xC0 SHL PUSH2 0x2E4D JUMP JUMPDEST DUP1 PUSH1 0xF PUSH1 0x0 DUP3 DUP3 SLOAD PUSH2 0x31AE SWAP2 SWAP1 PUSH2 0x423A JUMP JUMPDEST SWAP3 POP POP DUP2 SWAP1 SSTORE POP PUSH2 0x31C9 PUSH8 0x92F660AE3A407590 PUSH1 0xC0 SHL PUSH2 0x2E4D JUMP JUMPDEST PUSH1 0xA PUSH1 0x0 DUP8 PUSH20 0xFFFFFFFFFFFFFFFFFFFFFFFFFFFFFFFFFFFFFFFF AND PUSH20 0xFFFFFFFFFFFFFFFFFFFFFFFFFFFFFFFFFFFFFFFF AND DUP2 MSTORE PUSH1 0x20 ADD SWAP1 DUP2 MSTORE PUSH1 0x20 ADD PUSH1 0x0 KECCAK256 PUSH1 0x0 DUP7 DUP2 MSTORE PUSH1 0x20 ADD SWAP1 DUP2 MSTORE PUSH1 0x20 ADD PUSH1 0x0 KECCAK256 PUSH1 0x0 DUP1 DUP3 ADD PUSH1 0x0 SWAP1 SSTORE PUSH1 0x1 DUP3 ADD PUSH1 0x0 PUSH2 0x100 EXP DUP2 SLOAD SWAP1 PUSH4 0xFFFFFFFF MUL NOT AND SWAP1 SSTORE PUSH1 0x1 DUP3 ADD PUSH1 0x4 PUSH2 0x100 EXP DUP2 SLOAD SWAP1 PUSH4 0xFFFFFFFF MUL NOT AND SWAP1 SSTORE PUSH1 0x1 DUP3 ADD PUSH1 0x8 PUSH2 0x100 EXP DUP2 SLOAD SWAP1 PUSH1 0xFF MUL NOT AND SWAP1 SSTORE PUSH1 0x2 DUP3 ADD PUSH1 0x0 SWAP1 SSTORE PUSH1 0x3 DUP3 ADD PUSH1 0x0 SWAP1 SSTORE PUSH1 0x4 DUP3 ADD PUSH1 0x0 SWAP1 SSTORE PUSH1 0x5 DUP3 ADD PUSH1 0x0 PUSH2 0x100 EXP DUP2 SLOAD SWAP1 PUSH4 0xFFFFFFFF MUL NOT AND SWAP1 SSTORE POP POP PUSH2 0x32A9 PUSH8 0xBB1C9082132B1E51 PUSH1 0xC0 SHL PUSH2 0x2E4D JUMP JUMPDEST PUSH2 0x32BD PUSH8 0x2E0F8B34A03771CC PUSH1 0xC0 SHL PUSH2 0x2E4D JUMP JUMPDEST PUSH2 0x3308 DUP7 DUP4 PUSH1 0x0 DUP1 SLOAD SWAP1 PUSH2 0x100 EXP SWAP1 DIV PUSH20 0xFFFFFFFFFFFFFFFFFFFFFFFFFFFFFFFFFFFFFFFF AND PUSH20 0xFFFFFFFFFFFFFFFFFFFFFFFFFFFFFFFFFFFFFFFF AND PUSH2 0x377E SWAP1 SWAP3 SWAP2 SWAP1 PUSH4 0xFFFFFFFF AND JUMP JUMPDEST PUSH2 0x331C PUSH8 0x59E2AE14DA7A54C4 PUSH1 0xC0 SHL PUSH2 0x2E4D JUMP JUMPDEST PUSH2 0x3330 PUSH8 0x5E8EAFBAF92E829D PUSH1 0xC0 SHL PUSH2 0x2E4D JUMP JUMPDEST DUP6 PUSH20 0xFFFFFFFFFFFFFFFFFFFFFFFFFFFFFFFFFFFFFFFF AND PUSH32 0x7084F5476618D8E60B11EF0D7D3F06914655ADB8793E28FF7F018D4C76D505D5 DUP4 PUSH1 0x40 MLOAD PUSH2 0x3376 SWAP2 SWAP1 PUSH2 0x3C80 JUMP JUMPDEST PUSH1 0x40 MLOAD DUP1 SWAP2 SUB SWAP1 LOG2 PUSH2 0x3392 PUSH8 0x7605B4F3C0008225 PUSH1 0xC0 SHL PUSH2 0x2E4D JUMP JUMPDEST PUSH2 0x33A6 PUSH8 0x85EDCDF512E23D28 PUSH1 0xC0 SHL PUSH2 0x2E4D JUMP JUMPDEST DUP6 PUSH20 0xFFFFFFFFFFFFFFFFFFFFFFFFFFFFFFFFFFFFFFFF AND PUSH32 0xE2403640BA68FED3A2F88B7557551D1993F84B99BB10FF833F0CF8DB0C5E0486 DUP3 PUSH1 0x40 MLOAD PUSH2 0x33EC SWAP2 SWAP1 PUSH2 0x3C80 JUMP JUMPDEST PUSH1 0x40 MLOAD DUP1 SWAP2 SUB SWAP1 LOG2 PUSH2 0x3408 PUSH8 0x23A6192E293FE0AA PUSH1 0xC0 SHL PUSH2 0x2E4D JUMP JUMPDEST PUSH2 0x341C PUSH8 0x26D46E14DFE6AD74 PUSH1 0xC0 SHL PUSH2 0x2E4D JUMP JUMPDEST PUSH1 0x0 PUSH2 0x3427 DUP8 PUSH2 0x139B JUMP JUMPDEST SUB PUSH2 0x349C JUMPI PUSH2 0x3440 PUSH8 0x6F1EAB6EC8DB93BA PUSH1 0xC0 SHL PUSH2 0x2E4D JUMP JUMPDEST PUSH2 0x3454 PUSH8 0xD03B71ACC375F5D6 PUSH1 0xC0 SHL PUSH2 0x2E4D JUMP JUMPDEST PUSH1 0xB PUSH1 0x0 DUP8 PUSH20 0xFFFFFFFFFFFFFFFFFFFFFFFFFFFFFFFFFFFFFFFF AND PUSH20 0xFFFFFFFFFFFFFFFFFFFFFFFFFFFFFFFFFFFFFFFF AND DUP2 MSTORE PUSH1 0x20 ADD SWAP1 DUP2 MSTORE PUSH1 0x20 ADD PUSH1 0x0 KECCAK256 PUSH1 0x0 SWAP1 SSTORE PUSH2 0x34B1 JUMP JUMPDEST PUSH2 0x34B0 PUSH8 0x118E5ADC8390006 PUSH1 0xC0 SHL PUSH2 0x2E4D JUMP JUMPDEST JUMPDEST POP POP POP POP POP POP JUMP JUMPDEST PUSH1 0x0 PUSH2 0x34C3 PUSH2 0x389C JUMP JUMPDEST SWAP1 POP PUSH1 0x1 DUP2 PUSH1 0x0 ADD DUP2 SWAP1 SSTORE POP POP JUMP JUMPDEST PUSH2 0x34DA PUSH2 0x38C4 JUMP JUMPDEST PUSH1 0x0 PUSH2 0x34E4 PUSH2 0x3544 JUMP JUMPDEST SWAP1 POP PUSH1 0x0 DUP2 PUSH1 0x0 ADD PUSH1 0x0 PUSH2 0x100 EXP DUP2 SLOAD DUP2 PUSH1 0xFF MUL NOT AND SWAP1 DUP4 ISZERO ISZERO MUL OR SWAP1 SSTORE POP PUSH32 0x5DB9EE0A495BF2E6FF9C91A7834C1BA4FDD244A5E8AA4E537BD38AEAE4B073AA PUSH2 0x352C PUSH2 0x37FD JUMP JUMPDEST PUSH1 0x40 MLOAD PUSH2 0x3539 SWAP2 SWAP1 PUSH2 0x404D JUMP JUMPDEST PUSH1 0x40 MLOAD DUP1 SWAP2 SUB SWAP1 LOG1 POP JUMP JUMPDEST PUSH1 0x0 PUSH32 0xCD5ED15C6E187E77E9AEE88184C21F4F2182AB5827CB3B7E07FBEDCD63F03300 SWAP1 POP SWAP1 JUMP JUMPDEST PUSH1 0x0 PUSH32 0xF0C57E16840DF040F15088DC2F81FE391C3923BEC73E23A9662EFC9C229C6A00 SWAP1 POP SWAP1 JUMP JUMPDEST PUSH2 0x359C PUSH2 0x3904 JUMP JUMPDEST PUSH2 0x35A5 DUP2 PUSH2 0x3944 JUMP JUMPDEST POP JUMP JUMPDEST PUSH2 0x35B0 PUSH2 0x3904 JUMP JUMPDEST PUSH2 0x35B8 PUSH2 0x39CA JUMP JUMPDEST JUMP JUMPDEST PUSH2 0x35C2 PUSH2 0x3904 JUMP JUMPDEST PUSH2 0x35CA PUSH2 0x39FE JUMP JUMPDEST JUMP JUMPDEST PUSH1 0x0 PUSH2 0x35D6 PUSH2 0x3715 JUMP JUMPDEST SWAP1 POP PUSH1 0x0 DUP2 PUSH1 0x0 ADD PUSH1 0x0 SWAP1 SLOAD SWAP1 PUSH2 0x100 EXP SWAP1 DIV PUSH20 0xFFFFFFFFFFFFFFFFFFFFFFFFFFFFFFFFFFFFFFFF AND SWAP1 POP DUP3 DUP3 PUSH1 0x0 ADD PUSH1 0x0 PUSH2 0x100 EXP DUP2 SLOAD DUP2 PUSH20 0xFFFFFFFFFFFFFFFFFFFFFFFFFFFFFFFFFFFFFFFF MUL NOT AND SWAP1 DUP4 PUSH20 0xFFFFFFFFFFFFFFFFFFFFFFFFFFFFFFFFFFFFFFFF AND MUL OR SWAP1 SSTORE POP DUP3 PUSH20 0xFFFFFFFFFFFFFFFFFFFFFFFFFFFFFFFFFFFFFFFF AND DUP2 PUSH20 0xFFFFFFFFFFFFFFFFFFFFFFFFFFFFFFFFFFFFFFFF AND PUSH32 0x8BE0079C531659141344CD1FD0A4F28419497F9722A3DAAFE3B4186F6B6457E0 PUSH1 0x40 MLOAD PUSH1 0x40 MLOAD DUP1 SWAP2 SUB SWAP1 LOG3 POP POP POP JUMP JUMPDEST PUSH2 0x36AB PUSH2 0x373D JUMP JUMPDEST PUSH1 0x0 PUSH2 0x36B5 PUSH2 0x3544 JUMP JUMPDEST SWAP1 POP PUSH1 0x1 DUP2 PUSH1 0x0 ADD PUSH1 0x0 PUSH2 0x100 EXP DUP2 SLOAD DUP2 PUSH1 0xFF MUL NOT AND SWAP1 DUP4 ISZERO ISZERO MUL OR SWAP1 SSTORE POP PUSH32 0x62E78CEA01BEE320CD4E420270B5EA74000D11B0C9F74754EBDBFC544B05A258 PUSH2 0x36FD PUSH2 0x37FD JUMP JUMPDEST PUSH1 0x40 MLOAD PUSH2 0x370A SWAP2 SWAP1 PUSH2 0x404D JUMP JUMPDEST PUSH1 0x40 MLOAD DUP1 SWAP2 SUB SWAP1 LOG1 POP JUMP JUMPDEST PUSH1 0x0 PUSH32 0x9016D09D72D40FDAE2FD8CEAC6B6234C7706214FD39C1CD1E609A0528C199300 SWAP1 POP SWAP1 JUMP JUMPDEST PUSH2 0x3745 PUSH2 0x16B5 JUMP JUMPDEST ISZERO PUSH2 0x377C JUMPI PUSH1 0x40 MLOAD PUSH32 0xD93C066500000000000000000000000000000000000000000000000000000000 DUP2 MSTORE PUSH1 0x4 ADD PUSH1 0x40 MLOAD DUP1 SWAP2 SUB SWAP1 REVERT JUMPDEST JUMP JUMPDEST PUSH2 0x37F8 DUP4 DUP5 PUSH20 0xFFFFFFFFFFFFFFFFFFFFFFFFFFFFFFFFFFFFFFFF AND PUSH4 0xA9059CBB DUP6 DUP6 PUSH1 0x40 MLOAD PUSH1 0x24 ADD PUSH2 0x37B1 SWAP3 SWAP2 SWAP1 PUSH2 0x43C0 JUMP JUMPDEST PUSH1 0x40 MLOAD PUSH1 0x20 DUP2 DUP4 SUB SUB DUP2 MSTORE SWAP1 PUSH1 0x40 MSTORE SWAP2 POP PUSH1 0xE0 SHL PUSH1 0x20 DUP3 ADD DUP1 MLOAD PUSH28 0xFFFFFFFFFFFFFFFFFFFFFFFFFFFFFFFFFFFFFFFFFFFFFFFFFFFFFFFF DUP4 DUP2 DUP4 AND OR DUP4 MSTORE POP POP POP POP PUSH2 0x3805 JUMP JUMPDEST POP POP POP JUMP JUMPDEST PUSH1 0x0 CALLER SWAP1 POP SWAP1 JUMP JUMPDEST PUSH1 0x0 PUSH2 0x3830 DUP3 DUP5 PUSH20 0xFFFFFFFFFFFFFFFFFFFFFFFFFFFFFFFFFFFFFFFF AND PUSH2 0x3A1F SWAP1 SWAP2 SWAP1 PUSH4 0xFFFFFFFF AND JUMP JUMPDEST SWAP1 POP PUSH1 0x0 DUP2 MLOAD EQ ISZERO DUP1 ISZERO PUSH2 0x3855 JUMPI POP DUP1 DUP1 PUSH1 0x20 ADD SWAP1 MLOAD DUP2 ADD SWAP1 PUSH2 0x3853 SWAP2 SWAP1 PUSH2 0x43FE JUMP JUMPDEST ISZERO JUMPDEST ISZERO PUSH2 0x3897 JUMPI DUP3 PUSH1 0x40 MLOAD PUSH32 0x5274AFE700000000000000000000000000000000000000000000000000000000 DUP2 MSTORE PUSH1 0x4 ADD PUSH2 0x388E SWAP2 SWAP1 PUSH2 0x404D JUMP JUMPDEST PUSH1 0x40 MLOAD DUP1 SWAP2 SUB SWAP1 REVERT JUMPDEST POP POP POP JUMP JUMPDEST PUSH1 0x0 PUSH32 0x9B779B17422D0DF92223018B32B4D1FA46E071723D6817E2486D003BECC55F00 SWAP1 POP SWAP1 JUMP JUMPDEST PUSH2 0x38CC PUSH2 0x16B5 JUMP JUMPDEST PUSH2 0x3902 JUMPI PUSH1 0x40 MLOAD PUSH32 0x8DFC202B00000000000000000000000000000000000000000000000000000000 DUP2 MSTORE PUSH1 0x4 ADD PUSH1 0x40 MLOAD DUP1 SWAP2 SUB SWAP1 REVERT JUMPDEST JUMP JUMPDEST PUSH2 0x390C PUSH2 0x3A35 JUMP JUMPDEST PUSH2 0x3942 JUMPI PUSH1 0x40 MLOAD PUSH32 0xD7E6BCF800000000000000000000000000000000000000000000000000000000 DUP2 MSTORE PUSH1 0x4 ADD PUSH1 0x40 MLOAD DUP1 SWAP2 SUB SWAP1 REVERT JUMPDEST JUMP JUMPDEST PUSH2 0x394C PUSH2 0x3904 JUMP JUMPDEST PUSH1 0x0 PUSH20 0xFFFFFFFFFFFFFFFFFFFFFFFFFFFFFFFFFFFFFFFF AND DUP2 PUSH20 0xFFFFFFFFFFFFFFFFFFFFFFFFFFFFFFFFFFFFFFFF AND SUB PUSH2 0x39BE JUMPI PUSH1 0x0 PUSH1 0x40 MLOAD PUSH32 0x1E4FBDF700000000000000000000000000000000000000000000000000000000 DUP2 MSTORE PUSH1 0x4 ADD PUSH2 0x39B5 SWAP2 SWAP1 PUSH2 0x404D JUMP JUMPDEST PUSH1 0x40 MLOAD DUP1 SWAP2 SUB SWAP1 REVERT JUMPDEST PUSH2 0x39C7 DUP2 PUSH2 0x35CC JUMP JUMPDEST POP JUMP JUMPDEST PUSH2 0x39D2 PUSH2 0x3904 JUMP JUMPDEST PUSH1 0x0 PUSH2 0x39DC PUSH2 0x3544 JUMP JUMPDEST SWAP1 POP PUSH1 0x0 DUP2 PUSH1 0x0 ADD PUSH1 0x0 PUSH2 0x100 EXP DUP2 SLOAD DUP2 PUSH1 0xFF MUL NOT AND SWAP1 DUP4 ISZERO ISZERO MUL OR SWAP1 SSTORE POP POP JUMP JUMPDEST PUSH2 0x3A06 PUSH2 0x3904 JUMP JUMPDEST PUSH1 0x0 PUSH2 0x3A10 PUSH2 0x389C JUMP JUMPDEST SWAP1 POP PUSH1 0x1 DUP2 PUSH1 0x0 ADD DUP2 SWAP1 SSTORE POP POP JUMP JUMPDEST PUSH1 0x60 PUSH2 0x3A2D DUP4 DUP4 PUSH1 0x0 PUSH2 0x3A55 JUMP JUMPDEST SWAP1 POP SWAP3 SWAP2 POP POP JUMP JUMPDEST PUSH1 0x0 PUSH2 0x3A3F PUSH2 0x356C JUMP JUMPDEST PUSH1 0x0 ADD PUSH1 0x8 SWAP1 SLOAD SWAP1 PUSH2 0x100 EXP SWAP1 DIV PUSH1 0xFF AND SWAP1 POP SWAP1 JUMP JUMPDEST PUSH1 0x60 DUP2 SELFBALANCE LT ISZERO PUSH2 0x3A9C JUMPI ADDRESS PUSH1 0x40 MLOAD PUSH32 0xCD78605900000000000000000000000000000000000000000000000000000000 DUP2 MSTORE PUSH1 0x4 ADD PUSH2 0x3A93 SWAP2 SWAP1 PUSH2 0x404D JUMP JUMPDEST PUSH1 0x40 MLOAD DUP1 SWAP2 SUB SWAP1 REVERT JUMPDEST PUSH1 0x0 DUP1 DUP6 PUSH20 0xFFFFFFFFFFFFFFFFFFFFFFFFFFFFFFFFFFFFFFFF AND DUP5 DUP7 PUSH1 0x40 MLOAD PUSH2 0x3AC5 SWAP2 SWAP1 PUSH2 0x449C JUMP JUMPDEST PUSH1 0x0 PUSH1 0x40 MLOAD DUP1 DUP4 SUB DUP2 DUP6 DUP8 GAS CALL SWAP3 POP POP POP RETURNDATASIZE DUP1 PUSH1 0x0 DUP2 EQ PUSH2 0x3B02 JUMPI PUSH1 0x40 MLOAD SWAP2 POP PUSH1 0x1F NOT PUSH1 0x3F RETURNDATASIZE ADD AND DUP3 ADD PUSH1 0x40 MSTORE RETURNDATASIZE DUP3 MSTORE RETURNDATASIZE PUSH1 0x0 PUSH1 0x20 DUP5 ADD RETURNDATACOPY PUSH2 0x3B07 JUMP JUMPDEST PUSH1 0x60 SWAP2 POP JUMPDEST POP SWAP2 POP SWAP2 POP PUSH2 0x3B17 DUP7 DUP4 DUP4 PUSH2 0x3B22 JUMP JUMPDEST SWAP3 POP POP POP SWAP4 SWAP3 POP POP POP JUMP JUMPDEST PUSH1 0x60 DUP3 PUSH2 0x3B37 JUMPI PUSH2 0x3B32 DUP3 PUSH2 0x3BB1 JUMP JUMPDEST PUSH2 0x3BA9 JUMP JUMPDEST PUSH1 0x0 DUP3 MLOAD EQ DUP1 ISZERO PUSH2 0x3B5F JUMPI POP PUSH1 0x0 DUP5 PUSH20 0xFFFFFFFFFFFFFFFFFFFFFFFFFFFFFFFFFFFFFFFF AND EXTCODESIZE EQ JUMPDEST ISZERO PUSH2 0x3BA1 JUMPI DUP4 PUSH1 0x40 MLOAD PUSH32 0x9996B31500000000000000000000000000000000000000000000000000000000 DUP2 MSTORE PUSH1 0x4 ADD PUSH2 0x3B98 SWAP2 SWAP1 PUSH2 0x404D JUMP JUMPDEST PUSH1 0x40 MLOAD DUP1 SWAP2 SUB SWAP1 REVERT JUMPDEST DUP2 SWAP1 POP PUSH2 0x3BAA JUMP JUMPDEST JUMPDEST SWAP4 SWAP3 POP POP POP JUMP JUMPDEST PUSH1 0x0 DUP2 MLOAD GT ISZERO PUSH2 0x3BC4 JUMPI DUP1 MLOAD DUP1 DUP3 PUSH1 0x20 ADD REVERT JUMPDEST PUSH1 0x40 MLOAD PUSH32 0x1425EA4200000000000000000000000000000000000000000000000000000000 DUP2 MSTORE PUSH1 0x4 ADD PUSH1 0x40 MLOAD DUP1 SWAP2 SUB SWAP1 REVERT JUMPDEST PUSH1 0x0 DUP1 REVERT JUMPDEST PUSH1 0x0 DUP2 SWAP1 POP SWAP2 SWAP1 POP JUMP JUMPDEST PUSH2 0x3C0E DUP2 PUSH2 0x3BFB JUMP JUMPDEST DUP2 EQ PUSH2 0x3C19 JUMPI PUSH1 0x0 DUP1 REVERT JUMPDEST POP JUMP JUMPDEST PUSH1 0x0 DUP2 CALLDATALOAD SWAP1 POP PUSH2 0x3C2B DUP2 PUSH2 0x3C05 JUMP JUMPDEST SWAP3 SWAP2 POP POP JUMP JUMPDEST PUSH1 0x0 DUP1 PUSH1 0x40 DUP4 DUP6 SUB SLT ISZERO PUSH2 0x3C48 JUMPI PUSH2 0x3C47 PUSH2 0x3BF6 JUMP JUMPDEST JUMPDEST PUSH1 0x0 PUSH2 0x3C56 DUP6 DUP3 DUP7 ADD PUSH2 0x3C1C JUMP JUMPDEST SWAP3 POP POP PUSH1 0x20 PUSH2 0x3C67 DUP6 DUP3 DUP7 ADD PUSH2 0x3C1C JUMP JUMPDEST SWAP2 POP POP SWAP3 POP SWAP3 SWAP1 POP JUMP JUMPDEST PUSH2 0x3C7A DUP2 PUSH2 0x3BFB JUMP JUMPDEST DUP3 MSTORE POP POP JUMP JUMPDEST PUSH1 0x0 PUSH1 0x20 DUP3 ADD SWAP1 POP PUSH2 0x3C95 PUSH1 0x0 DUP4 ADD DUP5 PUSH2 0x3C71 JUMP JUMPDEST SWAP3 SWAP2 POP POP JUMP JUMPDEST PUSH1 0x0 PUSH20 0xFFFFFFFFFFFFFFFFFFFFFFFFFFFFFFFFFFFFFFFF DUP3 AND SWAP1 POP SWAP2 SWAP1 POP JUMP JUMPDEST PUSH1 0x0 PUSH2 0x3CC6 DUP3 PUSH2 0x3C9B JUMP JUMPDEST SWAP1 POP SWAP2 SWAP1 POP JUMP JUMPDEST PUSH2 0x3CD6 DUP2 PUSH2 0x3CBB JUMP JUMPDEST DUP2 EQ PUSH2 0x3CE1 JUMPI PUSH1 0x0 DUP1 REVERT JUMPDEST POP JUMP JUMPDEST PUSH1 0x0 DUP2 CALLDATALOAD SWAP1 POP PUSH2 0x3CF3 DUP2 PUSH2 0x3CCD JUMP JUMPDEST SWAP3 SWAP2 POP POP JUMP JUMPDEST PUSH1 0x0 PUSH1 0x20 DUP3 DUP5 SUB SLT ISZERO PUSH2 0x3D0F JUMPI PUSH2 0x3D0E PUSH2 0x3BF6 JUMP JUMPDEST JUMPDEST PUSH1 0x0 PUSH2 0x3D1D DUP5 DUP3 DUP6 ADD PUSH2 0x3CE4 JUMP JUMPDEST SWAP2 POP POP SWAP3 SWAP2 POP POP JUMP JUMPDEST PUSH1 0x0 DUP2 ISZERO ISZERO SWAP1 POP SWAP2 SWAP1 POP JUMP JUMPDEST PUSH2 0x3D3B DUP2 PUSH2 0x3D26 JUMP JUMPDEST DUP3 MSTORE POP POP JUMP JUMPDEST PUSH1 0x0 PUSH1 0x20 DUP3 ADD SWAP1 POP PUSH2 0x3D56 PUSH1 0x0 DUP4 ADD DUP5 PUSH2 0x3D32 JUMP JUMPDEST SWAP3 SWAP2 POP POP JUMP JUMPDEST PUSH1 0x0 PUSH1 0x20 DUP3 DUP5 SUB SLT ISZERO PUSH2 0x3D72 JUMPI PUSH2 0x3D71 PUSH2 0x3BF6 JUMP JUMPDEST JUMPDEST PUSH1 0x0 PUSH2 0x3D80 DUP5 DUP3 DUP6 ADD PUSH2 0x3C1C JUMP JUMPDEST SWAP2 POP POP SWAP3 SWAP2 POP POP JUMP JUMPDEST PUSH1 0x0 DUP1 PUSH1 0x0 DUP1 PUSH1 0x0 DUP1 PUSH1 0xC0 DUP8 DUP10 SUB SLT ISZERO PUSH2 0x3DA6 JUMPI PUSH2 0x3DA5 PUSH2 0x3BF6 JUMP JUMPDEST JUMPDEST PUSH1 0x0 PUSH2 0x3DB4 DUP10 DUP3 DUP11 ADD PUSH2 0x3C1C JUMP JUMPDEST SWAP7 POP POP PUSH1 0x20 PUSH2 0x3DC5 DUP10 DUP3 DUP11 ADD PUSH2 0x3C1C JUMP JUMPDEST SWAP6 POP POP PUSH1 0x40 PUSH2 0x3DD6 DUP10 DUP3 DUP11 ADD PUSH2 0x3C1C JUMP JUMPDEST SWAP5 POP POP PUSH1 0x60 PUSH2 0x3DE7 DUP10 DUP3 DUP11 ADD PUSH2 0x3C1C JUMP JUMPDEST SWAP4 POP POP PUSH1 0x80 PUSH2 0x3DF8 DUP10 DUP3 DUP11 ADD PUSH2 0x3C1C JUMP JUMPDEST SWAP3 POP POP PUSH1 0xA0 PUSH2 0x3E09 DUP10 DUP3 DUP11 ADD PUSH2 0x3C1C JUMP JUMPDEST SWAP2 POP POP SWAP3 SWAP6 POP SWAP3 SWAP6 POP SWAP3 SWAP6 JUMP JUMPDEST PUSH1 0x0 PUSH4 0xFFFFFFFF DUP3 AND SWAP1 POP SWAP2 SWAP1 POP JUMP JUMPDEST PUSH2 0x3E2F DUP2 PUSH2 0x3E16 JUMP JUMPDEST DUP2 EQ PUSH2 0x3E3A JUMPI PUSH1 0x0 DUP1 REVERT JUMPDEST POP JUMP JUMPDEST PUSH1 0x0 DUP2 CALLDATALOAD SWAP1 POP PUSH2 0x3E4C DUP2 PUSH2 0x3E26 JUMP JUMPDEST SWAP3 SWAP2 POP POP JUMP JUMPDEST PUSH2 0x3E5B DUP2 PUSH2 0x3D26 JUMP JUMPDEST DUP2 EQ PUSH2 0x3E66 JUMPI PUSH1 0x0 DUP1 REVERT JUMPDEST POP JUMP JUMPDEST PUSH1 0x0 DUP2 CALLDATALOAD SWAP1 POP PUSH2 0x3E78 DUP2 PUSH2 0x3E52 JUMP JUMPDEST SWAP3 SWAP2 POP POP JUMP JUMPDEST PUSH1 0x0 DUP1 PUSH1 0x0 DUP1 PUSH1 0x0 DUP1 PUSH1 0x0 DUP1 PUSH1 0x0 DUP1 PUSH2 0x140 DUP12 DUP14 SUB SLT ISZERO PUSH2 0x3EA2 JUMPI PUSH2 0x3EA1 PUSH2 0x3BF6 JUMP JUMPDEST JUMPDEST PUSH1 0x0 PUSH2 0x3EB0 DUP14 DUP3 DUP15 ADD PUSH2 0x3CE4 JUMP JUMPDEST SWAP11 POP POP PUSH1 0x20 PUSH2 0x3EC1 DUP14 DUP3 DUP15 ADD PUSH2 0x3CE4 JUMP JUMPDEST SWAP10 POP POP PUSH1 0x40 PUSH2 0x3ED2 DUP14 DUP3 DUP15 ADD PUSH2 0x3E3D JUMP JUMPDEST SWAP9 POP POP PUSH1 0x60 PUSH2 0x3EE3 DUP14 DUP3 DUP15 ADD PUSH2 0x3C1C JUMP JUMPDEST SWAP8 POP POP PUSH1 0x80 PUSH2 0x3EF4 DUP14 DUP3 DUP15 ADD PUSH2 0x3C1C JUMP JUMPDEST SWAP7 POP POP PUSH1 0xA0 PUSH2 0x3F05 DUP14 DUP3 DUP15 ADD PUSH2 0x3C1C JUMP JUMPDEST SWAP6 POP POP PUSH1 0xC0 PUSH2 0x3F16 DUP14 DUP3 DUP15 ADD PUSH2 0x3C1C JUMP JUMPDEST SWAP5 POP POP PUSH1 0xE0 PUSH2 0x3F27 DUP14 DUP3 DUP15 ADD PUSH2 0x3C1C JUMP JUMPDEST SWAP4 POP POP PUSH2 0x100 PUSH2 0x3F39 DUP14 DUP3 DUP15 ADD PUSH2 0x3C1C JUMP JUMPDEST SWAP3 POP POP PUSH2 0x120 PUSH2 0x3F4B DUP14 DUP3 DUP15 ADD PUSH2 0x3E69 JUMP JUMPDEST SWAP2 POP POP SWAP3 SWAP6 SWAP9 SWAP12 SWAP2 SWAP5 SWAP8 SWAP11 POP SWAP3 SWAP6 SWAP9 POP JUMP JUMPDEST PUSH1 0x0 DUP2 SWAP1 POP SWAP2 SWAP1 POP JUMP JUMPDEST PUSH1 0x0 PUSH2 0x3F82 PUSH2 0x3F7D PUSH2 0x3F78 DUP5 PUSH2 0x3C9B JUMP JUMPDEST PUSH2 0x3F5D JUMP JUMPDEST PUSH2 0x3C9B JUMP JUMPDEST SWAP1 POP SWAP2 SWAP1 POP JUMP JUMPDEST PUSH1 0x0 PUSH2 0x3F94 DUP3 PUSH2 0x3F67 JUMP JUMPDEST SWAP1 POP SWAP2 SWAP1 POP JUMP JUMPDEST PUSH1 0x0 PUSH2 0x3FA6 DUP3 PUSH2 0x3F89 JUMP JUMPDEST SWAP1 POP SWAP2 SWAP1 POP JUMP JUMPDEST PUSH2 0x3FB6 DUP2 PUSH2 0x3F9B JUMP JUMPDEST DUP3 MSTORE POP POP JUMP JUMPDEST PUSH1 0x0 PUSH1 0x20 DUP3 ADD SWAP1 POP PUSH2 0x3FD1 PUSH1 0x0 DUP4 ADD DUP5 PUSH2 0x3FAD JUMP JUMPDEST SWAP3 SWAP2 POP POP JUMP JUMPDEST PUSH1 0x0 DUP1 PUSH1 0x0 DUP1 PUSH1 0x80 DUP6 DUP8 SUB SLT ISZERO PUSH2 0x3FF1 JUMPI PUSH2 0x3FF0 PUSH2 0x3BF6 JUMP JUMPDEST JUMPDEST PUSH1 0x0 PUSH2 0x3FFF DUP8 DUP3 DUP9 ADD PUSH2 0x3C1C JUMP JUMPDEST SWAP5 POP POP PUSH1 0x20 PUSH2 0x4010 DUP8 DUP3 DUP9 ADD PUSH2 0x3C1C JUMP JUMPDEST SWAP4 POP POP PUSH1 0x40 PUSH2 0x4021 DUP8 DUP3 DUP9 ADD PUSH2 0x3C1C JUMP JUMPDEST SWAP3 POP POP PUSH1 0x60 PUSH2 0x4032 DUP8 DUP3 DUP9 ADD PUSH2 0x3C1C JUMP JUMPDEST SWAP2 POP POP SWAP3 SWAP6 SWAP2 SWAP5 POP SWAP3 POP JUMP JUMPDEST PUSH2 0x4047 DUP2 PUSH2 0x3CBB JUMP JUMPDEST DUP3 MSTORE POP POP JUMP JUMPDEST PUSH1 0x0 PUSH1 0x20 DUP3 ADD SWAP1 POP PUSH2 0x4062 PUSH1 0x0 DUP4 ADD DUP5 PUSH2 0x403E JUMP JUMPDEST SWAP3 SWAP2 POP POP JUMP JUMPDEST PUSH1 0x0 DUP1 PUSH1 0x40 DUP4 DUP6 SUB SLT ISZERO PUSH2 0x407F JUMPI PUSH2 0x407E PUSH2 0x3BF6 JUMP JUMPDEST JUMPDEST PUSH1 0x0 PUSH2 0x408D DUP6 DUP3 DUP7 ADD PUSH2 0x3CE4 JUMP JUMPDEST SWAP3 POP POP PUSH1 0x20 PUSH2 0x409E DUP6 DUP3 DUP7 ADD PUSH2 0x3C1C JUMP JUMPDEST SWAP2 POP POP SWAP3 POP SWAP3 SWAP1 POP JUMP JUMPDEST PUSH2 0x40B1 DUP2 PUSH2 0x3E16 JUMP JUMPDEST DUP3 MSTORE POP POP JUMP JUMPDEST PUSH1 0x0 PUSH2 0x100 DUP3 ADD SWAP1 POP PUSH2 0x40CD PUSH1 0x0 DUP4 ADD DUP12 PUSH2 0x3C71 JUMP JUMPDEST PUSH2 0x40DA PUSH1 0x20 DUP4 ADD DUP11 PUSH2 0x40A8 JUMP JUMPDEST PUSH2 0x40E7 PUSH1 0x40 DUP4 ADD DUP10 PUSH2 0x40A8 JUMP JUMPDEST PUSH2 0x40F4 PUSH1 0x60 DUP4 ADD DUP9 PUSH2 0x3D32 JUMP JUMPDEST PUSH2 0x4101 PUSH1 0x80 DUP4 ADD DUP8 PUSH2 0x3C71 JUMP JUMPDEST PUSH2 0x410E PUSH1 0xA0 DUP4 ADD DUP7 PUSH2 0x3C71 JUMP JUMPDEST PUSH2 0x411B PUSH1 0xC0 DUP4 ADD DUP6 PUSH2 0x3C71 JUMP JUMPDEST PUSH2 0x4128 PUSH1 0xE0 DUP4 ADD DUP5 PUSH2 0x40A8 JUMP JUMPDEST SWAP10 SWAP9 POP POP POP POP POP POP POP POP POP JUMP JUMPDEST PUSH32 0x4E487B7100000000000000000000000000000000000000000000000000000000 PUSH1 0x0 MSTORE PUSH1 0x11 PUSH1 0x4 MSTORE PUSH1 0x24 PUSH1 0x0 REVERT JUMPDEST PUSH1 0x0 PUSH2 0x416F DUP3 PUSH2 0x3BFB JUMP JUMPDEST SWAP2 POP PUSH2 0x417A DUP4 PUSH2 0x3BFB JUMP JUMPDEST SWAP3 POP DUP3 DUP3 MUL PUSH2 0x4188 DUP2 PUSH2 0x3BFB JUMP JUMPDEST SWAP2 POP DUP3 DUP3 DIV DUP5 EQ DUP4 ISZERO OR PUSH2 0x419F JUMPI PUSH2 0x419E PUSH2 0x4135 JUMP JUMPDEST JUMPDEST POP SWAP3 SWAP2 POP POP JUMP JUMPDEST PUSH32 0x4E487B7100000000000000000000000000000000000000000000000000000000 PUSH1 0x0 MSTORE PUSH1 0x12 PUSH1 0x4 MSTORE PUSH1 0x24 PUSH1 0x0 REVERT JUMPDEST PUSH1 0x0 PUSH2 0x41E0 DUP3 PUSH2 0x3BFB JUMP JUMPDEST SWAP2 POP PUSH2 0x41EB DUP4 PUSH2 0x3BFB JUMP JUMPDEST SWAP3 POP DUP3 PUSH2 0x41FB JUMPI PUSH2 0x41FA PUSH2 0x41A6 JUMP JUMPDEST JUMPDEST DUP3 DUP3 DIV SWAP1 POP SWAP3 SWAP2 POP POP JUMP JUMPDEST PUSH1 0x0 PUSH2 0x4211 DUP3 PUSH2 0x3BFB JUMP JUMPDEST SWAP2 POP PUSH2 0x421C DUP4 PUSH2 0x3BFB JUMP JUMPDEST SWAP3 POP DUP3 DUP3 ADD SWAP1 POP DUP1 DUP3 GT ISZERO PUSH2 0x4234 JUMPI PUSH2 0x4233 PUSH2 0x4135 JUMP JUMPDEST JUMPDEST SWAP3 SWAP2 POP POP JUMP JUMPDEST PUSH1 0x0 PUSH2 0x4245 DUP3 PUSH2 0x3BFB JUMP JUMPDEST SWAP2 POP PUSH2 0x4250 DUP4 PUSH2 0x3BFB JUMP JUMPDEST SWAP3 POP DUP3 DUP3 SUB SWAP1 POP DUP2 DUP2 GT ISZERO PUSH2 0x4268 JUMPI PUSH2 0x4267 PUSH2 0x4135 JUMP JUMPDEST JUMPDEST SWAP3 SWAP2 POP POP JUMP JUMPDEST PUSH1 0x0 PUSH2 0x4279 DUP3 PUSH2 0x3E16 JUMP JUMPDEST SWAP2 POP PUSH2 0x4284 DUP4 PUSH2 0x3E16 JUMP JUMPDEST SWAP3 POP DUP3 DUP3 ADD SWAP1 POP PUSH4 0xFFFFFFFF DUP2 GT ISZERO PUSH2 0x42A0 JUMPI PUSH2 0x429F PUSH2 0x4135 JUMP JUMPDEST JUMPDEST SWAP3 SWAP2 POP POP JUMP JUMPDEST PUSH1 0x0 PUSH2 0x42B1 DUP3 PUSH2 0x3E16 JUMP JUMPDEST SWAP2 POP PUSH2 0x42BC DUP4 PUSH2 0x3E16 JUMP JUMPDEST SWAP3 POP DUP3 PUSH2 0x42CC JUMPI PUSH2 0x42CB PUSH2 0x41A6 JUMP JUMPDEST JUMPDEST DUP3 DUP3 DIV SWAP1 POP SWAP3 SWAP2 POP POP JUMP JUMPDEST PUSH1 0x0 DUP2 SWAP1 POP SWAP2 SWAP1 POP JUMP JUMPDEST PUSH1 0x0 PUSH8 0xFFFFFFFFFFFFFFFF DUP3 AND SWAP1 POP SWAP2 SWAP1 POP JUMP JUMPDEST PUSH1 0x0 PUSH2 0x4310 PUSH2 0x430B PUSH2 0x4306 DUP5 PUSH2 0x42D7 JUMP JUMPDEST PUSH2 0x3F5D JUMP JUMPDEST PUSH2 0x42E1 JUMP JUMPDEST SWAP1 POP SWAP2 SWAP1 POP JUMP JUMPDEST PUSH2 0x4320 DUP2 PUSH2 0x42F5 JUMP JUMPDEST DUP3 MSTORE POP POP JUMP JUMPDEST PUSH1 0x0 PUSH1 0x20 DUP3 ADD SWAP1 POP PUSH2 0x433B PUSH1 0x0 DUP4 ADD DUP5 PUSH2 0x4317 JUMP JUMPDEST SWAP3 SWAP2 POP POP JUMP JUMPDEST PUSH1 0x0 PUSH2 0x434C DUP3 PUSH2 0x3BFB JUMP JUMPDEST SWAP2 POP PUSH32 0xFFFFFFFFFFFFFFFFFFFFFFFFFFFFFFFFFFFFFFFFFFFFFFFFFFFFFFFFFFFFFFFF DUP3 SUB PUSH2 0x437E JUMPI PUSH2 0x437D PUSH2 0x4135 JUMP JUMPDEST JUMPDEST PUSH1 0x1 DUP3 ADD SWAP1 POP SWAP2 SWAP1 POP JUMP JUMPDEST PUSH1 0x0 PUSH1 0x60 DUP3 ADD SWAP1 POP PUSH2 0x439E PUSH1 0x0 DUP4 ADD DUP7 PUSH2 0x403E JUMP JUMPDEST PUSH2 0x43AB PUSH1 0x20 DUP4 ADD DUP6 PUSH2 0x403E JUMP JUMPDEST PUSH2 0x43B8 PUSH1 0x40 DUP4 ADD DUP5 PUSH2 0x3C71 JUMP JUMPDEST SWAP5 SWAP4 POP POP POP POP JUMP JUMPDEST PUSH1 0x0 PUSH1 0x40 DUP3 ADD SWAP1 POP PUSH2 0x43D5 PUSH1 0x0 DUP4 ADD DUP6 PUSH2 0x403E JUMP JUMPDEST PUSH2 0x43E2 PUSH1 0x20 DUP4 ADD DUP5 PUSH2 0x3C71 JUMP JUMPDEST SWAP4 SWAP3 POP POP POP JUMP JUMPDEST PUSH1 0x0 DUP2 MLOAD SWAP1 POP PUSH2 0x43F8 DUP2 PUSH2 0x3E52 JUMP JUMPDEST SWAP3 SWAP2 POP POP JUMP JUMPDEST PUSH1 0x0 PUSH1 0x20 DUP3 DUP5 SUB SLT ISZERO PUSH2 0x4414 JUMPI PUSH2 0x4413 PUSH2 0x3BF6 JUMP JUMPDEST JUMPDEST PUSH1 0x0 PUSH2 0x4422 DUP5 DUP3 DUP6 ADD PUSH2 0x43E9 JUMP JUMPDEST SWAP2 POP POP SWAP3 SWAP2 POP POP JUMP JUMPDEST PUSH1 0x0 DUP2 MLOAD SWAP1 POP SWAP2 SWAP1 POP JUMP JUMPDEST PUSH1 0x0 DUP2 SWAP1 POP SWAP3 SWAP2 POP POP JUMP JUMPDEST PUSH1 0x0 JUMPDEST DUP4 DUP2 LT ISZERO PUSH2 0x445F JUMPI DUP1 DUP3 ADD MLOAD DUP2 DUP5 ADD MSTORE PUSH1 0x20 DUP2 ADD SWAP1 POP PUSH2 0x4444 JUMP JUMPDEST PUSH1 0x0 DUP5 DUP5 ADD MSTORE POP POP POP POP JUMP JUMPDEST PUSH1 0x0 PUSH2 0x4476 DUP3 PUSH2 0x442B JUMP JUMPDEST PUSH2 0x4480 DUP2 DUP6 PUSH2 0x4436 JUMP JUMPDEST SWAP4 POP PUSH2 0x4490 DUP2 DUP6 PUSH1 0x20 DUP7 ADD PUSH2 0x4441 JUMP JUMPDEST DUP1 DUP5 ADD SWAP2 POP POP SWAP3 SWAP2 POP POP JUMP JUMPDEST PUSH1 0x0 PUSH2 0x44A8 DUP3 DUP5 PUSH2 0x446B JUMP JUMPDEST SWAP2 POP DUP2 SWAP1 POP SWAP3 SWAP2 POP POP JUMP INVALID LOG2 PUSH5 0x6970667358 0x22 SLT KECCAK256 0xA5 LOG4 0xB2 CALLDATALOAD PUSH27 0xA35C3E3D9233A4B0C77EDBFC68CAC05E31B34ED14AE3833A0677C4 PUSH5 0x736F6C6343 STOP ADDMOD EQ STOP CALLER "},"methodIdentifiers":{"addToWhitelist(address)":"e43252d7","calculateTax(uint256,uint256,uint256,uint256)":"75713079","calculateTotalWithdraw(uint256,uint256,uint256,uint256,uint256,uint256)":"22e76837","calculateYield(uint256,uint256)":"043cbe5b","claim(uint256)":"379607f5","cooldownPeriod()":"04646a49","depositRewardTokens(uint256)":"16c621e0","disableWhitelist()":"d6b0f484","enableWhitelist()":"cdfb2b4e","getTotalStakedForUser(address)":"3b42ffcf","initialize(address,address,uint32,uint256,uint256,uint256,uint256,uint256,uint256,bool)":"6c03d853","maxCap()":"23548b8b","minCap()":"3fa615b0","monthlyIncreasePercentage()":"29161479","monthsInStakingPeriod()":"6f629512","owner()":"8da5cb5b","pause()":"8456cb59","paused()":"5c975abb","pendingRewards()":"eded3fda","removeFromWhitelist(address)":"8ab1d681","renounceOwnership()":"715018a6","rewardPool()":"66666aa9","stake(uint256)":"a694fc3a","stakingDuration()":"8005a7de","stakingToken()":"72f702f3","startingSlashingPoint()":"0b7ead4a","totalStaked()":"817b1cd2","transferOwnership(address)":"f2fde38b","unpause()":"3f4ba83a","unstake(uint256)":"2e17de78","updateCooldownPeriod(uint256)":"861f6bfd","updateMaxCap(uint256)":"e81ba080","updateMinCap(uint256)":"bcaabf6c","updateMonthlyIncreasePercentage(uint256)":"b3c55721","updateStakingDuration(uint256)":"5b1d7086","updateStartingSlashingPoint(uint256)":"e6d24866","updateYieldConstant(uint256)":"36c1105a","userStakeCounter(address)":"5678b024","userStakes(address,uint256)":"b5d5b5fa","whitelistEnabled()":"51fb012d","whitelistedAddresses(address)":"06c933d8","withdrawRewardTokens(uint256)":"cb43b2dd","yieldConstant()":"7a65cd0b"}},"storageLayout":{"storage":[{"astId":1869,"contract":"contracts/Staking.sol:Staking","label":"stakingToken","offset":0,"slot":"0","type":"t_contract(IERC20)877"},{"astId":1872,"contract":"contracts/Staking.sol:Staking","label":"stakingDuration","offset":0,"slot":"1","type":"t_uint256"},{"astId":1875,"contract":"contracts/Staking.sol:Staking","label":"minCap","offset":0,"slot":"2","type":"t_uint256"},{"astId":1878,"contract":"contracts/Staking.sol:Staking","label":"maxCap","offset":0,"slot":"3","type":"t_uint256"},{"astId":1881,"contract":"contracts/Staking.sol:Staking","label":"yieldConstant","offset":0,"slot":"4","type":"t_uint256"},{"astId":1884,"contract":"contracts/Staking.sol:Staking","label":"cooldownPeriod","offset":0,"slot":"5","type":"t_uint256"},{"astId":1887,"contract":"contracts/Staking.sol:Staking","label":"monthsInStakingPeriod","offset":0,"slot":"6","type":"t_uint256"},{"astId":1890,"contract":"contracts/Staking.sol:Staking","label":"startingSlashingPoint","offset":0,"slot":"7","type":"t_uint256"},{"astId":1893,"contract":"contracts/Staking.sol:Staking","label":"monthlyIncreasePercentage","offset":0,"slot":"8","type":"t_uint256"},{"astId":1896,"contract":"contracts/Staking.sol:Staking","label":"whitelistEnabled","offset":0,"slot":"9","type":"t_bool"},{"astId":1922,"contract":"contracts/Staking.sol:Staking","label":"userStakes","offset":0,"slot":"10","type":"t_mapping(t_address,t_mapping(t_uint256,t_struct(Stake)1914_storage))"},{"astId":1927,"contract":"contracts/Staking.sol:Staking","label":"userStakeCounter","offset":0,"slot":"11","type":"t_mapping(t_address,t_uint256)"},{"astId":1932,"contract":"contracts/Staking.sol:Staking","label":"whitelistedAddresses","offset":0,"slot":"12","type":"t_mapping(t_address,t_bool)"},{"astId":1935,"contract":"contracts/Staking.sol:Staking","label":"_totalStaked","offset":0,"slot":"13","type":"t_uint256"},{"astId":1938,"contract":"contracts/Staking.sol:Staking","label":"_rewardPool","offset":0,"slot":"14","type":"t_uint256"},{"astId":1941,"contract":"contracts/Staking.sol:Staking","label":"_totalPendingRewards","offset":0,"slot":"15","type":"t_uint256"}],"types":{"t_address":{"encoding":"inplace","label":"address","numberOfBytes":"20"},"t_bool":{"encoding":"inplace","label":"bool","numberOfBytes":"1"},"t_contract(IERC20)877":{"encoding":"inplace","label":"contract IERC20","numberOfBytes":"20"},"t_mapping(t_address,t_bool)":{"encoding":"mapping","key":"t_address","label":"mapping(address => bool)","numberOfBytes":"32","value":"t_bool"},"t_mapping(t_address,t_mapping(t_uint256,t_struct(Stake)1914_storage))":{"encoding":"mapping","key":"t_address","label":"mapping(address => mapping(uint256 => struct Staking.Stake))","numberOfBytes":"32","value":"t_mapping(t_uint256,t_struct(Stake)1914_storage)"},"t_mapping(t_address,t_uint256)":{"encoding":"mapping","key":"t_address","label":"mapping(address => uint256)","numberOfBytes":"32","value":"t_uint256"},"t_mapping(t_uint256,t_struct(Stake)1914_storage)":{"encoding":"mapping","key":"t_uint256","label":"mapping(uint256 => struct Staking.Stake)","numberOfBytes":"32","value":"t_struct(Stake)1914_storage"},"t_struct(Stake)1914_storage":{"encoding":"inplace","label":"struct Staking.Stake","members":[{"astId":1899,"contract":"contracts/Staking.sol:Staking","label":"amount","offset":0,"slot":"0","type":"t_uint256"},{"astId":1901,"contract":"contracts/Staking.sol:Staking","label":"startTime","offset":0,"slot":"1","type":"t_uint32"},{"astId":1903,"contract":"contracts/Staking.sol:Staking","label":"requestUnstakeTime","offset":4,"slot":"1","type":"t_uint32"},{"astId":1905,"contract":"contracts/Staking.sol:Staking","label":"unstakeRequested","offset":8,"slot":"1","type":"t_bool"},{"astId":1907,"contract":"contracts/Staking.sol:Staking","label":"yieldConstant","offset":0,"slot":"2","type":"t_uint256"},{"astId":1909,"contract":"contracts/Staking.sol:Staking","label":"monthlyIncreasePercentage","offset":0,"slot":"3","type":"t_uint256"},{"astId":1911,"contract":"contracts/Staking.sol:Staking","label":"startingSlashingPoint","offset":0,"slot":"4","type":"t_uint256"},{"astId":1913,"contract":"contracts/Staking.sol:Staking","label":"stakingDuration","offset":0,"slot":"5","type":"t_uint32"}],"numberOfBytes":"192"},"t_uint256":{"encoding":"inplace","label":"uint256","numberOfBytes":"32"},"t_uint32":{"encoding":"inplace","label":"uint32","numberOfBytes":"4"}}}}}}