{"contracts/Staking.sol":{"Staking":{"abi":[{"inputs":[],"name":"EnforcedPause","type":"error"},{"inputs":[],"name":"ExpectedPause","type":"error"},{"inputs":[],"name":"InvalidInitialization","type":"error"},{"inputs":[],"name":"NotInitializing","type":"error"},{"inputs":[{"internalType":"address","name":"owner","type":"address"}],"name":"OwnableInvalidOwner","type":"error"},{"inputs":[{"internalType":"address","name":"account","type":"address"}],"name":"OwnableUnauthorizedAccount","type":"error"},{"inputs":[],"name":"ReentrancyGuardReentrantCall","type":"error"},{"anonymous":false,"inputs":[{"indexed":true,"internalType":"address","name":"owner","type":"address"},{"indexed":false,"internalType":"uint256","name":"amount","type":"uint256"}],"name":"Deposit","type":"event"},{"anonymous":false,"inputs":[{"indexed":false,"internalType":"uint64","name":"version","type":"uint64"}],"name":"Initialized","type":"event"},{"anonymous":false,"inputs":[{"indexed":true,"internalType":"address","name":"previousOwner","type":"address"},{"indexed":true,"internalType":"address","name":"newOwner","type":"address"}],"name":"OwnershipTransferred","type":"event"},{"anonymous":false,"inputs":[{"indexed":false,"internalType":"address","name":"account","type":"address"}],"name":"Paused","type":"event"},{"anonymous":false,"inputs":[{"indexed":true,"internalType":"address","name":"user","type":"address"},{"indexed":false,"internalType":"uint256","name":"reward","type":"uint256"}],"name":"RewardPaid","type":"event"},{"anonymous":false,"inputs":[{"indexed":true,"internalType":"address","name":"user","type":"address"},{"indexed":false,"internalType":"uint256","name":"amount","type":"uint256"}],"name":"Staked","type":"event"},{"anonymous":false,"inputs":[{"indexed":false,"internalType":"address","name":"account","type":"address"}],"name":"Unpaused","type":"event"},{"anonymous":false,"inputs":[{"indexed":true,"internalType":"address","name":"user","type":"address"},{"indexed":false,"internalType":"uint256","name":"amount","type":"uint256"}],"name":"UnstakeRequested","type":"event"},{"anonymous":false,"inputs":[{"indexed":true,"internalType":"address","name":"user","type":"address"},{"indexed":false,"internalType":"bool","name":"status","type":"bool"}],"name":"WhitelistStatusChanged","type":"event"},{"anonymous":false,"inputs":[{"indexed":true,"internalType":"address","name":"owner","type":"address"},{"indexed":false,"internalType":"uint256","name":"amount","type":"uint256"}],"name":"Withdraw","type":"event"},{"anonymous":false,"inputs":[{"indexed":true,"internalType":"address","name":"user","type":"address"},{"indexed":false,"internalType":"uint256","name":"amount","type":"uint256"}],"name":"Withdrawn","type":"event"},{"inputs":[],"name":"_rewardPool","outputs":[{"internalType":"uint256","name":"","type":"uint256"}],"stateMutability":"view","type":"function"},{"inputs":[],"name":"_totalStaked","outputs":[{"internalType":"uint256","name":"","type":"uint256"}],"stateMutability":"view","type":"function"},{"inputs":[{"internalType":"address","name":"_address","type":"address"}],"name":"addToWhitelist","outputs":[],"stateMutability":"nonpayable","type":"function"},{"inputs":[{"internalType":"uint256","name":"timeStaked","type":"uint256"}],"name":"calculateTax","outputs":[{"internalType":"uint256","name":"","type":"uint256"}],"stateMutability":"view","type":"function"},{"inputs":[{"internalType":"uint256","name":"_amount","type":"uint256"},{"internalType":"uint256","name":"startTime","type":"uint256"}],"name":"calculateTotalWithdraw","outputs":[{"internalType":"uint256","name":"","type":"uint256"}],"stateMutability":"view","type":"function"},{"inputs":[{"internalType":"uint256","name":"timeStaked","type":"uint256"}],"name":"calculateYield","outputs":[{"internalType":"uint256","name":"","type":"uint256"}],"stateMutability":"view","type":"function"},{"inputs":[],"name":"claim","outputs":[],"stateMutability":"nonpayable","type":"function"},{"inputs":[],"name":"cooldownPeriod","outputs":[{"internalType":"uint256","name":"","type":"uint256"}],"stateMutability":"view","type":"function"},{"inputs":[{"internalType":"uint256","name":"_amount","type":"uint256"}],"name":"depositRewardTokens","outputs":[],"stateMutability":"nonpayable","type":"function"},{"inputs":[],"name":"disableWhitelist","outputs":[],"stateMutability":"nonpayable","type":"function"},{"inputs":[],"name":"enableWhitelist","outputs":[],"stateMutability":"nonpayable","type":"function"},{"inputs":[{"internalType":"address","name":"_stakingToken","type":"address"},{"internalType":"uint256","name":"_stakingDuration","type":"uint256"},{"internalType":"uint256","name":"_yieldConstant","type":"uint256"},{"internalType":"uint256","name":"_cooldownPeriod","type":"uint256"},{"internalType":"uint256","name":"_startingSlashingPoint","type":"uint256"},{"internalType":"uint256","name":"_monthlyIncreasePercentage","type":"uint256"}],"name":"initialize","outputs":[],"stateMutability":"nonpayable","type":"function"},{"inputs":[],"name":"maxCap","outputs":[{"internalType":"uint256","name":"","type":"uint256"}],"stateMutability":"view","type":"function"},{"inputs":[],"name":"minCap","outputs":[{"internalType":"uint256","name":"","type":"uint256"}],"stateMutability":"view","type":"function"},{"inputs":[],"name":"monthlyIncreasePercentage","outputs":[{"internalType":"uint256","name":"","type":"uint256"}],"stateMutability":"view","type":"function"},{"inputs":[],"name":"monthsInStakingPeriod","outputs":[{"internalType":"uint256","name":"","type":"uint256"}],"stateMutability":"view","type":"function"},{"inputs":[],"name":"owner","outputs":[{"internalType":"address","name":"","type":"address"}],"stateMutability":"view","type":"function"},{"inputs":[],"name":"pauseStaking","outputs":[{"internalType":"bool","name":"","type":"bool"}],"stateMutability":"view","type":"function"},{"inputs":[],"name":"pauseStakingFunction","outputs":[],"stateMutability":"nonpayable","type":"function"},{"inputs":[],"name":"pauseUnstake","outputs":[{"internalType":"bool","name":"","type":"bool"}],"stateMutability":"view","type":"function"},{"inputs":[],"name":"paused","outputs":[{"internalType":"bool","name":"","type":"bool"}],"stateMutability":"view","type":"function"},{"inputs":[{"internalType":"address","name":"_address","type":"address"}],"name":"removeFromWhitelist","outputs":[],"stateMutability":"nonpayable","type":"function"},{"inputs":[],"name":"renounceOwnership","outputs":[],"stateMutability":"nonpayable","type":"function"},{"inputs":[],"name":"rewardPool","outputs":[{"internalType":"uint256","name":"","type":"uint256"}],"stateMutability":"view","type":"function"},{"inputs":[{"internalType":"uint256","name":"_amount","type":"uint256"}],"name":"stake","outputs":[],"stateMutability":"nonpayable","type":"function"},{"inputs":[],"name":"stakingDuration","outputs":[{"internalType":"uint256","name":"","type":"uint256"}],"stateMutability":"view","type":"function"},{"inputs":[],"name":"stakingToken","outputs":[{"internalType":"contract IERC20","name":"","type":"address"}],"stateMutability":"view","type":"function"},{"inputs":[],"name":"startingSlashingPoint","outputs":[{"internalType":"uint256","name":"","type":"uint256"}],"stateMutability":"view","type":"function"},{"inputs":[],"name":"totalStaked","outputs":[{"internalType":"uint256","name":"","type":"uint256"}],"stateMutability":"view","type":"function"},{"inputs":[{"internalType":"address","name":"newOwner","type":"address"}],"name":"transferOwnership","outputs":[],"stateMutability":"nonpayable","type":"function"},{"inputs":[],"name":"unpauseStaking","outputs":[],"stateMutability":"nonpayable","type":"function"},{"inputs":[],"name":"unstake","outputs":[],"stateMutability":"nonpayable","type":"function"},{"inputs":[{"internalType":"uint256","name":"_cooldownPeriod","type":"uint256"}],"name":"updateCooldownPeriod","outputs":[],"stateMutability":"nonpayable","type":"function"},{"inputs":[{"internalType":"uint256","name":"_maxCap","type":"uint256"}],"name":"updateMaxCap","outputs":[],"stateMutability":"nonpayable","type":"function"},{"inputs":[{"internalType":"uint256","name":"_minCap","type":"uint256"}],"name":"updateMinCap","outputs":[],"stateMutability":"nonpayable","type":"function"},{"inputs":[{"internalType":"uint256","name":"_monthlyIncreasePercentage","type":"uint256"}],"name":"updateMonthlyIncreasePercentage","outputs":[],"stateMutability":"nonpayable","type":"function"},{"inputs":[{"internalType":"uint256","name":"_stakingDuration","type":"uint256"}],"name":"updateStakingDuration","outputs":[],"stateMutability":"nonpayable","type":"function"},{"inputs":[{"internalType":"uint256","name":"_startingSlashingPoint","type":"uint256"}],"name":"updateStartingSlashingPoint","outputs":[],"stateMutability":"nonpayable","type":"function"},{"inputs":[{"internalType":"uint256","name":"_yieldConstant","type":"uint256"}],"name":"updateYieldConstant","outputs":[],"stateMutability":"nonpayable","type":"function"},{"inputs":[{"internalType":"address","name":"","type":"address"}],"name":"userStakes","outputs":[{"internalType":"uint256","name":"amount","type":"uint256"},{"internalType":"uint256","name":"startTime","type":"uint256"},{"internalType":"uint256","name":"requestUnstakeTime","type":"uint256"},{"internalType":"bool","name":"unstakeRequested","type":"bool"}],"stateMutability":"view","type":"function"},{"inputs":[],"name":"whitelistEnabled","outputs":[{"internalType":"bool","name":"","type":"bool"}],"stateMutability":"view","type":"function"},{"inputs":[{"internalType":"address","name":"","type":"address"}],"name":"whitelistedAddresses","outputs":[{"internalType":"bool","name":"","type":"bool"}],"stateMutability":"view","type":"function"},{"inputs":[{"internalType":"uint256","name":"_amount","type":"uint256"}],"name":"withdrawRewardTokens","outputs":[],"stateMutability":"nonpayable","type":"function"},{"inputs":[],"name":"yieldConstant","outputs":[{"internalType":"uint256","name":"","type":"uint256"}],"stateMutability":"view","type":"function"}],"evm":{"bytecode":{"linkReferences":{},"object":"608060405234801561001057600080fd5b506117f3806100206000396000f3fe608060405234801561001057600080fd5b50600436106102745760003560e01c80637a65cd0b11610151578063bcaabf6c116100c3578063dc7ced3d11610087578063dc7ced3d14610555578063e43252d71461055e578063e6d2486614610571578063e81ba08014610584578063f2fde38b14610597578063f999c506146105aa57600080fd5b8063bcaabf6c1461050c578063cb43b2dd1461051f578063cdfb2b4e14610532578063d2771e011461053a578063d6b0f4841461054d57600080fd5b80638ab1d681116101155780638ab1d681146104415780638da5cb5b146104545780638da7ad231461048457806393f4bcde146104de578063a694fc3a146104e6578063b3c55721146104f957600080fd5b80637a65cd0b146104015780638005a7de1461040a57806380a3301b14610413578063817b1cd214610426578063861f6bfd1461042e57600080fd5b806345ff4c80116101ea5780635c975abb116101ae5780635c975abb1461038157806366666aa9146103ab5780636f629512146103b3578063715018a6146103bc57806372f702f3146103c457806375718366146103ef57600080fd5b806345ff4c801461032d578063483a9310146103405780634e71d92d1461035357806351fb012d1461035b5780635b1d70861461036e57600080fd5b806316c621e01161023c57806316c621e0146102e457806323548b8b146102f757806329161479146103005780632def66201461030957806336c1105a146103115780633fa615b01461032457600080fd5b806304646a491461027957806306c933d8146102955780630b7ead4a146102c85780630c0102d0146102d157806312d395b3146102da575b600080fd5b61028260055481565b6040519081526020015b60405180910390f35b6102b86102a3366004611666565b600b6020526000908152604090205460ff1681565b604051901515815260200161028c565b61028260075481565b610282600c5481565b6102e26105b7565b005b6102e26102f2366004611681565b6105d6565b61028260035481565b61028260085481565b6102e26106f2565b6102e261031f366004611681565b610a0a565b61028260025481565b6102e261033b36600461169a565b610a17565b61028261034e366004611681565b610ba9565b6102e2610bf2565b6009546102b89062010000900460ff1681565b6102e261037c366004611681565b610cfb565b7fcd5ed15c6e187e77e9aee88184c21f4f2182ab5827cb3b7e07fbedcd63f033005460ff166102b8565b600d54610282565b61028260065481565b6102e2610d3c565b6000546103d7906001600160a01b031681565b6040516001600160a01b03909116815260200161028c565b6009546102b890610100900460ff1681565b61028260045481565b61028260015481565b610282610421366004611681565b610d4e565b600c54610282565b6102e261043c366004611681565b610ddb565b6102e261044f366004611666565b610de8565b7f9016d09d72d40fdae2fd8ceac6b6234c7706214fd39c1cd1e609a0528c199300546001600160a01b03166103d7565b6104bc610492366004611666565b600a6020526000908152604090208054600182015460028301546003909301549192909160ff1684565b604080519485526020850193909352918301521515606082015260800161028c565b6102e2610e3f565b6102e26104f4366004611681565b610e53565b6102e2610507366004611681565b61114c565b6102e261051a366004611681565b611159565b6102e261052d366004611681565b611166565b6102e26112c3565b6102826105483660046116e4565b6112de565b6102e261136d565b610282600d5481565b6102e261056c366004611666565b611383565b6102e261057f366004611681565b6113e2565b6102e2610592366004611681565b6113ef565b6102e26105a5366004611666565b6113fc565b6009546102b89060ff1681565b6105bf611437565b6105c7611492565b6009805460ff19166001179055565b6105de611437565b600081116106265760405162461bcd60e51b815260206004820152601060248201526f043616e6e6f74206465706f73697420360841b60448201526064015b60405180910390fd5b80600d6000828254610638919061171c565b90915550506000546040516323b872dd60e01b8152336004820152306024820152604481018390526001600160a01b03909116906323b872dd906064016020604051808303816000875af1158015610694573d6000803e3d6000fd5b505050506040513d601f19601f820116820180604052508101906106b8919061172f565b5060405181815233907fe1fffcc4923d04b559f4d29a8bfc6cda04eb5b0d3c460751c2402c5c5cc9109c906020015b60405180910390a250565b6106fa6114d5565b336000908152600a6020526040902080546107635760405162461bcd60e51b815260206004820152602360248201527f4e6f207374616b656420616d6f756e7420746f207265717565737420756e7374604482015262616b6560e81b606482015260840161061d565b600381015460ff16156107b85760405162461bcd60e51b815260206004820152601960248201527f556e7374616b6520616c72656164792072657175657374656400000000000000604482015260640161061d565b6001546000036108a4578054600080835560018301546107d99083906112de565b905081600c60008282546107ed9190611751565b909155505060005460405163a9059cbb60e01b8152336004820152602481018390526001600160a01b039091169063a9059cbb906044016020604051808303816000875af1158015610843573d6000803e3d6000fd5b505050506040513d601f19601f82011682018060405250810190610867919061172f565b5060405181815233907f7084f5476618d8e60b11ef0d7d3f06914655adb8793e28ff7f018d4c76d505d59060200160405180910390a250506109f0565b60015481600101546108b6919061171c565b4210156109145742600282015560038101805460ff19166001179055805460405133917f828764c21e74c28710e19919735825aba966621c95cbd913f8ed65a2d298f48c9161090791815260200190565b60405180910390a26109f0565b805460018201546000906109299083906112de565b905081600c600082825461093d9190611751565b909155505060005460405163a9059cbb60e01b8152336004820152602481018390526001600160a01b039091169063a9059cbb906044016020604051808303816000875af1158015610993573d6000803e3d6000fd5b505050506040513d601f19601f820116820180604052508101906109b7919061172f565b5060405181815233907f7084f5476618d8e60b11ef0d7d3f06914655adb8793e28ff7f018d4c76d505d59060200160405180910390a250505b50610a08600160008051602061179e83398151915255565b565b610a12611437565b600455565b7ff0c57e16840df040f15088dc2f81fe391c3923bec73e23a9662efc9c229c6a008054600160401b810460ff16159067ffffffffffffffff16600081158015610a5d5750825b905060008267ffffffffffffffff166001148015610a7a5750303b155b905081158015610a88575080155b15610aa65760405163f92ee8a960e01b815260040160405180910390fd5b845467ffffffffffffffff191660011785558315610ad057845460ff60401b1916600160401b1785555b610ad933611521565b610ae1611532565b610ae9611542565b600080546001600160a01b0319166001600160a01b038d1617815560018b9055600281905560035560048990556005889055603c806018610b2b601e8e611764565b610b359190611764565b610b3f9190611764565b610b499190611764565b600655600787905560088690558315610b9c57845460ff60401b19168555604051600181527fc7f505b2f371ae2175ee4913f4499e1f2633a7b5936321eed1cdaeb6115181d29060200160405180910390a15b5050505050505050505050565b60006001548210610bbc57506000919050565b600060015483600854610bcf9190611786565b610bd99190611764565b600754610be69190611751565b9392505050565b919050565b610bfa6114d5565b610c02611492565b336000908152600a60205260409020600381015460ff16610c5d5760405162461bcd60e51b8152602060048201526015602482015274155b9cdd185ad9481b9bdd081c995c5d595cdd1959605a1b604482015260640161061d565b6005548160020154610c6f919061171c565b421015610cbe5760405162461bcd60e51b815260206004820152601860248201527f436f6f6c646f776e20706572696f64206e6f74206f7665720000000000000000604482015260640161061d565b80546001820154600090610cd39083906112de565b600080855560038501805460ff19169055600c8054929350849290919061093d908490611751565b610d03611437565b6001819055603c806018610d18601e85611764565b610d229190611764565b610d2c9190611764565b610d369190611764565b60065550565b610d44611437565b610a086000611552565b60006001548210610d6d57600454610d67906090611786565b92915050565b600060015483600654610d809190611786565b610d9290670de0b6b3a7640000611786565b610d9c9190611764565b905060006ec097ce7bc90715b34b9f10000000008283600454610dbf9190611786565b610dc99190611786565b610dd39190611764565b949350505050565b610de3611437565b600555565b610df0611437565b6001600160a01b0381166000818152600b60209081526040808320805460ff19169055519182527f8daaf060c3306c38e068a75c054bf96ecd85a3db1252712c4d93632744c42e0d91016106e7565b610e47611437565b6009805460ff19169055565b610e5b6114d5565b610e63611492565b60095462010000900460ff161580610e8a5750336000908152600b602052604090205460ff165b610ed65760405162461bcd60e51b815260206004820152601760248201527f41646472657373206e6f742077686974656c6973746564000000000000000000604482015260640161061d565b60095460ff1615610f1d5760405162461bcd60e51b815260206004820152601160248201527014dd185ada5b99c81a5cc81c185d5cd959607a1b604482015260640161061d565b60008111610f5e5760405162461bcd60e51b815260206004820152600e60248201526d043616e6e6f74207374616b6520360941b604482015260640161061d565b60025415610fb857600254811015610fb85760405162461bcd60e51b815260206004820152601860248201527f416d6f756e742062656c6f77206d696e696d756d206361700000000000000000604482015260640161061d565b60035415611012576003548111156110125760405162461bcd60e51b815260206004820152601a60248201527f416d6f756e742065786365656473206d6178696d756d20636170000000000000604482015260640161061d565b60408051608081018252828152426020808301918252600083850181815260608501828152338352600a90935294812093518455915160018401559251600283015591516003909101805460ff1916911515919091179055600c805483929061107c90849061171c565b90915550506000546040516323b872dd60e01b8152336004820152306024820152604481018390526001600160a01b03909116906323b872dd906064016020604051808303816000875af11580156110d8573d6000803e3d6000fd5b505050506040513d601f19601f820116820180604052508101906110fc919061172f565b5060405181815233907f9e71bc8eea02a63969f509818f2dafb9254532904319f9dbda79b67bd34a5f3d9060200160405180910390a2611149600160008051602061179e83398151915255565b50565b611154611437565b600855565b611161611437565b600255565b61116e611437565b600081116111b25760405162461bcd60e51b8152602060048201526011602482015270043616e6e6f74207769746864726177203607c1b604482015260640161061d565b80600d5410156112045760405162461bcd60e51b815260206004820181905260248201527f4e6f7420656e6f75676820746f6b656e7320696e2072657761726420706f6f6c604482015260640161061d565b80600d60008282546112169190611751565b909155505060005460405163a9059cbb60e01b8152336004820152602481018390526001600160a01b039091169063a9059cbb906044016020604051808303816000875af115801561126c573d6000803e3d6000fd5b505050506040513d601f19601f82011682018060405250810190611290919061172f565b5060405181815233907f884edad9ce6fa2440d8a54cc123490eb96d2768479d49ff9c7366125a9424364906020016106e7565b6112cb611437565b6009805462ff0000191662010000179055565b6000806112eb8342611751565b905060006112f882610d4e565b9050600061130583610ba9565b90506000670de0b6b3a764000061131c8489611786565b6113269190611764565b90506000670de0b6b3a764000061133d8484611786565b6113479190611764565b9050600081611356848b61171c565b6113609190611751565b9998505050505050505050565b611375611437565b6009805462ff000019169055565b61138b611437565b6001600160a01b0381166000818152600b6020908152604091829020805460ff1916600190811790915591519182527f8daaf060c3306c38e068a75c054bf96ecd85a3db1252712c4d93632744c42e0d91016106e7565b6113ea611437565b600755565b6113f7611437565b600355565b611404611437565b6001600160a01b03811661142e57604051631e4fbdf760e01b81526000600482015260240161061d565b61114981611552565b336114697f9016d09d72d40fdae2fd8ceac6b6234c7706214fd39c1cd1e609a0528c199300546001600160a01b031690565b6001600160a01b031614610a085760405163118cdaa760e01b815233600482015260240161061d565b7fcd5ed15c6e187e77e9aee88184c21f4f2182ab5827cb3b7e07fbedcd63f033005460ff1615610a085760405163d93c066560e01b815260040160405180910390fd5b60008051602061179e83398151915280546001190161150757604051633ee5aeb560e01b815260040160405180910390fd5b60029055565b600160008051602061179e83398151915255565b6115296115c3565b6111498161160c565b61153a6115c3565b610a08611614565b61154a6115c3565b610a08611647565b7f9016d09d72d40fdae2fd8ceac6b6234c7706214fd39c1cd1e609a0528c19930080546001600160a01b031981166001600160a01b03848116918217845560405192169182907f8be0079c531659141344cd1fd0a4f28419497f9722a3daafe3b4186f6b6457e090600090a3505050565b7ff0c57e16840df040f15088dc2f81fe391c3923bec73e23a9662efc9c229c6a0054600160401b900460ff16610a0857604051631afcd79f60e31b815260040160405180910390fd5b6114046115c3565b61161c6115c3565b7fcd5ed15c6e187e77e9aee88184c21f4f2182ab5827cb3b7e07fbedcd63f03300805460ff19169055565b61150d6115c3565b80356001600160a01b0381168114610bed57600080fd5b60006020828403121561167857600080fd5b610be68261164f565b60006020828403121561169357600080fd5b5035919050565b60008060008060008060c087890312156116b357600080fd5b6116bc8761164f565b9860208801359850604088013597606081013597506080810135965060a00135945092505050565b600080604083850312156116f757600080fd5b50508035926020909101359150565b634e487b7160e01b600052601160045260246000fd5b80820180821115610d6757610d67611706565b60006020828403121561174157600080fd5b81518015158114610be657600080fd5b81810381811115610d6757610d67611706565b60008261178157634e487b7160e01b600052601260045260246000fd5b500490565b8082028115828204841417610d6757610d6761170656fe9b779b17422d0df92223018b32b4d1fa46e071723d6817e2486d003becc55f00a264697066735822122099a69e6af1ac76b3dbac8b35fa205d39578a1fe305837aa6877384cb5196bb4564736f6c63430008140033","opcodes":"PUSH1 0x80 PUSH1 0x40 MSTORE CALLVALUE DUP1 ISZERO PUSH2 0x10 JUMPI PUSH1 0x0 DUP1 REVERT JUMPDEST POP PUSH2 0x17F3 DUP1 PUSH2 0x20 PUSH1 0x0 CODECOPY PUSH1 0x0 RETURN INVALID PUSH1 0x80 PUSH1 0x40 MSTORE CALLVALUE DUP1 ISZERO PUSH2 0x10 JUMPI PUSH1 0x0 DUP1 REVERT JUMPDEST POP PUSH1 0x4 CALLDATASIZE LT PUSH2 0x274 JUMPI PUSH1 0x0 CALLDATALOAD PUSH1 0xE0 SHR DUP1 PUSH4 0x7A65CD0B GT PUSH2 0x151 JUMPI DUP1 PUSH4 0xBCAABF6C GT PUSH2 0xC3 JUMPI DUP1 PUSH4 0xDC7CED3D GT PUSH2 0x87 JUMPI DUP1 PUSH4 0xDC7CED3D EQ PUSH2 0x555 JUMPI DUP1 PUSH4 0xE43252D7 EQ PUSH2 0x55E JUMPI DUP1 PUSH4 0xE6D24866 EQ PUSH2 0x571 JUMPI DUP1 PUSH4 0xE81BA080 EQ PUSH2 0x584 JUMPI DUP1 PUSH4 0xF2FDE38B EQ PUSH2 0x597 JUMPI DUP1 PUSH4 0xF999C506 EQ PUSH2 0x5AA JUMPI PUSH1 0x0 DUP1 REVERT JUMPDEST DUP1 PUSH4 0xBCAABF6C EQ PUSH2 0x50C JUMPI DUP1 PUSH4 0xCB43B2DD EQ PUSH2 0x51F JUMPI DUP1 PUSH4 0xCDFB2B4E EQ PUSH2 0x532 JUMPI DUP1 PUSH4 0xD2771E01 EQ PUSH2 0x53A JUMPI DUP1 PUSH4 0xD6B0F484 EQ PUSH2 0x54D JUMPI PUSH1 0x0 DUP1 REVERT JUMPDEST DUP1 PUSH4 0x8AB1D681 GT PUSH2 0x115 JUMPI DUP1 PUSH4 0x8AB1D681 EQ PUSH2 0x441 JUMPI DUP1 PUSH4 0x8DA5CB5B EQ PUSH2 0x454 JUMPI DUP1 PUSH4 0x8DA7AD23 EQ PUSH2 0x484 JUMPI DUP1 PUSH4 0x93F4BCDE EQ PUSH2 0x4DE JUMPI DUP1 PUSH4 0xA694FC3A EQ PUSH2 0x4E6 JUMPI DUP1 PUSH4 0xB3C55721 EQ PUSH2 0x4F9 JUMPI PUSH1 0x0 DUP1 REVERT JUMPDEST DUP1 PUSH4 0x7A65CD0B EQ PUSH2 0x401 JUMPI DUP1 PUSH4 0x8005A7DE EQ PUSH2 0x40A JUMPI DUP1 PUSH4 0x80A3301B EQ PUSH2 0x413 JUMPI DUP1 PUSH4 0x817B1CD2 EQ PUSH2 0x426 JUMPI DUP1 PUSH4 0x861F6BFD EQ PUSH2 0x42E JUMPI PUSH1 0x0 DUP1 REVERT JUMPDEST DUP1 PUSH4 0x45FF4C80 GT PUSH2 0x1EA JUMPI DUP1 PUSH4 0x5C975ABB GT PUSH2 0x1AE JUMPI DUP1 PUSH4 0x5C975ABB EQ PUSH2 0x381 JUMPI DUP1 PUSH4 0x66666AA9 EQ PUSH2 0x3AB JUMPI DUP1 PUSH4 0x6F629512 EQ PUSH2 0x3B3 JUMPI DUP1 PUSH4 0x715018A6 EQ PUSH2 0x3BC JUMPI DUP1 PUSH4 0x72F702F3 EQ PUSH2 0x3C4 JUMPI DUP1 PUSH4 0x75718366 EQ PUSH2 0x3EF JUMPI PUSH1 0x0 DUP1 REVERT JUMPDEST DUP1 PUSH4 0x45FF4C80 EQ PUSH2 0x32D JUMPI DUP1 PUSH4 0x483A9310 EQ PUSH2 0x340 JUMPI DUP1 PUSH4 0x4E71D92D EQ PUSH2 0x353 JUMPI DUP1 PUSH4 0x51FB012D EQ PUSH2 0x35B JUMPI DUP1 PUSH4 0x5B1D7086 EQ PUSH2 0x36E JUMPI PUSH1 0x0 DUP1 REVERT JUMPDEST DUP1 PUSH4 0x16C621E0 GT PUSH2 0x23C JUMPI DUP1 PUSH4 0x16C621E0 EQ PUSH2 0x2E4 JUMPI DUP1 PUSH4 0x23548B8B EQ PUSH2 0x2F7 JUMPI DUP1 PUSH4 0x29161479 EQ PUSH2 0x300 JUMPI DUP1 PUSH4 0x2DEF6620 EQ PUSH2 0x309 JUMPI DUP1 PUSH4 0x36C1105A EQ PUSH2 0x311 JUMPI DUP1 PUSH4 0x3FA615B0 EQ PUSH2 0x324 JUMPI PUSH1 0x0 DUP1 REVERT JUMPDEST DUP1 PUSH4 0x4646A49 EQ PUSH2 0x279 JUMPI DUP1 PUSH4 0x6C933D8 EQ PUSH2 0x295 JUMPI DUP1 PUSH4 0xB7EAD4A EQ PUSH2 0x2C8 JUMPI DUP1 PUSH4 0xC0102D0 EQ PUSH2 0x2D1 JUMPI DUP1 PUSH4 0x12D395B3 EQ PUSH2 0x2DA JUMPI JUMPDEST PUSH1 0x0 DUP1 REVERT JUMPDEST PUSH2 0x282 PUSH1 0x5 SLOAD DUP2 JUMP JUMPDEST PUSH1 0x40 MLOAD SWAP1 DUP2 MSTORE PUSH1 0x20 ADD JUMPDEST PUSH1 0x40 MLOAD DUP1 SWAP2 SUB SWAP1 RETURN JUMPDEST PUSH2 0x2B8 PUSH2 0x2A3 CALLDATASIZE PUSH1 0x4 PUSH2 0x1666 JUMP JUMPDEST PUSH1 0xB PUSH1 0x20 MSTORE PUSH1 0x0 SWAP1 DUP2 MSTORE PUSH1 0x40 SWAP1 KECCAK256 SLOAD PUSH1 0xFF AND DUP2 JUMP JUMPDEST PUSH1 0x40 MLOAD SWAP1 ISZERO ISZERO DUP2 MSTORE PUSH1 0x20 ADD PUSH2 0x28C JUMP JUMPDEST PUSH2 0x282 PUSH1 0x7 SLOAD DUP2 JUMP JUMPDEST PUSH2 0x282 PUSH1 0xC SLOAD DUP2 JUMP JUMPDEST PUSH2 0x2E2 PUSH2 0x5B7 JUMP JUMPDEST STOP JUMPDEST PUSH2 0x2E2 PUSH2 0x2F2 CALLDATASIZE PUSH1 0x4 PUSH2 0x1681 JUMP JUMPDEST PUSH2 0x5D6 JUMP JUMPDEST PUSH2 0x282 PUSH1 0x3 SLOAD DUP2 JUMP JUMPDEST PUSH2 0x282 PUSH1 0x8 SLOAD DUP2 JUMP JUMPDEST PUSH2 0x2E2 PUSH2 0x6F2 JUMP JUMPDEST PUSH2 0x2E2 PUSH2 0x31F CALLDATASIZE PUSH1 0x4 PUSH2 0x1681 JUMP JUMPDEST PUSH2 0xA0A JUMP JUMPDEST PUSH2 0x282 PUSH1 0x2 SLOAD DUP2 JUMP JUMPDEST PUSH2 0x2E2 PUSH2 0x33B CALLDATASIZE PUSH1 0x4 PUSH2 0x169A JUMP JUMPDEST PUSH2 0xA17 JUMP JUMPDEST PUSH2 0x282 PUSH2 0x34E CALLDATASIZE PUSH1 0x4 PUSH2 0x1681 JUMP JUMPDEST PUSH2 0xBA9 JUMP JUMPDEST PUSH2 0x2E2 PUSH2 0xBF2 JUMP JUMPDEST PUSH1 0x9 SLOAD PUSH2 0x2B8 SWAP1 PUSH3 0x10000 SWAP1 DIV PUSH1 0xFF AND DUP2 JUMP JUMPDEST PUSH2 0x2E2 PUSH2 0x37C CALLDATASIZE PUSH1 0x4 PUSH2 0x1681 JUMP JUMPDEST PUSH2 0xCFB JUMP JUMPDEST PUSH32 0xCD5ED15C6E187E77E9AEE88184C21F4F2182AB5827CB3B7E07FBEDCD63F03300 SLOAD PUSH1 0xFF AND PUSH2 0x2B8 JUMP JUMPDEST PUSH1 0xD SLOAD PUSH2 0x282 JUMP JUMPDEST PUSH2 0x282 PUSH1 0x6 SLOAD DUP2 JUMP JUMPDEST PUSH2 0x2E2 PUSH2 0xD3C JUMP JUMPDEST PUSH1 0x0 SLOAD PUSH2 0x3D7 SWAP1 PUSH1 0x1 PUSH1 0x1 PUSH1 0xA0 SHL SUB AND DUP2 JUMP JUMPDEST PUSH1 0x40 MLOAD PUSH1 0x1 PUSH1 0x1 PUSH1 0xA0 SHL SUB SWAP1 SWAP2 AND DUP2 MSTORE PUSH1 0x20 ADD PUSH2 0x28C JUMP JUMPDEST PUSH1 0x9 SLOAD PUSH2 0x2B8 SWAP1 PUSH2 0x100 SWAP1 DIV PUSH1 0xFF AND DUP2 JUMP JUMPDEST PUSH2 0x282 PUSH1 0x4 SLOAD DUP2 JUMP JUMPDEST PUSH2 0x282 PUSH1 0x1 SLOAD DUP2 JUMP JUMPDEST PUSH2 0x282 PUSH2 0x421 CALLDATASIZE PUSH1 0x4 PUSH2 0x1681 JUMP JUMPDEST PUSH2 0xD4E JUMP JUMPDEST PUSH1 0xC SLOAD PUSH2 0x282 JUMP JUMPDEST PUSH2 0x2E2 PUSH2 0x43C CALLDATASIZE PUSH1 0x4 PUSH2 0x1681 JUMP JUMPDEST PUSH2 0xDDB JUMP JUMPDEST PUSH2 0x2E2 PUSH2 0x44F CALLDATASIZE PUSH1 0x4 PUSH2 0x1666 JUMP JUMPDEST PUSH2 0xDE8 JUMP JUMPDEST PUSH32 0x9016D09D72D40FDAE2FD8CEAC6B6234C7706214FD39C1CD1E609A0528C199300 SLOAD PUSH1 0x1 PUSH1 0x1 PUSH1 0xA0 SHL SUB AND PUSH2 0x3D7 JUMP JUMPDEST PUSH2 0x4BC PUSH2 0x492 CALLDATASIZE PUSH1 0x4 PUSH2 0x1666 JUMP JUMPDEST PUSH1 0xA PUSH1 0x20 MSTORE PUSH1 0x0 SWAP1 DUP2 MSTORE PUSH1 0x40 SWAP1 KECCAK256 DUP1 SLOAD PUSH1 0x1 DUP3 ADD SLOAD PUSH1 0x2 DUP4 ADD SLOAD PUSH1 0x3 SWAP1 SWAP4 ADD SLOAD SWAP2 SWAP3 SWAP1 SWAP2 PUSH1 0xFF AND DUP5 JUMP JUMPDEST PUSH1 0x40 DUP1 MLOAD SWAP5 DUP6 MSTORE PUSH1 0x20 DUP6 ADD SWAP4 SWAP1 SWAP4 MSTORE SWAP2 DUP4 ADD MSTORE ISZERO ISZERO PUSH1 0x60 DUP3 ADD MSTORE PUSH1 0x80 ADD PUSH2 0x28C JUMP JUMPDEST PUSH2 0x2E2 PUSH2 0xE3F JUMP JUMPDEST PUSH2 0x2E2 PUSH2 0x4F4 CALLDATASIZE PUSH1 0x4 PUSH2 0x1681 JUMP JUMPDEST PUSH2 0xE53 JUMP JUMPDEST PUSH2 0x2E2 PUSH2 0x507 CALLDATASIZE PUSH1 0x4 PUSH2 0x1681 JUMP JUMPDEST PUSH2 0x114C JUMP JUMPDEST PUSH2 0x2E2 PUSH2 0x51A CALLDATASIZE PUSH1 0x4 PUSH2 0x1681 JUMP JUMPDEST PUSH2 0x1159 JUMP JUMPDEST PUSH2 0x2E2 PUSH2 0x52D CALLDATASIZE PUSH1 0x4 PUSH2 0x1681 JUMP JUMPDEST PUSH2 0x1166 JUMP JUMPDEST PUSH2 0x2E2 PUSH2 0x12C3 JUMP JUMPDEST PUSH2 0x282 PUSH2 0x548 CALLDATASIZE PUSH1 0x4 PUSH2 0x16E4 JUMP JUMPDEST PUSH2 0x12DE JUMP JUMPDEST PUSH2 0x2E2 PUSH2 0x136D JUMP JUMPDEST PUSH2 0x282 PUSH1 0xD SLOAD DUP2 JUMP JUMPDEST PUSH2 0x2E2 PUSH2 0x56C CALLDATASIZE PUSH1 0x4 PUSH2 0x1666 JUMP JUMPDEST PUSH2 0x1383 JUMP JUMPDEST PUSH2 0x2E2 PUSH2 0x57F CALLDATASIZE PUSH1 0x4 PUSH2 0x1681 JUMP JUMPDEST PUSH2 0x13E2 JUMP JUMPDEST PUSH2 0x2E2 PUSH2 0x592 CALLDATASIZE PUSH1 0x4 PUSH2 0x1681 JUMP JUMPDEST PUSH2 0x13EF JUMP JUMPDEST PUSH2 0x2E2 PUSH2 0x5A5 CALLDATASIZE PUSH1 0x4 PUSH2 0x1666 JUMP JUMPDEST PUSH2 0x13FC JUMP JUMPDEST PUSH1 0x9 SLOAD PUSH2 0x2B8 SWAP1 PUSH1 0xFF AND DUP2 JUMP JUMPDEST PUSH2 0x5BF PUSH2 0x1437 JUMP JUMPDEST PUSH2 0x5C7 PUSH2 0x1492 JUMP JUMPDEST PUSH1 0x9 DUP1 SLOAD PUSH1 0xFF NOT AND PUSH1 0x1 OR SWAP1 SSTORE JUMP JUMPDEST PUSH2 0x5DE PUSH2 0x1437 JUMP JUMPDEST PUSH1 0x0 DUP2 GT PUSH2 0x626 JUMPI PUSH1 0x40 MLOAD PUSH3 0x461BCD PUSH1 0xE5 SHL DUP2 MSTORE PUSH1 0x20 PUSH1 0x4 DUP3 ADD MSTORE PUSH1 0x10 PUSH1 0x24 DUP3 ADD MSTORE PUSH16 0x43616E6E6F74206465706F736974203 PUSH1 0x84 SHL PUSH1 0x44 DUP3 ADD MSTORE PUSH1 0x64 ADD JUMPDEST PUSH1 0x40 MLOAD DUP1 SWAP2 SUB SWAP1 REVERT JUMPDEST DUP1 PUSH1 0xD PUSH1 0x0 DUP3 DUP3 SLOAD PUSH2 0x638 SWAP2 SWAP1 PUSH2 0x171C JUMP JUMPDEST SWAP1 SWAP2 SSTORE POP POP PUSH1 0x0 SLOAD PUSH1 0x40 MLOAD PUSH4 0x23B872DD PUSH1 0xE0 SHL DUP2 MSTORE CALLER PUSH1 0x4 DUP3 ADD MSTORE ADDRESS PUSH1 0x24 DUP3 ADD MSTORE PUSH1 0x44 DUP2 ADD DUP4 SWAP1 MSTORE PUSH1 0x1 PUSH1 0x1 PUSH1 0xA0 SHL SUB SWAP1 SWAP2 AND SWAP1 PUSH4 0x23B872DD SWAP1 PUSH1 0x64 ADD PUSH1 0x20 PUSH1 0x40 MLOAD DUP1 DUP4 SUB DUP2 PUSH1 0x0 DUP8 GAS CALL ISZERO DUP1 ISZERO PUSH2 0x694 JUMPI RETURNDATASIZE PUSH1 0x0 DUP1 RETURNDATACOPY RETURNDATASIZE PUSH1 0x0 REVERT JUMPDEST POP POP POP POP PUSH1 0x40 MLOAD RETURNDATASIZE PUSH1 0x1F NOT PUSH1 0x1F DUP3 ADD AND DUP3 ADD DUP1 PUSH1 0x40 MSTORE POP DUP2 ADD SWAP1 PUSH2 0x6B8 SWAP2 SWAP1 PUSH2 0x172F JUMP JUMPDEST POP PUSH1 0x40 MLOAD DUP2 DUP2 MSTORE CALLER SWAP1 PUSH32 0xE1FFFCC4923D04B559F4D29A8BFC6CDA04EB5B0D3C460751C2402C5C5CC9109C SWAP1 PUSH1 0x20 ADD JUMPDEST PUSH1 0x40 MLOAD DUP1 SWAP2 SUB SWAP1 LOG2 POP JUMP JUMPDEST PUSH2 0x6FA PUSH2 0x14D5 JUMP JUMPDEST CALLER PUSH1 0x0 SWAP1 DUP2 MSTORE PUSH1 0xA PUSH1 0x20 MSTORE PUSH1 0x40 SWAP1 KECCAK256 DUP1 SLOAD PUSH2 0x763 JUMPI PUSH1 0x40 MLOAD PUSH3 0x461BCD PUSH1 0xE5 SHL DUP2 MSTORE PUSH1 0x20 PUSH1 0x4 DUP3 ADD MSTORE PUSH1 0x23 PUSH1 0x24 DUP3 ADD MSTORE PUSH32 0x4E6F207374616B656420616D6F756E7420746F207265717565737420756E7374 PUSH1 0x44 DUP3 ADD MSTORE PUSH3 0x616B65 PUSH1 0xE8 SHL PUSH1 0x64 DUP3 ADD MSTORE PUSH1 0x84 ADD PUSH2 0x61D JUMP JUMPDEST PUSH1 0x3 DUP2 ADD SLOAD PUSH1 0xFF AND ISZERO PUSH2 0x7B8 JUMPI PUSH1 0x40 MLOAD PUSH3 0x461BCD PUSH1 0xE5 SHL DUP2 MSTORE PUSH1 0x20 PUSH1 0x4 DUP3 ADD MSTORE PUSH1 0x19 PUSH1 0x24 DUP3 ADD MSTORE PUSH32 0x556E7374616B6520616C72656164792072657175657374656400000000000000 PUSH1 0x44 DUP3 ADD MSTORE PUSH1 0x64 ADD PUSH2 0x61D JUMP JUMPDEST PUSH1 0x1 SLOAD PUSH1 0x0 SUB PUSH2 0x8A4 JUMPI DUP1 SLOAD PUSH1 0x0 DUP1 DUP4 SSTORE PUSH1 0x1 DUP4 ADD SLOAD PUSH2 0x7D9 SWAP1 DUP4 SWAP1 PUSH2 0x12DE JUMP JUMPDEST SWAP1 POP DUP2 PUSH1 0xC PUSH1 0x0 DUP3 DUP3 SLOAD PUSH2 0x7ED SWAP2 SWAP1 PUSH2 0x1751 JUMP JUMPDEST SWAP1 SWAP2 SSTORE POP POP PUSH1 0x0 SLOAD PUSH1 0x40 MLOAD PUSH4 0xA9059CBB PUSH1 0xE0 SHL DUP2 MSTORE CALLER PUSH1 0x4 DUP3 ADD MSTORE PUSH1 0x24 DUP2 ADD DUP4 SWAP1 MSTORE PUSH1 0x1 PUSH1 0x1 PUSH1 0xA0 SHL SUB SWAP1 SWAP2 AND SWAP1 PUSH4 0xA9059CBB SWAP1 PUSH1 0x44 ADD PUSH1 0x20 PUSH1 0x40 MLOAD DUP1 DUP4 SUB DUP2 PUSH1 0x0 DUP8 GAS CALL ISZERO DUP1 ISZERO PUSH2 0x843 JUMPI RETURNDATASIZE PUSH1 0x0 DUP1 RETURNDATACOPY RETURNDATASIZE PUSH1 0x0 REVERT JUMPDEST POP POP POP POP PUSH1 0x40 MLOAD RETURNDATASIZE PUSH1 0x1F NOT PUSH1 0x1F DUP3 ADD AND DUP3 ADD DUP1 PUSH1 0x40 MSTORE POP DUP2 ADD SWAP1 PUSH2 0x867 SWAP2 SWAP1 PUSH2 0x172F JUMP JUMPDEST POP PUSH1 0x40 MLOAD DUP2 DUP2 MSTORE CALLER SWAP1 PUSH32 0x7084F5476618D8E60B11EF0D7D3F06914655ADB8793E28FF7F018D4C76D505D5 SWAP1 PUSH1 0x20 ADD PUSH1 0x40 MLOAD DUP1 SWAP2 SUB SWAP1 LOG2 POP POP PUSH2 0x9F0 JUMP JUMPDEST PUSH1 0x1 SLOAD DUP2 PUSH1 0x1 ADD SLOAD PUSH2 0x8B6 SWAP2 SWAP1 PUSH2 0x171C JUMP JUMPDEST TIMESTAMP LT ISZERO PUSH2 0x914 JUMPI TIMESTAMP PUSH1 0x2 DUP3 ADD SSTORE PUSH1 0x3 DUP2 ADD DUP1 SLOAD PUSH1 0xFF NOT AND PUSH1 0x1 OR SWAP1 SSTORE DUP1 SLOAD PUSH1 0x40 MLOAD CALLER SWAP2 PUSH32 0x828764C21E74C28710E19919735825ABA966621C95CBD913F8ED65A2D298F48C SWAP2 PUSH2 0x907 SWAP2 DUP2 MSTORE PUSH1 0x20 ADD SWAP1 JUMP JUMPDEST PUSH1 0x40 MLOAD DUP1 SWAP2 SUB SWAP1 LOG2 PUSH2 0x9F0 JUMP JUMPDEST DUP1 SLOAD PUSH1 0x1 DUP3 ADD SLOAD PUSH1 0x0 SWAP1 PUSH2 0x929 SWAP1 DUP4 SWAP1 PUSH2 0x12DE JUMP JUMPDEST SWAP1 POP DUP2 PUSH1 0xC PUSH1 0x0 DUP3 DUP3 SLOAD PUSH2 0x93D SWAP2 SWAP1 PUSH2 0x1751 JUMP JUMPDEST SWAP1 SWAP2 SSTORE POP POP PUSH1 0x0 SLOAD PUSH1 0x40 MLOAD PUSH4 0xA9059CBB PUSH1 0xE0 SHL DUP2 MSTORE CALLER PUSH1 0x4 DUP3 ADD MSTORE PUSH1 0x24 DUP2 ADD DUP4 SWAP1 MSTORE PUSH1 0x1 PUSH1 0x1 PUSH1 0xA0 SHL SUB SWAP1 SWAP2 AND SWAP1 PUSH4 0xA9059CBB SWAP1 PUSH1 0x44 ADD PUSH1 0x20 PUSH1 0x40 MLOAD DUP1 DUP4 SUB DUP2 PUSH1 0x0 DUP8 GAS CALL ISZERO DUP1 ISZERO PUSH2 0x993 JUMPI RETURNDATASIZE PUSH1 0x0 DUP1 RETURNDATACOPY RETURNDATASIZE PUSH1 0x0 REVERT JUMPDEST POP POP POP POP PUSH1 0x40 MLOAD RETURNDATASIZE PUSH1 0x1F NOT PUSH1 0x1F DUP3 ADD AND DUP3 ADD DUP1 PUSH1 0x40 MSTORE POP DUP2 ADD SWAP1 PUSH2 0x9B7 SWAP2 SWAP1 PUSH2 0x172F JUMP JUMPDEST POP PUSH1 0x40 MLOAD DUP2 DUP2 MSTORE CALLER SWAP1 PUSH32 0x7084F5476618D8E60B11EF0D7D3F06914655ADB8793E28FF7F018D4C76D505D5 SWAP1 PUSH1 0x20 ADD PUSH1 0x40 MLOAD DUP1 SWAP2 SUB SWAP1 LOG2 POP POP JUMPDEST POP PUSH2 0xA08 PUSH1 0x1 PUSH1 0x0 DUP1 MLOAD PUSH1 0x20 PUSH2 0x179E DUP4 CODECOPY DUP2 MLOAD SWAP2 MSTORE SSTORE JUMP JUMPDEST JUMP JUMPDEST PUSH2 0xA12 PUSH2 0x1437 JUMP JUMPDEST PUSH1 0x4 SSTORE JUMP JUMPDEST PUSH32 0xF0C57E16840DF040F15088DC2F81FE391C3923BEC73E23A9662EFC9C229C6A00 DUP1 SLOAD PUSH1 0x1 PUSH1 0x40 SHL DUP2 DIV PUSH1 0xFF AND ISZERO SWAP1 PUSH8 0xFFFFFFFFFFFFFFFF AND PUSH1 0x0 DUP2 ISZERO DUP1 ISZERO PUSH2 0xA5D JUMPI POP DUP3 JUMPDEST SWAP1 POP PUSH1 0x0 DUP3 PUSH8 0xFFFFFFFFFFFFFFFF AND PUSH1 0x1 EQ DUP1 ISZERO PUSH2 0xA7A JUMPI POP ADDRESS EXTCODESIZE ISZERO JUMPDEST SWAP1 POP DUP2 ISZERO DUP1 ISZERO PUSH2 0xA88 JUMPI POP DUP1 ISZERO JUMPDEST ISZERO PUSH2 0xAA6 JUMPI PUSH1 0x40 MLOAD PUSH4 0xF92EE8A9 PUSH1 0xE0 SHL DUP2 MSTORE PUSH1 0x4 ADD PUSH1 0x40 MLOAD DUP1 SWAP2 SUB SWAP1 REVERT JUMPDEST DUP5 SLOAD PUSH8 0xFFFFFFFFFFFFFFFF NOT AND PUSH1 0x1 OR DUP6 SSTORE DUP4 ISZERO PUSH2 0xAD0 JUMPI DUP5 SLOAD PUSH1 0xFF PUSH1 0x40 SHL NOT AND PUSH1 0x1 PUSH1 0x40 SHL OR DUP6 SSTORE JUMPDEST PUSH2 0xAD9 CALLER PUSH2 0x1521 JUMP JUMPDEST PUSH2 0xAE1 PUSH2 0x1532 JUMP JUMPDEST PUSH2 0xAE9 PUSH2 0x1542 JUMP JUMPDEST PUSH1 0x0 DUP1 SLOAD PUSH1 0x1 PUSH1 0x1 PUSH1 0xA0 SHL SUB NOT AND PUSH1 0x1 PUSH1 0x1 PUSH1 0xA0 SHL SUB DUP14 AND OR DUP2 SSTORE PUSH1 0x1 DUP12 SWAP1 SSTORE PUSH1 0x2 DUP2 SWAP1 SSTORE PUSH1 0x3 SSTORE PUSH1 0x4 DUP10 SWAP1 SSTORE PUSH1 0x5 DUP9 SWAP1 SSTORE PUSH1 0x3C DUP1 PUSH1 0x18 PUSH2 0xB2B PUSH1 0x1E DUP15 PUSH2 0x1764 JUMP JUMPDEST PUSH2 0xB35 SWAP2 SWAP1 PUSH2 0x1764 JUMP JUMPDEST PUSH2 0xB3F SWAP2 SWAP1 PUSH2 0x1764 JUMP JUMPDEST PUSH2 0xB49 SWAP2 SWAP1 PUSH2 0x1764 JUMP JUMPDEST PUSH1 0x6 SSTORE PUSH1 0x7 DUP8 SWAP1 SSTORE PUSH1 0x8 DUP7 SWAP1 SSTORE DUP4 ISZERO PUSH2 0xB9C JUMPI DUP5 SLOAD PUSH1 0xFF PUSH1 0x40 SHL NOT AND DUP6 SSTORE PUSH1 0x40 MLOAD PUSH1 0x1 DUP2 MSTORE PUSH32 0xC7F505B2F371AE2175EE4913F4499E1F2633A7B5936321EED1CDAEB6115181D2 SWAP1 PUSH1 0x20 ADD PUSH1 0x40 MLOAD DUP1 SWAP2 SUB SWAP1 LOG1 JUMPDEST POP POP POP POP POP POP POP POP POP POP POP JUMP JUMPDEST PUSH1 0x0 PUSH1 0x1 SLOAD DUP3 LT PUSH2 0xBBC JUMPI POP PUSH1 0x0 SWAP2 SWAP1 POP JUMP JUMPDEST PUSH1 0x0 PUSH1 0x1 SLOAD DUP4 PUSH1 0x8 SLOAD PUSH2 0xBCF SWAP2 SWAP1 PUSH2 0x1786 JUMP JUMPDEST PUSH2 0xBD9 SWAP2 SWAP1 PUSH2 0x1764 JUMP JUMPDEST PUSH1 0x7 SLOAD PUSH2 0xBE6 SWAP2 SWAP1 PUSH2 0x1751 JUMP JUMPDEST SWAP4 SWAP3 POP POP POP JUMP JUMPDEST SWAP2 SWAP1 POP JUMP JUMPDEST PUSH2 0xBFA PUSH2 0x14D5 JUMP JUMPDEST PUSH2 0xC02 PUSH2 0x1492 JUMP JUMPDEST CALLER PUSH1 0x0 SWAP1 DUP2 MSTORE PUSH1 0xA PUSH1 0x20 MSTORE PUSH1 0x40 SWAP1 KECCAK256 PUSH1 0x3 DUP2 ADD SLOAD PUSH1 0xFF AND PUSH2 0xC5D JUMPI PUSH1 0x40 MLOAD PUSH3 0x461BCD PUSH1 0xE5 SHL DUP2 MSTORE PUSH1 0x20 PUSH1 0x4 DUP3 ADD MSTORE PUSH1 0x15 PUSH1 0x24 DUP3 ADD MSTORE PUSH21 0x155B9CDD185AD9481B9BDD081C995C5D595CDD1959 PUSH1 0x5A SHL PUSH1 0x44 DUP3 ADD MSTORE PUSH1 0x64 ADD PUSH2 0x61D JUMP JUMPDEST PUSH1 0x5 SLOAD DUP2 PUSH1 0x2 ADD SLOAD PUSH2 0xC6F SWAP2 SWAP1 PUSH2 0x171C JUMP JUMPDEST TIMESTAMP LT ISZERO PUSH2 0xCBE JUMPI PUSH1 0x40 MLOAD PUSH3 0x461BCD PUSH1 0xE5 SHL DUP2 MSTORE PUSH1 0x20 PUSH1 0x4 DUP3 ADD MSTORE PUSH1 0x18 PUSH1 0x24 DUP3 ADD MSTORE PUSH32 0x436F6F6C646F776E20706572696F64206E6F74206F7665720000000000000000 PUSH1 0x44 DUP3 ADD MSTORE PUSH1 0x64 ADD PUSH2 0x61D JUMP JUMPDEST DUP1 SLOAD PUSH1 0x1 DUP3 ADD SLOAD PUSH1 0x0 SWAP1 PUSH2 0xCD3 SWAP1 DUP4 SWAP1 PUSH2 0x12DE JUMP JUMPDEST PUSH1 0x0 DUP1 DUP6 SSTORE PUSH1 0x3 DUP6 ADD DUP1 SLOAD PUSH1 0xFF NOT AND SWAP1 SSTORE PUSH1 0xC DUP1 SLOAD SWAP3 SWAP4 POP DUP5 SWAP3 SWAP1 SWAP2 SWAP1 PUSH2 0x93D SWAP1 DUP5 SWAP1 PUSH2 0x1751 JUMP JUMPDEST PUSH2 0xD03 PUSH2 0x1437 JUMP JUMPDEST PUSH1 0x1 DUP2 SWAP1 SSTORE PUSH1 0x3C DUP1 PUSH1 0x18 PUSH2 0xD18 PUSH1 0x1E DUP6 PUSH2 0x1764 JUMP JUMPDEST PUSH2 0xD22 SWAP2 SWAP1 PUSH2 0x1764 JUMP JUMPDEST PUSH2 0xD2C SWAP2 SWAP1 PUSH2 0x1764 JUMP JUMPDEST PUSH2 0xD36 SWAP2 SWAP1 PUSH2 0x1764 JUMP JUMPDEST PUSH1 0x6 SSTORE POP JUMP JUMPDEST PUSH2 0xD44 PUSH2 0x1437 JUMP JUMPDEST PUSH2 0xA08 PUSH1 0x0 PUSH2 0x1552 JUMP JUMPDEST PUSH1 0x0 PUSH1 0x1 SLOAD DUP3 LT PUSH2 0xD6D JUMPI PUSH1 0x4 SLOAD PUSH2 0xD67 SWAP1 PUSH1 0x90 PUSH2 0x1786 JUMP JUMPDEST SWAP3 SWAP2 POP POP JUMP JUMPDEST PUSH1 0x0 PUSH1 0x1 SLOAD DUP4 PUSH1 0x6 SLOAD PUSH2 0xD80 SWAP2 SWAP1 PUSH2 0x1786 JUMP JUMPDEST PUSH2 0xD92 SWAP1 PUSH8 0xDE0B6B3A7640000 PUSH2 0x1786 JUMP JUMPDEST PUSH2 0xD9C SWAP2 SWAP1 PUSH2 0x1764 JUMP JUMPDEST SWAP1 POP PUSH1 0x0 PUSH15 0xC097CE7BC90715B34B9F1000000000 DUP3 DUP4 PUSH1 0x4 SLOAD PUSH2 0xDBF SWAP2 SWAP1 PUSH2 0x1786 JUMP JUMPDEST PUSH2 0xDC9 SWAP2 SWAP1 PUSH2 0x1786 JUMP JUMPDEST PUSH2 0xDD3 SWAP2 SWAP1 PUSH2 0x1764 JUMP JUMPDEST SWAP5 SWAP4 POP POP POP POP JUMP JUMPDEST PUSH2 0xDE3 PUSH2 0x1437 JUMP JUMPDEST PUSH1 0x5 SSTORE JUMP JUMPDEST PUSH2 0xDF0 PUSH2 0x1437 JUMP JUMPDEST PUSH1 0x1 PUSH1 0x1 PUSH1 0xA0 SHL SUB DUP2 AND PUSH1 0x0 DUP2 DUP2 MSTORE PUSH1 0xB PUSH1 0x20 SWAP1 DUP2 MSTORE PUSH1 0x40 DUP1 DUP4 KECCAK256 DUP1 SLOAD PUSH1 0xFF NOT AND SWAP1 SSTORE MLOAD SWAP2 DUP3 MSTORE PUSH32 0x8DAAF060C3306C38E068A75C054BF96ECD85A3DB1252712C4D93632744C42E0D SWAP2 ADD PUSH2 0x6E7 JUMP JUMPDEST PUSH2 0xE47 PUSH2 0x1437 JUMP JUMPDEST PUSH1 0x9 DUP1 SLOAD PUSH1 0xFF NOT AND SWAP1 SSTORE JUMP JUMPDEST PUSH2 0xE5B PUSH2 0x14D5 JUMP JUMPDEST PUSH2 0xE63 PUSH2 0x1492 JUMP JUMPDEST PUSH1 0x9 SLOAD PUSH3 0x10000 SWAP1 DIV PUSH1 0xFF AND ISZERO DUP1 PUSH2 0xE8A JUMPI POP CALLER PUSH1 0x0 SWAP1 DUP2 MSTORE PUSH1 0xB PUSH1 0x20 MSTORE PUSH1 0x40 SWAP1 KECCAK256 SLOAD PUSH1 0xFF AND JUMPDEST PUSH2 0xED6 JUMPI PUSH1 0x40 MLOAD PUSH3 0x461BCD PUSH1 0xE5 SHL DUP2 MSTORE PUSH1 0x20 PUSH1 0x4 DUP3 ADD MSTORE PUSH1 0x17 PUSH1 0x24 DUP3 ADD MSTORE PUSH32 0x41646472657373206E6F742077686974656C6973746564000000000000000000 PUSH1 0x44 DUP3 ADD MSTORE PUSH1 0x64 ADD PUSH2 0x61D JUMP JUMPDEST PUSH1 0x9 SLOAD PUSH1 0xFF AND ISZERO PUSH2 0xF1D JUMPI PUSH1 0x40 MLOAD PUSH3 0x461BCD PUSH1 0xE5 SHL DUP2 MSTORE PUSH1 0x20 PUSH1 0x4 DUP3 ADD MSTORE PUSH1 0x11 PUSH1 0x24 DUP3 ADD MSTORE PUSH17 0x14DD185ADA5B99C81A5CC81C185D5CD959 PUSH1 0x7A SHL PUSH1 0x44 DUP3 ADD MSTORE PUSH1 0x64 ADD PUSH2 0x61D JUMP JUMPDEST PUSH1 0x0 DUP2 GT PUSH2 0xF5E JUMPI PUSH1 0x40 MLOAD PUSH3 0x461BCD PUSH1 0xE5 SHL DUP2 MSTORE PUSH1 0x20 PUSH1 0x4 DUP3 ADD MSTORE PUSH1 0xE PUSH1 0x24 DUP3 ADD MSTORE PUSH14 0x43616E6E6F74207374616B65203 PUSH1 0x94 SHL PUSH1 0x44 DUP3 ADD MSTORE PUSH1 0x64 ADD PUSH2 0x61D JUMP JUMPDEST PUSH1 0x2 SLOAD ISZERO PUSH2 0xFB8 JUMPI PUSH1 0x2 SLOAD DUP2 LT ISZERO PUSH2 0xFB8 JUMPI PUSH1 0x40 MLOAD PUSH3 0x461BCD PUSH1 0xE5 SHL DUP2 MSTORE PUSH1 0x20 PUSH1 0x4 DUP3 ADD MSTORE PUSH1 0x18 PUSH1 0x24 DUP3 ADD MSTORE PUSH32 0x416D6F756E742062656C6F77206D696E696D756D206361700000000000000000 PUSH1 0x44 DUP3 ADD MSTORE PUSH1 0x64 ADD PUSH2 0x61D JUMP JUMPDEST PUSH1 0x3 SLOAD ISZERO PUSH2 0x1012 JUMPI PUSH1 0x3 SLOAD DUP2 GT ISZERO PUSH2 0x1012 JUMPI PUSH1 0x40 MLOAD PUSH3 0x461BCD PUSH1 0xE5 SHL DUP2 MSTORE PUSH1 0x20 PUSH1 0x4 DUP3 ADD MSTORE PUSH1 0x1A PUSH1 0x24 DUP3 ADD MSTORE PUSH32 0x416D6F756E742065786365656473206D6178696D756D20636170000000000000 PUSH1 0x44 DUP3 ADD MSTORE PUSH1 0x64 ADD PUSH2 0x61D JUMP JUMPDEST PUSH1 0x40 DUP1 MLOAD PUSH1 0x80 DUP2 ADD DUP3 MSTORE DUP3 DUP2 MSTORE TIMESTAMP PUSH1 0x20 DUP1 DUP4 ADD SWAP2 DUP3 MSTORE PUSH1 0x0 DUP4 DUP6 ADD DUP2 DUP2 MSTORE PUSH1 0x60 DUP6 ADD DUP3 DUP2 MSTORE CALLER DUP4 MSTORE PUSH1 0xA SWAP1 SWAP4 MSTORE SWAP5 DUP2 KECCAK256 SWAP4 MLOAD DUP5 SSTORE SWAP2 MLOAD PUSH1 0x1 DUP5 ADD SSTORE SWAP3 MLOAD PUSH1 0x2 DUP4 ADD SSTORE SWAP2 MLOAD PUSH1 0x3 SWAP1 SWAP2 ADD DUP1 SLOAD PUSH1 0xFF NOT AND SWAP2 ISZERO ISZERO SWAP2 SWAP1 SWAP2 OR SWAP1 SSTORE PUSH1 0xC DUP1 SLOAD DUP4 SWAP3 SWAP1 PUSH2 0x107C SWAP1 DUP5 SWAP1 PUSH2 0x171C JUMP JUMPDEST SWAP1 SWAP2 SSTORE POP POP PUSH1 0x0 SLOAD PUSH1 0x40 MLOAD PUSH4 0x23B872DD PUSH1 0xE0 SHL DUP2 MSTORE CALLER PUSH1 0x4 DUP3 ADD MSTORE ADDRESS PUSH1 0x24 DUP3 ADD MSTORE PUSH1 0x44 DUP2 ADD DUP4 SWAP1 MSTORE PUSH1 0x1 PUSH1 0x1 PUSH1 0xA0 SHL SUB SWAP1 SWAP2 AND SWAP1 PUSH4 0x23B872DD SWAP1 PUSH1 0x64 ADD PUSH1 0x20 PUSH1 0x40 MLOAD DUP1 DUP4 SUB DUP2 PUSH1 0x0 DUP8 GAS CALL ISZERO DUP1 ISZERO PUSH2 0x10D8 JUMPI RETURNDATASIZE PUSH1 0x0 DUP1 RETURNDATACOPY RETURNDATASIZE PUSH1 0x0 REVERT JUMPDEST POP POP POP POP PUSH1 0x40 MLOAD RETURNDATASIZE PUSH1 0x1F NOT PUSH1 0x1F DUP3 ADD AND DUP3 ADD DUP1 PUSH1 0x40 MSTORE POP DUP2 ADD SWAP1 PUSH2 0x10FC SWAP2 SWAP1 PUSH2 0x172F JUMP JUMPDEST POP PUSH1 0x40 MLOAD DUP2 DUP2 MSTORE CALLER SWAP1 PUSH32 0x9E71BC8EEA02A63969F509818F2DAFB9254532904319F9DBDA79B67BD34A5F3D SWAP1 PUSH1 0x20 ADD PUSH1 0x40 MLOAD DUP1 SWAP2 SUB SWAP1 LOG2 PUSH2 0x1149 PUSH1 0x1 PUSH1 0x0 DUP1 MLOAD PUSH1 0x20 PUSH2 0x179E DUP4 CODECOPY DUP2 MLOAD SWAP2 MSTORE SSTORE JUMP JUMPDEST POP JUMP JUMPDEST PUSH2 0x1154 PUSH2 0x1437 JUMP JUMPDEST PUSH1 0x8 SSTORE JUMP JUMPDEST PUSH2 0x1161 PUSH2 0x1437 JUMP JUMPDEST PUSH1 0x2 SSTORE JUMP JUMPDEST PUSH2 0x116E PUSH2 0x1437 JUMP JUMPDEST PUSH1 0x0 DUP2 GT PUSH2 0x11B2 JUMPI PUSH1 0x40 MLOAD PUSH3 0x461BCD PUSH1 0xE5 SHL DUP2 MSTORE PUSH1 0x20 PUSH1 0x4 DUP3 ADD MSTORE PUSH1 0x11 PUSH1 0x24 DUP3 ADD MSTORE PUSH17 0x43616E6E6F74207769746864726177203 PUSH1 0x7C SHL PUSH1 0x44 DUP3 ADD MSTORE PUSH1 0x64 ADD PUSH2 0x61D JUMP JUMPDEST DUP1 PUSH1 0xD SLOAD LT ISZERO PUSH2 0x1204 JUMPI PUSH1 0x40 MLOAD PUSH3 0x461BCD PUSH1 0xE5 SHL DUP2 MSTORE PUSH1 0x20 PUSH1 0x4 DUP3 ADD DUP2 SWAP1 MSTORE PUSH1 0x24 DUP3 ADD MSTORE PUSH32 0x4E6F7420656E6F75676820746F6B656E7320696E2072657761726420706F6F6C PUSH1 0x44 DUP3 ADD MSTORE PUSH1 0x64 ADD PUSH2 0x61D JUMP JUMPDEST DUP1 PUSH1 0xD PUSH1 0x0 DUP3 DUP3 SLOAD PUSH2 0x1216 SWAP2 SWAP1 PUSH2 0x1751 JUMP JUMPDEST SWAP1 SWAP2 SSTORE POP POP PUSH1 0x0 SLOAD PUSH1 0x40 MLOAD PUSH4 0xA9059CBB PUSH1 0xE0 SHL DUP2 MSTORE CALLER PUSH1 0x4 DUP3 ADD MSTORE PUSH1 0x24 DUP2 ADD DUP4 SWAP1 MSTORE PUSH1 0x1 PUSH1 0x1 PUSH1 0xA0 SHL SUB SWAP1 SWAP2 AND SWAP1 PUSH4 0xA9059CBB SWAP1 PUSH1 0x44 ADD PUSH1 0x20 PUSH1 0x40 MLOAD DUP1 DUP4 SUB DUP2 PUSH1 0x0 DUP8 GAS CALL ISZERO DUP1 ISZERO PUSH2 0x126C JUMPI RETURNDATASIZE PUSH1 0x0 DUP1 RETURNDATACOPY RETURNDATASIZE PUSH1 0x0 REVERT JUMPDEST POP POP POP POP PUSH1 0x40 MLOAD RETURNDATASIZE PUSH1 0x1F NOT PUSH1 0x1F DUP3 ADD AND DUP3 ADD DUP1 PUSH1 0x40 MSTORE POP DUP2 ADD SWAP1 PUSH2 0x1290 SWAP2 SWAP1 PUSH2 0x172F JUMP JUMPDEST POP PUSH1 0x40 MLOAD DUP2 DUP2 MSTORE CALLER SWAP1 PUSH32 0x884EDAD9CE6FA2440D8A54CC123490EB96D2768479D49FF9C7366125A9424364 SWAP1 PUSH1 0x20 ADD PUSH2 0x6E7 JUMP JUMPDEST PUSH2 0x12CB PUSH2 0x1437 JUMP JUMPDEST PUSH1 0x9 DUP1 SLOAD PUSH3 0xFF0000 NOT AND PUSH3 0x10000 OR SWAP1 SSTORE JUMP JUMPDEST PUSH1 0x0 DUP1 PUSH2 0x12EB DUP4 TIMESTAMP PUSH2 0x1751 JUMP JUMPDEST SWAP1 POP PUSH1 0x0 PUSH2 0x12F8 DUP3 PUSH2 0xD4E JUMP JUMPDEST SWAP1 POP PUSH1 0x0 PUSH2 0x1305 DUP4 PUSH2 0xBA9 JUMP JUMPDEST SWAP1 POP PUSH1 0x0 PUSH8 0xDE0B6B3A7640000 PUSH2 0x131C DUP5 DUP10 PUSH2 0x1786 JUMP JUMPDEST PUSH2 0x1326 SWAP2 SWAP1 PUSH2 0x1764 JUMP JUMPDEST SWAP1 POP PUSH1 0x0 PUSH8 0xDE0B6B3A7640000 PUSH2 0x133D DUP5 DUP5 PUSH2 0x1786 JUMP JUMPDEST PUSH2 0x1347 SWAP2 SWAP1 PUSH2 0x1764 JUMP JUMPDEST SWAP1 POP PUSH1 0x0 DUP2 PUSH2 0x1356 DUP5 DUP12 PUSH2 0x171C JUMP JUMPDEST PUSH2 0x1360 SWAP2 SWAP1 PUSH2 0x1751 JUMP JUMPDEST SWAP10 SWAP9 POP POP POP POP POP POP POP POP POP JUMP JUMPDEST PUSH2 0x1375 PUSH2 0x1437 JUMP JUMPDEST PUSH1 0x9 DUP1 SLOAD PUSH3 0xFF0000 NOT AND SWAP1 SSTORE JUMP JUMPDEST PUSH2 0x138B PUSH2 0x1437 JUMP JUMPDEST PUSH1 0x1 PUSH1 0x1 PUSH1 0xA0 SHL SUB DUP2 AND PUSH1 0x0 DUP2 DUP2 MSTORE PUSH1 0xB PUSH1 0x20 SWAP1 DUP2 MSTORE PUSH1 0x40 SWAP2 DUP3 SWAP1 KECCAK256 DUP1 SLOAD PUSH1 0xFF NOT AND PUSH1 0x1 SWAP1 DUP2 OR SWAP1 SWAP2 SSTORE SWAP2 MLOAD SWAP2 DUP3 MSTORE PUSH32 0x8DAAF060C3306C38E068A75C054BF96ECD85A3DB1252712C4D93632744C42E0D SWAP2 ADD PUSH2 0x6E7 JUMP JUMPDEST PUSH2 0x13EA PUSH2 0x1437 JUMP JUMPDEST PUSH1 0x7 SSTORE JUMP JUMPDEST PUSH2 0x13F7 PUSH2 0x1437 JUMP JUMPDEST PUSH1 0x3 SSTORE JUMP JUMPDEST PUSH2 0x1404 PUSH2 0x1437 JUMP JUMPDEST PUSH1 0x1 PUSH1 0x1 PUSH1 0xA0 SHL SUB DUP2 AND PUSH2 0x142E JUMPI PUSH1 0x40 MLOAD PUSH4 0x1E4FBDF7 PUSH1 0xE0 SHL DUP2 MSTORE PUSH1 0x0 PUSH1 0x4 DUP3 ADD MSTORE PUSH1 0x24 ADD PUSH2 0x61D JUMP JUMPDEST PUSH2 0x1149 DUP2 PUSH2 0x1552 JUMP JUMPDEST CALLER PUSH2 0x1469 PUSH32 0x9016D09D72D40FDAE2FD8CEAC6B6234C7706214FD39C1CD1E609A0528C199300 SLOAD PUSH1 0x1 PUSH1 0x1 PUSH1 0xA0 SHL SUB AND SWAP1 JUMP JUMPDEST PUSH1 0x1 PUSH1 0x1 PUSH1 0xA0 SHL SUB AND EQ PUSH2 0xA08 JUMPI PUSH1 0x40 MLOAD PUSH4 0x118CDAA7 PUSH1 0xE0 SHL DUP2 MSTORE CALLER PUSH1 0x4 DUP3 ADD MSTORE PUSH1 0x24 ADD PUSH2 0x61D JUMP JUMPDEST PUSH32 0xCD5ED15C6E187E77E9AEE88184C21F4F2182AB5827CB3B7E07FBEDCD63F03300 SLOAD PUSH1 0xFF AND ISZERO PUSH2 0xA08 JUMPI PUSH1 0x40 MLOAD PUSH4 0xD93C0665 PUSH1 0xE0 SHL DUP2 MSTORE PUSH1 0x4 ADD PUSH1 0x40 MLOAD DUP1 SWAP2 SUB SWAP1 REVERT JUMPDEST PUSH1 0x0 DUP1 MLOAD PUSH1 0x20 PUSH2 0x179E DUP4 CODECOPY DUP2 MLOAD SWAP2 MSTORE DUP1 SLOAD PUSH1 0x1 NOT ADD PUSH2 0x1507 JUMPI PUSH1 0x40 MLOAD PUSH4 0x3EE5AEB5 PUSH1 0xE0 SHL DUP2 MSTORE PUSH1 0x4 ADD PUSH1 0x40 MLOAD DUP1 SWAP2 SUB SWAP1 REVERT JUMPDEST PUSH1 0x2 SWAP1 SSTORE JUMP JUMPDEST PUSH1 0x1 PUSH1 0x0 DUP1 MLOAD PUSH1 0x20 PUSH2 0x179E DUP4 CODECOPY DUP2 MLOAD SWAP2 MSTORE SSTORE JUMP JUMPDEST PUSH2 0x1529 PUSH2 0x15C3 JUMP JUMPDEST PUSH2 0x1149 DUP2 PUSH2 0x160C JUMP JUMPDEST PUSH2 0x153A PUSH2 0x15C3 JUMP JUMPDEST PUSH2 0xA08 PUSH2 0x1614 JUMP JUMPDEST PUSH2 0x154A PUSH2 0x15C3 JUMP JUMPDEST PUSH2 0xA08 PUSH2 0x1647 JUMP JUMPDEST PUSH32 0x9016D09D72D40FDAE2FD8CEAC6B6234C7706214FD39C1CD1E609A0528C199300 DUP1 SLOAD PUSH1 0x1 PUSH1 0x1 PUSH1 0xA0 SHL SUB NOT DUP2 AND PUSH1 0x1 PUSH1 0x1 PUSH1 0xA0 SHL SUB DUP5 DUP2 AND SWAP2 DUP3 OR DUP5 SSTORE PUSH1 0x40 MLOAD SWAP3 AND SWAP2 DUP3 SWAP1 PUSH32 0x8BE0079C531659141344CD1FD0A4F28419497F9722A3DAAFE3B4186F6B6457E0 SWAP1 PUSH1 0x0 SWAP1 LOG3 POP POP POP JUMP JUMPDEST PUSH32 0xF0C57E16840DF040F15088DC2F81FE391C3923BEC73E23A9662EFC9C229C6A00 SLOAD PUSH1 0x1 PUSH1 0x40 SHL SWAP1 DIV PUSH1 0xFF AND PUSH2 0xA08 JUMPI PUSH1 0x40 MLOAD PUSH4 0x1AFCD79F PUSH1 0xE3 SHL DUP2 MSTORE PUSH1 0x4 ADD PUSH1 0x40 MLOAD DUP1 SWAP2 SUB SWAP1 REVERT JUMPDEST PUSH2 0x1404 PUSH2 0x15C3 JUMP JUMPDEST PUSH2 0x161C PUSH2 0x15C3 JUMP JUMPDEST PUSH32 0xCD5ED15C6E187E77E9AEE88184C21F4F2182AB5827CB3B7E07FBEDCD63F03300 DUP1 SLOAD PUSH1 0xFF NOT AND SWAP1 SSTORE JUMP JUMPDEST PUSH2 0x150D PUSH2 0x15C3 JUMP JUMPDEST DUP1 CALLDATALOAD PUSH1 0x1 PUSH1 0x1 PUSH1 0xA0 SHL SUB DUP2 AND DUP2 EQ PUSH2 0xBED JUMPI PUSH1 0x0 DUP1 REVERT JUMPDEST PUSH1 0x0 PUSH1 0x20 DUP3 DUP5 SUB SLT ISZERO PUSH2 0x1678 JUMPI PUSH1 0x0 DUP1 REVERT JUMPDEST PUSH2 0xBE6 DUP3 PUSH2 0x164F JUMP JUMPDEST PUSH1 0x0 PUSH1 0x20 DUP3 DUP5 SUB SLT ISZERO PUSH2 0x1693 JUMPI PUSH1 0x0 DUP1 REVERT JUMPDEST POP CALLDATALOAD SWAP2 SWAP1 POP JUMP JUMPDEST PUSH1 0x0 DUP1 PUSH1 0x0 DUP1 PUSH1 0x0 DUP1 PUSH1 0xC0 DUP8 DUP10 SUB SLT ISZERO PUSH2 0x16B3 JUMPI PUSH1 0x0 DUP1 REVERT JUMPDEST PUSH2 0x16BC DUP8 PUSH2 0x164F JUMP JUMPDEST SWAP9 PUSH1 0x20 DUP9 ADD CALLDATALOAD SWAP9 POP PUSH1 0x40 DUP9 ADD CALLDATALOAD SWAP8 PUSH1 0x60 DUP2 ADD CALLDATALOAD SWAP8 POP PUSH1 0x80 DUP2 ADD CALLDATALOAD SWAP7 POP PUSH1 0xA0 ADD CALLDATALOAD SWAP5 POP SWAP3 POP POP POP JUMP JUMPDEST PUSH1 0x0 DUP1 PUSH1 0x40 DUP4 DUP6 SUB SLT ISZERO PUSH2 0x16F7 JUMPI PUSH1 0x0 DUP1 REVERT JUMPDEST POP POP DUP1 CALLDATALOAD SWAP3 PUSH1 0x20 SWAP1 SWAP2 ADD CALLDATALOAD SWAP2 POP JUMP JUMPDEST PUSH4 0x4E487B71 PUSH1 0xE0 SHL PUSH1 0x0 MSTORE PUSH1 0x11 PUSH1 0x4 MSTORE PUSH1 0x24 PUSH1 0x0 REVERT JUMPDEST DUP1 DUP3 ADD DUP1 DUP3 GT ISZERO PUSH2 0xD67 JUMPI PUSH2 0xD67 PUSH2 0x1706 JUMP JUMPDEST PUSH1 0x0 PUSH1 0x20 DUP3 DUP5 SUB SLT ISZERO PUSH2 0x1741 JUMPI PUSH1 0x0 DUP1 REVERT JUMPDEST DUP2 MLOAD DUP1 ISZERO ISZERO DUP2 EQ PUSH2 0xBE6 JUMPI PUSH1 0x0 DUP1 REVERT JUMPDEST DUP2 DUP2 SUB DUP2 DUP2 GT ISZERO PUSH2 0xD67 JUMPI PUSH2 0xD67 PUSH2 0x1706 JUMP JUMPDEST PUSH1 0x0 DUP3 PUSH2 0x1781 JUMPI PUSH4 0x4E487B71 PUSH1 0xE0 SHL PUSH1 0x0 MSTORE PUSH1 0x12 PUSH1 0x4 MSTORE PUSH1 0x24 PUSH1 0x0 REVERT JUMPDEST POP DIV SWAP1 JUMP JUMPDEST DUP1 DUP3 MUL DUP2 ISZERO DUP3 DUP3 DIV DUP5 EQ OR PUSH2 0xD67 JUMPI PUSH2 0xD67 PUSH2 0x1706 JUMP INVALID SWAP12 PUSH24 0x9B17422D0DF92223018B32B4D1FA46E071723D6817E2486D STOP EXTCODESIZE 0xEC 0xC5 PUSH0 STOP LOG2 PUSH5 0x6970667358 0x22 SLT KECCAK256 SWAP10 0xA6 SWAP15 PUSH11 0xF1AC76B3DBAC8B35FA205D CODECOPY JUMPI DUP11 0x1F 0xE3 SDIV DUP4 PUSH27 0xA6877384CB5196BB4564736F6C6343000814003300000000000000 "},"methodIdentifiers":{"_rewardPool()":"dc7ced3d","_totalStaked()":"0c0102d0","addToWhitelist(address)":"e43252d7","calculateTax(uint256)":"483a9310","calculateTotalWithdraw(uint256,uint256)":"d2771e01","calculateYield(uint256)":"80a3301b","claim()":"4e71d92d","cooldownPeriod()":"04646a49","depositRewardTokens(uint256)":"16c621e0","disableWhitelist()":"d6b0f484","enableWhitelist()":"cdfb2b4e","initialize(address,uint256,uint256,uint256,uint256,uint256)":"45ff4c80","maxCap()":"23548b8b","minCap()":"3fa615b0","monthlyIncreasePercentage()":"29161479","monthsInStakingPeriod()":"6f629512","owner()":"8da5cb5b","pauseStaking()":"f999c506","pauseStakingFunction()":"12d395b3","pauseUnstake()":"75718366","paused()":"5c975abb","removeFromWhitelist(address)":"8ab1d681","renounceOwnership()":"715018a6","rewardPool()":"66666aa9","stake(uint256)":"a694fc3a","stakingDuration()":"8005a7de","stakingToken()":"72f702f3","startingSlashingPoint()":"0b7ead4a","totalStaked()":"817b1cd2","transferOwnership(address)":"f2fde38b","unpauseStaking()":"93f4bcde","unstake()":"2def6620","updateCooldownPeriod(uint256)":"861f6bfd","updateMaxCap(uint256)":"e81ba080","updateMinCap(uint256)":"bcaabf6c","updateMonthlyIncreasePercentage(uint256)":"b3c55721","updateStakingDuration(uint256)":"5b1d7086","updateStartingSlashingPoint(uint256)":"e6d24866","updateYieldConstant(uint256)":"36c1105a","userStakes(address)":"8da7ad23","whitelistEnabled()":"51fb012d","whitelistedAddresses(address)":"06c933d8","withdrawRewardTokens(uint256)":"cb43b2dd","yieldConstant()":"7a65cd0b"}},"storageLayout":{"storage":[{"astId":1604,"contract":"contracts/Staking.sol:Staking","label":"stakingToken","offset":0,"slot":"0","type":"t_contract(IERC20)1529"},{"astId":1606,"contract":"contracts/Staking.sol:Staking","label":"stakingDuration","offset":0,"slot":"1","type":"t_uint256"},{"astId":1608,"contract":"contracts/Staking.sol:Staking","label":"minCap","offset":0,"slot":"2","type":"t_uint256"},{"astId":1610,"contract":"contracts/Staking.sol:Staking","label":"maxCap","offset":0,"slot":"3","type":"t_uint256"},{"astId":1612,"contract":"contracts/Staking.sol:Staking","label":"yieldConstant","offset":0,"slot":"4","type":"t_uint256"},{"astId":1614,"contract":"contracts/Staking.sol:Staking","label":"cooldownPeriod","offset":0,"slot":"5","type":"t_uint256"},{"astId":1616,"contract":"contracts/Staking.sol:Staking","label":"monthsInStakingPeriod","offset":0,"slot":"6","type":"t_uint256"},{"astId":1618,"contract":"contracts/Staking.sol:Staking","label":"startingSlashingPoint","offset":0,"slot":"7","type":"t_uint256"},{"astId":1620,"contract":"contracts/Staking.sol:Staking","label":"monthlyIncreasePercentage","offset":0,"slot":"8","type":"t_uint256"},{"astId":1622,"contract":"contracts/Staking.sol:Staking","label":"pauseStaking","offset":0,"slot":"9","type":"t_bool"},{"astId":1624,"contract":"contracts/Staking.sol:Staking","label":"pauseUnstake","offset":1,"slot":"9","type":"t_bool"},{"astId":1626,"contract":"contracts/Staking.sol:Staking","label":"whitelistEnabled","offset":2,"slot":"9","type":"t_bool"},{"astId":1640,"contract":"contracts/Staking.sol:Staking","label":"userStakes","offset":0,"slot":"10","type":"t_mapping(t_address,t_struct(Stake)1635_storage)"},{"astId":1644,"contract":"contracts/Staking.sol:Staking","label":"whitelistedAddresses","offset":0,"slot":"11","type":"t_mapping(t_address,t_bool)"},{"astId":1646,"contract":"contracts/Staking.sol:Staking","label":"_totalStaked","offset":0,"slot":"12","type":"t_uint256"},{"astId":1648,"contract":"contracts/Staking.sol:Staking","label":"_rewardPool","offset":0,"slot":"13","type":"t_uint256"}],"types":{"t_address":{"encoding":"inplace","label":"address","numberOfBytes":"20"},"t_bool":{"encoding":"inplace","label":"bool","numberOfBytes":"1"},"t_contract(IERC20)1529":{"encoding":"inplace","label":"contract IERC20","numberOfBytes":"20"},"t_mapping(t_address,t_bool)":{"encoding":"mapping","key":"t_address","label":"mapping(address => bool)","numberOfBytes":"32","value":"t_bool"},"t_mapping(t_address,t_struct(Stake)1635_storage)":{"encoding":"mapping","key":"t_address","label":"mapping(address => struct Staking.Stake)","numberOfBytes":"32","value":"t_struct(Stake)1635_storage"},"t_struct(Stake)1635_storage":{"encoding":"inplace","label":"struct Staking.Stake","members":[{"astId":1628,"contract":"contracts/Staking.sol:Staking","label":"amount","offset":0,"slot":"0","type":"t_uint256"},{"astId":1630,"contract":"contracts/Staking.sol:Staking","label":"startTime","offset":0,"slot":"1","type":"t_uint256"},{"astId":1632,"contract":"contracts/Staking.sol:Staking","label":"requestUnstakeTime","offset":0,"slot":"2","type":"t_uint256"},{"astId":1634,"contract":"contracts/Staking.sol:Staking","label":"unstakeRequested","offset":0,"slot":"3","type":"t_bool"}],"numberOfBytes":"128"},"t_uint256":{"encoding":"inplace","label":"uint256","numberOfBytes":"32"}}}}}}