{"contracts/Staking.sol":{"Staking":{"abi":[{"inputs":[{"internalType":"address","name":"target","type":"address"}],"name":"AddressEmptyCode","type":"error"},{"inputs":[{"internalType":"address","name":"account","type":"address"}],"name":"AddressInsufficientBalance","type":"error"},{"inputs":[],"name":"EnforcedPause","type":"error"},{"inputs":[],"name":"ExpectedPause","type":"error"},{"inputs":[],"name":"FailedInnerCall","type":"error"},{"inputs":[],"name":"InvalidInitialization","type":"error"},{"inputs":[],"name":"NotInitializing","type":"error"},{"inputs":[{"internalType":"address","name":"owner","type":"address"}],"name":"OwnableInvalidOwner","type":"error"},{"inputs":[{"internalType":"address","name":"account","type":"address"}],"name":"OwnableUnauthorizedAccount","type":"error"},{"inputs":[],"name":"ReentrancyGuardReentrantCall","type":"error"},{"inputs":[{"internalType":"address","name":"token","type":"address"}],"name":"SafeERC20FailedOperation","type":"error"},{"anonymous":false,"inputs":[{"indexed":true,"internalType":"address","name":"owner","type":"address"},{"indexed":false,"internalType":"uint256","name":"amount","type":"uint256"}],"name":"Deposit","type":"event"},{"anonymous":false,"inputs":[{"indexed":false,"internalType":"uint64","name":"version","type":"uint64"}],"name":"Initialized","type":"event"},{"anonymous":false,"inputs":[{"indexed":true,"internalType":"address","name":"previousOwner","type":"address"},{"indexed":true,"internalType":"address","name":"newOwner","type":"address"}],"name":"OwnershipTransferred","type":"event"},{"anonymous":false,"inputs":[{"indexed":false,"internalType":"address","name":"account","type":"address"}],"name":"Paused","type":"event"},{"anonymous":false,"inputs":[{"indexed":true,"internalType":"address","name":"user","type":"address"},{"indexed":false,"internalType":"uint256","name":"reward","type":"uint256"}],"name":"RewardPaid","type":"event"},{"anonymous":false,"inputs":[{"indexed":true,"internalType":"address","name":"user","type":"address"},{"indexed":false,"internalType":"uint256","name":"amount","type":"uint256"}],"name":"Staked","type":"event"},{"anonymous":false,"inputs":[{"indexed":false,"internalType":"address","name":"account","type":"address"}],"name":"Unpaused","type":"event"},{"anonymous":false,"inputs":[{"indexed":true,"internalType":"address","name":"user","type":"address"},{"indexed":false,"internalType":"uint256","name":"amount","type":"uint256"}],"name":"UnstakeRequested","type":"event"},{"anonymous":false,"inputs":[{"indexed":true,"internalType":"address","name":"user","type":"address"},{"indexed":false,"internalType":"bool","name":"status","type":"bool"}],"name":"WhitelistStatusChanged","type":"event"},{"anonymous":false,"inputs":[{"indexed":true,"internalType":"address","name":"owner","type":"address"},{"indexed":false,"internalType":"uint256","name":"amount","type":"uint256"}],"name":"Withdraw","type":"event"},{"anonymous":false,"inputs":[{"indexed":true,"internalType":"address","name":"user","type":"address"},{"indexed":false,"internalType":"uint256","name":"amount","type":"uint256"}],"name":"Withdrawn","type":"event"},{"inputs":[{"internalType":"address","name":"_address","type":"address"}],"name":"addToWhitelist","outputs":[],"stateMutability":"nonpayable","type":"function"},{"inputs":[{"internalType":"uint256","name":"timeStaked","type":"uint256"},{"internalType":"uint256","name":"_monthlyIncreasePercentage","type":"uint256"},{"internalType":"uint256","name":"_startingSlashingPoint","type":"uint256"},{"internalType":"uint256","name":"_stakingDuration","type":"uint256"}],"name":"calculateTax","outputs":[{"internalType":"uint256","name":"","type":"uint256"}],"stateMutability":"pure","type":"function"},{"inputs":[{"internalType":"uint256","name":"_amount","type":"uint256"},{"internalType":"uint256","name":"timeStaked","type":"uint256"},{"internalType":"uint256","name":"_yieldConstant","type":"uint256"},{"internalType":"uint256","name":"_monthlyIncreasePercentage","type":"uint256"},{"internalType":"uint256","name":"_startingSlashingPoint","type":"uint256"},{"internalType":"uint256","name":"_stakingDuration","type":"uint256"}],"name":"calculateTotalWithdraw","outputs":[{"internalType":"uint256","name":"","type":"uint256"}],"stateMutability":"view","type":"function"},{"inputs":[{"internalType":"uint256","name":"timeStaked","type":"uint256"},{"internalType":"uint256","name":"_yieldConstant","type":"uint256"}],"name":"calculateYield","outputs":[{"internalType":"uint256","name":"","type":"uint256"}],"stateMutability":"view","type":"function"},{"inputs":[{"internalType":"uint256","name":"stakeId","type":"uint256"}],"name":"claim","outputs":[],"stateMutability":"nonpayable","type":"function"},{"inputs":[],"name":"cooldownPeriod","outputs":[{"internalType":"uint256","name":"","type":"uint256"}],"stateMutability":"view","type":"function"},{"inputs":[{"internalType":"uint256","name":"_amount","type":"uint256"}],"name":"depositRewardTokens","outputs":[],"stateMutability":"nonpayable","type":"function"},{"inputs":[],"name":"disableWhitelist","outputs":[],"stateMutability":"nonpayable","type":"function"},{"inputs":[],"name":"enableWhitelist","outputs":[],"stateMutability":"nonpayable","type":"function"},{"inputs":[{"internalType":"address","name":"user","type":"address"}],"name":"getTotalStakedForUser","outputs":[{"internalType":"uint256","name":"","type":"uint256"}],"stateMutability":"view","type":"function"},{"inputs":[{"internalType":"address","name":"_stakingToken","type":"address"},{"internalType":"uint256","name":"_stakingDuration","type":"uint256"},{"internalType":"uint256","name":"_yieldConstant","type":"uint256"},{"internalType":"uint256","name":"_cooldownPeriod","type":"uint256"},{"internalType":"uint256","name":"_startingSlashingPoint","type":"uint256"},{"internalType":"uint256","name":"_monthlyIncreasePercentage","type":"uint256"},{"internalType":"uint256","name":"_minCap","type":"uint256"},{"internalType":"uint256","name":"_maxCap","type":"uint256"},{"internalType":"bool","name":"_whitelistEnabled","type":"bool"}],"name":"initialize","outputs":[],"stateMutability":"nonpayable","type":"function"},{"inputs":[],"name":"maxCap","outputs":[{"internalType":"uint256","name":"","type":"uint256"}],"stateMutability":"view","type":"function"},{"inputs":[],"name":"minCap","outputs":[{"internalType":"uint256","name":"","type":"uint256"}],"stateMutability":"view","type":"function"},{"inputs":[],"name":"monthlyIncreasePercentage","outputs":[{"internalType":"uint256","name":"","type":"uint256"}],"stateMutability":"view","type":"function"},{"inputs":[],"name":"monthsInStakingPeriod","outputs":[{"internalType":"uint256","name":"","type":"uint256"}],"stateMutability":"view","type":"function"},{"inputs":[],"name":"owner","outputs":[{"internalType":"address","name":"","type":"address"}],"stateMutability":"view","type":"function"},{"inputs":[],"name":"pause","outputs":[],"stateMutability":"nonpayable","type":"function"},{"inputs":[],"name":"paused","outputs":[{"internalType":"bool","name":"","type":"bool"}],"stateMutability":"view","type":"function"},{"inputs":[],"name":"pendingRewards","outputs":[{"internalType":"uint256","name":"","type":"uint256"}],"stateMutability":"view","type":"function"},{"inputs":[{"internalType":"address","name":"_address","type":"address"}],"name":"removeFromWhitelist","outputs":[],"stateMutability":"nonpayable","type":"function"},{"inputs":[],"name":"renounceOwnership","outputs":[],"stateMutability":"nonpayable","type":"function"},{"inputs":[],"name":"rewardPool","outputs":[{"internalType":"uint256","name":"","type":"uint256"}],"stateMutability":"view","type":"function"},{"inputs":[{"internalType":"uint256","name":"_amount","type":"uint256"}],"name":"stake","outputs":[],"stateMutability":"nonpayable","type":"function"},{"inputs":[],"name":"stakingDuration","outputs":[{"internalType":"uint256","name":"","type":"uint256"}],"stateMutability":"view","type":"function"},{"inputs":[],"name":"stakingToken","outputs":[{"internalType":"contract IERC20","name":"","type":"address"}],"stateMutability":"view","type":"function"},{"inputs":[],"name":"startingSlashingPoint","outputs":[{"internalType":"uint256","name":"","type":"uint256"}],"stateMutability":"view","type":"function"},{"inputs":[],"name":"totalStaked","outputs":[{"internalType":"uint256","name":"","type":"uint256"}],"stateMutability":"view","type":"function"},{"inputs":[{"internalType":"address","name":"newOwner","type":"address"}],"name":"transferOwnership","outputs":[],"stateMutability":"nonpayable","type":"function"},{"inputs":[],"name":"unpause","outputs":[],"stateMutability":"nonpayable","type":"function"},{"inputs":[{"internalType":"uint256","name":"stakeId","type":"uint256"}],"name":"unstake","outputs":[],"stateMutability":"nonpayable","type":"function"},{"inputs":[{"internalType":"uint256","name":"_cooldownPeriod","type":"uint256"}],"name":"updateCooldownPeriod","outputs":[],"stateMutability":"nonpayable","type":"function"},{"inputs":[{"internalType":"uint256","name":"_maxCap","type":"uint256"}],"name":"updateMaxCap","outputs":[],"stateMutability":"nonpayable","type":"function"},{"inputs":[{"internalType":"uint256","name":"_minCap","type":"uint256"}],"name":"updateMinCap","outputs":[],"stateMutability":"nonpayable","type":"function"},{"inputs":[{"internalType":"uint256","name":"_monthlyIncreasePercentage","type":"uint256"}],"name":"updateMonthlyIncreasePercentage","outputs":[],"stateMutability":"nonpayable","type":"function"},{"inputs":[{"internalType":"uint256","name":"_stakingDuration","type":"uint256"}],"name":"updateStakingDuration","outputs":[],"stateMutability":"nonpayable","type":"function"},{"inputs":[{"internalType":"uint256","name":"_startingSlashingPoint","type":"uint256"}],"name":"updateStartingSlashingPoint","outputs":[],"stateMutability":"nonpayable","type":"function"},{"inputs":[{"internalType":"uint256","name":"_yieldConstant","type":"uint256"}],"name":"updateYieldConstant","outputs":[],"stateMutability":"nonpayable","type":"function"},{"inputs":[{"internalType":"address","name":"","type":"address"}],"name":"userStakeCounter","outputs":[{"internalType":"uint256","name":"","type":"uint256"}],"stateMutability":"view","type":"function"},{"inputs":[{"internalType":"address","name":"","type":"address"},{"internalType":"uint256","name":"","type":"uint256"}],"name":"userStakes","outputs":[{"internalType":"uint256","name":"amount","type":"uint256"},{"internalType":"uint256","name":"startTime","type":"uint256"},{"internalType":"uint256","name":"requestUnstakeTime","type":"uint256"},{"internalType":"bool","name":"unstakeRequested","type":"bool"},{"internalType":"uint256","name":"yieldConstant","type":"uint256"},{"internalType":"uint256","name":"monthlyIncreasePercentage","type":"uint256"},{"internalType":"uint256","name":"startingSlashingPoint","type":"uint256"},{"internalType":"uint256","name":"stakingDuration","type":"uint256"}],"stateMutability":"view","type":"function"},{"inputs":[],"name":"whitelistEnabled","outputs":[{"internalType":"bool","name":"","type":"bool"}],"stateMutability":"view","type":"function"},{"inputs":[{"internalType":"address","name":"","type":"address"}],"name":"whitelistedAddresses","outputs":[{"internalType":"bool","name":"","type":"bool"}],"stateMutability":"view","type":"function"},{"inputs":[{"internalType":"uint256","name":"_amount","type":"uint256"}],"name":"withdrawRewardTokens","outputs":[],"stateMutability":"nonpayable","type":"function"},{"inputs":[],"name":"yieldConstant","outputs":[{"internalType":"uint256","name":"","type":"uint256"}],"stateMutability":"view","type":"function"}],"evm":{"bytecode":{"linkReferences":{},"object":"608060405234801561001057600080fd5b50614b2b806100206000396000f3fe608060405234801561001057600080fd5b50600436106102695760003560e01c8063715018a611610151578063b3c55721116100c3578063d6b0f48411610087578063d6b0f484146106e1578063e43252d7146106eb578063e6d2486614610707578063e81ba08014610723578063eded3fda1461073f578063f2fde38b1461075d57610269565b8063b3c557211461064c578063b5d5b5fa14610668578063bcaabf6c1461069f578063cb43b2dd146106bb578063cdfb2b4e146106d757610269565b8063817b1cd211610115578063817b1cd2146105b25780638456cb59146105d0578063861f6bfd146105da5780638ab1d681146105f65780638da5cb5b14610612578063a694fc3a1461063057610269565b8063715018a61461051e57806372f702f31461052857806375713079146105465780637a65cd0b146105765780638005a7de1461059457610269565b8063379607f5116101ea57806351fb012d116101ae57806351fb012d1461045a5780635678b024146104785780635b1d7086146104a85780635c975abb146104c457806366666aa9146104e25780636f6295121461050057610269565b8063379607f5146103ca5780633b42ffcf146103e65780633f4ba83a146104165780633fa615b01461042057806345503b7c1461043e57610269565b806322e768371161023157806322e768371461032657806323548b8b1461035657806329161479146103745780632e17de781461039257806336c1105a146103ae57610269565b8063043cbe5b1461026e57806304646a491461029e57806306c933d8146102bc5780630b7ead4a146102ec57806316c621e01461030a575b600080fd5b61028860048036038101906102839190613ea7565b610779565b6040516102959190613ef6565b60405180910390f35b6102a661090f565b6040516102b39190613ef6565b60405180910390f35b6102d660048036038101906102d19190613f6f565b610915565b6040516102e39190613fb7565b60405180910390f35b6102f4610935565b6040516103019190613ef6565b60405180910390f35b610324600480360381019061031f9190613fd2565b61093b565b005b610340600480360381019061033b9190613fff565b610b2d565b60405161034d9190613ef6565b60405180910390f35b61035e610cc4565b60405161036b9190613ef6565b60405180910390f35b61037c610cca565b6040516103899190613ef6565b60405180910390f35b6103ac60048036038101906103a79190613fd2565b610cd0565b005b6103c860048036038101906103c39190613fd2565b611461565b005b6103e460048036038101906103df9190613fd2565b6114c3565b005b61040060048036038101906103fb9190613f6f565b611aef565b60405161040d9190613ef6565b60405180910390f35b61041e611cd9565b005b610428611d4f565b6040516104359190613ef6565b60405180910390f35b610458600480360381019061045391906140b8565b611d55565b005b610462612118565b60405161046f9190613fb7565b60405180910390f35b610492600480360381019061048d9190613f6f565b61212b565b60405161049f9190613ef6565b60405180910390f35b6104c260048036038101906104bd9190613fd2565b612143565b005b6104cc6121ce565b6040516104d99190613fb7565b60405180910390f35b6104ea6121f3565b6040516104f79190613ef6565b60405180910390f35b610508612239565b6040516105159190613ef6565b60405180910390f35b61052661223f565b005b610530612253565b60405161053d91906141e1565b60405180910390f35b610560600480360381019061055b91906141fc565b612277565b60405161056d9190613ef6565b60405180910390f35b61057e612398565b60405161058b9190613ef6565b60405180910390f35b61059c61239e565b6040516105a99190613ef6565b60405180910390f35b6105ba6123a4565b6040516105c79190613ef6565b60405180910390f35b6105d86123ea565b005b6105f460048036038101906105ef9190613fd2565b612460565b005b610610600480360381019061060b9190613f6f565b6124c2565b005b61061a6125ec565b6040516106279190614272565b60405180910390f35b61064a60048036038101906106459190613fd2565b612624565b005b61066660048036038101906106619190613fd2565b612e66565b005b610682600480360381019061067d919061428d565b612ec8565b6040516106969897969594939291906142cd565b60405180910390f35b6106b960048036038101906106b49190613fd2565b612f2a565b005b6106d560048036038101906106d09190613fd2565b612f8c565b005b6106df61321e565b005b6106e9613293565b005b61070560048036038101906107009190613f6f565b613308565b005b610721600480360381019061071c9190613fd2565b613432565b005b61073d60048036038101906107389190613fd2565b613493565b005b6107476134f5565b6040516107549190613ef6565b60405180910390f35b61077760048036038101906107729190613f6f565b61353b565b005b600061078f67cfb62a4e3282757460c01b6135c1565b6107a367f271e827db6e47b760c01b6135c1565b6107b767a33c765d60246bf760c01b6135c1565b6001548310610810576107d4675dcec27c27302b3160c01b6135c1565b6107e867996f014a15ae084b60c01b6135c1565b6107fc6709e7bdd9574ac5a060c01b6135c1565b816090610809919061437a565b9050610909565b6108246741ae4d463ca3cf4960c01b6135c1565b61083867581f33e234bdd4ae60c01b6135c1565b61084c67d425252e50b3a3f360c01b6135c1565b6000600154670de0b6b3a764000085600654610868919061437a565b610872919061437a565b61087c91906143eb565b90506108926737dc5191926dd1c460c01b6135c1565b6108a6676ca6a3138de4996c60c01b6135c1565b60006ec097ce7bc90715b34b9f10000000008283866108c5919061437a565b6108cf919061437a565b6108d991906143eb565b90506108ef67a4a0f357bf4e27dd60c01b6135c1565b610903678adc283527fa413560c01b6135c1565b80925050505b92915050565b60055481565b600c6020528060005260406000206000915054906101000a900460ff1681565b60075481565b61094f679f212b178825f78360c01b6135c1565b6109576135c4565b61096b6789b2e85f3e245ea560c01b6135c1565b61097f679e220b7e5f7608a560c01b6135c1565b61099367fe7caa985572d08f60c01b6135c1565b6109a767ccd960eba84e13dd60c01b6135c1565b6109bb678605a2b21344c35760c01b6135c1565b600081116109fe576040517f08c379a00000000000000000000000000000000000000000000000000000000081526004016109f590614479565b60405180910390fd5b610a12672acfe9baee32783060c01b6135c1565b610a26672e0b79933dc999ef60c01b6135c1565b80600e6000828254610a389190614499565b92505081905550610a5367bba26dbe923896e060c01b6135c1565b610a67677f25a147d236dd8b60c01b6135c1565b610ab433308360008054906101000a900473ffffffffffffffffffffffffffffffffffffffff1673ffffffffffffffffffffffffffffffffffffffff1661364b909392919063ffffffff16565b610ac867475dc2d487fee29c60c01b6135c1565b610adc67ffb6970ff5a4480d60c01b6135c1565b3373ffffffffffffffffffffffffffffffffffffffff167fe1fffcc4923d04b559f4d29a8bfc6cda04eb5b0d3c460751c2402c5c5cc9109c82604051610b229190613ef6565b60405180910390a250565b6000610b4367bf3e5f3fd52b5fb960c01b6135c1565b610b5767e12bd3823173100d60c01b6135c1565b610b6b67acece777c90a6bb760c01b6135c1565b6000610b778787610779565b9050610b8d67ac5b4b7a00dd959d60c01b6135c1565b610ba1671d7e0721221a2ef660c01b6135c1565b6000610baf88878787612277565b9050610bc5676cec70fe82fb1ddb60c01b6135c1565b610bd967ffbd9af4813c716760c01b6135c1565b6000670de0b6b3a7640000838b610bf0919061437a565b610bfa91906143eb565b9050610c10676208b8f23c1ee9d560c01b6135c1565b610c24674bc5cceccd8f3b8f60c01b6135c1565b6000670de0b6b3a76400008383610c3b919061437a565b610c4591906143eb565b9050610c5b67cc0d02e223ac5f2060c01b6135c1565b610c6f67341662c6e05446ed60c01b6135c1565b600081838d610c7e9190614499565b610c8891906144cd565b9050610c9e67d5b420702b5d529060c01b6135c1565b610cb2679aad6b8bc00ff9d860c01b6135c1565b80955050505050509695505050505050565b60035481565b60085481565b610ce46726b30ca91779443f60c01b6135c1565b610cec6136cd565b610d0067cab201a6572259fa60c01b6135c1565b610d14675c04e90f7a0a31f960c01b6135c1565b610d28671529646ecf448ee660c01b6135c1565b610d3c676a4f9d234fd0c0b160c01b6135c1565b6000600a60003373ffffffffffffffffffffffffffffffffffffffff1673ffffffffffffffffffffffffffffffffffffffff16815260200190815260200160002060008381526020019081526020016000209050610da46768b9e7ccc732b44560c01b6135c1565b610db867047fdbb551b51aa960c01b6135c1565b610dcc675d3da345d08ec2bc60c01b6135c1565b8060030160009054906101000a900460ff1615610e1e576040517f08c379a0000000000000000000000000000000000000000000000000000000008152600401610e159061454d565b60405180910390fd5b610e3267c61264272019b48e60c01b6135c1565b610e4667b16c74a23a1e833760c01b6135c1565b610e5a67b84e9aa335ce692f60c01b6135c1565b600081600001549050610e7767643e5d7d7447c52e60c01b6135c1565b610e8b67adb190546928ee1660c01b6135c1565b6000610ea1672922c653a4a340b360c01b6135c1565b610eb567d184a05ff8d412c260c01b6135c1565b6000836007015403610f1d57610ed5678c87d943f50f0ea060c01b6135c1565b610ee9671b9f806e16ed2dfe60c01b6135c1565b610f1682846001015442610efd91906144cd565b8560040154866005015487600601548860070154610b2d565b90506110c4565b610f31670a6ce197fd362be560c01b6135c1565b610f4567a2d347acc59c444460c01b6135c1565b82600701548360010154610f599190614499565b42101561106c57610f746753e847d7bd96fb0a60c01b6135c1565b610f8867620b6b7ab778e1c160c01b6135c1565b428360020181905550610fa5678fee3335ff2e0b9b60c01b6135c1565b60018360030160006101000a81548160ff021916908315150217905550610fd66754aa019b0b7726c060c01b6135c1565b610fea67aa9caf93c30c72b560c01b6135c1565b3373ffffffffffffffffffffffffffffffffffffffff167f828764c21e74c28710e19919735825aba966621c95cbd913f8ed65a2d298f48c84600001546040516110349190613ef6565b60405180910390a2611050674f8a33545e20206760c01b6135c1565b61106467590b3f7a3bc5921c60c01b6135c1565b505050611456565b61108067a3e6edf88816448660c01b6135c1565b611094679e4524b9be704de560c01b6135c1565b6110c1828460010154426110a891906144cd565b8560040154866005015487600601548860070154610b2d565b90505b6110d867c4f56e8613b194e060c01b6135c1565b81600d60008282546110ea91906144cd565b925050819055506111056754804a0568a2420260c01b6135c1565b611119676e16e72f0dbdd4b560c01b6135c1565b6000828261112791906144cd565b905061113d67dd933d62ff016ab160c01b6135c1565b80600e600082825461114f91906144cd565b9250508190555061116a677498668cc086bac760c01b6135c1565b80600f600082825461117c91906144cd565b92505081905550611197670d3f42b09f60edb460c01b6135c1565b600a60003373ffffffffffffffffffffffffffffffffffffffff1673ffffffffffffffffffffffffffffffffffffffff1681526020019081526020016000206000868152602001908152602001600020600080820160009055600182016000905560028201600090556003820160006101000a81549060ff02191690556004820160009055600582016000905560068201600090556007820160009055505061124a678e6e738bbc198ffd60c01b6135c1565b61125d664b5eef57cf1a3860c01b6135c1565b6112a8338360008054906101000a900473ffffffffffffffffffffffffffffffffffffffff1673ffffffffffffffffffffffffffffffffffffffff166137249092919063ffffffff16565b6112bc67ac186582789e182760c01b6135c1565b6112d067b041837b5a59603260c01b6135c1565b3373ffffffffffffffffffffffffffffffffffffffff167f7084f5476618d8e60b11ef0d7d3f06914655adb8793e28ff7f018d4c76d505d5836040516113169190613ef6565b60405180910390a2611332673e55ad110582c77f60c01b6135c1565b611346677ba4ae178d37156a60c01b6135c1565b3373ffffffffffffffffffffffffffffffffffffffff167fe2403640ba68fed3a2f88b7557551d1993f84b99bb10ff833f0cf8db0c5e04868260405161138c9190613ef6565b60405180910390a26113a8678144859e4d3a8ac560c01b6135c1565b6113bc67349af0497e5cd30960c01b6135c1565b60006113c733611aef565b0361143c576113e06772e2c3ab76c2791260c01b6135c1565b6113f46759dc52ab502d38a660c01b6135c1565b600b60003373ffffffffffffffffffffffffffffffffffffffff1673ffffffffffffffffffffffffffffffffffffffff16815260200190815260200160002060009055611451565b61145067ca6584c7888c164d60c01b6135c1565b5b505050505b61145e6137a3565b50565b61147567309d090a1584e33b60c01b6135c1565b61147d6135c4565b6114916785fead051ccdad8460c01b6135c1565b6114a5671456e3f7c2d7ba8a60c01b6135c1565b6114b967599295e2237fdebb60c01b6135c1565b8060048190555050565b6114d7677184c4cb18c66c0b60c01b6135c1565b6114df6136cd565b6114f3674d911abbef07218f60c01b6135c1565b611507676ea687de1f12a41960c01b6135c1565b61151b67ddd5898ba213b35c60c01b6135c1565b61152f675e39b76e14f5756d60c01b6135c1565b6000600a60003373ffffffffffffffffffffffffffffffffffffffff1673ffffffffffffffffffffffffffffffffffffffff1681526020019081526020016000206000838152602001908152602001600020905061159767f44116102ebc396160c01b6135c1565b6115ab67c9b71c608995ffbe60c01b6135c1565b6115bf670bdfde5e8d74962560c01b6135c1565b8060030160009054906101000a900460ff16611610576040517f08c379a0000000000000000000000000000000000000000000000000000000008152600401611607906145b9565b60405180910390fd5b611624676749c6d6ba00546460c01b6135c1565b61163867c182d4f1e36dcae160c01b6135c1565b61164c67fe2bf72b56033c8960c01b6135c1565b611660677f21c96ae2e5669360c01b6135c1565b60055481600201546116729190614499565b4210156116b4576040517f08c379a00000000000000000000000000000000000000000000000000000000081526004016116ab90614625565b60405180910390fd5b6116c867c311a3e913c98c1260c01b6135c1565b6116dc67f70459dafb42da9760c01b6135c1565b6116f067e27377fcfe60da4c60c01b6135c1565b60008160000154905061170d67ebb1a41560c4349d60c01b6135c1565b611721674e5827196005202a60c01b6135c1565b60006117508284600101544261173791906144cd565b8560040154866005015487600601548860070154610b2d565b90506117666713e94f0456097ca960c01b6135c1565b61177a67bab595a3bb5fb83360c01b6135c1565b6000828261178891906144cd565b905061179e6792f660ae3a40759060c01b6135c1565b82600d60008282546117b091906144cd565b925050819055506117cb67bb1c9082132b1e5160c01b6135c1565b80600e60008282546117dd91906144cd565b925050819055506117f8672e0f8b34a03771cc60c01b6135c1565b80600f600082825461180a91906144cd565b925050819055506118256759e2ae14da7a54c460c01b6135c1565b600a60003373ffffffffffffffffffffffffffffffffffffffff1673ffffffffffffffffffffffffffffffffffffffff1681526020019081526020016000206000868152602001908152602001600020600080820160009055600182016000905560028201600090556003820160006101000a81549060ff0219169055600482016000905560058201600090556006820160009055600782016000905550506118d8675e8eafbaf92e829d60c01b6135c1565b6118ec677605b4f3c000822560c01b6135c1565b611937338360008054906101000a900473ffffffffffffffffffffffffffffffffffffffff1673ffffffffffffffffffffffffffffffffffffffff166137249092919063ffffffff16565b61194b6785edcdf512e23d2860c01b6135c1565b61195f6723a6192e293fe0aa60c01b6135c1565b3373ffffffffffffffffffffffffffffffffffffffff167f7084f5476618d8e60b11ef0d7d3f06914655adb8793e28ff7f018d4c76d505d5836040516119a59190613ef6565b60405180910390a26119c16726d46e14dfe6ad7460c01b6135c1565b6119d5676f1eab6ec8db93ba60c01b6135c1565b3373ffffffffffffffffffffffffffffffffffffffff167fe2403640ba68fed3a2f88b7557551d1993f84b99bb10ff833f0cf8db0c5e048682604051611a1b9190613ef6565b60405180910390a2611a3767d03b71acc375f5d660c01b6135c1565b611a4b670118e5adc839000660c01b6135c1565b6000611a5633611aef565b03611acb57611a6f6771dc132d31e4a02460c01b6135c1565b611a8367a7d8e1cbbc843fb260c01b6135c1565b600b60003373ffffffffffffffffffffffffffffffffffffffff1673ffffffffffffffffffffffffffffffffffffffff16815260200190815260200160002060009055611ae0565b611adf675fb82d64c9d3c40a60c01b6135c1565b5b50505050611aec6137a3565b50565b6000611b0567123994520a536f7460c01b6135c1565b611b19670e87df8cf5a599db60c01b6135c1565b611b2d67741443532edb1eb860c01b6135c1565b6000611b43672f1ce3e6bdd918f560c01b6135c1565b611b576784774c26c185f3ae60c01b6135c1565b6000600b60008573ffffffffffffffffffffffffffffffffffffffff1673ffffffffffffffffffffffffffffffffffffffff168152602001908152602001600020549050611baf67049dbdc851abae9c60c01b6135c1565b611bc36711882ea6e4480d8260c01b6135c1565b6000600a60008673ffffffffffffffffffffffffffffffffffffffff1673ffffffffffffffffffffffffffffffffffffffff1681526020019081526020016000209050611c1a67f8bd99134d01f18660c01b6135c1565b611c2e6711a3ede05fa591c760c01b6135c1565b60005b82811015611ca557611c4d67c0c387b51ba34f2f60c01b6135c1565b8160008281526020019081526020016000206000015484611c6e9190614499565b9350611c84674dfd9bc22d76ea0060c01b6135c1565b611c986735b59734924ad54560c01b6135c1565b8080600101915050611c31565b50611cba67be94acd0a59694e060c01b6135c1565b611cce67ae17314496791d9160c01b6135c1565b829350505050919050565b611ced67d12ed36ba492504d60c01b6135c1565b611cf56135c4565b611d0967fa18e8493446f5e760c01b6135c1565b611d1d6715c5b4c2438dee7160c01b6135c1565b611d316763f1f44fcf93a8a160c01b6135c1565b611d4567a1a78941d50068b960c01b6135c1565b611d4d6137bc565b565b60025481565b611d696748a24221bca3af7f60c01b6135c1565b6000611d7361382e565b905060008160000160089054906101000a900460ff1615905060008260000160009054906101000a900467ffffffffffffffff1690506000808267ffffffffffffffff16148015611dc15750825b9050600060018367ffffffffffffffff16148015611df6575060003073ffffffffffffffffffffffffffffffffffffffff163b145b905081158015611e04575080155b15611e3b576040517ff92ee8a900000000000000000000000000000000000000000000000000000000815260040160405180910390fd5b60018560000160006101000a81548167ffffffffffffffff021916908367ffffffffffffffff1602179055508315611e8b5760018560000160086101000a81548160ff0219169083151502179055505b611e9f67d586ddc5320bd3c060c01b6135c1565b611eb367bef71e8df63e78ce60c01b6135c1565b611ec76786fbb5cd424f883360c01b6135c1565b611edb67c574b5cfca21964f60c01b6135c1565b611ee433613856565b611ef8671943111a78a9ecfe60c01b6135c1565b611f0c67b0f3e046352671e160c01b6135c1565b611f1461386a565b611f2867c6468107c5a765c060c01b6135c1565b611f3c672e4f3f75e1697bf760c01b6135c1565b611f4461387c565b611f5867310049df13591a0560c01b6135c1565b8d6000806101000a81548173ffffffffffffffffffffffffffffffffffffffff021916908373ffffffffffffffffffffffffffffffffffffffff160217905550611fac67246959363178924260c01b6135c1565b8c600181905550611fc7675f6d4464f76f6f6360c01b6135c1565b8b600481905550611fe2679c895f1e81bd007360c01b6135c1565b8a600581905550611ffd67c7394731e6027b0a60c01b6135c1565b62278d008d61200c91906143eb565b60068190555061202667c72b16a4dc080f6060c01b6135c1565b8960078190555061204167b2f537c00ecc6c2460c01b6135c1565b8860088190555061205c67103aaa84e23982ea60c01b6135c1565b8760028190555061207767c833b0463101a7a260c01b6135c1565b86600381905550612092679e5a3e616266eca560c01b6135c1565b85600960006101000a81548160ff02191690831515021790555083156121085760008560000160086101000a81548160ff0219169083151502179055507fc7f505b2f371ae2175ee4913f4499e1f2633a7b5936321eed1cdaeb6115181d260016040516120ff9190614694565b60405180910390a15b5050505050505050505050505050565b600960009054906101000a900460ff1681565b600b6020528060005260406000206000915090505481565b612157674ee87445b6db9ff660c01b6135c1565b61215f6135c4565b61217367eabffd321da385a460c01b6135c1565b61218767c72d188fe833b3c360c01b6135c1565b61219b6726ecbb4e27606bf860c01b6135c1565b806001819055506121b66739985f0e2a42c79760c01b6135c1565b62278d00816121c591906143eb565b60068190555050565b6000806121d961388e565b90508060000160009054906101000a900460ff1691505090565b6000612209674b9594adc33bf81260c01b6135c1565b61221d67902b1752b5df8a0560c01b6135c1565b61223167cd69b84d664b1d2f60c01b6135c1565b600e54905090565b60065481565b6122476135c4565b61225160006138b6565b565b60008054906101000a900473ffffffffffffffffffffffffffffffffffffffff1681565b600061228d67aba8fe301213e38760c01b6135c1565b6122a167a107ce563f352c5560c01b6135c1565b6122b567760a7ec7ed6f202e60c01b6135c1565b818510612301576122d0672e378834007e3bb660c01b6135c1565b6122e467ec2c72dd13a14aff60c01b6135c1565b6122f8675caed65dcab4a6f560c01b6135c1565b60009050612390565b61231567d32913acb01ada6b60c01b6135c1565b61232967868a76f7a37ae69960c01b6135c1565b61233d677f746bf30370c80960c01b6135c1565b600082868661234c919061437a565b61235691906143eb565b8461236191906144cd565b905061237767910f01957a6b2d3660c01b6135c1565b61238b6789774e0bda482bad60c01b6135c1565b809150505b949350505050565b60045481565b60015481565b60006123ba673d0a2d5def5284d260c01b6135c1565b6123ce67954e657be076df6960c01b6135c1565b6123e267a722dcee375db32b60c01b6135c1565b600d54905090565b6123fe67e46d0163383ca27f60c01b6135c1565b6124066135c4565b61241a676e69378b95c82a2560c01b6135c1565b61242e6719640e71b3cb5ca460c01b6135c1565b61244267f7141a8dd405fd7560c01b6135c1565b61245667c2c2d7a6965ac21e60c01b6135c1565b61245e61398d565b565b612474676ff13027d6cd663360c01b6135c1565b61247c6135c4565b61249067f2630127a8e78df460c01b6135c1565b6124a467d3f7ea55533d191460c01b6135c1565b6124b8674e02617731e123e860c01b6135c1565b8060058190555050565b6124d66715259a8e4dcc66c260c01b6135c1565b6124de6135c4565b6124f2677e53566fc612074660c01b6135c1565b6125066730290148d17f8c0b60c01b6135c1565b61251a67d5c3e7554de8b33660c01b6135c1565b6000600c60008373ffffffffffffffffffffffffffffffffffffffff1673ffffffffffffffffffffffffffffffffffffffff16815260200190815260200160002060006101000a81548160ff0219169083151502179055506125866798fdb1d4be41b3c560c01b6135c1565b61259a67371e6d56b832698160c01b6135c1565b8073ffffffffffffffffffffffffffffffffffffffff167f8daaf060c3306c38e068a75c054bf96ecd85a3db1252712c4d93632744c42e0d60006040516125e19190613fb7565b60405180910390a250565b6000806125f76139ff565b90508060000160009054906101000a900473ffffffffffffffffffffffffffffffffffffffff1691505090565b612638677c0378eb520f199f60c01b6135c1565b6126406136cd565b6126546752f4268cf478a73860c01b6135c1565b61266867f94b7c09527f53af60c01b6135c1565b612670613a27565b61268467ec7a1b627ff906ac60c01b6135c1565b612698679f9779b2beca35e460c01b6135c1565b6126ac67c6bd34f749c4379960c01b6135c1565b6126c06728aeed15a544794660c01b6135c1565b6126d4671726873b5960c1f260c01b6135c1565b6126e8679cdc92d18b90087560c01b6135c1565b600960009054906101000a900460ff16158015612715575061271467740f44e75c7fb9b560c01b613a68565b5b806127855750600c60003373ffffffffffffffffffffffffffffffffffffffff1673ffffffffffffffffffffffffffffffffffffffff16815260200190815260200160002060009054906101000a900460ff168015612784575061278367fc86f28f9512198e60c01b613a68565b5b5b6127c4576040517f08c379a00000000000000000000000000000000000000000000000000000000081526004016127bb906146fb565b60405180910390fd5b6127d867ee922ef1eaee28d260c01b6135c1565b6127ec67094852ab7b49d4b360c01b6135c1565b612800671ae9af5f7f8eb34c60c01b6135c1565b6128146737e59a0fc2dc23ea60c01b6135c1565b612828674e0ab26e31a5198d60c01b6135c1565b61283c6702ccc81d7bff652560c01b6135c1565b61285067ea6f48f69191886260c01b6135c1565b60008111612893576040517f08c379a000000000000000000000000000000000000000000000000000000000815260040161288a90614767565b60405180910390fd5b6128a76799fa93e541e7ce1b60c01b6135c1565b6128bb67576de98d70f008e360c01b6135c1565b6128cf67a9f5ad2d15ce5a4960c01b6135c1565b60006002541115612988576128ee679fd76f677e14524260c01b6135c1565b612902677968ab95f66a224060c01b6135c1565b6129166798589fa553f91e8360c01b6135c1565b61292a67b5a66796d1e4baef60c01b6135c1565b60025481101561296f576040517f08c379a0000000000000000000000000000000000000000000000000000000008152600401612966906147d3565b60405180910390fd5b61298367e31e5484699eedb960c01b6135c1565b61299d565b61299c674eff7e4f8c804e0460c01b6135c1565b5b6129b1672ce9ec3cebfcd77a60c01b6135c1565b6129c567056690e7ec4edabf60c01b6135c1565b60006003541115612a91576129e467d6a47411d923c18460c01b6135c1565b6129f867d4380824eca692c660c01b6135c1565b612a0c67d168a2b14ec1ddf760c01b6135c1565b612a20670e044b1e6a3c7bba60c01b6135c1565b600354612a2c33611aef565b82612a379190614499565b1115612a78576040517f08c379a0000000000000000000000000000000000000000000000000000000008152600401612a6f9061483f565b60405180910390fd5b612a8c673eb104d3da1761d460c01b6135c1565b612aa6565b612aa567f24ac40d76dad0fe60c01b6135c1565b5b612aba673d3b1bd09037572d60c01b6135c1565b612ace67ce63ca2bbe379b9f60c01b6135c1565b6000600b60003373ffffffffffffffffffffffffffffffffffffffff1673ffffffffffffffffffffffffffffffffffffffff168152602001908152602001600020549050612b26673d9b3a944656b87f60c01b6135c1565b612b3a6793053cf8716139f660c01b6135c1565b6000604051806101000160405280848152602001428152602001600081526020016000151581526020016004548152602001600854815260200160075481526020016001548152509050612b986799ecab82b8a3eb8f60c01b6135c1565b80600a60003373ffffffffffffffffffffffffffffffffffffffff1673ffffffffffffffffffffffffffffffffffffffff168152602001908152602001600020600084815260200190815260200160002060008201518160000155602082015181600101556040820151816002015560608201518160030160006101000a81548160ff0219169083151502179055506080820151816004015560a0820151816005015560c0820151816006015560e08201518160070155905050612c6667bda9f1ef13dd06b260c01b6135c1565b600b60003373ffffffffffffffffffffffffffffffffffffffff1673ffffffffffffffffffffffffffffffffffffffff1681526020019081526020016000206000815480929190612cb69061485f565b9190505550612ccf67efe20b774a27402060c01b6135c1565b82600d6000828254612ce19190614499565b92505081905550612cfc677f98f3b26c65429760c01b6135c1565b612d1067308534222c05c0fa60c01b6135c1565b6000670de0b6b3a7640000612d29600154600454610779565b85612d34919061437a565b612d3e91906143eb565b9050612d5467c2972967ca56b27760c01b6135c1565b80600f6000828254612d669190614499565b92505081905550612d81677ff43a26c61a78ed60c01b6135c1565b612d95679b72755f6ed789eb60c01b6135c1565b612de233308660008054906101000a900473ffffffffffffffffffffffffffffffffffffffff1673ffffffffffffffffffffffffffffffffffffffff1661364b909392919063ffffffff16565b612df6677bb2a500532480f560c01b6135c1565b612e0a67ddc49015a0829a9860c01b6135c1565b3373ffffffffffffffffffffffffffffffffffffffff167f9e71bc8eea02a63969f509818f2dafb9254532904319f9dbda79b67bd34a5f3d85604051612e509190613ef6565b60405180910390a2505050612e636137a3565b50565b612e7a676e61cd6f579fc25960c01b6135c1565b612e826135c4565b612e966782138a3c331f4d6060c01b6135c1565b612eaa67c6c49d372d30d9e060c01b6135c1565b612ebe673a7cb5c767023a9a60c01b6135c1565b8060088190555050565b600a602052816000526040600020602052806000526040600020600091509150508060000154908060010154908060020154908060030160009054906101000a900460ff16908060040154908060050154908060060154908060070154905088565b612f3e677dbf1d0e57e1625460c01b6135c1565b612f466135c4565b612f5a6769eede00ec2b1b6260c01b6135c1565b612f6e67e87665a06306e8fa60c01b6135c1565b612f82677041ce65391f63ec60c01b6135c1565b8060028190555050565b612fa067fdd8e19882298c8a60c01b6135c1565b612fa86135c4565b612fbc6726034ff130510d0660c01b6135c1565b612fd0676deacbff592a8a8960c01b6135c1565b612fe467808b078107652cb460c01b6135c1565b612ff86753dfff9434a9f75d60c01b6135c1565b61300c674209ec8ff5e1744a60c01b6135c1565b6000811161304f576040517f08c379a0000000000000000000000000000000000000000000000000000000008152600401613046906148f3565b60405180910390fd5b613063672891c9b5a9270c4160c01b6135c1565b61307767852960116007b77f60c01b6135c1565b61308b67a78893d48aa2bae160c01b6135c1565b61309f67ddb75427835015a560c01b6135c1565b80600f54600e546130b091906144cd565b10156130f1576040517f08c379a00000000000000000000000000000000000000000000000000000000081526004016130e8906149ab565b60405180910390fd5b61310567fb8a50ecf42ba1c260c01b6135c1565b61311967b4063789c1b7d9cb60c01b6135c1565b80600e600082825461312b91906144cd565b92505081905550613146674de7cc99eea178db60c01b6135c1565b61315a67815321fe4bc285b860c01b6135c1565b6131a5338260008054906101000a900473ffffffffffffffffffffffffffffffffffffffff1673ffffffffffffffffffffffffffffffffffffffff166137249092919063ffffffff16565b6131b9671153b7d5fe9edd4c60c01b6135c1565b6131cd67bbba4d2bc7d3c86260c01b6135c1565b3373ffffffffffffffffffffffffffffffffffffffff167f884edad9ce6fa2440d8a54cc123490eb96d2768479d49ff9c7366125a9424364826040516132139190613ef6565b60405180910390a250565b613232673e4084c08ec7a3a260c01b6135c1565b61323a6135c4565b61324e6712ee8f80c478ebe760c01b6135c1565b613262676550d462d8d46b8260c01b6135c1565b6132766791f2c9a14ec7c40d60c01b6135c1565b6001600960006101000a81548160ff021916908315150217905550565b6132a767924efbffb591474f60c01b6135c1565b6132af6135c4565b6132c3671dadedfc177fd74a60c01b6135c1565b6132d767d429dd6e4f2748d460c01b6135c1565b6132eb67df70db9e8e7c5ab260c01b6135c1565b6000600960006101000a81548160ff021916908315150217905550565b61331c67066950d0f74bc2f260c01b6135c1565b6133246135c4565b61333867ea7dd679a038759f60c01b6135c1565b61334c674dbdccfa13a72db360c01b6135c1565b61336067770de82446f3329860c01b6135c1565b6001600c60008373ffffffffffffffffffffffffffffffffffffffff1673ffffffffffffffffffffffffffffffffffffffff16815260200190815260200160002060006101000a81548160ff0219169083151502179055506133cc67c46e200249d9875d60c01b6135c1565b6133e0679cf94fa52350166d60c01b6135c1565b8073ffffffffffffffffffffffffffffffffffffffff167f8daaf060c3306c38e068a75c054bf96ecd85a3db1252712c4d93632744c42e0d60016040516134279190613fb7565b60405180910390a250565b6134466736ee1057bcf5749460c01b6135c1565b61344e6135c4565b613462675a7ba81e2bcf949960c01b6135c1565b613475662ed4b1406240cc60c01b6135c1565b61348967be46f85f1661d4ab60c01b6135c1565b8060078190555050565b6134a7675ef1bc41756a5bc860c01b6135c1565b6134af6135c4565b6134c36708638d4a203a35cf60c01b6135c1565b6134d7673f56bc33b374328160c01b6135c1565b6134eb67083253e7eeb4871660c01b6135c1565b8060038190555050565b600061350b671e353a7a296bc37960c01b6135c1565b61351f67addcf20f80d53b7360c01b6135c1565b6135336786ddf020d902a5ff60c01b6135c1565b600f54905090565b6135436135c4565b600073ffffffffffffffffffffffffffffffffffffffff168173ffffffffffffffffffffffffffffffffffffffff16036135b55760006040517f1e4fbdf70000000000000000000000000000000000000000000000000000000081526004016135ac9190614272565b60405180910390fd5b6135be816138b6565b50565b50565b6135cc613a73565b73ffffffffffffffffffffffffffffffffffffffff166135ea6125ec565b73ffffffffffffffffffffffffffffffffffffffff16146136495761360d613a73565b6040517f118cdaa70000000000000000000000000000000000000000000000000000000081526004016136409190614272565b60405180910390fd5b565b6136c7848573ffffffffffffffffffffffffffffffffffffffff166323b872dd868686604051602401613680939291906149cb565b604051602081830303815290604052915060e01b6020820180517bffffffffffffffffffffffffffffffffffffffffffffffffffffffff8381831617835250505050613a7b565b50505050565b60006136d7613b12565b90506002816000015403613717576040517f3ee5aeb500000000000000000000000000000000000000000000000000000000815260040160405180910390fd5b6002816000018190555050565b61379e838473ffffffffffffffffffffffffffffffffffffffff1663a9059cbb8585604051602401613757929190614a02565b604051602081830303815290604052915060e01b6020820180517bffffffffffffffffffffffffffffffffffffffffffffffffffffffff8381831617835250505050613a7b565b505050565b60006137ad613b12565b90506001816000018190555050565b6137c4613b3a565b60006137ce61388e565b905060008160000160006101000a81548160ff0219169083151502179055507f5db9ee0a495bf2e6ff9c91a7834c1ba4fdd244a5e8aa4e537bd38aeae4b073aa613816613a73565b6040516138239190614272565b60405180910390a150565b60007ff0c57e16840df040f15088dc2f81fe391c3923bec73e23a9662efc9c229c6a00905090565b61385e613b7a565b61386781613bba565b50565b613872613b7a565b61387a613c40565b565b613884613b7a565b61388c613c74565b565b60007fcd5ed15c6e187e77e9aee88184c21f4f2182ab5827cb3b7e07fbedcd63f03300905090565b60006138c06139ff565b905060008160000160009054906101000a900473ffffffffffffffffffffffffffffffffffffffff169050828260000160006101000a81548173ffffffffffffffffffffffffffffffffffffffff021916908373ffffffffffffffffffffffffffffffffffffffff1602179055508273ffffffffffffffffffffffffffffffffffffffff168173ffffffffffffffffffffffffffffffffffffffff167f8be0079c531659141344cd1fd0a4f28419497f9722a3daafe3b4186f6b6457e060405160405180910390a3505050565b613995613a27565b600061399f61388e565b905060018160000160006101000a81548160ff0219169083151502179055507f62e78cea01bee320cd4e420270b5ea74000d11b0c9f74754ebdbfc544b05a2586139e7613a73565b6040516139f49190614272565b60405180910390a150565b60007f9016d09d72d40fdae2fd8ceac6b6234c7706214fd39c1cd1e609a0528c199300905090565b613a2f6121ce565b15613a66576040517fd93c066500000000000000000000000000000000000000000000000000000000815260040160405180910390fd5b565b600060019050919050565b600033905090565b6000613aa6828473ffffffffffffffffffffffffffffffffffffffff16613c9590919063ffffffff16565b90506000815114158015613acb575080806020019051810190613ac99190614a40565b155b15613b0d57826040517f5274afe7000000000000000000000000000000000000000000000000000000008152600401613b049190614272565b60405180910390fd5b505050565b60007f9b779b17422d0df92223018b32b4d1fa46e071723d6817e2486d003becc55f00905090565b613b426121ce565b613b78576040517f8dfc202b00000000000000000000000000000000000000000000000000000000815260040160405180910390fd5b565b613b82613cab565b613bb8576040517fd7e6bcf800000000000000000000000000000000000000000000000000000000815260040160405180910390fd5b565b613bc2613b7a565b600073ffffffffffffffffffffffffffffffffffffffff168173ffffffffffffffffffffffffffffffffffffffff1603613c345760006040517f1e4fbdf7000000000000000000000000000000000000000000000000000000008152600401613c2b9190614272565b60405180910390fd5b613c3d816138b6565b50565b613c48613b7a565b6000613c5261388e565b905060008160000160006101000a81548160ff02191690831515021790555050565b613c7c613b7a565b6000613c86613b12565b90506001816000018190555050565b6060613ca383836000613ccb565b905092915050565b6000613cb561382e565b60000160089054906101000a900460ff16905090565b606081471015613d1257306040517fcd786059000000000000000000000000000000000000000000000000000000008152600401613d099190614272565b60405180910390fd5b6000808573ffffffffffffffffffffffffffffffffffffffff168486604051613d3b9190614ade565b60006040518083038185875af1925050503d8060008114613d78576040519150601f19603f3d011682016040523d82523d6000602084013e613d7d565b606091505b5091509150613d8d868383613d98565b925050509392505050565b606082613dad57613da882613e27565b613e1f565b60008251148015613dd5575060008473ffffffffffffffffffffffffffffffffffffffff163b145b15613e1757836040517f9996b315000000000000000000000000000000000000000000000000000000008152600401613e0e9190614272565b60405180910390fd5b819050613e20565b5b9392505050565b600081511115613e3a5780518082602001fd5b6040517f1425ea4200000000000000000000000000000000000000000000000000000000815260040160405180910390fd5b600080fd5b6000819050919050565b613e8481613e71565b8114613e8f57600080fd5b50565b600081359050613ea181613e7b565b92915050565b60008060408385031215613ebe57613ebd613e6c565b5b6000613ecc85828601613e92565b9250506020613edd85828601613e92565b9150509250929050565b613ef081613e71565b82525050565b6000602082019050613f0b6000830184613ee7565b92915050565b600073ffffffffffffffffffffffffffffffffffffffff82169050919050565b6000613f3c82613f11565b9050919050565b613f4c81613f31565b8114613f5757600080fd5b50565b600081359050613f6981613f43565b92915050565b600060208284031215613f8557613f84613e6c565b5b6000613f9384828501613f5a565b91505092915050565b60008115159050919050565b613fb181613f9c565b82525050565b6000602082019050613fcc6000830184613fa8565b92915050565b600060208284031215613fe857613fe7613e6c565b5b6000613ff684828501613e92565b91505092915050565b60008060008060008060c0878903121561401c5761401b613e6c565b5b600061402a89828a01613e92565b965050602061403b89828a01613e92565b955050604061404c89828a01613e92565b945050606061405d89828a01613e92565b935050608061406e89828a01613e92565b92505060a061407f89828a01613e92565b9150509295509295509295565b61409581613f9c565b81146140a057600080fd5b50565b6000813590506140b28161408c565b92915050565b60008060008060008060008060006101208a8c0312156140db576140da613e6c565b5b60006140e98c828d01613f5a565b99505060206140fa8c828d01613e92565b985050604061410b8c828d01613e92565b975050606061411c8c828d01613e92565b965050608061412d8c828d01613e92565b95505060a061413e8c828d01613e92565b94505060c061414f8c828d01613e92565b93505060e06141608c828d01613e92565b9250506101006141728c828d016140a3565b9150509295985092959850929598565b6000819050919050565b60006141a76141a261419d84613f11565b614182565b613f11565b9050919050565b60006141b98261418c565b9050919050565b60006141cb826141ae565b9050919050565b6141db816141c0565b82525050565b60006020820190506141f660008301846141d2565b92915050565b6000806000806080858703121561421657614215613e6c565b5b600061422487828801613e92565b945050602061423587828801613e92565b935050604061424687828801613e92565b925050606061425787828801613e92565b91505092959194509250565b61426c81613f31565b82525050565b60006020820190506142876000830184614263565b92915050565b600080604083850312156142a4576142a3613e6c565b5b60006142b285828601613f5a565b92505060206142c385828601613e92565b9150509250929050565b6000610100820190506142e3600083018b613ee7565b6142f0602083018a613ee7565b6142fd6040830189613ee7565b61430a6060830188613fa8565b6143176080830187613ee7565b61432460a0830186613ee7565b61433160c0830185613ee7565b61433e60e0830184613ee7565b9998505050505050505050565b7f4e487b7100000000000000000000000000000000000000000000000000000000600052601160045260246000fd5b600061438582613e71565b915061439083613e71565b925082820261439e81613e71565b915082820484148315176143b5576143b461434b565b5b5092915050565b7f4e487b7100000000000000000000000000000000000000000000000000000000600052601260045260246000fd5b60006143f682613e71565b915061440183613e71565b925082614411576144106143bc565b5b828204905092915050565b600082825260208201905092915050565b7f43616e6e6f74206465706f736974203000000000000000000000000000000000600082015250565b600061446360108361441c565b915061446e8261442d565b602082019050919050565b6000602082019050818103600083015261449281614456565b9050919050565b60006144a482613e71565b91506144af83613e71565b92508282019050808211156144c7576144c661434b565b5b92915050565b60006144d882613e71565b91506144e383613e71565b92508282039050818111156144fb576144fa61434b565b5b92915050565b7f556e7374616b6520616c72656164792072657175657374656400000000000000600082015250565b600061453760198361441c565b915061454282614501565b602082019050919050565b600060208201905081810360008301526145668161452a565b9050919050565b7f556e7374616b65206e6f74207265717565737465640000000000000000000000600082015250565b60006145a360158361441c565b91506145ae8261456d565b602082019050919050565b600060208201905081810360008301526145d281614596565b9050919050565b7f436f6f6c646f776e20706572696f64206e6f74206f7665720000000000000000600082015250565b600061460f60188361441c565b915061461a826145d9565b602082019050919050565b6000602082019050818103600083015261463e81614602565b9050919050565b6000819050919050565b600067ffffffffffffffff82169050919050565b600061467e61467961467484614645565b614182565b61464f565b9050919050565b61468e81614663565b82525050565b60006020820190506146a96000830184614685565b92915050565b7f41646472657373206e6f742077686974656c6973746564000000000000000000600082015250565b60006146e560178361441c565b91506146f0826146af565b602082019050919050565b60006020820190508181036000830152614714816146d8565b9050919050565b7f43616e6e6f74207374616b652030000000000000000000000000000000000000600082015250565b6000614751600e8361441c565b915061475c8261471b565b602082019050919050565b6000602082019050818103600083015261478081614744565b9050919050565b7f416d6f756e742062656c6f77206d696e696d756d206361700000000000000000600082015250565b60006147bd60188361441c565b91506147c882614787565b602082019050919050565b600060208201905081810360008301526147ec816147b0565b9050919050565b7f416d6f756e742065786365656473206d6178696d756d20636170000000000000600082015250565b6000614829601a8361441c565b9150614834826147f3565b602082019050919050565b600060208201905081810360008301526148588161481c565b9050919050565b600061486a82613e71565b91507fffffffffffffffffffffffffffffffffffffffffffffffffffffffffffffffff820361489c5761489b61434b565b5b600182019050919050565b7f43616e6e6f742077697468647261772030000000000000000000000000000000600082015250565b60006148dd60118361441c565b91506148e8826148a7565b602082019050919050565b6000602082019050818103600083015261490c816148d0565b9050919050565b7f4e6f7420656e6f75676820746f6b656e7320696e2072657761726420706f6f6c60008201527f206166746572206163636f756e74696e6720666f722070656e64696e6720726560208201527f7761726473000000000000000000000000000000000000000000000000000000604082015250565b600061499560458361441c565b91506149a082614913565b606082019050919050565b600060208201905081810360008301526149c481614988565b9050919050565b60006060820190506149e06000830186614263565b6149ed6020830185614263565b6149fa6040830184613ee7565b949350505050565b6000604082019050614a176000830185614263565b614a246020830184613ee7565b9392505050565b600081519050614a3a8161408c565b92915050565b600060208284031215614a5657614a55613e6c565b5b6000614a6484828501614a2b565b91505092915050565b600081519050919050565b600081905092915050565b60005b83811015614aa1578082015181840152602081019050614a86565b60008484015250505050565b6000614ab882614a6d565b614ac28185614a78565b9350614ad2818560208601614a83565b80840191505092915050565b6000614aea8284614aad565b91508190509291505056fea2646970667358221220e316a5ce4b521852f15c790ff8c373a41c585631d56f2fc17357285357fc274864736f6c63430008140033","opcodes":"PUSH1 0x80 PUSH1 0x40 MSTORE CALLVALUE DUP1 ISZERO PUSH2 0x10 JUMPI PUSH1 0x0 DUP1 REVERT JUMPDEST POP PUSH2 0x4B2B DUP1 PUSH2 0x20 PUSH1 0x0 CODECOPY PUSH1 0x0 RETURN INVALID PUSH1 0x80 PUSH1 0x40 MSTORE CALLVALUE DUP1 ISZERO PUSH2 0x10 JUMPI PUSH1 0x0 DUP1 REVERT JUMPDEST POP PUSH1 0x4 CALLDATASIZE LT PUSH2 0x269 JUMPI PUSH1 0x0 CALLDATALOAD PUSH1 0xE0 SHR DUP1 PUSH4 0x715018A6 GT PUSH2 0x151 JUMPI DUP1 PUSH4 0xB3C55721 GT PUSH2 0xC3 JUMPI DUP1 PUSH4 0xD6B0F484 GT PUSH2 0x87 JUMPI DUP1 PUSH4 0xD6B0F484 EQ PUSH2 0x6E1 JUMPI DUP1 PUSH4 0xE43252D7 EQ PUSH2 0x6EB JUMPI DUP1 PUSH4 0xE6D24866 EQ PUSH2 0x707 JUMPI DUP1 PUSH4 0xE81BA080 EQ PUSH2 0x723 JUMPI DUP1 PUSH4 0xEDED3FDA EQ PUSH2 0x73F JUMPI DUP1 PUSH4 0xF2FDE38B EQ PUSH2 0x75D JUMPI PUSH2 0x269 JUMP JUMPDEST DUP1 PUSH4 0xB3C55721 EQ PUSH2 0x64C JUMPI DUP1 PUSH4 0xB5D5B5FA EQ PUSH2 0x668 JUMPI DUP1 PUSH4 0xBCAABF6C EQ PUSH2 0x69F JUMPI DUP1 PUSH4 0xCB43B2DD EQ PUSH2 0x6BB JUMPI DUP1 PUSH4 0xCDFB2B4E EQ PUSH2 0x6D7 JUMPI PUSH2 0x269 JUMP JUMPDEST DUP1 PUSH4 0x817B1CD2 GT PUSH2 0x115 JUMPI DUP1 PUSH4 0x817B1CD2 EQ PUSH2 0x5B2 JUMPI DUP1 PUSH4 0x8456CB59 EQ PUSH2 0x5D0 JUMPI DUP1 PUSH4 0x861F6BFD EQ PUSH2 0x5DA JUMPI DUP1 PUSH4 0x8AB1D681 EQ PUSH2 0x5F6 JUMPI DUP1 PUSH4 0x8DA5CB5B EQ PUSH2 0x612 JUMPI DUP1 PUSH4 0xA694FC3A EQ PUSH2 0x630 JUMPI PUSH2 0x269 JUMP JUMPDEST DUP1 PUSH4 0x715018A6 EQ PUSH2 0x51E JUMPI DUP1 PUSH4 0x72F702F3 EQ PUSH2 0x528 JUMPI DUP1 PUSH4 0x75713079 EQ PUSH2 0x546 JUMPI DUP1 PUSH4 0x7A65CD0B EQ PUSH2 0x576 JUMPI DUP1 PUSH4 0x8005A7DE EQ PUSH2 0x594 JUMPI PUSH2 0x269 JUMP JUMPDEST DUP1 PUSH4 0x379607F5 GT PUSH2 0x1EA JUMPI DUP1 PUSH4 0x51FB012D GT PUSH2 0x1AE JUMPI DUP1 PUSH4 0x51FB012D EQ PUSH2 0x45A JUMPI DUP1 PUSH4 0x5678B024 EQ PUSH2 0x478 JUMPI DUP1 PUSH4 0x5B1D7086 EQ PUSH2 0x4A8 JUMPI DUP1 PUSH4 0x5C975ABB EQ PUSH2 0x4C4 JUMPI DUP1 PUSH4 0x66666AA9 EQ PUSH2 0x4E2 JUMPI DUP1 PUSH4 0x6F629512 EQ PUSH2 0x500 JUMPI PUSH2 0x269 JUMP JUMPDEST DUP1 PUSH4 0x379607F5 EQ PUSH2 0x3CA JUMPI DUP1 PUSH4 0x3B42FFCF EQ PUSH2 0x3E6 JUMPI DUP1 PUSH4 0x3F4BA83A EQ PUSH2 0x416 JUMPI DUP1 PUSH4 0x3FA615B0 EQ PUSH2 0x420 JUMPI DUP1 PUSH4 0x45503B7C EQ PUSH2 0x43E JUMPI PUSH2 0x269 JUMP JUMPDEST DUP1 PUSH4 0x22E76837 GT PUSH2 0x231 JUMPI DUP1 PUSH4 0x22E76837 EQ PUSH2 0x326 JUMPI DUP1 PUSH4 0x23548B8B EQ PUSH2 0x356 JUMPI DUP1 PUSH4 0x29161479 EQ PUSH2 0x374 JUMPI DUP1 PUSH4 0x2E17DE78 EQ PUSH2 0x392 JUMPI DUP1 PUSH4 0x36C1105A EQ PUSH2 0x3AE JUMPI PUSH2 0x269 JUMP JUMPDEST DUP1 PUSH4 0x43CBE5B EQ PUSH2 0x26E JUMPI DUP1 PUSH4 0x4646A49 EQ PUSH2 0x29E JUMPI DUP1 PUSH4 0x6C933D8 EQ PUSH2 0x2BC JUMPI DUP1 PUSH4 0xB7EAD4A EQ PUSH2 0x2EC JUMPI DUP1 PUSH4 0x16C621E0 EQ PUSH2 0x30A JUMPI JUMPDEST PUSH1 0x0 DUP1 REVERT JUMPDEST PUSH2 0x288 PUSH1 0x4 DUP1 CALLDATASIZE SUB DUP2 ADD SWAP1 PUSH2 0x283 SWAP2 SWAP1 PUSH2 0x3EA7 JUMP JUMPDEST PUSH2 0x779 JUMP JUMPDEST PUSH1 0x40 MLOAD PUSH2 0x295 SWAP2 SWAP1 PUSH2 0x3EF6 JUMP JUMPDEST PUSH1 0x40 MLOAD DUP1 SWAP2 SUB SWAP1 RETURN JUMPDEST PUSH2 0x2A6 PUSH2 0x90F JUMP JUMPDEST PUSH1 0x40 MLOAD PUSH2 0x2B3 SWAP2 SWAP1 PUSH2 0x3EF6 JUMP JUMPDEST PUSH1 0x40 MLOAD DUP1 SWAP2 SUB SWAP1 RETURN JUMPDEST PUSH2 0x2D6 PUSH1 0x4 DUP1 CALLDATASIZE SUB DUP2 ADD SWAP1 PUSH2 0x2D1 SWAP2 SWAP1 PUSH2 0x3F6F JUMP JUMPDEST PUSH2 0x915 JUMP JUMPDEST PUSH1 0x40 MLOAD PUSH2 0x2E3 SWAP2 SWAP1 PUSH2 0x3FB7 JUMP JUMPDEST PUSH1 0x40 MLOAD DUP1 SWAP2 SUB SWAP1 RETURN JUMPDEST PUSH2 0x2F4 PUSH2 0x935 JUMP JUMPDEST PUSH1 0x40 MLOAD PUSH2 0x301 SWAP2 SWAP1 PUSH2 0x3EF6 JUMP JUMPDEST PUSH1 0x40 MLOAD DUP1 SWAP2 SUB SWAP1 RETURN JUMPDEST PUSH2 0x324 PUSH1 0x4 DUP1 CALLDATASIZE SUB DUP2 ADD SWAP1 PUSH2 0x31F SWAP2 SWAP1 PUSH2 0x3FD2 JUMP JUMPDEST PUSH2 0x93B JUMP JUMPDEST STOP JUMPDEST PUSH2 0x340 PUSH1 0x4 DUP1 CALLDATASIZE SUB DUP2 ADD SWAP1 PUSH2 0x33B SWAP2 SWAP1 PUSH2 0x3FFF JUMP JUMPDEST PUSH2 0xB2D JUMP JUMPDEST PUSH1 0x40 MLOAD PUSH2 0x34D SWAP2 SWAP1 PUSH2 0x3EF6 JUMP JUMPDEST PUSH1 0x40 MLOAD DUP1 SWAP2 SUB SWAP1 RETURN JUMPDEST PUSH2 0x35E PUSH2 0xCC4 JUMP JUMPDEST PUSH1 0x40 MLOAD PUSH2 0x36B SWAP2 SWAP1 PUSH2 0x3EF6 JUMP JUMPDEST PUSH1 0x40 MLOAD DUP1 SWAP2 SUB SWAP1 RETURN JUMPDEST PUSH2 0x37C PUSH2 0xCCA JUMP JUMPDEST PUSH1 0x40 MLOAD PUSH2 0x389 SWAP2 SWAP1 PUSH2 0x3EF6 JUMP JUMPDEST PUSH1 0x40 MLOAD DUP1 SWAP2 SUB SWAP1 RETURN JUMPDEST PUSH2 0x3AC PUSH1 0x4 DUP1 CALLDATASIZE SUB DUP2 ADD SWAP1 PUSH2 0x3A7 SWAP2 SWAP1 PUSH2 0x3FD2 JUMP JUMPDEST PUSH2 0xCD0 JUMP JUMPDEST STOP JUMPDEST PUSH2 0x3C8 PUSH1 0x4 DUP1 CALLDATASIZE SUB DUP2 ADD SWAP1 PUSH2 0x3C3 SWAP2 SWAP1 PUSH2 0x3FD2 JUMP JUMPDEST PUSH2 0x1461 JUMP JUMPDEST STOP JUMPDEST PUSH2 0x3E4 PUSH1 0x4 DUP1 CALLDATASIZE SUB DUP2 ADD SWAP1 PUSH2 0x3DF SWAP2 SWAP1 PUSH2 0x3FD2 JUMP JUMPDEST PUSH2 0x14C3 JUMP JUMPDEST STOP JUMPDEST PUSH2 0x400 PUSH1 0x4 DUP1 CALLDATASIZE SUB DUP2 ADD SWAP1 PUSH2 0x3FB SWAP2 SWAP1 PUSH2 0x3F6F JUMP JUMPDEST PUSH2 0x1AEF JUMP JUMPDEST PUSH1 0x40 MLOAD PUSH2 0x40D SWAP2 SWAP1 PUSH2 0x3EF6 JUMP JUMPDEST PUSH1 0x40 MLOAD DUP1 SWAP2 SUB SWAP1 RETURN JUMPDEST PUSH2 0x41E PUSH2 0x1CD9 JUMP JUMPDEST STOP JUMPDEST PUSH2 0x428 PUSH2 0x1D4F JUMP JUMPDEST PUSH1 0x40 MLOAD PUSH2 0x435 SWAP2 SWAP1 PUSH2 0x3EF6 JUMP JUMPDEST PUSH1 0x40 MLOAD DUP1 SWAP2 SUB SWAP1 RETURN JUMPDEST PUSH2 0x458 PUSH1 0x4 DUP1 CALLDATASIZE SUB DUP2 ADD SWAP1 PUSH2 0x453 SWAP2 SWAP1 PUSH2 0x40B8 JUMP JUMPDEST PUSH2 0x1D55 JUMP JUMPDEST STOP JUMPDEST PUSH2 0x462 PUSH2 0x2118 JUMP JUMPDEST PUSH1 0x40 MLOAD PUSH2 0x46F SWAP2 SWAP1 PUSH2 0x3FB7 JUMP JUMPDEST PUSH1 0x40 MLOAD DUP1 SWAP2 SUB SWAP1 RETURN JUMPDEST PUSH2 0x492 PUSH1 0x4 DUP1 CALLDATASIZE SUB DUP2 ADD SWAP1 PUSH2 0x48D SWAP2 SWAP1 PUSH2 0x3F6F JUMP JUMPDEST PUSH2 0x212B JUMP JUMPDEST PUSH1 0x40 MLOAD PUSH2 0x49F SWAP2 SWAP1 PUSH2 0x3EF6 JUMP JUMPDEST PUSH1 0x40 MLOAD DUP1 SWAP2 SUB SWAP1 RETURN JUMPDEST PUSH2 0x4C2 PUSH1 0x4 DUP1 CALLDATASIZE SUB DUP2 ADD SWAP1 PUSH2 0x4BD SWAP2 SWAP1 PUSH2 0x3FD2 JUMP JUMPDEST PUSH2 0x2143 JUMP JUMPDEST STOP JUMPDEST PUSH2 0x4CC PUSH2 0x21CE JUMP JUMPDEST PUSH1 0x40 MLOAD PUSH2 0x4D9 SWAP2 SWAP1 PUSH2 0x3FB7 JUMP JUMPDEST PUSH1 0x40 MLOAD DUP1 SWAP2 SUB SWAP1 RETURN JUMPDEST PUSH2 0x4EA PUSH2 0x21F3 JUMP JUMPDEST PUSH1 0x40 MLOAD PUSH2 0x4F7 SWAP2 SWAP1 PUSH2 0x3EF6 JUMP JUMPDEST PUSH1 0x40 MLOAD DUP1 SWAP2 SUB SWAP1 RETURN JUMPDEST PUSH2 0x508 PUSH2 0x2239 JUMP JUMPDEST PUSH1 0x40 MLOAD PUSH2 0x515 SWAP2 SWAP1 PUSH2 0x3EF6 JUMP JUMPDEST PUSH1 0x40 MLOAD DUP1 SWAP2 SUB SWAP1 RETURN JUMPDEST PUSH2 0x526 PUSH2 0x223F JUMP JUMPDEST STOP JUMPDEST PUSH2 0x530 PUSH2 0x2253 JUMP JUMPDEST PUSH1 0x40 MLOAD PUSH2 0x53D SWAP2 SWAP1 PUSH2 0x41E1 JUMP JUMPDEST PUSH1 0x40 MLOAD DUP1 SWAP2 SUB SWAP1 RETURN JUMPDEST PUSH2 0x560 PUSH1 0x4 DUP1 CALLDATASIZE SUB DUP2 ADD SWAP1 PUSH2 0x55B SWAP2 SWAP1 PUSH2 0x41FC JUMP JUMPDEST PUSH2 0x2277 JUMP JUMPDEST PUSH1 0x40 MLOAD PUSH2 0x56D SWAP2 SWAP1 PUSH2 0x3EF6 JUMP JUMPDEST PUSH1 0x40 MLOAD DUP1 SWAP2 SUB SWAP1 RETURN JUMPDEST PUSH2 0x57E PUSH2 0x2398 JUMP JUMPDEST PUSH1 0x40 MLOAD PUSH2 0x58B SWAP2 SWAP1 PUSH2 0x3EF6 JUMP JUMPDEST PUSH1 0x40 MLOAD DUP1 SWAP2 SUB SWAP1 RETURN JUMPDEST PUSH2 0x59C PUSH2 0x239E JUMP JUMPDEST PUSH1 0x40 MLOAD PUSH2 0x5A9 SWAP2 SWAP1 PUSH2 0x3EF6 JUMP JUMPDEST PUSH1 0x40 MLOAD DUP1 SWAP2 SUB SWAP1 RETURN JUMPDEST PUSH2 0x5BA PUSH2 0x23A4 JUMP JUMPDEST PUSH1 0x40 MLOAD PUSH2 0x5C7 SWAP2 SWAP1 PUSH2 0x3EF6 JUMP JUMPDEST PUSH1 0x40 MLOAD DUP1 SWAP2 SUB SWAP1 RETURN JUMPDEST PUSH2 0x5D8 PUSH2 0x23EA JUMP JUMPDEST STOP JUMPDEST PUSH2 0x5F4 PUSH1 0x4 DUP1 CALLDATASIZE SUB DUP2 ADD SWAP1 PUSH2 0x5EF SWAP2 SWAP1 PUSH2 0x3FD2 JUMP JUMPDEST PUSH2 0x2460 JUMP JUMPDEST STOP JUMPDEST PUSH2 0x610 PUSH1 0x4 DUP1 CALLDATASIZE SUB DUP2 ADD SWAP1 PUSH2 0x60B SWAP2 SWAP1 PUSH2 0x3F6F JUMP JUMPDEST PUSH2 0x24C2 JUMP JUMPDEST STOP JUMPDEST PUSH2 0x61A PUSH2 0x25EC JUMP JUMPDEST PUSH1 0x40 MLOAD PUSH2 0x627 SWAP2 SWAP1 PUSH2 0x4272 JUMP JUMPDEST PUSH1 0x40 MLOAD DUP1 SWAP2 SUB SWAP1 RETURN JUMPDEST PUSH2 0x64A PUSH1 0x4 DUP1 CALLDATASIZE SUB DUP2 ADD SWAP1 PUSH2 0x645 SWAP2 SWAP1 PUSH2 0x3FD2 JUMP JUMPDEST PUSH2 0x2624 JUMP JUMPDEST STOP JUMPDEST PUSH2 0x666 PUSH1 0x4 DUP1 CALLDATASIZE SUB DUP2 ADD SWAP1 PUSH2 0x661 SWAP2 SWAP1 PUSH2 0x3FD2 JUMP JUMPDEST PUSH2 0x2E66 JUMP JUMPDEST STOP JUMPDEST PUSH2 0x682 PUSH1 0x4 DUP1 CALLDATASIZE SUB DUP2 ADD SWAP1 PUSH2 0x67D SWAP2 SWAP1 PUSH2 0x428D JUMP JUMPDEST PUSH2 0x2EC8 JUMP JUMPDEST PUSH1 0x40 MLOAD PUSH2 0x696 SWAP9 SWAP8 SWAP7 SWAP6 SWAP5 SWAP4 SWAP3 SWAP2 SWAP1 PUSH2 0x42CD JUMP JUMPDEST PUSH1 0x40 MLOAD DUP1 SWAP2 SUB SWAP1 RETURN JUMPDEST PUSH2 0x6B9 PUSH1 0x4 DUP1 CALLDATASIZE SUB DUP2 ADD SWAP1 PUSH2 0x6B4 SWAP2 SWAP1 PUSH2 0x3FD2 JUMP JUMPDEST PUSH2 0x2F2A JUMP JUMPDEST STOP JUMPDEST PUSH2 0x6D5 PUSH1 0x4 DUP1 CALLDATASIZE SUB DUP2 ADD SWAP1 PUSH2 0x6D0 SWAP2 SWAP1 PUSH2 0x3FD2 JUMP JUMPDEST PUSH2 0x2F8C JUMP JUMPDEST STOP JUMPDEST PUSH2 0x6DF PUSH2 0x321E JUMP JUMPDEST STOP JUMPDEST PUSH2 0x6E9 PUSH2 0x3293 JUMP JUMPDEST STOP JUMPDEST PUSH2 0x705 PUSH1 0x4 DUP1 CALLDATASIZE SUB DUP2 ADD SWAP1 PUSH2 0x700 SWAP2 SWAP1 PUSH2 0x3F6F JUMP JUMPDEST PUSH2 0x3308 JUMP JUMPDEST STOP JUMPDEST PUSH2 0x721 PUSH1 0x4 DUP1 CALLDATASIZE SUB DUP2 ADD SWAP1 PUSH2 0x71C SWAP2 SWAP1 PUSH2 0x3FD2 JUMP JUMPDEST PUSH2 0x3432 JUMP JUMPDEST STOP JUMPDEST PUSH2 0x73D PUSH1 0x4 DUP1 CALLDATASIZE SUB DUP2 ADD SWAP1 PUSH2 0x738 SWAP2 SWAP1 PUSH2 0x3FD2 JUMP JUMPDEST PUSH2 0x3493 JUMP JUMPDEST STOP JUMPDEST PUSH2 0x747 PUSH2 0x34F5 JUMP JUMPDEST PUSH1 0x40 MLOAD PUSH2 0x754 SWAP2 SWAP1 PUSH2 0x3EF6 JUMP JUMPDEST PUSH1 0x40 MLOAD DUP1 SWAP2 SUB SWAP1 RETURN JUMPDEST PUSH2 0x777 PUSH1 0x4 DUP1 CALLDATASIZE SUB DUP2 ADD SWAP1 PUSH2 0x772 SWAP2 SWAP1 PUSH2 0x3F6F JUMP JUMPDEST PUSH2 0x353B JUMP JUMPDEST STOP JUMPDEST PUSH1 0x0 PUSH2 0x78F PUSH8 0xCFB62A4E32827574 PUSH1 0xC0 SHL PUSH2 0x35C1 JUMP JUMPDEST PUSH2 0x7A3 PUSH8 0xF271E827DB6E47B7 PUSH1 0xC0 SHL PUSH2 0x35C1 JUMP JUMPDEST PUSH2 0x7B7 PUSH8 0xA33C765D60246BF7 PUSH1 0xC0 SHL PUSH2 0x35C1 JUMP JUMPDEST PUSH1 0x1 SLOAD DUP4 LT PUSH2 0x810 JUMPI PUSH2 0x7D4 PUSH8 0x5DCEC27C27302B31 PUSH1 0xC0 SHL PUSH2 0x35C1 JUMP JUMPDEST PUSH2 0x7E8 PUSH8 0x996F014A15AE084B PUSH1 0xC0 SHL PUSH2 0x35C1 JUMP JUMPDEST PUSH2 0x7FC PUSH8 0x9E7BDD9574AC5A0 PUSH1 0xC0 SHL PUSH2 0x35C1 JUMP JUMPDEST DUP2 PUSH1 0x90 PUSH2 0x809 SWAP2 SWAP1 PUSH2 0x437A JUMP JUMPDEST SWAP1 POP PUSH2 0x909 JUMP JUMPDEST PUSH2 0x824 PUSH8 0x41AE4D463CA3CF49 PUSH1 0xC0 SHL PUSH2 0x35C1 JUMP JUMPDEST PUSH2 0x838 PUSH8 0x581F33E234BDD4AE PUSH1 0xC0 SHL PUSH2 0x35C1 JUMP JUMPDEST PUSH2 0x84C PUSH8 0xD425252E50B3A3F3 PUSH1 0xC0 SHL PUSH2 0x35C1 JUMP JUMPDEST PUSH1 0x0 PUSH1 0x1 SLOAD PUSH8 0xDE0B6B3A7640000 DUP6 PUSH1 0x6 SLOAD PUSH2 0x868 SWAP2 SWAP1 PUSH2 0x437A JUMP JUMPDEST PUSH2 0x872 SWAP2 SWAP1 PUSH2 0x437A JUMP JUMPDEST PUSH2 0x87C SWAP2 SWAP1 PUSH2 0x43EB JUMP JUMPDEST SWAP1 POP PUSH2 0x892 PUSH8 0x37DC5191926DD1C4 PUSH1 0xC0 SHL PUSH2 0x35C1 JUMP JUMPDEST PUSH2 0x8A6 PUSH8 0x6CA6A3138DE4996C PUSH1 0xC0 SHL PUSH2 0x35C1 JUMP JUMPDEST PUSH1 0x0 PUSH15 0xC097CE7BC90715B34B9F1000000000 DUP3 DUP4 DUP7 PUSH2 0x8C5 SWAP2 SWAP1 PUSH2 0x437A JUMP JUMPDEST PUSH2 0x8CF SWAP2 SWAP1 PUSH2 0x437A JUMP JUMPDEST PUSH2 0x8D9 SWAP2 SWAP1 PUSH2 0x43EB JUMP JUMPDEST SWAP1 POP PUSH2 0x8EF PUSH8 0xA4A0F357BF4E27DD PUSH1 0xC0 SHL PUSH2 0x35C1 JUMP JUMPDEST PUSH2 0x903 PUSH8 0x8ADC283527FA4135 PUSH1 0xC0 SHL PUSH2 0x35C1 JUMP JUMPDEST DUP1 SWAP3 POP POP POP JUMPDEST SWAP3 SWAP2 POP POP JUMP JUMPDEST PUSH1 0x5 SLOAD DUP2 JUMP JUMPDEST PUSH1 0xC PUSH1 0x20 MSTORE DUP1 PUSH1 0x0 MSTORE PUSH1 0x40 PUSH1 0x0 KECCAK256 PUSH1 0x0 SWAP2 POP SLOAD SWAP1 PUSH2 0x100 EXP SWAP1 DIV PUSH1 0xFF AND DUP2 JUMP JUMPDEST PUSH1 0x7 SLOAD DUP2 JUMP JUMPDEST PUSH2 0x94F PUSH8 0x9F212B178825F783 PUSH1 0xC0 SHL PUSH2 0x35C1 JUMP JUMPDEST PUSH2 0x957 PUSH2 0x35C4 JUMP JUMPDEST PUSH2 0x96B PUSH8 0x89B2E85F3E245EA5 PUSH1 0xC0 SHL PUSH2 0x35C1 JUMP JUMPDEST PUSH2 0x97F PUSH8 0x9E220B7E5F7608A5 PUSH1 0xC0 SHL PUSH2 0x35C1 JUMP JUMPDEST PUSH2 0x993 PUSH8 0xFE7CAA985572D08F PUSH1 0xC0 SHL PUSH2 0x35C1 JUMP JUMPDEST PUSH2 0x9A7 PUSH8 0xCCD960EBA84E13DD PUSH1 0xC0 SHL PUSH2 0x35C1 JUMP JUMPDEST PUSH2 0x9BB PUSH8 0x8605A2B21344C357 PUSH1 0xC0 SHL PUSH2 0x35C1 JUMP JUMPDEST PUSH1 0x0 DUP2 GT PUSH2 0x9FE JUMPI PUSH1 0x40 MLOAD PUSH32 0x8C379A000000000000000000000000000000000000000000000000000000000 DUP2 MSTORE PUSH1 0x4 ADD PUSH2 0x9F5 SWAP1 PUSH2 0x4479 JUMP JUMPDEST PUSH1 0x40 MLOAD DUP1 SWAP2 SUB SWAP1 REVERT JUMPDEST PUSH2 0xA12 PUSH8 0x2ACFE9BAEE327830 PUSH1 0xC0 SHL PUSH2 0x35C1 JUMP JUMPDEST PUSH2 0xA26 PUSH8 0x2E0B79933DC999EF PUSH1 0xC0 SHL PUSH2 0x35C1 JUMP JUMPDEST DUP1 PUSH1 0xE PUSH1 0x0 DUP3 DUP3 SLOAD PUSH2 0xA38 SWAP2 SWAP1 PUSH2 0x4499 JUMP JUMPDEST SWAP3 POP POP DUP2 SWAP1 SSTORE POP PUSH2 0xA53 PUSH8 0xBBA26DBE923896E0 PUSH1 0xC0 SHL PUSH2 0x35C1 JUMP JUMPDEST PUSH2 0xA67 PUSH8 0x7F25A147D236DD8B PUSH1 0xC0 SHL PUSH2 0x35C1 JUMP JUMPDEST PUSH2 0xAB4 CALLER ADDRESS DUP4 PUSH1 0x0 DUP1 SLOAD SWAP1 PUSH2 0x100 EXP SWAP1 DIV PUSH20 0xFFFFFFFFFFFFFFFFFFFFFFFFFFFFFFFFFFFFFFFF AND PUSH20 0xFFFFFFFFFFFFFFFFFFFFFFFFFFFFFFFFFFFFFFFF AND PUSH2 0x364B SWAP1 SWAP4 SWAP3 SWAP2 SWAP1 PUSH4 0xFFFFFFFF AND JUMP JUMPDEST PUSH2 0xAC8 PUSH8 0x475DC2D487FEE29C PUSH1 0xC0 SHL PUSH2 0x35C1 JUMP JUMPDEST PUSH2 0xADC PUSH8 0xFFB6970FF5A4480D PUSH1 0xC0 SHL PUSH2 0x35C1 JUMP JUMPDEST CALLER PUSH20 0xFFFFFFFFFFFFFFFFFFFFFFFFFFFFFFFFFFFFFFFF AND PUSH32 0xE1FFFCC4923D04B559F4D29A8BFC6CDA04EB5B0D3C460751C2402C5C5CC9109C DUP3 PUSH1 0x40 MLOAD PUSH2 0xB22 SWAP2 SWAP1 PUSH2 0x3EF6 JUMP JUMPDEST PUSH1 0x40 MLOAD DUP1 SWAP2 SUB SWAP1 LOG2 POP JUMP JUMPDEST PUSH1 0x0 PUSH2 0xB43 PUSH8 0xBF3E5F3FD52B5FB9 PUSH1 0xC0 SHL PUSH2 0x35C1 JUMP JUMPDEST PUSH2 0xB57 PUSH8 0xE12BD3823173100D PUSH1 0xC0 SHL PUSH2 0x35C1 JUMP JUMPDEST PUSH2 0xB6B PUSH8 0xACECE777C90A6BB7 PUSH1 0xC0 SHL PUSH2 0x35C1 JUMP JUMPDEST PUSH1 0x0 PUSH2 0xB77 DUP8 DUP8 PUSH2 0x779 JUMP JUMPDEST SWAP1 POP PUSH2 0xB8D PUSH8 0xAC5B4B7A00DD959D PUSH1 0xC0 SHL PUSH2 0x35C1 JUMP JUMPDEST PUSH2 0xBA1 PUSH8 0x1D7E0721221A2EF6 PUSH1 0xC0 SHL PUSH2 0x35C1 JUMP JUMPDEST PUSH1 0x0 PUSH2 0xBAF DUP9 DUP8 DUP8 DUP8 PUSH2 0x2277 JUMP JUMPDEST SWAP1 POP PUSH2 0xBC5 PUSH8 0x6CEC70FE82FB1DDB PUSH1 0xC0 SHL PUSH2 0x35C1 JUMP JUMPDEST PUSH2 0xBD9 PUSH8 0xFFBD9AF4813C7167 PUSH1 0xC0 SHL PUSH2 0x35C1 JUMP JUMPDEST PUSH1 0x0 PUSH8 0xDE0B6B3A7640000 DUP4 DUP12 PUSH2 0xBF0 SWAP2 SWAP1 PUSH2 0x437A JUMP JUMPDEST PUSH2 0xBFA SWAP2 SWAP1 PUSH2 0x43EB JUMP JUMPDEST SWAP1 POP PUSH2 0xC10 PUSH8 0x6208B8F23C1EE9D5 PUSH1 0xC0 SHL PUSH2 0x35C1 JUMP JUMPDEST PUSH2 0xC24 PUSH8 0x4BC5CCECCD8F3B8F PUSH1 0xC0 SHL PUSH2 0x35C1 JUMP JUMPDEST PUSH1 0x0 PUSH8 0xDE0B6B3A7640000 DUP4 DUP4 PUSH2 0xC3B SWAP2 SWAP1 PUSH2 0x437A JUMP JUMPDEST PUSH2 0xC45 SWAP2 SWAP1 PUSH2 0x43EB JUMP JUMPDEST SWAP1 POP PUSH2 0xC5B PUSH8 0xCC0D02E223AC5F20 PUSH1 0xC0 SHL PUSH2 0x35C1 JUMP JUMPDEST PUSH2 0xC6F PUSH8 0x341662C6E05446ED PUSH1 0xC0 SHL PUSH2 0x35C1 JUMP JUMPDEST PUSH1 0x0 DUP2 DUP4 DUP14 PUSH2 0xC7E SWAP2 SWAP1 PUSH2 0x4499 JUMP JUMPDEST PUSH2 0xC88 SWAP2 SWAP1 PUSH2 0x44CD JUMP JUMPDEST SWAP1 POP PUSH2 0xC9E PUSH8 0xD5B420702B5D5290 PUSH1 0xC0 SHL PUSH2 0x35C1 JUMP JUMPDEST PUSH2 0xCB2 PUSH8 0x9AAD6B8BC00FF9D8 PUSH1 0xC0 SHL PUSH2 0x35C1 JUMP JUMPDEST DUP1 SWAP6 POP POP POP POP POP POP SWAP7 SWAP6 POP POP POP POP POP POP JUMP JUMPDEST PUSH1 0x3 SLOAD DUP2 JUMP JUMPDEST PUSH1 0x8 SLOAD DUP2 JUMP JUMPDEST PUSH2 0xCE4 PUSH8 0x26B30CA91779443F PUSH1 0xC0 SHL PUSH2 0x35C1 JUMP JUMPDEST PUSH2 0xCEC PUSH2 0x36CD JUMP JUMPDEST PUSH2 0xD00 PUSH8 0xCAB201A6572259FA PUSH1 0xC0 SHL PUSH2 0x35C1 JUMP JUMPDEST PUSH2 0xD14 PUSH8 0x5C04E90F7A0A31F9 PUSH1 0xC0 SHL PUSH2 0x35C1 JUMP JUMPDEST PUSH2 0xD28 PUSH8 0x1529646ECF448EE6 PUSH1 0xC0 SHL PUSH2 0x35C1 JUMP JUMPDEST PUSH2 0xD3C PUSH8 0x6A4F9D234FD0C0B1 PUSH1 0xC0 SHL PUSH2 0x35C1 JUMP JUMPDEST PUSH1 0x0 PUSH1 0xA PUSH1 0x0 CALLER PUSH20 0xFFFFFFFFFFFFFFFFFFFFFFFFFFFFFFFFFFFFFFFF AND PUSH20 0xFFFFFFFFFFFFFFFFFFFFFFFFFFFFFFFFFFFFFFFF AND DUP2 MSTORE PUSH1 0x20 ADD SWAP1 DUP2 MSTORE PUSH1 0x20 ADD PUSH1 0x0 KECCAK256 PUSH1 0x0 DUP4 DUP2 MSTORE PUSH1 0x20 ADD SWAP1 DUP2 MSTORE PUSH1 0x20 ADD PUSH1 0x0 KECCAK256 SWAP1 POP PUSH2 0xDA4 PUSH8 0x68B9E7CCC732B445 PUSH1 0xC0 SHL PUSH2 0x35C1 JUMP JUMPDEST PUSH2 0xDB8 PUSH8 0x47FDBB551B51AA9 PUSH1 0xC0 SHL PUSH2 0x35C1 JUMP JUMPDEST PUSH2 0xDCC PUSH8 0x5D3DA345D08EC2BC PUSH1 0xC0 SHL PUSH2 0x35C1 JUMP JUMPDEST DUP1 PUSH1 0x3 ADD PUSH1 0x0 SWAP1 SLOAD SWAP1 PUSH2 0x100 EXP SWAP1 DIV PUSH1 0xFF AND ISZERO PUSH2 0xE1E JUMPI PUSH1 0x40 MLOAD PUSH32 0x8C379A000000000000000000000000000000000000000000000000000000000 DUP2 MSTORE PUSH1 0x4 ADD PUSH2 0xE15 SWAP1 PUSH2 0x454D JUMP JUMPDEST PUSH1 0x40 MLOAD DUP1 SWAP2 SUB SWAP1 REVERT JUMPDEST PUSH2 0xE32 PUSH8 0xC61264272019B48E PUSH1 0xC0 SHL PUSH2 0x35C1 JUMP JUMPDEST PUSH2 0xE46 PUSH8 0xB16C74A23A1E8337 PUSH1 0xC0 SHL PUSH2 0x35C1 JUMP JUMPDEST PUSH2 0xE5A PUSH8 0xB84E9AA335CE692F PUSH1 0xC0 SHL PUSH2 0x35C1 JUMP JUMPDEST PUSH1 0x0 DUP2 PUSH1 0x0 ADD SLOAD SWAP1 POP PUSH2 0xE77 PUSH8 0x643E5D7D7447C52E PUSH1 0xC0 SHL PUSH2 0x35C1 JUMP JUMPDEST PUSH2 0xE8B PUSH8 0xADB190546928EE16 PUSH1 0xC0 SHL PUSH2 0x35C1 JUMP JUMPDEST PUSH1 0x0 PUSH2 0xEA1 PUSH8 0x2922C653A4A340B3 PUSH1 0xC0 SHL PUSH2 0x35C1 JUMP JUMPDEST PUSH2 0xEB5 PUSH8 0xD184A05FF8D412C2 PUSH1 0xC0 SHL PUSH2 0x35C1 JUMP JUMPDEST PUSH1 0x0 DUP4 PUSH1 0x7 ADD SLOAD SUB PUSH2 0xF1D JUMPI PUSH2 0xED5 PUSH8 0x8C87D943F50F0EA0 PUSH1 0xC0 SHL PUSH2 0x35C1 JUMP JUMPDEST PUSH2 0xEE9 PUSH8 0x1B9F806E16ED2DFE PUSH1 0xC0 SHL PUSH2 0x35C1 JUMP JUMPDEST PUSH2 0xF16 DUP3 DUP5 PUSH1 0x1 ADD SLOAD TIMESTAMP PUSH2 0xEFD SWAP2 SWAP1 PUSH2 0x44CD JUMP JUMPDEST DUP6 PUSH1 0x4 ADD SLOAD DUP7 PUSH1 0x5 ADD SLOAD DUP8 PUSH1 0x6 ADD SLOAD DUP9 PUSH1 0x7 ADD SLOAD PUSH2 0xB2D JUMP JUMPDEST SWAP1 POP PUSH2 0x10C4 JUMP JUMPDEST PUSH2 0xF31 PUSH8 0xA6CE197FD362BE5 PUSH1 0xC0 SHL PUSH2 0x35C1 JUMP JUMPDEST PUSH2 0xF45 PUSH8 0xA2D347ACC59C4444 PUSH1 0xC0 SHL PUSH2 0x35C1 JUMP JUMPDEST DUP3 PUSH1 0x7 ADD SLOAD DUP4 PUSH1 0x1 ADD SLOAD PUSH2 0xF59 SWAP2 SWAP1 PUSH2 0x4499 JUMP JUMPDEST TIMESTAMP LT ISZERO PUSH2 0x106C JUMPI PUSH2 0xF74 PUSH8 0x53E847D7BD96FB0A PUSH1 0xC0 SHL PUSH2 0x35C1 JUMP JUMPDEST PUSH2 0xF88 PUSH8 0x620B6B7AB778E1C1 PUSH1 0xC0 SHL PUSH2 0x35C1 JUMP JUMPDEST TIMESTAMP DUP4 PUSH1 0x2 ADD DUP2 SWAP1 SSTORE POP PUSH2 0xFA5 PUSH8 0x8FEE3335FF2E0B9B PUSH1 0xC0 SHL PUSH2 0x35C1 JUMP JUMPDEST PUSH1 0x1 DUP4 PUSH1 0x3 ADD PUSH1 0x0 PUSH2 0x100 EXP DUP2 SLOAD DUP2 PUSH1 0xFF MUL NOT AND SWAP1 DUP4 ISZERO ISZERO MUL OR SWAP1 SSTORE POP PUSH2 0xFD6 PUSH8 0x54AA019B0B7726C0 PUSH1 0xC0 SHL PUSH2 0x35C1 JUMP JUMPDEST PUSH2 0xFEA PUSH8 0xAA9CAF93C30C72B5 PUSH1 0xC0 SHL PUSH2 0x35C1 JUMP JUMPDEST CALLER PUSH20 0xFFFFFFFFFFFFFFFFFFFFFFFFFFFFFFFFFFFFFFFF AND PUSH32 0x828764C21E74C28710E19919735825ABA966621C95CBD913F8ED65A2D298F48C DUP5 PUSH1 0x0 ADD SLOAD PUSH1 0x40 MLOAD PUSH2 0x1034 SWAP2 SWAP1 PUSH2 0x3EF6 JUMP JUMPDEST PUSH1 0x40 MLOAD DUP1 SWAP2 SUB SWAP1 LOG2 PUSH2 0x1050 PUSH8 0x4F8A33545E202067 PUSH1 0xC0 SHL PUSH2 0x35C1 JUMP JUMPDEST PUSH2 0x1064 PUSH8 0x590B3F7A3BC5921C PUSH1 0xC0 SHL PUSH2 0x35C1 JUMP JUMPDEST POP POP POP PUSH2 0x1456 JUMP JUMPDEST PUSH2 0x1080 PUSH8 0xA3E6EDF888164486 PUSH1 0xC0 SHL PUSH2 0x35C1 JUMP JUMPDEST PUSH2 0x1094 PUSH8 0x9E4524B9BE704DE5 PUSH1 0xC0 SHL PUSH2 0x35C1 JUMP JUMPDEST PUSH2 0x10C1 DUP3 DUP5 PUSH1 0x1 ADD SLOAD TIMESTAMP PUSH2 0x10A8 SWAP2 SWAP1 PUSH2 0x44CD JUMP JUMPDEST DUP6 PUSH1 0x4 ADD SLOAD DUP7 PUSH1 0x5 ADD SLOAD DUP8 PUSH1 0x6 ADD SLOAD DUP9 PUSH1 0x7 ADD SLOAD PUSH2 0xB2D JUMP JUMPDEST SWAP1 POP JUMPDEST PUSH2 0x10D8 PUSH8 0xC4F56E8613B194E0 PUSH1 0xC0 SHL PUSH2 0x35C1 JUMP JUMPDEST DUP2 PUSH1 0xD PUSH1 0x0 DUP3 DUP3 SLOAD PUSH2 0x10EA SWAP2 SWAP1 PUSH2 0x44CD JUMP JUMPDEST SWAP3 POP POP DUP2 SWAP1 SSTORE POP PUSH2 0x1105 PUSH8 0x54804A0568A24202 PUSH1 0xC0 SHL PUSH2 0x35C1 JUMP JUMPDEST PUSH2 0x1119 PUSH8 0x6E16E72F0DBDD4B5 PUSH1 0xC0 SHL PUSH2 0x35C1 JUMP JUMPDEST PUSH1 0x0 DUP3 DUP3 PUSH2 0x1127 SWAP2 SWAP1 PUSH2 0x44CD JUMP JUMPDEST SWAP1 POP PUSH2 0x113D PUSH8 0xDD933D62FF016AB1 PUSH1 0xC0 SHL PUSH2 0x35C1 JUMP JUMPDEST DUP1 PUSH1 0xE PUSH1 0x0 DUP3 DUP3 SLOAD PUSH2 0x114F SWAP2 SWAP1 PUSH2 0x44CD JUMP JUMPDEST SWAP3 POP POP DUP2 SWAP1 SSTORE POP PUSH2 0x116A PUSH8 0x7498668CC086BAC7 PUSH1 0xC0 SHL PUSH2 0x35C1 JUMP JUMPDEST DUP1 PUSH1 0xF PUSH1 0x0 DUP3 DUP3 SLOAD PUSH2 0x117C SWAP2 SWAP1 PUSH2 0x44CD JUMP JUMPDEST SWAP3 POP POP DUP2 SWAP1 SSTORE POP PUSH2 0x1197 PUSH8 0xD3F42B09F60EDB4 PUSH1 0xC0 SHL PUSH2 0x35C1 JUMP JUMPDEST PUSH1 0xA PUSH1 0x0 CALLER PUSH20 0xFFFFFFFFFFFFFFFFFFFFFFFFFFFFFFFFFFFFFFFF AND PUSH20 0xFFFFFFFFFFFFFFFFFFFFFFFFFFFFFFFFFFFFFFFF AND DUP2 MSTORE PUSH1 0x20 ADD SWAP1 DUP2 MSTORE PUSH1 0x20 ADD PUSH1 0x0 KECCAK256 PUSH1 0x0 DUP7 DUP2 MSTORE PUSH1 0x20 ADD SWAP1 DUP2 MSTORE PUSH1 0x20 ADD PUSH1 0x0 KECCAK256 PUSH1 0x0 DUP1 DUP3 ADD PUSH1 0x0 SWAP1 SSTORE PUSH1 0x1 DUP3 ADD PUSH1 0x0 SWAP1 SSTORE PUSH1 0x2 DUP3 ADD PUSH1 0x0 SWAP1 SSTORE PUSH1 0x3 DUP3 ADD PUSH1 0x0 PUSH2 0x100 EXP DUP2 SLOAD SWAP1 PUSH1 0xFF MUL NOT AND SWAP1 SSTORE PUSH1 0x4 DUP3 ADD PUSH1 0x0 SWAP1 SSTORE PUSH1 0x5 DUP3 ADD PUSH1 0x0 SWAP1 SSTORE PUSH1 0x6 DUP3 ADD PUSH1 0x0 SWAP1 SSTORE PUSH1 0x7 DUP3 ADD PUSH1 0x0 SWAP1 SSTORE POP POP PUSH2 0x124A PUSH8 0x8E6E738BBC198FFD PUSH1 0xC0 SHL PUSH2 0x35C1 JUMP JUMPDEST PUSH2 0x125D PUSH7 0x4B5EEF57CF1A38 PUSH1 0xC0 SHL PUSH2 0x35C1 JUMP JUMPDEST PUSH2 0x12A8 CALLER DUP4 PUSH1 0x0 DUP1 SLOAD SWAP1 PUSH2 0x100 EXP SWAP1 DIV PUSH20 0xFFFFFFFFFFFFFFFFFFFFFFFFFFFFFFFFFFFFFFFF AND PUSH20 0xFFFFFFFFFFFFFFFFFFFFFFFFFFFFFFFFFFFFFFFF AND PUSH2 0x3724 SWAP1 SWAP3 SWAP2 SWAP1 PUSH4 0xFFFFFFFF AND JUMP JUMPDEST PUSH2 0x12BC PUSH8 0xAC186582789E1827 PUSH1 0xC0 SHL PUSH2 0x35C1 JUMP JUMPDEST PUSH2 0x12D0 PUSH8 0xB041837B5A596032 PUSH1 0xC0 SHL PUSH2 0x35C1 JUMP JUMPDEST CALLER PUSH20 0xFFFFFFFFFFFFFFFFFFFFFFFFFFFFFFFFFFFFFFFF AND PUSH32 0x7084F5476618D8E60B11EF0D7D3F06914655ADB8793E28FF7F018D4C76D505D5 DUP4 PUSH1 0x40 MLOAD PUSH2 0x1316 SWAP2 SWAP1 PUSH2 0x3EF6 JUMP JUMPDEST PUSH1 0x40 MLOAD DUP1 SWAP2 SUB SWAP1 LOG2 PUSH2 0x1332 PUSH8 0x3E55AD110582C77F PUSH1 0xC0 SHL PUSH2 0x35C1 JUMP JUMPDEST PUSH2 0x1346 PUSH8 0x7BA4AE178D37156A PUSH1 0xC0 SHL PUSH2 0x35C1 JUMP JUMPDEST CALLER PUSH20 0xFFFFFFFFFFFFFFFFFFFFFFFFFFFFFFFFFFFFFFFF AND PUSH32 0xE2403640BA68FED3A2F88B7557551D1993F84B99BB10FF833F0CF8DB0C5E0486 DUP3 PUSH1 0x40 MLOAD PUSH2 0x138C SWAP2 SWAP1 PUSH2 0x3EF6 JUMP JUMPDEST PUSH1 0x40 MLOAD DUP1 SWAP2 SUB SWAP1 LOG2 PUSH2 0x13A8 PUSH8 0x8144859E4D3A8AC5 PUSH1 0xC0 SHL PUSH2 0x35C1 JUMP JUMPDEST PUSH2 0x13BC PUSH8 0x349AF0497E5CD309 PUSH1 0xC0 SHL PUSH2 0x35C1 JUMP JUMPDEST PUSH1 0x0 PUSH2 0x13C7 CALLER PUSH2 0x1AEF JUMP JUMPDEST SUB PUSH2 0x143C JUMPI PUSH2 0x13E0 PUSH8 0x72E2C3AB76C27912 PUSH1 0xC0 SHL PUSH2 0x35C1 JUMP JUMPDEST PUSH2 0x13F4 PUSH8 0x59DC52AB502D38A6 PUSH1 0xC0 SHL PUSH2 0x35C1 JUMP JUMPDEST PUSH1 0xB PUSH1 0x0 CALLER PUSH20 0xFFFFFFFFFFFFFFFFFFFFFFFFFFFFFFFFFFFFFFFF AND PUSH20 0xFFFFFFFFFFFFFFFFFFFFFFFFFFFFFFFFFFFFFFFF AND DUP2 MSTORE PUSH1 0x20 ADD SWAP1 DUP2 MSTORE PUSH1 0x20 ADD PUSH1 0x0 KECCAK256 PUSH1 0x0 SWAP1 SSTORE PUSH2 0x1451 JUMP JUMPDEST PUSH2 0x1450 PUSH8 0xCA6584C7888C164D PUSH1 0xC0 SHL PUSH2 0x35C1 JUMP JUMPDEST JUMPDEST POP POP POP POP JUMPDEST PUSH2 0x145E PUSH2 0x37A3 JUMP JUMPDEST POP JUMP JUMPDEST PUSH2 0x1475 PUSH8 0x309D090A1584E33B PUSH1 0xC0 SHL PUSH2 0x35C1 JUMP JUMPDEST PUSH2 0x147D PUSH2 0x35C4 JUMP JUMPDEST PUSH2 0x1491 PUSH8 0x85FEAD051CCDAD84 PUSH1 0xC0 SHL PUSH2 0x35C1 JUMP JUMPDEST PUSH2 0x14A5 PUSH8 0x1456E3F7C2D7BA8A PUSH1 0xC0 SHL PUSH2 0x35C1 JUMP JUMPDEST PUSH2 0x14B9 PUSH8 0x599295E2237FDEBB PUSH1 0xC0 SHL PUSH2 0x35C1 JUMP JUMPDEST DUP1 PUSH1 0x4 DUP2 SWAP1 SSTORE POP POP JUMP JUMPDEST PUSH2 0x14D7 PUSH8 0x7184C4CB18C66C0B PUSH1 0xC0 SHL PUSH2 0x35C1 JUMP JUMPDEST PUSH2 0x14DF PUSH2 0x36CD JUMP JUMPDEST PUSH2 0x14F3 PUSH8 0x4D911ABBEF07218F PUSH1 0xC0 SHL PUSH2 0x35C1 JUMP JUMPDEST PUSH2 0x1507 PUSH8 0x6EA687DE1F12A419 PUSH1 0xC0 SHL PUSH2 0x35C1 JUMP JUMPDEST PUSH2 0x151B PUSH8 0xDDD5898BA213B35C PUSH1 0xC0 SHL PUSH2 0x35C1 JUMP JUMPDEST PUSH2 0x152F PUSH8 0x5E39B76E14F5756D PUSH1 0xC0 SHL PUSH2 0x35C1 JUMP JUMPDEST PUSH1 0x0 PUSH1 0xA PUSH1 0x0 CALLER PUSH20 0xFFFFFFFFFFFFFFFFFFFFFFFFFFFFFFFFFFFFFFFF AND PUSH20 0xFFFFFFFFFFFFFFFFFFFFFFFFFFFFFFFFFFFFFFFF AND DUP2 MSTORE PUSH1 0x20 ADD SWAP1 DUP2 MSTORE PUSH1 0x20 ADD PUSH1 0x0 KECCAK256 PUSH1 0x0 DUP4 DUP2 MSTORE PUSH1 0x20 ADD SWAP1 DUP2 MSTORE PUSH1 0x20 ADD PUSH1 0x0 KECCAK256 SWAP1 POP PUSH2 0x1597 PUSH8 0xF44116102EBC3961 PUSH1 0xC0 SHL PUSH2 0x35C1 JUMP JUMPDEST PUSH2 0x15AB PUSH8 0xC9B71C608995FFBE PUSH1 0xC0 SHL PUSH2 0x35C1 JUMP JUMPDEST PUSH2 0x15BF PUSH8 0xBDFDE5E8D749625 PUSH1 0xC0 SHL PUSH2 0x35C1 JUMP JUMPDEST DUP1 PUSH1 0x3 ADD PUSH1 0x0 SWAP1 SLOAD SWAP1 PUSH2 0x100 EXP SWAP1 DIV PUSH1 0xFF AND PUSH2 0x1610 JUMPI PUSH1 0x40 MLOAD PUSH32 0x8C379A000000000000000000000000000000000000000000000000000000000 DUP2 MSTORE PUSH1 0x4 ADD PUSH2 0x1607 SWAP1 PUSH2 0x45B9 JUMP JUMPDEST PUSH1 0x40 MLOAD DUP1 SWAP2 SUB SWAP1 REVERT JUMPDEST PUSH2 0x1624 PUSH8 0x6749C6D6BA005464 PUSH1 0xC0 SHL PUSH2 0x35C1 JUMP JUMPDEST PUSH2 0x1638 PUSH8 0xC182D4F1E36DCAE1 PUSH1 0xC0 SHL PUSH2 0x35C1 JUMP JUMPDEST PUSH2 0x164C PUSH8 0xFE2BF72B56033C89 PUSH1 0xC0 SHL PUSH2 0x35C1 JUMP JUMPDEST PUSH2 0x1660 PUSH8 0x7F21C96AE2E56693 PUSH1 0xC0 SHL PUSH2 0x35C1 JUMP JUMPDEST PUSH1 0x5 SLOAD DUP2 PUSH1 0x2 ADD SLOAD PUSH2 0x1672 SWAP2 SWAP1 PUSH2 0x4499 JUMP JUMPDEST TIMESTAMP LT ISZERO PUSH2 0x16B4 JUMPI PUSH1 0x40 MLOAD PUSH32 0x8C379A000000000000000000000000000000000000000000000000000000000 DUP2 MSTORE PUSH1 0x4 ADD PUSH2 0x16AB SWAP1 PUSH2 0x4625 JUMP JUMPDEST PUSH1 0x40 MLOAD DUP1 SWAP2 SUB SWAP1 REVERT JUMPDEST PUSH2 0x16C8 PUSH8 0xC311A3E913C98C12 PUSH1 0xC0 SHL PUSH2 0x35C1 JUMP JUMPDEST PUSH2 0x16DC PUSH8 0xF70459DAFB42DA97 PUSH1 0xC0 SHL PUSH2 0x35C1 JUMP JUMPDEST PUSH2 0x16F0 PUSH8 0xE27377FCFE60DA4C PUSH1 0xC0 SHL PUSH2 0x35C1 JUMP JUMPDEST PUSH1 0x0 DUP2 PUSH1 0x0 ADD SLOAD SWAP1 POP PUSH2 0x170D PUSH8 0xEBB1A41560C4349D PUSH1 0xC0 SHL PUSH2 0x35C1 JUMP JUMPDEST PUSH2 0x1721 PUSH8 0x4E5827196005202A PUSH1 0xC0 SHL PUSH2 0x35C1 JUMP JUMPDEST PUSH1 0x0 PUSH2 0x1750 DUP3 DUP5 PUSH1 0x1 ADD SLOAD TIMESTAMP PUSH2 0x1737 SWAP2 SWAP1 PUSH2 0x44CD JUMP JUMPDEST DUP6 PUSH1 0x4 ADD SLOAD DUP7 PUSH1 0x5 ADD SLOAD DUP8 PUSH1 0x6 ADD SLOAD DUP9 PUSH1 0x7 ADD SLOAD PUSH2 0xB2D JUMP JUMPDEST SWAP1 POP PUSH2 0x1766 PUSH8 0x13E94F0456097CA9 PUSH1 0xC0 SHL PUSH2 0x35C1 JUMP JUMPDEST PUSH2 0x177A PUSH8 0xBAB595A3BB5FB833 PUSH1 0xC0 SHL PUSH2 0x35C1 JUMP JUMPDEST PUSH1 0x0 DUP3 DUP3 PUSH2 0x1788 SWAP2 SWAP1 PUSH2 0x44CD JUMP JUMPDEST SWAP1 POP PUSH2 0x179E PUSH8 0x92F660AE3A407590 PUSH1 0xC0 SHL PUSH2 0x35C1 JUMP JUMPDEST DUP3 PUSH1 0xD PUSH1 0x0 DUP3 DUP3 SLOAD PUSH2 0x17B0 SWAP2 SWAP1 PUSH2 0x44CD JUMP JUMPDEST SWAP3 POP POP DUP2 SWAP1 SSTORE POP PUSH2 0x17CB PUSH8 0xBB1C9082132B1E51 PUSH1 0xC0 SHL PUSH2 0x35C1 JUMP JUMPDEST DUP1 PUSH1 0xE PUSH1 0x0 DUP3 DUP3 SLOAD PUSH2 0x17DD SWAP2 SWAP1 PUSH2 0x44CD JUMP JUMPDEST SWAP3 POP POP DUP2 SWAP1 SSTORE POP PUSH2 0x17F8 PUSH8 0x2E0F8B34A03771CC PUSH1 0xC0 SHL PUSH2 0x35C1 JUMP JUMPDEST DUP1 PUSH1 0xF PUSH1 0x0 DUP3 DUP3 SLOAD PUSH2 0x180A SWAP2 SWAP1 PUSH2 0x44CD JUMP JUMPDEST SWAP3 POP POP DUP2 SWAP1 SSTORE POP PUSH2 0x1825 PUSH8 0x59E2AE14DA7A54C4 PUSH1 0xC0 SHL PUSH2 0x35C1 JUMP JUMPDEST PUSH1 0xA PUSH1 0x0 CALLER PUSH20 0xFFFFFFFFFFFFFFFFFFFFFFFFFFFFFFFFFFFFFFFF AND PUSH20 0xFFFFFFFFFFFFFFFFFFFFFFFFFFFFFFFFFFFFFFFF AND DUP2 MSTORE PUSH1 0x20 ADD SWAP1 DUP2 MSTORE PUSH1 0x20 ADD PUSH1 0x0 KECCAK256 PUSH1 0x0 DUP7 DUP2 MSTORE PUSH1 0x20 ADD SWAP1 DUP2 MSTORE PUSH1 0x20 ADD PUSH1 0x0 KECCAK256 PUSH1 0x0 DUP1 DUP3 ADD PUSH1 0x0 SWAP1 SSTORE PUSH1 0x1 DUP3 ADD PUSH1 0x0 SWAP1 SSTORE PUSH1 0x2 DUP3 ADD PUSH1 0x0 SWAP1 SSTORE PUSH1 0x3 DUP3 ADD PUSH1 0x0 PUSH2 0x100 EXP DUP2 SLOAD SWAP1 PUSH1 0xFF MUL NOT AND SWAP1 SSTORE PUSH1 0x4 DUP3 ADD PUSH1 0x0 SWAP1 SSTORE PUSH1 0x5 DUP3 ADD PUSH1 0x0 SWAP1 SSTORE PUSH1 0x6 DUP3 ADD PUSH1 0x0 SWAP1 SSTORE PUSH1 0x7 DUP3 ADD PUSH1 0x0 SWAP1 SSTORE POP POP PUSH2 0x18D8 PUSH8 0x5E8EAFBAF92E829D PUSH1 0xC0 SHL PUSH2 0x35C1 JUMP JUMPDEST PUSH2 0x18EC PUSH8 0x7605B4F3C0008225 PUSH1 0xC0 SHL PUSH2 0x35C1 JUMP JUMPDEST PUSH2 0x1937 CALLER DUP4 PUSH1 0x0 DUP1 SLOAD SWAP1 PUSH2 0x100 EXP SWAP1 DIV PUSH20 0xFFFFFFFFFFFFFFFFFFFFFFFFFFFFFFFFFFFFFFFF AND PUSH20 0xFFFFFFFFFFFFFFFFFFFFFFFFFFFFFFFFFFFFFFFF AND PUSH2 0x3724 SWAP1 SWAP3 SWAP2 SWAP1 PUSH4 0xFFFFFFFF AND JUMP JUMPDEST PUSH2 0x194B PUSH8 0x85EDCDF512E23D28 PUSH1 0xC0 SHL PUSH2 0x35C1 JUMP JUMPDEST PUSH2 0x195F PUSH8 0x23A6192E293FE0AA PUSH1 0xC0 SHL PUSH2 0x35C1 JUMP JUMPDEST CALLER PUSH20 0xFFFFFFFFFFFFFFFFFFFFFFFFFFFFFFFFFFFFFFFF AND PUSH32 0x7084F5476618D8E60B11EF0D7D3F06914655ADB8793E28FF7F018D4C76D505D5 DUP4 PUSH1 0x40 MLOAD PUSH2 0x19A5 SWAP2 SWAP1 PUSH2 0x3EF6 JUMP JUMPDEST PUSH1 0x40 MLOAD DUP1 SWAP2 SUB SWAP1 LOG2 PUSH2 0x19C1 PUSH8 0x26D46E14DFE6AD74 PUSH1 0xC0 SHL PUSH2 0x35C1 JUMP JUMPDEST PUSH2 0x19D5 PUSH8 0x6F1EAB6EC8DB93BA PUSH1 0xC0 SHL PUSH2 0x35C1 JUMP JUMPDEST CALLER PUSH20 0xFFFFFFFFFFFFFFFFFFFFFFFFFFFFFFFFFFFFFFFF AND PUSH32 0xE2403640BA68FED3A2F88B7557551D1993F84B99BB10FF833F0CF8DB0C5E0486 DUP3 PUSH1 0x40 MLOAD PUSH2 0x1A1B SWAP2 SWAP1 PUSH2 0x3EF6 JUMP JUMPDEST PUSH1 0x40 MLOAD DUP1 SWAP2 SUB SWAP1 LOG2 PUSH2 0x1A37 PUSH8 0xD03B71ACC375F5D6 PUSH1 0xC0 SHL PUSH2 0x35C1 JUMP JUMPDEST PUSH2 0x1A4B PUSH8 0x118E5ADC8390006 PUSH1 0xC0 SHL PUSH2 0x35C1 JUMP JUMPDEST PUSH1 0x0 PUSH2 0x1A56 CALLER PUSH2 0x1AEF JUMP JUMPDEST SUB PUSH2 0x1ACB JUMPI PUSH2 0x1A6F PUSH8 0x71DC132D31E4A024 PUSH1 0xC0 SHL PUSH2 0x35C1 JUMP JUMPDEST PUSH2 0x1A83 PUSH8 0xA7D8E1CBBC843FB2 PUSH1 0xC0 SHL PUSH2 0x35C1 JUMP JUMPDEST PUSH1 0xB PUSH1 0x0 CALLER PUSH20 0xFFFFFFFFFFFFFFFFFFFFFFFFFFFFFFFFFFFFFFFF AND PUSH20 0xFFFFFFFFFFFFFFFFFFFFFFFFFFFFFFFFFFFFFFFF AND DUP2 MSTORE PUSH1 0x20 ADD SWAP1 DUP2 MSTORE PUSH1 0x20 ADD PUSH1 0x0 KECCAK256 PUSH1 0x0 SWAP1 SSTORE PUSH2 0x1AE0 JUMP JUMPDEST PUSH2 0x1ADF PUSH8 0x5FB82D64C9D3C40A PUSH1 0xC0 SHL PUSH2 0x35C1 JUMP JUMPDEST JUMPDEST POP POP POP POP PUSH2 0x1AEC PUSH2 0x37A3 JUMP JUMPDEST POP JUMP JUMPDEST PUSH1 0x0 PUSH2 0x1B05 PUSH8 0x123994520A536F74 PUSH1 0xC0 SHL PUSH2 0x35C1 JUMP JUMPDEST PUSH2 0x1B19 PUSH8 0xE87DF8CF5A599DB PUSH1 0xC0 SHL PUSH2 0x35C1 JUMP JUMPDEST PUSH2 0x1B2D PUSH8 0x741443532EDB1EB8 PUSH1 0xC0 SHL PUSH2 0x35C1 JUMP JUMPDEST PUSH1 0x0 PUSH2 0x1B43 PUSH8 0x2F1CE3E6BDD918F5 PUSH1 0xC0 SHL PUSH2 0x35C1 JUMP JUMPDEST PUSH2 0x1B57 PUSH8 0x84774C26C185F3AE PUSH1 0xC0 SHL PUSH2 0x35C1 JUMP JUMPDEST PUSH1 0x0 PUSH1 0xB PUSH1 0x0 DUP6 PUSH20 0xFFFFFFFFFFFFFFFFFFFFFFFFFFFFFFFFFFFFFFFF AND PUSH20 0xFFFFFFFFFFFFFFFFFFFFFFFFFFFFFFFFFFFFFFFF AND DUP2 MSTORE PUSH1 0x20 ADD SWAP1 DUP2 MSTORE PUSH1 0x20 ADD PUSH1 0x0 KECCAK256 SLOAD SWAP1 POP PUSH2 0x1BAF PUSH8 0x49DBDC851ABAE9C PUSH1 0xC0 SHL PUSH2 0x35C1 JUMP JUMPDEST PUSH2 0x1BC3 PUSH8 0x11882EA6E4480D82 PUSH1 0xC0 SHL PUSH2 0x35C1 JUMP JUMPDEST PUSH1 0x0 PUSH1 0xA PUSH1 0x0 DUP7 PUSH20 0xFFFFFFFFFFFFFFFFFFFFFFFFFFFFFFFFFFFFFFFF AND PUSH20 0xFFFFFFFFFFFFFFFFFFFFFFFFFFFFFFFFFFFFFFFF AND DUP2 MSTORE PUSH1 0x20 ADD SWAP1 DUP2 MSTORE PUSH1 0x20 ADD PUSH1 0x0 KECCAK256 SWAP1 POP PUSH2 0x1C1A PUSH8 0xF8BD99134D01F186 PUSH1 0xC0 SHL PUSH2 0x35C1 JUMP JUMPDEST PUSH2 0x1C2E PUSH8 0x11A3EDE05FA591C7 PUSH1 0xC0 SHL PUSH2 0x35C1 JUMP JUMPDEST PUSH1 0x0 JUMPDEST DUP3 DUP2 LT ISZERO PUSH2 0x1CA5 JUMPI PUSH2 0x1C4D PUSH8 0xC0C387B51BA34F2F PUSH1 0xC0 SHL PUSH2 0x35C1 JUMP JUMPDEST DUP2 PUSH1 0x0 DUP3 DUP2 MSTORE PUSH1 0x20 ADD SWAP1 DUP2 MSTORE PUSH1 0x20 ADD PUSH1 0x0 KECCAK256 PUSH1 0x0 ADD SLOAD DUP5 PUSH2 0x1C6E SWAP2 SWAP1 PUSH2 0x4499 JUMP JUMPDEST SWAP4 POP PUSH2 0x1C84 PUSH8 0x4DFD9BC22D76EA00 PUSH1 0xC0 SHL PUSH2 0x35C1 JUMP JUMPDEST PUSH2 0x1C98 PUSH8 0x35B59734924AD545 PUSH1 0xC0 SHL PUSH2 0x35C1 JUMP JUMPDEST DUP1 DUP1 PUSH1 0x1 ADD SWAP2 POP POP PUSH2 0x1C31 JUMP JUMPDEST POP PUSH2 0x1CBA PUSH8 0xBE94ACD0A59694E0 PUSH1 0xC0 SHL PUSH2 0x35C1 JUMP JUMPDEST PUSH2 0x1CCE PUSH8 0xAE17314496791D91 PUSH1 0xC0 SHL PUSH2 0x35C1 JUMP JUMPDEST DUP3 SWAP4 POP POP POP POP SWAP2 SWAP1 POP JUMP JUMPDEST PUSH2 0x1CED PUSH8 0xD12ED36BA492504D PUSH1 0xC0 SHL PUSH2 0x35C1 JUMP JUMPDEST PUSH2 0x1CF5 PUSH2 0x35C4 JUMP JUMPDEST PUSH2 0x1D09 PUSH8 0xFA18E8493446F5E7 PUSH1 0xC0 SHL PUSH2 0x35C1 JUMP JUMPDEST PUSH2 0x1D1D PUSH8 0x15C5B4C2438DEE71 PUSH1 0xC0 SHL PUSH2 0x35C1 JUMP JUMPDEST PUSH2 0x1D31 PUSH8 0x63F1F44FCF93A8A1 PUSH1 0xC0 SHL PUSH2 0x35C1 JUMP JUMPDEST PUSH2 0x1D45 PUSH8 0xA1A78941D50068B9 PUSH1 0xC0 SHL PUSH2 0x35C1 JUMP JUMPDEST PUSH2 0x1D4D PUSH2 0x37BC JUMP JUMPDEST JUMP JUMPDEST PUSH1 0x2 SLOAD DUP2 JUMP JUMPDEST PUSH2 0x1D69 PUSH8 0x48A24221BCA3AF7F PUSH1 0xC0 SHL PUSH2 0x35C1 JUMP JUMPDEST PUSH1 0x0 PUSH2 0x1D73 PUSH2 0x382E JUMP JUMPDEST SWAP1 POP PUSH1 0x0 DUP2 PUSH1 0x0 ADD PUSH1 0x8 SWAP1 SLOAD SWAP1 PUSH2 0x100 EXP SWAP1 DIV PUSH1 0xFF AND ISZERO SWAP1 POP PUSH1 0x0 DUP3 PUSH1 0x0 ADD PUSH1 0x0 SWAP1 SLOAD SWAP1 PUSH2 0x100 EXP SWAP1 DIV PUSH8 0xFFFFFFFFFFFFFFFF AND SWAP1 POP PUSH1 0x0 DUP1 DUP3 PUSH8 0xFFFFFFFFFFFFFFFF AND EQ DUP1 ISZERO PUSH2 0x1DC1 JUMPI POP DUP3 JUMPDEST SWAP1 POP PUSH1 0x0 PUSH1 0x1 DUP4 PUSH8 0xFFFFFFFFFFFFFFFF AND EQ DUP1 ISZERO PUSH2 0x1DF6 JUMPI POP PUSH1 0x0 ADDRESS PUSH20 0xFFFFFFFFFFFFFFFFFFFFFFFFFFFFFFFFFFFFFFFF AND EXTCODESIZE EQ JUMPDEST SWAP1 POP DUP2 ISZERO DUP1 ISZERO PUSH2 0x1E04 JUMPI POP DUP1 ISZERO JUMPDEST ISZERO PUSH2 0x1E3B JUMPI PUSH1 0x40 MLOAD PUSH32 0xF92EE8A900000000000000000000000000000000000000000000000000000000 DUP2 MSTORE PUSH1 0x4 ADD PUSH1 0x40 MLOAD DUP1 SWAP2 SUB SWAP1 REVERT JUMPDEST PUSH1 0x1 DUP6 PUSH1 0x0 ADD PUSH1 0x0 PUSH2 0x100 EXP DUP2 SLOAD DUP2 PUSH8 0xFFFFFFFFFFFFFFFF MUL NOT AND SWAP1 DUP4 PUSH8 0xFFFFFFFFFFFFFFFF AND MUL OR SWAP1 SSTORE POP DUP4 ISZERO PUSH2 0x1E8B JUMPI PUSH1 0x1 DUP6 PUSH1 0x0 ADD PUSH1 0x8 PUSH2 0x100 EXP DUP2 SLOAD DUP2 PUSH1 0xFF MUL NOT AND SWAP1 DUP4 ISZERO ISZERO MUL OR SWAP1 SSTORE POP JUMPDEST PUSH2 0x1E9F PUSH8 0xD586DDC5320BD3C0 PUSH1 0xC0 SHL PUSH2 0x35C1 JUMP JUMPDEST PUSH2 0x1EB3 PUSH8 0xBEF71E8DF63E78CE PUSH1 0xC0 SHL PUSH2 0x35C1 JUMP JUMPDEST PUSH2 0x1EC7 PUSH8 0x86FBB5CD424F8833 PUSH1 0xC0 SHL PUSH2 0x35C1 JUMP JUMPDEST PUSH2 0x1EDB PUSH8 0xC574B5CFCA21964F PUSH1 0xC0 SHL PUSH2 0x35C1 JUMP JUMPDEST PUSH2 0x1EE4 CALLER PUSH2 0x3856 JUMP JUMPDEST PUSH2 0x1EF8 PUSH8 0x1943111A78A9ECFE PUSH1 0xC0 SHL PUSH2 0x35C1 JUMP JUMPDEST PUSH2 0x1F0C PUSH8 0xB0F3E046352671E1 PUSH1 0xC0 SHL PUSH2 0x35C1 JUMP JUMPDEST PUSH2 0x1F14 PUSH2 0x386A JUMP JUMPDEST PUSH2 0x1F28 PUSH8 0xC6468107C5A765C0 PUSH1 0xC0 SHL PUSH2 0x35C1 JUMP JUMPDEST PUSH2 0x1F3C PUSH8 0x2E4F3F75E1697BF7 PUSH1 0xC0 SHL PUSH2 0x35C1 JUMP JUMPDEST PUSH2 0x1F44 PUSH2 0x387C JUMP JUMPDEST PUSH2 0x1F58 PUSH8 0x310049DF13591A05 PUSH1 0xC0 SHL PUSH2 0x35C1 JUMP JUMPDEST DUP14 PUSH1 0x0 DUP1 PUSH2 0x100 EXP DUP2 SLOAD DUP2 PUSH20 0xFFFFFFFFFFFFFFFFFFFFFFFFFFFFFFFFFFFFFFFF MUL NOT AND SWAP1 DUP4 PUSH20 0xFFFFFFFFFFFFFFFFFFFFFFFFFFFFFFFFFFFFFFFF AND MUL OR SWAP1 SSTORE POP PUSH2 0x1FAC PUSH8 0x2469593631789242 PUSH1 0xC0 SHL PUSH2 0x35C1 JUMP JUMPDEST DUP13 PUSH1 0x1 DUP2 SWAP1 SSTORE POP PUSH2 0x1FC7 PUSH8 0x5F6D4464F76F6F63 PUSH1 0xC0 SHL PUSH2 0x35C1 JUMP JUMPDEST DUP12 PUSH1 0x4 DUP2 SWAP1 SSTORE POP PUSH2 0x1FE2 PUSH8 0x9C895F1E81BD0073 PUSH1 0xC0 SHL PUSH2 0x35C1 JUMP JUMPDEST DUP11 PUSH1 0x5 DUP2 SWAP1 SSTORE POP PUSH2 0x1FFD PUSH8 0xC7394731E6027B0A PUSH1 0xC0 SHL PUSH2 0x35C1 JUMP JUMPDEST PUSH3 0x278D00 DUP14 PUSH2 0x200C SWAP2 SWAP1 PUSH2 0x43EB JUMP JUMPDEST PUSH1 0x6 DUP2 SWAP1 SSTORE POP PUSH2 0x2026 PUSH8 0xC72B16A4DC080F60 PUSH1 0xC0 SHL PUSH2 0x35C1 JUMP JUMPDEST DUP10 PUSH1 0x7 DUP2 SWAP1 SSTORE POP PUSH2 0x2041 PUSH8 0xB2F537C00ECC6C24 PUSH1 0xC0 SHL PUSH2 0x35C1 JUMP JUMPDEST DUP9 PUSH1 0x8 DUP2 SWAP1 SSTORE POP PUSH2 0x205C PUSH8 0x103AAA84E23982EA PUSH1 0xC0 SHL PUSH2 0x35C1 JUMP JUMPDEST DUP8 PUSH1 0x2 DUP2 SWAP1 SSTORE POP PUSH2 0x2077 PUSH8 0xC833B0463101A7A2 PUSH1 0xC0 SHL PUSH2 0x35C1 JUMP JUMPDEST DUP7 PUSH1 0x3 DUP2 SWAP1 SSTORE POP PUSH2 0x2092 PUSH8 0x9E5A3E616266ECA5 PUSH1 0xC0 SHL PUSH2 0x35C1 JUMP JUMPDEST DUP6 PUSH1 0x9 PUSH1 0x0 PUSH2 0x100 EXP DUP2 SLOAD DUP2 PUSH1 0xFF MUL NOT AND SWAP1 DUP4 ISZERO ISZERO MUL OR SWAP1 SSTORE POP DUP4 ISZERO PUSH2 0x2108 JUMPI PUSH1 0x0 DUP6 PUSH1 0x0 ADD PUSH1 0x8 PUSH2 0x100 EXP DUP2 SLOAD DUP2 PUSH1 0xFF MUL NOT AND SWAP1 DUP4 ISZERO ISZERO MUL OR SWAP1 SSTORE POP PUSH32 0xC7F505B2F371AE2175EE4913F4499E1F2633A7B5936321EED1CDAEB6115181D2 PUSH1 0x1 PUSH1 0x40 MLOAD PUSH2 0x20FF SWAP2 SWAP1 PUSH2 0x4694 JUMP JUMPDEST PUSH1 0x40 MLOAD DUP1 SWAP2 SUB SWAP1 LOG1 JUMPDEST POP POP POP POP POP POP POP POP POP POP POP POP POP POP JUMP JUMPDEST PUSH1 0x9 PUSH1 0x0 SWAP1 SLOAD SWAP1 PUSH2 0x100 EXP SWAP1 DIV PUSH1 0xFF AND DUP2 JUMP JUMPDEST PUSH1 0xB PUSH1 0x20 MSTORE DUP1 PUSH1 0x0 MSTORE PUSH1 0x40 PUSH1 0x0 KECCAK256 PUSH1 0x0 SWAP2 POP SWAP1 POP SLOAD DUP2 JUMP JUMPDEST PUSH2 0x2157 PUSH8 0x4EE87445B6DB9FF6 PUSH1 0xC0 SHL PUSH2 0x35C1 JUMP JUMPDEST PUSH2 0x215F PUSH2 0x35C4 JUMP JUMPDEST PUSH2 0x2173 PUSH8 0xEABFFD321DA385A4 PUSH1 0xC0 SHL PUSH2 0x35C1 JUMP JUMPDEST PUSH2 0x2187 PUSH8 0xC72D188FE833B3C3 PUSH1 0xC0 SHL PUSH2 0x35C1 JUMP JUMPDEST PUSH2 0x219B PUSH8 0x26ECBB4E27606BF8 PUSH1 0xC0 SHL PUSH2 0x35C1 JUMP JUMPDEST DUP1 PUSH1 0x1 DUP2 SWAP1 SSTORE POP PUSH2 0x21B6 PUSH8 0x39985F0E2A42C797 PUSH1 0xC0 SHL PUSH2 0x35C1 JUMP JUMPDEST PUSH3 0x278D00 DUP2 PUSH2 0x21C5 SWAP2 SWAP1 PUSH2 0x43EB JUMP JUMPDEST PUSH1 0x6 DUP2 SWAP1 SSTORE POP POP JUMP JUMPDEST PUSH1 0x0 DUP1 PUSH2 0x21D9 PUSH2 0x388E JUMP JUMPDEST SWAP1 POP DUP1 PUSH1 0x0 ADD PUSH1 0x0 SWAP1 SLOAD SWAP1 PUSH2 0x100 EXP SWAP1 DIV PUSH1 0xFF AND SWAP2 POP POP SWAP1 JUMP JUMPDEST PUSH1 0x0 PUSH2 0x2209 PUSH8 0x4B9594ADC33BF812 PUSH1 0xC0 SHL PUSH2 0x35C1 JUMP JUMPDEST PUSH2 0x221D PUSH8 0x902B1752B5DF8A05 PUSH1 0xC0 SHL PUSH2 0x35C1 JUMP JUMPDEST PUSH2 0x2231 PUSH8 0xCD69B84D664B1D2F PUSH1 0xC0 SHL PUSH2 0x35C1 JUMP JUMPDEST PUSH1 0xE SLOAD SWAP1 POP SWAP1 JUMP JUMPDEST PUSH1 0x6 SLOAD DUP2 JUMP JUMPDEST PUSH2 0x2247 PUSH2 0x35C4 JUMP JUMPDEST PUSH2 0x2251 PUSH1 0x0 PUSH2 0x38B6 JUMP JUMPDEST JUMP JUMPDEST PUSH1 0x0 DUP1 SLOAD SWAP1 PUSH2 0x100 EXP SWAP1 DIV PUSH20 0xFFFFFFFFFFFFFFFFFFFFFFFFFFFFFFFFFFFFFFFF AND DUP2 JUMP JUMPDEST PUSH1 0x0 PUSH2 0x228D PUSH8 0xABA8FE301213E387 PUSH1 0xC0 SHL PUSH2 0x35C1 JUMP JUMPDEST PUSH2 0x22A1 PUSH8 0xA107CE563F352C55 PUSH1 0xC0 SHL PUSH2 0x35C1 JUMP JUMPDEST PUSH2 0x22B5 PUSH8 0x760A7EC7ED6F202E PUSH1 0xC0 SHL PUSH2 0x35C1 JUMP JUMPDEST DUP2 DUP6 LT PUSH2 0x2301 JUMPI PUSH2 0x22D0 PUSH8 0x2E378834007E3BB6 PUSH1 0xC0 SHL PUSH2 0x35C1 JUMP JUMPDEST PUSH2 0x22E4 PUSH8 0xEC2C72DD13A14AFF PUSH1 0xC0 SHL PUSH2 0x35C1 JUMP JUMPDEST PUSH2 0x22F8 PUSH8 0x5CAED65DCAB4A6F5 PUSH1 0xC0 SHL PUSH2 0x35C1 JUMP JUMPDEST PUSH1 0x0 SWAP1 POP PUSH2 0x2390 JUMP JUMPDEST PUSH2 0x2315 PUSH8 0xD32913ACB01ADA6B PUSH1 0xC0 SHL PUSH2 0x35C1 JUMP JUMPDEST PUSH2 0x2329 PUSH8 0x868A76F7A37AE699 PUSH1 0xC0 SHL PUSH2 0x35C1 JUMP JUMPDEST PUSH2 0x233D PUSH8 0x7F746BF30370C809 PUSH1 0xC0 SHL PUSH2 0x35C1 JUMP JUMPDEST PUSH1 0x0 DUP3 DUP7 DUP7 PUSH2 0x234C SWAP2 SWAP1 PUSH2 0x437A JUMP JUMPDEST PUSH2 0x2356 SWAP2 SWAP1 PUSH2 0x43EB JUMP JUMPDEST DUP5 PUSH2 0x2361 SWAP2 SWAP1 PUSH2 0x44CD JUMP JUMPDEST SWAP1 POP PUSH2 0x2377 PUSH8 0x910F01957A6B2D36 PUSH1 0xC0 SHL PUSH2 0x35C1 JUMP JUMPDEST PUSH2 0x238B PUSH8 0x89774E0BDA482BAD PUSH1 0xC0 SHL PUSH2 0x35C1 JUMP JUMPDEST DUP1 SWAP2 POP POP JUMPDEST SWAP5 SWAP4 POP POP POP POP JUMP JUMPDEST PUSH1 0x4 SLOAD DUP2 JUMP JUMPDEST PUSH1 0x1 SLOAD DUP2 JUMP JUMPDEST PUSH1 0x0 PUSH2 0x23BA PUSH8 0x3D0A2D5DEF5284D2 PUSH1 0xC0 SHL PUSH2 0x35C1 JUMP JUMPDEST PUSH2 0x23CE PUSH8 0x954E657BE076DF69 PUSH1 0xC0 SHL PUSH2 0x35C1 JUMP JUMPDEST PUSH2 0x23E2 PUSH8 0xA722DCEE375DB32B PUSH1 0xC0 SHL PUSH2 0x35C1 JUMP JUMPDEST PUSH1 0xD SLOAD SWAP1 POP SWAP1 JUMP JUMPDEST PUSH2 0x23FE PUSH8 0xE46D0163383CA27F PUSH1 0xC0 SHL PUSH2 0x35C1 JUMP JUMPDEST PUSH2 0x2406 PUSH2 0x35C4 JUMP JUMPDEST PUSH2 0x241A PUSH8 0x6E69378B95C82A25 PUSH1 0xC0 SHL PUSH2 0x35C1 JUMP JUMPDEST PUSH2 0x242E PUSH8 0x19640E71B3CB5CA4 PUSH1 0xC0 SHL PUSH2 0x35C1 JUMP JUMPDEST PUSH2 0x2442 PUSH8 0xF7141A8DD405FD75 PUSH1 0xC0 SHL PUSH2 0x35C1 JUMP JUMPDEST PUSH2 0x2456 PUSH8 0xC2C2D7A6965AC21E PUSH1 0xC0 SHL PUSH2 0x35C1 JUMP JUMPDEST PUSH2 0x245E PUSH2 0x398D JUMP JUMPDEST JUMP JUMPDEST PUSH2 0x2474 PUSH8 0x6FF13027D6CD6633 PUSH1 0xC0 SHL PUSH2 0x35C1 JUMP JUMPDEST PUSH2 0x247C PUSH2 0x35C4 JUMP JUMPDEST PUSH2 0x2490 PUSH8 0xF2630127A8E78DF4 PUSH1 0xC0 SHL PUSH2 0x35C1 JUMP JUMPDEST PUSH2 0x24A4 PUSH8 0xD3F7EA55533D1914 PUSH1 0xC0 SHL PUSH2 0x35C1 JUMP JUMPDEST PUSH2 0x24B8 PUSH8 0x4E02617731E123E8 PUSH1 0xC0 SHL PUSH2 0x35C1 JUMP JUMPDEST DUP1 PUSH1 0x5 DUP2 SWAP1 SSTORE POP POP JUMP JUMPDEST PUSH2 0x24D6 PUSH8 0x15259A8E4DCC66C2 PUSH1 0xC0 SHL PUSH2 0x35C1 JUMP JUMPDEST PUSH2 0x24DE PUSH2 0x35C4 JUMP JUMPDEST PUSH2 0x24F2 PUSH8 0x7E53566FC6120746 PUSH1 0xC0 SHL PUSH2 0x35C1 JUMP JUMPDEST PUSH2 0x2506 PUSH8 0x30290148D17F8C0B PUSH1 0xC0 SHL PUSH2 0x35C1 JUMP JUMPDEST PUSH2 0x251A PUSH8 0xD5C3E7554DE8B336 PUSH1 0xC0 SHL PUSH2 0x35C1 JUMP JUMPDEST PUSH1 0x0 PUSH1 0xC PUSH1 0x0 DUP4 PUSH20 0xFFFFFFFFFFFFFFFFFFFFFFFFFFFFFFFFFFFFFFFF AND PUSH20 0xFFFFFFFFFFFFFFFFFFFFFFFFFFFFFFFFFFFFFFFF AND DUP2 MSTORE PUSH1 0x20 ADD SWAP1 DUP2 MSTORE PUSH1 0x20 ADD PUSH1 0x0 KECCAK256 PUSH1 0x0 PUSH2 0x100 EXP DUP2 SLOAD DUP2 PUSH1 0xFF MUL NOT AND SWAP1 DUP4 ISZERO ISZERO MUL OR SWAP1 SSTORE POP PUSH2 0x2586 PUSH8 0x98FDB1D4BE41B3C5 PUSH1 0xC0 SHL PUSH2 0x35C1 JUMP JUMPDEST PUSH2 0x259A PUSH8 0x371E6D56B8326981 PUSH1 0xC0 SHL PUSH2 0x35C1 JUMP JUMPDEST DUP1 PUSH20 0xFFFFFFFFFFFFFFFFFFFFFFFFFFFFFFFFFFFFFFFF AND PUSH32 0x8DAAF060C3306C38E068A75C054BF96ECD85A3DB1252712C4D93632744C42E0D PUSH1 0x0 PUSH1 0x40 MLOAD PUSH2 0x25E1 SWAP2 SWAP1 PUSH2 0x3FB7 JUMP JUMPDEST PUSH1 0x40 MLOAD DUP1 SWAP2 SUB SWAP1 LOG2 POP JUMP JUMPDEST PUSH1 0x0 DUP1 PUSH2 0x25F7 PUSH2 0x39FF JUMP JUMPDEST SWAP1 POP DUP1 PUSH1 0x0 ADD PUSH1 0x0 SWAP1 SLOAD SWAP1 PUSH2 0x100 EXP SWAP1 DIV PUSH20 0xFFFFFFFFFFFFFFFFFFFFFFFFFFFFFFFFFFFFFFFF AND SWAP2 POP POP SWAP1 JUMP JUMPDEST PUSH2 0x2638 PUSH8 0x7C0378EB520F199F PUSH1 0xC0 SHL PUSH2 0x35C1 JUMP JUMPDEST PUSH2 0x2640 PUSH2 0x36CD JUMP JUMPDEST PUSH2 0x2654 PUSH8 0x52F4268CF478A738 PUSH1 0xC0 SHL PUSH2 0x35C1 JUMP JUMPDEST PUSH2 0x2668 PUSH8 0xF94B7C09527F53AF PUSH1 0xC0 SHL PUSH2 0x35C1 JUMP JUMPDEST PUSH2 0x2670 PUSH2 0x3A27 JUMP JUMPDEST PUSH2 0x2684 PUSH8 0xEC7A1B627FF906AC PUSH1 0xC0 SHL PUSH2 0x35C1 JUMP JUMPDEST PUSH2 0x2698 PUSH8 0x9F9779B2BECA35E4 PUSH1 0xC0 SHL PUSH2 0x35C1 JUMP JUMPDEST PUSH2 0x26AC PUSH8 0xC6BD34F749C43799 PUSH1 0xC0 SHL PUSH2 0x35C1 JUMP JUMPDEST PUSH2 0x26C0 PUSH8 0x28AEED15A5447946 PUSH1 0xC0 SHL PUSH2 0x35C1 JUMP JUMPDEST PUSH2 0x26D4 PUSH8 0x1726873B5960C1F2 PUSH1 0xC0 SHL PUSH2 0x35C1 JUMP JUMPDEST PUSH2 0x26E8 PUSH8 0x9CDC92D18B900875 PUSH1 0xC0 SHL PUSH2 0x35C1 JUMP JUMPDEST PUSH1 0x9 PUSH1 0x0 SWAP1 SLOAD SWAP1 PUSH2 0x100 EXP SWAP1 DIV PUSH1 0xFF AND ISZERO DUP1 ISZERO PUSH2 0x2715 JUMPI POP PUSH2 0x2714 PUSH8 0x740F44E75C7FB9B5 PUSH1 0xC0 SHL PUSH2 0x3A68 JUMP JUMPDEST JUMPDEST DUP1 PUSH2 0x2785 JUMPI POP PUSH1 0xC PUSH1 0x0 CALLER PUSH20 0xFFFFFFFFFFFFFFFFFFFFFFFFFFFFFFFFFFFFFFFF AND PUSH20 0xFFFFFFFFFFFFFFFFFFFFFFFFFFFFFFFFFFFFFFFF AND DUP2 MSTORE PUSH1 0x20 ADD SWAP1 DUP2 MSTORE PUSH1 0x20 ADD PUSH1 0x0 KECCAK256 PUSH1 0x0 SWAP1 SLOAD SWAP1 PUSH2 0x100 EXP SWAP1 DIV PUSH1 0xFF AND DUP1 ISZERO PUSH2 0x2784 JUMPI POP PUSH2 0x2783 PUSH8 0xFC86F28F9512198E PUSH1 0xC0 SHL PUSH2 0x3A68 JUMP JUMPDEST JUMPDEST JUMPDEST PUSH2 0x27C4 JUMPI PUSH1 0x40 MLOAD PUSH32 0x8C379A000000000000000000000000000000000000000000000000000000000 DUP2 MSTORE PUSH1 0x4 ADD PUSH2 0x27BB SWAP1 PUSH2 0x46FB JUMP JUMPDEST PUSH1 0x40 MLOAD DUP1 SWAP2 SUB SWAP1 REVERT JUMPDEST PUSH2 0x27D8 PUSH8 0xEE922EF1EAEE28D2 PUSH1 0xC0 SHL PUSH2 0x35C1 JUMP JUMPDEST PUSH2 0x27EC PUSH8 0x94852AB7B49D4B3 PUSH1 0xC0 SHL PUSH2 0x35C1 JUMP JUMPDEST PUSH2 0x2800 PUSH8 0x1AE9AF5F7F8EB34C PUSH1 0xC0 SHL PUSH2 0x35C1 JUMP JUMPDEST PUSH2 0x2814 PUSH8 0x37E59A0FC2DC23EA PUSH1 0xC0 SHL PUSH2 0x35C1 JUMP JUMPDEST PUSH2 0x2828 PUSH8 0x4E0AB26E31A5198D PUSH1 0xC0 SHL PUSH2 0x35C1 JUMP JUMPDEST PUSH2 0x283C PUSH8 0x2CCC81D7BFF6525 PUSH1 0xC0 SHL PUSH2 0x35C1 JUMP JUMPDEST PUSH2 0x2850 PUSH8 0xEA6F48F691918862 PUSH1 0xC0 SHL PUSH2 0x35C1 JUMP JUMPDEST PUSH1 0x0 DUP2 GT PUSH2 0x2893 JUMPI PUSH1 0x40 MLOAD PUSH32 0x8C379A000000000000000000000000000000000000000000000000000000000 DUP2 MSTORE PUSH1 0x4 ADD PUSH2 0x288A SWAP1 PUSH2 0x4767 JUMP JUMPDEST PUSH1 0x40 MLOAD DUP1 SWAP2 SUB SWAP1 REVERT JUMPDEST PUSH2 0x28A7 PUSH8 0x99FA93E541E7CE1B PUSH1 0xC0 SHL PUSH2 0x35C1 JUMP JUMPDEST PUSH2 0x28BB PUSH8 0x576DE98D70F008E3 PUSH1 0xC0 SHL PUSH2 0x35C1 JUMP JUMPDEST PUSH2 0x28CF PUSH8 0xA9F5AD2D15CE5A49 PUSH1 0xC0 SHL PUSH2 0x35C1 JUMP JUMPDEST PUSH1 0x0 PUSH1 0x2 SLOAD GT ISZERO PUSH2 0x2988 JUMPI PUSH2 0x28EE PUSH8 0x9FD76F677E145242 PUSH1 0xC0 SHL PUSH2 0x35C1 JUMP JUMPDEST PUSH2 0x2902 PUSH8 0x7968AB95F66A2240 PUSH1 0xC0 SHL PUSH2 0x35C1 JUMP JUMPDEST PUSH2 0x2916 PUSH8 0x98589FA553F91E83 PUSH1 0xC0 SHL PUSH2 0x35C1 JUMP JUMPDEST PUSH2 0x292A PUSH8 0xB5A66796D1E4BAEF PUSH1 0xC0 SHL PUSH2 0x35C1 JUMP JUMPDEST PUSH1 0x2 SLOAD DUP2 LT ISZERO PUSH2 0x296F JUMPI PUSH1 0x40 MLOAD PUSH32 0x8C379A000000000000000000000000000000000000000000000000000000000 DUP2 MSTORE PUSH1 0x4 ADD PUSH2 0x2966 SWAP1 PUSH2 0x47D3 JUMP JUMPDEST PUSH1 0x40 MLOAD DUP1 SWAP2 SUB SWAP1 REVERT JUMPDEST PUSH2 0x2983 PUSH8 0xE31E5484699EEDB9 PUSH1 0xC0 SHL PUSH2 0x35C1 JUMP JUMPDEST PUSH2 0x299D JUMP JUMPDEST PUSH2 0x299C PUSH8 0x4EFF7E4F8C804E04 PUSH1 0xC0 SHL PUSH2 0x35C1 JUMP JUMPDEST JUMPDEST PUSH2 0x29B1 PUSH8 0x2CE9EC3CEBFCD77A PUSH1 0xC0 SHL PUSH2 0x35C1 JUMP JUMPDEST PUSH2 0x29C5 PUSH8 0x56690E7EC4EDABF PUSH1 0xC0 SHL PUSH2 0x35C1 JUMP JUMPDEST PUSH1 0x0 PUSH1 0x3 SLOAD GT ISZERO PUSH2 0x2A91 JUMPI PUSH2 0x29E4 PUSH8 0xD6A47411D923C184 PUSH1 0xC0 SHL PUSH2 0x35C1 JUMP JUMPDEST PUSH2 0x29F8 PUSH8 0xD4380824ECA692C6 PUSH1 0xC0 SHL PUSH2 0x35C1 JUMP JUMPDEST PUSH2 0x2A0C PUSH8 0xD168A2B14EC1DDF7 PUSH1 0xC0 SHL PUSH2 0x35C1 JUMP JUMPDEST PUSH2 0x2A20 PUSH8 0xE044B1E6A3C7BBA PUSH1 0xC0 SHL PUSH2 0x35C1 JUMP JUMPDEST PUSH1 0x3 SLOAD PUSH2 0x2A2C CALLER PUSH2 0x1AEF JUMP JUMPDEST DUP3 PUSH2 0x2A37 SWAP2 SWAP1 PUSH2 0x4499 JUMP JUMPDEST GT ISZERO PUSH2 0x2A78 JUMPI PUSH1 0x40 MLOAD PUSH32 0x8C379A000000000000000000000000000000000000000000000000000000000 DUP2 MSTORE PUSH1 0x4 ADD PUSH2 0x2A6F SWAP1 PUSH2 0x483F JUMP JUMPDEST PUSH1 0x40 MLOAD DUP1 SWAP2 SUB SWAP1 REVERT JUMPDEST PUSH2 0x2A8C PUSH8 0x3EB104D3DA1761D4 PUSH1 0xC0 SHL PUSH2 0x35C1 JUMP JUMPDEST PUSH2 0x2AA6 JUMP JUMPDEST PUSH2 0x2AA5 PUSH8 0xF24AC40D76DAD0FE PUSH1 0xC0 SHL PUSH2 0x35C1 JUMP JUMPDEST JUMPDEST PUSH2 0x2ABA PUSH8 0x3D3B1BD09037572D PUSH1 0xC0 SHL PUSH2 0x35C1 JUMP JUMPDEST PUSH2 0x2ACE PUSH8 0xCE63CA2BBE379B9F PUSH1 0xC0 SHL PUSH2 0x35C1 JUMP JUMPDEST PUSH1 0x0 PUSH1 0xB PUSH1 0x0 CALLER PUSH20 0xFFFFFFFFFFFFFFFFFFFFFFFFFFFFFFFFFFFFFFFF AND PUSH20 0xFFFFFFFFFFFFFFFFFFFFFFFFFFFFFFFFFFFFFFFF AND DUP2 MSTORE PUSH1 0x20 ADD SWAP1 DUP2 MSTORE PUSH1 0x20 ADD PUSH1 0x0 KECCAK256 SLOAD SWAP1 POP PUSH2 0x2B26 PUSH8 0x3D9B3A944656B87F PUSH1 0xC0 SHL PUSH2 0x35C1 JUMP JUMPDEST PUSH2 0x2B3A PUSH8 0x93053CF8716139F6 PUSH1 0xC0 SHL PUSH2 0x35C1 JUMP JUMPDEST PUSH1 0x0 PUSH1 0x40 MLOAD DUP1 PUSH2 0x100 ADD PUSH1 0x40 MSTORE DUP1 DUP5 DUP2 MSTORE PUSH1 0x20 ADD TIMESTAMP DUP2 MSTORE PUSH1 0x20 ADD PUSH1 0x0 DUP2 MSTORE PUSH1 0x20 ADD PUSH1 0x0 ISZERO ISZERO DUP2 MSTORE PUSH1 0x20 ADD PUSH1 0x4 SLOAD DUP2 MSTORE PUSH1 0x20 ADD PUSH1 0x8 SLOAD DUP2 MSTORE PUSH1 0x20 ADD PUSH1 0x7 SLOAD DUP2 MSTORE PUSH1 0x20 ADD PUSH1 0x1 SLOAD DUP2 MSTORE POP SWAP1 POP PUSH2 0x2B98 PUSH8 0x99ECAB82B8A3EB8F PUSH1 0xC0 SHL PUSH2 0x35C1 JUMP JUMPDEST DUP1 PUSH1 0xA PUSH1 0x0 CALLER PUSH20 0xFFFFFFFFFFFFFFFFFFFFFFFFFFFFFFFFFFFFFFFF AND PUSH20 0xFFFFFFFFFFFFFFFFFFFFFFFFFFFFFFFFFFFFFFFF AND DUP2 MSTORE PUSH1 0x20 ADD SWAP1 DUP2 MSTORE PUSH1 0x20 ADD PUSH1 0x0 KECCAK256 PUSH1 0x0 DUP5 DUP2 MSTORE PUSH1 0x20 ADD SWAP1 DUP2 MSTORE PUSH1 0x20 ADD PUSH1 0x0 KECCAK256 PUSH1 0x0 DUP3 ADD MLOAD DUP2 PUSH1 0x0 ADD SSTORE PUSH1 0x20 DUP3 ADD MLOAD DUP2 PUSH1 0x1 ADD SSTORE PUSH1 0x40 DUP3 ADD MLOAD DUP2 PUSH1 0x2 ADD SSTORE PUSH1 0x60 DUP3 ADD MLOAD DUP2 PUSH1 0x3 ADD PUSH1 0x0 PUSH2 0x100 EXP DUP2 SLOAD DUP2 PUSH1 0xFF MUL NOT AND SWAP1 DUP4 ISZERO ISZERO MUL OR SWAP1 SSTORE POP PUSH1 0x80 DUP3 ADD MLOAD DUP2 PUSH1 0x4 ADD SSTORE PUSH1 0xA0 DUP3 ADD MLOAD DUP2 PUSH1 0x5 ADD SSTORE PUSH1 0xC0 DUP3 ADD MLOAD DUP2 PUSH1 0x6 ADD SSTORE PUSH1 0xE0 DUP3 ADD MLOAD DUP2 PUSH1 0x7 ADD SSTORE SWAP1 POP POP PUSH2 0x2C66 PUSH8 0xBDA9F1EF13DD06B2 PUSH1 0xC0 SHL PUSH2 0x35C1 JUMP JUMPDEST PUSH1 0xB PUSH1 0x0 CALLER PUSH20 0xFFFFFFFFFFFFFFFFFFFFFFFFFFFFFFFFFFFFFFFF AND PUSH20 0xFFFFFFFFFFFFFFFFFFFFFFFFFFFFFFFFFFFFFFFF AND DUP2 MSTORE PUSH1 0x20 ADD SWAP1 DUP2 MSTORE PUSH1 0x20 ADD PUSH1 0x0 KECCAK256 PUSH1 0x0 DUP2 SLOAD DUP1 SWAP3 SWAP2 SWAP1 PUSH2 0x2CB6 SWAP1 PUSH2 0x485F JUMP JUMPDEST SWAP2 SWAP1 POP SSTORE POP PUSH2 0x2CCF PUSH8 0xEFE20B774A274020 PUSH1 0xC0 SHL PUSH2 0x35C1 JUMP JUMPDEST DUP3 PUSH1 0xD PUSH1 0x0 DUP3 DUP3 SLOAD PUSH2 0x2CE1 SWAP2 SWAP1 PUSH2 0x4499 JUMP JUMPDEST SWAP3 POP POP DUP2 SWAP1 SSTORE POP PUSH2 0x2CFC PUSH8 0x7F98F3B26C654297 PUSH1 0xC0 SHL PUSH2 0x35C1 JUMP JUMPDEST PUSH2 0x2D10 PUSH8 0x308534222C05C0FA PUSH1 0xC0 SHL PUSH2 0x35C1 JUMP JUMPDEST PUSH1 0x0 PUSH8 0xDE0B6B3A7640000 PUSH2 0x2D29 PUSH1 0x1 SLOAD PUSH1 0x4 SLOAD PUSH2 0x779 JUMP JUMPDEST DUP6 PUSH2 0x2D34 SWAP2 SWAP1 PUSH2 0x437A JUMP JUMPDEST PUSH2 0x2D3E SWAP2 SWAP1 PUSH2 0x43EB JUMP JUMPDEST SWAP1 POP PUSH2 0x2D54 PUSH8 0xC2972967CA56B277 PUSH1 0xC0 SHL PUSH2 0x35C1 JUMP JUMPDEST DUP1 PUSH1 0xF PUSH1 0x0 DUP3 DUP3 SLOAD PUSH2 0x2D66 SWAP2 SWAP1 PUSH2 0x4499 JUMP JUMPDEST SWAP3 POP POP DUP2 SWAP1 SSTORE POP PUSH2 0x2D81 PUSH8 0x7FF43A26C61A78ED PUSH1 0xC0 SHL PUSH2 0x35C1 JUMP JUMPDEST PUSH2 0x2D95 PUSH8 0x9B72755F6ED789EB PUSH1 0xC0 SHL PUSH2 0x35C1 JUMP JUMPDEST PUSH2 0x2DE2 CALLER ADDRESS DUP7 PUSH1 0x0 DUP1 SLOAD SWAP1 PUSH2 0x100 EXP SWAP1 DIV PUSH20 0xFFFFFFFFFFFFFFFFFFFFFFFFFFFFFFFFFFFFFFFF AND PUSH20 0xFFFFFFFFFFFFFFFFFFFFFFFFFFFFFFFFFFFFFFFF AND PUSH2 0x364B SWAP1 SWAP4 SWAP3 SWAP2 SWAP1 PUSH4 0xFFFFFFFF AND JUMP JUMPDEST PUSH2 0x2DF6 PUSH8 0x7BB2A500532480F5 PUSH1 0xC0 SHL PUSH2 0x35C1 JUMP JUMPDEST PUSH2 0x2E0A PUSH8 0xDDC49015A0829A98 PUSH1 0xC0 SHL PUSH2 0x35C1 JUMP JUMPDEST CALLER PUSH20 0xFFFFFFFFFFFFFFFFFFFFFFFFFFFFFFFFFFFFFFFF AND PUSH32 0x9E71BC8EEA02A63969F509818F2DAFB9254532904319F9DBDA79B67BD34A5F3D DUP6 PUSH1 0x40 MLOAD PUSH2 0x2E50 SWAP2 SWAP1 PUSH2 0x3EF6 JUMP JUMPDEST PUSH1 0x40 MLOAD DUP1 SWAP2 SUB SWAP1 LOG2 POP POP POP PUSH2 0x2E63 PUSH2 0x37A3 JUMP JUMPDEST POP JUMP JUMPDEST PUSH2 0x2E7A PUSH8 0x6E61CD6F579FC259 PUSH1 0xC0 SHL PUSH2 0x35C1 JUMP JUMPDEST PUSH2 0x2E82 PUSH2 0x35C4 JUMP JUMPDEST PUSH2 0x2E96 PUSH8 0x82138A3C331F4D60 PUSH1 0xC0 SHL PUSH2 0x35C1 JUMP JUMPDEST PUSH2 0x2EAA PUSH8 0xC6C49D372D30D9E0 PUSH1 0xC0 SHL PUSH2 0x35C1 JUMP JUMPDEST PUSH2 0x2EBE PUSH8 0x3A7CB5C767023A9A PUSH1 0xC0 SHL PUSH2 0x35C1 JUMP JUMPDEST DUP1 PUSH1 0x8 DUP2 SWAP1 SSTORE POP POP JUMP JUMPDEST PUSH1 0xA PUSH1 0x20 MSTORE DUP2 PUSH1 0x0 MSTORE PUSH1 0x40 PUSH1 0x0 KECCAK256 PUSH1 0x20 MSTORE DUP1 PUSH1 0x0 MSTORE PUSH1 0x40 PUSH1 0x0 KECCAK256 PUSH1 0x0 SWAP2 POP SWAP2 POP POP DUP1 PUSH1 0x0 ADD SLOAD SWAP1 DUP1 PUSH1 0x1 ADD SLOAD SWAP1 DUP1 PUSH1 0x2 ADD SLOAD SWAP1 DUP1 PUSH1 0x3 ADD PUSH1 0x0 SWAP1 SLOAD SWAP1 PUSH2 0x100 EXP SWAP1 DIV PUSH1 0xFF AND SWAP1 DUP1 PUSH1 0x4 ADD SLOAD SWAP1 DUP1 PUSH1 0x5 ADD SLOAD SWAP1 DUP1 PUSH1 0x6 ADD SLOAD SWAP1 DUP1 PUSH1 0x7 ADD SLOAD SWAP1 POP DUP9 JUMP JUMPDEST PUSH2 0x2F3E PUSH8 0x7DBF1D0E57E16254 PUSH1 0xC0 SHL PUSH2 0x35C1 JUMP JUMPDEST PUSH2 0x2F46 PUSH2 0x35C4 JUMP JUMPDEST PUSH2 0x2F5A PUSH8 0x69EEDE00EC2B1B62 PUSH1 0xC0 SHL PUSH2 0x35C1 JUMP JUMPDEST PUSH2 0x2F6E PUSH8 0xE87665A06306E8FA PUSH1 0xC0 SHL PUSH2 0x35C1 JUMP JUMPDEST PUSH2 0x2F82 PUSH8 0x7041CE65391F63EC PUSH1 0xC0 SHL PUSH2 0x35C1 JUMP JUMPDEST DUP1 PUSH1 0x2 DUP2 SWAP1 SSTORE POP POP JUMP JUMPDEST PUSH2 0x2FA0 PUSH8 0xFDD8E19882298C8A PUSH1 0xC0 SHL PUSH2 0x35C1 JUMP JUMPDEST PUSH2 0x2FA8 PUSH2 0x35C4 JUMP JUMPDEST PUSH2 0x2FBC PUSH8 0x26034FF130510D06 PUSH1 0xC0 SHL PUSH2 0x35C1 JUMP JUMPDEST PUSH2 0x2FD0 PUSH8 0x6DEACBFF592A8A89 PUSH1 0xC0 SHL PUSH2 0x35C1 JUMP JUMPDEST PUSH2 0x2FE4 PUSH8 0x808B078107652CB4 PUSH1 0xC0 SHL PUSH2 0x35C1 JUMP JUMPDEST PUSH2 0x2FF8 PUSH8 0x53DFFF9434A9F75D PUSH1 0xC0 SHL PUSH2 0x35C1 JUMP JUMPDEST PUSH2 0x300C PUSH8 0x4209EC8FF5E1744A PUSH1 0xC0 SHL PUSH2 0x35C1 JUMP JUMPDEST PUSH1 0x0 DUP2 GT PUSH2 0x304F JUMPI PUSH1 0x40 MLOAD PUSH32 0x8C379A000000000000000000000000000000000000000000000000000000000 DUP2 MSTORE PUSH1 0x4 ADD PUSH2 0x3046 SWAP1 PUSH2 0x48F3 JUMP JUMPDEST PUSH1 0x40 MLOAD DUP1 SWAP2 SUB SWAP1 REVERT JUMPDEST PUSH2 0x3063 PUSH8 0x2891C9B5A9270C41 PUSH1 0xC0 SHL PUSH2 0x35C1 JUMP JUMPDEST PUSH2 0x3077 PUSH8 0x852960116007B77F PUSH1 0xC0 SHL PUSH2 0x35C1 JUMP JUMPDEST PUSH2 0x308B PUSH8 0xA78893D48AA2BAE1 PUSH1 0xC0 SHL PUSH2 0x35C1 JUMP JUMPDEST PUSH2 0x309F PUSH8 0xDDB75427835015A5 PUSH1 0xC0 SHL PUSH2 0x35C1 JUMP JUMPDEST DUP1 PUSH1 0xF SLOAD PUSH1 0xE SLOAD PUSH2 0x30B0 SWAP2 SWAP1 PUSH2 0x44CD JUMP JUMPDEST LT ISZERO PUSH2 0x30F1 JUMPI PUSH1 0x40 MLOAD PUSH32 0x8C379A000000000000000000000000000000000000000000000000000000000 DUP2 MSTORE PUSH1 0x4 ADD PUSH2 0x30E8 SWAP1 PUSH2 0x49AB JUMP JUMPDEST PUSH1 0x40 MLOAD DUP1 SWAP2 SUB SWAP1 REVERT JUMPDEST PUSH2 0x3105 PUSH8 0xFB8A50ECF42BA1C2 PUSH1 0xC0 SHL PUSH2 0x35C1 JUMP JUMPDEST PUSH2 0x3119 PUSH8 0xB4063789C1B7D9CB PUSH1 0xC0 SHL PUSH2 0x35C1 JUMP JUMPDEST DUP1 PUSH1 0xE PUSH1 0x0 DUP3 DUP3 SLOAD PUSH2 0x312B SWAP2 SWAP1 PUSH2 0x44CD JUMP JUMPDEST SWAP3 POP POP DUP2 SWAP1 SSTORE POP PUSH2 0x3146 PUSH8 0x4DE7CC99EEA178DB PUSH1 0xC0 SHL PUSH2 0x35C1 JUMP JUMPDEST PUSH2 0x315A PUSH8 0x815321FE4BC285B8 PUSH1 0xC0 SHL PUSH2 0x35C1 JUMP JUMPDEST PUSH2 0x31A5 CALLER DUP3 PUSH1 0x0 DUP1 SLOAD SWAP1 PUSH2 0x100 EXP SWAP1 DIV PUSH20 0xFFFFFFFFFFFFFFFFFFFFFFFFFFFFFFFFFFFFFFFF AND PUSH20 0xFFFFFFFFFFFFFFFFFFFFFFFFFFFFFFFFFFFFFFFF AND PUSH2 0x3724 SWAP1 SWAP3 SWAP2 SWAP1 PUSH4 0xFFFFFFFF AND JUMP JUMPDEST PUSH2 0x31B9 PUSH8 0x1153B7D5FE9EDD4C PUSH1 0xC0 SHL PUSH2 0x35C1 JUMP JUMPDEST PUSH2 0x31CD PUSH8 0xBBBA4D2BC7D3C862 PUSH1 0xC0 SHL PUSH2 0x35C1 JUMP JUMPDEST CALLER PUSH20 0xFFFFFFFFFFFFFFFFFFFFFFFFFFFFFFFFFFFFFFFF AND PUSH32 0x884EDAD9CE6FA2440D8A54CC123490EB96D2768479D49FF9C7366125A9424364 DUP3 PUSH1 0x40 MLOAD PUSH2 0x3213 SWAP2 SWAP1 PUSH2 0x3EF6 JUMP JUMPDEST PUSH1 0x40 MLOAD DUP1 SWAP2 SUB SWAP1 LOG2 POP JUMP JUMPDEST PUSH2 0x3232 PUSH8 0x3E4084C08EC7A3A2 PUSH1 0xC0 SHL PUSH2 0x35C1 JUMP JUMPDEST PUSH2 0x323A PUSH2 0x35C4 JUMP JUMPDEST PUSH2 0x324E PUSH8 0x12EE8F80C478EBE7 PUSH1 0xC0 SHL PUSH2 0x35C1 JUMP JUMPDEST PUSH2 0x3262 PUSH8 0x6550D462D8D46B82 PUSH1 0xC0 SHL PUSH2 0x35C1 JUMP JUMPDEST PUSH2 0x3276 PUSH8 0x91F2C9A14EC7C40D PUSH1 0xC0 SHL PUSH2 0x35C1 JUMP JUMPDEST PUSH1 0x1 PUSH1 0x9 PUSH1 0x0 PUSH2 0x100 EXP DUP2 SLOAD DUP2 PUSH1 0xFF MUL NOT AND SWAP1 DUP4 ISZERO ISZERO MUL OR SWAP1 SSTORE POP JUMP JUMPDEST PUSH2 0x32A7 PUSH8 0x924EFBFFB591474F PUSH1 0xC0 SHL PUSH2 0x35C1 JUMP JUMPDEST PUSH2 0x32AF PUSH2 0x35C4 JUMP JUMPDEST PUSH2 0x32C3 PUSH8 0x1DADEDFC177FD74A PUSH1 0xC0 SHL PUSH2 0x35C1 JUMP JUMPDEST PUSH2 0x32D7 PUSH8 0xD429DD6E4F2748D4 PUSH1 0xC0 SHL PUSH2 0x35C1 JUMP JUMPDEST PUSH2 0x32EB PUSH8 0xDF70DB9E8E7C5AB2 PUSH1 0xC0 SHL PUSH2 0x35C1 JUMP JUMPDEST PUSH1 0x0 PUSH1 0x9 PUSH1 0x0 PUSH2 0x100 EXP DUP2 SLOAD DUP2 PUSH1 0xFF MUL NOT AND SWAP1 DUP4 ISZERO ISZERO MUL OR SWAP1 SSTORE POP JUMP JUMPDEST PUSH2 0x331C PUSH8 0x66950D0F74BC2F2 PUSH1 0xC0 SHL PUSH2 0x35C1 JUMP JUMPDEST PUSH2 0x3324 PUSH2 0x35C4 JUMP JUMPDEST PUSH2 0x3338 PUSH8 0xEA7DD679A038759F PUSH1 0xC0 SHL PUSH2 0x35C1 JUMP JUMPDEST PUSH2 0x334C PUSH8 0x4DBDCCFA13A72DB3 PUSH1 0xC0 SHL PUSH2 0x35C1 JUMP JUMPDEST PUSH2 0x3360 PUSH8 0x770DE82446F33298 PUSH1 0xC0 SHL PUSH2 0x35C1 JUMP JUMPDEST PUSH1 0x1 PUSH1 0xC PUSH1 0x0 DUP4 PUSH20 0xFFFFFFFFFFFFFFFFFFFFFFFFFFFFFFFFFFFFFFFF AND PUSH20 0xFFFFFFFFFFFFFFFFFFFFFFFFFFFFFFFFFFFFFFFF AND DUP2 MSTORE PUSH1 0x20 ADD SWAP1 DUP2 MSTORE PUSH1 0x20 ADD PUSH1 0x0 KECCAK256 PUSH1 0x0 PUSH2 0x100 EXP DUP2 SLOAD DUP2 PUSH1 0xFF MUL NOT AND SWAP1 DUP4 ISZERO ISZERO MUL OR SWAP1 SSTORE POP PUSH2 0x33CC PUSH8 0xC46E200249D9875D PUSH1 0xC0 SHL PUSH2 0x35C1 JUMP JUMPDEST PUSH2 0x33E0 PUSH8 0x9CF94FA52350166D PUSH1 0xC0 SHL PUSH2 0x35C1 JUMP JUMPDEST DUP1 PUSH20 0xFFFFFFFFFFFFFFFFFFFFFFFFFFFFFFFFFFFFFFFF AND PUSH32 0x8DAAF060C3306C38E068A75C054BF96ECD85A3DB1252712C4D93632744C42E0D PUSH1 0x1 PUSH1 0x40 MLOAD PUSH2 0x3427 SWAP2 SWAP1 PUSH2 0x3FB7 JUMP JUMPDEST PUSH1 0x40 MLOAD DUP1 SWAP2 SUB SWAP1 LOG2 POP JUMP JUMPDEST PUSH2 0x3446 PUSH8 0x36EE1057BCF57494 PUSH1 0xC0 SHL PUSH2 0x35C1 JUMP JUMPDEST PUSH2 0x344E PUSH2 0x35C4 JUMP JUMPDEST PUSH2 0x3462 PUSH8 0x5A7BA81E2BCF9499 PUSH1 0xC0 SHL PUSH2 0x35C1 JUMP JUMPDEST PUSH2 0x3475 PUSH7 0x2ED4B1406240CC PUSH1 0xC0 SHL PUSH2 0x35C1 JUMP JUMPDEST PUSH2 0x3489 PUSH8 0xBE46F85F1661D4AB PUSH1 0xC0 SHL PUSH2 0x35C1 JUMP JUMPDEST DUP1 PUSH1 0x7 DUP2 SWAP1 SSTORE POP POP JUMP JUMPDEST PUSH2 0x34A7 PUSH8 0x5EF1BC41756A5BC8 PUSH1 0xC0 SHL PUSH2 0x35C1 JUMP JUMPDEST PUSH2 0x34AF PUSH2 0x35C4 JUMP JUMPDEST PUSH2 0x34C3 PUSH8 0x8638D4A203A35CF PUSH1 0xC0 SHL PUSH2 0x35C1 JUMP JUMPDEST PUSH2 0x34D7 PUSH8 0x3F56BC33B3743281 PUSH1 0xC0 SHL PUSH2 0x35C1 JUMP JUMPDEST PUSH2 0x34EB PUSH8 0x83253E7EEB48716 PUSH1 0xC0 SHL PUSH2 0x35C1 JUMP JUMPDEST DUP1 PUSH1 0x3 DUP2 SWAP1 SSTORE POP POP JUMP JUMPDEST PUSH1 0x0 PUSH2 0x350B PUSH8 0x1E353A7A296BC379 PUSH1 0xC0 SHL PUSH2 0x35C1 JUMP JUMPDEST PUSH2 0x351F PUSH8 0xADDCF20F80D53B73 PUSH1 0xC0 SHL PUSH2 0x35C1 JUMP JUMPDEST PUSH2 0x3533 PUSH8 0x86DDF020D902A5FF PUSH1 0xC0 SHL PUSH2 0x35C1 JUMP JUMPDEST PUSH1 0xF SLOAD SWAP1 POP SWAP1 JUMP JUMPDEST PUSH2 0x3543 PUSH2 0x35C4 JUMP JUMPDEST PUSH1 0x0 PUSH20 0xFFFFFFFFFFFFFFFFFFFFFFFFFFFFFFFFFFFFFFFF AND DUP2 PUSH20 0xFFFFFFFFFFFFFFFFFFFFFFFFFFFFFFFFFFFFFFFF AND SUB PUSH2 0x35B5 JUMPI PUSH1 0x0 PUSH1 0x40 MLOAD PUSH32 0x1E4FBDF700000000000000000000000000000000000000000000000000000000 DUP2 MSTORE PUSH1 0x4 ADD PUSH2 0x35AC SWAP2 SWAP1 PUSH2 0x4272 JUMP JUMPDEST PUSH1 0x40 MLOAD DUP1 SWAP2 SUB SWAP1 REVERT JUMPDEST PUSH2 0x35BE DUP2 PUSH2 0x38B6 JUMP JUMPDEST POP JUMP JUMPDEST POP JUMP JUMPDEST PUSH2 0x35CC PUSH2 0x3A73 JUMP JUMPDEST PUSH20 0xFFFFFFFFFFFFFFFFFFFFFFFFFFFFFFFFFFFFFFFF AND PUSH2 0x35EA PUSH2 0x25EC JUMP JUMPDEST PUSH20 0xFFFFFFFFFFFFFFFFFFFFFFFFFFFFFFFFFFFFFFFF AND EQ PUSH2 0x3649 JUMPI PUSH2 0x360D PUSH2 0x3A73 JUMP JUMPDEST PUSH1 0x40 MLOAD PUSH32 0x118CDAA700000000000000000000000000000000000000000000000000000000 DUP2 MSTORE PUSH1 0x4 ADD PUSH2 0x3640 SWAP2 SWAP1 PUSH2 0x4272 JUMP JUMPDEST PUSH1 0x40 MLOAD DUP1 SWAP2 SUB SWAP1 REVERT JUMPDEST JUMP JUMPDEST PUSH2 0x36C7 DUP5 DUP6 PUSH20 0xFFFFFFFFFFFFFFFFFFFFFFFFFFFFFFFFFFFFFFFF AND PUSH4 0x23B872DD DUP7 DUP7 DUP7 PUSH1 0x40 MLOAD PUSH1 0x24 ADD PUSH2 0x3680 SWAP4 SWAP3 SWAP2 SWAP1 PUSH2 0x49CB JUMP JUMPDEST PUSH1 0x40 MLOAD PUSH1 0x20 DUP2 DUP4 SUB SUB DUP2 MSTORE SWAP1 PUSH1 0x40 MSTORE SWAP2 POP PUSH1 0xE0 SHL PUSH1 0x20 DUP3 ADD DUP1 MLOAD PUSH28 0xFFFFFFFFFFFFFFFFFFFFFFFFFFFFFFFFFFFFFFFFFFFFFFFFFFFFFFFF DUP4 DUP2 DUP4 AND OR DUP4 MSTORE POP POP POP POP PUSH2 0x3A7B JUMP JUMPDEST POP POP POP POP JUMP JUMPDEST PUSH1 0x0 PUSH2 0x36D7 PUSH2 0x3B12 JUMP JUMPDEST SWAP1 POP PUSH1 0x2 DUP2 PUSH1 0x0 ADD SLOAD SUB PUSH2 0x3717 JUMPI PUSH1 0x40 MLOAD PUSH32 0x3EE5AEB500000000000000000000000000000000000000000000000000000000 DUP2 MSTORE PUSH1 0x4 ADD PUSH1 0x40 MLOAD DUP1 SWAP2 SUB SWAP1 REVERT JUMPDEST PUSH1 0x2 DUP2 PUSH1 0x0 ADD DUP2 SWAP1 SSTORE POP POP JUMP JUMPDEST PUSH2 0x379E DUP4 DUP5 PUSH20 0xFFFFFFFFFFFFFFFFFFFFFFFFFFFFFFFFFFFFFFFF AND PUSH4 0xA9059CBB DUP6 DUP6 PUSH1 0x40 MLOAD PUSH1 0x24 ADD PUSH2 0x3757 SWAP3 SWAP2 SWAP1 PUSH2 0x4A02 JUMP JUMPDEST PUSH1 0x40 MLOAD PUSH1 0x20 DUP2 DUP4 SUB SUB DUP2 MSTORE SWAP1 PUSH1 0x40 MSTORE SWAP2 POP PUSH1 0xE0 SHL PUSH1 0x20 DUP3 ADD DUP1 MLOAD PUSH28 0xFFFFFFFFFFFFFFFFFFFFFFFFFFFFFFFFFFFFFFFFFFFFFFFFFFFFFFFF DUP4 DUP2 DUP4 AND OR DUP4 MSTORE POP POP POP POP PUSH2 0x3A7B JUMP JUMPDEST POP POP POP JUMP JUMPDEST PUSH1 0x0 PUSH2 0x37AD PUSH2 0x3B12 JUMP JUMPDEST SWAP1 POP PUSH1 0x1 DUP2 PUSH1 0x0 ADD DUP2 SWAP1 SSTORE POP POP JUMP JUMPDEST PUSH2 0x37C4 PUSH2 0x3B3A JUMP JUMPDEST PUSH1 0x0 PUSH2 0x37CE PUSH2 0x388E JUMP JUMPDEST SWAP1 POP PUSH1 0x0 DUP2 PUSH1 0x0 ADD PUSH1 0x0 PUSH2 0x100 EXP DUP2 SLOAD DUP2 PUSH1 0xFF MUL NOT AND SWAP1 DUP4 ISZERO ISZERO MUL OR SWAP1 SSTORE POP PUSH32 0x5DB9EE0A495BF2E6FF9C91A7834C1BA4FDD244A5E8AA4E537BD38AEAE4B073AA PUSH2 0x3816 PUSH2 0x3A73 JUMP JUMPDEST PUSH1 0x40 MLOAD PUSH2 0x3823 SWAP2 SWAP1 PUSH2 0x4272 JUMP JUMPDEST PUSH1 0x40 MLOAD DUP1 SWAP2 SUB SWAP1 LOG1 POP JUMP JUMPDEST PUSH1 0x0 PUSH32 0xF0C57E16840DF040F15088DC2F81FE391C3923BEC73E23A9662EFC9C229C6A00 SWAP1 POP SWAP1 JUMP JUMPDEST PUSH2 0x385E PUSH2 0x3B7A JUMP JUMPDEST PUSH2 0x3867 DUP2 PUSH2 0x3BBA JUMP JUMPDEST POP JUMP JUMPDEST PUSH2 0x3872 PUSH2 0x3B7A JUMP JUMPDEST PUSH2 0x387A PUSH2 0x3C40 JUMP JUMPDEST JUMP JUMPDEST PUSH2 0x3884 PUSH2 0x3B7A JUMP JUMPDEST PUSH2 0x388C PUSH2 0x3C74 JUMP JUMPDEST JUMP JUMPDEST PUSH1 0x0 PUSH32 0xCD5ED15C6E187E77E9AEE88184C21F4F2182AB5827CB3B7E07FBEDCD63F03300 SWAP1 POP SWAP1 JUMP JUMPDEST PUSH1 0x0 PUSH2 0x38C0 PUSH2 0x39FF JUMP JUMPDEST SWAP1 POP PUSH1 0x0 DUP2 PUSH1 0x0 ADD PUSH1 0x0 SWAP1 SLOAD SWAP1 PUSH2 0x100 EXP SWAP1 DIV PUSH20 0xFFFFFFFFFFFFFFFFFFFFFFFFFFFFFFFFFFFFFFFF AND SWAP1 POP DUP3 DUP3 PUSH1 0x0 ADD PUSH1 0x0 PUSH2 0x100 EXP DUP2 SLOAD DUP2 PUSH20 0xFFFFFFFFFFFFFFFFFFFFFFFFFFFFFFFFFFFFFFFF MUL NOT AND SWAP1 DUP4 PUSH20 0xFFFFFFFFFFFFFFFFFFFFFFFFFFFFFFFFFFFFFFFF AND MUL OR SWAP1 SSTORE POP DUP3 PUSH20 0xFFFFFFFFFFFFFFFFFFFFFFFFFFFFFFFFFFFFFFFF AND DUP2 PUSH20 0xFFFFFFFFFFFFFFFFFFFFFFFFFFFFFFFFFFFFFFFF AND PUSH32 0x8BE0079C531659141344CD1FD0A4F28419497F9722A3DAAFE3B4186F6B6457E0 PUSH1 0x40 MLOAD PUSH1 0x40 MLOAD DUP1 SWAP2 SUB SWAP1 LOG3 POP POP POP JUMP JUMPDEST PUSH2 0x3995 PUSH2 0x3A27 JUMP JUMPDEST PUSH1 0x0 PUSH2 0x399F PUSH2 0x388E JUMP JUMPDEST SWAP1 POP PUSH1 0x1 DUP2 PUSH1 0x0 ADD PUSH1 0x0 PUSH2 0x100 EXP DUP2 SLOAD DUP2 PUSH1 0xFF MUL NOT AND SWAP1 DUP4 ISZERO ISZERO MUL OR SWAP1 SSTORE POP PUSH32 0x62E78CEA01BEE320CD4E420270B5EA74000D11B0C9F74754EBDBFC544B05A258 PUSH2 0x39E7 PUSH2 0x3A73 JUMP JUMPDEST PUSH1 0x40 MLOAD PUSH2 0x39F4 SWAP2 SWAP1 PUSH2 0x4272 JUMP JUMPDEST PUSH1 0x40 MLOAD DUP1 SWAP2 SUB SWAP1 LOG1 POP JUMP JUMPDEST PUSH1 0x0 PUSH32 0x9016D09D72D40FDAE2FD8CEAC6B6234C7706214FD39C1CD1E609A0528C199300 SWAP1 POP SWAP1 JUMP JUMPDEST PUSH2 0x3A2F PUSH2 0x21CE JUMP JUMPDEST ISZERO PUSH2 0x3A66 JUMPI PUSH1 0x40 MLOAD PUSH32 0xD93C066500000000000000000000000000000000000000000000000000000000 DUP2 MSTORE PUSH1 0x4 ADD PUSH1 0x40 MLOAD DUP1 SWAP2 SUB SWAP1 REVERT JUMPDEST JUMP JUMPDEST PUSH1 0x0 PUSH1 0x1 SWAP1 POP SWAP2 SWAP1 POP JUMP JUMPDEST PUSH1 0x0 CALLER SWAP1 POP SWAP1 JUMP JUMPDEST PUSH1 0x0 PUSH2 0x3AA6 DUP3 DUP5 PUSH20 0xFFFFFFFFFFFFFFFFFFFFFFFFFFFFFFFFFFFFFFFF AND PUSH2 0x3C95 SWAP1 SWAP2 SWAP1 PUSH4 0xFFFFFFFF AND JUMP JUMPDEST SWAP1 POP PUSH1 0x0 DUP2 MLOAD EQ ISZERO DUP1 ISZERO PUSH2 0x3ACB JUMPI POP DUP1 DUP1 PUSH1 0x20 ADD SWAP1 MLOAD DUP2 ADD SWAP1 PUSH2 0x3AC9 SWAP2 SWAP1 PUSH2 0x4A40 JUMP JUMPDEST ISZERO JUMPDEST ISZERO PUSH2 0x3B0D JUMPI DUP3 PUSH1 0x40 MLOAD PUSH32 0x5274AFE700000000000000000000000000000000000000000000000000000000 DUP2 MSTORE PUSH1 0x4 ADD PUSH2 0x3B04 SWAP2 SWAP1 PUSH2 0x4272 JUMP JUMPDEST PUSH1 0x40 MLOAD DUP1 SWAP2 SUB SWAP1 REVERT JUMPDEST POP POP POP JUMP JUMPDEST PUSH1 0x0 PUSH32 0x9B779B17422D0DF92223018B32B4D1FA46E071723D6817E2486D003BECC55F00 SWAP1 POP SWAP1 JUMP JUMPDEST PUSH2 0x3B42 PUSH2 0x21CE JUMP JUMPDEST PUSH2 0x3B78 JUMPI PUSH1 0x40 MLOAD PUSH32 0x8DFC202B00000000000000000000000000000000000000000000000000000000 DUP2 MSTORE PUSH1 0x4 ADD PUSH1 0x40 MLOAD DUP1 SWAP2 SUB SWAP1 REVERT JUMPDEST JUMP JUMPDEST PUSH2 0x3B82 PUSH2 0x3CAB JUMP JUMPDEST PUSH2 0x3BB8 JUMPI PUSH1 0x40 MLOAD PUSH32 0xD7E6BCF800000000000000000000000000000000000000000000000000000000 DUP2 MSTORE PUSH1 0x4 ADD PUSH1 0x40 MLOAD DUP1 SWAP2 SUB SWAP1 REVERT JUMPDEST JUMP JUMPDEST PUSH2 0x3BC2 PUSH2 0x3B7A JUMP JUMPDEST PUSH1 0x0 PUSH20 0xFFFFFFFFFFFFFFFFFFFFFFFFFFFFFFFFFFFFFFFF AND DUP2 PUSH20 0xFFFFFFFFFFFFFFFFFFFFFFFFFFFFFFFFFFFFFFFF AND SUB PUSH2 0x3C34 JUMPI PUSH1 0x0 PUSH1 0x40 MLOAD PUSH32 0x1E4FBDF700000000000000000000000000000000000000000000000000000000 DUP2 MSTORE PUSH1 0x4 ADD PUSH2 0x3C2B SWAP2 SWAP1 PUSH2 0x4272 JUMP JUMPDEST PUSH1 0x40 MLOAD DUP1 SWAP2 SUB SWAP1 REVERT JUMPDEST PUSH2 0x3C3D DUP2 PUSH2 0x38B6 JUMP JUMPDEST POP JUMP JUMPDEST PUSH2 0x3C48 PUSH2 0x3B7A JUMP JUMPDEST PUSH1 0x0 PUSH2 0x3C52 PUSH2 0x388E JUMP JUMPDEST SWAP1 POP PUSH1 0x0 DUP2 PUSH1 0x0 ADD PUSH1 0x0 PUSH2 0x100 EXP DUP2 SLOAD DUP2 PUSH1 0xFF MUL NOT AND SWAP1 DUP4 ISZERO ISZERO MUL OR SWAP1 SSTORE POP POP JUMP JUMPDEST PUSH2 0x3C7C PUSH2 0x3B7A JUMP JUMPDEST PUSH1 0x0 PUSH2 0x3C86 PUSH2 0x3B12 JUMP JUMPDEST SWAP1 POP PUSH1 0x1 DUP2 PUSH1 0x0 ADD DUP2 SWAP1 SSTORE POP POP JUMP JUMPDEST PUSH1 0x60 PUSH2 0x3CA3 DUP4 DUP4 PUSH1 0x0 PUSH2 0x3CCB JUMP JUMPDEST SWAP1 POP SWAP3 SWAP2 POP POP JUMP JUMPDEST PUSH1 0x0 PUSH2 0x3CB5 PUSH2 0x382E JUMP JUMPDEST PUSH1 0x0 ADD PUSH1 0x8 SWAP1 SLOAD SWAP1 PUSH2 0x100 EXP SWAP1 DIV PUSH1 0xFF AND SWAP1 POP SWAP1 JUMP JUMPDEST PUSH1 0x60 DUP2 SELFBALANCE LT ISZERO PUSH2 0x3D12 JUMPI ADDRESS PUSH1 0x40 MLOAD PUSH32 0xCD78605900000000000000000000000000000000000000000000000000000000 DUP2 MSTORE PUSH1 0x4 ADD PUSH2 0x3D09 SWAP2 SWAP1 PUSH2 0x4272 JUMP JUMPDEST PUSH1 0x40 MLOAD DUP1 SWAP2 SUB SWAP1 REVERT JUMPDEST PUSH1 0x0 DUP1 DUP6 PUSH20 0xFFFFFFFFFFFFFFFFFFFFFFFFFFFFFFFFFFFFFFFF AND DUP5 DUP7 PUSH1 0x40 MLOAD PUSH2 0x3D3B SWAP2 SWAP1 PUSH2 0x4ADE JUMP JUMPDEST PUSH1 0x0 PUSH1 0x40 MLOAD DUP1 DUP4 SUB DUP2 DUP6 DUP8 GAS CALL SWAP3 POP POP POP RETURNDATASIZE DUP1 PUSH1 0x0 DUP2 EQ PUSH2 0x3D78 JUMPI PUSH1 0x40 MLOAD SWAP2 POP PUSH1 0x1F NOT PUSH1 0x3F RETURNDATASIZE ADD AND DUP3 ADD PUSH1 0x40 MSTORE RETURNDATASIZE DUP3 MSTORE RETURNDATASIZE PUSH1 0x0 PUSH1 0x20 DUP5 ADD RETURNDATACOPY PUSH2 0x3D7D JUMP JUMPDEST PUSH1 0x60 SWAP2 POP JUMPDEST POP SWAP2 POP SWAP2 POP PUSH2 0x3D8D DUP7 DUP4 DUP4 PUSH2 0x3D98 JUMP JUMPDEST SWAP3 POP POP POP SWAP4 SWAP3 POP POP POP JUMP JUMPDEST PUSH1 0x60 DUP3 PUSH2 0x3DAD JUMPI PUSH2 0x3DA8 DUP3 PUSH2 0x3E27 JUMP JUMPDEST PUSH2 0x3E1F JUMP JUMPDEST PUSH1 0x0 DUP3 MLOAD EQ DUP1 ISZERO PUSH2 0x3DD5 JUMPI POP PUSH1 0x0 DUP5 PUSH20 0xFFFFFFFFFFFFFFFFFFFFFFFFFFFFFFFFFFFFFFFF AND EXTCODESIZE EQ JUMPDEST ISZERO PUSH2 0x3E17 JUMPI DUP4 PUSH1 0x40 MLOAD PUSH32 0x9996B31500000000000000000000000000000000000000000000000000000000 DUP2 MSTORE PUSH1 0x4 ADD PUSH2 0x3E0E SWAP2 SWAP1 PUSH2 0x4272 JUMP JUMPDEST PUSH1 0x40 MLOAD DUP1 SWAP2 SUB SWAP1 REVERT JUMPDEST DUP2 SWAP1 POP PUSH2 0x3E20 JUMP JUMPDEST JUMPDEST SWAP4 SWAP3 POP POP POP JUMP JUMPDEST PUSH1 0x0 DUP2 MLOAD GT ISZERO PUSH2 0x3E3A JUMPI DUP1 MLOAD DUP1 DUP3 PUSH1 0x20 ADD REVERT JUMPDEST PUSH1 0x40 MLOAD PUSH32 0x1425EA4200000000000000000000000000000000000000000000000000000000 DUP2 MSTORE PUSH1 0x4 ADD PUSH1 0x40 MLOAD DUP1 SWAP2 SUB SWAP1 REVERT JUMPDEST PUSH1 0x0 DUP1 REVERT JUMPDEST PUSH1 0x0 DUP2 SWAP1 POP SWAP2 SWAP1 POP JUMP JUMPDEST PUSH2 0x3E84 DUP2 PUSH2 0x3E71 JUMP JUMPDEST DUP2 EQ PUSH2 0x3E8F JUMPI PUSH1 0x0 DUP1 REVERT JUMPDEST POP JUMP JUMPDEST PUSH1 0x0 DUP2 CALLDATALOAD SWAP1 POP PUSH2 0x3EA1 DUP2 PUSH2 0x3E7B JUMP JUMPDEST SWAP3 SWAP2 POP POP JUMP JUMPDEST PUSH1 0x0 DUP1 PUSH1 0x40 DUP4 DUP6 SUB SLT ISZERO PUSH2 0x3EBE JUMPI PUSH2 0x3EBD PUSH2 0x3E6C JUMP JUMPDEST JUMPDEST PUSH1 0x0 PUSH2 0x3ECC DUP6 DUP3 DUP7 ADD PUSH2 0x3E92 JUMP JUMPDEST SWAP3 POP POP PUSH1 0x20 PUSH2 0x3EDD DUP6 DUP3 DUP7 ADD PUSH2 0x3E92 JUMP JUMPDEST SWAP2 POP POP SWAP3 POP SWAP3 SWAP1 POP JUMP JUMPDEST PUSH2 0x3EF0 DUP2 PUSH2 0x3E71 JUMP JUMPDEST DUP3 MSTORE POP POP JUMP JUMPDEST PUSH1 0x0 PUSH1 0x20 DUP3 ADD SWAP1 POP PUSH2 0x3F0B PUSH1 0x0 DUP4 ADD DUP5 PUSH2 0x3EE7 JUMP JUMPDEST SWAP3 SWAP2 POP POP JUMP JUMPDEST PUSH1 0x0 PUSH20 0xFFFFFFFFFFFFFFFFFFFFFFFFFFFFFFFFFFFFFFFF DUP3 AND SWAP1 POP SWAP2 SWAP1 POP JUMP JUMPDEST PUSH1 0x0 PUSH2 0x3F3C DUP3 PUSH2 0x3F11 JUMP JUMPDEST SWAP1 POP SWAP2 SWAP1 POP JUMP JUMPDEST PUSH2 0x3F4C DUP2 PUSH2 0x3F31 JUMP JUMPDEST DUP2 EQ PUSH2 0x3F57 JUMPI PUSH1 0x0 DUP1 REVERT JUMPDEST POP JUMP JUMPDEST PUSH1 0x0 DUP2 CALLDATALOAD SWAP1 POP PUSH2 0x3F69 DUP2 PUSH2 0x3F43 JUMP JUMPDEST SWAP3 SWAP2 POP POP JUMP JUMPDEST PUSH1 0x0 PUSH1 0x20 DUP3 DUP5 SUB SLT ISZERO PUSH2 0x3F85 JUMPI PUSH2 0x3F84 PUSH2 0x3E6C JUMP JUMPDEST JUMPDEST PUSH1 0x0 PUSH2 0x3F93 DUP5 DUP3 DUP6 ADD PUSH2 0x3F5A JUMP JUMPDEST SWAP2 POP POP SWAP3 SWAP2 POP POP JUMP JUMPDEST PUSH1 0x0 DUP2 ISZERO ISZERO SWAP1 POP SWAP2 SWAP1 POP JUMP JUMPDEST PUSH2 0x3FB1 DUP2 PUSH2 0x3F9C JUMP JUMPDEST DUP3 MSTORE POP POP JUMP JUMPDEST PUSH1 0x0 PUSH1 0x20 DUP3 ADD SWAP1 POP PUSH2 0x3FCC PUSH1 0x0 DUP4 ADD DUP5 PUSH2 0x3FA8 JUMP JUMPDEST SWAP3 SWAP2 POP POP JUMP JUMPDEST PUSH1 0x0 PUSH1 0x20 DUP3 DUP5 SUB SLT ISZERO PUSH2 0x3FE8 JUMPI PUSH2 0x3FE7 PUSH2 0x3E6C JUMP JUMPDEST JUMPDEST PUSH1 0x0 PUSH2 0x3FF6 DUP5 DUP3 DUP6 ADD PUSH2 0x3E92 JUMP JUMPDEST SWAP2 POP POP SWAP3 SWAP2 POP POP JUMP JUMPDEST PUSH1 0x0 DUP1 PUSH1 0x0 DUP1 PUSH1 0x0 DUP1 PUSH1 0xC0 DUP8 DUP10 SUB SLT ISZERO PUSH2 0x401C JUMPI PUSH2 0x401B PUSH2 0x3E6C JUMP JUMPDEST JUMPDEST PUSH1 0x0 PUSH2 0x402A DUP10 DUP3 DUP11 ADD PUSH2 0x3E92 JUMP JUMPDEST SWAP7 POP POP PUSH1 0x20 PUSH2 0x403B DUP10 DUP3 DUP11 ADD PUSH2 0x3E92 JUMP JUMPDEST SWAP6 POP POP PUSH1 0x40 PUSH2 0x404C DUP10 DUP3 DUP11 ADD PUSH2 0x3E92 JUMP JUMPDEST SWAP5 POP POP PUSH1 0x60 PUSH2 0x405D DUP10 DUP3 DUP11 ADD PUSH2 0x3E92 JUMP JUMPDEST SWAP4 POP POP PUSH1 0x80 PUSH2 0x406E DUP10 DUP3 DUP11 ADD PUSH2 0x3E92 JUMP JUMPDEST SWAP3 POP POP PUSH1 0xA0 PUSH2 0x407F DUP10 DUP3 DUP11 ADD PUSH2 0x3E92 JUMP JUMPDEST SWAP2 POP POP SWAP3 SWAP6 POP SWAP3 SWAP6 POP SWAP3 SWAP6 JUMP JUMPDEST PUSH2 0x4095 DUP2 PUSH2 0x3F9C JUMP JUMPDEST DUP2 EQ PUSH2 0x40A0 JUMPI PUSH1 0x0 DUP1 REVERT JUMPDEST POP JUMP JUMPDEST PUSH1 0x0 DUP2 CALLDATALOAD SWAP1 POP PUSH2 0x40B2 DUP2 PUSH2 0x408C JUMP JUMPDEST SWAP3 SWAP2 POP POP JUMP JUMPDEST PUSH1 0x0 DUP1 PUSH1 0x0 DUP1 PUSH1 0x0 DUP1 PUSH1 0x0 DUP1 PUSH1 0x0 PUSH2 0x120 DUP11 DUP13 SUB SLT ISZERO PUSH2 0x40DB JUMPI PUSH2 0x40DA PUSH2 0x3E6C JUMP JUMPDEST JUMPDEST PUSH1 0x0 PUSH2 0x40E9 DUP13 DUP3 DUP14 ADD PUSH2 0x3F5A JUMP JUMPDEST SWAP10 POP POP PUSH1 0x20 PUSH2 0x40FA DUP13 DUP3 DUP14 ADD PUSH2 0x3E92 JUMP JUMPDEST SWAP9 POP POP PUSH1 0x40 PUSH2 0x410B DUP13 DUP3 DUP14 ADD PUSH2 0x3E92 JUMP JUMPDEST SWAP8 POP POP PUSH1 0x60 PUSH2 0x411C DUP13 DUP3 DUP14 ADD PUSH2 0x3E92 JUMP JUMPDEST SWAP7 POP POP PUSH1 0x80 PUSH2 0x412D DUP13 DUP3 DUP14 ADD PUSH2 0x3E92 JUMP JUMPDEST SWAP6 POP POP PUSH1 0xA0 PUSH2 0x413E DUP13 DUP3 DUP14 ADD PUSH2 0x3E92 JUMP JUMPDEST SWAP5 POP POP PUSH1 0xC0 PUSH2 0x414F DUP13 DUP3 DUP14 ADD PUSH2 0x3E92 JUMP JUMPDEST SWAP4 POP POP PUSH1 0xE0 PUSH2 0x4160 DUP13 DUP3 DUP14 ADD PUSH2 0x3E92 JUMP JUMPDEST SWAP3 POP POP PUSH2 0x100 PUSH2 0x4172 DUP13 DUP3 DUP14 ADD PUSH2 0x40A3 JUMP JUMPDEST SWAP2 POP POP SWAP3 SWAP6 SWAP9 POP SWAP3 SWAP6 SWAP9 POP SWAP3 SWAP6 SWAP9 JUMP JUMPDEST PUSH1 0x0 DUP2 SWAP1 POP SWAP2 SWAP1 POP JUMP JUMPDEST PUSH1 0x0 PUSH2 0x41A7 PUSH2 0x41A2 PUSH2 0x419D DUP5 PUSH2 0x3F11 JUMP JUMPDEST PUSH2 0x4182 JUMP JUMPDEST PUSH2 0x3F11 JUMP JUMPDEST SWAP1 POP SWAP2 SWAP1 POP JUMP JUMPDEST PUSH1 0x0 PUSH2 0x41B9 DUP3 PUSH2 0x418C JUMP JUMPDEST SWAP1 POP SWAP2 SWAP1 POP JUMP JUMPDEST PUSH1 0x0 PUSH2 0x41CB DUP3 PUSH2 0x41AE JUMP JUMPDEST SWAP1 POP SWAP2 SWAP1 POP JUMP JUMPDEST PUSH2 0x41DB DUP2 PUSH2 0x41C0 JUMP JUMPDEST DUP3 MSTORE POP POP JUMP JUMPDEST PUSH1 0x0 PUSH1 0x20 DUP3 ADD SWAP1 POP PUSH2 0x41F6 PUSH1 0x0 DUP4 ADD DUP5 PUSH2 0x41D2 JUMP JUMPDEST SWAP3 SWAP2 POP POP JUMP JUMPDEST PUSH1 0x0 DUP1 PUSH1 0x0 DUP1 PUSH1 0x80 DUP6 DUP8 SUB SLT ISZERO PUSH2 0x4216 JUMPI PUSH2 0x4215 PUSH2 0x3E6C JUMP JUMPDEST JUMPDEST PUSH1 0x0 PUSH2 0x4224 DUP8 DUP3 DUP9 ADD PUSH2 0x3E92 JUMP JUMPDEST SWAP5 POP POP PUSH1 0x20 PUSH2 0x4235 DUP8 DUP3 DUP9 ADD PUSH2 0x3E92 JUMP JUMPDEST SWAP4 POP POP PUSH1 0x40 PUSH2 0x4246 DUP8 DUP3 DUP9 ADD PUSH2 0x3E92 JUMP JUMPDEST SWAP3 POP POP PUSH1 0x60 PUSH2 0x4257 DUP8 DUP3 DUP9 ADD PUSH2 0x3E92 JUMP JUMPDEST SWAP2 POP POP SWAP3 SWAP6 SWAP2 SWAP5 POP SWAP3 POP JUMP JUMPDEST PUSH2 0x426C DUP2 PUSH2 0x3F31 JUMP JUMPDEST DUP3 MSTORE POP POP JUMP JUMPDEST PUSH1 0x0 PUSH1 0x20 DUP3 ADD SWAP1 POP PUSH2 0x4287 PUSH1 0x0 DUP4 ADD DUP5 PUSH2 0x4263 JUMP JUMPDEST SWAP3 SWAP2 POP POP JUMP JUMPDEST PUSH1 0x0 DUP1 PUSH1 0x40 DUP4 DUP6 SUB SLT ISZERO PUSH2 0x42A4 JUMPI PUSH2 0x42A3 PUSH2 0x3E6C JUMP JUMPDEST JUMPDEST PUSH1 0x0 PUSH2 0x42B2 DUP6 DUP3 DUP7 ADD PUSH2 0x3F5A JUMP JUMPDEST SWAP3 POP POP PUSH1 0x20 PUSH2 0x42C3 DUP6 DUP3 DUP7 ADD PUSH2 0x3E92 JUMP JUMPDEST SWAP2 POP POP SWAP3 POP SWAP3 SWAP1 POP JUMP JUMPDEST PUSH1 0x0 PUSH2 0x100 DUP3 ADD SWAP1 POP PUSH2 0x42E3 PUSH1 0x0 DUP4 ADD DUP12 PUSH2 0x3EE7 JUMP JUMPDEST PUSH2 0x42F0 PUSH1 0x20 DUP4 ADD DUP11 PUSH2 0x3EE7 JUMP JUMPDEST PUSH2 0x42FD PUSH1 0x40 DUP4 ADD DUP10 PUSH2 0x3EE7 JUMP JUMPDEST PUSH2 0x430A PUSH1 0x60 DUP4 ADD DUP9 PUSH2 0x3FA8 JUMP JUMPDEST PUSH2 0x4317 PUSH1 0x80 DUP4 ADD DUP8 PUSH2 0x3EE7 JUMP JUMPDEST PUSH2 0x4324 PUSH1 0xA0 DUP4 ADD DUP7 PUSH2 0x3EE7 JUMP JUMPDEST PUSH2 0x4331 PUSH1 0xC0 DUP4 ADD DUP6 PUSH2 0x3EE7 JUMP JUMPDEST PUSH2 0x433E PUSH1 0xE0 DUP4 ADD DUP5 PUSH2 0x3EE7 JUMP JUMPDEST SWAP10 SWAP9 POP POP POP POP POP POP POP POP POP JUMP JUMPDEST PUSH32 0x4E487B7100000000000000000000000000000000000000000000000000000000 PUSH1 0x0 MSTORE PUSH1 0x11 PUSH1 0x4 MSTORE PUSH1 0x24 PUSH1 0x0 REVERT JUMPDEST PUSH1 0x0 PUSH2 0x4385 DUP3 PUSH2 0x3E71 JUMP JUMPDEST SWAP2 POP PUSH2 0x4390 DUP4 PUSH2 0x3E71 JUMP JUMPDEST SWAP3 POP DUP3 DUP3 MUL PUSH2 0x439E DUP2 PUSH2 0x3E71 JUMP JUMPDEST SWAP2 POP DUP3 DUP3 DIV DUP5 EQ DUP4 ISZERO OR PUSH2 0x43B5 JUMPI PUSH2 0x43B4 PUSH2 0x434B JUMP JUMPDEST JUMPDEST POP SWAP3 SWAP2 POP POP JUMP JUMPDEST PUSH32 0x4E487B7100000000000000000000000000000000000000000000000000000000 PUSH1 0x0 MSTORE PUSH1 0x12 PUSH1 0x4 MSTORE PUSH1 0x24 PUSH1 0x0 REVERT JUMPDEST PUSH1 0x0 PUSH2 0x43F6 DUP3 PUSH2 0x3E71 JUMP JUMPDEST SWAP2 POP PUSH2 0x4401 DUP4 PUSH2 0x3E71 JUMP JUMPDEST SWAP3 POP DUP3 PUSH2 0x4411 JUMPI PUSH2 0x4410 PUSH2 0x43BC JUMP JUMPDEST JUMPDEST DUP3 DUP3 DIV SWAP1 POP SWAP3 SWAP2 POP POP JUMP JUMPDEST PUSH1 0x0 DUP3 DUP3 MSTORE PUSH1 0x20 DUP3 ADD SWAP1 POP SWAP3 SWAP2 POP POP JUMP JUMPDEST PUSH32 0x43616E6E6F74206465706F736974203000000000000000000000000000000000 PUSH1 0x0 DUP3 ADD MSTORE POP JUMP JUMPDEST PUSH1 0x0 PUSH2 0x4463 PUSH1 0x10 DUP4 PUSH2 0x441C JUMP JUMPDEST SWAP2 POP PUSH2 0x446E DUP3 PUSH2 0x442D JUMP JUMPDEST PUSH1 0x20 DUP3 ADD SWAP1 POP SWAP2 SWAP1 POP JUMP JUMPDEST PUSH1 0x0 PUSH1 0x20 DUP3 ADD SWAP1 POP DUP2 DUP2 SUB PUSH1 0x0 DUP4 ADD MSTORE PUSH2 0x4492 DUP2 PUSH2 0x4456 JUMP JUMPDEST SWAP1 POP SWAP2 SWAP1 POP JUMP JUMPDEST PUSH1 0x0 PUSH2 0x44A4 DUP3 PUSH2 0x3E71 JUMP JUMPDEST SWAP2 POP PUSH2 0x44AF DUP4 PUSH2 0x3E71 JUMP JUMPDEST SWAP3 POP DUP3 DUP3 ADD SWAP1 POP DUP1 DUP3 GT ISZERO PUSH2 0x44C7 JUMPI PUSH2 0x44C6 PUSH2 0x434B JUMP JUMPDEST JUMPDEST SWAP3 SWAP2 POP POP JUMP JUMPDEST PUSH1 0x0 PUSH2 0x44D8 DUP3 PUSH2 0x3E71 JUMP JUMPDEST SWAP2 POP PUSH2 0x44E3 DUP4 PUSH2 0x3E71 JUMP JUMPDEST SWAP3 POP DUP3 DUP3 SUB SWAP1 POP DUP2 DUP2 GT ISZERO PUSH2 0x44FB JUMPI PUSH2 0x44FA PUSH2 0x434B JUMP JUMPDEST JUMPDEST SWAP3 SWAP2 POP POP JUMP JUMPDEST PUSH32 0x556E7374616B6520616C72656164792072657175657374656400000000000000 PUSH1 0x0 DUP3 ADD MSTORE POP JUMP JUMPDEST PUSH1 0x0 PUSH2 0x4537 PUSH1 0x19 DUP4 PUSH2 0x441C JUMP JUMPDEST SWAP2 POP PUSH2 0x4542 DUP3 PUSH2 0x4501 JUMP JUMPDEST PUSH1 0x20 DUP3 ADD SWAP1 POP SWAP2 SWAP1 POP JUMP JUMPDEST PUSH1 0x0 PUSH1 0x20 DUP3 ADD SWAP1 POP DUP2 DUP2 SUB PUSH1 0x0 DUP4 ADD MSTORE PUSH2 0x4566 DUP2 PUSH2 0x452A JUMP JUMPDEST SWAP1 POP SWAP2 SWAP1 POP JUMP JUMPDEST PUSH32 0x556E7374616B65206E6F74207265717565737465640000000000000000000000 PUSH1 0x0 DUP3 ADD MSTORE POP JUMP JUMPDEST PUSH1 0x0 PUSH2 0x45A3 PUSH1 0x15 DUP4 PUSH2 0x441C JUMP JUMPDEST SWAP2 POP PUSH2 0x45AE DUP3 PUSH2 0x456D JUMP JUMPDEST PUSH1 0x20 DUP3 ADD SWAP1 POP SWAP2 SWAP1 POP JUMP JUMPDEST PUSH1 0x0 PUSH1 0x20 DUP3 ADD SWAP1 POP DUP2 DUP2 SUB PUSH1 0x0 DUP4 ADD MSTORE PUSH2 0x45D2 DUP2 PUSH2 0x4596 JUMP JUMPDEST SWAP1 POP SWAP2 SWAP1 POP JUMP JUMPDEST PUSH32 0x436F6F6C646F776E20706572696F64206E6F74206F7665720000000000000000 PUSH1 0x0 DUP3 ADD MSTORE POP JUMP JUMPDEST PUSH1 0x0 PUSH2 0x460F PUSH1 0x18 DUP4 PUSH2 0x441C JUMP JUMPDEST SWAP2 POP PUSH2 0x461A DUP3 PUSH2 0x45D9 JUMP JUMPDEST PUSH1 0x20 DUP3 ADD SWAP1 POP SWAP2 SWAP1 POP JUMP JUMPDEST PUSH1 0x0 PUSH1 0x20 DUP3 ADD SWAP1 POP DUP2 DUP2 SUB PUSH1 0x0 DUP4 ADD MSTORE PUSH2 0x463E DUP2 PUSH2 0x4602 JUMP JUMPDEST SWAP1 POP SWAP2 SWAP1 POP JUMP JUMPDEST PUSH1 0x0 DUP2 SWAP1 POP SWAP2 SWAP1 POP JUMP JUMPDEST PUSH1 0x0 PUSH8 0xFFFFFFFFFFFFFFFF DUP3 AND SWAP1 POP SWAP2 SWAP1 POP JUMP JUMPDEST PUSH1 0x0 PUSH2 0x467E PUSH2 0x4679 PUSH2 0x4674 DUP5 PUSH2 0x4645 JUMP JUMPDEST PUSH2 0x4182 JUMP JUMPDEST PUSH2 0x464F JUMP JUMPDEST SWAP1 POP SWAP2 SWAP1 POP JUMP JUMPDEST PUSH2 0x468E DUP2 PUSH2 0x4663 JUMP JUMPDEST DUP3 MSTORE POP POP JUMP JUMPDEST PUSH1 0x0 PUSH1 0x20 DUP3 ADD SWAP1 POP PUSH2 0x46A9 PUSH1 0x0 DUP4 ADD DUP5 PUSH2 0x4685 JUMP JUMPDEST SWAP3 SWAP2 POP POP JUMP JUMPDEST PUSH32 0x41646472657373206E6F742077686974656C6973746564000000000000000000 PUSH1 0x0 DUP3 ADD MSTORE POP JUMP JUMPDEST PUSH1 0x0 PUSH2 0x46E5 PUSH1 0x17 DUP4 PUSH2 0x441C JUMP JUMPDEST SWAP2 POP PUSH2 0x46F0 DUP3 PUSH2 0x46AF JUMP JUMPDEST PUSH1 0x20 DUP3 ADD SWAP1 POP SWAP2 SWAP1 POP JUMP JUMPDEST PUSH1 0x0 PUSH1 0x20 DUP3 ADD SWAP1 POP DUP2 DUP2 SUB PUSH1 0x0 DUP4 ADD MSTORE PUSH2 0x4714 DUP2 PUSH2 0x46D8 JUMP JUMPDEST SWAP1 POP SWAP2 SWAP1 POP JUMP JUMPDEST PUSH32 0x43616E6E6F74207374616B652030000000000000000000000000000000000000 PUSH1 0x0 DUP3 ADD MSTORE POP JUMP JUMPDEST PUSH1 0x0 PUSH2 0x4751 PUSH1 0xE DUP4 PUSH2 0x441C JUMP JUMPDEST SWAP2 POP PUSH2 0x475C DUP3 PUSH2 0x471B JUMP JUMPDEST PUSH1 0x20 DUP3 ADD SWAP1 POP SWAP2 SWAP1 POP JUMP JUMPDEST PUSH1 0x0 PUSH1 0x20 DUP3 ADD SWAP1 POP DUP2 DUP2 SUB PUSH1 0x0 DUP4 ADD MSTORE PUSH2 0x4780 DUP2 PUSH2 0x4744 JUMP JUMPDEST SWAP1 POP SWAP2 SWAP1 POP JUMP JUMPDEST PUSH32 0x416D6F756E742062656C6F77206D696E696D756D206361700000000000000000 PUSH1 0x0 DUP3 ADD MSTORE POP JUMP JUMPDEST PUSH1 0x0 PUSH2 0x47BD PUSH1 0x18 DUP4 PUSH2 0x441C JUMP JUMPDEST SWAP2 POP PUSH2 0x47C8 DUP3 PUSH2 0x4787 JUMP JUMPDEST PUSH1 0x20 DUP3 ADD SWAP1 POP SWAP2 SWAP1 POP JUMP JUMPDEST PUSH1 0x0 PUSH1 0x20 DUP3 ADD SWAP1 POP DUP2 DUP2 SUB PUSH1 0x0 DUP4 ADD MSTORE PUSH2 0x47EC DUP2 PUSH2 0x47B0 JUMP JUMPDEST SWAP1 POP SWAP2 SWAP1 POP JUMP JUMPDEST PUSH32 0x416D6F756E742065786365656473206D6178696D756D20636170000000000000 PUSH1 0x0 DUP3 ADD MSTORE POP JUMP JUMPDEST PUSH1 0x0 PUSH2 0x4829 PUSH1 0x1A DUP4 PUSH2 0x441C JUMP JUMPDEST SWAP2 POP PUSH2 0x4834 DUP3 PUSH2 0x47F3 JUMP JUMPDEST PUSH1 0x20 DUP3 ADD SWAP1 POP SWAP2 SWAP1 POP JUMP JUMPDEST PUSH1 0x0 PUSH1 0x20 DUP3 ADD SWAP1 POP DUP2 DUP2 SUB PUSH1 0x0 DUP4 ADD MSTORE PUSH2 0x4858 DUP2 PUSH2 0x481C JUMP JUMPDEST SWAP1 POP SWAP2 SWAP1 POP JUMP JUMPDEST PUSH1 0x0 PUSH2 0x486A DUP3 PUSH2 0x3E71 JUMP JUMPDEST SWAP2 POP PUSH32 0xFFFFFFFFFFFFFFFFFFFFFFFFFFFFFFFFFFFFFFFFFFFFFFFFFFFFFFFFFFFFFFFF DUP3 SUB PUSH2 0x489C JUMPI PUSH2 0x489B PUSH2 0x434B JUMP JUMPDEST JUMPDEST PUSH1 0x1 DUP3 ADD SWAP1 POP SWAP2 SWAP1 POP JUMP JUMPDEST PUSH32 0x43616E6E6F742077697468647261772030000000000000000000000000000000 PUSH1 0x0 DUP3 ADD MSTORE POP JUMP JUMPDEST PUSH1 0x0 PUSH2 0x48DD PUSH1 0x11 DUP4 PUSH2 0x441C JUMP JUMPDEST SWAP2 POP PUSH2 0x48E8 DUP3 PUSH2 0x48A7 JUMP JUMPDEST PUSH1 0x20 DUP3 ADD SWAP1 POP SWAP2 SWAP1 POP JUMP JUMPDEST PUSH1 0x0 PUSH1 0x20 DUP3 ADD SWAP1 POP DUP2 DUP2 SUB PUSH1 0x0 DUP4 ADD MSTORE PUSH2 0x490C DUP2 PUSH2 0x48D0 JUMP JUMPDEST SWAP1 POP SWAP2 SWAP1 POP JUMP JUMPDEST PUSH32 0x4E6F7420656E6F75676820746F6B656E7320696E2072657761726420706F6F6C PUSH1 0x0 DUP3 ADD MSTORE PUSH32 0x206166746572206163636F756E74696E6720666F722070656E64696E67207265 PUSH1 0x20 DUP3 ADD MSTORE PUSH32 0x7761726473000000000000000000000000000000000000000000000000000000 PUSH1 0x40 DUP3 ADD MSTORE POP JUMP JUMPDEST PUSH1 0x0 PUSH2 0x4995 PUSH1 0x45 DUP4 PUSH2 0x441C JUMP JUMPDEST SWAP2 POP PUSH2 0x49A0 DUP3 PUSH2 0x4913 JUMP JUMPDEST PUSH1 0x60 DUP3 ADD SWAP1 POP SWAP2 SWAP1 POP JUMP JUMPDEST PUSH1 0x0 PUSH1 0x20 DUP3 ADD SWAP1 POP DUP2 DUP2 SUB PUSH1 0x0 DUP4 ADD MSTORE PUSH2 0x49C4 DUP2 PUSH2 0x4988 JUMP JUMPDEST SWAP1 POP SWAP2 SWAP1 POP JUMP JUMPDEST PUSH1 0x0 PUSH1 0x60 DUP3 ADD SWAP1 POP PUSH2 0x49E0 PUSH1 0x0 DUP4 ADD DUP7 PUSH2 0x4263 JUMP JUMPDEST PUSH2 0x49ED PUSH1 0x20 DUP4 ADD DUP6 PUSH2 0x4263 JUMP JUMPDEST PUSH2 0x49FA PUSH1 0x40 DUP4 ADD DUP5 PUSH2 0x3EE7 JUMP JUMPDEST SWAP5 SWAP4 POP POP POP POP JUMP JUMPDEST PUSH1 0x0 PUSH1 0x40 DUP3 ADD SWAP1 POP PUSH2 0x4A17 PUSH1 0x0 DUP4 ADD DUP6 PUSH2 0x4263 JUMP JUMPDEST PUSH2 0x4A24 PUSH1 0x20 DUP4 ADD DUP5 PUSH2 0x3EE7 JUMP JUMPDEST SWAP4 SWAP3 POP POP POP JUMP JUMPDEST PUSH1 0x0 DUP2 MLOAD SWAP1 POP PUSH2 0x4A3A DUP2 PUSH2 0x408C JUMP JUMPDEST SWAP3 SWAP2 POP POP JUMP JUMPDEST PUSH1 0x0 PUSH1 0x20 DUP3 DUP5 SUB SLT ISZERO PUSH2 0x4A56 JUMPI PUSH2 0x4A55 PUSH2 0x3E6C JUMP JUMPDEST JUMPDEST PUSH1 0x0 PUSH2 0x4A64 DUP5 DUP3 DUP6 ADD PUSH2 0x4A2B JUMP JUMPDEST SWAP2 POP POP SWAP3 SWAP2 POP POP JUMP JUMPDEST PUSH1 0x0 DUP2 MLOAD SWAP1 POP SWAP2 SWAP1 POP JUMP JUMPDEST PUSH1 0x0 DUP2 SWAP1 POP SWAP3 SWAP2 POP POP JUMP JUMPDEST PUSH1 0x0 JUMPDEST DUP4 DUP2 LT ISZERO PUSH2 0x4AA1 JUMPI DUP1 DUP3 ADD MLOAD DUP2 DUP5 ADD MSTORE PUSH1 0x20 DUP2 ADD SWAP1 POP PUSH2 0x4A86 JUMP JUMPDEST PUSH1 0x0 DUP5 DUP5 ADD MSTORE POP POP POP POP JUMP JUMPDEST PUSH1 0x0 PUSH2 0x4AB8 DUP3 PUSH2 0x4A6D JUMP JUMPDEST PUSH2 0x4AC2 DUP2 DUP6 PUSH2 0x4A78 JUMP JUMPDEST SWAP4 POP PUSH2 0x4AD2 DUP2 DUP6 PUSH1 0x20 DUP7 ADD PUSH2 0x4A83 JUMP JUMPDEST DUP1 DUP5 ADD SWAP2 POP POP SWAP3 SWAP2 POP POP JUMP JUMPDEST PUSH1 0x0 PUSH2 0x4AEA DUP3 DUP5 PUSH2 0x4AAD JUMP JUMPDEST SWAP2 POP DUP2 SWAP1 POP SWAP3 SWAP2 POP POP JUMP INVALID LOG2 PUSH5 0x6970667358 0x22 SLT KECCAK256 0xE3 AND 0xA5 0xCE 0x4B MSTORE XOR MSTORE CALL 0x5C PUSH26 0xFF8C373A41C585631D56F2FC17357285357FC274864736F6C63 NUMBER STOP ADDMOD EQ STOP CALLER "},"methodIdentifiers":{"addToWhitelist(address)":"e43252d7","calculateTax(uint256,uint256,uint256,uint256)":"75713079","calculateTotalWithdraw(uint256,uint256,uint256,uint256,uint256,uint256)":"22e76837","calculateYield(uint256,uint256)":"043cbe5b","claim(uint256)":"379607f5","cooldownPeriod()":"04646a49","depositRewardTokens(uint256)":"16c621e0","disableWhitelist()":"d6b0f484","enableWhitelist()":"cdfb2b4e","getTotalStakedForUser(address)":"3b42ffcf","initialize(address,uint256,uint256,uint256,uint256,uint256,uint256,uint256,bool)":"45503b7c","maxCap()":"23548b8b","minCap()":"3fa615b0","monthlyIncreasePercentage()":"29161479","monthsInStakingPeriod()":"6f629512","owner()":"8da5cb5b","pause()":"8456cb59","paused()":"5c975abb","pendingRewards()":"eded3fda","removeFromWhitelist(address)":"8ab1d681","renounceOwnership()":"715018a6","rewardPool()":"66666aa9","stake(uint256)":"a694fc3a","stakingDuration()":"8005a7de","stakingToken()":"72f702f3","startingSlashingPoint()":"0b7ead4a","totalStaked()":"817b1cd2","transferOwnership(address)":"f2fde38b","unpause()":"3f4ba83a","unstake(uint256)":"2e17de78","updateCooldownPeriod(uint256)":"861f6bfd","updateMaxCap(uint256)":"e81ba080","updateMinCap(uint256)":"bcaabf6c","updateMonthlyIncreasePercentage(uint256)":"b3c55721","updateStakingDuration(uint256)":"5b1d7086","updateStartingSlashingPoint(uint256)":"e6d24866","updateYieldConstant(uint256)":"36c1105a","userStakeCounter(address)":"5678b024","userStakes(address,uint256)":"b5d5b5fa","whitelistEnabled()":"51fb012d","whitelistedAddresses(address)":"06c933d8","withdrawRewardTokens(uint256)":"cb43b2dd","yieldConstant()":"7a65cd0b"}},"storageLayout":{"storage":[{"astId":3561,"contract":"contracts/Staking.sol:Staking","label":"stakingToken","offset":0,"slot":"0","type":"t_contract(IERC20)2268"},{"astId":3563,"contract":"contracts/Staking.sol:Staking","label":"stakingDuration","offset":0,"slot":"1","type":"t_uint256"},{"astId":3565,"contract":"contracts/Staking.sol:Staking","label":"minCap","offset":0,"slot":"2","type":"t_uint256"},{"astId":3567,"contract":"contracts/Staking.sol:Staking","label":"maxCap","offset":0,"slot":"3","type":"t_uint256"},{"astId":3569,"contract":"contracts/Staking.sol:Staking","label":"yieldConstant","offset":0,"slot":"4","type":"t_uint256"},{"astId":3571,"contract":"contracts/Staking.sol:Staking","label":"cooldownPeriod","offset":0,"slot":"5","type":"t_uint256"},{"astId":3573,"contract":"contracts/Staking.sol:Staking","label":"monthsInStakingPeriod","offset":0,"slot":"6","type":"t_uint256"},{"astId":3575,"contract":"contracts/Staking.sol:Staking","label":"startingSlashingPoint","offset":0,"slot":"7","type":"t_uint256"},{"astId":3577,"contract":"contracts/Staking.sol:Staking","label":"monthlyIncreasePercentage","offset":0,"slot":"8","type":"t_uint256"},{"astId":3579,"contract":"contracts/Staking.sol:Staking","label":"whitelistEnabled","offset":0,"slot":"9","type":"t_bool"},{"astId":3603,"contract":"contracts/Staking.sol:Staking","label":"userStakes","offset":0,"slot":"10","type":"t_mapping(t_address,t_mapping(t_uint256,t_struct(Stake)3596_storage))"},{"astId":3607,"contract":"contracts/Staking.sol:Staking","label":"userStakeCounter","offset":0,"slot":"11","type":"t_mapping(t_address,t_uint256)"},{"astId":3611,"contract":"contracts/Staking.sol:Staking","label":"whitelistedAddresses","offset":0,"slot":"12","type":"t_mapping(t_address,t_bool)"},{"astId":3613,"contract":"contracts/Staking.sol:Staking","label":"_totalStaked","offset":0,"slot":"13","type":"t_uint256"},{"astId":3615,"contract":"contracts/Staking.sol:Staking","label":"_rewardPool","offset":0,"slot":"14","type":"t_uint256"},{"astId":3617,"contract":"contracts/Staking.sol:Staking","label":"_totalPendingRewards","offset":0,"slot":"15","type":"t_uint256"}],"types":{"t_address":{"encoding":"inplace","label":"address","numberOfBytes":"20"},"t_bool":{"encoding":"inplace","label":"bool","numberOfBytes":"1"},"t_contract(IERC20)2268":{"encoding":"inplace","label":"contract IERC20","numberOfBytes":"20"},"t_mapping(t_address,t_bool)":{"encoding":"mapping","key":"t_address","label":"mapping(address => bool)","numberOfBytes":"32","value":"t_bool"},"t_mapping(t_address,t_mapping(t_uint256,t_struct(Stake)3596_storage))":{"encoding":"mapping","key":"t_address","label":"mapping(address => mapping(uint256 => struct Staking.Stake))","numberOfBytes":"32","value":"t_mapping(t_uint256,t_struct(Stake)3596_storage)"},"t_mapping(t_address,t_uint256)":{"encoding":"mapping","key":"t_address","label":"mapping(address => uint256)","numberOfBytes":"32","value":"t_uint256"},"t_mapping(t_uint256,t_struct(Stake)3596_storage)":{"encoding":"mapping","key":"t_uint256","label":"mapping(uint256 => struct Staking.Stake)","numberOfBytes":"32","value":"t_struct(Stake)3596_storage"},"t_struct(Stake)3596_storage":{"encoding":"inplace","label":"struct Staking.Stake","members":[{"astId":3581,"contract":"contracts/Staking.sol:Staking","label":"amount","offset":0,"slot":"0","type":"t_uint256"},{"astId":3583,"contract":"contracts/Staking.sol:Staking","label":"startTime","offset":0,"slot":"1","type":"t_uint256"},{"astId":3585,"contract":"contracts/Staking.sol:Staking","label":"requestUnstakeTime","offset":0,"slot":"2","type":"t_uint256"},{"astId":3587,"contract":"contracts/Staking.sol:Staking","label":"unstakeRequested","offset":0,"slot":"3","type":"t_bool"},{"astId":3589,"contract":"contracts/Staking.sol:Staking","label":"yieldConstant","offset":0,"slot":"4","type":"t_uint256"},{"astId":3591,"contract":"contracts/Staking.sol:Staking","label":"monthlyIncreasePercentage","offset":0,"slot":"5","type":"t_uint256"},{"astId":3593,"contract":"contracts/Staking.sol:Staking","label":"startingSlashingPoint","offset":0,"slot":"6","type":"t_uint256"},{"astId":3595,"contract":"contracts/Staking.sol:Staking","label":"stakingDuration","offset":0,"slot":"7","type":"t_uint256"}],"numberOfBytes":"256"},"t_uint256":{"encoding":"inplace","label":"uint256","numberOfBytes":"32"}}}}}}